:020000040000FA
:1000000098B40020B9CB0100DD080300A5CB0100A6
:10001000A5CB0100A5CB0100A5CB0100A5CB01001C
:1000200000000000000000000000000089CC01007A
:10003000A5CB01000000000055CE0100A5CB0100BA
:10004000D5CE0100D5CE0100D5CE0100D5CE010020
:10005000D5CE0100D5CE0100D5CE0100D5CE010010
:10006000D5CE0100D5CE0100D5CE0100D5CE010000
:10007000D5CE0100D5CE0100D5CE0100D5CE0100F0
:10025000D5CE01000F280300D5CE0100D5CE010078
:10026000D5CE0100D5CE0100F9270300D5CE01007F
:10027000D5CE0100D5CE0100D5CE0100D5CE0100EE
:10028000D5CE0100D5CE0100D5CE0100D5CE0100DE
:10029000D5CE0100D5CE0100D5CE0100D5CE0100CE
:1002A000D5CE0100D5CE0100D5CE0100D5CE0100BE
:1002B000D5CE0100D5CE0100D5CE0100D5CE0100AE
:1002C000D5CE0100D5CE0100D5CE0100D5CE01009E
:1002D000D5CE0100D5CE0100D5CE0100D5CE01008E
:1002E000D5CE0100D5CE0100D5CE0100D5CE01007E
:1002F000D5CE0100D5CE0100D5CE0100D5CE01006E
:10030000D5CE0100D5CE0100D5CE0100D5CE01005D
:10031000D5CE0100D5CE0100D5CE0100D5CE01004D
:10032000D5CE0100D5CE0100D5CE0100D5CE01003D
:10033000D5CE0100D5CE0100D5CE0100D5CE01002D
:10034000D5CE0100D5CE0100D5CE0100D5CE01001D
:10035000D5CE0100D5CE0100D5CE0100D5CE01000D
:10036000D5CE0100D5CE0100D5CE0100D5CE0100FD
:10037000D5CE0100D5CE0100D5CE0100D5CE0100ED
:10038000D5CE0100D5CE0100D5CE0100D5CE0100DD
:10039000D5CE0100D5CE0100D5CE0100D5CE0100CD
:1003A000D5CE0100D5CE0100D5CE0100D5CE0100BD
:1003B000D5CE0100D5CE0100D5CE0100D5CE0100AD
:1003C000D5CE0100D5CE0100D5CE0100D5CE01009D
:1003D000D5CE010025280300D5CE0100D5CE0100E1
:1003E000D5CE0100D5CE0100D5CE0100D5CE01007D
:1003F000D5CE0100D5CE0100D5CE0100D5CE01006D
:10040000D5CE0100D5CE0100D5CE0100D5CE01005C
:10041000D5CE0100D5CE0100D5CE0100D5CE01004C
:10042000D5CE0100D5CE0100D5CE0100D5CE01003C
:10043000D5CE0100D5CE0100D5CE0100D5CE01002C
:10044000D5CE0100D5CE0100D5CE0100D5CE01001C
:10045000D5CE0100D5CE0100D5CE0100D5CE01000C
:10046000D5CE0100D5CE0100D5CE0100D5CE0100FC
:0C047000D5CE0100D5CE0100D5CE010094
:10048000064A074B02604FF44472DB7882800822F0
:10049000C371002382710372704700BFA38E0100F5
:1004A000901A0020064A074B02604FF4B072DB7AC4
:1004B00082800822C371FF2382710372704700BFDC
:1004C00061880100901A0020084B094A1B7892F8B5
:1004D00028201B020749C27103F52E730160838037
:1004E00008238371FF230372704700BFBC1B0020E9
:1004F000901A0020F1400100074A9378D278134403
:10050000064A02604FF4BA72C371FF23828004224C
:1005100003728271704700BF901A002007410100EA
:10052000064A9378D2781344002282600260044A1B
:100530004260C371FF230372704700BF901A00200E
:100540007000080008B502F0EDF804F081F90549E3
:100550000D2000F07DFC04490E20BDE8084000F0AD
:1005600077BC00BFC9040000F90400002DE9F34185
:10057000C41D0028064624F007040CBF00202046B6
:1005800000F078FC071E04DA6FF00B0002B0BDE843
:10059000F081374DE988A88803316B7A03302A7AD5
:1005A00089B280B213F0C8F80028EDDB3C44A9788A
:1005B000EB78002E04F10304194424F0030400FB3B
:1005C00001F10CBF0020204600F002FE20440EB9CD
:1005D0000028D9DBEA7A0446B2B1EB7B697C13448C
:1005E0001944FF29D0D80330002EAA89C9B220F0BF
:1005F00003040CBF0020204600F05CFE0028C3DB93
:1006000004440EB9002CBFDB012000F029FCB0B17E
:10061000A97BA1B195F82A3033B340234FF48172FE
:100620000734002E24F007040CBF0020204601F000
:100630009DFE0028A8DB04440EB9002CA4DBAB7A95
:10064000FBB1EB7AB3B10734002EA97A24F007048A
:100650000CBF0020204606F071F9002894DB04440A
:100660007EB9002C0DDA8FE725232822D8E700BFBA
:10067000901A0020012000F0F3FB10B1AB7B002B9F
:10068000E1D1734B1B6893B1A97D81B10334002E76
:10069000EA7D24F003040CBF002020469847002880
:1006A000FFF672AF044416B9002CFFF66DAF694B2C
:1006B0001B688BB1297C79B10334002E24F003042C
:1006C0000CBF0020204698470028FFF65DAF044489
:1006D00016B9002CFFF658AF5F4B1F68B7B1697CA5
:1006E000A1B10334002E2B7D24F0030408BF0020A9
:1006F000009318BF2046EB7CAA7CB8470028FFF681
:1007000043AF044416B9002CFFF63EAF072000F0BB
:10071000A7FB98B1A97D89B10334002E2A7E24F06D
:1007200003040CBF0020204600F0B2FE0028FFF6B4
:100730002BAF044416B9002CFFF626AFB6FA86F7A5
:1007400095F823007F09A0B103346B7FA97E24F0C4
:10075000070419443B4644F00404C9B2224600F0A1
:10076000D7FE0028FFF610AF044416B9002CFFF6A0
:100770000BAF95F8241000294CD004F10708002E87
:10078000EA8C28F007080CBF0020404612F0E8FF72
:10079000041EFFF6F9AE4444002E3ED1002CFFF6B5
:1007A000F3AEA97F002945D095F82230002B41D027
:1007B0002A8C0734002E02F1240224F007080CBF13
:1007C0000020404692B212F0CBFF0028FFF6DCAECC
:1007D000404416B90028FFF6D7AE03302B7FA97E20
:1007E00020F0070019443B4640F0040495F822002D
:1007F000C9B2224600F07EFE0028FFF6C5AE0444D2
:1008000086B9002CFFF6C0AEEB6AF3B1C6B1EC625C
:100810000020BBE6002EC4D08846E98C40460BF091
:10082000B9FCBEE72A8C4046A97F083292B20BF091
:10083000B7FCE9E7002EE7D0002211461046F6E7A4
:1008400028343FF5A1AE2046A0E6002EE0D1FAE71D
:10085000EC270020F0270020F42700201FB572B6F7
:10086000194B1C6BECB9BFF34F8F1849184BCA6872
:1008700002F4E0621343CB60BFF34F8F00BFFDE78C
:10088000B2FBF6F22B465D1C002AF9D1DBB203F174
:1008900010056D4405F80C2C0A2233B901A8A047B5
:1008A000E1E7024600230A26EDE7013BDBB203F154
:1008B00010050DEB0506B0FBF2F502FB150030301C
:1008C00006F80C0C2846E8E7901A002000ED00E03E
:1008D0000400FA0513B5124C68462389ADF80030C0
:1008E000E388ADF80430A388ADF8023003F062FB72
:1008F00018B1FA219C20FFF7B1FF207D03F08AFB9D
:1009000008B1FD21F6E7E07C03F07EFB08B1FE2193
:10091000F0E794F8290009F0DFFB02B010BD00BF3A
:10092000901A002070B50546002855D012F07EF8C8
:1009300018B94FF0FF34204670BD10F059FDB0F5E6
:10094000FA7FF6D8264C012625630025284684F830
:100950003450257084F82A50E5620AF01DFF1A22EF
:10096000294604F10F0019F003FB1B230821032281
:10097000A3802846E3800223A1721F216372E375DE
:10098000F72322722384FB23A2734922E3840A23E0
:10099000A1812946E27484F82930A670E670E672D7
:1009A000A674267601F0FCFE2A463146304601F058
:1009B000C9FE044620B140F2B5319C20FFF74EFF3E
:1009C000014601F0DBFEEFF3108572B600F0C6FDC4
:1009D000002DB0D162B6AEE76FF01504ABE700BFF3
:1009E000901A002038B51446002840F0EE80784D6B
:1009F00095F83430032B00F0E58019B312B96FF08D
:100A0000150038BD0139172900F2DF80DFE811F049
:100A1000180029002C0042006C007500940048006A
:100A200078007B008E004E005400620067009A0040
:100A30009D00AC00AF00B200A300B500B900D20029
:100A40001378AB700020FFF791FD0028B7BF01239A
:100A500002236FF00B0085F83430A8BF85F83430DE
:100A6000CFE71378EB70EDE71379002BC7D05379FC
:100A7000002BC4D01288FB2AC1D863881B3B9BB2D1
:100A8000E02BBCD81A2ABAD92368A2886B60514BD4
:100A90009A80D7E71378EA7B9342B0D3EB72D1E721
:100AA0001378EA7A9342AAD8EB73CBE71378EA7A01
:100AB0009342A4D86B74C5E71378002B9FD053786A
:100AC000013BDBB2F82B9AD8138892786B82424BA9
:100AD0009A70B7E71078687509F06CF9B2E7137887
:100AE000002B8CD02B76ADE7012000F0B9F92378EC
:100AF00008B1012B83D9AB73A4E71388AB81A1E7BD
:100B00001378AB759EE7072000F0AAF918B923788F
:100B1000012B7FF674AF072000F0A2F918B12378FB
:100B2000002B3FF46CAF2378EB758BE71378082B21
:100B30003FF665AF2B7485E71388FF2B3FF65FAF59
:100B4000AB727FE713786B767CE713780E2B3FF65A
:100B500056AFAB7676E72368204AC5F81E30636847
:100B60005360238913816DE71378EB766AE7137876
:100B70006B7767E713782B7764E7137885F828306D
:100B800060E701F0D9FD98B1007900F001026178C9
:100B9000207801F0D7FD00287FF433AF6378012B74
:100BA0007FF650AF0BF060FA00287FF44BAF26E7DA
:100BB0000246ECE713785A1E092A3FF620AF85F863
:100BC00029303FE74FF0FF301BE76FF02C0018E7AC
:100BD000901A0020941A0020A21A0020AE1A0020B9
:100BE000F8B50D46064630B329B311F0070422D1FB
:100BF000124F97F83430012B02D16FF00B00F8BD83
:100C0000032B02D14FF0FF30F9E700F0DDFC0028A4
:100C1000F8D02846FFF7AAFC0028EEDB18F071FD9B
:100C20003046F96A03F032FEFFF754FE03232046F4
:100C300087F83430E3E76FF01500E0E7901A002002
:100C400010B5074C94F83430032B03D103F036FE73
:100C500004F0ECFC12F0A8FE002084F8340010BD73
:100C6000901A002008B503F0A9FD03490320BDE850
:100C7000084000F0EDB800BFA504000008B503F07F
:100C8000B1FD03490220BDE8084000F0E1B800BF13
:100C90008104000008B503F0C7FD03F0D7F903494C
:100CA0000F20BDE8084000F0D3B800BF21050000C8
:100CB000074B4FF0FF3141F6FF72C3E900120549BF
:100CC0000022C1E900221F21C3E90212704700BFC0
:100CD00020110020C81A00203F280CD801380B4BE7
:100CE000C0F3421200F01F0053F8223023FA00F044
:100CF00000F001007047FF2806D04038044BC0F3D5
:100D0000421200F01F00EFE7012070472011002081
:100D1000C81A0020074B0146006849681A4603C2FA
:100D200040F48C2200201A6041F0107242F4FF62FD
:100D30005A607047201100200246034B006851683A
:100D400003C30020704700BFC81A00200246034BAF
:100D50000068516803C30020704700BF28110020BD
:100D60000138064BC0F3421200F01F0003EB820370
:100D70009B6823FA00F000F001007047201100206A
:100D80000A8870B595B2C67CC2F30E02048802369A
:100D900002F118033444C35AA4B233442344013B40
:100DA000B3FBF4F303FB0422438892B29342044B57
:100DB0008BBF2B40AB4313439BB20B8070BD00BF76
:100DC0000080FFFF4A1E062A08B50346084604D8DD
:100DD0004FF4D1711520FFF741FD094A914202D924
:100DE00040F2A311F6E711B903B1196008BD2BB1A8
:100DF0001B680022C3E901211A1D1A600430F5E7BF
:100E0000FAFFFF7F10B5114B00EB41041A7863899C
:100E1000B3FBF2F303FB0223013A1A44B2F5706FFD
:100E20000279807828BF00231A440B18B2FBF0F136
:100E300000FB11215B1AB3FBF0F100FB11331344EB
:100E40006FEA43436FEA5343638110BDD01A002019
:100E5000024B03EB80035960704700BFD01A00209B
:100E6000034B03EB80035868003818BF012070471C
:100E7000D01A00202DE9F04F10F0070A85B0054682
:100E800004D040F26F111720FFF7E8FC534F0446DF
:100E90004FF0010B07F15406B146B04657F8043B3A
:100EA0008DF80BA03BB101A898479DF80A30082B9C
:100EB00001D9F521E7E79DF80B1041BB05B1316081
:100EC0004F4506F10406E9D1002D6FD00022DFF86E
:100ED00010911427964689F8002058F827A0013F62
:100EE000BAF1000F55D09AF804609AF802C0FF2EAC
:100EF00060D039460023481C38D19C44BCF1FF0F18
:100F00003FD90AB189F800E04FF49A71BBE79DF828
:100F10000AC04B1D60465A0004EB4303022838BF49
:100F20000220441E40422344BDF808406444CCF1F2
:100F3000000C0340013C04EA0C04B4F5803F02D3EA
:100F400040F205119FE775B19A1A326091701480D2
:100F500082F803B09DF80C00107101984FEA104C14
:100F60001081A2F806C004FB0134A9E758F821005B
:100F700028B190F804B0B34504BF80781B1801393C
:100F8000B9E7DBB2E6458AF804303CBF5FFA8CFE75
:100F900001227B1CA1D10AB189F800E0142640F699
:100FA000FF6A58F82670B7B9013EFAD2601B05B047
:100FB000BDE8F08F0023E5E707EB410309F10109E4
:100FC0003846A3F80AA0FFF71DFF5FFA89F1BB7846
:100FD0008B42F1D8E8E74FF00009F6E7D41A002079
:100FE000D01A002038B54FF6FF7302460380184B25
:100FF00003EB8103986DA8B184780379B3FBF4F116
:1010000004FB1133DBB2194600EB4105B5F90A5078
:10101000002D0EDB0131B1FBF4F504FB1511C9B253
:101020008B42F1D1002038BD6381BDE8384012F019
:1010300050BB00EB41046389C3F30E031380C278F5
:10104000002AF1D14FF4E5711720FFF707FC00BF2C
:10105000D01A00201C4B03EB810370B59C6D054634
:1010600044B3030404D54FF4EC711720FFF7F6FBEB
:101070000146204612F010FBFF28014604D020460E
:10108000BDE8704012F025BBA078B5FBF0F300FB83
:101090001353DBB219460A1D04EB4206B6F902608F
:1010A000002E09DB0131B1FBF0F200FB1211C9B2D5
:1010B0008B42F0D1002070BD8B4201D00023E37041
:1010C00004EB42025580DAE7D01A0020094B03EB0B
:1010D0008103014610B59C6D204612F0DDFAFF2811
:1010E000014604D02046BDE8104012F0F2BA0020BC
:1010F00010BD00BFD01A0020F8B5104B074603EB17
:10110000810301469C6D204612F0C6FAFF28054671
:1011100011D0E288238953EA024606D001462046D0
:1011200012F0D7FA01463846B04720462946FFF765
:1011300069FE0020F8BD0520FCE700BFD01A0020A2
:1011400038B50E4B0446827903EB8203986D08B9DB
:10115000052038BD8278E1799142F9D24B1CE371C8
:1011600000EB41035D89B3F90A30002BF3DBA58066
:1011700012F0AFFA20600020EBE700BFD01A002089
:1011800008B5124B03EB81039A6D22B940F2462158
:101190001720FFF763FB9178831A481DA3EB4003E8
:1011A0001088B3FBF0F3002B01DB994202DC40F224
:1011B0004921EDE702EB4302B2F90A305089002BD6
:1011C00002DA40F24B21E3E708BD00BFD01A00204D
:1011D00070B5044610F003000E4603D04E211820CF
:1011E000FFF73CFBFFF7EEFD054624B1034831460F
:1011F0000460FFF7E7FD284670BD00BF7C1B0020A0
:101200002DE9F14FDFF870B01E4607460D46DBF8BA
:10121000003090469DF828A09DF82C901BB96021C5
:101220001820FFF71BFB52460921404612F0B8F880
:101230004A4684B20921304612F0B2F881B2DBF896
:101240000000214412F0FCF9386018B9286001B0A0
:10125000BDE8F08F04445346414609222C603868AB
:1012600012F061F84B4609223146286801B0BDE80A
:10127000F04F12F058B800BF7C1B002070B50E462E
:10128000044612F0A0F80546304612F09CF8044BD4
:101290002A1821461868BDE8704012F0F6B900BF60
:1012A0007C1B0020024B186808B112F0BDB97047D2
:1012B0007C1B00201F2AF8B5044613460ED8920066
:1012C000033222F00303B3F5803F2DD2184DACB1A9
:1012D000A00710D068210920FFF7C0FAFF2B4FEAC2
:1012E000420204D9FF339A42A8BF1A46E8E77C2A93
:1012F000B8BF7C22E4E729706C602B8122F00302E6
:1013000028230127120403FB01F06B680025120C4F
:10131000EEB2B14200D8F8BD14B126181F705E605D
:10132000104401352833F3E74FF0FF30F3E700BFF7
:10133000801B0020154A002170B553681578C8B28B
:10134000854203D8BA210920FFF788FA1C461846BF
:10135000013114F8286B0EB92346F0E7002199708B
:1013600001241289996103F126055C709208D96104
:1013700003F11E04596824F8022FA54243F8041F04
:101380001144F8D100234361037070BD801B00201D
:101390000A4B1B89B3F5FF7F4FEA930006D25A0828
:1013A0009B1A9BB2984238BF18467047B3F5EE6F50
:1013B00001D8FF22F4E740F27263F3E7801B0020BC
:1013C0004B782DE9F04106460C4602F0040702F086
:1013D000FB05E3B1A5BBFF23A3707B0804EB570714
:1013E0003A7D032A02D1022D18BF0133E2180121F0
:1013F000117503F10C01002204EB830324F8112082
:101400005B68A27030463360B280BDE8F081002D89
:10141000E1D1012301F11E028D6120464B7004F1E0
:10142000260C1A4BCD611B8949689B0822F8023FA4
:10143000944540F8041F1944F8D100236361CAE7BA
:10144000D1F8048014220021A018617018F090FDDA
:101450000E4B1B89B3F5FF7F0FD25A089B1A9BB224
:1014600008EB0301C4F804802384A1606284C4F8FB
:101470000C80A3842161E284ADE7B3F5EE6F4FF0F9
:10148000FF02EBD940F27263EAE700BF801B002045
:101490002DE9F84305460C46F7200521914611F049
:1014A0007FFF061E21DB1DB906FB04F0BDE8F883B3
:1014B00015F0030703D098211920FFF7CFF9DFF8C3
:1014C0003080C8F81050A8F81460BBB29C42EBD929
:1014D000B8F814504B46D8F810000522F72107FB46
:1014E0000500013711F01FFFEFE74FF0FF30DDE798
:1014F000941B002007B5CDE900230B4603490246A3
:10150000081D12F02BFA03B05DF804FBAC1B0020A1
:1015100013B5064CCDE900230B46024604F1080141
:1015200004F10C0012F01AFA02B010BDAC1B00203E
:1015300008B54B1E032B03D923219020FFF78EF90A
:101540000028054A0CBF05230C2303EB8103053358
:1015500023F00103137008BDBC1B0020114B0122B6
:101560004FF0FF3000215A60C3F80803C3F800159C
:10157000C3F804255A6040F6FE72C3F80803402001
:10158000C3F8001503F570330749C3F80825C1F8FF
:101590008800BFF34F8FBFF36F8FC1F88801C3F886
:1015A000082570470060045000E100E00268002058
:1015B000014B1A60704700BFC01B0020014B1B6825
:1015C000184700BFC01B0020024B1868003818BF26
:1015D00001207047C01B00200A4606489C2302F8E1
:1015E000033BC368C1F803300369536043699360E8
:1015F000704700BFC41B0020024B5A8C02435A8420
:101600005B6A1847C41B0020014B00215B6A184726
:10161000C41B002010B5154C09F054FD0AF07EF8EB
:10162000208DFFF7F1FF237E63B12246104904F1BC
:10163000190052F80C3BE36063685360A368936041
:1016400015F0EDFF218DE06A05F0D2F9E36AB3F8F9
:10165000AA0005F00DF9636B94F8301094F831008E
:101660009847002384F8383010BD00BFC41B002009
:10167000D9150000034B93F838300BB1FFF7CABF00
:10168000704700BFC41B00202DE9F041DFF88080C7
:1016900005460E4608F12C0013F0A8FF044618B1C9
:1016A00001242046BDE8F081D8F82C3093F8A870CA
:1016B0004FB1012D07D1B8F822301A0703D598F899
:1016C0003930002BECD1012EEAD8D8F83C3028462E
:1016D00098470028E4D098F83030002BE0D167B963
:1016E000012DDED1B8F82230002BD9D198F8403046
:1016F000002BD6D198F8414007E0002DD1D1B8F8A1
:1017000022309B07EED598F8394084F00104C8E7F1
:10171000C41B002070B5204C0646636DE56A636407
:101720004FF4817394F85800A4F848302B7D95F855
:10173000211100EB83002EB9FF2803D195F8203149
:101740008B4201D009F068F92B7DFBB1E06D09F007
:10175000F7FBE16D606C09F067FF66B995F8213120
:10176000033B012BB5F8E4308CBF0020282018443F
:1017700080B209F033FCB5F8E00009F00DF9002063
:1017800009F06AFC022384F8383070BD606C09F0FF
:10179000D7FB09F0C3FFE0E7C41B002008B5094BE5
:1017A00093F83820022A04D040F257312720FFF75F
:1017B00055F8DA7A42F00102DA72BDE80840FFF724
:1017C00029BF00BFC41B002010B590F86A1086B076
:1017D000D1B9C2880B4605910021CDE903110C490E
:1017E00091F85840029400F190040194C96A91F86C
:1017F000A810003918BF0121009100F180010220DA
:1018000009F022FE06B010BDD0E91E23E3E700BFB9
:10181000C41B00202DE9F041274C06460F4694F8E2
:101820003830012B5FFA83F804D040F60C112720E2
:10183000FFF714F8E56A2B7953B1002104202971D0
:10184000FFF7DAFEE36A93F8A8300BB185F805805C
:1018500094F860308BB92B7A052B0ED117490220F2
:10186000FFF7CAFEE36A93F8A83033B1E36E1B7842
:101870009A1E5342534184F839301EB1BDE8F041FD
:10188000FFF7C8BE002FF9D031463046FFF7FCFE07
:101890000028F3D12B7DE46A13B12846FFF794FFAB
:1018A00094F821210120B4F8E21017F052FF002033
:1018B000BDE8F041FFF72EBFC41B0020301C002004
:1018C0007FB590F86A10D1B9C2880B460591002106
:1018D000CDE90311FB21029100F190010191094929
:1018E000C96A91F8A810B1FA81F14909009100F193
:1018F0008001042009F0A8FD07B05DF804FBD0E9E1
:101900001C23E3E7C41B00201E4A10B5546E417827
:101910002378C90003F0F30301F008010B43817839
:10192000890001F004010B43C178090103F0EC03C5
:1019300001F010010B43017801F003010B43237008
:10194000B2F8703063700223516EA2F868300479E7
:101950000B786001012C23F0200300F0200043EA03
:1019600000030B700CD1D36A93F8BA2093F8BB3004
:10197000032A03F01F0308BF002243EA82138B707F
:1019800010BD00BFC41B0020F7B5184C0646656F9C
:101990000DB1E36C23B940F6C4012720FEF75EFFCA
:1019A000B4F8503001F003012F466B702B7823F010
:1019B00003030B4307F8033B3846B4F85020E16CAF
:1019C00011F09EF90DF1020201A9A06F6564E764B0
:1019D00011F020FE019811F00BFE0122B4F8501016
:1019E0003060A06F11F0AFFD03B0F0BDC41B00204C
:1019F0002DE9F04FAC4C87B0D4F82C8098F820112A
:101A000058B998F8142094F8583003EB8203FF2B50
:101A100003D198F821318B4202D0FF2008F0FCFF5F
:101A2000002304AA02A9A14804938DF8143084F875
:101A3000603001AB13F0CFFD0746002845D0029A75
:101A4000BDF8043022B940F213412720FEF706FF0B
:101A50006266A4F8703003B1D31CE366012384F8F6
:101A600060309DF8133004A8003B18BF012384F8B0
:101A7000403098F81330002B00F01C81B4F870301F
:101A8000002B00F01781FFF73FFFE06D09F058FAD7
:101A90009DF81420E16D003A606E18BF012209F034
:101AA000D9FB18B9616EE06D09F048FDB8F8E200A5
:101AB00008F072FF012009F0CFFA012384F8883082
:101AC00084F8383007B0BDE8F08FE66A8DF803007F
:101AD000337AADF80600062B00F2CA80DFE803F087
:101AE00004CBA1A1C8B8B80094F87F300DF106016D
:101AF00003A8A6F81031ADF8063003F005F938B1A7
:101B0000039D2DB1012384F88030052333729CE0BE
:101B1000E36A93F85130002B6BD10DF103020DF104
:101B20000601D4F8840011F075FC0546002860D049
:101B30009DF80370FFB10146D4F8840011F054FD04
:101B400011F056FDD0F800B0D0F804A081465BEA51
:101B50000A0348D1002389F8003089F8013089F858
:101B6000023089F8033089F8043089F8053089F8A3
:101B7000063089F80730BDF80630002B40D101232C
:101B800033720123002784F88030BDF80630656683
:101B9000A4F8703003B1EB1CE366727A357A8DF8E5
:101BA0001120022DB27A8DF8122004D0053D012DAE
:101BB0008CBF012503258DF81050002F5ED000202A
:101BC0009DF810308DF81300032B6BD1E36E1B785A
:101BD0001B2B67D1012106F1BA0008F065FF012334
:101BE0008DF814303DE717F0B6FF83457AEB01011D
:101BF000B0D2002301222E4DADF806303272C6E776
:101C00009DF803301BB92B80AB700323B8E72B780A
:101C100003F00303012BF8D0022333720023B375C2
:101C2000AFE7B6F810310DF103020DF10601D4F85B
:101C30008400ADF8063011F0EDFB054610B940F216
:101C4000C35102E7012384F88030BDF806309EE7D7
:101C50000DF1060103A803F057F808B1039D15B96B
:101C600040F2D251F1E6012384F8803006234DE79B
:101C700040F2DC51E9E60E4D002388E7032D02D146
:101C80001B78022B9BD0D4F8840011F01BFC38B9D0
:101C9000032D94D003F054F880F00100C0B28FE718
:101CA00001208DE700239BE7C41B0020F01B0020D0
:101CB000401C0020FFF728FE606E09F041F909F092
:101CC0002DFD9DF81410606E003918BF012117F02A
:101CD0004DFDEBE62DE9F04FB04C87B00027804674
:101CE00094F83830E56A022B019105F1A80ACDE994
:101CF000027704D040F6AD112720FEF7AFFD616CEE
:101D000003200B784A780144A4F84800E16403EA10
:101D10000001A4F850208DF81010C3F3C0018DF815
:101D20001110C3F380018DF81210C3F30011C3F337
:101D300040138DF813108DF81430B8F1000F00F037
:101D40000C8104A904F12C0013F047FC064630B9BD
:101D5000B4F8501009B3A06F11F0D5FB0746238DDE
:101D60009DF8121043F40073676723856B7A013383
:101D7000DAB203F0010399424AD12B7A33B3032B31
:101D80006A720CD8012B21D002A9D4F8840011F07A
:101D900063FBA0B940F2D471AEE70746DFE7053B2D
:101DA000012B02D940F2B371A6E702F0BBFF10B9D4
:101DB00040F2DE71A0E700210820FFF71DFCD5E905
:101DC0001C32013342F10002C5E91C320021E36AF2
:101DD000297293F8A8302BB16B791BB1102069716F
:101DE000FFF70AFC238D4FF0000B43F400632385BB
:101DF0002B7DDBB1B4F85030C3B109F0ADFC032842
:101E0000FBD0022806D1FFF705FC07B0BDE8F08F34
:101E1000C346EDE750B9AB7A9DF8112003F00103FA
:101E20009A4203D1012384F83130ECE7B4F85070C2
:101E3000E6B19DF81330591E4B424B4184F84130B6
:101E4000002F40F0B7800027B946019B002B00F01F
:101E5000B88009F037F9B9F1000F00F01E819DF844
:101E6000101003A8FFF790FD0127C9E0AB7A9DF899
:101E7000112003F001039A4223D19DF810307FB363
:101E80005A1E012A2CD8238D95F8149043F48053C0
:101E9000238508F097FD032894F8893007D1B9F11C
:101EA000000F0CBF1F221B22934228BF1346B4F819
:101EB00050209A4208D994F8303043F0100384F847
:101EC00030304FF000091EE0636F002BF9D094F81A
:101ED0008A301BB12020FFF797FBF2E79DF8103006
:101EE000AA7A032B02F10102AA722CD05A1E012AEF
:101EF0001DD8002FE5D0C146D5E91E32013342F18D
:101F00000002C5E91E32626F9DF81310002A56D1F7
:101F1000B4F85020B2FA82F25209012914BF00220B
:101F200002F001023746002684F841208DE7002F99
:101F3000C7D0002BC5D1D5E91E32013342F10002D2
:101F4000C5E91E32BDE7238D0120154943F48053B6
:101F500028712385FFF750FBEDE72B7D0BB109F0CE
:101F600015FC94F88B30013384F88B30238D43F4C7
:101F70008063238595F82131033B012B12D808F0AB
:101F800021FD032812D1B4F850604FF000091B2E38
:101F9000CB4694BF00260126B5E700BFC41B002036
:101FA000101C002003F0B0FC0028E8D10026B14648
:101FB000B346A8E7238D43F48053238543E70122EA
:101FC000ABE794F88B100120FFF75EFB00287FF44D
:101FD00040AFEA7C12B12846FFF772FC002095F86A
:101FE0002021B5F8E01017F0B4FB0020FFF700FD4A
:101FF000B9F1000F5AD09DF8101003A8FFF7C4FCE8
:10200000238D5A0606D44020FFF7FEFA238D43F0B5
:1020100040032385BBF1000F10D0EB884BB9E36A76
:1020200093F8A8302BB1B4F80530B4F80720134367
:1020300004D0B4F809300133A4F80930B8F1000F26
:102040003CD0B4F805300133A4F80530002384F8FF
:102050008B301D4804F070FB029830B111F0C8FAC3
:1020600000220272514603F0FBFB039B33B10022B6
:102070001A720C225146039803F0C0FB002F7FF424
:10208000C2AE238D1B063FF5C0AE8020FFF7BCFA21
:10209000238D43F080032385B7E6002E3FF4E4AEA2
:1020A0000A49A1F1200013F09AFADDE6002EA7D02C
:1020B0000649A1F1200013F092FAA1E7B4F8073025
:1020C0000133A4F80730C4E7F01B0020101C0020E7
:1020D000064B10B593F8382002F0FF0422B91C76A5
:1020E00004F07EFC204610BD0C24FBE7C41B00203E
:1020F000094B0A4A10B51A60FFF7EAFF20B14FF406
:10210000B1712720FEF7AAFB054C02F0F3FB6065D6
:1021100002F0F4FBE06510BDF82700205C2300000E
:10212000C41B0020F8B5794C054694F8386006F0D9
:10213000FF0016B909B102B123B94FF4207127206D
:10214000FEF78CFB63639DF81830616284F88A3077
:10215000E26384F8300084F88B0084F8310084F85E
:1021600088006084208584F8400084F8410084F869
:10217000800084F839006066E066A4F8700060644E
:10218000E064A4F85000E56208F0B0FC09F0C6FA7B
:1021900095F9280108F00EFDD5F8D460D5F8CC00EB
:1021A00008F00EFD304608F0AFFE95F8250008F067
:1021B00011FDB5F8E030622B03D9B5F8E230622B9F
:1021C00001D808F0EFFBE36A93F8A860002E40F016
:1021D000858016F009F895F820214D4B4FF47A715F
:1021E00053F8223003F5FA73B3FBF1F352331918A5
:1021F000304608F0FDFC474B186808F08BFED5F818
:10220000C030C4F88430D5F8C430A367AB7B243B1E
:10221000072B6BD9EB7B243B072B67D9B5F8F23042
:10222000B5F8F80095F82011984228BF18460429FF
:1022300008BF032114F093FD034695F8F40098427B
:1022400028BF184695F8F03080B2984200D3C3B248
:1022500095F8211105F1E80084F87F3015F08EFA29
:1022600095F821112F7D0329B5F8FC6008BF0421E2
:1022700014F075FD0FB9043080B2864228BF0646BF
:10228000F6B284F8896003F03FFB28B103F042FB0B
:10229000864238BF0646F6B284F8586013F0A2F9B9
:1022A000E36A93F8A8301BBBEB7C13B12846FFF719
:1022B00007FB0120FFF79CFB002323606360A36002
:1022C000EB886380B5F8AA30238095F82530237118
:1022D000D5F824310BB101221A60F8BD15F084FF46
:1022E00095F8212100F17101012082E71B23AFE75E
:1022F0002B7D13B12846FFF767FA0120FFF70AFA92
:10230000E36AD3F8F00108F037FED5E7C41B0020DC
:1023100094580300F8270020014B93F88800704779
:10232000C41B0020054A138D92F8800003F48051ED
:1023300010B113F4C06F00D1080B7047C41B00200C
:10234000024B93F82900C0F3C0007047C41B002063
:10235000014B93F88B007047C41B00209D170000B1
:10236000D51C00001518000075160000343270B539
:10237000054692B20C461E4611F0F2F925B1034A09
:10238000556014745674147070BD00BF681C002032
:102390000138C0B2032808B504D94FF43F710620B4
:1023A000FEF75CFA014B185C08BD00BFC85503007E
:1023B0000138C0B2032808B504D94FF43F71062094
:1023C000FEF74CFA014B185C08BD00BFE555030051
:1023D0000138C0B2032808B504D94FF43F71062074
:1023E000FEF73CFA014B185C08BD00BF48560300DD
:1023F0000138C0B2032808B504D94FF43F71062054
:10240000FEF72CFA014B185C08BD00BF41570300D2
:10241000F0B5284AA7B004460D4610686B465168CF
:1024200002AE0F2203C300210DF1890017F0A0FDB9
:1024300000211022304617F09BFD16ABDDE90001AC
:1024400083E80300234618AC03F128071868083313
:1024500053F8041C2246BB4203C21446F6D1802323
:1024600006AA8DF88830002302F8013B0133102BB7
:10247000FAD196E80F0012AC84E80F000AAA2146B0
:1024800006A811F0ACFA01230EAA214606A88DF881
:102490004B3011F0A4FA2A460EA90AA8042317F01B
:1024A000AAFC042305F1100229460AA817F0A3FC90
:1024B00027B0F0BDCC55030008B50AF0D9FB28B908
:1024C000034B1868BDE8084011F04FBC08BD00BFC1
:1024D0002C1D0020F7B50446052900F20C81DFE829
:1024E00011F00600A900AC000A010A01A50090F84D
:1024F000623223B903B0BDE8F0400FF0E5BE90F8BA
:102500006232052B05D10F220021204611F060FC1C
:10251000F0E74FF40C7180680EF01EFFA368283BB3
:10252000184417F066FA94F86232032B08D094F836
:102530006232022B04D04FF4AE718E20FEF78EF97A
:10254000032384F86232D4F8D4300D21B4F8642225
:102550002046B3F847301344A381FEF711FE064628
:102560000E21FEF7B3FD01A90546304614F05DFCCF
:1025700008B18D21E1E794F85D3240F2712E95F8B3
:102580003E710199B5F83821D1F8C810B5F850015D
:102590004A43B5F83A110EFB00F0B3FBF7F607FB20
:1025A00016335643DBB203F1010C4B430EFB0363BE
:1025B000834201D99721C0E7BC45A0EB030300D0BB
:1025C000F1B93244904202D8042284F86222D5F84C
:1025D0004C21934218D2042284F8622223F07F43D4
:1025E000D4F85022204663F31702C4F850220AF0B0
:1025F00091F960B9204603B0BDE8F04011F0B5BBD9
:102600000EFB01F18B42DEE722F07F43E8E7204634
:102610000AF09CFA0028EDD038480FF097FD3748B3
:102620000FF0A2FD364B1C6003B0F0BD0AF030FB8A
:10263000032269E740F2F7117FE7FF2380F8673252
:1026400090F8623203F0FF0213B980F86722EBE7DB
:1026500090F86232052B07D10322002111F0B8FB5C
:10266000002384F86732F2E7302301A980F8203292
:10267000B0F86032ADF804300AF00AF8BDF8043062
:102680000228B4F86022A3EB020384F8B030E7D04C
:1026900001282CD1042384F862320D212046FEF754
:1026A0006FFD0E21FEF712FD94F85D3290F83E2189
:1026B000B3FBF2F102FB11330133DBB29A4202D0D9
:1026C000042384F86232D4F8D4302046B3F847109B
:1026D000B4F86432194489B2A1810AF0FBFA94F883
:1026E0006232042BBCD1204611F017FAB8E720461D
:1026F0000CF024FED1E740F2FD111EE7B9240000E2
:102700002C1D0020014B024A5A6070472C1D0020EE
:10271000D5240000024B02461830596817F098BAC9
:102720002C1D0020024B034A1A60528B9A8070477E
:10273000341D0020E6110020014B1868704700BFCF
:10274000341D002008B5034610465A1E032A10D82F
:102750004A1E032A0DD8084A012951700CBF0021D6
:102760000A211071937091721946FEF7E1FE002064
:1027700008BD6FF01500FBE7E6110020074A537A09
:1027800040B143F00403002953720CBF0023072318
:102790005371704703F0FB03F5E700BFE61100201B
:1027A00040EA4100014BD870704700BFE61100209D
:1027B00014280BD028280BD00A280BD10323064A53
:1027C0000020528B1340054A938070470223F6E79E
:1027D0000023F4E71E207047E6110020341D00207E
:1027E000014B9888704700BF341D002070B5066803
:1027F0000D4604460E21B6F8AA00FEF767FC07490D
:1028000080F8BD50B43014F001FF002386F84D313C
:102810002046BDE8704015F040B900BFA92900006E
:102820002DE9F0410768054688460E21B7F8AA0051
:10283000FEF74CFC0D210446B7F8AA00FEF746FC53
:10284000002680F86262094904F1B40084F8BD8072
:1028500084F8BE60A4F8C06014F0D8FE87F84E611A
:102860002846BDE8F04115F018B900BF4741010006
:102870002DE9F041056806460F460E2195F8A8801F
:10288000B5F8AA00FEF722FC0D210446B5F8AA000F
:10289000FEF71CFCB8F1000F02D0EB7B452B15D0E6
:1028A000002384F84571A4F84831A4F84631A8B94A
:1028B00094F8453104F1B4000B4984F8BD3000238D
:1028C00084F8BE30A4F8C03014F0A0FE002385F8D0
:1028D0004F313046BDE8F04115F0DFB890F8623274
:1028E000002BE5D0F2E700BF4741010038B503688F
:1028F00014460D460E21B3F8AA00FEF7E7FBB4B963
:10290000B0F84831B0F84621A0F848419B1AA0F829
:1029100046411BB290F8A4205AB980F8A5509C30CB
:10292000847283810349BDE8384014F06FBE0023F0
:10293000F0E738BD4741010010B540880C460E2134
:10294000FEF7C4FB90F872305BB980F8734014B99D
:10295000FF2380F8C23003496A30BDE8104014F00C
:1029600055BE10BD1943010070B5066804460D46FA
:102970000E21B6F8AA00FEF7A9FB90F87C304BB9FF
:1029800080F87D5015B9FF2380F8C53005497430B3
:1029900014F03CFE002386F84C312046BDE8704020
:1029A00015F07BB8C748010070B50C460E210546EE
:1029B000FEF7E6FB0E210646FEF788FB002280F8B4
:1029C000C6203E22A6802270222262702F22A27090
:1029D0006A7AE27090F8162102F03F02A27190F834
:1029E000F820012AE2714CD190F80421227290F86B
:1029F0000821627290F80521A27290F80621E27215
:102A000090F80721227390F80921627390F80C2145
:102A1000A27390F80B21E27390F80A21013AD2B226
:102A2000072A96BF1749FF228A5C2274D0F8F92042
:102A3000C4F81120D0F8FD20C4F81520B0F8012109
:102A4000A4F8192090F80321E27690F80D2122775E
:102A500090F80E21627790F80F21A27790F8152157
:102A6000E27790F8122184F8202090F8132184F85E
:102A7000212090F8102184F8222090F8113184F858
:102A8000233070BDD4550300502808B51DD018D888
:102A900028280CD8092806D9A0F10A020C4BD2B27A
:102AA000D340DB0707D43221D620FDF7D7FE3228EA
:102AB00001D03C28F7D10A23B0FBF3F00138C0B2B3
:102AC00008BD9128EFD10720FAE70620F8E700BFFC
:102AD0000104104038B50B6804460E21B3F8AA0073
:102AE000FEF7F4FA90F8163190F8F820054603F056
:102AF0003F0343EA8213227D637022F0800203F0D9
:102B0000C00322750022402BE27640F09380D0F87B
:102B1000F930C4F80230D0F8FD30C4F80630B0F80F
:102B20000131638190F80331237390F804316373AA
:102B300090F80831FF2BA3731FBF90F80531E373A2
:102B400090F80631237490F80731637490F80931D6
:102B5000A37490F80A31E37490F80C3190F80B21CB
:102B60001B0190F80D1102F00F0203F03003134324
:102B7000227D22F03F0213432375637D61F303033B
:102B8000DAB2637503F00F03012B08D1134690F8F6
:102B90000E2162F30713637590F80F31A37595F852
:102BA0001201FFF771FFE07595F81301FFF76CFF55
:102BB000207695F81031642B2BD024D8502B2AD0B6
:102BC0003C2B05D81D2B07D80F2B0CD0142B0AD06B
:102BD0005D21D620FDF742FEA3F11E01184AC9B2BD
:102BE000CA40D107F4D50A22B3FBF2F3013BDBB2B2
:102BF000637695F81131142B11D0282B1CD00A2B99
:102C00001CD04321E5E7782B07D0962BE0D1092390
:102C1000EEE70723ECE70623EAE70823E8E70123CA
:102C2000A37695F815315A1E53425341227D63F322
:102C3000861222751C2038BD0223F1E70023EFE73E
:102C400001041040036810B50C46B3F8AA000E2129
:102C5000FEF73CFA034980F887407E30BDE810401B
:102C600014F0DDBCA92900002DE9F84F0768804663
:102C70000D460E21B7F8AA0097F8A890FEF726FA9D
:102C8000044690F8C2A05FFA8AFAB9F1000F07D0A3
:102C90003E6816F480660BD001263046BDE8F88FFA
:102CA000FB7B002BF8D13021B87B11F0A3FA06464C
:102CB00001F06CFE0B0401F4004B40F1F880D8F8F1
:102CC0000030DA7C002A00F0EE801B7D002B00F043
:102CD000EA80AEB90D21B7F8AA00FEF7F7F950B9AE
:102CE000BAF1000F0BD005F1010A504611F0DCFEDD
:102CF000D0B91E2604E090F86232002BF0D00C26EA
:102D0000B9F1000F05D0FB7B002BC5D1BBF1000F43
:102D100003D031464046FFF795FF3246404630210A
:102D2000BDE8F84F14F0E7BE6B7803F0C003402B0A
:102D300040F0A3802146504611F026FF002800F005
:102D4000B4806B78C3F3050203F03F0103F0C003C6
:102D5000402B40F0928094F817311BB994F816314B
:102D60008B42C6D1012384F8162184F8F830002361
:102D700084F81731DAF80130C4F8F930DAF80530A0
:102D8000C4F8FD30BAF80930A4F801312B7B84F87F
:102D900003316B7B84F80431AB7B84F80831EB7B27
:102DA00084F805312B7C84F806316B7C84F807317C
:102DB000AB7C84F80931EB7C84F80A312B7DC3F3BA
:102DC000030384F80B312B7D03F03003B3FA83F354
:102DD0005B0984F80C316B7DC3F3030384F80D3178
:102DE0006B7DC3F3031384F80E31AB7D84F80F3190
:102DF000EB7D052B35D8013303EB83035B00DBB29E
:102E000084F812312B7E052B30D8013303EB83037A
:102E10005B00DBB284F813316A7E082A97BF274B28
:102E200096239B181B7A84F81031AB7E1BB3012BC1
:102E30000CBF1423282384F8113101F0ADFD036881
:102E400013F400631CBF2B7DC3F3801384F815318A
:102E5000B9F1000F22D13A23FB73404614F025FE4E
:102E60001BE7062B0CBF50239123C9E7062B0CBF91
:102E700050239123CEE70A23DDE76B7894F81621DF
:102E800003F03F0393427FF434AF0023012284F820
:102E9000F83084F8172184F81831D9E73B6843F4F7
:102EA00080633B60D9E72F262AE7202628E71A26E9
:102EB000B9F1000F7FF427AF2FE700BFD45503000F
:102EC0002DE9F041D0F8008004460F4698F80F60D5
:102ED00076BB01F05BFD0B0406D41A222046392193
:102EE000BDE8F04114F007BE2368DA7CF2B11A7D28
:102EF000E2B10E21B3F8AA00FEF7E8F8054600F1AA
:102F0000E20300F1DA0200F1CA01384614F063FA74
:102F100005F18800074914F07FFB3C23204688F820
:102F20000F3014F0C2FD3046BDE8F0812F22D5E706
:102F30000126F8E7114D0100036810B50C46B3F8FF
:102F4000AA000E21FEF7C2F8034980F89A4091309A
:102F5000BDE8104014F05ABB8F4C01002DE9F74F2B
:102F60001E4613688346154637680093BB4204D952
:102F70004FF48D71D320FDF771FCD1F800A09AF8C1
:102F80002B0102F021FA04460AF1E80014F0F4FBE8
:102F9000DAF8E830610098421FFA81F838BF184625
:102FA000414600F2BF1948460EF0D6F99AF82021A2
:102FB0002D4B00F11004DAF8C800414653F82230D6
:102FC0004FF47A724C4403F2E733B3FBF2F3DBF8CD
:102FD0004C2190332732AF2B024438BFAF23B2FBD2
:102FE000F0F2504301930EF0B7F99BF83E21814671
:102FF000BBF83A014146019B5043DBF84C2102F1FA
:10300000480B40F2712202FB00BBDAF8C8009B4477
:103010000EF0A2F9DAF8C810D944484481429CBFA6
:10302000B0FBF1F301FB1300009B081A0139814248
:1030300028BF01468C4228BF0C46A34238BF234616
:10304000BB421C4628BF3C46A1422C6038BF2146EB
:10305000B94228BF39468C42316002D94FF4B2716F
:1030600088E703B0BDE8F08F9458030070B5441EA4
:10307000E5B21F2D0ED8A1F2E2460D4DAE4209D8A1
:1030800040F27126012806FB02F505D001F19602F7
:10309000954203D2002009E0002AFBD106FB03F091
:1030A00005FB0411884234BF0020012070BD00BF21
:1030B0001D043D0073B5066805460E21B6F8AA004A
:1030C000FEF704F82F4B4FF4FA72044690F82C11D7
:1030D000CDE90023D0F8282111F05BFEC4F84C01A3
:1030E0000DF0E4FA84F83E010DF0E6FA294601AB52
:1030F0006A46A4F83A012046FFF730FF009B019A88
:1031000023F07F43D6F8C80094F83E11C4F830315C
:1031100022F07F433D32B4F83A510139D4F84C6182
:103120000244C4F83431694340F27125324405FB4E
:103130000122B4F81C11B2FBF0F20132A4F85011D4
:10314000A4F83821B4F82221012A18D09533034479
:1031500005FB0133B4F82011B3FBF0F39BB28B42B3
:1031600038BF0B46A4F8523194F82C31A4F85421FE
:1031700084F856310F2384F85A3102B070BD002311
:10318000F0E700BFFF083D002DE9F04FD0F800B098
:103190008FB007460C46BBF8AA000E21FDF796FF3C
:1031A0000D210546BBF8AA00FDF790FF3B6882465B
:1031B0009BF80E0093F8A890B9F1000F20D13221AE
:1031C00011F018F8064695F8C8305BB302AA05F569
:1031D000AE7105F1F8000DF01FF89BF80F30002BD1
:1031E00040F0458101F0D2FB0B0425D41A22322194
:1031F000384614F080FC064630460FB0BDE8F08F2C
:1032000033280CBF2A260026BAF1000F08D09AF8FE
:10321000629209F1FF32D2F1000949EB0209D2E7CB
:10322000D146D0E702ABD5F8F900D5F8FD10B5F8D6
:10323000012103C31A80D0E795F8C4300BB92F22BF
:10324000D5E70EB13246D2E7637895F8162103F040
:103250003F03934245D195F8F830012B41D195F8C1
:103260001761002E3DD13A686388D1885B1A1BB282
:10327000002BB8BF5B429BB2B3F5804F31D261796E
:1032800023797C4843EA0123A17943EA014303F10E
:103290008071A1F5FA7121F07F41814221D8217A14
:1032A00094F8078048EA0128617A48EA01484345D2
:1032B00017D8D2F8C8304345019312D9A27C617C5B
:1032C000E07C41EA02216389B4F80F2041EA004121
:1032D000A07BFFF7CBFE20B1E18AA28A012902D1AF
:1032E0005AB11E2283E7019908F196084A4340F239
:1032F000712101FB03884245F3D3A389002BF0D051
:10330000237F03F00F02042A01D90F2AE9D14F2BA2
:1033100003D903F0F003F02BE3D1237E072BE0D891
:10332000A07E14F058FB0128DBD1A37E082BD8D84F
:10333000607E0F28D5D814F04EFB8046FFF7FCF9CD
:1033400043784345CDD395F80C11207E0CF084FCD6
:103350008045C6D302A80DF00FF808B9482246E709
:10336000A28A47F6FE739A4216D8FFF7E5F92222A1
:103370008046002105A816F0FBFD3F4B4246217E0A
:10338000059305AB95F80C0111F0E0FE20B1A17E8C
:10339000386811F083FD08B9202228E7BAF1000F40
:1033A00007D09AF8623223B1B9F1000F01D10C2293
:1033B0001DE73F2328468BF80F306279237943EAD3
:1033C0000223A27943EA0243227AC5F83031E37935
:1033D00043EA0223627A43EA0243C5F83431227C8D
:1033E000E37B43EA0223A5F83A31A37B85F83E311B
:1033F000627B237B43EA0223A5F83831A378E27885
:1034000043EA0223A27CA5F83C31637C43EA022311
:10341000E27C43EA0243C5F84C31627D237D43EAF6
:103420000223A5F85231E27DA37D43EA0223A5F8E9
:103430005431E27AA37A43EA0223A5F85031A37EFD
:1034400085F85731E37E85F85831237E85F856316B
:10345000637E85F85A31396811F0ECFC05F1AA0059
:10346000064914F0D9F8384614F01FFBC4E60126CB
:10347000C2E600BF0B073D0000040400C54D01007B
:1034800003682DE9F047DA7B06460C46422A40F0F5
:103490009D800027DF7314F01AFB33680E21B3F808
:1034A000AA00FDF713FE637890F81621054603F095
:1034B0003F03934240F0958090F8F830012B40F0A4
:1034C000908090F81731002B40F08B803168628833
:1034D000CB88D31A1BB2002BB8BF5B429BB2B3F5AB
:1034E000804F7ED2B0F83C31D21A130479D462797D
:1034F0002379634843EA0223A27943EA024303F1B2
:103500008072A2F5FA7222F07F42824269D8D1F825
:10351000C8209A4265D9D5F83021934261D3D5F8B5
:10352000342193425DD8637B217BA07B41EA032158
:103530006289B5F8503141EA0041607AFFF796FDA3
:1035400000284ED0B4F80730002B4AD0E07B072883
:1035500047D895F80C8195F856A141460CF07CFBB4
:103560008146414650460CF077FB814539D1B8FA87
:1035700088F8E07B4FEA581841460CF06DFB814615
:10358000414650460CF068FB81452AD8207C14F057
:1035900022FA012825D1217C082922D8627B237BAD
:1035A00043EA0223A27B43EA0243D5F84C2193422B
:1035B00017D86289B5F83A319A4212D3306811F0BF
:1035C0006DFCB0B96FB1002220210CE09B7B3E2B3B
:1035D00054D114F062FA3368002283F84E21012797
:1035E0005BE700221E213046FFF780F90020BDE88E
:1035F000F087227C4FB995F857319342F1D195F974
:10360000581194F911309942EBD161793046237900
:1036100043EA0123A17943EA0143C5E94C33E17A46
:10362000A37A43EA0123A5F83A31637A85F83E315B
:10363000217AE37943EA0123A5F83831A378E178C8
:1036400043EA0123617BA5F83C31237B43EA012354
:10365000A17B85F85721012243EA01430021C5F8E7
:103660004C31637C85F85831E37B85F85631FFF7A0
:103670003DF93168284611F0DDFBB7E70120B6E7D8
:103680000B073D00304BF0B5B0F86C700C4611469E
:10369000DA88B0F86A6085B097421D8928BF17465E
:1036A000964228BF16461B2E2ED0B5F5A47F2DD0EE
:1036B00040F6480301AA9D4228BF1D4611F0B0FF05
:1036C000BDF80A30BB4228BF3B46E380BDF80C3052
:1036D000AB4228BF2B462381BDF80630B34228BF3A
:1036E00033466380BDF80830AB4228BF2B46A38029
:1036F000FF232370E3881B3B9BB2E02B08D940F2E9
:1037000009513920FDF7AAF81B2FCED105B0F0BD25
:1037100063881B3B9BB2E02B02D940F20B51F0E7D0
:10372000238940F64812A3F5A4739BB2934202D9B1
:1037300040F20D51E5E7A388A3F5A4739BB2934231
:10374000E4D940F20F51DCE7401D0020F7B500231B
:1037500004460E461746CDE900336846FDF7F0FCF7
:1037600008B100201AE0009DA542F6D0304605F1D0
:10377000AD0311F03FFF394695F8AC2013F067FA1E
:103780000028EAD005F1B40395F8B32004F1B401A0
:1037900094F8B30013F05BFA0028DED003B0F0BD5C
:1037A000054A516A02F11D03127F11F8030BC0F3A1
:1037B000801013F04CBA00BFB022002010B50321D6
:1037C0000020FDF783FC044670B90321FDF742FC9D
:1037D000044620B940F225313920FDF73FF8034B6C
:1037E00093F9701015F000F8204610BD401D002020
:1037F000014B5888704700BF401D0020044BD87B08
:10380000C0F3400080F0010000F00100704700BFED
:10381000401D002038B513F019FA002501F030FCE6
:10382000214C01F0CBF813F0D2FE03F099F801F02F
:1038300025FE06F049FC012001F064F81B4B1C4AF0
:1038400029461D604FF01B13A4F86850A58184F829
:103850003650E573C4E900234FF4A4731022A3602B
:103860004FF479432361134B58681B89A06304F11B
:103870004000A38716F07CFB012342F2107204F192
:103880005E0084F840306375C4E9112215F004FF2E
:1038900004F1500015F026FF0022002384F8805028
:1038A000C4E91E2338BD00BF401D0020FC270020B6
:1038B00003021B00E5550300064B41F64C521B2149
:1038C0001A629973C3E9062241F288325A62FFF7FD
:1038D000A1BF00BF401D0020F0B53D4D85B000F1F7
:1038E000A8070446AB69C0F8E8302B7C003B18BF42
:1038F000012380F82931374BC0F8C830384614F01E
:103900007FFD064601F042F88306A97B53BF1B23C7
:103910006B88AA881A46A4F812312F4BA4F81421F8
:103920001B6884F8F010A4F8F26023B194F9281110
:10393000B4F8AA00984703A8039411F059FE274B46
:103940001B681BB12649B4F8AA0098472549384698
:1039500012F0ECFF0123A4F8DE30234B1B681BB1EF
:103960000021B4F8AA009847204B1B681BB1002126
:10397000B4F8AA0098471E4B1B6813B1B4F8AA000C
:1039800098471C4B1B6813B1B4F8AA009847AB8842
:1039900004F1C0006A8869780333033201919BB255
:1039A000297892B2009104F1C401FDF729FCD4F802
:1039B000C03023B940F2E2413920FCF74FFFD4F880
:1039C000C43013B940F2E341F6E705B0F0BD00BFE3
:1039D000401D002000093D00102800200428002080
:1039E000681D00204A1D00202428002018280020DF
:1039F0001C280020202800202DE9F34104460E4613
:103A000014F033FF002800F09680204615F065F88A
:103A100040B1B6F80130013B7F2B03D9122002B030
:103A2000BDE8F081204615F05CF808B90C20F6E7F7
:103A3000204614F09CFD0028F8D1204614F0BEFE6C
:103A400080460028F2D1204604F0E6FC0028E5D0AC
:103A500042F21073B6F80170F17820465F4315F01A
:103A600027F804213078FDF731FB05460621307830
:103A7000FDF72CFB2DB140B141F676213920FCF742
:103A8000EDFE18B3054690F8E5802C4E3368EBB197
:103A90004035284614F05BFBC0B1284614F048FBC3
:103AA000A0B9B8F1000F07D0254B28461B689847EE
:103AB00060B141F68A21E1E722494246336828464F
:103AC000096A984710B141F68F21D7E7204614F0D4
:103AD000FCFF014638B93A46204603F087FC40B364
:103AE00041F69821CAE702210DF10600FDF77AFAA6
:103AF000054608B90D2092E7BDF8061013F0C6F987
:103B00002946204615F01DF82846FFF7E5FE3A46FF
:103B10002946204603F06AFC024610B141F6B42162
:103B2000ACE7084BDB6E23B105F5977105F1A800F2
:103B30009847002073E7422071E700BF002800206B
:103B400008280020401D0020024B1B6803B11847C5
:103B50000C207047FC270020034B5A8802801B78FA
:103B600083700020704700BF401D002073B583782C
:103B700006461A2B08D8042B04D9334A22FA03F339
:103B8000DB0705D412251AE0292B01D03B2BF9D1F4
:103B90003088B0F5706FF5D2694613F046F988B9F0
:103BA000009B93F82C2102F0FF05C2B9B27883F88C
:103BB0002D21FF2283F82C21684611F0E5FE2846CE
:103BC00002B070BD09213088FDF780FA0446002854
:103BD00037D001A9B0F8AC0113F027F908B10C25D2
:103BE000EDE70821B4F8AE01FDF770FA20B94FF403
:103BF00004613920FCF732FE03781BB994F8C83110
:103C0000032BECD1019B93F84221002AE7D194F8D1
:103C1000F02102F0FF05002AE1D1B4F8B021A3F8A9
:103C2000442194F8B82183F84621027D83F8472186
:103C3000B27883F8482184F8F021FF2283F84221EA
:103C4000BDE70225BBE700BF200038040188A1F1D1
:103C50001B039BB2E02B0CD8428844F24810A2F51B
:103C6000A4739BB2834204D8034B0020D9801A81ED
:103C700070471220704700BF401D002038B5027801
:103C8000447802F0010302F0020254EA030101D178
:103C9000112038BDBAB98578002DF9D0002B18BF96
:103CA000002400E01D46204611F05AFD0028EFD008
:103CB000284611F055FD0028EAD0054B00209C72E3
:103CC000DD729881E5E7002BECD000242546EAE779
:103CD000401D002013B5008801A913F0C8F8044660
:103CE00020B9019890F83E311BB13A24204602B029
:103CF00010BD90F85C3003F0FF04002BF5D190F874
:103D000053309B0706D1FF2380F83E3101A811F004
:103D10003BFEEBE70249543013F081FCE6E700BFBD
:103D20006F800100F7B5067804460F46EF2E03D9E1
:103D30001226304603B0F0BD90F901204378002AE6
:103D4000F6DB82789207F3D113F010001DD19D06A7
:103D500003F0030216D5002AEAD11907E8D4217925
:103D6000E278E57942EA0122617942EA0142A179E9
:103D700041EA0521257A41EA05418A42D8D81F2A1D
:103D800012D8D5E7032AE8D1D2E713F0600FCFD1DC
:103D900003F00702052A05D003F00F010D22CA40E7
:103DA000D207C5D51D07DAD5627A013A062ABFD8EF
:103DB000A27A032ABCD813F0040302D1023A012AE2
:103DC00003D8E27A012AB3D813B9A37C032BAFD866
:103DD000237DF8B1012BABD1237E012BA8D818B3DA
:103DE0006378D90702D500F019FD20B36378227DEE
:103DF00003F01803082B2ED1022A1CD103213046D0
:103E0000FDF764F9054660B314F0B1FB002834D027
:103E10000C268EE7022B8BD0A37D013B022B87D88B
:103E2000E37D0F2BD8D983E700F0BAFD820707D4D2
:103E3000237D022B01D111267BE7A37D022BFAD033
:103E400000F0AEFD4307CBD4237D032BF3D0A37D3D
:103E5000032BC5D1EFE7022AD0D0237F002BCDD092
:103E6000E9E703213046FDF7F5F80546002843D081
:103E7000224B93F9701014F0B7FC0021304615F076
:103E80008DF828BB284614F01DFE21463870E074DA
:103E9000284614F018FDE37E0646002B3FF449AF98
:103EA00000287FF446AF0246E96C6846FDF788FAC1
:103EB0003246E86C01210FF0A8FCE96C6846042248
:103EC000FDF77EFA32463146E86C0FF09EFC30E793
:103ED000403014F03CF90028D4D0637813F0330F4D
:103EE0007FF426AFA67D2846296A14F009FEFEF766
:103EF0005FFA8642C6D08BE707261AE7401D0020EE
:103F000030B502798BB00346042A4FD84088B0F50B
:103F1000804F4BD8264900241144ADF800408DF85D
:103F200008408A7C4D7B42F010028DF8244042EA22
:103F30004502CD7D097F42EA850242EAC102694617
:103F400002F01F028DF80020BDF80020ADF8092016
:103F50001A888DF80E00000A8DF80B20120A8DF8D1
:103F60000D408DF80C208DF80F008DF810405A7B15
:103F7000D3F807008DF811205A79059002A88DF822
:103F800012209A798DF81320B3F80B209B7BADF8A3
:103F900018208DF81A307F238DF81B304FF0011355
:103FA000CDE90734FFF7BEFE0BB030BD1220FBE7B2
:103FB000E55503000278034672B1427862B1428847
:103FC0001A2A09D982881A2A06D90068034A106079
:103FD00000209B889380704712207047401D00206E
:103FE00002680020014B9A61704700BF401D00200D
:103FF0000378A3F10A02112A9BBF024A0020122073
:1040000093737047401D0020014B58740020704787
:10401000401D0020014B987400207047401D002077
:10402000024B1B6803B11847112070472828002055
:1040300008B5052000F072FC05F062FE014B024A53
:10404000DA6608BD401D00208536000008B5212035
:1040500000F064FC222000F061FC05F05DFE054BE1
:10406000054A1A60054B064A1A60064B064A1A6052
:1040700008BD00BF0C280020E99401001028002092
:10408000FD9E0000142800201594010037B5044659
:1040900000F07CFC090403D40C24204603B030BD9E
:1040A000258801A9284612F0E2FE04460028F4D132
:1040B000019BDA7C002A36D01A7DA2B393F86520E2
:1040C0001207E9D593F86730DB09E5D00E212846C1
:1040D000FCF7FCFF054690F8C230002BDCD0B0F8AE
:1040E0005A309B0713D590F87C30002BD5D1112383
:1040F0004822214680F87D3015F03AFFFF2385F8ED
:10410000C5300B4905F1740013F080FAC5E701983A
:10411000492210F8A81F01F003FC30B9019BFF22CF
:1041200083F84C21B9E72F24B7E74524B5E700BF52
:10413000C74801002DE9F04FB0F8008091B0044667
:104140000FA9404612F093FE064638BB0F981C227A
:1041500010F8A81F01F0E4FB18B1E378012B00F080
:1041600082810E214046FCF7B1FF054690F8C6302B
:1041700003F0FF06002B40F078810F9BDA7C002AC9
:1041800000F075811A7D002A00F0718193F8673084
:10419000DB0907D1E378012B04D10C26304611B09E
:1041A000BDE8F08F95F8C230002BF6D0617904F1AC
:1041B0000D07A0780D91217BE27D0139237994F8D8
:1041C00006E0C9B294F8079094F808A0022994F880
:1041D00009B097BFDFF8A0C2FF218C449CF82110E2
:1041E00094F81AC0CDF828C094F819C0CDF824C0AE
:1041F00094F818C0CDF820C094F80AC0CDF81CC0BF
:1042000094F80BC0CDE9051C0D99CDE903AB0091E5
:104210003946CDE901E910F0EBFB002800F02981D7
:10422000E378012B00F22581A37AA3B995F8F23047
:1042300013F0010F00F01D81FEF77EFA237E814608
:104240000193237B0093E37A6279217910F06CFC6F
:1042500040B91126A2E7012BEED195F8F23013F008
:10426000020FE7E7237E05F148000193237B0093CB
:10427000E37A6279217910F057FC0028E9D0A27A1C
:10428000002A7CD195F84B3013F0020FE1D005F1F4
:10429000F80011F0B5F920B195F81611A3789942FC
:1042A000D7D1E37ED90705D5012A6FD1B9F81230ED
:1042B000DB06CED50D214046FCF708FF11F0A9F929
:1042C00000287FF46AAFA37885F81631D4F80D3052
:1042D000C5F8F9307B68C5F8FD303B89A5F8013198
:1042E000E37D85F80331237985F804316379FF2B69
:1042F00085F8083117BFA37985F8050185F80531E0
:10430000E07985F80601237A85F80731637A85F824
:104310000931237B013BDBB2022B96BF564AFF23B8
:104320009B184FF0070298BF93F8213085F80A31A7
:10433000E37A85F80B31A37A85F80C31237E85F872
:104340000D31637EB5F85C1085F80E31A37E85F8DB
:104350000F31E37E03F0010385F81531B9F814003D
:1043600010F0A0F895F815318046002B5ED0A37AA6
:10437000072283B9B5F86410B9F816000FE0012AD6
:1043800085D195F84B3013F0010F7FE7002A91D1CA
:10439000B5F85A308CE7B5F85E10B9F81C0010F08B
:1043A00081F80922B5F860100746B9F8180010F036
:1043B00079F88146FEF714FA0222B5F8621010F07F
:1043C00071F8B8F1050F35D808F1010808EB880835
:1043D0004FEA48085FFA88F8052F85F8128131D82E
:1043E000013707EB87077F00FFB2B9F1080F85F8A7
:1043F000137197BF204B96234B4493F8243085F8D4
:10440000103120B301280CBF1423282385F8113163
:10441000FF2285F8C620E378012B1AD185F8F83001
:1044200085F817310F9B83F84D21B7E60722B5F8C1
:104430005E10A1E7B8F1060F0CBF4FF050084FF027
:104440009108C9E7062F0CBF50279127CDE70A2313
:10445000DCE7012300210FA885F8F83085F8171153
:10446000FEF7F0FB9AE6452698E63A2696E62F26D2
:1044700094E6122692E600BFE555030073B50446A4
:104480000BF07AFF00285FD015F0B1FA304A92F8AD
:10449000803053B12F4ED2E91E35C31A61EB0505AA
:1044A0009E424FF00003AB4150D2012382F880308E
:1044B0000023C2E91E01CDE900336846FCF740FE47
:1044C000D0B100204FF40033CDE900036846FCF77B
:1044D00037FEC8B10023CDE900336846FCF730FE53
:1044E000C0B100224FF40033CDE900236846FCF749
:1044F00027FEE0B1002005E0009B93F85031002B2F
:10450000DBD03A2002B070BD009B93F85031002BF5
:10451000DCD0F6E7009890F867305906DDD52346E1
:1045200000F59672B0F8AA1011F027F9D5E70098B7
:1045300090F867305B06D9D5234600F59672B0F83F
:10454000AA1011F01AF9D1E71220DBE70C20D9E705
:10455000401D00203F420F0003882DE9F7439FB222
:1045600004460B80B7F5706F04D31226304603B0B3
:10457000BDE8F08301A9384612F079FC0646002810
:10458000F4D10E213846FCF7A1FDA37890F816214E
:1045900005469A42E9D1F83011F032F80028E4D00B
:1045A000032AE2D8B4F80330002BDED0B4F8093087
:1045B000012B09D0B4F80520002AD6D0B4F8073072
:1045C000002BD2D09A42D0D8237BE27AE17B42EA18
:1045D0000322637B42EA0342A37B43EA0123217C5B
:1045E00043EA01439A42C0D802F180725C49A2F2C8
:1045F000E24222F07F428A42B7D803F18073A3F2ED
:10460000E24323F07F438B42AFD8637C072BACD8C7
:10461000A37C013B032BA8D8207D0F28A5D895F8B3
:104620000C9113F0D8F98046607CB9FA89F14909F8
:104630000BF012FB804598D3637D053BDBB2F92B71
:1046400093D9A37D053BDBB2F92B8ED90D213846DA
:10465000FCF73CFD10F0DDFF00287FD1FEF76CF881
:104660000746207D13F0B7F995F84930834201D20F
:104670000D267BE705F148033A46617C95F80C016D
:1046800010F064FD0028F3D0B4F8037040F27123F9
:10469000B4F80900BAB25A4383B2012B5BD0019B34
:1046A000B4F805C0D3F8C8E0BCF57A7F61460EF1D6
:1046B000FF3328BF4FF47A711344B3FBFEF3013389
:1046C000B4F807E0B3F57A7F28BF4FF47A739BB252
:1046D000734528BF7346634538BF634694F80CC0E2
:1046E00094F80BE094F80F804EEA0C2E94F80DC06D
:1046F0004EEA0C4E94F80EC04CEA082C94F8108048
:10470000A5F81E1147F6FE714CEA084CA5F81C717D
:104710008B42A5F8220128BF0B46964594BFC5F8E9
:1047200024E1C5F82421944594BFC5F828C1C5F8F3
:104730002821A5F82031637C85F82C31A37C85F8ED
:104740002D31E37C85F82E31237D85F82F31FF2331
:1047500085F818310AE700210B46BFE70C2605E76C
:104760001E043D0008B50378012B08D0022B0BD0A6
:104770007BB9D0F80120084B5A62002008BD407870
:10478000BDE80840FEF714B8B0F901000BF06EFF69
:10479000F3E71E20F2E700BF401D002008B501220C
:1047A000054B1A7103F022FE04F04AFC12F0A4F843
:1047B000BDE8084000F04ABFC41D002010B5064CFB
:1047C000064904F1080012F03DF804F10C00044918
:1047D000BDE8104012F036B8C41D00209011002032
:1047E0009811002010B5094C094904F1080012F095
:1047F00029F804F10C00074912F024F804F1100024
:104800000549BDE8104012F01DB800BFC41D0020CE
:10481000A0110020A8110020B0110020014B187930
:10482000704700BFC41D002010B5064C064904F1B6
:10483000080012F007F804F10C000449BDE810402C
:1048400012F000B8C41D0020B8110020C0110020D3
:1048500010B52E200A4C00F061F8302000F05EF810
:104860004B2000F05BF804F10800064911F0EAFF64
:1048700004F110000449BDE8104011F0E3BF00BF8F
:10488000C41D0020C8110020D011002038B5074CED
:104890000D4600F0B7FEA068256011F0CBFFFFF7D2
:1048A0000BF801F0AFF80123237538BDC41D0020BB
:1048B000014B187D704700BFC41D002010B50C4C83
:1048C000E06811F0B7FF206911F0B4FFFEF7A2FF16
:1048D000202000F037F82F2000F034F8262000F0D8
:1048E00031F8292000F02EF80023237510BD00BFF9
:1048F000C41D002000487047D91D002000487047A3
:10490000DB1E0020014B83F819027047C41D0020F4
:10491000014B93F819027047C41D0020C2080749D3
:1049200000F0070001238340885C03438B54044953
:104930000B78934238BF13460B7070473811002034
:10494000DE1F00200F4B012110B503EBD002C4087D
:1049500000F0070001FA00F0195D21EA0001195585
:1049600009490B78A34205D1002012F8014914B17E
:1049700000B10B7010BD002BFAD0013B0120DBB25F
:10498000F3E700BF38110020DE1F0020014BD3E900
:104990000001704738110020004870474011002086
:1049A000054B1868C0F3C022C0F30020400040EA65
:1049B000820040F0010070473811002008B50CF06B
:1049C00017FD0023074A32F82310814205D302EB7A
:1049D00083029378044A137008BD01330C2BF2D183
:1049E0000023F7E718560300DF1F0020024B18785A
:1049F000072828BF07207047DF1F00202DE9F04F50
:104A0000046898460F4685B094F86330164604F162
:104A1000A80994F80FA043EAD303D90702D4BAF146
:104A2000260F5FD194F8A850002F55D1FFF7B8FF9B
:104A30008DF80B00002E51D1FFF7B2FF2B4B8DF8F4
:104A40000C00D3F800B0BBF1000F0CD0AAF1260285
:104A500028464946534253410DF10B02009303ABE4
:104A6000D847054630B99DF80B3013B19DF80C00BE
:104A700028B90925BAF1260F2AD10020034694F857
:104A8000292132B19B0700F002002DD560B302202E
:104A90000346FF2284F8392194F8382102F0FF05FB
:104AA000F2B99DF8382003A984F83B01484684F800
:104AB000382184F83A31A4F83C818DF80C708DF8D7
:104AC0000D60ADF80E8011F031FF002384F839310C
:104AD000284605B0BDE8F08F3846A9E73046ADE777
:104AE0003A25F2E71A25F3E70925F1E72C280020FB
:104AF00010B50468B4F8AA3084F88411A4F885319C
:104B000094F82001FDF764FC84F8870194F82101F2
:104B1000FDF75EFC044984F8880104F27B10BDE8CF
:104B2000104012F07CBD00BF176901002DE9FF475E
:104B300004688946054694F80EA0AAF12503594257
:104B40005941052A35D1E37B272B37D104F10F07D3
:104B500099F8018099F8026008F0070806F0070646
:104B600008F1FF33721E03EA0803324013431FD1DA
:104B7000304611F073FF60B394F82031984228D08A
:104B800094F83A21164213D0BAF1250F21D094F8A7
:104B9000192116421DD10138013B474AC0B2DBB290
:104BA0001044032B00790FD81A441379834210D98B
:104BB000284604B0BDE8F04711F018BFBAF1250F40
:104BC00077D104F10E07C3E74FF4DD710620FBF740
:104BD00045FE404611F042FF40B194F82131834236
:104BE00004D094F83B3118EA030FE1D0B9F80390F0
:104BF00003AB20463246009341464B4611F03BFF43
:104C00002C6878BB94F83831012B28D1E38804F55F
:104C1000367294F82011B4F83C0111F08DFF06466D
:104C2000D0B901462846FFF763FF2B6883F8386147
:104C30003E702B6803F10F02974201D10022DA7314
:104C40002B6803F10F0297422FD1284612F03FFF45
:104C5000002004B0BDE8F0872C23A373E9E784F8B3
:104C60003801E6E7E388A4F8D89209F1FF39A9EB07
:104C7000030947F6FD731FFA89F9994506D92823D8
:104C8000284684F8313001F0B3FAD9E7E37B0D2BE5
:104C900002D00A3B012B01D82A23F1E7BDF80C30E2
:104CA000A4F8DA3229233B70CAE7002283F84A20AD
:104CB000CEE70220CDE700BF48560300034B002299
:104CC00083F85020A3F85220704700BFE21F002055
:104CD000044B93F85020012A1ABF036001200020E2
:104CE000704700BFE21F0020064B024693F85010A9
:104CF00001291BBF0120A3F85220002083F8500097
:104D0000704700BFE21F0020054B024693F8500099
:104D100028B1136011B1B3F852300B8001207047F5
:104D2000E21F0020054B002293F85000A3F8522008
:104D300010B1012083F85020704700BFE21F00200F
:104D4000034B93F85000B0FA80F04009704700BF61
:104D5000E21F002050B90A4A0120134603F8010B54
:104D60000868C2F801008A889A807047012805D136
:104D7000034B0A68D8719A608A889A81704700BF8D
:104D80003620002050B90B4B187888B1D3F8012099
:104D9000B3F805300A6001208B807047012806D1E6
:104DA000044BD87920B19A689B890A60F3E7002008
:104DB000704700BF3620002010B9044B18787047A8
:104DC000012806BF014BD87900207047362000200B
:104DD000F7B58A8800238DF80600ADF8042008682E
:104DE0000B4A8DF807300146147802F5A872019D30
:104DF000D8B2844201D8082007E052F8087F013376
:104E00005668AE4208BF8F42F2D103B0F0BD00BF7A
:104E100048200020084B0146002230B55C7803F2A0
:104E20000113D0B2844201D8082004E013F8015FD6
:104E300001328D42F5D130BD48200020F8B52D4C0F
:104E400063782218013B92F80251DBB2834263700F
:104E500030D01A010101961C8F1C2644274406F10C
:104E6000100C56F804EB664547F804EBF9D1823292
:104E700082312244214402F1100652F8047BB242EE
:104E800041F8047BF9D1E118221891F8026182F807
:104E9000026106267343704303F5857300F5857040
:104EA000E618E35827182350B388BB8091F83A31AD
:104EB00082F83A312846FFF7ADFF082818D1237849
:104EC000013BDBB29D42237012D02B3305F12B0244
:104ED00004EBC30304EBC20293E8030082E803007F
:104EE0002078FFF797FF08281CBF241884F8025188
:104EF000F8BD00BF48200020F0B5254D89B095F8D9
:104F0000984105F29911684622460DF0F9FE2146B6
:104F1000684611F0BAFE0446B8B300EB400102A89F
:104F2000C9B2FCF74BFB631E95F8A1610124DBB20B
:104F300095F8981105E0721CB2FBF1F001FB10220C
:104F4000D6B206F120020DEB020010F8202C002A48
:104F5000F1D103EB430100F8204C06EB460220316F
:104F60002A44694411F8187C82F8A27111F8177C60
:104F700011F8161C82F8A37182F8A411013BAA193A
:104F8000DBB282F89941FF2BD2D109B0F0BD00BF4E
:104F90004820002070B5064688B00C46002A4ED046
:104FA000294A92F8A131D01890F8991119B9FF2126
:104FB0002820FBF753FC03EB43010133114491F824
:104FC000A251E57091F8A35191F8A4112571617176
:104FD000002180F8991192F89811B3FBF1F001FBD0
:104FE000103382F8A13192F8C23123B9174902F582
:104FF000DD7012F011FB65790D220021684605F085
:105000003F0545F04005657114F0B2FFE37804AA4E
:1050100069468DF80F30304623798DF80D508DF8A4
:105020000E30042314F0E7FE9DF81F3023709DF826
:105030001E3063709DF81D30A37008B070BD032151
:105040006018FCF7BBFAD6E748200020F94E0000B4
:10505000044B5A78824286BF1B1893F84A010020FD
:10506000704700BF48200020044B5A78824286BF18
:105070001B1893F842010020704700BF4820002011
:10508000064B00224FF461711A8083F8C32183F824
:10509000C421A3F8C61183F8C2217047482000201C
:1050A0002DE9F0478246894617469846FFF790FE5D
:1050B00008280546064603D0FFF7ACFE082860D155
:1050C000324C6378072B5ED8082D15D12678731CD7
:1050D000072E237003D96C212820FBF7BFFB06F1B4
:1050E0002B02D9F8000004EBC20344F83200B9F8EF
:1050F000042083F806A09A80657807F110026B1CE3
:10510000290163704B1C234412F8010DBA4203F8C5
:10511000010FF9D1813108F11003214413F8012D59
:10512000984501F8012FF9D125441021404611F08E
:10513000DCFD102185F84201384611F0D6FD85F8D6
:1051400002616678002385F84A013146104885F8E7
:105150003A3111F09AFD0128054607D831460D482D
:1051600011F093FD002818BF0135EDB284F8985175
:105170000025284684F8A151FFF7BEFE2846BDE869
:10518000F0871220FBE70720F9E700BF4820002046
:105190008A21002092210020064B10B55878013852
:1051A00040B2002800DA10BDC4B22046FFF746FE28
:1051B000601EF5E748200020014B83F8C3017047CB
:1051C00048200020014B93F8C3017047482000207D
:1051D000431E4AF2B7129BB293429DBF024BA3F803
:1051E000C60101200020704748200020014BB3F881
:1051F000C6017047482000200A4B30B55C788442D5
:105200000ED9184490F802012B3003EBC004A579A5
:105210000D7053F8300010600120A388938030BDDA
:105220000020FCE7482000200246074810B590F80F
:10523000C34124B1417821B1023004F06DFF204612
:1052400010BD0C46FBE700BF482000202DE9F74FBA
:105250002F4C9A46804689466378834256D9231854
:1052600093F8425185F00105F9B193F84A31E3B959
:1052700045F002070135BAF1000F18D1FA070AD537
:10528000062104EB0810524601FB0841823001F56B
:105290008571FFF77FFEBB0734D504EB081052463B
:1052A00049460230FFF776FE2CE02F46E3E794F8FC
:1052B000A1614FF0010B002DE0D0A31993F89911D3
:1052C000019399B90092DAB100F06CFB019B06EBF7
:1052D0004601009A4FEA102C83F899B1214481F8D5
:1052E000A201000C81F8A3C181F8A401013694F851
:1052F0009831013DB6FBF3F103FB1166F6B2DAE734
:1053000047F00407384603B0BDE8F08F0027F9E7FF
:1053100048200020074B5A78824209D91A1892F87F
:1053200042212AB9062202FB003000F58570704741
:105330000020704748200020064B5A78824281BFE7
:105340001B1893F83A01B0FA80F0400998BF00208A
:10535000704700BF48200020F8B50E4607460621DA
:105360001546304611F0C1FC044670B10C4B0022CA
:10537000587803F23913D1B2884202D8012420466A
:10538000F8BD013203F8015FF5E73146384611F008
:1053900098FC0828F3D0024B034483F83A51EDE718
:1053A00048200020034B80F880101B680BB1408818
:1053B0001847704730280020014B024A1A60704796
:1053C00030280020AD9101000B2808B504D940F227
:1053D00029112920FBF742FA014B33F8100008BDD0
:1053E00050560300036830B50024D3F8C80042F2D9
:1053F0001075A3F84040B3F844404443B4FBF1F4C3
:10540000A3F844404C1E05FB0242B2FBF1F2A3F8A4
:105410004220094AB2FBF1F20132A3F848209A8FE8
:1054200005FB02445A6B5043B4FBF1F4B0FBF1F0BE
:105430009C63586330BD00BF005A6202054B1B7865
:1054400033B9054B1A681B7902600371012070475C
:10545000002070471022002048110020054BFF2239
:105460001A70054A016811600179117100221A70E1
:10547000704700BF102200204811002007B5064ADF
:1054800010681279009068468DF80420FFF7E6FF57
:1054900003B05DF804FB00BFE2BB0300034608460F
:1054A00071B13F2B0BD8074AD35C03F07F029142C6
:1054B00005D08CBF0120002000EAD31070470120E6
:1054C000704700BF68560300FF230B7002234B7028
:1054D00083238B70014B1B78CB7070471422002004
:1054E0002DE9F84FD0F804800C46D8F81C603046FF
:1054F0000EF068F8054620B94FF4AA711020FBF7AA
:10550000ADF9014630460EF06BF8B5F800B08246B2
:105510001FFA8BF717B94FF4AC71EFE7224B00F18C
:1055200003091B68D3B998F8023098F80320237058
:10553000637802F00F02A4F802B023F00F031343C4
:1055400023F0C00363709AF8003003F00303012BCB
:105550000FD0022B0DD04FF4BB71CFE73A4649462E
:10556000B8F80200984705460028DCD12846BDE877
:10557000F88F6278304663F3051262700EF03AF8E5
:10558000054610B94FF4C071B8E7FB2F02D940F2BD
:105590008F11B3E73A464946201D0DF0B1FB304666
:1055A0000DF07FFFE2E700BF3428002038B5134C30
:1055B00010220021201D14F0DBFC0125257404F1CC
:1055C00008031022002104F11400C4E9013314F08F
:1055D000CFFC84F8205004F11803094AC4E90533CC
:1055E00000236362A36284F82C30C4F82D30C4F821
:1055F000313084F835301360A36338BD14220020A5
:105600003428002010B5084C2378FF2B04D040F23A
:1056100099111020FBF722F90DF0DEFA2070BDE899
:105620001040FFF7C3BF00BF4D11002010B5034C61
:1056300020780DF0EBFAFF23237010BD4D110020F0
:10564000014B18780DF0F2BA4D110020014B024ABF
:105650001A6070473C280020E15400002DE9F34116
:10566000DFF88881054608F11407D8F80830D8F823
:105670001840227A012A22D1D8F8382052B1137A60
:105680001BB9BF211020FBF7E9F8D8F83840C4B99E
:10569000002093E01A7A012AFAD01C46544AEFF30C
:1056A000108172B650680068506001B962B6A342BA
:1056B00008BFC8F83840237A1BB9EE21E2E73A4622
:1056C000EDE7267AF6B205232372731E0B2B7ED8E4
:1056D000DFE803F07A062336773F4E3F3F3F3F6BCC
:1056E000636813B94FF40371CCE720462946984705
:1056F0000420EFF3108272B6237A052BD9B24FF053
:10570000000369D12372D8F83810A14201D1C8F83A
:105710003830002A45D162B643E0636813B940F2DD
:105720001521AFE72946204698470346ADF8040007
:10573000C0B2C3F30723012B3ED0022BD9D129E0FD
:10574000636813B940F21D219CE72046984700206A
:10575000CFE7284B1B68002BF9D0324660682946FA
:105760009847A6F10A020420534253415B00E4E744
:1057700063680BB9FE2185E786222A7001225988C9
:10578000AA706A7100229869A5F80310AA710DF039
:1057900088FE0420D8F83830A34202D10023C8F88C
:1057A000383000283FF461AF08E0134B294620460B
:1057B0001B689847034668B9267298B102B0BDE8E5
:1057C000F0814FF415715DE740F257215AE740F23E
:1057D0005A2157E70220DDE711B940F27B2151E75A
:1057E000184696E7002B7FF440AF51E714220020C3
:1057F00018220020382800203C280020134610B52D
:10580000027A22B140F202311020FBF727F80A4653
:1058100001460248BDE8104011F0DBBE182200200E
:10582000044890F82C301BB90349243011F0EEBE27
:10583000704700BF14220020C375010003460648CC
:1058400090F83C203AB190F8352022B9034900F88D
:105850002D3B11F0DBBE704714220020C95400001C
:105860000A4610B5037A23B140F20A311020FAF744
:10587000F5FF014607230248BDE8104011F0A9BE1C
:10588000282200201346027A0AB1037270470A46A2
:105890000146014811F09DBE18220020014911F077
:1058A000BEBE00BF3B7601000B8BA2F8090010467C
:1058B000A2F80B304B8BA2F80D308B8BA2F80F3077
:1058C000CB8B0249A2F8113011F0A3BEE57601009E
:1058D00008B50B4A0B460B4970B1492B04D940F26D
:1058E000DA212C20FAF7BAFF0120087011789942CA
:1058F00038BF1946117008BD08701B21FAE700BFB8
:105900004E11002051220020014B1878704700BF33
:1059100051220020014B1878704700BF4E11002023
:105920002DE9F0470446174690F878908A4690F89B
:105930007980858F59BB468F043613216088B6B2B3
:10594000FBF7C4FB40B3BAF1000F22D194F87810F2
:1059500011F0A2FEB0F804A04946384611F084FECA
:105960000F4B0746B4F854001B7806354146984261
:10597000354438BF1846554411F076FE3844054486
:10598000206AA8422CBF00200120BDE8F087068FC6
:10599000D2E794F87910DBE74FF0960ADCE700BF16
:1059A0004E110020094AD2E90003434083EAB011B6
:1059B00081EA43214FEAF34311605360044B58439B
:1059C0004FEAF06000EB8000704700BF54220020D7
:1059D000BB79379E094AD2E90003434083EAB011FC
:1059E00081EA43214FEAF34311605360044B58436B
:1059F0004FEAF06000EB8000704700BF50110020BC
:105A0000BB79379E10B50A4C08210948FBF7D6FD33
:105A1000D4E900321343F7D0064CFFF7DBFF2060D8
:105A2000FFF7D8FF236860601843F6D010BD00BFB1
:105A3000501100205422002038B5A0F10B03144669
:105A40000D46DBB22046432B96BF0C4AFE21D15CAB
:105A500011F0E3FF88B985B12978342909D03F29AD
:105A600009D0272908BF26212046BDE8384011F07B
:105A7000D4BF3221F8E73E21F6E738BDA85603002F
:105A80000A4B0B4A1A600B4BC0F88C300A4BC0F81B
:105A900090300A4BC0F89430094BC1F88C30094B58
:105AA000C1F89030084BC1F894307047502A00205C
:105AB000D7910100D1950100719F0000559E000013
:105AC000A39501002996010071960100284B294AEF
:105AD0001A60294B294A1A60294B2A4A1A602A4B14
:105AE0002A4A1A602A4B2B4A1A602B4B2B4A1A60FF
:105AF0002B4B2C4A1A602C4B2C4A1A602C4BC0F8AA
:105B0000E0302C4BC1F8B8302B4BC0F8BC302B4BDD
:105B1000C1F8D8302A4BC0F8DC302A4BC1F8C0306D
:105B2000294BC0F8C430294BC1F8E030284BC1F8EC
:105B3000C830284BC1F8D430274BC0F8E830274B89
:105B4000C1F8BC30264BC0F8B830264BC0F8D8306E
:105B5000254BC1F8C430254BC0F8C030244BC0F8E9
:105B6000C830244BC1F8E830234BC0F8D43070471C
:105B7000542A00202B470100582A0020A347010087
:105B80005C2A0020D52A0000602A002083490100F9
:105B9000642A0020E54E0100682A0020B954010063
:105BA0006C2A002095510100702A00200153010049
:105BB0003B55010065470100494801003549010096
:105BC0004B490100A14901001F4C0100255501006E
:105BD000B54F0100F9510100BD530100E14701003B
:105BE000F9460100FF480100B7490100692C000097
:105BF000893100006553010025520100174B184AF6
:105C00009A60184A5A60184A1A60184A9A62184AE2
:105C1000DA62184ADA60184A9A61184A1A63184A0E
:105C20001A62184ADA64184A9A64184A5A62184B77
:105C3000184A9A60184A5A62184ADA62184A1A616F
:105C4000184A5A61184A9A61184A1A63184A9A649B
:105C5000184ADA64184A9A63704700BF4028002047
:105C6000957B0100BB7B0100E77C0100857E010084
:105C7000E17E010019630000F37E0100E165000090
:105C800039640000C57F0100EB7F010095640000CE
:105C900040290020AB7B01008B7F0100117F0100B8
:105CA000C17E0100317F0100C963000091800100C5
