:10000000E0A50020F1FB01009B770300DDFB010070
:10001000DDFB0100DDFB0100DDFB0100DDFB01007C
:10002000000000000000000000000000C1FC010012
:10003000DDFB01000000000019FF0100DDFB0100F5
:10004000D1FF0100D1FF0100D1FF0100D1FF01006C
:10005000D1FF0100D1FF0100D1FF0100D1FF01005C
:10006000D1FF0100D1FF0100D1FF0100D1FF01004C
:10007000D1FF0100D1FF0100D1FF0100D1FF01003C
:10025000D1FF0100F1A00300D1FF0100D1FF010097
:10026000D1FF0100D1FF0100DBA00300D1FF01009D
:10027000D1FF0100D1FF0100D1FF0100D1FF01003A
:10028000D1FF0100D1FF0100D1FF0100D1FF01002A
:10029000D1FF0100D1FF0100D1FF0100D1FF01001A
:1002A000D1FF0100D1FF0100D1FF0100D1FF01000A
:1002B000D1FF0100D1FF0100D1FF0100D1FF0100FA
:1002C000D1FF0100D1FF0100D1FF0100D1FF0100EA
:1002D000D1FF0100D1FF0100D1FF0100D1FF0100DA
:1002E000D1FF0100D1FF0100D1FF0100D1FF0100CA
:1002F000D1FF0100D1FF0100D1FF0100D1FF0100BA
:10030000D1FF0100D1FF0100D1FF0100D1FF0100A9
:10031000D1FF0100D1FF0100D1FF0100D1FF010099
:10032000D1FF0100D1FF0100D1FF0100D1FF010089
:10033000D1FF0100D1FF0100D1FF0100D1FF010079
:10034000D1FF0100D1FF0100D1FF0100D1FF010069
:10035000D1FF0100D1FF0100D1FF0100D1FF010059
:10036000D1FF0100D1FF0100D1FF0100D1FF010049
:10037000D1FF0100D1FF0100D1FF0100D1FF010039
:10038000D1FF0100D1FF0100D1FF0100D1FF010029
:10039000D1FF0100D1FF0100D1FF0100D1FF010019
:1003A000D1FF0100D1FF0100D1FF0100D1FF010009
:1003B000D1FF0100D1FF0100D1FF0100D1FF0100F9
:1003C000D1FF0100D1FF0100D1FF0100D1FF0100E9
:1003D000D1FF010007A10300D1FF0100D1FF0100FF
:1003E000D1FF0100D1FF0100D1FF0100D1FF0100C9
:1003F000D1FF0100D1FF0100D1FF0100D1FF0100B9
:10040000D1FF0100D1FF0100D1FF0100D1FF0100A8
:10041000D1FF0100D1FF0100D1FF0100D1FF010098
:10042000D1FF0100D1FF0100D1FF0100D1FF010088
:10043000D1FF0100D1FF0100D1FF0100D1FF010078
:10044000D1FF0100D1FF0100D1FF0100D1FF010068
:10045000D1FF0100D1FF0100D1FF0100D1FF010058
:10046000D1FF0100D1FF0100D1FF0100D1FF010048
:10047000D1FF0100D1FF0100D1FF0100D1FF010038
:10048000D1FF0100D1FF0100D1FF0100D1FF010028
:10049000D1FF0100D1FF0100D1FF0100D1FF010018
:1004A000D1FF0100D1FF0100D1FF0100D1FF010008
:1004B000D1FF0100D1FF0100D1FF0100D1FF0100F8
:0804C000D1FF0100D1FF010092
:1004C800054B00221B78826001330260034A4260B8
:1004D800C371FF2303727047680A00208001080077
:1004E800064A074B02604FF426729B7882800822E6
:1004F800C371002382710372704700BFC5A8010051
:10050800680A0020084B094A1B7892F828201B0229
:100518000749C27103F52E73016083800823837134
:10052800FF230372704700BF940B0020680A002065
:10053800E35E0100074A9378D2781344064A0260C2
:100548004FF4BA72C371FF2382800422037282714E
:10055800704700BF680A0020F95E0100064A9378D8
:10056800D2781344002282600260044A4260C37158
:10057800FF230372704700BF680A0020700008005C
:1005880008B504F08FF806F0D1FC05490D2000F0FD
:1005980077FC04490E20BDE8084000F071BC00BF9C
:1005A8000D0500003D0500002DE9F341C41D00289C
:1005B800064624F007040CBF0020204600F072FC19
:1005C800071E04DA6FF00B0002B0BDE8F081374D6A
:1005D800E988A88803316B7A03302A7A89B280B215
:1005E80014F047FB0028EDDB3C44A978EB78002E9B
:1005F80004F10304194424F0030400FB01F10CBFC7
:100608000020204600F0FCFD20440EB90028D9DB6C
:10061800EA7A0446B2B1EB7B697C13441944FF299A
:10062800D0D80330002EAA89C9B220F003040CBF29
:100638000020204600F056FE0028C3DB04440EB913
:10064800002CBFDB012000F023FCB0B1A97BA1B1D5
:1006580095F82A3033B340234FF481720734002EC3
:1006680024F007040CBF0020204603F017F90028E7
:10067800A8DB04440EB9002CA4DBAB7AFBB1EB7AFF
:10068800B3B10734002EA97A24F007040CBF002068
:10069800204608F095FB002894DB04447EB9002C22
:1006A8000DDA8FE725232822D8E700BF680A002043
:1006B800012000F0EDFB10B1AB7B002BE1D1734BB7
:1006C8001B6893B1A97D81B10334002EEA7D24F023
:1006D80003040CBF0020204698470028FFF672AF9D
:1006E800044416B9002CFFF66DAF694B1B688BB13B
:1006F800297C79B10334002E24F003040CBF0020B8
:10070800204698470028FFF65DAF044416B9002C30
:10071800FFF658AF5F4B1F68B7B1697CA1B10334CE
:10072800002E2B7D24F0030408BF0020009318BF7F
:100738002046EB7CAA7CB8470028FFF643AF044468
:1007480016B9002CFFF63EAF072000F0A1FB98B1C8
:10075800A97D89B10334002E2A7E24F003040CBF3E
:100768000020204600F094FE0028FFF62BAF04443A
:1007780016B9002CFFF626AFB6FA86F795F82300CF
:100788007F09A0B103346B7FA97E24F007041944C4
:100798003B4644F00404C9B2224600F0B9FE0028E2
:1007A800FFF610AF044416B9002CFFF60BAF95F80E
:1007B800241000294CD004F10708002EEA8C28F0F8
:1007C80007080CBF0020404614F067FA041EFFF625
:1007D800F9AE4444002E3ED1002CFFF6F3AEA97FBB
:1007E800002945D095F82230002B41D02A8C0734B7
:1007F800002E02F1240224F007080CBF0020404616
:1008080092B214F04AFA0028FFF6DCAE404416B95A
:100818000028FFF6D7AE03302B7FA97E20F0070013
:1008280019443B4640F0040495F82200C9B2224618
:1008380000F060FE0028FFF6C5AE044486B9002C1F
:10084800FFF6C0AEEB6AF3B1C6B1EC620020BBE6BE
:10085800002EC4D08846E98C40460CF0B5FFBEE7B0
:100868002A8C4046A97F083292B20CF0B3FFE9E720
:10087800002EE7D0002211461046F6E728343FF54F
:10088800A1AE2046A0E6002EE0D1FAE7BC17002072
:10089800C0170020C41700201FB572B6194B1C6B77
:1008A800ECB9BFF34F8F1849184BCA6802F4E062DD
:1008B8001343CB60BFF34F8F00BFFDE7B2FBF6F2E7
:1008C8002B465D1C002AF9D1DBB203F110056D44FB
:1008D80005F80C2C0A2233B901A8A047E1E7024623
:1008E80000230A26EDE7013BDBB203F110050DEB0F
:1008F8000506B0FBF2F502FB1500303006F80C0CCB
:100908002846E8E7680A002000ED00E00400FA0540
:1009180013B5124C68462389ADF80030E388ADF86A
:100928000430A388ADF8023005F0B4FE18B1FA21FE
:100938009C20FFF7B1FF207D05F002FF08B1FD21E3
:10094800F6E7E07C05F0F6FE08B1FE21F0E794F842
:1009580029000AF037FF02B010BD00BF680A002066
:1009680070B50546002855D013F040F918B94FF076
:10097800FF34204670BD11F0A9FEB0F5FA7FF6D815
:10098800264C012625630025284684F83450257016
:1009980084F82A50E5620CF037FA1A22294604F145
:1009A8000F001AF08CFF1B2308210322A38028467E
:1009B800E3800223A1721F216372E375F723227279
:1009C8002384FB23A2734922E3840A23A1812946B5
:1009D800E27484F82930A670E670E672A67426766A
:1009E80003F09EFE2A463146304603F06BFE04466D
:1009F80020B140F2B5319C20FFF74EFF014603F0CD
:100A08007DFEEFF3108572B600F0A8FD002DB0D181
:100A180062B6AEE76FF01504ABE700BF680A0020C6
:100A280038B51446002840F0EE80784D95F83430FB
:100A3800032B00F0E58019B312B96FF0150038BD2B
:100A48000139172900F2DF80DFE811F018002900CA
:100A58002C0042006C0075009400480078007B0070
:100A68008E004E005400620067009A009D00AC00A2
:100A7800AF00B200A300B500B900D2001378AB7084
:100A88000020FFF791FD0028B7BF012302236FF074
:100A98000B0085F83430A8BF85F83430CFE71378D9
:100AA800EB70EDE71379002BC7D05379002BC4D036
:100AB8001288FB2AC1D863881B3B9BB2E02BBCD8A9
:100AC8001A2ABAD92368A2886B60514B9A80D7E753
:100AD8001378EA7B9342B0D3EB72D1E71378EA7AC2
:100AE8009342AAD8EB73CBE71378EA7A9342A4D857
:100AF8006B74C5E71378002B9FD05378013BDBB2AA
:100B0800F82B9AD8138892786B82424B9A70B7E781
:100B1800107868750AF0C4FCB2E71378002B8CD003
:100B28002B76ADE7012000F0B3F9237808B1012B4B
:100B380083D9AB73A4E71388AB81A1E71378AB75AE
:100B48009EE7072000F0A4F918B92378012B7FF657
:100B580074AF072000F09CF918B12378002B3FF4FC
:100B68006CAF2378EB758BE71378082B3FF665AFEE
:100B78002B7485E71388FF2B3FF65FAFAB727FE7D7
:100B880013786B767CE713780E2B3FF656AFAB766F
:100B980076E72368204AC5F81E30636853602389C6
:100BA80013816DE71378EB766AE713786B7767E75D
:100BB80013782B7764E7137885F8283060E703F01B
:100BC8007BFD98B1007900F001026178207803F08C
:100BD80079FD00287FF433AF6378012B7FF650AF9F
:100BE8000CF050FD00287FF44BAF26E70246ECE7F7
:100BF80013785A1E092A3FF620AF85F829303FE7B7
:100C08004FF0FF301BE76FF02C0018E7680A002050
:100C18006C0A00207A0A0020860A0020F8B50D46E2
:100C2800064630B329B311F0070422D1124F97F8C2
:100C38003430012B02D16FF00B00F8BD032B02D129
:100C48004FF0FF30F9E700F0C1FC0028F8D0284643
:100C5800FFF7AAFC0028EEDB1AF03FFA3046F96AE3
:100C680006F082F9FFF754FE0323204687F8343054
:100C7800E3E76FF01500E0E7680A002010B5074CBD
:100C880094F83430032B03D106F086F906F0E8FF18
:100C980014F088F8002084F8340010BD680A002099
:100CA80008B506F011F90549012000F0E9F80449F2
:100CB8000020BDE8084000F0E3B800BFC904000008
:100CC800E904000008B506F01DF905F055FD0349D3
:100CD8000F20BDE8084000F0D3B800BF650500004C
:100CE800074B4FF0FF3141F6FF72C3E90012054987
:100CF8000022C1E900221F21C3E90212704700BF88
:100D080060000020A00A00203F280CD801380B4BB7
:100D1800C0F3421200F01F0053F8223023FA00F00B
:100D280000F001007047FF2806D04038044BC0F39C
:100D3800421200F01F00EFE701207047600000201A
:100D4800A00A0020074B0146006849681A4603C2FA
:100D580040F48C2200201A6041F0107242F4FF62C5
:100D68005A607047600000200246034B00685168D3
:100D780003C30020704700BFA00A00200246034BAF
:100D88000068516803C30020704700BF6800002056
:100D98000138064BC0F3421200F01F0003EB820338
:100DA8009B6823FA00F000F0010070476000002003
:100DB8000A8870B595B2C67CC2F30E020488023662
:100DC80002F118033444C35AA4B233442344013B08
:100DD800B3FBF4F303FB0422438892B29342044B1F
:100DE8008BBF2B40AB4313439BB20B8070BD00BF3E
:100DF8000080FFFF4A1E062A08B50346084604D8A5
:100E08004FF4D1711520FFF747FD094A914202D9E5
:100E180040F2A311F6E711B903B1196008BD2BB16F
:100E28001B680022C3E901211A1D1A600430F5E786
:100E3800FAFFFF7F10B5114B00EB41041A78638964
:100E4800B3FBF2F303FB0223013A1A44B2F5706FC5
:100E58000279807828BF00231A440B18B2FBF0F1FE
:100E680000FB11215B1AB3FBF0F100FB11331344B3
:100E78006FEA43436FEA5343638110BDA80A002019
:100E8800024B03EB80035960704700BFA80A00209B
:100E9800034B03EB80035868003818BF01207047E4
:100EA800A80A00202DE9F04F10F0070A85B0054682
:100EB80004D040F26F111720FFF7EEFC534F0446A1
:100EC8004FF0010B07F15406B146B04657F8043B02
:100ED8008DF80BA03BB101A898479DF80A30082B64
:100EE80001D9F521E7E79DF80B1041BB05B1316049
:100EF8004F4506F10406E9D1002D6FD00022DFF836
:100F080010911427964689F8002058F827A0013F29
:100F1800BAF1000F55D09AF804609AF802C0FF2E73
:100F280060D039460023481C38D19C44BCF1FF0FDF
:100F38003FD90AB189F800E04FF49A71BBE79DF8F0
:100F48000AC04B1D60465A0004EB4303022838BF11
:100F58000220441E40422344BDF808406444CCF1BA
:100F6800000C0340013C04EA0C04B4F5803F02D3B2
:100F780040F205119FE775B19A1A3260917014809A
:100F880082F803B09DF80C00107101984FEA104CDC
:100F98001081A2F806C004FB0134A9E758F8210023
:100FA80028B190F804B0B34504BF80781B18013904
:100FB800B9E7DBB2E6458AF804303CBF5FFA8CFE3D
:100FC80001227B1CA1D10AB189F800E0142640F661
:100FD800FF6A58F82670B7B9013EFAD2601B05B00F
:100FE800BDE8F08F0023E5E707EB410309F10109AC
:100FF8003846A3F80AA0FFF71DFF5FFA89F1BB780E
:101008008B42F1D8E8E74FF00009F6E7AC0A002078
:10101800A80A002038B54FF6FF7302460380184B24
:1010280003EB8103986DA8B184780379B3FBF4F1DD
:1010380004FB1133DBB2194600EB4105B5F90A5040
:10104800002D0EDB0131B1FBF4F504FB1511C9B21B
:101058008B42F1D1002038BD6381BDE8384013F0E0
:10106800D5BD00EB41046389C3F30E031380C27836
:10107800002AF1D14FF4E5711720FFF70DFC00BFEE
:10108800A80A00201C4B03EB810370B59C6D054634
:1010980044B3030404D54FF4EC711720FFF7FCFBAD
:1010A8000146204613F095FDFF28014604D020464E
:1010B800BDE8704013F0AABDA078B5FBF0F300FBC3
:1010C8001353DBB219460A1D04EB4206B6F9026057
:1010D800002E09DB0131B1FBF0F200FB1211C9B29D
:1010E8008B42F0D1002070BD8B4201D00023E37009
:1010F80004EB42025580DAE7A80A0020094B03EB0B
:101108008103014610B59C6D204613F062FDFF284F
:10111800014604D02046BDE8104013F077BD0020FA
:1011280010BD00BFA80A0020F8B5104B074603EB16
:10113800810301469C6D204613F04BFDFF280546B0
:1011480011D0E288238953EA024606D00146204698
:1011580013F05CFD01463846B04720462946FFF7A4
:1011680069FE0020F8BD0520FCE700BFA80A0020A2
:1011780038B50E4B0446827903EB8203986D08B9A3
:10118800052038BD8278E1799142F9D24B1CE37190
:1011980000EB41035D89B3F90A30002BF3DBA5802E
:1011A80013F034FD20600020EBE700BFA80A002000
:1011B80008B5124B03EB81039A6D22B940F2462120
:1011C8001720FFF769FB9178831A481DA3EB4003AA
:1011D8001088B3FBF0F3002B01DB994202DC40F2EC
:1011E8004921EDE702EB4302B2F90A305089002B9E
:1011F80002DA40F24B21E3E708BD00BFA80A00204D
:1012080070B5044610F003000E4603D04E21182096
:10121800FFF742FBFFF7EEFD054624B103483146D0
:101228000460FFF7E7FD284670BD00BF540B00209F
:101238002DE9F14FDFF870B01E4607460D46DBF882
:10124800003090469DF828A09DF82C901BB960218D
:101258001820FFF721FB52460921404613F03DFBB9
:101268004A4684B20921304613F037FB81B2DBF8D5
:101278000000214413F081FC386018B9286001B0DF
:10128800BDE8F08F04445346414609222C60386873
:1012980013F0E6FA4B4609223146286801B0BDE84A
:1012A800F04F13F0DDBA00BF540B002070B50E46A6
:1012B800044613F025FB0546304613F021FB044B8A
:1012C8002A1821461868BDE8704013F07BBC00BF9F
:1012D800540B0020024B186808B113F042BC704749
:1012E800540B00201F2AF8B5044613460ED8920066
:1012F800033222F00303B3F5803F2DD2184DACB171
:10130800A00710D068210920FFF7C6FAFF2B4FEA83
:10131800420204D9FF339A42A8BF1A46E8E77C2A5A
:10132800B8BF7C22E4E729706C602B8122F00302AD
:1013380028230127120403FB01F06B680025120C17
:10134800EEB2B14200D8F8BD14B126181F705E6025
:10135800104401352833F3E74FF0FF30F3E700BFBF
:10136800580B0020154A002170B553681578C8B28B
:10137800854203D8BA210920FFF78EFA1C46184681
:10138800013114F8286B0EB92346F0E70021997053
:1013980001241289996103F126055C709208D961CC
:1013A80003F11E04596824F8022FA54243F8041FCC
:1013B8001144F8D100234361037070BD580B00201D
:1013C8004B782DE9F04106460C4602F0040702F07E
:1013D800FB05E3B1A5BBFF23A3707B0804EB57070C
:1013E8003A7D032A02D1022D18BF0133E2180121E8
:1013F800117503F10C01002204EB830324F811207A
:101408005B68A27030463360B280BDE8F081002D81
:10141800E1D1012301F11E028D6120464B7004F1D8
:10142800260C1A4BCD611B8949689B0822F8023F9C
:10143800944540F8041F1944F8D100236361CAE7B2
:10144800D1F8048014220021A01861701AF037FA2C
:101458000E4B1B89B3F5FF7F0FD25A089B1A9BB21C
:1014680008EB0301C4F804802384A1606284C4F8F3
:101478000C80A3842161E284ADE7B3F5EE6F4FF0F1
:10148800FF02EBD940F27263EAE700BF580B002075
:101498002DE9F84305460C46F7200521914613F03F
:1014A8001CFA061E21DB1DB906FB04F0BDE8F88313
:1014B80015F0030703D098211920FFF7EDF9DFF89D
:1014C8003080C8F81050A8F81460BBB29C42EBD921
:1014D800B8F814504B46D8F810000522F72107FB3E
:1014E8000500013713F0BCF9EFE74FF0FF30DDE7F7
:1014F8006C0B002007B5CDE900230B4603490246D3
:10150800081D13F029FC03B05DF804FB840B0020D0
:1015180013B5064CCDE900230B46024604F1080139
:1015280004F10C0013F018FC02B010BD840B00206D
:1015380008B54B1E032B03D923219020FFF7ACF9E4
:101548000028054A0CBF05230C2303EB8103053350
:1015580023F00103137008BD940B0020124B0122E5
:101568004FF0FF3000215A60C3F80803C3F8001594
:10157800C3F804255A6040F6FE72C3F808034FF416
:101588008060C3F8001503F560330849C3F80825DF
:10159800C1F88800BFF34F8FBFF36F8FC1F8880180
:1015A800C3F80825704700BF00A0045000E100E020
:1015B80002680020014B1A60704700BF980B00209A
:1015C800014B1B68184700BF980B0020024B186896
:1015D800003818BF01207047980B00200A460648BB
:1015E8009C2302F8033BC368C1F8033003695360C6
:1015F80043699360704700BF9C0B0020024B5A8CD4
:1016080002435A845B6A18479C0B0020014B002157
:101618005B6A18479C0B002010B5154C0BF08AF834
:101628000BF0B4FB208DFFF7F1FF237E63B1224658
:10163800104904F1190052F80C3BE36063685360E9
:10164800A368936018F0DBF8218DE06A07F00EFDBF
:10165800E36AB3F8AA0007F04DFB636B94F8301007
:1016680094F831009847002384F8383010BD00BF43
:101678009C0B0020E5150000034B93F838300BB1A4
:10168800FFF7CABF704700BF9C0B00202DE9F0414F
:10169800DFF8808005460E4608F12C0015F0A5FEFF
:1016A800044618B101242046BDE8F081D8F82C3052
:1016B80093F8A8704FB1012D07D1B8F822301A0756
:1016C80003D598F83930002BECD1012EEAD8D8F898
:1016D8003C30284698470028E4D098F83030002B52
:1016E800E0D167B9012DDED1B8F82230002BD9D16D
:1016F80098F84030002BD6D198F8414007E0002DEB
:10170800D1D1B8F822309B07EED598F8394084F04B
:101718000104C8E79C0B002070B5204C0646636D99
:10172800E56A63644FF4817394F85800A4F848306C
:101738002B7D95F8211100EB83002EB9FF2803D1EA
:1017480095F820318B4201D00AF09AFC2B7DFBB131
:10175800E06D0AF017FFE16D606C0BF09DFA66B959
:1017680095F82131033B012BB5F8E4308CBF0020FC
:101778002820184480B20AF069FFB5F8E0000AF0A2
:101788003FFC00200AF0A0FF022384F8383070BD27
:10179800606C0AF0F7FE0BF0F9FAE0E79C0B00200A
:1017A80008B5094B93F83820022A04D040F2573183
:1017B8002720FFF771F8DA7A42F00102DA72BDE801
:1017C8000840FFF729BF00BF9C0B002010B590F818
:1017D8006A1086B0D1B9C2880B4605910021CDE9BF
:1017E80003110C4991F85840029400F190040194B7
:1017F800C96A91F8A810003918BF0121009100F1B9
:10180800800102200BF058F906B010BDD0E91E2364
:10181800E3E700BF9C0B00202DE9F041274C06466A
:101828000F4694F83830012B5FFA83F804D040F65D
:101838000C112720FFF730F8E56A2B7953B1002106
:1018480004202971FFF7DAFEE36A93F8A8300BB198
:1018580085F8058094F860308BB92B7A052B0ED16A
:1018680017490220FFF7CAFEE36A93F8A83033B19C
:10187800E36E1B789A1E5342534184F839301EB1E7
:10188800BDE8F041FFF7C8BE002FF9D03146304619
:10189800FFF7FCFE0028F3D12B7DE46A13B128463C
:1018A800FFF794FF94F821210120B4F8E21019F011
:1018B8003CFC0020BDE8F041FFF72EBF9C0B002048
:1018C800080C00207FB590F86A10D1B9C2880B4681
:1018D80005910021CDE90311FB21029100F190014E
:1018E80001910949C96A91F8A810B1FA81F1490929
:1018F800009100F1800104200BF0DEF807B05DF8DC
:1019080004FBD0E91C23E3E79C0B00201E4A10B51A
:10191800546E41782378C90003F0F30301F00801FD
:101928000B438178890001F004010B43C178090158
:1019380003F0EC0301F010010B43017801F00301FF
:101948000B432370B2F8703063700223516EA2F813
:10195800683004790B786001012C23F0200300F033
:10196800200043EA00030B700CD1D36A93F8BA2025
:1019780093F8BB30032A03F01F0308BF002243EA91
:1019880082138B7010BD00BF9C0B0020F7B5184C5C
:101998000646656F0DB1E36C23B940F6C4012720F4
:1019A800FEF77AFFB4F8503001F003012F466B7050
:1019B8002B7823F003030B4307F8033B3846B4F8AE
:1019C8005020E16C12F07CFA0DF1020201A9A06F1F
:1019D8006564E76413F0BBF8019813F0A6F80122D8
:1019E800B4F850103060A06F13F04AF803B0F0BD9F
:1019F8009C0B00202DE9F04FAC4C87B0D4F82C801C
:101A080098F8201158B998F8142094F8583003EB36
:101A18008203FF2B03D198F821318B4202D0FF209B
:101A28000AF02EFB002304AA02A9A14804938DF80A
:101A3800143084F8603001AB15F0CEFC074600285E
:101A480045D0029ABDF8043022B940F2134127204C
:101A5800FEF722FF6266A4F8703003B1D31CE36678
:101A6800012384F860309DF8133004A8003B18BFA8
:101A7800012384F8403098F81330002B00F01C81C3
:101A8800B4F87030002B00F01781FFF73FFFE06DCE
:101A98000AF078FD9DF81420E16D003A606E18BFD9
:101AA80001220AF00FFF18B9616EE06D0BF07EF8A5
:101AB800B8F8E2000AF0A4FA01200AF005FE0123B2
:101AC80084F8883084F8383007B0BDE8F08FE66ACB
:101AD8008DF80300337AADF80600062B00F2CA80B1
:101AE800DFE803F004CBA1A1C8B8B80094F87F30B0
:101AF8000DF1060103A8A6F81031ADF8063005F07F
:101B0800DDFB38B1039D2DB1012384F88030052316
:101B180033729CE0E36A93F85130002B6BD10DF1DE
:101B280003020DF10601D4F8840012F010FF0546F7
:101B3800002860D09DF80370FFB10146D4F88400F6
:101B480012F0EFFF12F0F1FFD0F800B0D0F804A0C7
:101B580081465BEA0A0348D1002389F8003089F8F6
:101B6800013089F8023089F8033089F8043089F89F
:101B7800053089F8063089F80730BDF80630002BA3
:101B880040D1012333720123002784F88030BDF847
:101B980006306566A4F8703003B1EB1CE366727A10
:101BA800357A8DF81120022DB27A8DF8122004D0E2
:101BB800053D012D8CBF012503258DF81050002F00
:101BC8005ED000209DF810308DF81300032B6BD1E8
:101BD800E36E1B781B2B67D1012106F1BA000AF0CE
:101BE80097FA01238DF814303DE719F098FC8345E6
:101BF8007AEB0101B0D2002301222E4DADF8063058
:101C08003272C6E79DF803301BB92B80AB700323F3
:101C1800B8E72B7803F00303012BF8D002233372C3
:101C28000023B375AFE7B6F810310DF103020DF1DB
:101C38000601D4F88400ADF8063012F088FE054697
:101C480010B940F2C35102E7012384F88030BDF88F
:101C580006309EE70DF1060103A805F02FFB08B139
:101C6800039D15B940F2D251F1E6012384F8803082
:101C780006234DE740F2DC51E9E60E4D002388E7E4
:101C8800032D02D11B78022B9BD0D4F8840012F0CC
:101C9800B6FE38B9032D94D005F02CFB80F0010076
:101CA800C0B28FE701208DE700239BE79C0B002043
:101CB800C80B0020180C0020FFF728FE606E0AF001
:101CC80061FC0BF063F89DF81410606E003918BFC2
:101CD800012119F036FAEBE62DE9F04FB04C87B048
:101CE8000027804694F83830E56A022B019105F107
:101CF800A80ACDE9027704D040F6AD112720FEF7F7
:101D0800CBFD616C03200B784A780144A4F84800A5
:101D1800E16403EA0001A4F850208DF81010C3F321
:101D2800C0018DF81110C3F380018DF81210C3F3B0
:101D38000011C3F340138DF813108DF81430B8F167
:101D4800000F00F00C8104A904F12C0015F046FBEB
:101D5800064630B9B4F8501009B3A06F12F070FEFF
:101D68000746238D9DF8121043F400736767238597
:101D78006B7A0133DAB203F0010399424AD12B7A24
:101D880033B3032B6A720CD8012B21D002A9D4F8E3
:101D9800840012F0FEFDA0B940F2D471AEE7074608
:101DA800DFE7053B012B02D940F2B371A6E705F046
:101DB80093FA10B940F2DE71A0E700210820FFF77E
:101DC8001DFCD5E91C32013342F10002C5E91C3281
:101DD8000021E36A297293F8A8302BB16B791BB103
:101DE80010206971FFF70AFC238D4FF0000B43F4B4
:101DF800006323852B7DDBB1B4F85030C3B10AF002
:101E0800E3FF0328FBD0022806D1FFF705FC07B043
:101E1800BDE8F08FC346EDE750B9AB7A9DF81120C5
:101E280003F001039A4203D1012384F83130ECE72F
:101E3800B4F85070E6B19DF81330591E4B424B412F
:101E480084F84130002F40F0B7800027B946019B45
:101E5800002B00F0B8800AF06DFCB9F1000F00F01B
:101E68001E819DF8101003A8FFF790FD0127C9E017
:101E7800AB7A9DF8112003F001039A4223D19DF813
:101E880010307FB35A1E012A2CD8238D95F8149050
:101E980043F4805323850AF0C9F8032894F889305D
:101EA80007D1B9F1000F0CBF1F221B22934228BF94
:101EB8001346B4F850209A4208D994F8303043F0C9
:101EC800100384F830304FF000091EE0636F002BD8
:101ED800F9D094F88A301BB12020FFF797FBF2E77E
:101EE8009DF81030AA7A032B02F10102AA722CD0B5
:101EF8005A1E012A1DD8002FE5D0C146D5E91E3249
:101F0800013342F10002C5E91E32626F9DF81310D9
:101F1800002A56D1B4F85020B2FA82F252090129A7
:101F280014BF002202F001023746002684F841203F
:101F38008DE7002FC7D0002BC5D1D5E91E3201335C
:101F480042F10002C5E91E32BDE7238D0120154983
:101F580043F4805328712385FFF750FBEDE72B7D71
:101F68000BB10AF04BFF94F88B30013384F88B30B7
:101F7800238D43F48063238595F82131033B012B9E
:101F880012D80AF053F8032812D1B4F850604FF071
:101F980000091B2ECB4694BF00260126B5E700BFDB
:101FA8009C0B0020E80B002005F0C8FF0028E8D1B2
:101FB8000026B146B346A8E7238D43F48053238512
:101FC80043E70122ABE794F88B100120FFF75EFB93
:101FD80000287FF440AFEA7C12B12846FFF772FC74
:101FE800002095F82021B5F8E01019F09EF800209F
:101FF800FFF700FDB9F1000F5AD09DF8101003A8A3
:10200800FFF7C4FC238D5A0606D44020FFF7FEFADA
:10201800238D43F040032385BBF1000F10D0EB88DC
:102028004BB9E36A93F8A8302BB1B4F80530B4F88B
:102038000720134304D0B4F809300133A4F8093059
:10204800B8F1000F3CD0B4F805300133A4F80530DE
:10205800002384F88B301D4806F0B0FD029830B19B
:1020680012F063FD00220272514605F013FF039B34
:1020780033B100221A720C225146039805F0D8FE9B
:10208800002F7FF4C2AE238D1B063FF5C0AE802023
:10209800FFF7BCFA238D43F080032385B7E6002EB3
:1020A8003FF4E4AE0A49A1F1200015F099F9DDE604
:1020B800002EA7D00649A1F1200015F091F9A1E75B
:1020C800B4F807300133A4F80730C4E7C80B002080
:1020D800E80B0020064B10B593F8382002F0FF04F7
:1020E80022B91C7606F0BAFF204610BD0C24FBE787
:1020F8009C0B0020094B0A4A10B51A60FFF7EAFF4B
:1021080020B14FF4B1712720FEF7C6FB054C04F04F
:102118005FFF606504F060FFE06510BDC817002030
:10212800242300009C0B0020F8B5794C054694F850
:10213800386006F0FF0016B909B102B123B94FF4AF
:1021480020712720FEF7A8FB63639DF818306162B1
:1021580084F88A30E26384F8300084F88B0084F8CD
:10216800310084F888006084208584F8400084F871
:10217800410084F8800084F839006066E066A4F8BD
:1021880070006064E064A4F85000E56209F0E2FFC2
:102198000AF0FCFD95F928010AF040F8D5F8D4605A
:1021A800D5F8CC000AF040F830460AF0CFF995F897
:1021B80025000AF043F8B5F8E030622B03D9B5F8EA
:1021C800E230622B01D809F021FFE36A93F8A86096
:1021D800002E40F0858018F0F6F895F820214D4B38
:1021E8004FF47A7153F8223003F5FA73B3FBF1F325
:1021F8005233191830460AF097F8474B18680AF016
:10220800ABF9D5F8C030C4F88430D5F8C430A3672A
:10221800AB7B243B072B6BD9EB7B243B072B67D984
:10222800B5F8F230B5F8F80095F82011984228BFB3
:102238001846042908BF032116F0B1FE034695F895
:10224800F400984228BF184695F8F03080B29842BA
:1022580000D3C3B295F8211105F1E80084F87F3066
:1022680017F07CFB95F821112F7D0329B5F8FC6048
:1022780008BF042116F093FE0FB9043080B28642DD
:1022880028BF0646F6B284F8896005F057FE28B1E3
:1022980005F05AFE864238BF0646F6B284F8586002
:1022A80015F0A1F8E36A93F8A8301BBBEB7C13B1D7
:1022B8002846FFF707FB0120FFF79CFB002323605C
:1022C8006360A360EB886380B5F8AA30238095F833
:1022D80025302371D5F824310BB101221A60F8BDDD
:1022E80018F071F895F8212100F17101012082E7B9
:1022F8001B23AFE72B7D13B12846FFF767FA0120B0
:10230800FFF70AFAE36AD3F8F0010AF06DF9D5E7A6
:102318009C0B002044D70300C8170020A917000011
:10232800E11C000021180000811600000D4B03215C
:10233800186830B50D4690F8A52090F8494001324C
:10234800B2FBF5F303EB4303D31ADAB244FA03F30F
:10235800DB0703D4013911F0FF01F0D180F8A52083
:1023680030BD00BF280C0020014B186812F0DBBDFF
:10237800280C002008B509F0FBF9014B187008BDBE
:1023880070000020064B10B41C68827C836804F13E
:10239800420194F841005DF8044B16F037BD00BFC8
:1023A800280C0020024B18686C3001F0DFBA00BF1F
:1023B800280C002038B50F4CFFF7F4FF656801F0D2
:1023C8008FFA63682860186820B940F2F541322016
:1023D800FEF762FA12F074FF10B940F2F741F6E71F
:1023E8000AF0D0F800200AF031F9636804221A7163
:1023F80038BD00BF280C002038B5194D04466B685D
:102408001B79022B04D940F6FC013220FEF744FA6E
:102418002B68027C83F8A4201A44C168996692F854
:102428007C2183F878214268C3F88820037A022B3C
:102438000ED009F08FFE0AF02DF909F03BFA094891
:102448000AF08AF808480AF081F8084809F0ECFE12
:10245800637C23B12B685B6E0BB101221A6038BD17
:10246800280C0020A833000055555500D6BE898E8B
:102478002DE9F341494D002307460E462C68637247
:10248800236DB3F8AA2093F82911D3F8C800628104
:1024980016F0D7FD2B6820841A6DB2F8D010B2F868
:1024A800D22059849A844FF47F42DA844FF6FF721F
:1024B8001A8517B30121304616F099FF3378014683
:1024C800D8092C6894F8483004F11402FBB112F0D2
:1024D8006DFCE0B10B6863618B88287B938004F105
:1024E8000E0208284BD004F10D0105F077F988B9E0
:1024F80041F213413220FEF7CFF96946A86816F079
:10250800F8FEAB6869461878C0F38010D9E7002355
:102518006361E2E72C68637B04F11A0843F0020365
:1025280063734FB30021304616F061FF0368C4F8A7
:102538001A308388A8F804302B68186D93F958105E
:10254800A83005F049FA2868154917F04FF92868A6
:102558001449036D2A30B3F8AA20A0F80920DB7DBE
:10256800C37217F04CF90221286801F0F3FCFFF759
:1025780019FF02B0BDE8F08104F17800D6E794F8BD
:102588007E306373A36FC4F80E30B4F87C30938048
:102598000023C4F81A30E383CEE700BF280C0020DC
:1025A800114E0100CD4D010008B5074B93F90020ED
:1025B8007F2A04D140F29B313220FEF76DF9027078
:1025C8007F221A7008BD00BF7000002010B5047883
:1025D8008EB004F00F0404A9224612F098FEFFF70B
:1025E800C9FE042C33D11B4C059A2368107893F844
:1025F800781088422BD1507893F87910884226D1E8
:10260800907893F87A10884221D1D07893F87B108B
:1026180088421CD1107993F87C10884217D15179DF
:1026280093F87D20914212D19DF8212093F87E30B5
:102638009A420CD10DF10F00FFF7B6FF9DF90F304C
:1026480004A90093237C227B606812F04BFE0320D0
:102658000EB010BD280C00200D4A536810B519792A
:10266800022904D841F2BC413220FEF715F9197944
:10267800082902D941F2BD41F6E71B79526903F1F5
:1026880080439268033BBDE8104052F82330184756
:10269800280C002010B5054C637B2BB109F0FAFF1C
:1026A80009F008F90023637310BD00BF280C00204F
:1026B80010B5054C23792BB109F0ECFF09F0FAF8B5
:1026C8000023237110BD00BF6013002010B5094C12
:1026D800FFF7E0FF012263681A7100232268A2F85D
:1026E800793182F87B31FFF75DFE2068BDE8104044
:1026F80013F09FB9280C002008B5FFF7CBFF044B57
:1027080000209968FFF7B4FEBDE80840FFF72CBE2B
:10271800280C0020062938B51D469DF8104019D907
:1027280008291BD802B18CB143689BB912B9437808
:10273800DB0615D40B4B5B68186812F0E2FD00B19C
:1027480034B92DB904F07AFF00F00104204638BDF1
:102758000120F9E79DF814402C43F7E70024F5E73A
:102768000124F3E7280C002038B50D1E04460CBFE1
:1027780005200320104405F077F8094B587370B111
:102788005DB9033C012C8CBF5024552409F06CF82A
:102798002046BDE8384009F071BF4024F6E738BD4F
:1027A800280C0020F8B53D4CFFF7FCFD656801F0EA
:1027B80097F863682860186820B940F252413220BF
:1027C800FEF76AF812F07CFD054610B940F2544154
:1027D800F5E7236893F8A6306BB123681A6D93F870
:1027E800A710C3F8102193F854200A4383F8542003
:1027F800002283F8A620206890F8A430034493F8B8
:102808007C71636880F878711A7952B11B79012B51
:1028180007D0002112F056FF18B9BDE8F840FFF7BD
:1028280055BF23681E4A93F8A530D05C09F006FD11
:10283800236893F8A420134493F87C61022E2BD0CC
:1028480004D8012E05D040F2F771B8E7F31E012B2A
:10285800F9D801F03FF8314609F012FC284609F092
:1028680091FE3146012009F0F7FC7B1E2A463846C6
:1028780059425941FFF778FF6268082100235171D6
:1028880021732168D3801372E37381F89530A373A1
:10289800237403231371F8BD0D20DCE7280C0020F6
:1028A8005BD40300124A10B5536800B931B9184611
:1028B80001F0AEF8BDE81040FFF708BF1979082904
:1028C80004D841F28C413220FDF7E6FF19790C2932
:1028D80002D941F28D41F6E71B79526903F1804331
:1028E8005268093BBDE8104052F82330184700BF32
:1028F800280C0020054B1A6892F85420920703D040
:102908005B68186801F016B898687047280C0020B2
:1029180070B5304D06466B681A79032A0BD01A79C0
:10292800042A08D0FFF7E6FF044640B941F2C43153
:102938003220FDF7B1FF186812F0C2FCF4E72B68EB
:1029480093F8543013B941F2CA31F1E776B116F071
:10295800C6FD30B16B681A79022A0ED841F24A31A5
:10296800E6E7204616F0D6FD0028F3D16B681A7901
:10297800022A17D841F2AA31DAE71A79082A02D9C5
:1029880041F24B31D4E71B7920466A6903F1804351
:102998001269033B52F8233098470C2812D941F2A8
:1029A800DD31C5E71A79082A02D941F2AB31BFE710
:1029B8001B796A6903F180435269033B52F823305B
:1029C8009847EAE76B69DB68BDE8704053F8203048
:1029D800184700BF280C002007292DE9F0430646B8
:1029E80087B00F4690464568634C23D11DBB002A2B
:1029F80049D1D4E9001091F8543013F0030218BFFC
:102A0800012213F00403827103D033785A1E534213
:102A18005341C37191F894304BB12368D3F89000B7
:102A2800503017F059FC10B9636801221A7207B0C8
:102A3800BDE8F0833DB32946707C12F0B7F9072F43
:102A4800814661D1637B63B158B1B8F1000F52D0B0
:102A5800656816F01FFA636868715B792373012350
:102A6800A37363685879082855D17168707C17F08A
:102A780029FC6268054671680532707C04F0E4FD43
:102A88006368002859D0236893F8540010F00300B5
:102A98000AD093F84A3039460195304662689279EF
:102AA80000924246FFF736FE62682368907193F8F9
:102AB800540010F0040009D093F84B3039460195C2
:102AC8003046D27900924246FFF724FE2B4B6568C8
:102AD8001B68E8711BB141463046984728727268F6
:102AE8006AB3717C236883F87E10116899679288AD
:102AF800A3F87C2023E0236893F878110129A7D153
:102B0800284604F083FE6073637B002BA9D0B9F1DB
:102B1800000FA6D09CE704AA0DF10F0104F05EFE99
:102B280020B940F6A5313220FDF7B6FE04A99DF87C
:102B38000F0017F0C7FB0546A5E7D8801872626832
:102B4800137AB3B9D388003B18BF0123B0680028B3
:102B58003FF46DAF072F7FF46AAF517908293FF42E
:102B680066AF002B3FF463AF04F06EFE0123E373FE
:102B78005DE70123EAE700BF280C0020CC170020FE
:102B88002DE9F04F044689B0062900F2C580DFE838
:102B980011F06000E7000700C300C300C30026006F
:102BA8006E4D09F0D5FB2F6897F85430980714D06C
:102BB8006E68B3798BB10DF11F00FFF7F5FC9DF935
:102BC8001F3002222146029330462B7B0193FF23BC
:102BD800009307F1420312F075FB03201FE05F4DDD
:102BE8006E68B379002B00F097802F6897F854200F
:102BF800910717D50DF11F00FFF7D6FC9DF91F307F
:102C080030460622029321462B7B0193FF23009333
:102C180007F1420312F056FB002309202B7409B078
:102C2800BDE8F08FD30777D5570701D509F090FB9A
:102C38000DF11F00FFF7B8FC9DF91F202B680292C9
:102C48002A7B42330192FF220092062221466868BD
:102C5800C1E7424D2B6893F85420560737D5696869
:102C6800CA79002A33D0426893F85B001678864206
:102C780055D1567893F85C00864250D1967893F8EF
:102C88005D0086424BD1D67893F85E00864246D1E5
:102C9800167993F85F00864241D1507993F8602005
:102CA80090423CD1627C93F85A00101A4242424149
:102CB80093F8560001284ED0002A4CD193F84C3096
:102CC800082B02D04A799A4245D009F041FB6E6838
:102CD800B379002B3DD02F6897F85420930720D55F
:102CE8000DF11F00FFF760FC9DF91F3030460022F0
:102CF800029321462B7B0193FF23009307F14203A4
:102D080012F0E0FA012309202B746B68DA79002AA3
:102D180085D19B79002B82D109F01AFB5DE700224F
:102D2800C6E7D60715D5500701D509F011FB0DF1F7
:102D38001F00FFF739FC9DF91F202B6821460292DE
:102D48002A7B42330192FF2200920022686812F027
:102D5800B9FA0320D9E70A20D7E700BF280C0020DA
:102D6800644D81682A68807C12F020F892F854300B
:102D78006E68074692F84890590796F806A096F8A4
:102D880007B089F0010940F18E8092F84B30002B92
:102D980000F0898092F84C60082E00F0868030465A
:102DA80004F030FC49EA00005FFA80F9002F7ED079
:102DB8003046A16804F09EFD06462B6893F854201F
:102DC80093F84180520749D5626893F85B101078F0
:102DD80088426ED1507893F85C10884269D1907817
:102DE80093F85D10884264D1D07893F85E108842D9
:102DF8005FD1107993F85F1088425AD1517993F8CE
:102E08006020914255D1627C93F85A10501A424280
:102E180042416968497908294DD093F84C30591ACC
:102E28004B424B41002E48D1B9F1000F47D0204604
:102E3800CDE90423FFF7A6FADDE90423BBF1000F6F
:102E48000AD0296891F8561001294ED021B9002AD4
:102E58004BD108B1002B4AD109F07AFA2B6893F8C4
:102E680054309B073FF4B9AE09F072FABAF1000F7B
:102E78003FF4B3AE2046FFF785FAD5F8009000B9C5
:102E8800FEB10DF11F0048EA4608FFF78DFB9DF9DA
:102E98001F3002932B7B01935FFA88F30093012282
:102EA80009F14203D2E6767976E7002685E73E46C1
:102EB80083E70022ADE70023B4E70120BEE73046F0
:102EC800BCE799F85530023B012B3FF686AE002F40
:102ED8003FF483AE0DF11F00FFF766FB9DF91F302D
:102EE80002932B7B0193FE23D8E70028B4D00A2055
:102EF80095E600BF280C002030B58BB00546FFF7DB
:102F080039FA114B1B6893F8543013F0060F04D0AC
:102F180001229621002018F008F92C7869462846E5
:102F280004F00F04224612F0F2F900222146684606
:102F3800FFF752FD21466846FFF722FE0446FFF7D9
:102F4800A9FB20460BB030BD280C002038B5154D24
:102F58002C6894F84830F3B16FF00043D4E920129C
:102F68009A4208BFB1F1FF3F15D018F02BFAD4E907
:102F78002023904299410ED32B6893F848305BB9CF
:102F88002D6804F025FC044618F01CFA064BE4FBF7
:102F98000301C5E9200138BD012004F077FC0028B1
:102FA800F9D0EDE7280C002040420F0010B5044688
:102FB800FFF722FA237A032B04D140F62E11322090
:102FC800FDF76AFC0BB9FFF7B1F9064B1B6893F9DB
:102FD800580009F023F9FFF7E5FBBDE81040FFF7BB
:102FE800B5BF00BF280C00202DE9F8436A4D002327
:102FF80007468946A868D5F800800370437009F031
:10300800DDFA064630B90026032004F031FF3046C9
:10301800BDE8F883AC68032F237833D123F00F037E
:1030280043F0030323700C236370D8F87830A86842
:10303800C0F80930B8F87C30A0F80D3098F87E1048
:1030480016F067F90021A86818F07BF82B6893F848
:10305800482003F1420993F84180002A77D14C4671
:1030680023684146A868C0F80330A388A0F8073051
:1030780016F046F9494BD3F80C32002B7CD009F0F6
:1030880067F9C0E723F02F03222243EA491362704D
:1030980043F0050323702B681A6DD2F8CC20C4F8CE
:1030A8000F201A6DD2F8D430190AE3741B0C21755D
:1030B800637592F82A11B2F8DC30002941D06420F7
:1030C800B3FBF0F3A375D2F8D83000293CD06421C3
:1030D800B3FBF1F3E375C3F30723237692F82911C1
:1030E800D2F8C80015F0ADFF29686076000AA0760E
:1030F8000B6DAC68B3F8D020E276120A2277B3F8E9
:10310800D2206277120AA2779A69C4F81F201B7F1F
:1031180094F8242084F823300B6D22F01F0293F8D2
:10312800233003F01F03134384F8243003F0CCFF4B
:1031380094F8243003F01F0343EA401384F8243042
:1031480073E740F2E240BBE740F2E241C0E793F8A0
:10315800542052070DD593F84B2052B193F84C00E8
:1031680004F002FC044600283FF479AF4FF0010850
:1031780076E76B685879F3E7052F7FF448AF2B683B
:1031880021681A6DC2F8B410A188A2F8B8101B6D96
:1031980083F8B3803BE700BF280C002000A008504C
:1031A80010B500210320FFF71FFF18B9BDE8104034
:1031B800FFF78CBA074C0321206812F083FA002825
:1031C800F4D00121084609F099FA636809221A71B6
:1031D80010BD00BF280C002070B5164C6368186835
:1031E80012F06EF8064620B940F261513220FDF720
:1031F80053FB63680A22002120681A7100F0AAFEB6
:10320800236805201B6DDD7D3378C3F340131D4013
:103218002946FFF7E9FE18B9BDE87040FFF756BA2E
:103228000421206812F04EFA0028F5D023681B6D9F
:10323800DD7570BD280C0020036D10B5044623B958
:1032480040F261313220FDF727FB02220749427222
:10325800B3F8AA304381FF2380F827304FF6FF7375
:10326800038516F0C3FA0023236510BD114E010033
:10327800F8B5194F064603F0ABFE0121B8600020EF
:10328800FDF700FF054620B940F685013220FDF71D
:1032980003FB4FF4C072002118F011FB012108460E
:1032A800FDF7F0FE044620B14FF4C072002118F07B
:1032B80006FB7B6913B940F68F01E7E7304611F04A
:1032C80069FE284612F0EFF924B12046BDE8F8401F
:1032D80012F0E9B9F8BD00BF280C0020014B024AE2
:1032E8005A617047280C00200C340000036810B5A0
:1032F80023B940F677113220FDF7CEFA044A13605D
:103308006C3353605369BDE810401B68184700BF11
:10331800280C002008B5044B586800F079FBBDE87C
:103328000840FFF7D3B900BF280C002038B5044681
:1033380090F8400000F0FD0004F14201003818BF89
:10334800012084F8410003F0F7FF94F84030023B75
:10335800DBB2012B94BF0123002384F8483015D831
:1033680004F036FA054618F02DF8094BE5FB030181
:1033780094F84830C4E9200143B1002004F086FAEB
:1033880020B940F621213220FDF786FA38BD00BF6A
:1033980040420F000149363016F02BBAEF4D0100BC
:1033A8006126000019290000AD280000C94F01005E
:1033B800BD23000001270000514F01003F4F0100CD
:1033C80071230000D5260000E34D0100AD27000061
:1033D800E34D0100E34D0100E34D0100E34D010021
:1033E800E34D0100A9310000E1310000E34D010087
:1033F800E34D0100012F0000D5250000754F0100A5
:10340800674F0100B52F0000B8330000C03300003B
:10341800C8330000FC3300000434000008B5431E24
:10342800DBB231B1032B08D94FF4EA713320FDF731
:1034380033FA032B02D8034AD05C08BD4FF43F711E
:103448000620F4E75ED4030008B511F05EFC054AD7
:10345800D2E84F3F0133DBB2C2E8413F0029F7D140
:1034680008BD00BF400C0020024BA0F108015868BD
:10347800FFF7EABF400C00202DE9F84F1E463C4BF1
:103488000D46934600211A7804689DF828709DF827
:103498002C809DF930909DF834A0016032B9A4F1D8
:1034A80008015868BDE8F84FFFF7CEBF1A2204F1AB
:1034B800090018F004FA0123A372BBF1060F4FD8D4
:1034C800DFE80BF00433394E434E3D00E37A23F036
:1034D800130343F01303E372012304F10E02414680
:1034E8002846237547F6FF7384F81890E38204F1A1
:1034F8000D0311F0B9FEE37A5B0736D5BA1E04F165
:103508001C03012A8BBFAA6832681168E2618ABF6E
:10351800E161B28892889A80E77600232372154980
:103528002046BDE8F84F16F064B9E37A23F0150396
:1035380043F01503CFE7E37A43F01003CBE7E37AD0
:1035480023F0120343F01203C5E7E27A4AF01A0A9D
:1035580022F01B020AF01B0A42EA0A02E272BBE7E7
:1035680040F246413320FDF797F9FF23E376D4E78D
:10357800400C0020813500002DE9F04F05468DB044
:103588000C4600200121FDF7B9FD064620B94FF48D
:10359800F1713320FDF780F9A83012F086F818B1E0
:1035A80096F85430042B2ED1304611F0E8FC50BB6D
:1035B800B84C04F1080604F10C07AB6A93B9284625
:1035C800FFF752FF4FF40073ADF804309DF8043054
:1035D800002063F307009DF8053063F30F200DB05A
:1035E800BDE8F08FA96A0B68B142AB624FF00003E7
:1035F8000B704B708B70CB70DFD0B942DDD0606838
:10360800FFF722FFD9E7AF6A37B3A34B9F4226D013
:10361800043B9F4223D007F13B0A4FF0000803F018
:10362800E5FC8146B8F1000F40F0058102A950463B
:1036380011F000FFB9F1000F16D004F10D00EE7A79
:1036480016F0100613D09DF818600599324610F050
:1036580037FC4FF0010828E005F1330ADDE74FF0A9
:1036680001084FF0000ADAE704F11C00E7E7002F31
:10367800EFD09DF80830022BEBD0014695F8323098
:10368800E522504615F0C2FE95F83230064603444E
:10369800504685F8323015F0B1FE95F83280A8EB27
:1036A8000000D0F1000848EB0008B9F1000F00F065
:1036B800C680EB7AD90604D45B216AE7C84600269F
:1036C800F7E713F0040FAA7A95F80DC04FF03E0300
:1036D80004F1060105F10E0033D095F81BE0BEF1A8
:1036E800FE0F2ED123700B23E270A370130184F810
:1036F80005C00233637001232371D5F80E30C4F876
:10370800063083888B8084F80CE0EB69C4F80D30B0
:103718002B8CA4F811302B7EE3745E4E06F1080A58
:1037280057453BD12379022205F1280062F346135D
:10373800237111F0B5FD02272846FFF795FE0426F0
:103748003FE023700223E270A37006F10A0384F8B5
:1037580005C0534302336370D5F80E30C4F8063001
:1037680083888B80267326442B7E7373EA7A12F043
:10377800080102D004232371CFE702F00303032BCF
:1037880001D12171C9E7520701D50123F3E7022BC3
:10379800F1D00BB90323EEE7A421FAE606F10C09F0
:1037A8004F4515D105F1280011F07AFD6A7D6AB9F7
:1037B8002379042662F34613237102272846FFF76C
:1037C80053FE8DF804608DF80570FFE60026F4E7D7
:1037D80047B3B8F1000F20D005F12808404611F092
:1037E8005FFD39467068FFF72FFEAB6A002253452C
:1037F80085F8322096D04B4505D12379404662F3AF
:103808004613237195E79DF80830022B05D12379DB
:1038180023F068030127237191E72379012262F3DA
:103828004613F7E7EE7A16F01006CAD0237967F345
:10383800461323717FE700287FF440AF06468E23A6
:1038480005F12301237006F11803AA7A5343E270A5
:10385800221D0233637005F10B0353F8040B8B42EE
:1038680042F8040BF9D195F814A095F815B003F0B7
:10387800FBFBC1F3402950464946FFF7CFFD607373
:10388800BBF1000F04D049465846FFF7C7FDA073A7
:10389800E67642E7400C00204C0C0020343270B52C
:1038A800054692B20C461E4611F0F7F925B1034AB7
:1038B800556014745674147070BD00BF400C00201D
:1038C80010B5034C606811F00AFA237C237010BD10
:1038D800400C0020014B587C704700BF400C002072
:1038E80038B5134D686811F000FA044620B940F263
:1038F80057113320FCF7D0FFD5E84F3F013BDBB22F
:10390800C5E8413F0029F7D104F1080334221846DD
:1039180017F0D5FF47F6FF720121E462E283FF2228
:10392800627584F82320E27C61F34612E27438BDA4
:10393800400C002038B5436A044693B90A4D6868BC
:1039480011F0D3F9606220B94FF4B8713320FCF755
:10395800A3FFD5E84F3F013BDBB2C5E8423F002A51
:10396800F7D1606A3B3038BD400C0020036810B5C1
:1039780004468BB19A6A22B140F28D113320FCF7CC
:103988008BFF596A41B101F108008342074B08BF18
:1039980022605868FFF758FD216831B1034B083998
:1039A8005868FFF751FD0023236010BD400C00202C
:1039B80038B5046805469CB11349204615F022FF26
:1039C800124B00221A735A739A73DA73EFF3108248
:1039D80072B6A16A0C3399B9A362E36202B962B6FE
:1039E8002C68616A49B101F108039C4203D0074B76
:1039F8005868FFF729FD0023636200232B6038BD58
:103A0800E16A0B60E9E700BF81350000400C002047
:103A180070B50668044656B3716A154D41B101F197
:103A280008039E4202D06868FFF70EFD0023736208
:103A380021684E7DB6B100232B726B72AB72EB72AC
:103A4800EFF3108272B6886A0A4B40B98B62CB6278
:103A580002B962B62046BDE87040FFF7A9BFC86A40
:103A68000360F4E708396868FFF7EEFC266070BD6C
:103A7800400C0020480C002010B5044602460649B8
:103A880000F58C7017F0C8FD224604F5A4700249B1
:103A9800BDE8104017F0C0BDBB5701007FB590F8D6
:103AA800142102F0FF0322B140F2A5212120FCF7E6
:103AB800F3FE0C78039314F0010218BF8D68CDE96A
:103AC800013318BF019514F0040529D004ADCE6860
:103AD80005EB820545F80C6C154680F845514A6897
:103AE800124DC0F8C820C0F8F82040F27122A0F8A2
:103AF800FC20032215F8011B0C420BD004A900EB93
:103B0800830601EB8301013351F80C1CDBB2163933
:103B1800C6F8CC10013A12F0FF02EBD104B070BD28
:103B2800002ADAD140F2BE21C0E700BF6ED40300FC
:103B38002DE9F04F04468FB09B469246BDF8607061
:103B4800039117F03FFC80462046049111F0BFFC1A
:103B5800D4F8CC900546BBF1000F00F0D781BAF13C
:103B6800000F00F0E480834618F5FA630593049B80
:103B780043F10003069305F0BFF9064604F1E80097
:103B88003146079005F08AF9D4F8101111B1079859
:103B980011F0DFFDBDB1D4F8F050BEB1B0682A46CF
:103BA800D6E90031C018059B009341F10001069B3E
:103BB800019316F0DFFB8542034608D240F24D31EF
:103BC8002120FCF769FED4F8C850E6E73346059A89
:103BD800D4F8C8009D18069A42F10006002F00F09C
:103BE800A180BFB242F2107C29463246E7FB0C1294
:103BF80000F2CF773B44B3FBF0F34343EB1A66F193
:103C08000000C4E92A12C4E93A300027E319204623
:103C180093F87C1111F040FCD4F8A830D4F8AC101B
:103C28005A1B0590069361EB0600012A70F1000308
:103C38004FF00003C0F259819145834100DB914662
:103C480004EB8707D7F8CC704F4528BF4F46C4F818
:103C5800DC70BAF1000F05D0D4E93A23C4E92C5638
:103C6800C4E93023059B2046039AC4F8D8300423BE
:103C78000791C4E92E5653722A46334611F03DFC8B
:103C8800039B059A18725A60BBF1000F00F0388147
:103C98000123039A07991370069B049AB3EB080350
:103CA80061EB0202012B72F100004FF00000C0F23C
:103CB8001E81A74E9E42904100DB1E46D4F810316B
:103CC800D4F8C890002B40F0178107252046A9FB9F
:103CD800055A11F0FCFB002800F00B81D4E92C32C6
:103CE800ED184AEB0203A845049A9A410FD2B5EBA6
:103CF8000805049A63EB02036FF00102AA424FF031
:103D080000029A4102D3AE4228BF2E46B146039B19
:103D1800C3F81090059B9F4234BF002001200FB0CC
:103D2800BDE8F08F4FF0FF316FF0004260E70028E8
:103D380038D06FF00043D4E92A129A4208BFB1F193
:103D4800FF3F2AD094F844312046234493F87C114D
:103D580011F0A2FB18F19802049B0546099008A8E7
:103D680043F100038DF820A0CDE90C2340F2024373
:103D7800ADF8283017F056FC10B940F296411FE70D
:103D8800D4E92A320C995B1A0D9962EB01025B1B8C
:103D980062F10002002AC0F2A2804546049E4FF05C
:103DA800010B32E7D4E93A26D4F8C850A8EB02034D
:103DB800AA18B3FBF5F305FB03F346F100069B18BD
:103DC800A3EB080246F10006972A05D8ED1846F13C
:103DD8000006D346574619E794F87C11204611F09F
:103DE8005BFB0423D4F8B8208DF82930D4F8C850E8
:103DF800099020468DF820A0D4E93A13521AB2FB54
:103E0800F5F26A43521843F10003CDE90C2311F08F
:103E180074FB29468DF8280008A815F067F8DDE935
:103E28000C56D6E751F8042F013302F1160CCC4595
:103E38009FBF821A01379144FFB2DAB29645F1D892
:103E4800E319204693F87C1111F026FB484404EB53
:103E58008703D3F8CC30834209D3A3EB0909B9F11E
:103E6800000F22DA40F24E41AAE6A94667E094F82C
:103E78004511D4F8C820B9420FD901379542FFB28D
:103E880008D204EB8703D3F8CC3003F11602994625
:103E98001546E4E74FF4856192E69542F7D3520060
:103EA8009542F4D340F245418AE6AD192046D4E95B
:103EB8002C234BF1000611F0C6FAD4F8C8304FF0A5
:103EC800000B5843D4E93A321B18204642F100024D
:103ED800C4E93A322A46334611F0B5FA96E6454621
:103EE800049E4FF0010BD14674E79946A8E60646B2
:103EF800E4E6D4E93032F3E64FF0FF352B46F2E63C
:103F0800039B83F800B0C3E9045603E7BAF1000F36
:103F18007FF42AAED4F8C82008F19805D4E93A13FA
:103F2800A8EB0106B6FBF2F656437618A5EB060594
:103F380043F10003AA429B4697D8A5EB0209002348
:103F480094F845E104F1C8016FF015001F4674E7C5
:103F58000040420F01292DE9F347064605D90229F9
:103F680000F099804FF4046150E001F00104D0E9B9
:103F78002CA708F061F896F87881814620464146DA
:103F880015F02EF80546404608F094FC0246002C31
:103F98003FD0A8F10203DBB2022B3AD8534901EB18
:103FA80043031B8A15EB09052CBF0121002115EBE2
:103FB8000A0547EB01074E4951F8280000F2E7309F
:103FC80010444FF47A72B0FBF2F02D1A67F1000733
:103FD800ED1847F1000716F0F6F95230D6F81081BF
:103FE8002C1A67F10005D8F8C87004F07FFF06F1B5
:103FF800E803834210D03A46CDE90045D8E9780174
:1040080016F0B8F9874211D240F261312120FCF74D
:1040180043FC4FF4FC73C5E798F8290130B13A46E0
:10402800CDE90045D6E93A0116F0A4F9314B1A68F2
:10403800D6F81031824293F82A110ED9D3F8C86005
:104048003218C3F8D86089B941F66A018842A3F8E2
:10405800DC1018D34FF4FA61D8E751B16422B0FBF1
:10406800F2F151430246401AC3F8D8104FF4FA71DE
:10407800ECE740F2E242B0FBF2F151430246C3F8EA
:10408800D810401AE0E7121945F10005C3E9782570
:1040980002B0BDE8F087D0F8103113B940F2DB71F7
:1040A800B4E700255D7390F8781183F8201183F840
:1040B8002111FF2483F822410339D0F81001012986
:1040C80000F1E8008CBF0021012115F081FCD6F831
:1040D800100116F043FBC6F8105186F8164108F097
:1040E80093F902B0BDE8F0470FF03ABA62D4030082
:1040F80044D70300540C002008B50B4B30B10128FD
:104108000DD040F653012120FCF7C6FB18601A6851
:1041180041F669039A4206D940F65C01F3E740F696
:10412800C4121A60F3E708BD540C00200138C0B26D
:10413800032808B504D94FF43F710620FCF7ACFBFF
:10414800014B185C08BD00BF78D403000138C0B229
:10415800032808B504D94FF43F710620FCF79CFBEF
:10416800014B185C08BD00BF95D403000138C0B2EC
:10417800032808B504D94FF43F710620FCF78CFBDF
:10418800014B185C08BD00BFF8D403000138C0B269
:10419800032808B504D94FF43F710620FCF77CFBCF
:1041A800014B185C08BD00BFF1D50300F0B5284AE3
:1041B800A7B004460D4610686B46516802AE0F2240
:1041C80003C300210DF1890017F079FB00211022AB
:1041D800304617F074FB16ABDDE9000183E80300F5
:1041E800234618AC03F128071868083353F8041C51
:1041F8002246BB4203C21446F6D1802306AA8DF894
:104208008830002302F8013B0133102BFAD196E8DD
:104218000F0012AC84E80F000AAA214606A811F084
:104228002BFC01230EAA214606A88DF84B3011F06D
:1042380023FC2A460EA90AA8042317F0C0FA04236F
:1042480005F1100229460AA817F0B9FA27B0F0BDFF
:104258007CD403002DE9F04F934690F85D7291F8F5
:104268003E2189468BB00025044640F2712A8DF81C
:10427800183006238DF810508DF81930B7FBF2F17D
:1042880002FB1177B9F83A210D21FFB25743D0F854
:10429800C4200092FCF78CFF0E210190FCF72EFF42
:1042A800D4F8D4100AFB07F68046C97C012935D119
:1042B80003A9019814F0D9FE18B14A218E20FCF701
:1042C800EBFA039A019214F007FC019A054692F85A
:1042D8002B0103F093FB94F85D2298F83E11B2FB92
:1042E800F1FC01FB1C2212F0FF025ED094F811C011
:1042F800B8F83A11624505BF4A43D8F830110CFBAB
:1043080001110AFB021218BF0AFB01F229180BEB74
:10431800020089B20EF08EF900F11005C4F8C450FD
:104328002046D8F84CA16D000CF0B8FFD4F8D43072
:10433800824594BF55442D18DB7C05F20625012BD8
:10434800059504F1180569D1002F67D0637C7BB30C
:10435800284617F0E1F840F27122B9F83A31534390
:10436800009A12F5EA782CBF0122002213EB080309
:1043780042F100021B1842EB0101D4F8C4002D4A97
:10438800121A34BF6FF001004FF0FF30D218059BAE
:1043980041EB0001A3602846CDE9082104A90FF0EC
:1043A800F3F8002843D1FF2188E7D8F83021ADE79A
:1043B800D4F8BC6017F0B3F8D4F8C830D4F8D4E017
:1043C8007609002BC6F5EA76B8BF1F33F7174FEA10
:1043D80063184FEAE37C9EF811309EF817E0012B32
:1043E800B9F83A3140F2712914BF1022202209FB92
:1043F80003F313EB08034CF1000C083B4CF1FF3CB2
:10440800B3EB0E036CF1000C9B1947EB0C071B1860
:1044180041EB07019B1A61F10001AEE7D9F8303191
:10442800D4E9002133449B1841F10001A5E70BB002
:10443800BDE8F08F2CFEFFFF08B509F033FF28B95F
:10444800034B1868BDE8084011F0E8BB08BD00BF81
:10445800040D0020F7B50446052900F20C81DFE8B9
:1044680011F00600A900AC000A010A01A50090F8A5
:10447800623223B903B0BDE8F0400FF071B890F88C
:104488006232052B05D10F220021204611F0F9FBDD
:10449800F0E74FF40C7180680EF0CCF8A368283B65
:1044A800184416F091FF94F86232032B08D094F860
:1044B8006232022B04D04FF4AE718E20FCF7ECF977
:1044C800032384F86232D4F8D4300D21B4F864227E
:1044D8002046B3F847301344A381FCF769FE06462B
:1044E8000E21FCF70BFE01A90546304614F0BDFD70
:1044F80008B18D21E1E794F85D3240F2712E95F80C
:104508003E710199B5F83821D1F8C810B5F85001B5
:104518004A43B5F83A110EFB00F0B3FBF7F607FB78
:1045280016335643DBB203F1010C4B430EFB036316
:10453800834201D99721C0E7BC45A0EB030300D013
:10454800F1B93244904202D8042284F86222D5F8A4
:104558004C21934218D2042284F8622223F07F432C
:10456800D4F85022204663F31702C4F8502209F009
:10457800EBFC60B9204603B0BDE8F04011F04EBB3B
:104588000EFB01F18B42DEE722F07F43E8E720468D
:1045980009F0F6FD0028EDD038480EF023FF374823
:1045A8000EF02EFF364B1C6003B0F0BD09F08AFEFA
:1045B800032269E740F2F7117FE7FF2380F86732AB
:1045C80090F8623203F0FF0213B980F86722EBE734
:1045D80090F86232052B07D10322002111F051FB1C
:1045E800002384F86732F2E7302301A980F82032EB
:1045F800B0F86032ADF8043009F064FBBDF804305F
:104608000228B4F86022A3EB020384F8B030E7D0A4
:1046180001282CD1042384F862320D212046FCF7AE
:10462800C7FD0E21FCF76AFD94F85D3290F83E2133
:10463800B3FBF2F102FB11330133DBB29A4202D031
:10464800042384F86232D4F8D4302046B3F84710F3
:10465800B4F86432194489B2A18109F055FE94F87E
:104668006232042BBCD1204611F0A4FAB8E72046E8
:104678000BF0D4FFD1E740F2FD111EE741440000E2
:10468800040D0020014B024A5A607047040D0020B7
:104698005D440000024B02461830596816F0BCBF52
:1046A800040D0020024B034A1A60528B9A8070470F
:1046B8000C0D002016010020014B1868704700BF40
:1046C8000C0D002008B5034610465A1E032A10D8C0
:1046D8004A1E032A0DD8084A012951700CBF00212F
:1046E8000A211071937091721946FCF721FF00207E
:1046F80008BD6FF01500FBE716010020074A537A42
:1047080040B143F00403002953720CBF0023072370
:104718005371704703F0FB03F5E700BF1601002053
:1047280040EA4100014BD870704700BF16010020D5
:1047380014280BD028280BD00A280BD10323064AAB
:104748000020528B1340054A938070470223F6E7F6
:104758000023F4E71E207047160100200C0D0020EE
:10476800014B9888704700BF0C0D002070B5066893
:104778000D4604460E21B6F8AA00FCF7BFFC07490F
:1047880080F8BD50B43015F031F8002386F84D316B
:104798002046BDE8704015F0AFBA00BF31490000AF
:1047A8002DE9F0410768054688460E21B7F8AA00AA
:1047B800FCF7A4FC0D210446B7F8AA00FCF79EFC00
:1047C800002680F86262094904F1B40084F8BD80CB
:1047D80084F8BE60A4F8C06015F008F887F84E6148
:1047E8002846BDE8F04115F087BA00BF395F0100DF
:1047F8002DE9F041056806460F460E2195F8A88078
:10480800B5F8AA00FCF77AFC0D210446B5F8AA0011
:10481800FCF774FCB8F1000F02D0EB7B452B15D0E8
:10482800002384F84571A4F84831A4F84631A8B9A2
:1048380094F8453104F1B4000B4984F8BD300023E5
:1048480084F8BE30A4F8C03014F0D0FF002385F8F7
:104858004F313046BDE8F04115F04EBA90F862325B
:10486800002BE5D0F2E700BF395F010038B50368D7
:1048780014460D460E21B3F8AA00FCF73FFCB4B964
:10488800B0F84831B0F84621A0F848419B1AA0F882
:1048980046411BB290F8A4205AB980F8A5509C3024
:1048A800847283810349BDE8384014F09FBF002318
:1048B800F0E738BD395F010010B540880C460E217D
:1048C800FCF71CFC90F872305BB980F8734014B99F
:1048D800FF2380F8C23003496A30BDE8104014F065
:1048E80085BF10BD0B61010070B5066804460D4612
:1048F8000E21B6F8AA00FCF701FC90F87C304BB901
:1049080080F87D5015B9FF2380F8C530054974300B
:1049180014F06CFF002386F84C312046BDE8704047
:1049280015F0EAB9B966010070B50C460E210546C6
:10493800FCF73EFC0E210646FCF7E0FB002280F85F
:10494800C6203E22A6802270222262702F22A270E8
:104958006A7AE27090F8162102F03F02A27190F88C
:10496800F820012AE2714CD190F80421227290F8C3
:104978000821627290F80521A27290F80621E2726D
:1049880090F80721227390F80921627390F80C219E
:10499800A27390F80B21E27390F80A21013AD2B27F
:1049A800072A96BF1749FF228A5C2274D0F8F9209B
:1049B800C4F81120D0F8FD20C4F81520B0F8012162
:1049C800A4F8192090F80321E27690F80D212277B7
:1049D80090F80E21627790F80F21A27790F81521B0
:1049E800E27790F8122184F8202090F8132184F8B7
:1049F800212090F8102184F8222090F8113184F8B1
:104A0800233070BD84D40300502808B51DD018D8B1
:104A180028280CD8092806D9A0F10A020C4BD2B2D2
:104A2800D340DB0707D43221D620FBF735FF3228E5
:104A380001D03C28F7D10A23B0FBF3F00138C0B20B
:104A480008BD9128EFD10720FAE70620F8E700BF54
:104A58000104104038B50B6804460E21B3F8AA00CB
:104A6800FCF74CFB90F8163190F8F820054603F057
:104A78003F0343EA8213227D637022F0800203F031
:104A8800C00322750022402BE27640F09380D0F8D4
:104A9800F930C4F80230D0F8FD30C4F80630B0F868
:104AA8000131638190F80331237390F80431637303
:104AB80090F80831FF2BA3731FBF90F80531E373FB
:104AC80090F80631237490F80731637490F809312F
:104AD800A37490F80A31E37490F80C3190F80B2124
:104AE8001B0190F80D1102F00F0203F0300313437D
:104AF800227D22F03F0213432375637D61F3030394
:104B0800DAB2637503F00F03012B08D1134690F84E
:104B18000E2162F30713637590F80F31A37595F8AA
:104B28001201FFF771FFE07595F81301FFF76CFFAD
:104B3800207695F81031642B2BD024D8502B2AD00E
:104B48003C2B05D81D2B07D80F2B0CD0142B0AD0C3
:104B58005D21D620FBF7A0FEA3F11E01184AC9B2B9
:104B6800CA40D107F4D50A22B3FBF2F3013BDBB20A
:104B7800637695F81131142B11D0282B1CD00A2BF1
:104B88001CD04321E5E7782B07D0962BE0D10923E9
:104B9800EEE70723ECE70623EAE70823E8E7012323
:104BA800A37695F815315A1E53425341227D63F37B
:104BB800861222751C2038BD0223F1E70023EFE797
:104BC80001041040036810B50C46B3F8AA000E2182
:104BD800FCF794FA034980F887407E30BDE810401E
:104BE80014F00DBE314900002DE9F84F07688046E2
:104BF8000D460E21B7F8AA0097F8A890FCF77EFAA0
:104C0800044690F8C2A05FFA8AFAB9F1000F07D0FB
:104C18003E6816F480660BD001263046BDE8F88F52
:104C2800FB7B002BF8D13021B87B11F0D8F9064670
:104C380002F01AFA0B0401F4004B40F1F880D8F89E
:104C48000030DA7C002A00F0EE801B7D002B00F09B
:104C5800EA80AEB90D21B7F8AA00FCF74FFA50B9AF
:104C6800BAF1000F0BD005F1010A504611F011FE00
:104C7800D0B91E2604E090F86232002BF0D00C2642
:104C8800B9F1000F05D0FB7B002BC5D1BBF1000F9C
:104C980003D031464046FFF795FF32464046302163
:104CA800BDE8F84F15F056B86B7803F0C003402BF9
:104CB80040F0A3802146504611F05BFE002800F02A
:104CC800B4806B78C3F3050203F03F0103F0C0031F
:104CD800402B40F0928094F817311BB994F81631A4
:104CE8008B42C6D1012384F8162184F8F8300023BA
:104CF80084F81731DAF80130C4F8F930DAF80530F9
:104D0800C4F8FD30BAF80930A4F801312B7B84F8D7
:104D180003316B7B84F80431AB7B84F80831EB7B7F
:104D280084F805312B7C84F806316B7C84F80731D4
:104D3800AB7C84F80931EB7C84F80A312B7DC3F312
:104D4800030384F80B312B7D03F03003B3FA83F3AC
:104D58005B0984F80C316B7DC3F3030384F80D31D0
:104D68006B7DC3F3031384F80E31AB7D84F80F31E8
:104D7800EB7D052B35D8013303EB83035B00DBB2F6
:104D880084F812312B7E052B30D8013303EB8303D3
:104D98005B00DBB284F813316A7E082A97BF274B81
:104DA80096239B181B7A84F81031AB7E1BB3012B1A
:104DB8000CBF1423282384F8113102F05BF903682F
:104DC80013F400631CBF2B7DC3F3801384F81531E3
:104DD800B9F1000F22D13A23FB73404614F094FF37
:104DE8001BE7062B0CBF50239123C9E7062B0CBFEA
:104DF80050239123CEE70A23DDE76B7894F8162138
:104E080003F03F0393427FF434AF0023012284F878
:104E1800F83084F8172184F81831D9E73B6843F44F
:104E280080633B60D9E72F262AE7202628E71A2641
:104E3800B9F1000F7FF427AF2FE700BF84D4030038
:104E4800036810B50C46B3F8AA000E21FCF756F912
:104E5800034980F89A409130BDE8104014F0C6BC70
:104E6800816A01002DE9F74F1E46136883461546EF
:104E780037680093BB4204D94FF48D71D320FBF7F8
:104E88000BFDD1F800A09AF82B0102F0B7FD0446FB
:104E98000AF1E80014F060FDDAF8E83061009842A1
:104EA8001FFA81F838BF1846414600F5F57948469B
:104EB8000DF0C0FB9AF820212D4B00F11004DAF810
:104EC800C800414653F822304FF47A724C4403F23A
:104ED800E733B3FBF2F3DBF84C2190332732AF2BE7
:104EE800024438BFAF23B2FBF0F2504301930DF0F8
:104EF800A1FB9BF83E218146BBF83A014146019B44
:104F08005043DBF84C2102F1480B40F2712202FBBE
:104F180000BBDAF8C8009B440DF08CFBDAF8C81027
:104F2800D944484481429CBFB0FBF1F301FB130014
:104F3800009B081A0139814228BF01468C4228BFCC
:104F48000C46A34238BF2346BB421C4628BF3C46FA
:104F5800A1422C6038BF2146B94228BF39468C424D
:104F6800316002D94FF4B27188E703B0BDE8F08F21
:104F780044D7030070B5441EE5B21F2D0ED8A1F228
:104F8800E2460D4DAE4209D840F27126012806FBD3
:104F980002F505D001F19602954203D2002009E0FE
:104FA800002AFBD106FB03F005FB0411884234BF3D
:104FB8000020012070BD00BF1D043D0073B50668C8
:104FC80005460E21B6F8AA00FCF798F82F4B4FF4C7
:104FD800FA72044690F82C11CDE90023D0F8282164
:104FE80011F0CDFDC4F84C010CF0D0FC84F83E0162
:104FF8000CF0D2FC294601AB6A46A4F83A012046D7
:10500800FFF730FF009B019A23F07F43D6F8C800D2
:1050180094F83E11C4F8303122F07F433D32B4F8A1
:105028003A510139D4F84C610244C4F83431694327
:1050380040F27125324405FB0122B4F81C11B2FB81
:10504800F0F20132A4F85011A4F83821B4F8222162
:10505800012A18D09533034405FB0133B4F8201115
:10506800B3FBF0F39BB28B4238BF0B46A4F8523126
:1050780094F82C31A4F8542184F856310F2384F87D
:105088005A3102B070BD0023F0E700BFFF083D00B1
:105098002DE9F04FD0F800B08FB007460C46BBF8AA
:1050A800AA000E21FCF72AF80D210546BBF8AA0034
:1050B800FCF724F83B6882469BF80E0093F8A8900A
:1050C800B9F1000F20D1322110F089FF064695F87A
:1050D800C8305BB302AA05F5AE7105F1F8000CF013
:1050E8000BFA9BF80F30002B40F0458101F0BCFF14
:1050F8000B0425D41A223221384614F02BFE06461A
:1051080030460FB0BDE8F08F33280CBF2A260026A2
:10511800BAF1000F08D09AF8629209F1FF32D2F181
:10512800000949EB0209D2E7D146D0E702ABD5F82E
:10513800F900D5F8FD10B5F8012103C31A80D0E7AE
:1051480095F8C4300BB92F22D5E70EB13246D2E715
:10515800637895F8162103F03F03934245D195F8FB
:10516800F830012B41D195F81761002E3DD13A68EE
:105178006388D1885B1A1BB2002BB8BF5B429BB215
:10518800B3F5804F31D2617923797C4843EA012312
:10519800A17943EA014303F18071A1F5FA7121F085
:1051A8007F41814221D8217A94F8078048EA012872
:1051B800617A48EA0148434517D8D2F8C8304345D0
:1051C800019312D9A27C617CE07C41EA02216389C7
:1051D800B4F80F2041EA0041A07BFFF7CBFE20B1D5
:1051E800E18AA28A012902D15AB11E2283E70199D4
:1051F80008F196084A4340F2712101FB03884245B1
:10520800F3D3A389002BF0D0237F03F00F02042AE5
:1052180001D90F2AE9D14F2B03D903F0F003F02B62
:10522800E3D1237E072BE0D8A07E14F0F9FC0128F7
:10523800DBD1A37E082BD8D8607E0F28D5D814F0F0
:10524800EFFC8046FFF738FA43784345CDD395F80D
:105258000C11207E0BF070FE8045C6D302A80CF01E
:10526800FBF908B9482246E7A28A47F6FE739A4234
:1052780016D8FFF721FA22228046002105A816F049
:105288001EFB3F4B4246217E059305AB95F80C016A
:1052980011F0DFFD20B1A17E386811F0F5FC08B9E6
:1052A800202228E7BAF1000F07D09AF8623223B11A
:1052B800B9F1000F01D10C221DE73F2328468BF8D6
:1052C8000F306279237943EA0223A27943EA024341
:1052D800227AC5F83031E37943EA0223627A43EA55
:1052E8000243C5F83431227CE37B43EA0223A5F864
:1052F8003A31A37B85F83E31627B237B43EA022364
:10530800A5F83831A378E27843EA0223A27CA5F80D
:105318003C31637C43EA0223E27C43EA0243C5F85A
:105328004C31627D237D43EA0223A5F85231E27DA8
:10533800A37D43EA0223A5F85431E27AA37A43EA2B
:105348000223A5F85031A37E85F85731E37E85F80E
:105358005831237E85F85631637E85F85A3139688D
:1053680011F05EFC05F1AA00064914F045FA38462A
:1053780014F0CAFCC4E60126C2E600BF0B073D00D4
:1053880000040400B96B01002DE9F04707680646E0
:105398000C46B87B11F0EDFB002800F0FE800E21D2
:1053A800B7F8AA00FBF7AAFE637890F8162105461D
:1053B80003F03F03934240F0DF8090F8F830012B70
:1053C80040F0DA8090F81731002B40F0D580316832
:1053D8006288CB88D31A1BB2002BB8BF5B429BB242
:1053E800B3F5804F80F0C880B0F83C31D21A13046E
:1053F80000F1C28063792279694842EA0322A379DD
:1054080042EA034202F18073A3F5FA7323F07F4363
:10541800834200F2B180207AE37943EA0023607A7C
:1054280043EA00439A4200F2A780D1F8C810994293
:1054380040F2A280D5F830118A42C0F09D80D5F89C
:105448003421934200F29880237CE17B607C41EA1E
:105458000321B4F80D20B5F8503141EA0041207B12
:10546800FFF788FD002800F087806389002B00F093
:105478008380A07C07287FD895F80C8195F856A1E1
:1054880041460BF059FD8146414650460BF054FD0C
:10549800814571D1B8FA88F8A07C4FEA581841467E
:1054A8000BF04AFD8146414650460BF045FD8145CB
:1054B80062D8E07C14F0B4FB01285DD1E17C0829B6
:1054C8005AD8227CE37B43EA0223627C43EA024304
:1054D800D5F84C2193424FD8B4F80D20B5F83A319D
:1054E8009A4249D3306811F0CFFB002853D0E278B4
:1054F8002846A37843EA02236279A5F83C31237948
:1055080043EA0223A27943EA0243227AC5F83031FA
:10551800E37943EA0223627A43EA0243C5F8343165
:10552800A27B637B43EA0223A5F83A31237B85F803
:105538003E31E27AA37A43EA0223A5F83831E37CC4
:1055480085F85731237D85F85831A37C85F8563185
:10555800227CE37B43EA0223627C43EA0243C5F8E8
:105568004C314123BB73316811F05AFB336800207A
:1055780083F84E01BDE8F0871E2133230022304610
:1055880087F89C1087F89D303523A7F84620BB7311
:10559800FFF76CF9EAE72021EFE70120EAE700BF0F
:1055A8000B073D0010B5044611F023FF08B9002091
:1055B80010BDE04311F01DFF0028F8D0E31683EA80
:1055C800A4635A1E1A42F2D0E3B25A1E13405A1E5E
:1055D8001342ECD0A0B214F038FB0B28E7D82046D1
:1055E80014F02FFB1828E2D8A3B2B3EB144F04D160
:1055F80084EA142313F0FF1FD9D0044B6340581ECC
:105608001840003818BF0120D2E700BFD6BE898EE7
:10561800F0B5070C164BA7F5AA4203EA9023543AB3
:10562800012A20D927F4004042F6AA22801A18BF7E
:105638000120002216211F24164687EA060562EA81
:105648000505013511D0DD0301394FEA5303ADB229
:1056580045EA56064FEAC4354FEA5404ADB245EA66
:105668005202EAD1F0BD0020E3E70020FAE700BFCC
:10567800E0FF3F0070B50D46BDF818400646BDF87E
:105688001410AC421046BDF810201BD8B5F5486F71
:1056980018D8844216D8B0F5486F8CBF002401246E
:1056A80096B91A4E367C96B19CB96FF4506C05EBDE
:1056B8000C06062E04D86FF450668619062E08D9F3
:1056C800204670BD0024EBE796F88160EBE7002CDC
:1056D800F6D0854217D803FB0111B1F5FA7F12DC29
:1056E800A2F10A0340F676449BB2A3420BD811F00C
:1056F80087FF42F2107341435A43B2EB410F8CBF0C
:1057080001240024DCE70024DAE700BF180D00209C
:10571800304BF0B5B0F86C700C461146DA88B0F82A
:105728006A6085B097421D8928BF1746964228BFF0
:1057380016461B2E2ED0B5F5A47F2DD040F6480373
:1057480001AA9D4228BF1D4611F077FFBDF80A3017
:10575800BB4228BF3B46E380BDF80C30AB4228BFB4
:105768002B462381BDF80630B34228BF33466380F9
:10577800BDF80830AB4228BF2B46A380FF23237017
:10578800E3881B3B9BB2E02B08D940F20951392032
:10579800FBF782F81B2FCED105B0F0BD63881B3B09
:1057A8009BB2E02B02D940F20B51F0E7238940F677
:1057B8004812A3F5A4739BB2934202D940F20D514B
:1057C800E5E7A388A3F5A4739BB29342E4D940F21A
:1057D8000F51DCE7180D0020F7B5002304460E46EC
:1057E8001746CDE900336846FBF7C2FC08B1002034
:1057F8001AE0009DA542F6D0304605F1AD0311F040
:10580800DFFE394695F8AC2013F000FB0028EAD0FB
:1058180005F1B40395F8B32004F1B40194F8B3008A
:1058280013F0F4FA0028DED003B0F0BD054A516A3F
:1058380002F11D03127F11F8030BC0F3801013F05F
:10584800E5BA00BF88120020012817D80D48824207
:1058580016D8012B0DD140F252739A4210D9A1F6F5
:10586800C410094B98420BD88A428CBF12200020E2
:105878007047042BF3D140F6C313EEE712207047AC
:10588800302070478FFD7002CBF3700210B50446CC
:105898000A480FF0A5FC0A492046FEF7FFF8204603
:1058A8000FF0CEFB38B12046FDF740FD20460FF043
:1058B80094FC002010BD1220FCE700BF500D002012
:1058C800580D00202DE9F04F994687B07F4B0446CC
:1058D8000DF110087E4D18680F461B791646049086
:1058E80088F8043095F86A3013B1404602F0C0F8E1
:1058F8003946204613F0EAFBAB69C4F8E83096F85D
:105908004A2006EB4202B2F82AA0504611F078FE6F
:1059180001466FF4506000238244BAF1060F7BD928
:10592800908C4FF0961284F82A31A4F8E430C4F829
:10593800E02040F2E24211F063FE03F023FB40F264
:10594800E243014604F1A80AA4F8F431C4F8C810E7
:10595800C4F8F011504614F0D7FE834601F084FBDA
:105968008306A97B53BF1B236B88AA881A46A4F811
:105978001231584BA4F814211B6884F8F010A4F8CD
:10598800F2B01BB194F92811384698472B7C03A82C
:105998000394003B18BF012384F8293111F027FD37
:1059A8004D4B1B681BB14D49B4F8AA009847012319
:1059B800A4F8DE304A4B1B681BB14A49B4F8AA0068
:1059C8009847494B1B681BB14849B4F8AA00984747
:1059D800474B1B6813B1B4F8AA009847454B1B689E
:1059E80013B1B4F8AA009847AB8804F1C0006A88DC
:1059F80069780333033201919BB2297892B20091FE
:105A080004F1C401FBF714FCD4F8C03083B940F6A4
:105A1800F4713920FAF740FF4FF04D12A4F8E43042
:105A28000123C4F8E02084F82A314FF47A7389E717
:105A3800D4F8C43013B940F6F571EAE711F0A0FDC7
:105A4800C4F8CC00B9F1000F05D002F0DDFA20F05F
:105A58007F40C4F8D40096F84A302046E96906EB3E
:105A68004306338EA4F8D030F38EA4F8D23014F065
:105A780048FE414604F1170013F098FB95F86A3088
:105A880013B9FF2384F83D32EB6E23B1012204F5EC
:105A98009771504698471849504613F03CF802F061
:105AA800B3FA0C23B0FBF3F202FB1300C0B2431DA0
:105AB800DBB2082B9CBF0D30C3B2204684F82330DC
:105AC80013F033FB07B0BDE8F08F00BF1A5604008F
:105AD800180D0020DC170020D4170020400D0020EE
:105AE800F0170020760D0020E4170020680D002034
:105AF800E8170020EC170020220D002010B5032124
:105B08000020FBF7FBFA044670B90321FBF7BAFA49
:105B1800044620B940F225313920FAF7BDFE034B7F
:105B280093F9701014F03FFD204610BD180D0020A9
:105B3800014B5888704700BF180D0020044BD87BD4
:105B4800C0F3400080F0010000F00100704700BF82
:105B5800180D002038B513F058F9002501F05EFD46
:105B6800214C01F099FA13F022FE03F03BF901F001
:105B78009FFF05F01FFE012001F032FA1B4B1C4A63
:105B880029461D604FF01B13A4F86850A58184F8BE
:105B98003650E573C4E900234FF4A4731022A360C0
:105BA8004FF479432361134B58681B89A06304F1B0
:105BB8004000A38715F083FE012342F2107204F11E
:105BC8005E0084F840306375C4E9112215F050FA7C
:105BD80004F1500015F072FA0022002384F8805076
:105BE800C4E91E2338BD00BF180D0020D0170020BF
:105BF80003021B0095D40300064B41F64C521B21AF
:105C08001A629973C3E9062241F288325A62FFF791
:105C1800A1BF00BF180D0020024B1B6803B1184735
:105C28000C207047D0170020014B93F97000704783
:105C3800180D0020034B5A8802801B7883700020BF
:105C4800704700BF180D002073B5837806461A2BDD
:105C580008D8042B04D9334A22FA03F3DB0705D406
:105C680012251AE0292B01D03B2BF9D13088B0F549
:105C7800706FF5D2694613F0F8F988B9009B93F86C
:105C88002C2102F0FF05C2B9B27883F82D21FF223A
:105C980083F82C21684611F05FFE284602B070BDDB
