:1000000040A2002039E901001544030025E9010060
:1000100025E9010025E9010025E9010025E90100A4
:1000200000000000000000000000000009EA0100DC
:1000300025E901000000000061EC010025E9010054
:1000400019ED010019ED010019ED010019ED010094
:1000500019ED010019ED010019ED010019ED010084
:1000600019ED010019ED010019ED010019ED010074
:1000700019ED010019ED010019ED010019ED010064
:1002500019ED01003F67030019ED010019ED0100E0
:1002600019ED010019ED01002967030019ED0100E6
:1002700019ED010019ED010019ED010019ED010062
:1002800019ED010019ED010019ED010019ED010052
:1002900019ED010019ED010019ED010019ED010042
:1002A00019ED010019ED010019ED010019ED010032
:1002B00019ED010019ED010019ED010019ED010022
:1002C00019ED010019ED010019ED010019ED010012
:1002D00019ED010019ED010019ED010019ED010002
:1002E00019ED010019ED010019ED010019ED0100F2
:1002F00019ED010019ED010019ED010019ED0100E2
:1003000019ED010019ED010019ED010019ED0100D1
:1003100019ED010019ED010019ED010019ED0100C1
:1003200019ED010019ED010019ED010019ED0100B1
:1003300019ED010019ED010019ED010019ED0100A1
:1003400019ED010019ED010019ED010019ED010091
:1003500019ED010019ED010019ED010019ED010081
:1003600019ED010019ED010019ED010019ED010071
:1003700019ED010019ED010019ED010019ED010061
:1003800019ED010019ED010019ED010019ED010051
:1003900019ED010019ED010019ED010019ED010041
:1003A00019ED010019ED010019ED010019ED010031
:1003B00019ED010019ED010019ED010019ED010021
:1003C00019ED010019ED010019ED010019ED010011
:1003D00019ED01005567030019ED010019ED010049
:1003E00019ED010019ED010019ED010019ED0100F1
:1003F00019ED010019ED010019ED010019ED0100E1
:1004000019ED010019ED010019ED010019ED0100D0
:1004100019ED010019ED010019ED010019ED0100C0
:1004200019ED010019ED010019ED010019ED0100B0
:1004300019ED010019ED010019ED010019ED0100A0
:1004400019ED010019ED010019ED010019ED010090
:1004500019ED010019ED010019ED010019ED010080
:1004600019ED010019ED010019ED010019ED010070
:1004700019ED010019ED010019ED010019ED010060
:1004800019ED010019ED010019ED010019ED010050
:1004900019ED010019ED010019ED010019ED010040
:1004A00019ED010019ED010019ED010019ED010030
:1004B00019ED010019ED010019ED010019ED010020
:0804C00019ED010019ED010026
:1004C800054B00221B78826001330260034A4260B8
:1004D800C371FF2303727047980900208001080048
:1004E800064A074B02604FF426729B7882800822E6
:1004F800C371002382710372704700BF5DAC0100B5
:1005080098090020084B094A1B7892F828201B02FA
:100518000749C27103F52E73016083800823837134
:10052800FF230372704700BFC40A00209809002007
:100538004B620100074A9378D2781344064A026056
:100548004FF4BA72C371FF2382800422037282714E
:10055800704700BF9809002061620100064A93783D
:10056800D2781344002282600260044A4260C37158
:10057800FF230372704700BF98090020700008002D
:10058800094991F829308A7803EB4303C978DB00DD
:100598000A4400211033C271816083800423016002
:1005A8008371FF23037270479809002008B504F08F
:1005B8009BF806F033FD05490D2000F083FC044943
:1005C8000E20BDE8084000F07DBC00BF0D0500000E
:1005D8003D0500002DE9F341C41D0028064624F01E
:1005E80007040CBF0020204600F07EFC071E04DA3A
:1005F8006FF00B0002B0BDE8F081374DE988A8889C
:1006080003316B7A03302A7A89B280B214F0E5FCA0
:100618000028EDDB3C44A978EB78002E04F10304B4
:10062800194424F0030400FB01F10CBF002020460C
:1006380000F008FE20440EB90028D9DBEA7A044607
:10064800B2B1EB7B697C13441944FF29D0D803303D
:10065800002EAA89C9B220F003040CBF002020464E
:1006680000F062FE0028C3DB04440EB9002CBFDB97
:10067800012000F02FFCB0B1A97BA1B195F82A3078
:1006880033B340234FF481720734002E24F007045B
:100698000CBF0020204603F023F90028A8DB0444FF
:1006A8000EB9002CA4DBAB7AFBB1EB7AB3B10734FB
:1006B800002EA97A24F007040CBF0020204608F079
:1006C8003FFC002894DB04447EB9002C0DDA8FE748
:1006D80025232822D8E700BF98090020012000F030
:1006E800F9FB10B1AB7B002BE1D1734B1B6893B1C5
:1006F800A97D81B10334002EEA7D24F003040CBFE8
:100708000020204698470028FFF672AF044416B927
:10071800002CFFF66DAF694B1B688BB1297C79B152
:100728000334002E24F003040CBF00202046984711
:100738000028FFF65DAF044416B9002CFFF658AF49
:100748005F4B1F68B7B1697CA1B10334002E2B7DC4
:1007580024F0030408BF0020009318BF2046EB7C58
:10076800AA7CB8470028FFF643AF044416B9002C0A
:10077800FFF63EAF072000F0ADFB98B1A97D89B127
:100788000334002E2A7E24F003040CBF00202046E8
:1007980000F0A0FE0028FFF62BAF044416B9002C89
:1007A800FFF626AFB6FA86F795F823007F09A0B1C1
:1007B80003346B7FA97E24F0070419443B4644F0B8
:1007C8000404C9B2224600F0C5FE0028FFF610AFA7
:1007D800044416B9002CFFF60BAF95F82410002935
:1007E8004CD004F10708002EEA8C28F007080CBF4B
:1007F8000020404614F005FC041EFFF6F9AE444400
:10080800002E3ED1002CFFF6F3AEA97F002945D07B
:1008180095F82230002B41D02A8C0734002E02F1A3
:10082800240224F007080CBF0020404692B214F0BE
:10083800E8FB0028FFF6DCAE404416B90028FFF6B6
:10084800D7AE03302B7FA97E20F0070019443B4622
:1008580040F0040495F82200C9B2224600F06CFE6C
:100868000028FFF6C5AE044486B9002CFFF6C0AEDA
:10087800EB6AF3B1C6B1EC620020BBE6002EC4D02F
:100888008846E98C40460DF053F9BEE72A8C40466D
:10089800A97F083292B20DF051F9E9E7002EE7D0AE
:1008A800002211461046F6E728343FF5A1AE20464F
:1008B800A0E6002EE0D1FAE7EC160020F0160020A2
:1008C800F41600201FB572B6194B1C6BECB9BFF3B8
:1008D8004F8F1849184BCA6802F4E0621343CB6083
:1008E800BFF34F8F00BFFDE7B2FBF6F22B465D1C4E
:1008F800002AF9D1DBB203F110056D4405F80C2C80
:100908000A2233B901A8A047E1E7024600230A26D4
:10091800EDE7013BDBB203F110050DEB0506B0FB7B
:10092800F2F502FB1500303006F80C0C2846E8E713
:100938009809002000ED00E00400FA0513B5124CF8
:1009480068462389ADF80030E388ADF80430A38801
:10095800ADF8023005F004FF18B1FA219C20FFF72A
:10096800B1FF207D05F052FF08B1FD21F6E7E07CDC
:1009780005F046FF08B1FE21F0E794F829000BF0D6
:1009880007F802B010BD00BF9809002070B50546F1
:10099800002855D013F0DEFA18B94FF0FF3420467E
:1009A80070BD12F047F8B0F5FA7FF6D8264C01264C
:1009B80025630025284684F83450257084F82A5089
:1009C800E5620CF0D5FB1A22294604F10F001BF052
:1009D800EBF91B2308210322A3802846E380022386
:1009E800A1721F216372E375F72322722384FB230C
:1009F800A2734922E3840A23A1812946E27484F878
:100A08002930A670E670E672A674267603F0AAFE70
:100A18002A463146304603F077FE044620B140F2BC
:100A2800B5319C20FFF74EFF014603F089FEEFF336
:100A3800108572B600F0B4FD002DB0D162B6AEE7F5
:100A48006FF01504ABE700BF9809002038B51446CD
:100A5800002840F0EE80784D95F83430032B00F0F4
:100A6800E58019B312B96FF0150038BD013917299F
:100A780000F2DF80DFE811F0180029002C004200A6
:100A88006C0075009400480078007B008E004E00D2
:100A98005400620067009A009D00AC00AF00B200ED
:100AA800A300B500B900D2001378AB700020FFF79F
:100AB80091FD0028B7BF012302236FF00B0085F8D2
:100AC8003430A8BF85F83430CFE71378EB70EDE702
:100AD8001379002BC7D05379002BC4D01288FB2A76
:100AE800C1D863881B3B9BB2E02BBCD81A2ABAD961
:100AF8002368A2886B60514B9A80D7E71378EA7B0A
:100B08009342B0D3EB72D1E71378EA7A9342AAD82A
:100B1800EB73CBE71378EA7A9342A4D86B74C5E7F2
:100B28001378002B9FD05378013BDBB2F82B9AD86F
:100B3800138892786B82424B9A70B7E71078687581
:100B48000AF076FDB2E71378002B8CD02B76ADE750
:100B5800012000F0BFF9237808B1012B83D9AB73CA
:100B6800A4E71388AB81A1E71378AB759EE707204C
:100B780000F0B0F918B92378012B7FF674AF07207D
:100B880000F0A8F918B12378002B3FF46CAF237854
:100B9800EB758BE71378082B3FF665AF2B7485E769
:100BA8001388FF2B3FF65FAFAB727FE713786B7646
:100BB8007CE713780E2B3FF656AFAB7676E72368C3
:100BC800204AC5F81E3063685360238913816DE796
:100BD8001378EB766AE713786B7767E713782B77E8
:100BE80064E7137885F8283060E703F087FD98B14B
:100BF800007900F001026178207803F085FD002873
:100C08007FF433AF6378012B7FF650AF0CF0EEFE24
:100C180000287FF44BAF26E70246ECE713785A1E0C
:100C2800092A3FF620AF85F829303FE74FF0FF301B
:100C38001BE76FF02C0018E7980900209C0900209A
:100C4800AA090020B6090020F8B50D46064630B3BB
:100C580029B311F0070422D1124F97F83430012B31
:100C680002D16FF00B00F8BD032B02D14FF0FF301B
:100C7800F9E700F0CDFC0028F8D02846FFF7AAFCD9
:100C88000028EEDB1AF09EFC3046F96A06F0E4F91B
:100C9800FFF754FE0323204687F83430E3E76FF06C
:100CA8001500E0E79809002010B5074C94F8343097
:100CB800032B03D106F0E8F907F05EF814F026FAE2
:100CC800002084F8340010BD9809002008B506F00B
:100CD80073F90549012000F0F5F804490020BDE842
:100CE800084000F0EFB800BFC9040000E9040000A4
:100CF80008B506F07FF905F0A5FD03490F20BDE80A
:100D0800084000F0DFB800BF6505000008B50449D9
:100D1800122000F0D7F8BDE8084005F0B3BD00BFC9
:100D280089050000074B4FF0FF3141F6FF72C3E918
:100D3800001205490022C1E900221F21C3E902125D
:100D4800704700BF60000020D00900203F280CD861
:100D580001380B4BC0F3421200F01F0053F8223049
:100D680023FA00F000F001007047FF2806D0403851
:100D7800044BC0F3421200F01F00EFE70120704758
:100D880060000020D0090020074B01460068496830
:100D98001A4603C240F48C2200201A6041F01072F7
:100DA80042F4FF625A607047600000200246034B1D
:100DB8000068516803C30020704700BFD0090020B5
:100DC8000246034B0068516803C30020704700BF08
:100DD800680000200138064BC0F3421200F01F00E3
:100DE80003EB82039B6823FA00F000F001007047D0
:100DF800600000200A8870B595B2C67CC2F30E0266
:100E08000488023602F118033444C35AA4B23344A6
:100E18002344013BB3FBF4F303FB0422438892B25F
:100E28009342044B8BBF2B40AB4313439BB20B80C5
:100E380070BD00BF0080FFFF4A1E062A08B50346A2
:100E4800084604D84FF4D1711520FFF73BFD094A35
:100E5800914202D940F2A311F6E711B903B1196022
:100E680008BD2BB11B680022C3E901211A1D1A60B5
:100E78000430F5E7FAFFFF7F10B5114B00EB410492
:100E88001A786389B3FBF2F303FB0223013A1A448D
:100E9800B2F5706F0279807828BF00231A440B18C6
:100EA800B2FBF0F100FB11215B1AB3FBF0F100FB80
:100EB800113313446FEA43436FEA5343638110BD10
:100EC800D8090020024B03EB80035960704700BF2C
:100ED800D8090020034B03EB80035868003818BF7B
:100EE80001207047D80900202DE9F04F10F0070ABB
:100EF80085B0054604D040F26F111720FFF7E2FCD9
:100F0800534F04464FF0010B07F15406B146B04663
:100F180057F8043B8DF80BA03BB101A898479DF802
:100F28000A30082B01D9F521E7E79DF80B1041BBE2
:100F380005B131604F4506F10406E9D1002D6FD0A7
:100F48000022DFF810911427964689F8002058F8F7
:100F580027A0013FBAF1000F55D09AF804609AF81B
:100F680002C0FF2E60D039460023481C38D19C446B
:100F7800BCF1FF0F3FD90AB189F800E04FF49A712C
:100F8800BBE79DF80AC04B1D60465A0004EB4303BB
:100F9800022838BF0220441E40422344BDF80840BE
:100FA8006444CCF1000C0340013C04EA0C04B4F5A1
:100FB800803F02D340F205119FE775B19A1A32605B
:100FC8009170148082F803B09DF80C00107101989C
:100FD8004FEA104C1081A2F806C004FB0134A9E7BF
:100FE80058F8210028B190F804B0B34504BF8078C0
:100FF8001B180139B9E7DBB2E6458AF804303CBF73
:101008005FFA8CFE01227B1CA1D10AB189F800E0AD
:10101800142640F6FF6A58F82670B7B9013EFAD28E
:10102800601B05B0BDE8F08F0023E5E707EB41033F
:1010380009F101093846A3F80AA0FFF71DFF5FFA76
:1010480089F1BB788B42F1D8E8E74FF00009F6E761
:10105800DC090020D809002038B54FF6FF73024696
:101068000380184B03EB8103986DA8B1847803794A
:10107800B3FBF4F104FB1133DBB2194600EB410575
:10108800B5F90A50002D0EDB0131B1FBF4F504FB74
:101098001511C9B28B42F1D1002038BD6381BDE87A
:1010A800384013F067BF00EB41046389C3F30E03B4
:1010B8001380C278002AF1D14FF4E5711720FFF7A9
:1010C80001FC00BFD80900201C4B03EB810370B55D
:1010D8009C6D054644B3030404D54FF4EC71172006
:1010E800FFF7F0FB0146204613F027FFFF280146D3
:1010F80004D02046BDE8704013F03CBFA078B5FB93
:10110800F0F300FB1353DBB219460A1D04EB420649
:10111800B6F90260002E09DB0131B1FBF0F200FBE9
:101128001211C9B28B42F0D1002070BD8B4201D0A0
:101138000023E37004EB42025580DAE7D809002067
:10114800094B03EB8103014610B59C6D204613F053
:10115800F4FEFF28014604D02046BDE8104013F0F5
:1011680009BF002010BD00BFD8090020F8B5104BFA
:10117800074603EB810301469C6D204613F0DDFE14
:10118800FF28054611D0E288238953EA024606D093
:101198000146204613F0EEFE01463846B047204689
:1011A8002946FFF769FE0020F8BD0520FCE700BFCF
:1011B800D809002038B50E4B0446827903EB820328
:1011C800986D08B9052038BD8278E1799142F9D245
:1011D8004B1CE37100EB41035D89B3F90A30002B26
:1011E800F3DBA58013F0C6FE20600020EBE700BF0C
:1011F800D809002008B5124B03EB81039A6D22B978
:1012080040F246211720FFF75DFB9178831A481DAD
:10121800A3EB40031088B3FBF0F3002B01DB9942EA
:1012280002DC40F24921EDE702EB4302B2F90A3051
:101238005089002B02DA40F24B21E3E708BD00BFDA
:10124800D809002070B5044610F003000E4603D0FC
:101258004E211820FFF736FBFFF7EEFD054624B1B7
:10126800034831460460FFF7E7FD284670BD00BF1C
:10127800840A00202DE9F14FDFF870B01E460746BA
:101288000D46DBF8003090469DF828A09DF82C907C
:101298001BB960211820FFF715FB5246092140466B
:1012A80013F0CFFC4A4684B20921304613F0C9FC3A
:1012B80081B2DBF80000214413F013FE386018B93E
:1012C800286001B0BDE8F08F044453464146092226
:1012D8002C60386813F078FC4B46092231462868A0
:1012E80001B0BDE8F04F13F06FBC00BF840A0020C6
:1012F80070B50E46044613F0B7FC0546304613F0A9
:10130800B3FC044B2A1821461868BDE8704013F056
:101318000DBE00BF840A0020024B186808B113F004
:10132800D4BD7047840A00201F2AF8B50446134626
:101338000ED89200033222F00303B3F5803F2DD27A
:10134800184DACB1A00710D068210920FFF7BAFAF0
:10135800FF2B4FEA420204D9FF339A42A8BF1A462C
:10136800E8E77C2AB8BF7C22E4E729706C602B810F
:1013780022F0030228230127120403FB01F06B6803
:101388000025120CEEB2B14200D8F8BD14B12618EF
:101398001F705E60104401352833F3E74FF0FF30CB
:1013A800F3E700BF880A0020154A002170B553688A
:1013B8001578C8B2854203D8BA210920FFF782FA06
:1013C8001C461846013114F8286B0EB92346F0E77D
:1013D8000021997001241289996103F126055C7036
:1013E8009208D96103F11E04596824F8022FA54216
:1013F80043F8041F1144F8D100234361037070BD02
:10140800880A00204B782DE9F04106460C4602F088
:10141800040702F0FB05E3B1A5BBFF23A3707B081B
:1014280004EB57073A7D032A02D1022D18BF013376
:10143800E2180121117503F10C01002204EB83036A
:1014480024F811205B68A27030463360B280BDE892
:10145800F081002DE1D1012301F11E028D612046AA
:101468004B7004F1260C1A4BCD611B8949689B0807
:1014780022F8023F944540F8041F1944F8D100238C
:101488006361CAE7D1F8048014220021A0186170B2
:101498001AF08AFC0E4B1B89B3F5FF7F0FD25A084E
:1014A8009B1A9BB208EB0301C4F804802384A16053
:1014B8006284C4F80C80A3842161E284ADE7B3F5AB
:1014C800EE6F4FF0FF02EBD940F27263EAE700BF1C
:1014D800880A00202DE9F84305460C46F720052127
:1014E800914613F0AEFB061E21DB1DB906FB04F086
:1014F800BDE8F88315F0030703D098211920FFF7FA
:10150800E1F9DFF83080C8F81050A8F81460BBB2D1
:101518009C42EBD9B8F814504B46D8F81000052275
:10152800F72107FB0500013713F04EFBEFE74FF0FB
:10153800FF30DDE79C0A002007B5CDE900230B4604
:1015480003490246081D13F0BBFD03B05DF804FB18
:10155800B40A002013B5064CCDE900230B46024619
:1015680004F1080104F10C0013F0AAFD02B010BD4B
:10157800B40A002008B54B1E032B03D92321902061
:10158800FFF7A0F90028054A0CBF05230C2303EB3D
:101598008103053323F00103137008BDC40A00203A
:1015A800124B01224FF0FF3000215A60C3F80803A4
:1015B800C3F80015C3F804255A6040F6FE72C3F854
:1015C80008034FF48060C3F8001503F56033084939
:1015D800C3F80825C1F88800BFF34F8FBFF36F8F9A
:1015E800C1F88801C3F80825704700BF00A004505F
:1015F80000E100E002680020014B1A60704700BF5C
:10160800C80A0020014B1B68184700BFC80A002001
:10161800024B1868003818BF01207047C80A00201C
:101628000A4606489C2302F8033BC368C1F8033006
:101638000369536043699360704700BFCC0A002078
:10164800024B5A8C02435A845B6A1847CC0A002022
:10165800014B00215B6A1847CC0A002010B5154CD5
:101668000BF01CFA0BF046FD208DFFF7F1FF237EEF
:1016780063B12246104904F1190052F80C3BE360AB
:1016880063685360A368936018F085FA218DE06A57
:1016980007F0ACFDE36AB3F8AA0007F0EBFB636B55
:1016A80094F8301094F831009847002384F83830C3
:1016B80010BD00BFCC0A002029160000034B93F888
:1016C80038300BB1FFF7CABF704700BFCC0A002003
:1016D8002DE9F041DFF8808005460E4608F12C0020
:1016E80016F037F8044618B101242046BDE8F08109
:1016F800D8F82C3093F8A8704FB1012D07D1B8F85D
:1017080022301A0703D598F83930002BECD1012E76
:10171800EAD8D8F83C30284698470028E4D098F80A
:101728003030002BE0D167B9012DDED1B8F8223076
:10173800002BD9D198F84030002BD6D198F84140E9
:1017480007E0002DD1D1B8F822309B07EED598F8E4
:10175800394084F00104C8E7CC0A002070B5204C59
:101768000646636DE56A63644FF4817394F8580024
:10177800A4F848302B7D95F8211100EB83002EB991
:10178800FF2803D195F820318B4201D00AF02CFEB6
:101798002B7DFBB1E06D0BF0A9F8E16D606C0BF0EF
:1017A8002FFC66B995F82131033B012BB5F8E430DD
:1017B8008CBF00202820184480B20BF0FBF8B5F845
:1017C800E0000AF0D1FD00200BF032F9022384F882
:1017D800383070BD606C0BF089F80BF08BFCE0E7DB
:1017E800CC0A002008B5094B93F83820022A04D007
:1017F80040F257312720FFF765F8DA7A42F0010204
:10180800DA72BDE80840FFF729BF00BFCC0A002004
:1018180010B590F86A1086B0D1B9C2880B46059108
:101828000021CDE903110C4991F85840029400F1C8
:1018380090040194C96A91F8A810003918BF0121D1
:10184800009100F1800102200BF0EAFA06B010BD09
:10185800D0E91E23E3E700BFCC0A00202DE9F041C0
:10186800274C06460F4694F83830012B5FFA83F868
:1018780004D040F60C112720FFF724F8E56A2B79ED
:1018880053B1002104202971FFF7DAFEE36A93F8C7
:10189800A8300BB185F8058094F860308BB92B7AA5
:1018A800052B0ED117490220FFF7CAFEE36A93F809
:1018B800A83033B1E36E1B789A1E5342534184F823
:1018C80039301EB1BDE8F041FFF7C8BE002FF9D08E
:1018D80031463046FFF7FCFE0028F3D12B7DE46A41
:1018E80013B12846FFF794FF94F821210120B4F89A
:1018F800E21019F08FFE0020BDE8F041FFF72EBF7F
:10190800CC0A0020380B00207FB590F86A10D1B9B6
:10191800C2880B4605910021CDE90311FB210291F4
:1019280000F1900101910949C96A91F8A810B1FA2A
:1019380081F14909009100F1800104200BF070FA4F
:1019480007B05DF804FBD0E91C23E3E7CC0A0020CC
:101958001E4A10B5546E41782378C90003F0F3038A
:1019680001F008010B438178890001F004010B4361
:10197800C178090103F0EC0301F010010B43017871
:1019880001F003010B432370B2F870306370022337
:10199800516EA2F8683004790B786001012C23F0AD
:1019A800200300F0200043EA00030B700CD1D36A37
:1019B80093F8BA2093F8BB30032A03F01F0308BF3B
:1019C800002243EA82138B7010BD00BFCC0A0020AE
:1019D800F7B5184C0646656F0DB1E36C23B940F6B0
:1019E800C4012720FEF76EFFB4F8503001F0030160
:1019F8002F466B702B7823F003030B4307F8033B48
:101A08003846B4F85020E16C12F00EFC0DF10202D9
:101A180001A9A06F6564E76413F04DFA019813F00B
:101A280038FA0122B4F850103060A06F13F0DCF9D6
:101A380003B0F0BDCC0A00202DE9F04FAC4C87B0C4
:101A4800D4F82C8098F8201158B998F8142094F8F4
:101A5800583003EB8203FF2B03D198F821318B42D6
:101A680002D0FF200AF0C0FC002304AA02A9A14862
:101A780004938DF8143084F8603001AB15F060FEE3
:101A88000746002845D0029ABDF8043022B940F232
:101A980013412720FEF716FF6266A4F8703003B1E1
:101AA800D31CE366012384F860309DF8133004A842
:101AB800003B18BF012384F8403098F81330002BFE
:101AC80000F01C81B4F87030002B00F01781FFF78C
:101AD8003FFFE06D0AF00AFF9DF81420E16D003A1F
:101AE800606E18BF01220BF0A1F818B9616EE06DA5
:101AF8000BF010FAB8F8E2000AF036FC01200AF000
:101B080097FF012384F8883084F8383007B0BDE89F
:101B1800F08FE66A8DF80300337AADF80600062BDD
:101B280000F2CA80DFE803F004CBA1A1C8B8B8006E
:101B380094F87F300DF1060103A8A6F81031ADF82E
:101B4800063005F047FC38B1039D2DB1012384F818
:101B58008030052333729CE0E36A93F85130002B00
:101B68006BD10DF103020DF10601D4F8840013F0D6
:101B7800A2F80546002860D09DF80370FFB1014621
:101B8800D4F8840013F081F913F083F9D0F800B089
:101B9800D0F804A081465BEA0A0348D1002389F8FB
:101BA800003089F8013089F8023089F8033089F863
:101BB800043089F8053089F8063089F80730BDF80F
:101BC8000630002B40D1012333720123002784F80B
:101BD8008030BDF806306566A4F8703003B1EB1CA0
:101BE800E366727A357A8DF81120022DB27A8DF873
:101BF800122004D0053D012D8CBF012503258DF849
:101C08001050002F5ED000209DF810308DF8130082
:101C1800032B6BD1E36E1B781B2B67D1012106F1D7
:101C2800BA000AF029FC01238DF814303DE719F0B9
:101C3800EBFE83457AEB0101B0D2002301222E4D41
:101C4800ADF806303272C6E79DF803301BB92B8019
:101C5800AB700323B8E72B7803F00303012BF8D00C
:101C6800022333720023B375AFE7B6F810310DF1D4
:101C780003020DF10601D4F88400ADF8063013F024
:101C88001AF8054610B940F2C35102E7012384F857
:101C98008030BDF806309EE70DF1060103A805F077
:101CA80099FB08B1039D15B940F2D251F1E6012321
:101CB80084F8803006234DE740F2DC51E9E60E4D0A
:101CC800002388E7032D02D11B78022B9BD0D4F880
:101CD800840013F048F838B9032D94D005F096FB2A
:101CE80080F00100C0B28FE701208DE700239BE759
:101CF800CC0A0020F80A0020480B0020FFF728FE35
:101D0800606E0AF0F3FD0BF0F5F99DF81410606EA3
:101D1800003918BF012119F089FCEBE62DE9F04FD5
:101D2800B04C87B00027804694F83830E56A022B1B
:101D3800019105F1A80ACDE9027704D040F6AD116A
:101D48002720FEF7BFFD616C03200B784A78014419
:101D5800A4F84800E16403EA0001A4F850208DF8D3
:101D68001010C3F3C0018DF81110C3F380018DF872
:101D78001210C3F30011C3F340138DF813108DF83C
:101D88001430B8F1000F00F00C8104A904F12C0004
:101D980015F0D8FC064630B9B4F8501009B3A06F56
:101DA80013F002F80746238D9DF8121043F40073D0
:101DB800676723856B7A0133DAB203F0010399422E
:101DC8004AD12B7A33B3032B6A720CD8012B21D05A
:101DD80002A9D4F8840012F090FFA0B940F2D4719F
:101DE800AEE70746DFE7053B012B02D940F2B371A6
:101DF800A6E705F0FDFA10B940F2DE71A0E7002170
:101E08000820FFF71DFCD5E91C32013342F100021E
:101E1800C5E91C320021E36A297293F8A8302BB176
:101E28006B791BB110206971FFF70AFC238D4FF005
:101E3800000B43F4006323852B7DDBB1B4F85030ED
:101E4800C3B10BF075F90328FBD0022806D1FFF7C0
:101E580005FC07B0BDE8F08FC346EDE750B9AB7A93
:101E68009DF8112003F001039A4203D1012384F85D
:101E78003130ECE7B4F85070E6B19DF81330591ED4
:101E88004B424B4184F84130002F40F0B780002787
:101E9800B946019B002B00F0B8800AF0FFFDB9F1AC
:101EA800000F00F01E819DF8101003A8FFF790FDA9
:101EB8000127C9E0AB7A9DF8112003F001039A428B
:101EC80023D19DF810307FB35A1E012A2CD8238DB8
:101ED80095F8149043F4805323850AF05BFA03289D
:101EE80094F8893007D1B9F1000F0CBF1F221B22CB
:101EF800934228BF1346B4F850209A4208D994F860
:101F0800303043F0100384F830304FF000091EE001
:101F1800636F002BF9D094F88A301BB12020FFF7AB
:101F280097FBF2E79DF81030AA7A032B02F1010221
:101F3800AA722CD05A1E012A1DD8002FE5D0C146FE
:101F4800D5E91E32013342F10002C5E91E32626F43
:101F58009DF81310002A56D1B4F85020B2FA82F234
:101F68005209012914BF002202F001023746002657
:101F780084F841208DE7002FC7D0002BC5D1D5E9C3
:101F88001E32013342F10002C5E91E32BDE7238D3E
:101F98000120154943F4805328712385FFF750FB2E
:101FA800EDE72B7D0BB10BF0DDF894F88B300133A6
:101FB80084F88B30238D43F48063238595F8213191
:101FC800033B012B12D80AF0E5F9032812D1B4F823
:101FD80050604FF000091B2ECB4694BF0026012607
:101FE800B5E700BFCC0A0020180B002006F032F835
:101FF8000028E8D10026B146B346A8E7238D43F46C
:102008008053238543E70122ABE794F88B10012026
:10201800FFF75EFB00287FF440AFEA7C12B1284648
:10202800FFF772FC002095F82021B5F8E01019F0B0
:10203800F1FA0020FFF700FDB9F1000F5AD09DF822
:10204800101003A8FFF7C4FC238D5A0606D44020BD
:10205800FFF7FEFA238D43F040032385BBF1000F01
:1020680010D0EB884BB9E36A93F8A8302BB1B4F8D9
:102078000530B4F80720134304D0B4F8093001330D
:10208800A4F80930B8F1000F3CD0B4F8053001339A
:10209800A4F80530002384F88B301D4806F04EFE66
:1020A800029830B112F0F5FE00220272514605F096
:1020B8007DFF039B33B100221A720C22514603980C
:1020C80005F042FF002F7FF4C2AE238D1B063FF5BB
:1020D800C0AE8020FFF7BCFA238D43F08003238530
:1020E800B7E6002E3FF4E4AE0A49A1F1200015F04E
:1020F8002BFBDDE6002EA7D00649A1F1200015F044
:1021080023FBA1E7B4F807300133A4F80730C4E78C
:10211800F80A0020180B0020064B10B593F8382059
:1021280002F0FF0422B91C7607F058F8204610BDCB
:102138000C24FBE7CC0A0020094B0A4A10B51A60A8
:10214800FFF7EAFF20B14FF4B1712720FEF7BAFB81
:10215800054C04F0B5FF606504F0B6FFE06510BDFE
:10216800F816002068230000CC0A0020F8B5794C46
:10217800054694F8386006F0FF0016B909B102B1B7
:1021880023B94FF420712720FEF79CFB63639DF869
:102198001830616284F88A30E26384F8300084F889
:1021A8008B0084F8310084F888006084208584F8E6
:1021B800400084F8410084F8800084F839006066A3
:1021C800E066A4F870006064E064A4F85000E5627A
:1021D8000AF074F90AF08EFF95F928010AF0D2F98D
:1021E800D5F8D460D5F8CC000AF0D2F930460AF018
:1021F80061FB95F825000AF0D5F9B5F8E030622BB7
:1022080003D9B5F8E230622B01D80AF0B3F8E36AD3
:1022180093F8A860002E40F0858018F0A0FA95F891
:1022280020214D4B4FF47A7153F8223003F5FA739D
:10223800B3FBF1F35233191830460AF029FA474B29
:1022480018680AF03DFBD5F8C030C4F88430D5F8DA
:10225800C430A367AB7B243B072B6BD9EB7B243BB8
:10226800072B67D9B5F8F230B5F8F80095F82011C2
:10227800984228BF1846042908BF032117F05BF8C5
:10228800034695F8F400984228BF184695F8F030B0
:1022980080B2984200D3C3B295F8211105F1E80045
:1022A80084F87F3017F026FD95F821112F7D03293A
:1022B800B5F8FC6008BF042117F03DF80FB90430E9
:1022C80080B2864228BF0646F6B284F8896005F0D7
:1022D800C1FE28B105F0C4FE864238BF0646F6B2F4
:1022E80084F8586015F033FAE36A93F8A8301BBBFA
:1022F800EB7C13B12846FFF707FB0120FFF79CFB97
:10230800002323606360A360EB886380B5F8AA307C
:10231800238095F825302371D5F824310BB101229B
:102328001A60F8BD18F01BFA95F8212100F1710127
:10233800012082E71B23AFE72B7D13B12846FFF767
:1023480067FA0120FFF70AFAE36AD3F8F0010AF006
:10235800FFFAD5E7CC0A0020449D0300F8160020B8
:10236800ED170000251D000065180000C5160000C7
:102378000D4B0321186830B50D4690F8A52090F84C
:1023880049400132B2FBF5F303EB4303D31ADAB247
:1023980044FA03F3DB0703D4013911F0FF01F0D14C
:1023A80080F8A52030BD00BF580B0020014B1868ED
:1023B80012F06DBF580B002008B509F0A1FA014BC7
:1023C800187008BD70000020064B10B41C68827C91
:1023D800836804F1420194F841005DF8044B16F05B
:1023E800E1BE00BF580B0020024B18686C3001F0AA
:1023F800DFBA00BF580B002038B50F4CFFF7F4FFC9
:10240800656801F08FFA63682860186820B940F29F
:10241800F5413220FEF756FA13F006F910B940F2EA
:10242800F741F6E70AF062FA00200AF0C3FA636897
:1024380004221A7138BD00BF580B002038B5194D59
:1024480004466B681B79022B04D940F6FC01322044
:10245800FEF738FA2B68027C83F8A4201A44C16876
:10246800996692F87C2183F878214268C3F888201D
:10247800037A022B0ED00AF021F80AF0BFFA09F00D
:10248800CDFB09480AF01CFA08480AF013FA084874
:102498000AF07EF8637C23B12B685B6E0BB10122D6
:1024A8001A6038BD580B0020EC3300005555550014
:1024B800D6BE898E2DE9F341494D002307460E46C5
:1024C8002C686372236DB3F8AA2093F82911D3F806
:1024D800C800628116F081FF2B6820841A6DB2F85B
:1024E800D010B2F8D22059849A844FF47F42DA840B
:1024F8004FF6FF721A8517B30121304617F043F9DA
:1025080033780146D8092C6894F8483004F114024D
:10251800FBB112F0FFFDE0B10B6863618B88287B8B
:10252800938004F10E0208284BD004F10D0105F048
:10253800E1F988B941F213413220FEF7C3F969463F
:10254800A86817F0A2F8AB6869461878C0F380103D
:10255800D9E700236361E2E72C68637B04F11A087A
:1025680043F0020363734FB30021304617F00BF9B1
:102578000368C4F81A308388A8F804302B68186DEB
:1025880093F95810A83005F0B3FA2868154917F0E0
:10259800F9FA28681449036D2A30B3F8AA20A0F87C
:1025A8000920DB7DC37217F0F6FA0221286801F0D2
:1025B800F3FCFFF719FF02B0BDE8F08104F17800E1
:1025C800D6E794F87E306373A36FC4F80E30B4F87E
:1025D8007C3093800023C4F81A30E383CEE700BF31
:1025E800580B0020795101003551010008B5074BFF
:1025F80093F900207F2A04D140F29B313220FEF764
:1026080061F902707F221A7008BD00BF70000020B7
:1026180010B504788EB004F00F0404A9224613F014
:102628002AF8FFF7C9FE042C33D11B4C059A2368FE
:10263800107893F8781088422BD1507893F8791055
:10264800884226D1907893F87A10884221D1D078A0
:1026580093F87B1088421CD1107993F87C1088423B
:1026680017D1517993F87D20914212D19DF82120FC
:1026780093F87E309A420CD10DF10F00FFF7B6FFA8
:102688009DF90F3004A90093237C227B606812F027
:10269800DDFF03200EB010BD580B00200D4A536813
:1026A80010B51979022904D841F2BC413220FEF74D
:1026B80009F91979082902D941F2BD41F6E71B79D0
:1026C800526903F180439268033BBDE8104052F819
:1026D80023301847580B002010B5054C637B2BB1ED
:1026E8000AF08CF909F09AFA0023637310BD00BF51
:1026F800580B002010B5054C23792BB10AF07EF950
:1027080009F08CFA0023237110BD00BF901200203D
:1027180010B5094CFFF7E0FF012263681A71002326
:102728002268A2F8793182F87B31FFF75DFE2068D4
:10273800BDE8104013F031BB580B002008B5FFF777
:10274800CBFF044B00209968FFF7B4FEBDE80840B2
:10275800FFF72CBE580B0020062938B51D469DF8FA
:10276800104019D908291BD802B18CB143689BB90C
:1027780012B94378DB0615D40B4B5B68186812F066
:1027880074FF00B134B92DB904F0E4FF00F001047E
:10279800204638BD0120F9E79DF814402C43F7E79F
:1027A8000024F5E70124F3E7580B002038B50D1E87
:1027B80004460CBF05200320104405F0E1F8094B3E
:1027C800587370B15DB9033C012C8CBF502455245B
:1027D80009F0FEF92046BDE838400AF003B9402464
:1027E800F6E738BD580B0020F8B53D4CFFF7FCFD67
:1027F800656801F097F863682860186820B940F2A6
:1028080052413220FEF75EF812F00EFF054610B96D
:1028180040F25441F5E7236893F8A6306BB123687A
:102828001A6D93F8A710C3F8102193F854200A439F
:1028380083F85420002283F8A620206890F8A4305A
:10284800034493F87C71636880F878711A7952B1FF
:102858001B79012B07D0002113F0E8F818B9BDE85F
:10286800F840FFF755BF23681E4A93F8A530D05C9F
:1028780009F098FE236893F8A420134493F87C6128
:10288800022E2BD004D8012E05D040F2F771B8E7FC
:10289800F31E012BF9D801F03FF8314609F0A4FDE9
:1028A80028460AF023F83146012009F089FE7B1EEC
:1028B8002A46384659425941FFF778FF626808218D
:1028C8000023517121732168D3801372E37381F857
:1028D8009530A373237403231371F8BD0D20DCE72F
:1028E800580B00205B9A0300124A10B5536800B9D0
:1028F80031B9184601F0AEF8BDE81040FFF708BF3F
:102908001979082904D841F28C413220FDF7DAFF01
:1029180019790C2902D941F28D41F6E71B795269E0
:1029280003F180435268093BBDE8104052F8233058
:10293800184700BF580B0020054B1A6892F854201E
:10294800920703D05B68186801F016B8986870475A
:10295800580B002070B5304D06466B681A79032A6B
:102968000BD01A79042A08D0FFF7E6FF044640B9CD
:1029780041F2C4313220FDF7A5FF186812F054FE69
:10298800F4E72B6893F8543013B941F2CA31F1E7F0
:1029980076B116F070FF30B16B681A79022A0ED83A
:1029A80041F24A31E6E7204616F080FF0028F3D1CD
:1029B8006B681A79022A17D841F2AA31DAE71A792C
:1029C800082A02D941F24B31D4E71B7920466A69BB
:1029D80003F180431269033B52F8233098470C28CF
:1029E80012D941F2DD31C5E71A79082A02D941F234
:1029F800AB31BFE71B796A6903F180435269033B36
:102A080052F823309847EAE76B69DB68BDE8704005
:102A180053F82030184700BF580B002007292DE92C
:102A2800F043064687B00F4690464568634C23D16D
:102A38001DBB002A49D1D4E9001091F8543013F095
:102A4800030218BF012213F00403827103D0337804
:102A58005A1E53425341C37191F894304BB12368C5
:102A6800D3F89000503017F003FE10B963680122C4
:102A78001A7207B0BDE8F0833DB32946707C12F0A6
:102A880049FB072F814661D1637B63B158B1B8F127
:102A9800000F52D0656816F0C9FB636868715B79EE
:102AA80023730123A37363685879082855D1716883
:102AB800707C17F0D3FD6268054671680532707C3A
:102AC80004F04EFE6368002859D0236893F8540038
:102AD80010F003000AD093F84A3039460195304681
:102AE8006268927900924246FFF736FE6268236870
:102AF800907193F8540010F0040009D093F84B300B
:102B0800394601953046D27900924246FFF724FEB5
:102B18002B4B65681B68E8711BB1414630469847E6
:102B2800287272686AB3717C236883F87E10116812
:102B380099679288A3F87C2023E0236893F878119A
:102B48000129A7D1284604F0EDFE6073637B002BB2
:102B5800A9D0B9F1000FA6D09CE704AA0DF10F0186
:102B680004F0C8FE20B940F6A5313220FDF7AAFED0
:102B780004A99DF80F0017F071FD0546A5E7D88058
:102B880018726268137AB3B9D388003B18BF01235F
:102B9800B06800283FF46DAF072F7FF46AAF517912
:102BA80008293FF466AF002B3FF463AF04F0D8FE6A
:102BB8000123E3735DE70123EAE700BF580B002018
:102BC800FC1600202DE9F04F044689B0062900F2D2
:102BD800C580DFE811F06000E7000700C300C3000C
:102BE800C30026006E4D09F067FD2F6897F8543032
:102BF800980714D06E68B3798BB10DF11F00FFF7F9
:102C0800F5FC9DF91F3002222146029330462B7BAA
:102C18000193FF23009307F1420312F007FD0320FD
:102C28001FE05F4D6E68B379002B00F097802F6826
:102C380097F85420910717D50DF11F00FFF7D6FC20
:102C48009DF91F3030460622029321462B7B0193C3
:102C5800FF23009307F1420312F0E8FC0023092048
:102C68002B7409B0BDE8F08FD30777D5570701D586
:102C780009F022FD0DF11F00FFF7B8FC9DF91F2098
:102C88002B6802922A7B42330192FF22009206228D
:102C980021466868C1E7424D2B6893F854205607CF
:102CA80037D56968CA79002A33D0426893F85B003F
:102CB8001678864255D1567893F85C00864250D1F2
:102CC800967893F85D0086424BD1D67893F85E00EB
:102CD800864246D1167993F85F00864241D15079F1
:102CE80093F8602090423CD1627C93F85A00101A05
:102CF8004242424193F8560001284ED0002A4CD156
:102D080093F84C30082B02D04A799A4245D009F002
:102D1800D3FC6E68B379002B3DD02F6897F8542008
:102D2800930720D50DF11F00FFF760FC9DF91F30B8
:102D380030460022029321462B7B0193FF23009308
:102D480007F1420312F072FC012309202B746B680F
:102D5800DA79002A85D19B79002B82D109F0ACFC65
:102D68005DE70022C6E7D60715D5500701D509F05B
:102D7800A3FC0DF11F00FFF739FC9DF91F202B68FC
:102D8800214602922A7B42330192FF2200920022BE
:102D9800686812F04BFC0320D9E70A20D7E700BF88
:102DA800580B0020644D81682A68807C12F0B2F9C3
:102DB80092F854306E68074692F84890590796F88A
:102DC80006A096F807B089F0010940F18E8092F8C4
:102DD8004B30002B00F0898092F84C60082E00F0F0
:102DE8008680304604F09AFC49EA00005FFA80F9D0
:102DF800002F7ED03046A16804F008FE06462B68F6
:102E080093F8542093F84180520749D5626893F8A3
:102E18005B10107888426ED1507893F85C10884225
:102E280069D1907893F85D10884264D1D07893F88E
:102E38005E1088425FD1107993F85F1088425AD1AA
:102E4800517993F86020914255D1627C93F85A10D9
:102E5800501A424242416968497908294DD093F88D
:102E68004C30591A4B424B41002E48D1B9F1000F52
:102E780047D02046CDE90423FFF7A6FADDE904236D
:102E8800BBF1000F0AD0296891F8561001294ED0DD
:102E980021B9002A4BD108B1002B4AD109F00CFC0A
:102EA8002B6893F854309B073FF4B9AE09F004FC43
:102EB800BAF1000F3FF4B3AE2046FFF785FAD5F814
:102EC800009000B9FEB10DF11F0048EA4608FFF76F
:102ED8008DFB9DF91F3002932B7B01935FFA88F3DA
:102EE8000093012209F14203D2E6767976E70026BB
:102EF80085E73E4683E70022ADE70023B4E70120DB
:102F0800BEE73046BCE799F85530023B012B3FF647
:102F180086AE002F3FF483AE0DF11F00FFF766FB6E
:102F28009DF91F3002932B7B0193FE23D8E70028DD
:102F3800B4D00A2095E600BF580B002030B58BB0FE
:102F48000546FFF739FA114B1B6893F8543013F014
:102F5800060F04D001229621002018F05BFB2C7884
:102F68006946284604F00F04224612F084FB00222A
:102F780021466846FFF752FD21466846FFF722FEC4
:102F88000446FFF7A9FB20460BB030BD580B0020C4
:102F980038B5154D2C6894F84830F3B16FF00043FC
:102FA800D4E920129A4208BFB1F1FF3F15D018F0BA
:102FB8007EFCD4E92023904299410ED32B6893F8E4
:102FC80048305BB92D6804F08FFC044618F06FFC9C
:102FD800064BE4FB0301C5E9200138BD012004F0DC
:102FE800E1FC0028F9D0EDE7580B002040420F0023
:102FF80010B50446FFF722FA237A032B04D140F6D2
:103008002E113220FDF75EFC0BB9FFF7B1F9064B24
:103018001B6893F9580009F0B5FAFFF7E5FBBDE81E
:103028001040FFF7B5BF00BF580B00202DE9F8434B
:103038006A4D002307468946A868D5F800800370C2
:10304800437009F06FFC064630B90026032004F0EF
:103058009BFF3046BDE8F883AC68032F237833D153
:1030680023F00F0343F0030323700C236370D8F895
:103078007830A868C0F80930B8F87C30A0F80D306E
:1030880098F87E1016F011FB0021A86818F0CEFA07
:103098002B6893F8482003F1420993F84180002AED
:1030A80077D14C4623684146A868C0F80330A38806
:1030B800A0F8073016F0F0FA494BD3F80C32002B81
:1030C8007CD009F0F9FAC0E723F02F03222243EA63
:1030D8004913627043F0050323702B681A6DD2F808
:1030E800CC20C4F80F201A6DD2F8D430190AE37432
:1030F8001B0C2175637592F82A11B2F8DC3000298F
:1031080041D06420B3FBF0F3A375D2F8D83000297E
:103118003CD06421B3FBF1F3E375C3F307232376B3
:1031280092F82911D2F8C80016F057F92968607684
:10313800000AA0760B6DAC68B3F8D020E276120ACC
:103148002277B3F8D2206277120AA2779A69C4F874
:103158001F201B7F94F8242084F823300B6D22F065
:103168001F0293F8233003F01F03134384F824301D
:1031780004F036F894F8243003F01F0343EA4013B0
:1031880084F8243073E740F2E240BBE740F2E241C2
:10319800C0E793F8542052070DD593F84B2052B14D
:1031A80093F84C0004F06CFC044600283FF479AF17
:1031B8004FF0010876E76B685879F3E7052F7FF43D
:1031C80048AF2B6821681A6DC2F8B410A188A2F81C
:1031D800B8101B6D83F8B3803BE700BF580B002085
:1031E80000A0085010B500210320FFF71FFF18B9F1
:1031F800BDE81040FFF78CBA074C0321206812F095
:1032080015FC0028F4D00121084609F02BFC63685E
:1032180009221A7110BD00BF580B002070B5164C5A
:103228006368186812F000FA064620B940F2615146
:103238003220FDF747FB63680A22002120681A71D3
:1032480000F0AAFE236805201B6DDD7D3378C3F3EB
:1032580040131D402946FFF7E9FE18B9BDE8704044
:10326800FFF756BA0421206812F0E0FB0028F5D0D9
:1032780023681B6DDD7570BD580B0020036D10B5FC
:10328800044623B940F261313220FDF71BFB0222CC
:1032980007494272B3F8AA304381FF2380F82730E8
:1032A8004FF6FF73038516F06DFC0023236510BDF0
:1032B80079510100F8B5194F064603F001FF0121C5
:1032C800B8600020FDF700FF054620B940F68501EB
:1032D8003220FDF7F7FA4FF4C072002118F064FDB0
:1032E80001210846FDF7F0FE044620B14FF4C072F4
:1032F800002118F059FD7B6913B940F68F01E7E703
:10330800304611F0FBFF284612F081FB24B120461D
:10331800BDE8F84012F07BBBF8BD00BF580B002099
:10332800014B024A5A617047580B00205034000084
:10333800036810B523B940F677113220FDF7C2FAB9
:10334800044A13606C3353605369BDE810401B682E
:10335800184700BF580B002008B5044B586800F008
:1033680079FBBDE80840FFF7D3B900BF580B002030
:1033780038B5044690F8400000F0FD0004F1420121
:10338800003818BF012084F8410004F061F894F86F
:103398004030023BDBB2012B94BF0123002384F8A9
:1033A800483015D804F0A0FA054618F080FA094B01
:1033B800E5FB030194F84830C4E9200143B100203B
:1033C80004F0F0FA20B940F621213220FDF77AFA0C
:1033D80038BD00BF40420F000149363016F0D5BB5A
:1033E80057510100A52600005D290000F1280000C2
:1033F800315301000124000045270000B9520100A3
:10340800A7520100B5230000192700004B51010005
:10341800F12700004B5101004B5101004B510100B5
:103428004B5101004B510100ED31000025320000E5
:103438004B5101004B510100452F00001926000097
:10344800DD520100CF520100F92F0000FC330000CB
:10345800043400000C3400004034000048340000FC
:1034680008B5431EDBB231B1032B08D94FF4EA711A
:103478003320FDF727FA032B02D8034AD05C08BD96
:103488004FF43F710620F4E75E9A030008B511F087
:10349800F0FD054AD2E84F3F0133DBB2C2E8413FB5
:1034A8000029F7D108BD00BF700B0020024BA0F126
:1034B80008015868FFF7EABF700B00202DE9F84FA4
:1034C8001E463C4B0D46934600211A7804689DF829
:1034D80028709DF82C809DF930909DF834A00160EB
:1034E80032B9A4F108015868BDE8F84FFFF7CEBF1C
:1034F8001A2204F1090018F057FC0123A372BBF14A
:10350800060F4FD8DFE80BF00433394E434E3D0029
:10351800E37A23F0130343F01303E372012304F166
:103528000E0241462846237547F6FF7384F8189023
:10353800E38204F10D0312F04BF8E37A5B0736D50A
:10354800BA1E04F11C03012A8BBFAA6832681168ED
:10355800E2618ABFE161B28892889A80E7760023A7
:10356800237215492046BDE8F84F16F00EBBE37AE2
:1035780023F0150343F01503CFE7E37A43F0100374
:10358800CBE7E37A23F0120343F01203C5E7E27AAC
:103598004AF01A0A22F01B020AF01B0A42EA0A023F
:1035A800E272BBE740F246413320FDF78BF9FF2377
:1035B800E376D4E7700B0020C53500002DE9F04F05
:1035C80005468DB00C4600200121FDF7B9FD0646E1
:1035D80020B94FF4F1713320FDF774F9A83012F0D7
:1035E80018FA18B196F85430042B2ED1304611F041
:1035F8007AFE50BBB84C04F1080604F10C07AB6A1C
:1036080093B92846FFF752FF4FF40073ADF8043022
:103618009DF80430002063F307009DF8053063F33C
:103628000F200DB0BDE8F08FA96A0B68B142AB62FC
:103638004FF000030B704B708B70CB70DFD0B9422A
:10364800DDD06068FFF722FFD9E7AF6A37B3A34B35
:103658009F4226D0043B9F4223D007F13B0A4FF0FC
:10366800000803F03BFD8146B8F1000F40F00581EA
:1036780002A9504612F092F8B9F1000F16D004F1E1
:103688000D00EE7A16F0100613D09DF81860059913
:10369800324610F0C9FD4FF0010828E005F1330A61
:1036A800DDE74FF001084FF0000ADAE704F11C00EB
:1036B800E7E7002FEFD09DF80830022BEBD001464A
:1036C80095F83230E522504616F06CF895F832300D
:1036D80006460344504685F8323016F05BF895F8F4
:1036E8003280A8EB0000D0F1000848EB0008B9F1DF
:1036F800000F00F0C680EB7AD90604D45B216AE794
:10370800C8460026F7E713F0040FAA7A95F80DC00B
:103718004FF03E0304F1060105F10E0033D095F891
:103728001BE0BEF1FE0F2ED123700B23E270A370B5
:10373800130184F805C00233637001232371D5F89F
:103748000E30C4F8063083888B8084F80CE0EB696F
:10375800C4F80D302B8CA4F811302B7EE3745E4E28
:1037680006F1080A57453BD12379022205F12800C2
:1037780062F34613237111F047FF02272846FFF72B
:1037880095FE04263FE023700223E270A37006F141
:103798000A0384F805C0534302336370D5F80E302A
:1037A800C4F8063083888B80267326442B7E737377
:1037B800EA7A12F0080102D004232371CFE702F05D
:1037C8000303032B01D12171C9E7520701D5012356
:1037D800F3E7022BF1D00BB90323EEE7A421FAE6B5
:1037E80006F10C094F4515D105F1280011F00CFF21
:1037F8006A7D6AB92379042662F346132371022786
:103808002846FFF753FE8DF804608DF80570FFE633
:103818000026F4E747B3B8F1000F20D005F12808D7
:10382800404611F0F1FE39467068FFF72FFEAB6A8B
:103838000022534585F8322096D04B4505D123798F
:10384800404662F34613237195E79DF80830022B32
:1038580005D1237923F068030127237191E72379A0
:10386800012262F34613F7E7EE7A16F01006CAD083
:10387800237967F3461323717FE700287FF440AF6D
:1038880006468E2305F12301237006F11803AA7A50
:103898005343E270221D0233637005F10B0353F8A2
:1038A800040B8B4242F8040BF9D195F814A095F853
:1038B80015B003F051FCC1F3402950464946FFF7C3
:1038C800CFFD6073BBF1000F04D049465846FFF79F
:1038D800C7FDA073E67642E7700B00207C0B002042
:1038E800343270B5054692B20C461E4611F089FB7B
:1038F80025B1034A556014745674147070BD00BF26
:10390800700B002010B5034C606811F09CFB237C01
:10391800237010BD700B0020014B587C704700BF0E
:10392800700B002038B5134D686811F092FB0446FF
:1039380020B940F257113320FCF7C4FFD5E84F3FB8
:10394800013BDBB2C5E8413F0029F7D104F1080388
:103958003422184618F028FA47F6FF720121E4626B
:10396800E283FF22627584F82320E27C61F3461229
:10397800E27438BD700B002038B5436A044693B929
:103988000A4D686811F065FB606220B94FF4B871A0
:103998003320FCF797FFD5E84F3F013BDBB2C5E882
:1039A800423F002AF7D1606A3B3038BD700B0020D7
:1039B800036810B504468BB19A6A22B140F28D11A2
:1039C8003320FCF77FFF596A41B101F108008342B7
:1039D800074B08BF22605868FFF758FD216831B1CE
:1039E800034B08395868FFF751FD0023236010BDC9
:1039F800700B002038B5046805469CB11349204671
:103A080016F0CCF8124B00221A735A739A73DA73B1
:103A1800EFF3108272B6A16A0C3399B9A362E3621C
:103A280002B962B62C68616A49B101F108039C4287
:103A380003D0074B5868FFF729FD00236362002372
:103A48002B6038BDE16A0B60E9E700BFC5350000AF
:103A5800700B002070B50668044656B3716A154DA0
:103A680041B101F108039E4202D06868FFF70EFDDC
:103A78000023736221684E7DB6B100232B726B72EE
:103A8800AB72EB72EFF3108272B6886A0A4B40B9D8
:103A98008B62CB6202B962B62046BDE87040FFF780
:103AA800A9BFC86A0360F4E708396868FFF7EEFC45
:103AB800266070BD700B0020780B002010B50446FE
:103AC8000246064900F58C7018F01BF8224604F5EA
:103AD800A4700249BDE8104018F013B8235B010038
:103AE8007FB590F8142102F0FF0322B140F2A5211E
:103AF8002120FCF7E7FE0C78039314F0010218BFAD
:103B08008D68CDE9013318BF019514F0040529D05B
:103B180004ADCE6805EB820545F80C6C154680F8B7
:103B280045514A68124DC0F8C820C0F8F82040F244
:103B38007122A0F8FC20032215F8011B0C420BD0BF
:103B480004A900EB830601EB8301013351F80C1C37
:103B5800DBB21639C6F8CC10013A12F0FF02EBD1ED
:103B680004B070BD002ADAD140F2BE21C0E700BF20
:103B78006E9A03002DE9F04F04468FB09B4692469B
:103B8800BDF86070039117F092FE804620460491BC
:103B980011F051FED4F8CC900546BBF1000F00F0AF
:103BA800D781BAF1000F00F0E480834618F5FA6374
:103BB8000593049B43F10003069305F05DFA06465E
:103BC80004F1E8003146079005F028FAD4F81011FE
:103BD80011B1079811F071FFBDB1D4F8F050BEB122
:103BE800B0682A46D6E90031C018059B009341F118
:103BF8000001069B019316F089FD8542034608D211
:103C080040F24D312120FCF75DFED4F8C850E6E7BC
:103C18003346059AD4F8C8009D18069A42F1000662
:103C2800002F00F0A180BFB242F2107C2946324634
:103C3800E7FB0C1200F2CF773B44B3FBF0F34343AE
:103C4800EB1A66F10000C4E92A12C4E93A300027E9
:103C5800E319204693F87C1111F0D2FDD4F8A8306E
:103C6800D4F8AC105A1B0590069361EB0600012AA4
:103C780070F100034FF00003C0F259819145834170
:103C880000DB914604EB8707D7F8CC704F4528BF77
:103C98004F46C4F8DC70BAF1000F05D0D4E93A23D6
:103CA800C4E92C56C4E93023059B2046039AC4F87E
:103CB800D83004230791C4E92E5653722A46334656
:103CC80011F0CFFD039B059A18725A60BBF1000FE3
:103CD80000F038810123039A07991370069B049A10
:103CE800B3EB080361EB0202012B72F100004FF005
:103CF8000000C0F21E81A74E9E42904100DB1E4686
:103D0800D4F81031D4F8C890002B40F0178107255B
:103D18002046A9FB055A11F08EFD002800F00B8102
:103D2800D4E92C32ED184AEB0203A845049A9A41CB
:103D38000FD2B5EB0805049A63EB02036FF001029A
:103D4800AA424FF000029A4102D3AE4228BF2E4643
:103D5800B146039BC3F81090059B9F4234BF0020D7
:103D680001200FB0BDE8F08F4FF0FF316FF0004237
:103D780060E7002838D06FF00043D4E92A129A424D
:103D880008BFB1F1FF3F2AD094F8443120462344BC
:103D980093F87C1111F034FD18F19802049B054644
:103DA800099008A843F100038DF820A0CDE90C2361
:103DB80040F20243ADF8283017F0A9FE10B940F2DE
:103DC80096411FE7D4E92A320C995B1A0D9962EBE8
:103DD80001025B1B62F10002002AC0F2A280454684
:103DE800049E4FF0010B32E7D4E93A26D4F8C850C4
:103DF800A8EB0203AA18B3FBF5F305FB03F346F19E
:103E080000069B18A3EB080246F10006972A05D87E
:103E1800ED1846F10006D346574619E794F87C1189
:103E2800204611F0EDFC0423D4F8B8208DF8293091
:103E3800D4F8C850099020468DF820A0D4E93A1348
:103E4800521AB2FBF5F26A43521843F10003CDE966
:103E58000C2311F006FD29468DF8280008A815F056
:103E680011FADDE90C56D6E751F8042F013302F1B7
:103E7800160CCC459FBF821A01379144FFB2DAB2C3
:103E88009645F1D8E319204693F87C1111F0B8FC57
:103E9800484404EB8703D3F8CC30834209D3A3EB1F
:103EA8000909B9F1000F22DA40F24E41AAE6A94603
:103EB80067E094F84511D4F8C820B9420FD9013702
:103EC8009542FFB208D204EB8703D3F8CC3003F154
:103ED800160299461546E4E74FF4856192E6954245
:103EE800F7D352009542F4D340F245418AE6AD1922
:103EF8002046D4E92C234BF1000611F058FCD4F8E5
:103F0800C8304FF0000B5843D4E93A321B1820460A
:103F180042F10002C4E93A322A46334611F047FC1E
:103F280096E64546049E4FF0010BD14674E7994644
:103F3800A8E60646E4E6D4E93032F3E64FF0FF356A
:103F48002B46F2E6039B83F800B0C3E9045603E767
:103F5800BAF1000F7FF42AAED4F8C82008F198050A
:103F6800D4E93A13A8EB0106B6FBF2F656437618E5
:103F7800A5EB060543F10003AA429B4697D8A5EB9B
:103F88000209002394F845E104F1C8016FF0150017
:103F98001F4674E70040420F01292DE9F347064602
:103FA80005D9022900F099804FF4046150E001F02E
:103FB8000104D0E92CA708F0F3F996F87881814636
:103FC8002046414615F0D8F90546404608F026FE39
:103FD8000246002C3FD0A8F10203DBB2022B3AD8EC
:103FE800534901EB43031B8A15EB09052CBF01213B
:103FF800002115EB0A0547EB01074E4951F8280047
:1040080000F2E73010444FF47A72B0FBF2F02D1A48
:1040180067F10007ED1847F1000716F0A0FB5230D2
:10402800D6F810812C1A67F10005D8F8C87005F089
:104038001DF806F1E803834210D03A46CDE9004561
:10404800D8E9780116F062FB874211D240F261315B
:104058002120FCF737FC4FF4FC73C5E798F82901D9
:1040680030B13A46CDE90045D6E93A0116F04EFBA3
:10407800314B1A68D6F81031824293F82A110ED9BA
:10408800D3F8C8603218C3F8D86089B941F66A0114
:104098008842A3F8DC1018D34FF4FA61D8E751B17D
:1040A8006422B0FBF2F151430246401AC3F8D8101B
:1040B8004FF4FA71ECE740F2E242B0FBF2F15143FF
:1040C8000246C3F8D810401AE0E7121945F1000576
:1040D800C3E9782502B0BDE8F087D0F8103113B9EC
:1040E80040F2DB71B4E700255D7390F8781183F82E
:1040F800201183F82111FF2483F822410339D0F8D5
:104108001001012900F1E8008CBF0021012115F000
:104118002BFED6F8100116F0EDFCC6F8105186F803
:10412800164108F025FB02B0BDE8F0470FF0CCBB04
:10413800629A0300449D0300840B002008B50B4BD2
:1041480030B101280DD040F653012120FCF7BAFB0D
:1041580018601A6841F669039A4206D940F65C016C
:10416800F3E740F6C4121A60F3E708BD840B002099
:104178000138C0B2032808B504D94FF43F710620AE
:10418800FCF7A0FB014B185C08BD00BF789A030040
:104198000138C0B2032808B504D94FF43F7106208E
:1041A800FCF790FB014B185C08BD00BF959A030013
:1041B8000138C0B2032808B504D94FF43F7106206E
:1041C800FCF780FB014B185C08BD00BFF89A0300A0
:1041D8000138C0B2032808B504D94FF43F7106204E
:1041E800FCF770FB014B185C08BD00BFF19B030096
:1041F800F0B5284AA7B004460D4610686B465168CA
:1042080002AE0F2203C300210DF1890017F0CCFD87
:1042180000211022304617F0C7FD16ABDDE900017A
:1042280083E80300234618AC03F12807186808330D
:1042380053F8041C2246BB4203C21446F6D180231D
:1042480006AA8DF88830002302F8013B0133102BB1
:10425800FAD196E80F0012AC84E80F000AAA2146AA
:1042680006A811F0BDFD01230EAA214606A88DF867
:104278004B3011F0B5FD2A460EA90AA8042317F001
:1042880013FD042305F1100229460AA817F00CFDB6
:1042980027B0F0BD7C9A03002DE9F04F934690F8C3
:1042A8005D7291F83E2189468BB00025044640F2A4
:1042B800712A8DF8183006238DF810508DF81930B2
:1042C800B7FBF2F102FB1177B9F83A210D21FFB2E1
:1042D8005743D0F8C4200092FCF78CFF0E210190C0
:1042E800FCF72EFFD4F8D4100AFB07F68046C97CE9
:1042F800012935D103A9019815F083F818B14A218D
:104308008E20FCF7DFFA039A019214F0B1FD019AAE
:10431800054692F82B0103F0FDFB94F85D2298F80E
:104328003E11B2FBF1FC01FB1C2212F0FF025ED031
:1043380094F811C0B8F83A11624505BF4A43D8F855
:1043480030110CFB01110AFB021218BF0AFB01F223
:1043580029180BEB020089B20EF020FB00F11005C2
:10436800C4F8C4502046D8F84CA16D000DF04AF9A5
:10437800D4F8D430824594BF55442D18DB7C05F21F
:104388000625012B059504F1180569D1002F67D082
:10439800637C7BB3284617F034FB40F27122B9F8EE
:1043A8003A315343009A12F5EA782CBF01220022D1
:1043B80013EB080342F100021B1842EB0101D4F889
:1043C800C4002D4A121A34BF6FF001004FF0FF30BD
:1043D800D218059B41EB0001A3602846CDE90821CE
:1043E80004A90FF085FA002843D1FF2188E7D8F8FF
:1043F8003021ADE7D4F8BC6017F006FBD4F8C8301C
:10440800D4F8D4E07609002BC6F5EA76B8BF1F3396
:10441800F7174FEA63184FEAE37C9EF811309EF8CD
:1044280017E0012BB9F83A3140F2712914BF102274
:10443800202209FB03F313EB08034CF1000C083BA3
:104448004CF1FF3CB3EB0E036CF1000C9B1947EBEE
:104458000C071B1841EB07019B1A61F10001AEE73D
:10446800D9F83031D4E9002133449B1841F10001D7
:10447800A5E70BB0BDE8F08F2CFEFFFF08B50AF0EA
:10448800C5F828B9034B1868BDE8084011F07ABD93
:1044980008BD00BF340C0020F7B50446052900F21A
:1044A8000C81DFE811F00600A900AC000A010A013E
:1044B800A50090F8623223B903B0BDE8F0400FF0D0
:1044C80003BA90F86232052B05D10F22002120464D
:1044D80011F08BFDF0E74FF40C7180680EF05EFA76
:1044E800A368283B184417F0E4F994F86232032BC8
:1044F80008D094F86232022B04D04FF4AE718E20AB
:10450800FCF7E0F9032384F86232D4F8D4300D21A3
:10451800B4F864222046B3F847301344A381FCF76B
:1045280069FE06460E21FCF70BFE01A9054630463A
:1045380014F067FF08B18D21E1E794F85D3240F28D
:10454800712E95F83E710199B5F83821D1F8C81047
:10455800B5F850014A43B5F83A110EFB00F0B3FB29
:10456800F7F607FB16335643DBB203F1010C4B4356
:104578000EFB0363834201D99721C0E7BC45A0EB3A
:10458800030300D0F1B93244904202D8042284F8DF
:104598006222D5F84C21934218D2042284F8622270
:1045A80023F07F43D4F85022204663F31702C4F85F
:1045B800502209F07DFE60B9204603B0BDE8F04006
:1045C80011F0E0BC0EFB01F18B42DEE722F07F43E5
:1045D800E8E7204609F088FF0028EDD038480FF0BA
:1045E800B5F837480FF0C0F8364B1C6003B0F0BD83
:1045F8000AF01CF8032269E740F2F7117FE7FF236E
:1046080080F8673290F8623203F0FF0213B980F83D
:104618006722EBE790F86232052B07D103220021CD
:1046280011F0E3FC002384F86732F2E7302301A994
:1046380080F82032B0F86032ADF8043009F0F6FCAA
:10464800BDF804300228B4F86022A3EB020384F812
:10465800B030E7D001282CD1042384F862320D2130
:104668002046FCF7C7FD0E21FCF76AFD94F85D3281
:1046780090F83E21B3FBF2F102FB11330133DBB2B8
:104688009A4202D0042384F86232D4F8D430204607
:10469800B3F84710B4F86432194489B2A18109F01B
:1046A800E7FF94F86232042BBCD1204611F036FCA7
:1046B800B8E720460CF066F9D1E740F2FD111EE795
:1046C80085440000340C0020014B024A5A607047B0
:1046D800340C0020A1440000024B024618305968EF
:1046E80017F00FBA340C0020024B034A1A60528BA1
:1046F8009A8070473C0C002016010020014B186876
:10470800704700BF3C0C002008B5034610465A1EEF
:10471800032A10D84A1E032A0DD8084A01295170C5
:104728000CBF00210A211071937091721946FCF791
:1047380021FF002008BD6FF01500FBE716010020DF
:10474800074A537A40B143F00403002953720CBF5F
:10475800002307235371704703F0FB03F5E700BFFD
:104768001601002040EA4100014BD870704700BF95
:104778001601002014280BD028280BD00A280BD1AA
:104788000323064A0020528B1340054A9380704742
:104798000223F6E70023F4E71E20704716010020E5
:1047A8003C0C0020014B9888704700BF3C0C00204F
:1047B80070B506680D4604460E21B6F8AA00FCF747
:1047C800BFFC074980F8BD50B43015F0DBF9002371
:1047D80086F84D312046BDE8704015F059BC00BF41
:1047E800754900002DE9F0410768054688460E2105
:1047F800B7F8AA00FCF7A4FC0D210446B7F8AA00F4
:10480800FCF79EFC002680F86262094904F1B400B6
:1048180084F8BD8084F8BE60A4F8C06015F0B2F9D1
:1048280087F84E612846BDE8F04115F031BC00BF5D
:10483800A16201002DE9F041056806460F460E21E8
:1048480095F8A880B5F8AA00FCF77AFC0D21044673
:10485800B5F8AA00FCF774FCB8F1000F02D0EB7BA6
:10486800452B15D0002384F84571A4F84831A4F8E5
:104878004631A8B994F8453104F1B4000B4984F8DD
:10488800BD30002384F8BE30A4F8C03015F07AF9A2
:10489800002385F84F313046BDE8F04115F0F8BBEC
:1048A80090F86232002BE5D0F2E700BFA162010068
:1048B80038B5036814460D460E21B3F8AA00FCF774
:1048C8003FFCB4B9B0F84831B0F84621A0F84841E7
:1048D8009B1AA0F846411BB290F8A4205AB980F858
:1048E800A5509C30847283810349BDE8384015F097
:1048F80049B90023F0E738BDA162010010B540882E
:104908000C460E21FCF71CFC90F872305BB980F85D
:10491800734014B9FF2380F8C23003496A30BDE8F8
:10492800104015F02FB910BD7364010070B506680A
:1049380004460D460E21B6F8AA00FCF701FC90F8D3
:104948007C304BB980F87D5015B9FF2380F8C5300D
:104958000549743015F016F9002386F84C312046C5
:10496800BDE8704015F094BB216A010070B50C4693
:104978000E210546FCF73EFC0E210646FCF7E0FB3F
:10498800002280F8C6203E22A68022702222627071
:104998002F22A2706A7AE27090F8162102F03F0284
:1049A800A27190F8F820012AE2714CD190F8042104
:1049B800227290F80821627290F80521A27290F88C
:1049C8000621E27290F80721227390F80921627398
:1049D80090F80C21A27390F80B21E27390F80A2149
:1049E800013AD2B2072A96BF1749FF228A5C22747D
:1049F800D0F8F920C4F81120D0F8FD20C4F815200B
:104A0800B0F80121A4F8192090F80321E27690F873
:104A18000D21227790F80E21627790F80F21A27766
:104A280090F81521E27790F8122184F8202090F868
:104A3800132184F8212090F8102184F8222090F87E
:104A4800113184F8233070BD849A0300502808B5CA
:104A58001DD018D828280CD8092806D9A0F10A0290
:104A68000C4BD2B2D340DB0707D43221D620FBF758
:104A780029FF322801D03C28F7D10A23B0FBF3F0F4
:104A88000138C0B208BD9128EFD10720FAE7062007
:104A9800F8E700BF0104104038B50B6804460E2142
:104AA800B3F8AA00FCF74CFB90F8163190F8F82000
:104AB800054603F03F0343EA8213227D637022F028
:104AC800800203F0C00322750022402BE27640F0FA
:104AD8009380D0F8F930C4F80230D0F8FD30C4F82B
:104AE8000630B0F80131638190F80331237390F8F0
:104AF8000431637390F80831FF2BA3731FBF90F83C
:104B08000531E37390F80631237490F80731637424
:104B180090F80931A37490F80A31E37490F80C31D5
:104B280090F80B211B0190F80D1102F00F0203F011
:104B380030031343227D22F03F0213432375637D24
:104B480061F30303DAB2637503F00F03012B08D195
:104B5800134690F80E2162F30713637590F80F312E
:104B6800A37595F81201FFF771FFE07595F8130129
:104B7800FFF76CFF207695F81031642B2BD024D8E2
:104B8800502B2AD03C2B05D81D2B07D80F2B0CD027
:104B9800142B0AD05D21D620FBF794FEA3F11E0149
:104BA800184AC9B2CA40D107F4D50A22B3FBF2F3B6
:104BB800013BDBB2637695F81131142B11D0282B09
:104BC8001CD00A2B1CD04321E5E7782B07D0962B65
:104BD800E0D10923EEE70723ECE70623EAE70823F9
:104BE800E8E70123A37695F815315A1E534253413D
:104BF800227D63F3861222751C2038BD0223F1E75B
:104C08000023EFE701041040036810B50C46B3F821
:104C1800AA000E21FCF794FA034980F887407E30F9
:104C2800BDE8104014F0B7BF754900002DE9F84FF2
:104C3800076880460D460E21B7F8AA0097F8A89095
:104C4800FCF77EFA044690F8C2A05FFA8AFAB9F136
:104C5800000F07D03E6816F480660BD00126304658
:104C6800BDE8F88FFB7B002BF8D13021B87B11F021
:104C78006AFB064602F070FA0B0401F4004B40F19F
:104C8800F880D8F80030DA7C002A00F0EE801B7D2E
:104C9800002B00F0EA80AEB90D21B7F8AA00FCF7A6
:104CA8004FFA50B9BAF1000F0BD005F1010A50467E
:104CB80011F0A3FFD0B91E2604E090F86232002B51
:104CC800F0D00C26B9F1000F05D0FB7B002BC5D125
:104CD800BBF1000F03D031464046FFF795FF32463F
:104CE80040463021BDE8F84F15F000BA6B7803F064
:104CF800C003402B40F0A3802146504611F0EDFF41
:104D0800002800F0B4806B78C3F3050203F03F017C
:104D180003F0C003402B40F0928094F817311BB980
:104D280094F816318B42C6D1012384F8162184F8F1
:104D3800F830002384F81731DAF80130C4F8F93074
:104D4800DAF80530C4F8FD30BAF80930A4F80131B2
:104D58002B7B84F803316B7B84F80431AB7B84F8BC
:104D68000831EB7B84F805312B7C84F806316B7CA9
:104D780084F80731AB7C84F80931EB7C84F80A317C
:104D88002B7DC3F3030384F80B312B7D03F0300331
:104D9800B3FA83F35B0984F80C316B7DC3F3030327
:104DA80084F80D316B7DC3F3031384F80E31AB7DAA
:104DB80084F80F31EB7D052B35D8013303EB8303E2
:104DC8005B00DBB284F812312B7E052B30D801331F
:104DD80003EB83035B00DBB284F813316A7E082A95
:104DE80097BF274B96239B181B7A84F81031AB7E0C
:104DF8001BB3012B0CBF1423282384F8113102F0B4
:104E0800B1F9036813F400631CBF2B7DC3F380134F
:104E180084F81531B9F1000F22D13A23FB734046CB
:104E280015F03EF91BE7062B0CBF50239123C9E769
:104E3800062B0CBF50239123CEE70A23DDE76B78BE
:104E480094F8162103F03F0393427FF434AF002314
:104E5800012284F8F83084F8172184F81831D9E74A
:104E68003B6843F480633B60D9E72F262AE7202676
:104E780028E71A26B9F1000F7FF427AF2FE700BF04
:104E8800849A0300036810B50C46B3F8AA000E21F3
:104E9800FCF756F9034980F89A409130BDE8104074
:104EA80014F070BEE96D01002DE9F74F1E46136836
:104EB8008346154637680093BB4204D94FF48D7179
:104EC800D320FBF7FFFCD1F800A09AF82B0102F0E1
:104ED80021FE04460AF1E80014F00AFFDAF8E83087
:104EE800610098421FFA81F838BF1846414600F51C
:104EF800F57948460DF052FD9AF820212D4B00F126
:104F08001004DAF8C800414653F822304FF47A7298
:104F18004C4403F2E733B3FBF2F3DBF84C21903354
:104F28002732AF2B024438BFAF23B2FBF0F2504315
:104F380001930DF033FD9BF83E218146BBF83A0101
:104F48004146019B5043DBF84C2102F1480B40F2EB
:104F5800712202FB00BBDAF8C8009B440DF01EFD6D
:104F6800DAF8C810D944484481429CBFB0FBF1F339
:104F780001FB1300009B081A0139814228BF014632
:104F88008C4228BF0C46A34238BF2346BB421C466E
:104F980028BF3C46A1422C6038BF2146B94228BFF1
:104FA80039468C42316002D94FF4B27188E703B0B8
:104FB800BDE8F08F449D030070B5441EE5B21F2D77
:104FC8000ED8A1F2E2460D4DAE4209D840F2712644
:104FD800012806FB02F505D001F19602954203D29D
:104FE800002009E0002AFBD106FB03F005FB0411B1
:104FF800884234BF0020012070BD00BF1D043D0061
:1050080073B5066805460E21B6F8AA00FCF798F8AD
:105018002F4B4FF4FA72044690F82C11CDE9002377
:10502800D0F8282111F05FFFC4F84C010CF062FEA3
:1050380084F83E010CF064FE294601AB6A46A4F8E8
:105048003A012046FFF730FF009B019A23F07F4387
:10505800D6F8C80094F83E11C4F8303122F07F43E6
:105068003D32B4F83A510139D4F84C610244C4F8DD
:105078003431694340F27125324405FB0122B4F80A
:105088001C11B2FBF0F20132A4F85011A4F8382137
:10509800B4F82221012A18D09533034405FB0133C3
:1050A800B4F82011B3FBF0F39BB28B4238BF0B4628
:1050B800A4F8523194F82C31A4F8542184F85631CC
:1050C8000F2384F85A3102B070BD0023F0E700BF07
:1050D800FF083D002DE9F04FD0F800B08FB007462B
:1050E8000C46BBF8AA000E21FCF72AF80D2105464C
:1050F800BBF8AA00FCF724F83B6882469BF80E0030
:1051080093F8A890B9F1000F20D1322111F01BF9C2
:10511800064695F8C8305BB302AA05F5AE7105F1ED
:10512800F8000CF09DFB9BF80F30002B40F04581F8
:1051380002F012F80B0425D41A223221384614F052
:10514800D5FF064630460FB0BDE8F08F33280CBFB8
:105158002A260026BAF1000F08D09AF8629209F1BF
:10516800FF32D2F1000949EB0209D2E7D146D0E774
:1051780002ABD5F8F900D5F8FD10B5F8012103C345
:105188001A80D0E795F8C4300BB92F22D5E70EB1B5
:105198003246D2E7637895F8162103F03F0393422D
:1051A80045D195F8F830012B41D195F81761002EBB
:1051B8003DD13A686388D1885B1A1BB2002BB8BF0F
:1051C8005B429BB2B3F5804F31D2617923797C4839
:1051D80043EA0123A17943EA014303F18071A1F570
:1051E800FA7121F07F41814221D8217A94F8078011
:1051F80048EA0128617A48EA0148434517D8D2F8B5
:10520800C8304345019312D9A27C617CE07C41EA15
:1052180002216389B4F80F2041EA0041A07BFFF71F
:10522800CBFE20B1E18AA28A012902D15AB11E22FD
:1052380083E7019908F196084A4340F2712101FB7E
:1052480003884245F3D3A389002BF0D0237F03F0D2
:105258000F02042A01D90F2AE9D14F2B03D903F0F1
:10526800F003F02BE3D1237E072BE0D8A07E14F0C7
:10527800A3FE0128DBD1A37E082BD8D8607E0F2897
:10528800D5D814F099FE8046FFF738FA437843459D
:10529800CDD395F80C11207E0CF002F88045C6D3CA
:1052A80002A80CF08DFB08B9482246E7A28A47F607
:1052B800FE739A4216D8FFF721FA2222804600216F
:1052C80005A816F071FD3F4B4246217E059305ABBC
:1052D80095F80C0111F071FF20B1A17E386811F02A
:1052E80087FE08B9202228E7BAF1000F07D09AF8FC
:1052F800623223B1B9F1000F01D10C221DE73F231F
:1053080028468BF80F306279237943EA0223A27981
:1053180043EA0243227AC5F83031E37943EA0223AB
:10532800627A43EA0243C5F83431227CE37B43EADC
:105338000223A5F83A31A37B85F83E31627B237BB3
:1053480043EA0223A5F83831A378E27843EA022336
:10535800A27CA5F83C31637C43EA0223E27C43EA61
:105368000243C5F84C31627D237D43EA0223A5F848
:105378005231E27DA37D43EA0223A5F85431E27A53
:10538800A37A43EA0223A5F85031A37E85F8573162
:10539800E37E85F85831237E85F85631637E85F89B
:1053A8005A31396811F0F0FD05F1AA00064914F0E8
:1053B800EFFB384614F074FEC4E60126C2E600BFCF
:1053C8000B073D0000040400216F01002DE9F047A0
:1053D800076806460C46B87B11F07FFD002800F0F0
:1053E800FE800E21B7F8AA00FBF7AAFE637890F8B2
:1053F8001621054603F03F03934240F0DF8090F802
:10540800F830012B40F0DA8090F81731002B40F08B
:10541800D58031686288CB88D31A1BB2002BB8BFFD
:105428005B429BB2B3F5804F80F0C880B0F83C3146
:10543800D21A130400F1C28063792279694842EADA
:105448000322A37942EA034202F18073A3F5FA73B7
:1054580023F07F43834200F2B180207AE37943EA64
:105468000023607A43EA00439A4200F2A780D1F809
:10547800C810994240F2A280D5F830118A42C0F093
:105488009D80D5F83421934200F29880237CE17BFB
:10549800607C41EA0321B4F80D20B5F8503141EAA7
:1054A8000041207BFFF788FD002800F08780638992
:1054B800002B00F08380A07C07287FD895F80C810A
:1054C80095F856A141460BF0EBFE81464146504601
:1054D8000BF0E6FE814571D1B8FA88F8A07C4FEA56
:1054E800581841460BF0DCFE8146414650460BF009
:1054F800D7FE814562D8E07C14F05EFD01285DD1BD
:10550800E17C08295AD8227CE37B43EA0223627CA7
:1055180043EA0243D5F84C2193424FD8B4F80D2002
:10552800B5F83A319A4249D3306811F061FD002844
:1055380053D0E2782846A37843EA02236279A5F893
:105548003C31237943EA0223A27943EA0243227ACF
:10555800C5F83031E37943EA0223627A43EA024329
:10556800C5F83431A27B637B43EA0223A5F83A31BC
:10557800237B85F83E31E27AA37A43EA0223A5F831
:105588003831E37C85F85731237D85F85831A37C81
:1055980085F85631227CE37B43EA0223627C43EAA6
:1055A8000243C5F84C314123BB73316811F0ECFC60
:1055B8003368002083F84E01BDE8F0871E213323AD
:1055C8000022304687F89C1087F89D303523A7F8CD
:1055D8004620BB73FFF76CF9EAE72021EFE70120CB
:1055E800EAE700BF0B073D0010B5044612F0B5F816
:1055F80008B9002010BDE04312F0AFF80028F8D039
:10560800E31683EAA4635A1E1A42F2D0E3B25A1E82
:1056180013405A1E1342ECD0A0B214F0E2FC0B283F
:10562800E7D8204614F0D9FC1828E2D8A3B2B3EB87
:10563800144F04D184EA142313F0FF1FD9D0044B6C
:105648006340581E1840003818BF0120D2E700BF39
:10565800D6BE898EF0B5070C164BA7F5AA4203EA09
:105668009023543A012A20D927F4004042F6AA226E
:10567800801A18BF0120002216211F24164687EA27
:10568800060562EA0505013511D0DD0301394FEA47
:105698005303ADB245EA56064FEAC4354FEA5404FF
:1056A800ADB245EA5202EAD1F0BD0020E3E700209E
:1056B800FAE700BFE0FF3F0070B50D46BDF818409F
:1056C8000646BDF81410AC421046BDF810201BD891
:1056D800B5F5486F18D8844216D8B0F5486F8CBF16
:1056E8000024012496B91A4E367C96B19CB96FF401
:1056F800506C05EB0C06062E04D86FF4506686191C
:10570800062E08D9204670BD0024EBE796F8816084
:10571800EBE7002CF6D0854217D803FB0111B1F551
:10572800FA7F12DCA2F10A0340F676449BB2A34248
:105738000BD812F019F942F2107341435A43B2EBF5
:10574800410F8CBF01240024DCE70024DAE700BF06
:10575800480C0020304BF0B5B0F86C700C46114680
:10576800DA88B0F86A6085B097421D8928BF174665
:10577800964228BF16461B2E2ED0B5F5A47F2DD0F5
:1057880040F6480301AA9D4228BF1D4612F009F9B8
:10579800BDF80A30BB4228BF3B46E380BDF80C3059
:1057A800AB4228BF2B462381BDF80630B34228BF41
:1057B80033466380BDF80830AB4228BF2B46A38030
:1057C800FF232370E3881B3B9BB2E02B08D940F2F0
:1057D80009513920FBF776F81B2FCED105B0F0BD63
:1057E80063881B3B9BB2E02B02D940F20B51F0E7D8
:1057F800238940F64812A3F5A4739BB2934202D9B9
:1058080040F20D51E5E7A388A3F5A4739BB2934238
:10581800E4D940F20F51DCE7480C0020F7B500232B
:1058280004460E461746CDE900336846FBF7C2FC2E
:1058380008B100201AE0009DA542F6D0304605F1D7
:10584800AD0312F071F8394695F8AC2013F0AAFCB4
:105858000028EAD005F1B40395F8B32004F1B401A7
:1058680094F8B30013F09EFC0028DED003B0F0BD1E
:10587800054A516A02F11D03127F11F8030BC0F3A8
:10588800801013F08FBC00BFB8110020012817D872
:105898000D48824216D8012B0DD140F252739A421C
:1058A80010D9A1F6C410094B98420BD88A428CBF74
:1058B800122000207047042BF3D140F6C313EEE703
:1058C80012207047302070478FFD7002CBF37002B2
:1058D80010B504460A480FF037FE0A492046FEF77D
:1058E800FFF820460FF060FD38B12046FDF740FD77
:1058F80020460FF026FE002010BD1220FCE700BF56
:10590800800C0020880C00202DE9F04F994687B0C4
:105918007F4B04460DF110087E4D18680F461B7921
:105928001646049088F8043095F86A3013B140465A
:1059380002F02AF93946204613F094FDAB69C4F801
:10594800E83096F84A2006EB4202B2F82AA0504600
:1059580012F00AF801466FF4506000238244BAF14D
:10596800060F7BD9908C4FF0961284F82A31A4F850
:10597800E430C4F8E02040F2E24211F0F5FF03F011
:10598800C1FB40F2E243014604F1A80AA4F8F4314D
:10599800C4F8C810C4F8F011504615F081F88346D1
:1059A80001F0DAFB8306A97B53BF1B236B88AA8807
:1059B8001A46A4F81231584BA4F814211B6884F82D
:1059C800F010A4F8F2B01BB194F9281138469847A2
:1059D8002B7C03A80394003B18BF012384F82931CA
:1059E80011F0B9FE4D4B1B681BB14D49B4F8AA0024
:1059F80098470123A4F8DE304A4B1B681BB14A497B
:105A0800B4F8AA009847494B1B681BB14849B4F839
:105A1800AA009847474B1B6813B1B4F8AA009847E7
:105A2800454B1B6813B1B4F8AA009847AB8804F13A
:105A3800C0006A8869780333033201919BB22978E0
:105A480092B2009104F1C401FBF714FCD4F8C03001
:105A580083B940F6F4713920FAF734FF4FF04D124C
:105A6800A4F8E4300123C4F8E02084F82A314FF484
:105A78007A7389E7D4F8C43013B940F6F571EAE7C8
:105A880011F032FFC4F8CC00B9F1000F05D002F0D4
:105A980047FB20F07F40C4F8D40096F84A302046EF
:105AA800E96906EB4306338EA4F8D030F38EA4F8E8
:105AB800D23014F0F2FF414604F1170013F042FD12
:105AC80095F86A3013B9FF2384F83D32EB6E23B1A1
:105AD800012204F59771504698471849504613F02B
:105AE800E6F902F01DFB0C23B0FBF3F202FB1300F6
:105AF800C0B2431DDBB2082B9CBF0D30C3B2204699
:105B080084F8233013F0DDFC07B0BDE8F08F00BF48
:105B1800E4220400480C00200C1700200417002081
:105B2800700C002020170020A60C0020141700205D
:105B3800980C0020181700201C170020520C002079
:105B480010B503210020FBF7FBFA044670B90321C6
:105B5800FBF7BAFA044620B940F225313920FAF7A2
:105B6800B1FE034B93F9701014F0E9FE204610BD06
:105B7800480C0020014B5888704700BF480C002093
:105B8800044BD87BC0F3400080F0010000F0010016
:105B9800704700BF480C002038B513F002FB002501
:105BA80001F0C8FD214C01F003FB13F0CCFF03F01A
:105BB800D9F902F009F805F0C5FE012001F088FACC
:105BC8001B4B1C4A29461D604FF01B13A4F8685054
:105BD800A58184F83650E573C4E900234FF4A47313
:105BE8001022A3604FF479432361134B58681B8933
:105BF800A06304F14000A38716F0D6F8012342F20F
:105C0800107204F15E0084F840306375C4E9112213
:105C180015F0FAFB04F1500015F01CFC00220023DB
:105C280084F88050C4E91E2338BD00BF480C00200A
:105C38000017002003021B00959A0300064B41F64B
:105C48004C521B211A629973C3E9062241F2883229
:105C58005A62FFF7A1BF00BF480C0020024B1B6827
:105C680003B118470C20704700170020014B93F927
:105C780070007047480C0020034B5A8802801B783C
:105C880083700020704700BF480C002073B58378EC
:105C980006461A2B08D8042B04D9334A22FA03F3F0
