:1000000058B50420B97F0200ABAB0600A57F020003
:10001000A57F0200A57F0200A57F0200A57F020048
:1000200000000000000000000000000095800200B9
:10003000A57F02000000000061820200A57F02008F
:10004000F9820200F9820200F9820200F9820200BC
:10005000F9820200F9820200F9820200F9820200AC
:10006000F9820200F9820200F9820200F98202009C
:10007000F9820200F9820200F9820200F98202008C
:1004C80081F0004102E000BF83F0004330B54FEAFD
:1004D80041044FEA430594EA050F08BF90EA020F6A
:1004E8001FBF54EA000C55EA020C7FEA645C7FEAFD
:1004F800655C00F0E2804FEA5454D4EB5555B8BF20
:100508006D420CDD2C4480EA020281EA030382EA90
:10051800000083EA010180EA020281EA0303362D22
:1005280088BF30BD11F0004F4FEA01314FF4801CF5
:100538004CEA113102D0404261EB410113F0004F07
:100548004FEA03334CEA133302D0524263EB4303BE
:1005580094EA050F00F0A780A4F10104D5F1200E5C
:100568000DDB02FA0EFC22FA05F2801841F10001B7
:1005780003FA0EF2801843FA05F359410EE0A5F18B
:1005880020050EF1200E012A03FA0EFC28BF4CF0BC
:10059800020C43FA05F3C01851EBE37101F0004572
:1005A80007D54FF0000EDCF1000C7EEB00006EEB7F
:1005B8000101B1F5801F1BD3B1F5001F0CD3490809
:1005C8005FEA30004FEA3C0C04F101044FEA445260
:1005D80012F5800F80F09A80BCF1004F08BF5FEAE7
:1005E800500C50F1000041EB045141EA050130BDC7
:1005F8005FEA4C0C404141EB0101013C28BFB1F5D9
:10060800801FE9D291F0000F04BF01460020B1FA23
:1006180081F308BF2033A3F10B03B3F120020CDAF6
:100628000C3208DD02F1140CC2F10C0201FA0CF0D4
:1006380021FA02F10CE002F11402D8BFC2F1200C39
:1006480001FA02F120FA0CFCDCBF41EA0C019040EF
:10065800E41AA2BF01EB0451294330BD6FEA040438
:100668001F3C1CDA0C340EDC04F11404C4F1200223
:1006780020FA04F001FA02F340EA030021FA04F335
:1006880045EA030130BDC4F10C04C4F1200220FA8C
:1006980002F001FA04F340EA0300294630BD21FACA
:1006A80004F0294630BD94F0000F83F4801306BF90
:1006B80081F480110134013D4EE77FEA645C18BF84
:1006C8007FEA655C29D094EA050F08BF90EA020F1B
:1006D80005D054EA000C04BF1946104630BD91EA13
:1006E800030F1EBF0021002030BD5FEA545C05D116
:1006F8004000494128BF41F0004130BD14F5800455
:100708003CBF01F5801130BD01F0004545F0FE41C8
:1007180041F470014FF0000030BD7FEA645C1ABFFD
:10072800194610467FEA655C1CBF0B46024650EA34
:10073800013406BF52EA033591EA030F41F4002160
:1007480030BD00BF90F0000F04BF0021704730B5E6
:100758004FF4806404F132044FF000054FF00001BB
:1007680050E700BF90F0000F04BF0021704730B57C
:100778004FF4806404F1320410F0004548BF404251
:100788004FF000013EE700BF42004FEAE2014FEAA6
:1007980031014FEA02701FBF12F07F4393F07F4F81
:1007A80081F06051704732F07F4208BF704793F084
:1007B8007F4F04BF41F40021704730B54FF4607497
:1007C80001F0004521F000411CE700BF50EA01029A
:1007D80008BF704730B54FF000050AE050EA010243
:1007E80008BF704730B511F0004502D5404261EBB3
:1007F80041014FF4806404F132045FEA915C3FF4F4
:10080800D8AE4FF003025FEADC0C18BF03325FEA90
:10081800DC0C18BF033202EBDC02C2F1200300FA41
:1008280003FC20FA02F001FA03FE40EA0E0021FA66
:1008380002F11444BDE600BF70B54FF0FF0C4CF454
:10084800E06C1CEA11541DBF1CEA135594EA0C0F06
:1008580095EA0C0F00F0DEF82C4481EA030621EA41
:100868004C5123EA4C5350EA013518BF52EA03357C
:1008780041F4801143F4801338D0A0FB02CE4FF02E
:100888000005E1FB02E506F00042E0FB03E54FF05E
:100898000006E1FB03569CF0000F18BF4EF0010E56
:1008A800A4F1FF04B6F5007F64F5407404D25FEA52
:1008B8004E0E6D4146EB060642EAC62141EA555105
:1008C8004FEAC52040EA5E504FEACE2EB4F1FD0C47
:1008D80088BFBCF5E06F1ED8BEF1004F08BF5FEAC5
:1008E800500E50F1000041EB045170BD06F0004677
:1008F80046EA010140EA020081EA0301B4EB5C0424
:10090800C2BFD4EB0C0541EA045170BD41F480111B
:100918004FF0000E013C00F3AB8014F1360FDEBF40
:10092800002001F0004170BDC4F10004203C35DA1C
:100938000C341BDC04F11404C4F1200500FA05F39F
:1009480020FA04F001FA05F240EA020001F0004240
:1009580021F0004110EBD37021FA04F642EB0601B6
:100968005EEA430E08BF20EAD37070BDC4F10C04E0
:10097800C4F1200500FA04F320FA05F001FA04F2A4
:1009880040EA020001F0004110EBD37041F1000190
:100998005EEA430E08BF20EAD37070BDC4F120059B
:1009A80000FA05F24EEA020E20FA04F301FA05F203
:1009B80043EA020321FA04F001F0004121FA04F2AB
:1009C80020EA020000EBD3705EEA430E08BF20EA7B
:1009D800D37070BD94F0000F0FD101F000464000B5
:1009E80041EB010111F4801F08BF013CF7D041EA37
:1009F800060195F0000F18BF704703F0004652003B
:100A080043EB030313F4801F08BF013DF7D043EA0B
:100A18000603704794EA0C0F0CEA135518BF95EAC1
:100A28000C0F0CD050EA410618BF52EA4306D1D148
:100A380081EA030101F000414FF0000070BD50EA67
:100A4800410606BF1046194652EA430619D094EAF1
:100A58000C0F02D150EA013613D195EA0C0F05D1DB
:100A680052EA03361CBF104619460AD181EA03012F
:100A780001F0004141F0FE4141F470014FF00000E7
:100A880070BD41F0FE4141F4780170BD70B54FF082
:100A9800FF0C4CF4E06C1CEA11541DBF1CEA135502
:100AA80094EA0C0F95EA0C0F00F0A7F8A4EB0504E4
:100AB80081EA030E52EA03354FEA013100F08880DB
:100AC8004FEA03334FF0805545EA131343EA1263A4
:100AD8004FEA022245EA111545EA10654FEA002659
:100AE8000EF000419D4208BF964244F1FD0404F512
:100AF800407402D25B084FEA3202B61A65EB03056E
:100B08005B084FEA32024FF480104FF4002CB6EB2A
:100B1800020E75EB030E22BFB61A754640EA0C00AA
:100B28005B084FEA3202B6EB020E75EB030E22BFEA
:100B3800B61A754640EA5C005B084FEA3202B6EB2B
:100B4800020E75EB030E22BFB61A754640EA9C00EA
:100B58005B084FEA3202B6EB020E75EB030E22BFBA
:100B6800B61A754640EADC0055EA060E18D04FEA78
:100B7800051545EA16754FEA06164FEAC30343EA18
:100B880052734FEAC2025FEA1C1CC0D111F4801FE5
:100B98000BD141EA00014FF000004FF0004CB6E7DE
:100BA80011F4801F04BF01430020B4F1FD0C88BF7D
:100BB800BCF5E06F3FF6AFAEB5EB030C04BFB6EB88
:100BC800020C5FEA500C50F1000041EB045170BD7B
:100BD8000EF0004E4EEA113114EB5C04C2BFD4EBA8
:100BE8000C0541EA045170BD41F480114FF0000E2C
:100BF800013C90E645EA060E8DE60CEA135594EAA8
:100C08000C0F08BF95EA0C0F3FF43BAF94EA0C0FAA
:100C18000AD150EA01347FF434AF95EA0C0F7FF41F
:100C280025AF104619462CE795EA0C0F06D152EA73
:100C380003353FF4FDAE1046194622E750EA410657
:100C480018BF52EA43067FF4C5AE50EA41047FF468
:100C58000DAF52EA43057FF4EBAE12E74FF0FF3CCD
:100C680006E000BF4FF0010C02E000BF4FF0010C9E
:100C78004DF804CD4FEA410C7FEA6C5C4FEA430C17
:100C880018BF7FEA6C5C1BD001B050EA410C0CBF66
:100C980052EA430C91EA030F02BF90EA020F0020C8
:100CA800704710F1000F91EA030F58BF994208BF2F
:100CB80090422CBFD8176FEAE37040F001007047EC
:100CC8004FEA410C7FEA6C5C02D150EA013C07D143
:100CD8004FEA430C7FEA6C5CD6D152EA033CD3D08E
:100CE8005DF8040B704700BF8446104662468C4688
:100CF8001946634600E000BF01B5FFF7B7FF0028BB
:100D080048BF10F1000F01BD4DF808EDFFF7F4FFE3
:100D18000CBF012000205DF808FB00BF4DF808ED6E
:100D2800FFF7EAFF34BF012000205DF808FB00BF91
:100D38004DF808EDFFF7E0FF94BF012000205DF8B3
:100D480008FB00BF4DF808EDFFF7CEFF94BF012068
:100D580000205DF808FB00BF4DF808EDFFF7C4FF61
:100D680034BF012000205DF808FB00BF4A0011D203
:100D780012F5001211D20DD56FF47873B3EB6252ED
:100D88000ED44FEAC12343F0004343EA505323FAF9
:100D980002F070474FF00000704750EA013002D16E
:100DA8004FF0FF3070474FF0000070474FEA4102A4
:100DB800B2F1E04324BFB3F5001CDCF1FE5C0DD9B1
:100DC80001F0004C4FEAC0024CEA5070B2F1004FFB
:100DD80040EB830008BF20F00100704711F0804FFE
:100DE80021D113F13872BCBF01F00040704741F4C3
:100DF80080114FEA5252C2F11802C2F1200C10FAC7
:100E08000CF320FA02F018BF40F001004FEAC123AA
:100E18004FEAD32303FA0CFC40EA0C0023FA02F34E
:100E28004FEA4303CCE77FEA625307D150EA013324
:100E38001EBF4FF0FE4040F44000704701F00040F4
:100E480040F0FE4040F40000704700BF7BB972B923
:100E58000029BEBF00204FF0004106E008BF00286F
:100E68001CBF6FF000414FF0FF3000F075B8ADF1D6
:100E7800080C6DE904CE002909DB002B1ADB00F011
:100E880087F8DDF804E0DDE9022304B0704740424A
:100E980061EB4101002B1BDB00F07AF8DDF804E080
:100EA800DDE9022304B0404261EB4101524263EBA9
:100EB80043037047524263EB430300F069F8DDF8DF
:100EC80004E0DDE9022304B0404261EB41017047D0
:100ED800524263EB430300F05BF8DDF804E0DDE920
:100EE800022304B0524263EB4303704753B94AB933
:100EF800002908BF00281CBF4FF0FF314FF0FF301A
:100F080000F02AB8ADF1080C6DE904CE00F040F805
:100F1800DDF804E0DDE9022304B07047D0B5002213
:100F28000B4B06460F46FFF787FCFFF71FFF0446EB
:100F3800FFF708FC0022074BFFF77EFC02460B4632
:100F480030463946FFF7C0FAFFF710FF2146D0BDFB
:100F58000000F03D0000F041704700BF10F8012B81
:100F680011F8013B012A28BF9A42F7D0D01A7047DE
:100F7800034611F8012B03F8012B002AF9D1704719
:100F8800034613F8012B002AFBD1181A01387047C1
:100F98002DE9F0478C468E46089E154604461946AC
:100FA800002B40F0D080724547D9B2FA82F74FB192
:100FB800C7F120030EFA07FCBD40BC4020FA03F33A
:100FC80043EA0C0C4FEA154EA8B2230CBCFBFEF802
:100FD8000EFB18CC08FB00F943EA0C43994528D9C5
:100FE800EB1808F1FF3204D2994502D9A8F10202A0
:100FF8002B44A3EB0903A4B2B3FBFEFC0EFB1C338A
:101008000CFB00F044EA0344A04214D92C190CF15B
:10101800FF3304D2A04202D9ACF102032C44241AB3
:1010280043EA02401EB1FC40002334607360BDE80F
:10103800F0874246DDE76346F1E7002A79D0B2FA45
:1010480082F3002B3FD01946C1F1200302FA01F5C3
:1010580000FA01F42EFA03F20EFA01FE20FA03F365
:10106800AFB243EA0E034FEA154EB2FBFEFC0EFB8D
:101078001C201A0C0CFB07F842EA004290455AD98A
:10108800AA180CF1FF3004D2904502D9ACF1020045
:101098002A44A2EB08029BB2B2FBFEFC0EFB1C2208
:1010A8000CFB07F743EA02439F4246D9EB180CF1C1
:1010B800FF3204D29F4202D9ACF102022B44DB1B5F
:1010C80042EA004202E0AEEB020301224FEA154E6B
:1010D800AFB2200CB3FBFEFC0EFB1C330CFB07F875
:1010E80040EA034398452AD9EB180CF1FF3004D2A3
:1010F800984502D9ACF102002B44A3EB0803A4B233
:10110800B3FBFEFC0EFB1C330CFB07F744EA03445D
:10111800A74216D92C190CF1FF3304D2A74202D9E1
:10112800ACF102032C44E41B43EA00400F4611468D
:1011380078E71F2188E76046ABE76246BFE760466D
:10114800DBE76346EFE7734506D916B90021084681
:101158006DE7C6E9000EF9E7B3FA83F787B9734577
:1011680001D3824207D8841A6EEB030301209C4600
:101178001EB900215BE73846FAE7C6E9004CF8E7F4
:10118800C7F1200CBB4000FA07F422FA0CF520FA4C
:101198000CF1BA401D432EFA0CF30EFA07FE4FEA83
:1011A800154941EA0E011FFA85FEB3FBF9F809FB60
:1011B80018300B0C08FB0EFA43EA00439A4540D955
:1011C800EB1808F1FF3004D29A4502D9A8F10200C1
:1011D8002B44A3EB0A0389B2B3FBF9F809FB1833D4
:1011E80008FB0EFE41EA03418E452CD9691808F127
:1011F800FF3304D28E4502D9A8F10203294443EAF9
:101208000040A1EB0E01A0FB02984145CE464346A3
:1012180002D306D14C4504D20138B9EB020E68EB73
:101228000503002EA5D0B4EB0E0261EB030101FA11
:101238000CFC22FA07F3F9404CEA0303C6E9003133
:1012480097E74046C5E74346D9E70000000000009D
:101258002DE9F04704460F46164688B071F08AFE1D
:101268004FF47A75A0FB050C47F6122205FB01C165
:101278000023FFF73BFE012F80460D4607D10246AB
:101288000B462046264961F0A9FE002011E0766849
:1012980024483146FFF762FE70B131462248FFF715
:1012A8005DFE48B120463246204961F0B3FE6FF03A
:1012B800040008B0BDE8F087404617A3D3E900232F
:1012C8002946FFF7C3FD06460D4610461946184A3B
:1012D8000023FFF7BBFD80460F46104619464EF621
:1012E80060220023FFF7B2FD824689461046194660
:1012F8004FF47A720023FFF7A9FDCDE902A9CDE9E1
:101308000623CDE9040132462B462046CDE9008765
:10131800084961F063FEB8E7005C2605000000009C
:1013280079F007008AF007008DF0070096F00700B3
:1013380080EE3600AEF0070070B5044658B9264A6C
:10134800264905200AF0E0FDE06A60B363F075FD08
:101358000023E36227E0C3689B68DD6A0DB12B694F
:1013680013B91D4A1E49ECE7102064F0F1F9E06258
:1013780010B9194A1B49E4E7012304F1140684F85B
:101388003030304650F00CFB2B69206998470546F1
:1013980058B10520104A14490AF0B6FD002301355A
:1013A80084F83030D0D0E06A70BD09A3D3E90023B7
:1013B800304650F0CFFA94F83030002BF3D00520A7
:1013C800054A0A490AF0A0FD84F83050BCE700BF7E
:1013D80076B0100000000000972E0B003D32080088
:1013E800A3390800CA390800F6390800163A080077
:1013F8002DE9F04FD1F88880C3B00C4616461490FA
:10140800B8F1000F01D1D1F88C80D6F888B0BBF1C3
:10141800000F01D1D6F88CB006F1200529461498A2
:1014280067F052FF20B10027384643B0BDE8F08F7F
:10143800149BD3F8F8104B6B33B128461C3168F075
:1014480015F808B10127EFE7149818A904F5C67A2A
:1014580067F021FF002840F04881BDF9EA30002BF1
:1014680000F043819DF9EB5045B9414650469DF83F
:10147800FC209DF9EA5065F0CDFC2D1A42F20F735D
:101488003E9F9F420AD16FF47A6140F265731898C3
:1014980042189A4200F221816FF05B07204666F0FD
:1014A800EEFAD4F888200346EF1B0AB9D4F88C204A
:1014B8000B218DF85F100DF15F010291216D1498D9
:1014C800CDE9007151460FF0D1FD129041465046CA
:1014D80094F8542065F09EFC41463B4694F854200D
:1014E800814650460FF0AEFCF36F594696F85420EB
:1014F800804606F5C6701393D6F864A065F08AFC9A
:10150800129B139A03F59C5308339342834699D34D
:10151800306DB0F57A6F40F3ED80276DB7F57A6FCF
:10152800ACBF0027012763F07BFA28B1206D63F078
:1015380077FA80F00100C0B20AEB0B0315EB09053E
:1015480015931DD50223159A17FB032710FB03706B
:10155800A84215DA1398FFF7F5F8824612988B46D9
:10156800FFF7F0F84FF033329B4BFFF765F902466F
:101578000B4650465946FFF7D1FB00287FF453AF7E
:10158800139B129A03F59C5308339A423FF64BAFCC
:10159800B8F1190F3FF747AF15F1550FC0F2AC80FE
:1015A80015F1500FC0F2AA8015F14B0FC0F2A880B8
:1015B80015F1460FC0F2A680002DB4BF05270227FB
:1015C8001298FFF7BFF8804613988946FFF7BAF8D4
:1015D8000022824B82468B46FFF72EF902460B46C5
:1015E80040464946FFF7B8FB002800F08D800A37CF
:1015F800D4F85080404663F013FA002840F0E080A9
:101608006FF47A6240F26573904498458CBF4FF04E
:1016180000084FF00108D6F85090484663F000FAE9
:10162800002840F0D0806FF47A63994440F26573E3
:1016380099458CBF4FF000094FF00109149BA8EBA6
:101648000908D3F8983C07EB48072BB1AB4203DBFA
:10165800159A9342B8BF023F139A159B1192159A97
:101668005B1B1092326D9F420F9296F825204FF027
:1016780003010E9296F82420D8BF594B0D9296F884
:101688002320C8BF574B0C9296F82220D8BF0127B9
:101698000B9296F82120C8BF00270A9296F82020BE
:1016A8000992129ACDE90752226D069294F82520E4
:1016B800059294F82420049294F82320039294F835
:1016C8002220029294F821201498019294F8202064
:1016D8000092454A0AF056FDA6E663F0A1F90028F3
:1016E8007FF4DAAE6FF05807D8E6D4E91F37656E95
:1016F8001293EBE6002716E7012761E702275FE769
:1017080003275DE704275BE74FF03332324B50463F
:101718005946FFF791F802460B4640464946FFF7FF
:101728001BFB08B1053763E729A3D3E9002350461B
:101738005946FFF781F802460B4640464946FFF7EF
:101748000BFB08B1023753E7DDE91232934201D9A6
:1017580001374DE70022214B40464946FFF76CF818
:1017680002460B4650465946FFF7F6FA08B10A3FBB
:101778003EE74FF03332184B40464946FFF75CF8D6
:1017880002460B4650465946FFF7E6FA08B1053FB0
:101798002EE70FA3D3E9002340464946FFF74CF84C
:1017A80002460B4650465946FFF7D6FA08B1023FA3
:1017B8001EE7DDE91232934238BF07F1FF3717E71A
:1017C8004FF0020827E74FF0020937E7AFF3008030
:1017D8009A9999999999F13F3333F33F0000F83F6B
:1017E8008085080094850800AA850800000000008C
:1017F80010B500240E4B0F491C601C725C600E4B28
:1018080008464B6008A3D3E90023C1E904233AF052
:10181800CBFB8320094B0A490A4AC3E904015A60F1
:10182800204610BDAFF300802CFA02000000D0D093
:101838006C550020E02E0020057B0300C82E0020F8
:101848000000D0D03950030070B4174E0C46B04297
:10185800154608D00136B0420FD0023EB04210D033
:1018680070BC55F017B90AA3D3E90023C5E90023D2
:101878000E4B0020236070BC704707A3D3E90023F8
:10188800F4E707A3D3E90023F0E700BFAFF3008034
:1018980002C0FF7F0000000003C0FF7F00000000BF
:1018A80001C0FF7F0000000002C0FF7F03004E80E0
:1018B80008B5054B05491A68054B0648B2FBF3F213
:1018C8005FF0AEFD002008BDD811002054EB0700E2
:1018D80040420F0060EB07002DE9F041884600AF59
:1018E800002900F084800568012228465FF0E7FAA5
:1018F8000146044628465FF09CFA10EA020319D113
:101908003C48026856070DD06E4688B06A463A4988
:10191800CDE90518032142F8101F4FF4C25102F017
:101928003BF9B546002383F31188BFF36F8F042377
:10193800184602DF214628465FF091FA26183146FC
:10194800002228465FF075FA361AB4421BD029489F
:10195800036859070FD06E4688B06946274BCDE912
:101968000538032341F8103F13460A464FF4C25185
:1019780002F012F9B546002383F31188BFF36F8F85
:101988000423184602DF0022214628465FF06DFA3C
:1019980021465FF064FA26180122314628465FF096
:1019A80048FAC20708D4314628465FF0CAFA3246D8
:1019B800214628465FF03CFB0022214628465FF07E
:1019C80038FA261A0122314628465FF032FAC30750
:1019D80009D4314628465FF0B4FA224631462846F3
:1019E8005FF026FB3446214628465FF03FFBBD46A4
:1019F800BDE8F0810C140020D5EB0700ACEB070024
:101A08002DE9F04F91B0009302F004030293C2F362
:101A1800C2030133840705460E46DDF868A0039229
:101A2800059340F09C81041D002849D101F0070668
:101A3800341DC6F10806009B00274FF004085A1E03
:101A48004FF0FF33B9460193BB46434604970DB1A7
:101A5800009921600598002800F3D6808F480099E6
:101A6800814203D38E488142C0F0CE800399601B27
:101A780011F0020C40F0D680B9F10F0F00F2CF80C0
:101A8800002D00F0D68009F140010DEB010E0199FF
:101A9800C0F387000EF8200C0EF8101CBCF1000FE4
:101AA80000F0C38060F07F000EF8200C013709F1C8
:101AB8000109C5F108014FF6DA7E043406918CE07D
:101AC8000729B8D86FF01B0011B0BDE8F08F7A284D
:101AD8005BD84B280FD8472857D829282ED825282F
:101AE80050D052D8202818BF23280CBF4FF0010B24
:101AF8004FF0000B71E04C382E2846D8DFE800F094
:101B08006D45454545454545454545454845454552
:101B18004545454545564548485656566D486A45D3
:101B28006D4518481845457F7C48454548457C0023
:101B380000204FF0000B4FF0040835E001212A384F
:101B4800C0B201FA00F010EA0E0F46D110F0625C44
:101B58002CD110EA010B40D06046013C4444B4FB50
:101B6800F8F408FB04F425B1A3EB050CA444B44530
:101B7800A8D8002870D00599013905915AF8041B96
:101B8800009164E70199013901914FF0000B24E0BD
:101B980012F8010C6C2834D1002012F8023C83465C
:101BA8006C2BC8D14FF008084346D6E70AF1070A5C
:101BB8002AF0070A073424F00704FAE802BC35B112
:101BC80006982044B0423FF67DAFC4E900BC4FF010
:101BD800000B08344FF00808434612F8010F00289C
:101BE80053D0BBF1000F7FF472AF2528F5D14FF029
:101BF800010B019B013301934FF00408ECE75846B1
:101C080097E700208346A8E7039988077FF551AF37
:101C18004FF0010C601BB0F5007FFFF42DAF6FF0A3
:101C2800150051E74FF0000CF5E7049801300490D7
:101C38003DE7BCF1000F01D0013638E702980236C3
:101C480000287FF434AF0098CDE90632FFF798F901
:101C5800DDE9063206442AE7042B08D10AF104001C
:101C680015B1DAF80010216082460434B5E70AF1AC
:101C7800070323F0070303F1080A1DB1D3E90001A4
:101C8800C4E9000108230834A7E7631BB3F5806F94
:101C9800C5D23DB9A6F10804E01815E78C7A07000B
:101CA800A8490B00029A9B0828602B709DF81030F9
:101CB800AAB1EB70AF702FB1002208A8C5F1010CD2
:101CC80091450ED14FF0000AC5F101030DF120082E
:101CD80001930DF1300BD14512D1601BF4E66B7006
:101CE800E8E710F8013B190608D50CEB040EB645D9
:101CF80003F07F033FF6E6AE04F8013B0132DFE76D
:101D08001FB198F90020002A17DB029BD3B11AF8FB
:101D18000B2004F8012B0022019B18191044B04233
:101D28003FF6D0AE98F80000009904F8010B204661
:101D3800039275F0D0F8039A14440AF1010A08F1E5
:101D48000108C8E798F8002055F822300093029B54
:101D5800009845F82230FFF713F9421CDCE76FF0D2
:101D68000D00B1E62DE9F04F97B000AF05468A4661
:101D7800C7E90A3249B903784678807800EB8300CE
:101D88002844564524D8A0EB050AD7F8803095F8A2
:101D9800028003F00103D7F88040FB61EB78B8F1CB
:101DA800000F0CBF002404F001047B621BB1D7F8BC
:101DB80080309A0715D4A4B9FB6A1BB1514628464E
:101DC800BA6A9847564630465C37BD46BDE8F08F3C
:101DD800441C2046FFF7D4F8013020440AF1010AD8
:101DE800CFE7D7F88030C3F3C0033B622B78BB61E1
:101DF8009B003B616B687B61BB6905EB830BFB6AEE
:101E0800002B7BD15646D844BCB11C461BF8013B7D
:101E180055F82300FFF7B4F8D7F88430013043B100
:101E2800D7F88830A34282BFD7F8843023F814004B
:101E38000134C3450644E9D1D846D7F880304FF07D
:101E4800000913F0050F0CBF4FF0020B4FF0010B08
:101E58007B6A9945B7D298F8013008F1020855F81D
:101E680023A0B04B9A45C0F05081AF4B3A6A9A45CF
:101E78002CBF002301232AB318F8021C7869FB62DF
:101E88005FF078FAFB6AE8B1A848036813F0060F18
:101E980014D0EA468AB06A46A54B05937B69CDE91A
:101EA80006314FF40073ADF82030A24B42F8103FD2
:101EB80000234FF4125101F06FFED546023E09F19E
:101EC8000109C5E723B1FB6933B9A6EB0B06F6E7B1
:101ED800D7F880309B07F2D55046FFF751F8D7F86E
:101EE80084304BB1D7F888309C423FBFD7F8842064
:101EF800431C22F8143001340644E0E7002C6AD170
:101F0800B8F1000F6DD0D7F8803058076CD5C146AE
:101F180007F148004246594674F0DDFF00220BEBFA
:101F28000803FB600233796A8A425FD3D7F88020BE
:101F380095F801B0F969920704EB0B0348BF00223A
:101F4800DBB258BF4FEA5902002940F0A680D7F803
:101F5800801011F0040F14BF494600216B70A9705E
:101F6800EA702846BA6A3969FB6A9847061EFFF67E
:101F78002AAFBB6949462B707B6ABA6AEB7085F851
:101F880001B0FB6A85F8028007F148009847B0F174
:101F98000009C0F2B6803B697A6A786A03EB4201AD
:101FA800FB68414403EB4000BA6AFB6AAAEB0101F3
:101FB80098470028C0F2A7804FF0000BB14409EB06
:101FC800000607F1380AA34569D30021BA6A084612
:101FD800FB6A9847F7E644464FF0000907F13800D6
:101FE80098E74446C14699E7A14697E713F8016C7C
:101FF800DFF830C155F8260013F8021C6045C0F020
:102008008A80DFF824C16045386A2CBF4FF0000B86
:102018004FF0010B38B17869C7E901325FF0AAF9CE
:10202800D7E90132F0B9BBF1000F1ED0F96949B107
:10203800611C04F1280007F13004041904F8206C2D
:10204800CCB20FE0D7F8801049070BD509F128006A
:1020580007F1300C09F1010100EB0C0909F8106CCB
:102068005FFA81F9013202335DE7D7F88000800713
:10207800DED409F1280C07F1300EF44409F101000F
:102088000CF8101C07F1580109F1020951FA80F007
:102098005FFA89F900F8106CE4E700215EE71BF8A5
:1020A8000A3055F8239087F83730D7F884302BB3A7
:1020B800D7F888309B4521D2D7F8843033F81B8075
:1020C8000121BA6AFB6A07F13700984700281ADB32
:1020D8000644B8F1000F06D14846FEF751FF00F15B
:1020E80001081FFA88F841464846BA6AFB6A9847C9
:1020F800002808DB06440BF1010B64E74FF00008E9
:10210800DEE74E465FE606465DE63B6A002B3FF497
:10211800DFAE0023B0E6386A0028A6D04FF0000BE7
:1021280079E700BF8C7A0700A8490B003813002014
:1021380002EC07000400000130B50446EFF31185F6
:10214800202383F31288BFF36F8F044B0FCB84E8EF
:102158000F0085F31188BFF36F8F30BDA81B0020D7
:1021680001281FB50C4605D004281ED06FF01500B5
:1021780004B010BD70F0FEFE47F612220023FEF7F1
:10218800B5FE4FF4FA435A43C4E90001A260684619
:10219800FFF7D2FF694620465FF009F918B90A4BE4
:1021A8000FCB84E80F000020E2E770F0E3FE47F66B
:1021B80012220023FEF79AFE4FF4FA435A43C4E969
:1021C8000001A260EFE700BF5090070001287FB52B
:1021D8000D462DD18A68184B9A4229D870F0CAFE4C
:1021E80047F612220023FEF781FE144B404202FB01
:1021F80003F361EB4101CDE900016846029300F069
:10220800DBF8294668465FF0D2F8EFF31186202301
:1022180083F31288BFF36F8F9DE80F00084D85E8A0
:102228000F0086F31188BFF36F8F002004B070BDD4
:102238006FF01500FAE700BFFFC99A3B0083FFFF64
:10224800A81B0020014B1860704700BF50010020F8
:1022580080B505460E461746984650F057FA03468D
:1022680026F096F80446DFF81890424649F8003000
:1022780039463046A84754F8090025F0D7FF00BF73
:1022880008000000044608B5EFF31183202383F308
:102298001288BFF36F8F46F0E7FF204627F000FD56
:1022A80002485FF0BDF868F09AFCFCE7B6EC07005E
:1022B8002DE9F84340F26C7344690569E11701356B
:1022C800E41841F10001022D8CBF00230123E41A18
:1022D800C76861F100010029064607F1FF374EDAA9
:1022E8006FF4C7704FF4C8720023201861F1000121
:1022F800FEF7ACFD244B4FF03C0E03FB0044D6E93F
:1023080000834FEAE37C99466346032D024634BFB7
:1023180009206FF00200B6680544C6FB0E93A9FBBE
:102328000EC60EFB036640F26D1E9920A3080EFB35
:1023380004333B44642745430520B4FBF7F40235D6
:10234800B5FBF0F51B1B114C1CEB080CA2FB042081
:1023580004FB01012B4446EBE87698180C4A41F13E
:10236800000380180B4A63F10003A0FB020102FB83
:10237800031110EB0C0041EB0601BDE8F8834FF4A4
:10238800C87200232046B3E770FEFFFFB13A02008F
:102398009405F5FF8051010010B5FFF789FF00246F
:1023A800024625F0F5FF0B460249445010461946EF
:1023B80010BD00BF0C00000070B51F4B82689A4228
:1023C80015DDD0E90016013392FBF3F3012976F10C
:1023D80000054FEAE3741CDAC91844EB0604C0E9A7
:1023E8000014164901FB03238360012070BD002AF5
:1023F800FBDAD0E90041124E9B1A0029B3FBF6F331
:1024080010DA01F100459C4275F100050ADA002056
:10241800ECE7CD439D426FF00045A5EB0605A541CD
:10242800DADAF4E706FB0322E41A61F10001C0E9F5
:1024380000418260D9E700BFFFC99A3B003665C4F6
:1024480000CA9A3B08B500F0BBF80C49012241616B
:102458004FF0FF310023C0E906110949C0E9002205
:102468000A600849C0E902330A60074A0361136039
:10247800064A1360064A136008BD00BFC338080047
:1024880078010020740100204844002044440020C2
:10249800404400202DE9F04781468846174600F061
:1024A8008FF8C36804461BB943691A78002A3ED1DD
:1024B8000023E36063684B4558F8232008DB314B61
:1024C8006361204600F060F84FF0FF30BDE8F08708
:1024D800511C616192F800A0BAF12D0FEFD1951C43
:1024E800656156782D2EA66004D1927872B90133B1
:1024F8006360E4E756B9234D51463846656174F088
:10250800CBFE0028DDD05646C4F808A03146384630
:1025180074F0C2FE3A2E00D070B92B7813B96368F4
:1025280001336360204600F02FF83F20CEE75D1CA2
:1025380045611E788660E9E743783A2B0BD0002383
:1025480023612B7813B9636801336360204600F078
:102558001BF8A068BAE72B780A4A33B963680133D5
:102568009945636004DD58F82350C4E90452EAE74A
:1025780062613D7820463A2DD5D100F005F828460D
:10258800A4E700BFC33808000168084A084B116077
:102598004168084A11608168074A1160074AC168A2
:1025A800116002691A6026F0FFBB00BF78010020A5
:1025B8004044002074010020484400204444002086
:1025C80010B525F0E5FE084B084A1958084B934208
:1025D80001D3084805E09868D0F8CC428C4201D174
:1025E800543010BD3033F2E708000000D4890700EA
:1025F800A4890700540100202DE9F04F8BB000AFEB
:102608007B61036805469146D0F81480F9603B6207
:10261800002B4FD013783A2B4CD0974B1B68022BCA
:1026280048D8964A52F823B06B683D21BB61013304
:1026380040466B603B6174F02FFE064600283CD094
:10264800A0EB08037B62013600224FF0FF3492466C
:10265800FA61BA6D7B6902F00402BA60196889BB35
:10266800BAF1000F62D03B6AE3B199F800303A2B17
:1026780018D08348036813F0060F13D06C468AB04D
:102688006A46804BCDE9053B7B6ACDE907387E4B2E
:1026980009937E4B42F8103F0B464FF4425101F02C
:1026A8007BFAA5460023AB603F2420462C37BD4665
:1026B800BDE8F08FDFF8D8B1B6E74046FEF760FC1A
:1026C8007862C1E740467A6A7B60396074F00FFE31
:1026D8007B6808BB39680846FEF752FC7B6A98425B
:1026E80054D07A6D7B6812B17A6A012A14D0621CC0
:1026F80017D0BA68BAB97A69586802EB04125168F7
:10270800884210D19868916888420CD1D968D268FB
:10271800914218BF4AF0010AFA6910330132FA618E
:102728009CE7FC69F8E74FF0010AF5E7631C72D0F3
:102738007B6903EB041ADAF804304BBB002E00F077
:102748008F803A6ADAB199F800203A2A17D04C48B3
:10275800026812F0060F12D06C468AB06A464D49DC
:10276800CDE9051B796ACDE9071847490991474919
:1027780042F8101F4FF4425101F00EFAA546DAF85C
:102788000830002B8ED1DAF80C308CE7FC69CFE7E3
:102798005A1E012A64D846B9012B61D1BB6902339C
:1027A8006B60D7E9033253F822602E61DAF80430FF
:1027B800012B55D1002E53D13B6ADBB199F800307B
:1027C8003A2B17D02E48036813F0060F12D06C4628
:1027D8008AB06A46304BCDF81C80CDE9053B2F4BBB
:1027E80008932F4B42F8103F4FF42251334601F023
:1027F800D3F9A546DAF808305BB9DAF80C30AB60E3
:102808006B68013B6B6099F800403A2C7FF44CAF41
:102818004BE70023F3E77B6D13B1BB696B6044E7BB
:102828003B6A002B3FF43EAF99F800303A2B3FF457
:1028380039AF1348036813F0060F3FF433AF6C4603
:102848008AB06A46174BCDF81C80CDE9053B134B7F
:102858000893134B42F8103F4FF422517B6D1EE74B
:102868003B6D03B11C60DAE90234002B3FF41DAF65
:102878001C60002419E700BF7C010020589607005F
:1028880040140020EAEC07000002020405000002E0
:10289800C338080007ED070031ED07000002010307
:1028A8000400000254ED07002DE9F04F87B00446FC
:1028B800884616461D46129F002B3FD01B782D2BAD
:1028C80030D147F002070135636813B90123E3608B
:1028D800636000232361E3681BB14FF0FF33C4E951
:1028E80006334FF00009DFF83CA207F0020BE3685B
:1028F8001BB963691A78002A70D16268C4F80C9011
:1029080042451EDB874BD4E906014F1C63610ED09C
:1029180033465FF008FAD4E906239A1A63689B1ACB
:10292800636007E02B2BCFD127F00107CBE7451CCD
:1029380018BF60604FF0FF33C4E906334FF0FF3A29
:1029480013E056F822109300616108782D2801D110
:10295800487838BBC4F814A0BBF1000F09D04FF079
:10296800010A01326260F3582361504607B0BDE89E
:10297800F08FF807E2D5A069411C03D1A2610132AA
:102988006260B4E7E1694B1CF9D033465FF0CBF9DC
:10299800D4E9061362685B1AD31AA3614FF0FF33B8
:1029A800E361ECE7A069431C10D14B1C636191F80B
:1029B80001C0BCF12D0F11D1897879B9E169594B62
:1029C80001324D1C62606361B4D0A1E7E369013351
:1029D800EBD1E2614B78002BE7D10B46109A6AB332
:1029E800626856F822209A4228D019782D2918D0E2
:1029F8007B0723D500224C4B3A291A6017D10020B7
:102A0800119BCDE9010700932A4631462046109BC9
:102A1800FFF7F2FDB0F1FF3F82460FD0414B6361F3
:102A2800A3E70122013363613F4B1A60E7E72846B9
:102A380074F032FC003818BF0120E1E7D4F814B074
:102A480028460BF1010262619BF800900592494605
:102A580074F022FCB9F13A0FCA4600F08C80B9F143
:102A68002D0F059A40F085809BF80110002940F051
:102A7800888000283FF462AF109B4178002B3CD03F
:102A8800B9F1570F39D13B2937D19BF80120DFF82D
:102A980094B002BB626801329045626018DC22681B
:102AA800C4F814B062B12A783A2A09D01F480268DB
:102AB80012F0060F04D002214B461D4A5FF000FFBA
:102AC8005723A3602B783A2B6CD14FF03A0A4CE786
:102AD80056F8223063610222134B31461A600023F4
:102AE8000193119B2A4600932046109B0297FFF7FB
:102AF80083FDC4F814B0824637E73A2908D09BF81A
:102B08000130002B7FF431AF6368013363602CE739
:102B1800002121619BF8017002495FB12261616166
:102B2800F2E700BFC33808007C01002040140020F1
:102B380084ED070082783A2AF1D062680132904524
:102B4800626012DC2268616162B12A783A2A09D08F
:102B58001648026812F0060F04D002214B46144AA8
:102B68005FF0AEFEC4F80890ACE756F82230236157
:102B7800D5E7002880D19BF8012012B9626801329C
:102B88006260226862B12A783A2A09D00748026846
:102B980012F0060F04D002214B46064A5FF090FE61
:102BA800C4F808904FF03F0ADFE600BF4014002049
:102BB80084ED07006FED07002DE9F047858B04468B
:102BC800280717460CD501290CBF45F0100545F01C
:102BD8002005A58387F31188BFF36F8FBDE8F087C1
:102BE800022905F0070540F0948020465FF0F9F8C7
:102BF800052864D801A353F820F000BFDD2B00009E
:102C08001B2D0000C72C0000892C0000A32C0000FD
:102C1800B52C000001F007035A1F012A1FD8002213
:102C280021F00701062BD4F8008089B2C4E90022FC
:102C380009D1434603E0E28B0132E2831B68002B93
:102C4800F9D141F002012046A1835FF0CAF84FF0A4
:102C5800000900286DD041F02001A18369E0042B10
:102C68000AD121F0070189B22046A1835FF0B9F8A3
:102C780010B141F02001A1834FF00008C14658E08F
:102C88002369D3F80090A38B23F0070343F00603CE
:102C98004FF00008A38346464BE02369D3F804901D
:102CA800A38B23F0070343F00403F1E72369D3F868
:102CB8000890A38B23F0070343F00503E8E74FF0E0
:102CC8000008C146E7E7012243F00803A38387F31E
:102CD8001188BFF36F8F002A3BD1B8F1000F4AD19A
:102CE800B9F1000F02D020462C49C847EFF31187ED
:102CF800202383F31288BFF36F8FA38B23F008037D
:102D08009BB2A383D9063FD523F01002A28303F018
:102D18000705A669A18B002EBFF67CAF0023994654
:102D2800D4F8008021F00701C4E9003341F0010123
:102D3800A183A38B03F0070AAA4502D0A268002A40
:102D4800C1D1B8F1000F02D1B9F1000FDAD00022D9
:102D5800BAE7A1680029C0D00D680029BDD0334664
:102D6800524620464F68B8471DB12B6829461D4674
:102D7800F3E72B46FAE74146334652462046D8F851
:102D880000805FF05AF8A8E79A067FF523AF23F092
:102D98002002A28303F0070527E700BF6F1E060085
:102DA80037B504460821C06A5FF0BAFA00234FF627
:102DB800FF72104DADF804306368ADF800208DF84F
:102DC8000620E26819182B401344181A60606846F8
:102DD800ADF802105FF0FCF9694620465FF0BFFAD3
:102DE8002046211D5FF0CCF963682B40A36003B037
:102DF80030BD00BF0000FFFF2DE9F7430F468146B5
:102E08000821C06A5FF08CFA80463C68124D241A8B
:102E18003C6004EA0506B4421CD3A0B210B903B062
:102E2800BDE8F08308236A46214648465FF06FF9FB
:102E38000028F4D16946A0B25FF05EFA38B1BDF857
:102E48000230BDF804202E4013441E443C60A4EB1D
:102E58000804E0E70020E2E70000FFFF2DE9F04763
:102E680004468AB000F1140738466FF0DCFBA06A0C
:102E78008368DB689847E06250B9974803685E0743
:102E880003D0964A01215FF088F96FF0150571E1CA
:102E9800A06A8368DB6898470368013B1F2B05D944
:102EA8008D4803685D07F0D08D4AEBE7E368B3F51A
:102EB800803F0BD9884802685407E6D04FF4803227
:102EC80001210092874A5FF005FDDEE7A06A2168CC
:102ED80007AA6DF0FBFE28B17F4803685907D4D0D4
:102EE800814ACFE7E5682DB1089BB5FBF3F203FBF8
:102EF80012552DB1784803685A07C6D07B4AC1E7F6
:102F0800238A012B05D8744803685B07BDD0784A2B
:102F1800B8E7E36A029593F805804FF0FF334FF066
:102F2800FF3238464EF0E8FB0821E06A5FF0F8F916
:102F3800A9460646238A1FFA85FA534544D8238AA8
:102F48004B4500F054819A450BD10299082342461B
:102F58002046891B5FF0E9F818B9204602A95FF0FE
:102F68000FF9204602A9FFF747FF0546002840F061
:102F7800D18002994FEA11494FEA09496160C4F8C2
:102F88000890A3688B420DD80823204603AA5FF057
:102F9800BEF8B8B903AB13F8012B904532D1013014
:102FA8000828F8D1636820466FF30F0302A902933B
:102FB8005FF0E6F842462046E36802995FF0B5F80C
:102FC80000283CDA0546A5E0E1682B04891B13FAC2
:102FD80081F142460823204602915FF0A6F878B1B5
:102FE800204602A95FF0CCF809F1010908234246FE
:102FF800204602991FFA89F95FF097F800289ED0B9
:10300800013597E7A08803A95FF076F9626810B9DF
:10301800911B6160B5E7BDF810A0BDF80E10E06A1D
:10302800C4F8089051445FF07BF948449042A0608E
:10303800EED1BAF1000FEBD06FF01C056AE000F09A
:10304800B0804FF6FF79636806EB0308E3681FFA60
:1030580088F29B1B9A42CDF8088024D300221E4890
:10306800036803F00703002A46D0022B03D9032183
:10307800204A5FF092F8636820466FF30F0302A9B5
:1030880002935FF07DF8204602995FF088F80028E7
:1030980098D1E368A288A3EB46039A423AD1204626
:1030A8005FF07AF98EE708234146204605AA5FF0CB
:1030B8002EF8002886D105A91FFA88F05FF01CF9C0
:1030C80030B1BDF814304B4502D1BDF818300BB102
:1030D800B044BBE70122C2E75C130020C1ED070042
:1030E800E3ED070000EE070029EE070041EE0700B8
:1030F80055EE070078EE0700022B03D903213D4A5D
:103108005FF04BF8616820465FF049F801460028F7
:1031180034D0054638464EF061FB5DBB0123364E80
:10312800A374336803F00703022B23D9238AE268C8
:10313800032100923046314A5FF0CCFB336803F03C
:103148000703022B16D963689AB200921B0C03215D
:1031580030462B4A5FF0BEFB336803F00703022BAF
:1031680008D9A3689AB2009203213046254A1B0C5D
:103178005FF0B0FB28460AB0BDE8F0876368224AD2
:10318800E06813400344A3EB460363601340204602
:10319800A3605FF085F97AE7E26AA36812681344CE
:1031A800A360D4E901318B4208D9424620465B1A14
:1031B8005EF0BBFF0028FFF605AFEDD16168E3685C
:1031C80001EB46029A427FF464AF0F4BA06801EA14
:1031D800030290423FF45DAF20465EF0E0FF002816
:1031E8007FF4F0AE6268084B1A40A26051E76FF0B6
:1031F8002C058FE78DEE07005C130020B4EE070066
:10320800CBEE0700DDEE07000000FFFF2DE9F04FD1
:103218001E46837C04468946904695B06BB96C4837
:1032280003685B0703D001216A4A5EF0B6FF6FF0BE
:103238000C05284615B0BDE8F08FC26A0821104673
:103248005FF06EF8B1B2019010465FF069F8E3687C
:10325800019A0746A3EB82038342C0F0B6801EB1F1
:10326800B8F1000F00F0B180D4F804A0CDF810A098
:10327800204605AA04A95FF0C9F805460028D8D158
:10328800BDF814304B4507D0DDF810A063685345EE
:10329800EED1002E39D1CCE705A91FFA8AF05FF0EC
:1032A8002BF80028F0D0BDF8183066B3B3422CD103
:1032B800B3464FEA1A43BDF816A01B049A44E36AC2
:1032C800CDF800801B685B4203F020030293029B49
:1032D80051465B4528BF5B4620460CAA03935EF027
:1032E80016FF00284DD1039B00981A460CA973F0CD
:1032F800ACFF50B9039B009ABBEB030B1A449A44EA
:103308000092E4D195E7002B93D0002F3CD1BA4628
:1033180004F1140B4FF0FF324FF0FF3358464EF0D4
:10332800EBF9238A9D424DD0D4E901320AEB020120
:103338008B422ED39BB263B3FF230021ADF81E202E
:103348000CA818228DF82230ADF81C90ADF820603A
:1033580073F0E7FD20460CA9CDE90E865EF0EAFF82
:10336800074648B907A85EF033FF204607A95EF074
:10337800F6FF074600B9374658464EF02FFA3D4645
:1033880057E7C2DC054654E7019B1F441FFA87FA3A
:10339800BEE72046FFF704FD3DB9ADF82490CDF80F
:1033A8002880ADF82C608DF82E50204609A95FF0D2
:1033B80077F807460028DFD19DF82E300135002B1D
:1033C800AFD0D8E76FF01B07D6E76FF0150530E7E9
:1033D8005C130020ADED07002DE9FF471E46837CF6
:1033E80004460F469046BDF8309063B929480368F3
:1033F8005B0703D00121284A5EF0CFFE6FF00C0076
:1034080004B0BDE8F0870821C06A5EF089FFE36870
:10341800A3EB4003B3423AD34FF0000A6568019525
:10342800204602AA01A95EF0F1FF0028E8D1BDF804
:103438000830BB4206D102A9A8B25EF05DFF504435
:103448001FFA80FA019B62689A4219D0CA4515D9B9
:10345800BDF80C30C3B1CA4516D3BDF80A10B34243
:103468006FF30F0528BF33464246204629445EF0D5
:103478004EFE0028C4D1BDF80C00C1E71D46CFE7B9
:10348800BDF80830BB42E3D06FF00100B8E76FF039
:103498001500B5E75C130020ADED07002DE9F047F6
:1034A800044607464FF00109DFF84C8094FAA4F56A
:1034B800B5FA85F509FA05F32E0108EB05156FEA4B
:1034C800030A24EA03042B7B63B158F806301B690E
:1034D8006BB94644736803222846196807EA0A0745
:1034E8005FF061F9002CE1D13846BDE8F087284645
:1034F80098470028F6D1ECE79489070010B5002218
:1035080088B00E490E486FF07DFD0022002300248C
:10351800CDE906230E234FF44072CDE90334CDE9FB
:103528000144084B0849009408484EF0EFFD08494B
:1035380006484EF007FD204608B010BD5D35000076
:1035480090200020A938000048840020B81B0020E3
:10355800F5EE070001484EF0C3B900BFE41700209C
:103568002DE9F047804621480F465FF0F8F80646F7
:10357800002833D000252846BDE8F087237B83B197
:103588002368DB680BB120469847636883F8069088
:1035980023681B69D3B963680322204619685FF062
:1035A80002F9013610345445E8D3B8F1000FE2D0DF
:1035B800002DDFD02846FFF771FF0546002FF7D012
:1035C800002140F239106FF0C9FBF1E72046984717
:1035D8000028E0D009FA06F31D43E2E705464FF05C
:1035E8000109034CDFF80CA0DDE700BF5C440020B4
:1035F80094890700A489070008B5034608462BB13B
:10360800044A136000F034FD002008BD6FF0150077
:10361800FBE700BF8001002010B5044C237813B9E4
:1036280003484EF05DF90123237010BD3872002065
:10363800E417002010B5044609485FF090F83CB143
:10364800084BD3E8EF1F0139C3E8E21F002AF8D17D
:1036580005484FF0FFFBBDE8104004484EF040B964
:10366800544400205844002090200020E4170020F3
:103678000022044BD3E8EF0FC3E8E12F0029F9D16A
:10368800704700BF5444002070B5FFF7F1FF0546AE
:10369800074C084EB44200D370BD63685B792BB108
:1036A80023685B6813B12946204698471034F1E730
:1036B80094890700A489070010B5044C04492046E2
:1036C8005DF0BCFF034B1C6010BD00BFEC12002076
:1036D800649607004C44002000230E4A10B513706E
:1036E8000D4A0E4913600E4A0E481360FFF784FF17
:1036F800FFF7E2FF00F080F90B4B0C4918468B42AC
:1037080000D310BD1A1A5C681211013222711033ED
:10371800F5E700BF397200205444002040420F00F2
:10372800584400206327060094890700A4890700ED
:1037380001460022002301485DF0A1BFEC120020E1
:1037480001485EF038B800BFEC120020024B014679
:1037580018685EF08BB800BF4C44002001485EF04A
:10376800C0B800BFEC1200202DE9F041354B1B78A2
:10377800002B64D0FFF7E4FF044600285BD1324BEE
:10378800324D1B68002B19DD6FF0F4FB4FF47A768D
:10379800A0FB060747F61222002306FB0171FDF77E
:1037A800A5FBD5E90032C01A40F2E93361EB02010A
:1037B800984271F1000101D3FFF766FFD5E90032A5
:1037C80013F57A7342F10002C5E90032002C36D0B5
:1037D800BDE8F041FFF7C2BF6B685B793BB1217868
:1037E8004B0713D52B68214628461B689847103588
:1037F8004545F1D32046FFF7A9FF154BD3E8EF1F46
:103808000139C3E8E21F002AB9D0F7E72046268825
:10381800C1F3C20700F09EFAC6F382160246002ED4
:10382800E0D00028DEDB01233946284600F08EF977
:10383800B042DCD3D6E7074DDFF81C80D8E700207C
:10384800BDE8F08138720020544400208820002010
:103858005844002094890700A489070070B50D4DCD
:10386800297861B90120FFF77BFE0B4C0B4EB4425F
:1038780006D3FFF779FF0028FBD101232B7070BD19
:1038880063685B791BB1236820469B6898471034AE
:10389800EDE700BF3972002094890700A48907006A
:1038A80000212DE9F8430846FFF75AFE044648B3BD
:1038B80040F21B684FF0000924F06AFD1A4B1B4ABE
:1038C8001B58136033B11A4B1B68092B02DD1948CA
:1038D8004EF006F80025184F44B12046FFF7DEFDEC
:1038E800044618B94FF0FF384FF0FF39FFF73CFF97
:1038F800064628B9B5B90F4842464B464EF02AF855
:103908003546E9E74FF0FF384FF0FF39D4E72B6829
:103918009B691BB100222846114698471035BD42C5
:10392800F5D3E8E7054DFAE7080000005044002009
:1039380058440020E4170020A48907009489070050
:1039480013B518485EF00BFF174B1B7873B1EFF3F4
:103958001184202383F31288BFF36F8FFFF704FFCE
:1039680084F31188BFF36F8F02B010BD0F4B1B6833
:10397800002BF9D050B9002200230D48CDE90023CF
:1039880047F6122200234FF02DFAEDE70928EBD174
:1039980007484FF05FFA074802B0BDE810404DF005
:1039A8009FBF00BF584400203972002050440020B7
:1039B80090200020E417002010B5064B04461B6831
:1039C80098472146A06004485DF0D6FEBDE8104047
:1039D800FFF7B6BF80010020EC120020044A054B17
:1039E8009B1AB1EBD30F34BF52F831000020704757
:1039F80024870700948907000021084B084A0948D2
:103A08009B1ADB08994200D170470268013122F005
:103A1800070242F0030240F8042BF3E794890700F9
:103A28002487070034130020F8B5064600240A4FFF
:103A38000A4BDB1BDD08AC4203D14FF0FF342046B4
:103A4800F8BD57F8340020B13146FDF787FA002851
:103A5800F5D00134EFE700BF2487070094890700F9
:103A680000282DE9F047884615461F461DDA4FF015
:103A7800000A5446DFF89090244EA6EB0906360952
:103A8800B24509F1100902D12046BDE8F08759F87E
:103A98000C0C3B462A4641460079FFF7E1FF844279
:103AA80038BF04460AF1010AEAE7194B194AD21A43
:103AB800B5EBD20F26D203EBC5031C79BC4228BF55
:103AC8003C460722144EC0B200EB400056F82530A1
:103AD800824023EA020304F00702824013430021D4
:103AE800032223FA02F000F00700814202F10302E8
:103AF80038BF01461E2AF4D123F007030B4346F8CA
:103B08002530C1E70024DCE794890700A489070071
:103B1800248707009489070034130020F8B5064667
:103B28000F460024074D084BED1AED08AC4200D3B0
:103B3800F8BD002122B23B46304601345EF02BFE30
:103B4800A4B2F3E7948907002487070070B141689D
:103B5800097973B1002A17DBCBB20C4903EB430395
:103B680051F82200D84000F0070070474FF0FF31AD
:103B7800EFE707490748401AB2EBD00F3ABF01EB0D
:103B8800C201087918467047042070473413002092
:103B980024870700948907002DE9F04F8FB0C1F3FF
:103BA8004A2604AF0D469046B8607B600C0D002E87
:103BB80065D04FF000090A234FF0040B07F1140AEF
:103BC800FE60C7E90799C7F824900093CDF808B0BC
:103BD800CDF804A007F11C034A464046F968FEF7F1
:103BE800C1F8B0F5006F034620D32948036813F0E5
:103BF800060F17D06C468AB0D8F8041004AB254DD0
:103C08001A46C3E9055140F2FF71D9614FF40071BA
:103C18001984214B42F8103F4FF412514B46FFF7DD
:103C2800BBFFA5462C37BD46BDE8F08FC0F30A069A
:103C380004F11700184420F0070080083B60FFF7E4
:103C480077FD66F35325044680B13B6800F1100107
:103C5800C7E908390A23F961CDE901AB0093404669
:103C68000E4AF96807F11C03FEF77CF866F3532542
:103C78002A4620467B68B9685EF0C9FDD2E704F1A0
:103C8800170020F007008008FFF752FD0446EDE713
:103C9800641300200AEF070004000001E92706006A
:103CA8002DE9F04F87B00546DDE9106BDDE9127AA2
:103CB800884614469946DFB110213B465A460020F3
:103CC800CDF800A0CDF814A0FDF79AFEB0F5006F6E
:103CD80001460FD31D48036813F0060F32D040F297
:103CE800FF7302211A4A07B0BDE8F04F5EF0E8BD45
:103CF8003946384604F0070305F00704E40044EAAF
:103D0800831444EA402444EA065406F117000844A0
:103D180020F0070080080391FFF70AFD054640B12F
:103D28003FB13B465A460399CDF800A01030FDF745
:103D380067FE4B4622464146284607B0BDE8F04F8D
:103D48005EF065BD07B0BDE8F08F00BF64130020CA
:103D580049EF0700406820B1034BC01A40F38F00B9
:103D680070474FF0FF307047341300200EB403B58E
:103D780003AB53F8042B01460448019324F048FD93
:103D880002B05DF804EB03B0704700BF2B290600B2
:103D9800CA0605D48B064CBF02490349FFF7E6BFA4
:103DA800704700BFB6F30700030408002DE9F04F81
:103DB80089B098469DF85090159B044606930D4689
:103DC800DDE916A3189F05920493B9F1000F00F0DE
:103DD800B08007F4807307935EF0DBFC07F0020BFA
:103DE8000246002874D020467749FFF7BFFF0646F1
:103DF800BBF1000F08D017F0440F6BD12A462046BC
:103E08007249FFF7B3FF064407F0010353B1704B43
:103E1800204653F829206F4B6F49002A08BF1A46DD
:103E2800FFF7A4FF07F48073002B07F0080318BFFF
:103E38004FF00008002B79D0684B204653F8292012
:103E48006749FFF793FF0546059B2BB11A462046A5
:103E58006449FFF78BFF0544B8F1000F05D04246CF
:103E680020466149FFF782FF054460483544069BB8
:103E78001BB122465E495DF04CFA049B002B00F012
:103E88008E80DDF810803946B8F1100F204628BF23
:103E98004FF010080026FFF77BFFB54250DC0026E4
:103EA800334620461AF803205249FFF75FFF0136D0
:103EB800102E4BD0710703D120464F49FFF756FF0C
:103EC80046453346EDD320464C49FFF74FFFEEE712
:103ED80006468DE74A4B1868002894D0494B4FF4A2
:103EE8007A7B1B684FF03C0CB5FBF3F5B5FBF0F1A2
:103EF8004FF4616300FB11550BFB05F5B1FBF3F2C1
:103F0800B5FBF0FE03FB121100FB1E55B1FBFCF3E1
:103F18000BFB05F5B5FBF0F50CFB131120460091E2
:103F2800CDE901E53849FFF721FF6CE707F00805FF
:103F38008AE7B8F1010F4D460CBF2C48334896E785
:103F480020462D49FFF712FF0136A6E70026204636
:103F58002F49FFF70BFF33461AF803202046A2F13A
:103F680020035F2B28BF2E222A49FFF7FFFE0136C8
:103F7800102E0DD0720703D120461F49FFF7F6FE19
:103F8800B0453346E8D820461B49FFF7EFFEEEE779
:103F9800049BC244B3EB080304937FF472AFB9F1F6
:103FA800000F0AD0FB0704D520460A4A0A49FFF742
:103FB800DDFE39462046FFF7EBFE204609B0BDE896
:103FC800F04F5EF0A1BC00BF43EA080086EF07008F
:103FD8007896070081EF0700705E08008C9607004E
:103FE800ABEF0700B1EF0700B5EF07002B2906007C
:103FF80019880200BAEF0700720509007005090068
:1040080064440020604400208FEF0700592906000F
:10401800C0EF070081ED070042F20F7373B58B42C2
:1040280028BF0B4605680446052168460D4A5AF024
:104038001FFE0646636828460B225B680A495EF045
:1040480055FC63683246694628465B685EF04EFC5C
:1040580063681B2228465B6804495EF047FC02B08F
:1040680070BD00BF747A0900F2D40900D6D40900E3
:1040780000210123064A904206D8064A01B90123C5
:104088001360054B18607047012140085B00F2E798
:1040980040420F006044002064440020014B03604C
:1040A80000207047A096070070B5104B0D461C689D
:1040B800B4B10F4B196800238B4202DB6FF001008B
:1040C80070BD224612F8106B864202D014460133A6
:1040D800F2E7E0686EF070F928B100202C60EFE795
:1040E8006FF00C00ECE76FF01200E9E784010020A4
:1040F800A096070010B5436888B0029383680C4601
:10410800CDE9033200230A68C068CDE906230549D2
:1041180001AA05936CF0DEFD079808B9059B23609A
:1041280008B010BDE32906002DE9F0410C4B054607
:104138001C680E4617467CB100F0F2F8636820460A
:10414800D3F8108032463B462946C047044600F063
:10415800F1F82046BDE8F0816FF00104F9E700BFEF
:104168006844002000230360044B5A6812B9C3E96D
:104178000000704710605860704700BF6C44002012
:10418800014B1860704700BF684400201FB5CDE997
:104198000101039200F0C4F8074B1C6824B900F031
:1041A800C9F8204604B010BD636820461B6801A901
:1041B80098472468F2E700BF6C4400200022024BB5
:1041C800C3E90022704700BF6C4400200022024B64
:1041D800C3E90022FFF7F2BF744400202DE9F7433A
:1041E80007460C4609B100230B6000261E4DDFF878
:1041F8007C904D450FD31E4B1D6885B355F8188C20
:104208003846414601AA183D5EF026FC10B3D6B9DF
:1042180014BB2E461EE0D5F800803846414601AA58
:104228005EF01AFC50B116B954B92E4606E00022C9
:10423800404631685EF010FC0028F5D11835D8E703
:10424800019B2360F1E70022404631685EF004FCE0
:104258000028DDD1AD69D0E7019B2360D9E730465E
:1042680003B0BDE8F08300BFA4890700A489070054
:10427800744400202DE9F04784B002AFD7F82890A5
:1042880004460D46164698467860B9F1000F07D0E7
:10429800D9F8001051BBD9F804A0BAF1000F2CD1FD
:1042A8002046391DFFF79AFF28B34346D0F80C90F3
:1042B800324629467868C8470346E0B1154802687F
:1042C800520718D06D468AB002AAD3614FF4007322
:1042D80011491384114BC2E9051442F8103F002319
:1042E8004FF41151FFF758FCAD4604E03A1D5EF05B
:1042F800B3FB0028CFD1002007E0D9F808303246B8
:104308000093294643467868D0470837BD46BDE83C
:10431800F08700BF2C140020E2EF07000400000122
:104328004FF0FF324FF0FF3301484DF0E5B900BFC1
:10433800EC16002001484DF051BA00BFEC160020E1
:1043480038B5094DFFF7ECFF2B785BB9FFF73EFF57
:1043580000F068F8044608B901232B70FFF7EAFF5C
:10436800204638BD0024F9E73A7200202DE9F043D1
:1043780006460F46048F99B00134A4B200F108082C
:10438800651EADB2B5F5004F47D04A23294605AAA8
:1043980040465EF0C9F904F57F543F34A4B2814623
:1043A8002146012340460DF10B025EF0BDF9B9F13B
:1043B800000F014610DC002810DC338FAB4209D116
:1043C80032466B1E22F8383F4FF400410223404624
:1043D800FEF71CFF2C46D3E7002808DC2946404698
:1043E8005EF09EF9214640465EF09AF9E5E709F14C
:1043F80060030DEB03090023094A09F84C3C05A8A2
:10440800009703ABCDF80C80ADF81040FFF732FFF2
:104418000028DFD019B0BDE8F0830020FAE700BF1C
:10442800AD2A06007FB50123694603200193FFF7F3
:104438003BFE044660BB032002AA01A95EF0EFFA26
:10444800044610B110F10C0F22D10399B1F5803F49
:1044580023D200231846009A9468084484421AD349
:104468000133082BF9D10E4D69612B835368284617
:10447800AB60D368EB635EF0ABFB044640B9094E12
:1044880028466E60FFF76EFE28466E60FFF778FEDE
:10449800204604B070BD9BB2E5E76FF02004F7E753
:1044A8007C440020E496070010B504466DF01FF820
:1044B8000349024620465EF091FD002010BD00BF72
:1044C80027F0070037B513460022044601920A2157
:1044D800586801AA01F016FE019D95B947F6122CFD
:1044E80020EAE074294640F2E7304FF47A7200235C
:1044F800E4FB0C01FCF7FAFC6EF030FC284603B034
:1045080030BD2A46204602495EF084FD019DF5E74C
:1045180053F0070008B5034A03495EF05FFD002029
:1045280008BD00BF40F1070046F10700F7B5174680
:10453800002305460A2101AAB868019301F0E2FDAB
:104548001749C6B228465EF057FD019C44B1224681
:10455800284614495EF05EFD019C204603B0F0BD7C
:10456800042E09D9324628460F495EF053FD2846E5
:104578005EF09DFD0124F0E77868FFF755FA021E0A
:1045880007DA28467A6809495EF044FD6FF0150499
:10459800E3E733462146204612B25EF0FCF8DCE73A
:1045A80069F10700CFF10700F6F107000DF20700E7
:1045B800002307B50090694604488DF804304EF092
:1045C80001FA9DF8040003B05DF804FB2B2C0600EB
:1045D80038B50446EFF31185202383F31288BFF31F
:1045E8006F8F44F02DFE024685F31188BFF36F8F5D
:1045F800064920465EF0F2FC204605495EF0EEFCD6
:10460800214604484EF0F8F9002038BD91F2070021
:10461800B0F2070021460000F0B599B004460D46F7
:10462800D0F8B4606EF06BFA034623F0B1FE314A5D
:104638001158314A3148002B18BF1A460092304AA7
:1046480023468C4218BF024628462E495EF0C6FC17
:10465800D4E90A23CDE90023284694F90E30A2892B
:1046680029495EF0BBFC202210A920464DF07AFCB7
:10467800E36F0246254928465EF0B0FC04A92046AF
:104688006EF058FA07460AA86EF05EFA07431DD185
:10469800DDE90A236421049FDDF814E0A7FB010C7F
:1046A80001FB0EC1FCF722FC3A460346184928468E
:1046B8005EF094FC20460AA96EF032FA024650B128
:1046C800284614495EF08AFC19B0F0BD2846124904
:1046D8005EF084FCEEE764220A9B2846F11A4A43FE
:1046E800B2FBF6F20091CDE901620C4932465EF068
:1046F80075FCE9E708000000BAF207007205090036
:104708006ACD0800BDF20700C9F20700F5F20700FC
:104718000CF3070054F3070031F3070081F3070097
:1047280030B5044691B008AD20220021284672F029
:10473800F8FB1A222021284672F0F3FB2146104884
:104748004EF05AF907AA4FF400610E486EF0D9F9F5
:104758006423079A2046C2F500614B43DB0A0593A0
:104768004FF400630095CDE90313CDE90132064902
:104778000023044A5EF032FC002011B030BD00BFB7
:1047880095470000C8970420CDF3070070B504468C
:104798000D46D0F8B46088B007A96EF0C1F902469A
:1047A80028B128460E495EF019FC08B070BD2046B5
:1047B8006EF0A5F96422079B0096F11A4A43B2FBF2
:1047C800F6F2CDE90131074BCDE90362002818BFA5
:1047D80003462246284604495EF000FCE5E700BF90
:1047E80054F30700BAF2070016F4070038B5134669
:1047F80005461022002158685AF0F8FA0446FFF7D7
:10480800D7FE38B9224628460D495EF003FC6FF002
:10481800150038BD23F0BCFD0A4B1B589C4204D13F
:10482800284609495EF0F6FBF1E720464DF090FD79
:104838002846224605495EF0D1FB0020E9E700BF83
:104848007AF407000800000095F40700BDF407009B
:1048580038B5134605461022002158685AF0C6FAA2
:104868000446FFF7A5FE38B9224628460D495EF0F2
:10487800D1FB6FF0150038BD23F08AFD0A4B1B5899
:104888009C4204D1284609495EF0C4FBF1E7204662
:104898006EF0CEF92846224605495EF09FFB0020BF
:1048A800E9E700BF7AF4070008000000FCF40700FD
:1048B80022F5070038B5134605461022002158682E
:1048C8005AF094FA0446FFF773FE38B92246284690
:1048D8000D495EF09FFB6FF0150038BD23F058FDC1
:1048E8000A4B1B589C4204D1284609495EF092FBAA
:1048F800F1E7204623F09AFC2846224605495EF057
:104908006DFB0020E9E700BF7AF40700080000000B
:104918005DF5070082F5070010B50C4600215EF032
:104928002DFE00B100680023024A2060C4E901237B
:10493800E36010BD8FF6070010B50C4600215EF04D
:1049480021FE00B100680023024A2060C4E9012367
:10495800E36010BD8FF6070070B505465068144631
:104968005EF014FE064640B9626828460F495EF0BC
:1049780051FB6FF01204204670BD6DF01DFD30B183
:1049880062680B4928465EF01BFB0024F3E73046BB
:104998006DF009FD6268044628B1034605492846BA
:1049A8005EF038FBE7E70449ECE700BFBAF507001B
:1049B800CFF50700F1F507001EF607002DE9F04FC7
:1049C8008FB0044601A8884691464CF083FB019FAE
:1049D80008212D4A07EB401720465EF0E4FA019EB5
:1049E800BE4203D300200FB0BDE8F08F35680DB18B
:1049F8002B7833B933463021244A02A85AF038F9C3
:104A080002ADB8F1020F07D12846D9F8041072F0A8
:104A1800B5FC08B92036E3E72B46082120461C4A96
:104A28005EF0C1FA30466DF0C7FC1A4A1A4B0821ED
:104A3800002808BF13462046184A5EF0B4FAF36906
:104A4800002BE7D01D68002DE4D02B68002BE1D0A7
:104A580008212046124A5EF0A6FAAB464FF0000A3B
:104A68002B68534505D8082120460E4A5EF09BFA6C
:104A7800D0E7082120465BF8043F0B4A5EF093FA22
:104A88000AF1010AECE700BF48F6070052F60700F2
:104A9800D3960800F0A6080042F6070020FC08009C
:104AA80057F60700B6F30700457F0900F7B51378F6
:104AB80006463A2B0F46154614D1541C23783A2B38
:104AC80028D101340A22204601A95AF01BF9019A7B
:104AD8000346A242386017D01078A8B93C2B15D9E4
:104AE80015490EE00A22284601A95AF00BF9019C43
:104AF800B860AC4208D023783A2B05D1172807D9DB
:104B08000E4930465EF086FA6FF0150003B0F0BD2E
:104B18000134D3E70A22204601A95AF0F3F8019B91
:104B28007860A342F0D01A783A2AEDD13B2801D90F
:104B38000349E6E75C1CC5E7F7F60700D9F6070066
:104B4800E7F607002DE9F0410D4694B006A90446A2
:104B580001201746FDF704FB0BA906A859F0A4FF8E
:104B6800032D55D17D680A22284605A95AF0CAF8AE
:104B7800059E8046B54215D032782D2A12D10136CD
:104B88000A22304605A95AF0BDF8059B9E4209D075
:104B98001A782D2A06D1451E0B2D0CD92E492046F0
:104BA8005EF038FA20465EF082FA6FF01505284666
:104BB80014B0BDE8F0815E1C0A22304605A95AF0FF
:104BC800A1F8059B9E42EDD01B78002BEAD1431E2D
:104BD8001E2B01D92149E2E7A8F26C73CDE90F53E6
:104BE800BA680E9020460BA9FFF760FF0028D9D1BC
:104BF8000BA8FDF7D1FBB1F1FF3F08BFB0F1FF3FB4
:104C0800CDE9060108D1204615495EF003FACCE744
:104C1800022DC7D17A68E5E700230893012006A989
:104C2800FDF7D4FA054628B102460E4920465EF043
:104C3800F1F9BAE70B9B109A03930C9B2046029359
:104C48000D9B094901930E9B02F26C7200930F9B16
:104C580001335EF0C3F9AAE707F7070016F7070064
:104C680023F707004CF7070063F7070010B5044661
:104C780092B004A90120FDF773FA09A904A859F014
:104C880013FF099B0E9A03930A9B204602930B9BE2
:104C9800064901930C9B02F26C7200930D9B013341
:104CA8005EF09CF9002012B010BD00BF63F707004A
:104CB8002DE9F04114468846074610220021606815
:104CC8005AF094F8B8F1020F06461CD90A220021BE
:104CD800A0685AF08BF8C5B22A4638461E495EF0DD
:104CE8007DF9B8F1030F1DD8102D0ED0202D0FD04F
:104CF800082D0FD13278D2B20023384617495EF01A
:104D08006DF900200CE02025E6E7328892B2F3E73F
:104D18003268F1E7384612495EF060F96FF0150025
:104D2800BDE8F0811022E06800215AF0C5F80B4672
:104D3800024604460B4938465EF050F9102D06D05D
:104D4800202D07D0082DE5D1E4B23470D9E7A4B2FC
:104D58003480D6E73460D4E7AEF70700D9F7070008
:104D6800C3F70700ECF7070000232DE9F047914649
:104D78004FF0FF35012286B00193514B0746884614
:104D88001A602026FDF75EFB2C46494640464D4AF0
:104D9800FDF780FB431C06D1691C41D14A493846BE
:104DA8005EF038F917E073281AD0772828D06128E0
:104DB80011D1DFF818A11021DAF8000001AA01F0DA
:104DC800A1F9019B0546002BDFD0DAF80020404905
:104DD80038465EF01FF96FF0150006B0BDE8F087A1
:104DE800DFF8E8A00021DAF8000001AA01F08AF94A
:104DF800019B0446002BC8D0DAF800203549E7E7C4
:104E0800DFF8C8A00021DAF8000001AA01F07AF959
:104E1800019B0646002BB8D0DAF800202E49D7E7C8
:104E2800621C01D12D49BAE75FFA86F8A8F1080398
:104E3800DBB2182BC6F3C40604D8294A22FA03F3B6
:104E4800DB0723D44246384626495EF0C7F8C2E756
:104E5800B8F1100F21D0B8F1200F24D0B8F1080F05
:104E680001D10A781A70314433444218102AEFD914
:104E7800102CA14628BF4FF0100929464B4638464A
:104E880002AA01F015F81035A4EB0904B4B1A64242
:104E9800EED8294602AB701BE7E70A8892B21A706F
:104EA800120A5A70DFE70A68C2F3072C1A70120C4C
:104EB8009A70120A83F801C0DA70D4E720468CE7AA
:104EC800740100203CF8070043F807004044002024
:104ED80002F8070015F8070028F8070060F807002F
:104EE800010100017AF8070070B50E4E04460D4620
:104EF800337829B123B10C49BDE870405EF08AB817
:104F080083F0010333702BB1204608495EF066F840
:104F18000123337029462046BDE8704000225EF028
:104F2800E0B800BF3B72002094F80700CFF80700F4
:104F38002DE9F04105460C46DFF8EC803B4E8F1812
:104F4800A74201D1BDE8F08198F8002014F8013B90
:104F5800182A22D1112B20D10026354C2846226848
:104F6800344988F800605EF039F828463146FFF782
:104F7800BBFF314B18780028E4D1304A2368116808
:104F8800042B2EDC08B12360116013F003012FD12C
:104F9800126813681BBA1360D4E7A3F13002092A18
:104FA80088F8003004D923F02002413A052A04D8B1
:104FB8003168234A5354013131603368022BBFD121
:104FC800102200211E4859F011FF1E4A136803F8E9
:104FD800010B1360164A1368013313600023336012
:104FE800AEE70868043B00BA41F8040B0120C7E7A4
:104FF8005B4203F0030358BF5942022904D11268E7
:1050080013885BBA9BB2C6E703299BD11068026874
:105018001104C2F3074301F47F010B4302F47F42FA
:10502800134303608EE700BF3C720020BC4400209D
:10503800C0440020F9F807003D720020C444002055
:105048003E720020C84400202DE9F8430023804622
:1050580017460D462549264E0B60264933700B60CE
:10506800012DB94657F8044F1DD90222204622497E
:1050780072F03DF970B9A378003B18BF01231C44B6
:10508800022220461D4972F032F928B901233370F3
:10509800013DE5E70023F2E720461749FBF75EFFED
:1050A800C0B909F104090022D9F80400114659F0E1
:1050B8009DFE0022124B11461860D9F8040059F0E1
:1050C80095FE104B104918604046FFF70DFF002071
:1050D800BDE8F88323782D2BE5D16378002BE2D047
:1050E8002246404609495DF079FFD1E7BC440020DB
:1050F8003D720020C0440020A6ED070013F9070008
:10510800C8440020C4440020394F000016F90700A5
:1051180007B509486DF050F958B104233A220093B5
:1051280005490123054800F017FF002003B05DF88A
:1051380004FB6FF01200F9E75C7C0700A489070004
:1051480010B54468C4E90012A360426840211346C0
:1051580053F8404B51635362002302F13801C2E90E
:1051680004130821C2E90A33C2E906331363116242
:10517800C2F8B830A36823B11B6C13B120460449A8
:105188009847A3681B6A0BB120469847002010BDBA
:105198009D5100002DE9F74F05460C468368DB6BEF
:1051A80003B19847AB68DB6A002B35D14FF0000894
:1051B800DFF810A104F12409218E238D626B5B1A9C
:1051C8009BB2D31A934204F1280B28BF13465946C1
:1051D800484601AA5CF003FF0746002841D0AB68A7
:1051E80001991B69002B37D0024628469847064686
:1051F800002818BF48F001083246594648465CF076
:1052080024FF0EB1BE42D7D0B8F1000F08D0D4E9C0
:1052180001310020984703E0284698470028C5D167
:10522800AB68DB6993BB628BE38A04F110079B1AB6
:10523800226A9BB2934204F11A0828BF13464146DA
:10524800384601AA5CF0CBFE064630BB28465DF026
:10525800FEFCC4F8B8602CE06FF057064FF0010868
:10526800CAE7DAF8003013F0060F04D002215046DE
:10527800154A5DF01CFBAB681B69002BC4D00122EA
:1052880028460DF1030198470646BAE7284698478D
:105298000028C8D103B0BDE8F08FAB680199DB687E
:1052A80063B10246284698470246414638465CF0B4
:1052B800CCFED4E9013101209847EBE76FF05702A3
:1052C800F3E700BF3414002073FA070010B5044652
:1052D8008168183101F0A2F9A1682046BDE81040A4
:1052E800014A183101F03AB9B5FA070038B58368B0
:1052F8000446D3F8A032DB051DD4C0695EF08EFCED
:10530800606803685B689847054620B9E0685EF006
:1053180060FEA3681D75A3685B6C13B1294620461F
:105328009847002223F034F8A368C3F8CC22034B33
:10533800185822F07BFF6FF00F05ECE7080000001B
:1053480001495DF0FEBC00BFB6F307002DE9F04F40
:10535800B1B004467C22002111A871F0E2FD0023BF
:10536800CDE90533A36820467C3302935EF029FA21
:1053780020465EF06CF910B96069FFF7E1FF00267E
:105388004FF0FF38B246B3463546B146A0681422FE
:105398000021183071F0C5FD20465EF0B4F8A16810
:1053A800E068B1F874207C315EF0D8FD20465EF0EC
:1053B80039FE11AF0396DDE90532012A67D01D2BAE
:1053C80068D8B8F1000F2AD1BBF1000F09D02046E8
:1053D8005EF049FEA2681E237C3211A905A85DF083
:1053E80032FFB9F1000F0CD099F81130FE2B08D11B
:1053F800059B30AA02EB830252F87C2C0AB10133D8
:105408000593A5686B6A002B40F0B280CEB1EB69BA
:10541800B34225D12046FFF759FF012513E00223A7
:105428003946029A06A85DF00EFF7A680699034687
:10543800029231B101290AD148B1694A20465EF089
:105448006BFA6FF00705284631B0BDE8F08F059B71
:10545800002B2ED038685EF0D0FC78B146B1A56834
:105468000D9618350CAE0FCE0FC533682B60D1E7FB
:105478005C4A012120465EF04FFAE2E7059BC3B182
:10548800294620463A6801F09DF9022809D1059B72
:105498001D2B99D9069B022B96D10121524B534AB9
:1054A800CCE7032805D0059B4FF0010B013305938A
:1054B80081E7039B2BB94846396807AA5DF09AFF34
:1054C8000546043708F1FF38A5B3EB68BBF1000FB8
:1054D80008D0FBB120465EF074F920465EF0CEF8A5
:1054E800434AC6E7B3B1AE46A368DDF814A003F19A
:1054F800180CBEE80F00ACE80F00DEF80030CCF85E
:105508000030AB6833B96B7CFE2B04BF95F8108074
:1055180008F1FF38D5F804C0BCF1000F08D0AE463A
:105528000CAEBEE80F000FC6DEF8003033606646EA
:10553800A94603E0059B63B101230393B8F1000F6B
:1055480003D1069B022B7FF436AF059B01330593ED
:1055580031E7A368DB6A13B1DB68002BECD1254B7C
:10556800012100932046119B234A5EF0D5F9E3E719
:10557800059E95F82830A6EB0A06BBB14FF6FF72D8
:1055880095F82910FF2918BF0A469E4202D31344F2
:105598009E420BD9AB6901212046184A5EF0BCF93E
:1055A8002046FFF793FE6FF015054CE7FCF74AFF1E
:1055B8000121A0685DF0E4FBA0685DF0D5FBA3685D
:1055C80011AA31465B6A02EB8A02204698470546D3
:1055D800A0685DF0CDFB0021A0685DF0D1FB32E74B
:1055E800C3FA0700D7FA070038FB0700FF3909009C
:1055F800F5FA070024FB0700D2EA08005CFB070065
:10560800F7B5044680680D46817D002949D1D0F858
:10561800A0325A0504D55DF0BEFBE0685EF070FC70
:10562800E368DB6873B9002D3BD0A66806F17C07F8
:1056380038465DF093FB002835D0394606F5BE7034
:10564800FBF796FCA2682946E0680DF106037C3258
:105658005EF059FC58B9A06800F5BE717C30FBF7C4
:1056680087FCA0687C305DF079FBADF80600204629
:105678005EF0A0F8A368D3F89C329B0603D50B49CB
:1056880060695DF05EFB204600F0A2FDA268BDF8EF
:1056980006302046A2F87630A268A2F874305DF091
:1056A800EDFF03B0F0BD86F87C01CBE7249307003B
:1056B800022210B5836804461A7583689B6CBBB9CF
:1056C8005DF01EFB8368D3F8A032DB040BD5032101
:1056D800084B094A5EF020F9A0686FF4805100F584
:1056E80028705DF023FB2046BDE8104000F0F4BEB2
:1056F80010BD00BF77FB0700705E080000232DE98E
:10570800F04F0446BBB00993A36860689E6C0268BA
:1057180015691EB3DF6C102209AB1BA9A847099BAA
:10572800CBB10121A0685DF02BFBA0685DF01CFBEC
:105738003B46099A1BA92046B047A0685DF018FBB4
:105748000021A0685DF01CFBA3689B6C002BDBD1DB
:105758002046FFF7ADFF3BB0BDE8F08F09AB012253
:105768000DF12301A847099B002BF4D09DF92310C4
:105778009DF823300029A268C6DB517D032900F279
:105788001C83DFE811F004008F02B3021A030D2B0B
:1057980043D00A2B41D0B2F8A012092B21F0FF0107
:1057A800A2F8A0126DD028D8002B00F00281082B97
:1057B80000F0EB81A268D2F89C12890740F1F980C9
:1057C800013B162B00F2F580DFE813F0E002FE0142
:1057D8000202FA01DA021B02F300F300F300F300FD
:1057E8001F022302F3003802F3003D02F300F30026
:1057F800F3003F024F02F30064021B2B3DD07F2BC6
:1058080000F0D081A3F120025E2AD3D80121A0683C
:105818005DF0C1FA9DF82310BBE0D2F8A012C9B21E
:1058280021B1D2F8A012C9B28B42C3D1B2F8A012EA
:1058380063F30701A2F8A012A568AB7D012B06D17E
:105848006069FFF77DFD0222A3689A7583E7B5F8C2
:10585800741061B928465DF09EFAE0685EF050FB6E
:105868006069FFF76DFD2046FFF722FF4CE72046F1
:10587800FFF76CFDC5F8D002F5E70122A3685A7559
:1058880097E0A068D0F89C329B0740F192800121F4
:105898005DF081FAA068857D002D40F08A80B0F81F
:1058A8007430FF2B00F08580B0F8762000F17C0181
:1058B80000F5BE7071F00FFBA3681BA9B3F8762042
:1058C8000BA8134483F87C51A2681E2302F5BE720C
:1058D8005DF0B9FC0B991E296BD83AAB03EB810339
:1058E80043F87C5CA368B3F87620002A00F067824E
:1058F800134493F87B30202B00F0658221B1093BDB
:10590800042B4BD9012948D100250A950A9B3AAAAC
:1059180002EB830353F87CAC002650465DF01EFA78
:10592800B34681463746B0464146284616AA00F097
:105938008BFB0346002840D1012E67D10A9B3AAA67
:1059480002EB830353F87C0C5DF008FAA268064664
:1059580039462846183200F077FB056828465DF07E
:10596800FDF9864205D0821B92B22046A9195EF045
:105978001AF8A068B0F87630034493F87C30202BEE
:1059880033D0093B042B30D9D0F89C32DF0731D40F
:105998002021204600F068FD0BE0013900200CAB07
:1059A800009301900AAB1BAA5DF04FFD0546002845
:1059B800ACD160695DF0A0FBA6E61B684A4651467B
:1059C8001846039371F093FC60B9039B1846FBF7E4
:1059D800D7FA584538BF5846002E08BF47461FFA21
:1059E80080FB013608F101089EE7012120465DF0A1
:1059F80079FEDEE700215DF0D9F92021204600F08C
:105A080033FD0121A0685DF0D1F9D2E70490D0D927
:105A18000A9A3AAB03EB820252F87C3CB946184624
:105A280003935DF09BF9049BA2680690A2F84030AE
:105A38000496A26849462846183200F005FB039BE5
:105A4800D0F800A0D4F8088009F10109002B38D05B
:105A5800BAF1000F38D019465046069A71F047FC43
:105A68000028E6D19B485DF079F9B8F83A2000EBB8
:105A78000B0189B2121A92FBF1F2504692B20591CB
:105A880007925DF06BF90599079A091A8BB2B8F875
:105A980040100593481CA8F84000B1FBF2F002FB47
:105AA800101189B200295DD106212046894B8A4A06
:105AB800CDF800A05DF030FF2046059900F072FB9C
:105AC80005E0BAF1000FCDD10023A8F84030049BBF
:105AD800013B0493ADD16069FFF732FC204600F02A
:105AE800FBFC0A9B3AAA02EB830353F87C0C5DF09B
:105AF80035F9394611AA8046284600F0A5FA07F17B
:105B080001090746A0683968FF2200F5BE7071F0E8
:105B180000FC3B684FF6FF77BA4603934946284690
:105B280016AA09F1010B00F08FFA10B30022A16840
:105B3800036801F27B1111F801EF985C704503D1FD
:105B480010B101325245F6D1B8F1000F01D04245EB
:105B580006DBBA42A8BF3A46013E012E97B208D0EA
:105B6800D946DBE75346062120465C4A5DF0D4FE61
:105B7800A2E7002F3FF41DAF0399A7EB08022046C8
:105B880092B241445DF00FFF13E7A068D0F89C3251
:105B98009E077FF50EAF01215DF0FDF820465DF010
:105BA80023FF06E7A068D0F89C329D077FF501AF78
:105BB80001215DF0F0F8A368D3F89C321807EDD402
:105BC80020465DF0F2FEF4E620465DF003FEF0E6C6
:105BD80020465DF0F6FD20465DF039FD10B960699C
:105BE800FFF7AEFB0121A0685DF0D5F8A3689A7DA8
:105BF800012A02D103229A75DBE62046FFF758FDF9
:105C0800D7E620465DF0EFFDD3E620465DF0F6FDD1
:105C1800CFE6D2F89C329F0603D5314960695DF022
:105C280090F8A368D3F89C329E0603D52D49606985
:105C38005DF087F8204600F04FFCBAE600212046C8
:105C4800FFF7DEFCB5E60121F9E7E06983681B7917
:105C5800012B02D15DF0E2FFABE6022B7FF4A9AE87
:105C68002146126D5DF0C3FFA3E620465DF0A2FD5C
:105C780020465DF045F80121A0685DF08CF8A36826
:105C8800D3F89C329D067FF594AE174960695DF0A4
:105C980058F88EE6204600F015FB0121A0685DF05B
:105CA8007AF886E65B2B02D10223537581E6D2F897
:105CB8009C22900706D5622B07D14FF0FF31204672
:105CC8005DF039FD0022A368D9E5662BFAD10121E0
:105CD800F5E700BF71050900BBFB0700705E08000F
:105CE800299307002E93070024930700002151757C
:105CF800A268D2F89C1289077FF506AD313B1B2BB1
:105D08003FF657AE01A151F823F000BF915D0000A6
:105D18009D5D0000B15D0000855D0000BB5900007D
:105D2800BB590000BB590000BB590000BB5900001B
:105D3800BB590000BB590000BB590000BB5900000B
:105D4800BB590000BB590000BB5900004F5C000064
:105D5800455C00000B5C0000D15B0000BB590000F3
:105D6800895D0000BB590000955D0000BB5900002B
:105D7800BB590000BB590000A15D00000323537507
:105D880020465DF01EFD14E60323537520465DF0A2
:105D980011FD0EE603235375A068D0F89C1201F09C
:105DA800010181F001012EE603235375A368D3F89E
:105DB8009C329B077FF5FDAD02E7002375E70029BC
:105DC8007FF4A0ADA0E500297FF4E8AD9CE500BF15
:105DD800F7B504468068154600F52870002937D0C5
:105DE8004FF480415CF097FFA36800211D6560684F
:105DF80003689B68984780BB20465DF060F860BBED
:105E08004FF0FF364FF0FF37A06800F529700022E9
:105E18000721CDE900676DF09CFAA0685CF0A8FF47
:105E2800042120460E4A5DF02EF8012120460D4A35
:105E38005DF029F8204602210B4A5DF024F86068DD
:105E480003685B6903B19847A0685CF08DFFDBE7E6
:105E58006FF480415CF06AFFC6E703B0F0BD00BF95
:105E6800F55200005D2E0600012E060010B504460E
:105E78000A495DF0B3F8204609495DF0AFF82046BD
:105E880008495DF0ABF8204607495DF0A7F82046C1
:105E98000021064A00F062FB002010BDC1FB07008C
:105EA800FFFB07005EFC0700B2FC07004DFD070082
:105EB800F8B516460A46214904461F4600255DF0F6
:105EC8008DF8AF420ED92046725D1D495DF086F807
:105ED8000135102D0BD06A07F3D1204619495DF022
:105EE8007DF8EEE7204618495DF078F8F0E720469F
:105EF80016495DF073F80025BD4213D2725D204645
:105F0800A2F120035F2B28BF2E2211495DF066F80D
:105F18000135102D0BD06B07EED1204609495DF0F5
