:020000040000FA
:10000000901F0220DD1A02000F210500C91A02000C
:10001000C91A0200C91A0200C91A0200C91A02004C
:10002000000000000000000000000000B91B0200FA
:10003000C91A020000000000851D0200C91A020052
:100040001D1E02001D1E02001D1E02001D1E0200BC
:100050001D1E02001D1E02001D1E02001D1E0200AC
:100060001D1E02001D1E02001D1E02001D1E02009C
:100070001D1E02001D1E02001D1E02001D1E02008C
:1004C0001D1E02001D1E020081F0004102E000BF5F
:1004D00083F0004330B54FEA41044FEA430594EA04
:1004E000050F08BF90EA020F1FBF54EA000C55EA3F
:1004F000020C7FEA645C7FEA655C00F0E2804FEA10
:100500005454D4EB5555B8BF6D420CDD2C4480EAF1
:10051000020281EA030382EA000083EA010180EA21
:10052000020281EA0303362D88BF30BD11F0004F6F
:100530004FEA01314FF4801C4CEA113102D04042A5
:1005400061EB410113F0004F4FEA03334CEA1333E0
:1005500002D0524263EB430394EA050F00F0A780F8
:10056000A4F10104D5F1200E0DDB02FA0EFC22FAF3
:1005700005F2801841F1000103FA0EF2801843FAE7
:1005800005F359410EE0A5F120050EF1200E012AD8
:1005900003FA0EFC28BF4CF0020C43FA05F3C01816
:1005A00051EBE37101F0004507D54FF0000EDCF18F
:1005B000000C7EEB00006EEB0101B1F5801F1BD338
:1005C000B1F5001F0CD349085FEA30004FEA3C0C3C
:1005D00004F101044FEA445212F5800F80F09A8032
:1005E000BCF1004F08BF5FEA500C50F1000041EB36
:1005F000045141EA050130BD5FEA4C0C404141EB3A
:100600000101013C28BFB1F5801FE9D291F0000F34
:1006100004BF01460020B1FA81F308BF2033A3F1E3
:100620000B03B3F120020CDA0C3208DD02F1140CDA
:10063000C2F10C0201FA0CF021FA02F10CE002F115
:100640001402D8BFC2F1200C01FA02F120FA0CFC0E
:10065000DCBF41EA0C019040E41AA2BF01EB045157
:10066000294330BD6FEA04041F3C1CDA0C340EDC55
:1006700004F11404C4F1200220FA04F001FA02F398
:1006800040EA030021FA04F345EA030130BDC4F156
:100690000C04C4F1200220FA02F001FA04F340EA4B
:1006A0000300294630BD21FA04F0294630BD94F0FC
:1006B000000F83F4801306BF81F480110134013DE3
:1006C0004EE77FEA645C18BF7FEA655C29D094EA54
:1006D000050F08BF90EA020F05D054EA000C04BFD2
:1006E0001946104630BD91EA030F1EBF00210020BD
:1006F00030BD5FEA545C05D14000494128BF41F05C
:10070000004130BD14F580043CBF01F5801130BDBF
:1007100001F0004545F0FE4141F470014FF000004A
:1007200030BD7FEA645C1ABF194610467FEA655CFB
:100730001CBF0B46024650EA013406BF52EA03359D
:1007400091EA030F41F4002130BD00BF90F0000F8B
:1007500004BF0021704730B54FF4806404F13204C7
:100760004FF000054FF0000150E700BF90F0000F80
:1007700004BF0021704730B54FF4806404F13204A7
:1007800010F0004548BF40424FF000013EE700BF77
:1007900042004FEAE2014FEA31014FEA02701FBF07
:1007A00012F07F4393F07F4F81F06051704732F039
:1007B0007F4208BF704793F07F4F04BF41F4002190
:1007C000704730B54FF4607401F0004521F00041EE
:1007D0001CE700BF50EA010208BF704730B54FF078
:1007E00000050AE050EA010208BF704730B511F079
:1007F000004502D5404261EB41014FF4806404F1B1
:1008000032045FEA915C3FF4D8AE4FF003025FEA36
:10081000DC0C18BF03325FEADC0C18BF033202EBBA
:10082000DC02C2F1200300FA03FC20FA02F001FA14
:1008300003FE40EA0E0021FA02F11444BDE600BFB7
:1008400070B54FF0FF0C4CF4E06C1CEA11541DBF66
:100850001CEA135594EA0C0F95EA0C0F00F0DEF831
:100860002C4481EA030621EA4C5123EA4C5350EA16
:10087000013518BF52EA033541F4801143F4801367
:1008800038D0A0FB02CE4FF00005E1FB02E506F0F8
:100890000042E0FB03E54FF00006E1FB03569CF04D
:1008A000000F18BF4EF0010EA4F1FF04B6F5007F53
:1008B00064F5407404D25FEA4E0E6D4146EB0606C5
:1008C00042EAC62141EA55514FEAC52040EA5E504E
:1008D0004FEACE2EB4F1FD0C88BFBCF5E06F1ED8F8
:1008E000BEF1004F08BF5FEA500E50F1000041EB2F
:1008F000045170BD06F0004646EA010140EA0200DC
:1009000081EA0301B4EB5C04C2BFD4EB0C0541EAFD
:10091000045170BD41F480114FF0000E013C00F312
:10092000AB8014F1360FDEBF002001F0004170BD36
:10093000C4F10004203C35DA0C341BDC04F114044F
:10094000C4F1200500FA05F320FA04F001FA05F2DB
:1009500040EA020001F0004221F0004110EBD370A8
:1009600021FA04F642EB06015EEA430E08BF20EAD4
:10097000D37070BDC4F10C04C4F1200500FA04F377
:1009800020FA05F001FA04F240EA020001F0004109
:1009900010EBD37041F100015EEA430E08BF20EA7C
:1009A000D37070BDC4F1200500FA05F24EEA020EC4
:1009B00020FA04F301FA05F243EA020321FA04F0F3
:1009C00001F0004121FA04F220EA020000EBD370AA
:1009D0005EEA430E08BF20EAD37070BD94F0000FAA
:1009E0000FD101F00046400041EB010111F4801FDE
:1009F00008BF013CF7D041EA060195F0000F18BF8F
:100A0000704703F00046520043EB030313F4801FCA
:100A100008BF013DF7D043EA0603704794EA0C0F84
:100A20000CEA135518BF95EA0C0F0CD050EA41069A
:100A300018BF52EA4306D1D181EA030101F0004117
:100A40004FF0000070BD50EA410606BF104619463F
:100A500052EA430619D094EA0C0F02D150EA01364B
:100A600013D195EA0C0F05D152EA03361CBF10468C
:100A700019460AD181EA030101F0004141F0FE412B
:100A800041F470014FF0000070BD41F0FE4141F4AF
:100A9000780170BD70B54FF0FF0C4CF4E06C1CEAAF
:100AA00011541DBF1CEA135594EA0C0F95EA0C0F64
:100AB00000F0A7F8A4EB050481EA030E52EA03351F
:100AC0004FEA013100F088804FEA03334FF0805540
:100AD00045EA131343EA12634FEA022245EA11156D
:100AE00045EA10654FEA00260EF000419D4208BF1E
:100AF000964244F1FD0404F5407402D25B084FEACB
:100B00003202B61A65EB03055B084FEA32024FF476
:100B100080104FF4002CB6EB020E75EB030E22BFD3
:100B2000B61A754640EA0C005B084FEA3202B6EB93
:100B3000020E75EB030E22BFB61A754640EA5C0042
:100B40005B084FEA3202B6EB020E75EB030E22BFD2
:100B5000B61A754640EA9C005B084FEA3202B6EBD3
:100B6000020E75EB030E22BFB61A754640EADC0092
:100B700055EA060E18D04FEA051545EA16754FEAF4
:100B800006164FEAC30343EA52734FEAC2025FEA12
:100B90001C1CC0D111F4801F0BD141EA00014FF0A1
:100BA00000004FF0004CB6E711F4801F04BF014372
:100BB0000020B4F1FD0C88BFBCF5E06F3FF6AFAE8E
:100BC000B5EB030C04BFB6EB020C5FEA500C50F11E
:100BD000000041EB045170BD0EF0004E4EEA1131A1
:100BE00014EB5C04C2BFD4EB0C0541EA045170BDA8
:100BF00041F480114FF0000E013C90E645EA060EEC
:100C00008DE60CEA135594EA0C0F08BF95EA0C0F19
:100C10003FF43BAF94EA0C0F0AD150EA01347FF461
:100C200034AF95EA0C0F7FF425AF104619462CE738
:100C300095EA0C0F06D152EA03353FF4FDAE10469B
:100C4000194622E750EA410618BF52EA43067FF4EC
:100C5000C5AE50EA41047FF40DAF52EA43057FF47C
:100C6000EBAE12E74FF0FF3C06E000BF4FF0010C87
:100C700002E000BF4FF0010C4DF804CD4FEA410CEB
:100C80007FEA6C5C4FEA430C18BF7FEA6C5C1BD0B8
:100C900001B050EA410C0CBF52EA430C91EA030F39
:100CA00002BF90EA020F0020704710F1000F91EA96
:100CB000030F58BF994208BF90422CBFD8176FEA64
:100CC000E37040F0010070474FEA410C7FEA6C5C32
:100CD00002D150EA013C07D14FEA430C7FEA6C5C39
:100CE000D6D152EA033CD3D05DF8040B704700BF65
:100CF0008446104662468C461946634600E000BFB3
:100D000001B5FFF7B7FF002848BF10F1000F01BD84
:100D10004DF808EDFFF7F4FF0CBF012000205DF84F
:100D200008FB00BF4DF808EDFFF7EAFF34BF0120D4
:100D300000205DF808FB00BF4DF808EDFFF7E0FF6D
:100D400094BF012000205DF808FB00BF4DF808EDBE
:100D5000FFF7CEFF94BF012000205DF808FB00BF25
:100D60004DF808EDFFF7C4FF34BF012000205DF807
:100D700008FB00BF4A0011D212F5001211D20DD5A6
:100D80006FF47873B3EB62520ED44FEAC12343F091
:100D9000004343EA505323FA02F070474FF000003B
:100DA000704750EA013002D14FF0FF3070474FF0EA
:100DB000000070477BB972B90029BEBF00204FF018
:100DC000004106E008BF00281CBF6FF000414FF053
:100DD000FF3000F075B8ADF1080C6DE904CE0029C4
:100DE00009DB002B1ADB00F087F8DDF804E0DDE911
:100DF000022304B07047404261EB4101002B1BDB32
:100E000000F07AF8DDF804E0DDE9022304B04042A6
:100E100061EB4101524263EB43037047524263EB83
:100E2000430300F069F8DDF804E0DDE9022304B0D3
:100E3000404261EB41017047524263EB430300F0D3
:100E40005BF8DDF804E0DDE9022304B0524263EB15
:100E50004303704753B94AB9002908BF00281CBF93
:100E60004FF0FF314FF0FF3000F02AB8ADF1080C21
:100E70006DE904CE00F040F8DDF804E0DDE902237E
:100E800004B07047D0B500220B4B06460F46FFF763
:100E9000D7FCFFF76FFF0446FFF758FC0022074B13
:100EA000FFF7CEFC02460B4630463946FFF710FBF3
:100EB000FFF760FF2146D0BD0000F03D0000F0418B
:100EC000704700BF10F8012B11F8013B012A28BF21
:100ED0009A42F7D0D01A7047034611F8012B03F855
:100EE000012B002AF9D17047034613F8012B002A81
:100EF000FBD1181A013870472DE9F0478C468E4611
:100F0000089E154604461946002B40F0D0807245D5
:100F100047D9B2FA82F74FB1C7F120030EFA07FCA6
:100F2000BD40BC4020FA03F343EA0C0C4FEA154ED7
:100F3000A8B2230CBCFBFEF80EFB18CC08FB00F992
:100F400043EA0C43994528D9EB1808F1FF3204D243
:100F5000994502D9A8F102022B44A3EB0903A4B2DC
:100F6000B3FBFEFC0EFB1C330CFB00F044EA034415
:100F7000A04214D92C190CF1FF3304D2A04202D99B
:100F8000ACF102032C44241A43EA02401EB1FC4097
:100F9000002334607360BDE8F0874246DDE76346B6
:100FA000F1E7002A79D0B2FA82F3002B3FD019463C
:100FB000C1F1200302FA01F500FA01F42EFA03F25E
:100FC0000EFA01FE20FA03F3AFB243EA0E034FEA32
:100FD000154EB2FBFEFC0EFB1C201A0C0CFB07F896
:100FE00042EA004290455AD9AA180CF1FF3004D2C7
:100FF000904502D9ACF102002A44A2EB08029BB250
:10100000B2FBFEFC0EFB1C220CFB07F743EA02437B
:101010009F4246D9EB180CF1FF3204D29F4202D90D
:10102000ACF102022B44DB1B42EA004202E0AEEBD1
:10103000020301224FEA154EAFB2200CB3FBFEFCB7
:101040000EFB1C330CFB07F840EA034398452AD9F2
:10105000EB180CF1FF3004D2984502D9ACF1020034
:101060002B44A3EB0803A4B2B3FBFEFC0EFB1C3322
:101070000CFB07F744EA0344A74216D92C190CF1DC
:10108000FF3304D2A74202D9ACF102032C44E41B83
:1010900043EA00400F46114678E71F2188E7604683
:1010A000ABE76246BFE76046DBE76346EFE77345C1
:1010B00006D916B9002108466DE7C6E9000EF9E722
:1010C000B3FA83F787B9734501D3824207D8841AEC
:1010D0006EEB030301209C461EB900215BE73846F6
:1010E000FAE7C6E9004CF8E7C7F1200CBB4000FA6C
:1010F00007F422FA0CF520FA0CF1BA401D432EFA3F
:101100000CF30EFA07FE4FEA154941EA0E011FFAE9
:1011100085FEB3FBF9F809FB18300B0C08FB0EFA3F
:1011200043EA00439A4540D9EB1808F1FF3004D256
:101130009A4502D9A8F102002B44A3EB0A0389B215
:10114000B3FBF9F809FB183308FB0EFE41EA034133
:101150008E452CD9691808F1FF3304D28E4502D987
:10116000A8F10203294443EA0040A1EB0E01A0FBD1
:1011700002984145CE46434602D306D14C4504D29F
:101180000138B9EB020E68EB0503002EA5D0B4EBD5
:101190000E0261EB030101FA0CFC22FA07F3F9409D
:1011A0004CEA0303C6E9003197E74046C5E74346EA
:1011B000D9E700000000000070B5044658B9264A7F
:1011C0002649052008F09AFBE06A60B349F0CDF9A2
:1011D0000023E36227E0C3689B685D6A0DB12B6959
:1011E00013B91D4A1E49ECE7102049F04CFEE0629D
:1011F00010B9194A1B49E4E7012304F1140684F8E5
:101200003030304638F0EEFD2B69206998470546AE
:1012100058B10520104A144908F070FB002301352D
:1012200084F83030D0D0E06A70BD09A3D3E9002340
:10123000304638F0B1FD94F83030002BF3D0052063
:10124000054A0A4908F05AFB84F83050BCE700BF51
:1012500076B0100000000000CF7108006E5D06003F
:10126000A9640600D0640600FC6406001C65060044
:101270002DE9F04FD1F88890B5B00C46164606908F
:10128000B9F1000F01D1D1F88C90D6F888B0BBF13C
:10129000000F01D1D6F88CB006F12005294606983A
:1012A0004EF03CFB18B1002035B0BDE8F08F069B36
:1012B000D3F8F8104B6B33B128461C314EF000FCCC
:1012C00008B10120F0E706980AA904F5C67A4EF0A5
:1012D0000CFB002840F00481BDF9B230002B00F077
:1012E000FF809DF9B37047B9494650469DF8C42028
:1012F0009DF9B2704BF0B6FA3F1A42F20F72309B72
:1013000093420AD16FF47A6140F265730A984218E9
:101310009A4200F2DD806FF05B032046A7EB0308E2
:101320004CF0FBF9D4F8882003460AB9D4F88C2095
:101330000B218DF827100DF127010291216D0698E0
:10134000CDE9008151460CF0FDFF0490494650461E
:1013500094F854204BF086FA4946434694F85420BA
:10136000054650460CF0DAFEF36F594696F85420C5
:10137000814606F5C6700593D6F864A04BF072FA64
:10138000049B059A03F59C5308339A42834698D8E8
:10139000306DB0F57A6F40F3A880236DB3F57A6FA6
:1013A000ACBF4FF000084FF0010848F077FE28B1BD
:1013B000206D48F073FE80F00100C0B20AEB0B0311
:1013C000ED1907931DD50223079A18FB032810FB7C
:1013D0000380854215DD0598FFF7B8F98246049829
:1013E0008B46FFF7B3F94FF03332774BFFF728FA0C
:1013F00002460B4650465946FFF794FC00287FF4FE
:1014000052AF059B049A03F59C5308339342FFF4B3
:101410004AAFB9F1190F3FF746AF15F1550F67DB2A
:1014200015F1500F66DB15F14B0F65DB15F1460F1B
:1014300064DB002DB4BF052702270498FFF786F967
:10144000804605988946FFF781F900225F4B824666
:101450008B46FFF7F5F902460B4640464946FFF733
:101460007FFC00284CD00A37246D204648F016FE39
:10147000002840F0A1806FF47A6240F26573144452
:101480009C428CBF00240124366D304648F006FE95
:10149000002840F093806FF47A631E4440F2657335
:1014A0009E428CBF00260126069BA41BD3F8983CC5
:1014B00007EB44002BB19D4203DC079A9A42C8BF58
:1014C0000238079B5B1B9842CCBF00200120EBE653
:1014D00048F0E4FD00287FF41EAF6FF058031CE7CE
:1014E000D4E91F38676E049330E74FF000085CE7DB
:1014F0000127A2E70227A0E703279EE704279CE72E
:101500004FF03332304B50465946FFF799F90246B7
:101510000B4640464946FFF723FC08B10537A3E7D1
:1015200027A3D3E9002350465946FFF789F902461D
:101530000B4640464946FFF713FC08B1023793E7D4
:10154000DDE90423934201D201378DE700221F4BCE
:1015500040464946FFF774F902460B465046594645
:10156000FFF7FEFB08B10A3F7EE74FF03332164B20
:1015700040464946FFF764F902460B465046594635
:10158000FFF7EEFB08B1053F6EE70DA3D3E900239B
:1015900040464946FFF754F902460B465046594625
:1015A000FFF7DEFB08B1023F5EE7DDE9042393426B
:1015B00088BF07F1FF3757E7022465E7022673E784
:1015C0009A9999999999F13F3333F33F0000F83F85
:1015D00070B4174E0C46B042154608D00136B042E2
:1015E0000FD0023EB04210D070BC3DF07DBA0AA3CD
:1015F000D3E90023C5E900230E4B0020236070BC13
:10160000704707A3D3E90023F4E707A3D3E9002336
:10161000F0E700BFAFF3008002C0FF7F00000000D2
:1016200003C0FF7F0000000001C0FF7F000000003A
:1016300002C0FF7F03004E801249B0B58B4208BF45
:10164000802AA0B000AF19D18168283180233A46A2
:10165000012027F0E5F86D4688B00B4A0B4BCDE929
:1016600005274FF40072ADF81C206A464FF4E6518E
:10167000074842F8103F46F0D7F8AD468037BD46E0
:10168000B0BD00BF000030E0C82406000300000128
:1016900074ED05002DE9F0439BB002AF25F084F80E
:1016A0004C2504462A46002107F114005CF02FF96E
:1016B000224607206049009507F1140351F0D5FB3D
:1016C00040B103215D4A5E4846F0AAF86437BD4642
:1016D000BDE8F08303215B4A594846F0A1F8387D04
:1016E00024F09CFB6D4688B002AA4FF40079564B5B
:1016F000DFF85881C2E90530A2F81C904FF4E6519A
:101700004F4842F8108F46F08FF87B69AD46052BA5
:10171000DCDD97F8480024F08DFB88B002AA4C4B22
:10172000A2F81C90C2E905304FF4E65142F8108F40
:10173000434846F079F8AD4697F8490024F086FB17
:1017400088B002AC2646434BA4F81C90C4E905308F
:1017500046F8108F32464FF4E651394846F064F8A7
:101760003D4B3246636107F11C03A3614FF4E65120
:101770003348A4F81C90C4F8108046F055F8AD46E4
:1017800012233A46062107F13D0027F01DF888B0E4
:10179000324B3246C4E905304FF4E6512848A4F8EC
:1017A0001C90C4F8108046F03FF8AD4697F843000F
:1017B00024F028FB88B02A4B3246C4E905304FF4A8
:1017C000E6511F48A4F81C90C4F8108046F02CF88D
:1017D000AD467B6C0321234A194846F023F897F85D
:1017E0004B0024F0F7FA88B01F4B3246C4E90530AD
:1017F0004FF4E6511248A4F81C90C4F8108046F04B
:1018000013F8AD4697F84D0024F0F0FA88B0174B66
:101810003246C4E905304FF4E6510948A4F81C905B
:10182000C4F8108046F000F8AD463B6D0321104A25
:10183000034845F0F7FF49E70000D050DC240600DC
:1018400074ED0500F22406000525060003000001E2
:101850000F25060022250600302506003C2506003F
:10186000462506004F2506005B2506006825060074
:10187000702506002C49B0B58B4208BF042A00AF82
:1018800005D08B4208BF082A1CD0BD46B0BD274CEE
:101890002379D907F9D483681B684BB10121244A05
:1018A000244845F0BFFF237943F002032371ECE79E
:1018B0000321214A1F4845F0B3FF237943F0010378
:1018C0002371F0E7194C2379DA07DED513F004050C
:1018D00021D08368194A1968194B6D468AB00029CE
:1018E00018BF13466A4617480791CDE905034FF420
:1018F0000073ADF82030144B4FF4135142F8103FF1
:101900000C4845F091FFAD46237923F00403237181
:10191000FFF7C0FEB9E703210C4A064845F080FFF7
:10192000237965F30003F2E70000D0D0E036002011
:101930007E25060074ED050095250600BAE8060030
:10194000792506009F25060004000001BD2506003C
:10195000024B1870024838F0E5B900BF2A60002039
:10196000A015002070B5174C2269A16813682046A5
:1019700023F4800313600B684FF42022162198474C
:10198000031E0FDB104D2B79DA0712D5A3685B69B4
:101990004FF4800120469847002140F6354057F02B
:1019A000E4FEF0E70121BDE87040084A084845F030
:1019B00039BF23691B685B02A36854BF1B69DB68DE
:1019C000E6E700BF84E00500E0360020D3250600EE
:1019D00074ED050008B5074857F095FA30B9BDE831
:1019E00008400121044A054845F01ABFBDE80840F7
:1019F000FFF7B8BF84E00500F925060074ED050087
:101A0000F0B58FB06C4602AF8CB002AA864B3E4652
:101A10005361864B9361864BD361864B3B6040F2AA
:101A20000243BB80844BD7E900011362834B5062B1
:101A3000118583484FF4535142F8103F45F0F4FEAE
:101A4000A54624F0B1FE78B103686BB15A7C062A32
:101A50000AD1D3F812003860DB8A3846BB8045F0E3
:101A6000CEFE002840F09B80764845F0C8FE50B975
:101A70000121754A724845F0D3FE6FF015042046E7
:101A80003437BD46F0BD24F08FFE054678B30368B9
:101A90006BB30C33D3E8AF3FD90728D56B4838F088
:101AA000A1F9284626F084FC041E09DA14F1780F07
:101AB00006D02346664A0121614845F0B3FEDEE7C1
:101AC0000321644A5E4845F0ABFE0023624A5F484A
:101AD00038F062F9044610B1604A0346EBE7604B08
:101AE0001B7823B102215F4A554845F099FE002337
:101AF0003B60B38030232A4600935B493346012084
:101B000023F0E6FC514838F06DF9284626F014FC25
:101B1000041E05DA14F1780F02D0544A2346CAE7AE
:101B20000321534A464845F07BFE00234A4A474872
:101B300038F032F9044610B14E4A0346BBE7484B31
:101B40001B783BB901214C4A3D4845F069FE6FF0D6
:101B5000040494E70321494A394845F061FE3B48B3
:101B600038F0E0F8002D5BD02868002858D0417C80
:101B70001823434A123026F027FE6C4688B002AA8A
:101B8000404B4FF4E651C2E905304FF400739383A4
:101B90003D4B2B4842F8103F45F046FEA5463B4DD5
:101BA00003213B4A264845F03BFE4FF0FF324FF001
:101BB000FF33264838F0F0F8044610B1354A0346A2
:101BC00079E7274B1B782BB90321334A1C4845F092
:101BD00027FEE5E726F04AFC2B79024623F00303B3
:101BE0002B7100231E202D49009324F0B1FA60B11F
:101BF00001212B4A124845F013FE2B799A0707D58D
:101C0000DB07CDD5FFF746FDCFE70321254AF1E7F6
:101C1000FFF740FD002142F29F4057F0A6FDECE7A0
:101C200000235B78FFDE00BF112606003E2606007B
:101C30004B2606000002010359260600050000039A
:101C400074ED05000F18070065260600A01500209A
:101C5000B4260600D1260600B4C40400F32606000C
:101C60002A6000201B270600000090504227060033
:101C70005D2706008E270600B2270600D52706003E
:101C800012600020E427060003000001E036002077
:101C90000F2806002D2806004A2806000000D05014
:101CA0005D28060077280600002298B51C4B1D49C8
:101CB000C3E900220C221C4B00AF4B601B4B0846B3
:101CC000C1E9042327F09EF880221949194B0846E0
:101CD0004B60194B6C46C1E9042327F093F8174B6E
:101CE000174A1B688AB0B3FBF2F36A4615491648D7
:101CF00005911649CDE906134FF40073ADF8203075
:101D0000134B4FF4135142F8103F45F08DFDA5469B
:101D1000002147F6122057F028FDBD4698BD00BFB0
:101D2000E036002060180020751800000000D0D0B8
:101D30004818002039160000000030E01C11002077
:101D400040420F008C28060074ED0500B328060001
:101D5000040000010021B0B58AB0084604AF00F0CD
:101D6000DBF8FFF7A1FF26F081FB50B90121194AEA
:101D7000194845F055FD4FF0FF3420461837BD4651
:101D8000B0BD164B6D463B60029007F1180313E996
:101D900003008DE8030097E80F0035F009F90446C9
:101DA00098B15BF065FF88B004AA0D4B4FF4E25187
:101DB000C2E905304FF4007393830A4B064842F89A
:101DC000103F45F031FDAD46D7E7074857F0F6FC28
:101DD000D3E700BFBF28060074ED050051190000CD
:101DE000DD28060003000001181700202DE9F3414B
:101DF0000C461546194901AA07461E4647F082FAC5
:101E0000B8B1DDF80480B8F1000F12D10F2C04D95D
:101E10006FF0150002B0BDE8F0810F223046104986
:101E2000A8470028F6DB0F4B034483F86280404646
:101E3000F0E738460C4901AA47F064FA50B1019B1B
:101E400043B9022CE4D1224630460849A84700EAAB
:101E5000E070DFE76FF00100DCE700BFEC2A06006E
:101E6000FE5F00209C5F0020F82A06000E60002024
:101E70002DE9FF4205460024224E234FB36801930B
:101E8000019B1B682BB9002140F2391057F06DFC03
:101E9000F6E730460DF10F0198470028F3DB9DF877
:101EA0000F100A2904D13B7813B100233B70E7E7F8
:101EB0000D290CBF012300233B7001D00A2907D153
:101EC000002312482B5545F0B6FF04B0BDE8F08260
:101ED000082901D07F2906D1002CD1D00C48013C23
:101EE00045F0A9FFCCE7A1F120035E2BC8D83F2C19
:101EF000C6D82955074804F1010945F09CFF4C4616
:101F0000BEE700BFD8E005002B600020609306000C
:101F10002C29060052F306002DE9F04F0027AB4CA8
:101F2000C1B00E46054684F8740084F86270A4F8C7
:101F3000727002F05BFAA64802F006F92146A54845
:101F4000277084F821702EF061FC23785BB1204665
:101F5000FEF7CAFF08AA014620462EF0A3FA8046E3
:101F6000002852D02770002755B194F86230002B1A
:101F70005ED0B4F87230002B0CBF002707F00107C9
:101F8000954845F058FF002F76D094F82120934BC8
:101F900093499448002A18BF19460A468B4945F0D0
:101FA0004AFF94F874302BB1B4F872208E498F48F0
:101FB00045F041FF05218E4845F03DFF57F0E1FC1B
:101FC0004FF47A78A0FB0807002308FB017147F65D
:101FD0001222FEF73FFF41F28833C246C718DFF8EE
:101FE00014B241F1000957F0CCFCA0FB0A0C47F6F3
:101FF0001222002308FB01C1FEF72CFFB84271EB4F
:10200000090117DB4FF0FF331EE09DF82030012B54
:1020100002D13F9F402F01D90127A5E73A461FA9CA
:1020200004F1210027445BF04CFC87F82180F3E7A2
:102030001F46A5E7DBF808301B68A3B1584608A97E
:10204000984780B99DF8203001330E2B11D844F603
:10205000010222FA03F3DB070BD5674841B0BDE864
:10206000F04F45F0E8BE002140F2391057F07DFBFB
:10207000B9E7624845F0DFFE544B03F121076048A1
:1020800045F0D9FE08A8FFF7F3FE9DF82030002B9D
:102090007AD008A8FEF728FF202875D84B4808A951
:1020A000FEF71AFF574845F0C6FE08A8FFF7E0FE06
:1020B00008A8FEF719FF10B10838382869D8384643
:1020C00008A9FEF709FF65B34F4845F0B4FE08A81C
:1020D000FFF7CEFE012006AA08A926F0ABFC0028D7
:1020E0005DD1414808A9FEF7F7FE3146474845F063
:1020F000A2FE08A8FFF7BCFE9DF82030002B56D0AA
:102100000A2207A908A844F075FD079B1B78002B3D
:1021100049D14FF6FE73421E9A4244D880B2A4F8C9
:10212000720094F82190B9F1000918BF4FF001092D
:102130002EF084FB2548FEF7D7FE80463448FEF794
:10214000D3FE0023FF22CDE90203CDE9042341465B
:102150004A46CDE900371D482EF0B0FA88B994F808
:10216000743033B32048FEF7BFFE1F49421C294894
:1021700001F0B8FF28B902222749284801F0B2FF30
:10218000B8B10146264801E02021264845F053FE1B
:1021900075E740220821244845F04DFE82E7234898
:1021A00045F049FE90E7224845F045FE9DE7304660
:1021B000B5E706491F4845F03EFE2DB1B4F8722040
:1021C00009490A4845F037FE1B4847E79C5F002055
:1021D00041290600337804004A2906003029060008
:1021E0003A2906005F290600FE5F002078290600D4
:1021F00089290600D8E00500C92906006093060079
:10220000E2290600112A06005C2A0600982A060028
:10221000BD5F0020E32A06000E600020EF2A0600C2
:10222000FE2A0600F1290600352A0600882A060043
:10223000B92A0600302B0600E02A06002DE9F041FD
:1022400010F0030407464FD121F00306DFF8B4E095
:10225000DFF8B4802D4A8D0800EB060C60451CD1D8
:102260006FF0030303FB0515B81900230544A842CA
:1022700042D124484C405843234B4FEA70405843C6
:10228000234B604080EA10405843224B80EA503094
:10229000584380EA1040BDE8F08150F8043B0EFB43
:1022A00003F34FEA734308FB03F363404FEAF3433E
:1022B00003EB83039C18D1E71B68043D7B434FEA83
:1022C00073430CFB03F363404FEAF34303EB8303D5
:1022D0009C18032DA6EB0503EED86FF003028B08C4
:1022E0005343CD18C01AC0E70D460024054FDFF850
:1022F00018C0064A4618ECE710F8012B42EA0323FF
:10230000B5E700BF512D9ECC9335871B646B54E617
:102310006BCAEB8535AEB2C22DE9F843884600AFF3
:1023200000297DD005680122284645F0D3FA0146F0
:102330000446284645F088FA10EA020616D1E94616
:1023400088B06A46384BCDE90538032342F8103F80
:102350004FF4C2513346354801F0F6FBCD4686F3C3
:102360001188BFF36F8F0423184602DF21462846E9
:1023700045F080FA261831460022284645F064FAD6
:10238000361AB44218D06E4688B06946284BCDE95B
:102390000538032341F8103F244813460A464FF4FA
:1023A000C25101F0D1FB0023B54683F31188BFF37E
:1023B0006F8F0423184602DF00222146284645F08D
:1023C0005FFA214645F056FA261801223146284682
:1023D00045F03AFAC20708D43146284645F0BCFA1F
:1023E00032462146284645F02EFB0022214628464B
:1023F00045F02AFA261A01223146284645F024FAE9
:10240000C30709D43146284645F0A6FA224631468C
:10241000284645F018FB34462146284645F031FB56
:10242000BD46BDE8F88300BF902B06001CED0500FB
:10243000672B06002DE9F04F91B0009302F00403E2
:102440000293C2F3C2030133840705460E46DDF84A
:1024500068A00392059340F09C81041D002849D197
:1024600001F00706341DC6F10806009B00274FF057
:1024700004085A1E4FF0FF33B9460193BB4643464A
:1024800004970DB1009921600598002800F3D680CB
:102490008F480099814203D38E488142C0F0CE809C
:1024A0000399601B11F0020C40F0D680B9F10F0FB8
:1024B00000F2CF80002D00F0D68009F140010DEB35
:1024C000010E0199C0F387000EF8200C0EF8101CC5
:1024D000BCF1000F00F0C38060F07F000EF8200C0C
:1024E000013709F10109C5F108014FF6DA7E04341C
:1024F00006918CE00729B8D86FF01B0011B0BDE839
:10250000F08F7A285BD84B280FD8472857D829282E
:102510002ED8252850D052D8202818BF23280CBFE9
:102520004FF0010B4FF0000B71E04C382E2846D8CD
:10253000DFE800F06D454545454545454545454580
:1025400048454545454545454556454848565656EE
:102550006D486A456D4518481845457F7C48454596
:1025600048457C0000204FF0000B4FF0040835E098
:1025700001212A38C0B201FA00F010EA0E0F46D14C
:1025800010F0625C2CD110EA010B40D06046013C97
:102590004444B4FBF8F408FB04F425B1A3EB050CA8
:1025A000A444B445A8D8002870D0059901390591F4
:1025B0005AF8041B009164E70199013901914FF029
:1025C000000B24E012F8010C6C2834D1002012F822
:1025D000023C83466C2BC8D14FF008084346D6E72F
:1025E0000AF1070A2AF0070A073424F00704FAE878
:1025F00002BC35B106982044B0423FF67DAFC4E935
:1026000000BC4FF0000B08344FF00808434612F8A6
:10261000010F002853D0BBF1000F7FF472AF2528C3
:10262000F5D14FF0010B019B013301934FF00408EA
:10263000ECE7584697E700208346A8E70399880708
:102640007FF551AF4FF0010C601BB0F5007FFFF438
:102650002DAF6FF0150051E74FF0000CF5E704982F
:10266000013004903DE7BCF1000F01D0013638E79E
:102670000298023600287FF434AF0098CDE9063284
:10268000FEF732FCDDE9063206442AE7042B08D1C6
:102690000AF1040015B1DAF8001021608246043412
:1026A000B5E70AF1070323F0070303F1080A1DB198
:1026B000D3E90001C4E9000108230834A7E7631B3C
:1026C000B3F5806FC5D23DB9A6F10804E01815E74F
:1026D00028DF0500FC8B0800029A9B0828602B70FD
:1026E0009DF81030AAB1EB70AF702FB1002208A88E
:1026F000C5F1010C91450ED14FF0000AC5F101035F
:102700000DF1200801930DF1300BD14512D1601B62
:10271000F4E66B70E8E710F8013B190608D50CEBFE
:10272000040EB64503F07F033FF6E6AE04F8013B26
:102730000132DFE71FB198F90020002A17DB029B66
:10274000D3B11AF80B2004F8012B0022019B1819B1
:102750001044B0423FF6D0AE98F80000009904F85B
:10276000010B204603925BF0ACF8039A14440AF183
:10277000010A08F10108C8E798F8002055F822304E
:102780000093029B009845F82230FEF7ADFB421CF7
:10279000DCE76FF00D00B1E62DE9F04F97B000AF28
:1027A00005468A46C7E90A3249B9037846788078EF
:1027B00000EB83002844564524D8A0EB050AD7F83F
:1027C000803095F8028003F00103D7F88040FB6168
:1027D000EB78B8F1000F0CBF002404F001047B6219
:1027E0001BB1D7F880309A0715D4A4B9FB6A1BB186
:1027F00051462846BA6A9847564630465C37BD4629
:10280000BDE8F08F441C2046FEF76EFB01302044EB
:102810000AF1010ACFE7D7F88030C3F3C0033B6267
:102820002B78BB619B003B616B687B61BB6905EBEF
:10283000830BFB6A002B77D15646D844BCB11C46AB
:102840001BF8013B55F82300FEF74EFBD7F8843008
:10285000013043B1D7F88830A34282BFD7F8843023
:1028600023F814000134C3450644E9D1D846D7F80B
:1028700080304FF0000913F0050F0CBF4FF0020B32
:102880004FF0010B7B6A9945B7D298F8013008F1F7
:10289000020855F823A0AE4B9A45C0F04C81AD4BD1
:1028A0003A6A9A452CBF002301230AB318F8021C88
:1028B0007869FB6245F069FAFB6AC8B1EA468AB0FA
:1028C0006A46A54B05937B69CDE906314FF4007349
:1028D000ADF82030A14B42F8103F00234FF41251C5
:1028E0009F4801F031F9D546023E09F10109C9E7D7
:1028F00023B1FB6933B9A6EB0B06F6E7D7F88030B6
:102900009B07F2D55046FEF7EFFAD7F884304BB16B
:10291000D7F888309C423FBFD7F88420431C22F868
:10292000143001340644E0E7002C6AD1B8F1000FFE
:102930006DD0D7F8803058076CD5C14607F14800F4
:10294000424659465AF0BDFF00220BEB0803FB60DC
:102950000233796A8A425FD3D7F8802095F801B0B4
:10296000F969920704EB0B0348BF0022DBB258BFA2
:102970004FEA5902002940F0A680D7F8801011F0E4
:10298000040F14BF494600216B70A970EA702846F5
:10299000BA6A3969FB6A9847061EFFF62EAFBB6913
:1029A00049462B707B6ABA6AEB7085F801B0FB6A06
:1029B00085F8028007F148009847B0F10009C0F29D
:1029C000B6803B697A6A786A03EB4201FB6841444E
:1029D00003EB4000BA6AFB6AAAEB010198470028A2
:1029E000C0F2A7804FF0000BB14409EB000607F1DD
:1029F000380AA34569D30021BA6A0846FB6A98479A
:102A0000FBE644464FF0000907F1380098E74446DA
:102A1000C14699E7A14697E713F8016CDFF830C18A
:102A200055F8260013F8021C6045C0F08A80DFF8D4
:102A300024C16045386A2CBF4FF0000B4FF0010BEA
:102A400038B17869C7E9013245F09FF9D7E9013219
:102A5000F0B9BBF1000F1ED0F96949B1611C04F156
:102A6000280007F13004041904F8206CCCB20FE000
:102A7000D7F8801049070BD509F1280007F1300C71
:102A800009F1010100EB0C0909F8106C5FFA81F9FA
:102A9000013202335DE7D7F880008007DED409F108
:102AA000280C07F1300EF44409F101000CF8101C59
:102AB00007F1580109F1020951FA80F05FFA89F92A
:102AC00000F8106CE4E700215EE71BF80A3055F8C7
:102AD000239087F83730D7F884302BB3D7F8883075
:102AE0009B4521D2D7F8843033F81B800121BA6A84
:102AF000FB6A07F13700984700281ADB0644B8F153
:102B0000000F06D14846FEF7EFF900F101081FFA61
:102B100088F841464846BA6AFB6A9847002808DBAD
:102B200006440BF1010B64E74FF00008DEE74E4668
:102B300063E6064661E63B6A002B3FF4DFAE002306
:102B4000B4E6386A0028A6D04FF0000B79E700BF42
:102B500028DF0500FC8B0800BD2B060004000001E7
:102B6000B4EB050030B50446EFF31185202383F361
:102B70001288BFF36F8F044B0FCB84E80F0085F3EF
:102B80001188BFF36F8F30BD7818002001281FB562
:102B90000C4605D004281ED06FF0150004B010BDFF
:102BA00056F0EFFE47F612220023FEF753F94FF4DA
:102BB000FA435A43C4E90001A2606846FFF7D2FF16
:102BC0006946204645F0FEF818B90A4B0FCB84E859
:102BD0000F000020E2E756F0D4FE47F61222002351
:102BE000FEF738F94FF4FA435A43C4E90001A260F2
:102BF000EFE700BF00EE0500014B1860704700BF13
:102C00002001002080B505460E461746984637F04D
:102C1000B3FE03461FF052F90446DFF8189042460F
:102C200049F8003039463046A84754F809001FF0EB
:102C300093F800BF0800000070B51F4B82689A42ED
:102C400015DDD0E90016013392FBF3F3012976F18B
:102C500000054FEAE3741CDAC91844EB0604C0E926
:102C60000014164901FB03238360012070BD002A74
:102C7000FBDAD0E90041124E9B1A0029B3FBF6F3B0
:102C800010DA01F100459C4275F100050ADA0020D6
:102C9000ECE7CD439D426FF00045A5EB0605A5414D
:102CA000DADAF4E706FB0322E41A61F10001C0E975
:102CB00000418260D9E700BFFFC99A3B003665C476
:102CC00000CA9A3B2DE9F047858B04462807174632
:102CD0000CD501290CBF45F0100545F02005A58352
:102CE00087F31188BFF36F8FBDE8F087022905F0E5
:102CF000070540F09480204645F0A9FC052864D8DB
:102D000001A353F820F000BFE12C00001F2E0000AB
:102D1000CB2D00008D2D0000A72D0000B92D000047
:102D200001F007035A1F012A1FD8002221F00701D2
:102D3000062BD4F8008089B2C4E9002209D14346A9
:102D400003E0E28B0132E2831B68002BF9D141F0F2
:102D500002012046A18345F07AFC4FF000090028CB
:102D60006DD041F02001A18369E0042B0AD121F04C
:102D7000070189B22046A18345F069FC10B141F0FA
:102D80002001A1834FF00008C14658E02369D3F821
:102D90000090A38B23F0070343F006034FF00008D5
:102DA000A38346464BE02369D3F80490A38B23F01A
:102DB000070343F00403F1E72369D3F80890A38BDA
:102DC00023F0070343F00503E8E74FF00008C1468E
:102DD000E7E7012243F00803A38387F31188BFF3D9
:102DE0006F8F002A3BD1B8F1000F4AD1B9F1000F23
:102DF00002D020462C49C847EFF31187202383F3E4
:102E00001288BFF36F8FA38B23F008039BB2A383B9
:102E1000D9063FD523F01002A28303F00705A66967
:102E2000A18B002EBFF67CAF00239946D4F800801A
:102E300021F00701C4E9003341F00101A183A38B14
:102E400003F0070AAA4502D0A268002AC1D1B8F14E
:102E5000000F02D1B9F1000FDAD00022BAE7A16861
:102E60000029C0D00D680029BDD033465246204607
:102E70004F68B8471DB12B6829461D46F3E72B461E
:102E8000FAE74146334652462046D8F8008045F0DE
:102E90000AFCA8E79A067FF523AF23F02002A2835D
:102EA00003F0070527E700BFD386040000220023B4
:102EB0002DE9F04F00279FB0CDE9082300F128034A
:102EC000039305464FF0FF324FF0FF33283045F0B3
:102ED000E6FCB8463E460DF1480A0DF1580BEB6989
:102EE000B3420DD8EB69434555D1002F53D16FF054
:102EF0008504039845F003FE20461FB0BDE8F08F1F
:102F00006A6CA9695000884294BF3346731EA1EBD6
:102F100042022846CDE900BACDE9082345F097FCE6
:102F200004460028E5D19DF8593085F82430199BD6
:102F300003F47023B3F5803F2BD2524659462846FE
:102F400045F00FFD28B3199B08F1010803F47F42F7
:102F5000B2F5844F0BD1DBB2012B07D00121AA4A75
:102F6000AA4845F091FC6FF07A04C2E7074628466C
:102F700008A945F061FCDDE908232846CDE900BA3F
:102F800045F015FD041EB4DB9DF8593085F824305A
:102F9000A8D00136A3E7B34248D16B6C089A0EAEB5
:102FA000D21A099B2846009663F1000345F03AFCCB
:102FB000044600289DD1304695F8241045F071FC58
:102FC00018B9284608A945F037FCDDE9086712ABB7
:102FD0000DF15808019332463B462846CDF8008053
:102FE00045F035FC0446002883D1199B03F4702377
:102FF000B3F5803F3AD2404645F064FCB0B3199B2C
:1030000003F47F42B2F5844F02D1DBB2012BA5D18C
:1030100005F12403009332463B46284645F066FC02
:10302000811C044636D1002385F8243000266B6CC1
:10303000089A5B00B2EB0309099BB04663F1000BF1
:103040005F46CDE9089BCDF810B00DF1680ACDF8C8
:1030500014B0049B4E4573EB0B011ED3DDE908232E
:10306000C5E90487C5E902230AAE4EE02B6A13F0D6
:10307000010309D1009332463B46284645F092FDB4
:1030800004460028C4D034E70121614A5F4845F076
:10309000FBFB2CE70028C9D02BE74A465B462846B5
:1030A000CDF800A045F0BEFB044600287FF421AF18
:1030B000504695F8241045F0F4FB70B1BDF86A1045
:1030C0002646082907D9286C45F00FFD1C99059F55
:1030D00008440619B046CDE9089B696CB9EB0101BB
:1030E00089466BF1000BB4E7D5E904879F4208BF1E
:1030F000904504D1BDF82A10002940F0A880696CE1
:10310000521A63F10003C5E90223424573EB070736
:1031100010D32846009645F085FB044600287FF42E
:10312000E8AE304695F8241045F0BBFBD5E9022304
:103130000028D9D16A6CAB695200E9689B1A61F129
:103140000001CDE90831284608A945F075FB12AB0E
:10315000019316AB00932846DDE9082345F027FCD0
:10316000041EFFF6C6AE012C10D000246B6CAA69B9
:10317000A96803EB4303D21AA44208BF91427FF42B
:10318000B8AE284645F088FD0446B2E60021D5E9F0
:1031900002636A6C07919DF85910961985F82410FE
:1031A00043F100081AAFA969CDE90868A1EB420113
:1031B0008E4231D30321174A144845F065FB07AB13
:1031C00000932846D5E9022345F0ABFB044610B135
:1031D000A31C7FF48EAE079B28460093D5E90223FB
:1031E00045F0E0FC044600287FF483AE6A6CAB69CE
:1031F00002EB42029B1AEA681B18C5E90402AB60A5
:10320000284645F0D2FD46E07C2C0600ECEB05009C
:10321000992C0600C52C06003246434628460097E6
:1032200045F000FB044600287FF463AE38469DF865
:10323000691045F036FB28B1BDF86A3013B91B9B05
:10324000013307D06A6C961948F10008ABE76FF0BC
:103250001C044EE6124A0321124845F015FBEB68A8
:10326000284608A9CDE9084345F0E6FADDE90867F4
:1032700007AB009332463B46284645F052FB0446D6
:1032800010B1A21C7FF435AE079B3246009328464E
:103290003B4645F087FC044600283FF466AF28E62D
:1032A000EC2C0600ECEB05002DE9F04782B00C4653
:1032B000054602AF48B93F4A01213F4845F0E4FACC
:1032C0006FF01500BD46BDE8F087283055F017FFB8
:1032D000E86B8368DB6898470246286408B9374A78
:1032E000EAE7102145F001FC68641368013B1F2BDD
:1032F00001D9334AE0E7AA6900EB80039A4205D27C
:103300000121304A2C4845F0F8FED9E7EB69012B42
:1033100001D82D4AD0E72846FFF7C8FD002838D14C
:10332000012385F82530D5E90623032100922248A0
:10333000264A45F0ECFED5E90232E9468AB002AEF3
:1033400000244FF0060AB0462149C6E90624C6E922
:103350000834716148F810AF4FF443512346424698
:10336000154800F0F1FBD5E90432CD468AB0194981
:10337000C6E90743C6E905127462C6F810A00E48F4
:10338000234642464FF4435100F0DEFB2046CD4633
:1033900098E7002C96D0022103460F4A064845F0D4
:1033A000ACFE284645F057FC2846FFF77FFD002875
:1033B000B6D087E7012D0600ECEB05000C2D0600CA
:1033C0002E2D06004B2D0600772D0600B82D060089
:1033D000CF2D0600E52D0600FA2D06002DE9F04F51
:1033E000894617461E46044685B038B901214C4A25
:1033F0004C4845F049FA6FF0150509E090F8253082
:1034000053B90121484A474845F03EFA6FF00C0590
:10341000284605B0BDE8F08F3146006C45F065FBED
:10342000636CA26903EB8301521A96428246E2D88A
:10343000B6F5803FDFD20EB1002FDCD0BAF1000F1D
:1034400003D0082E94BF9A469A4404F128084FF0FE
:10345000FF324FF0FF33404645F021FA4FF0000BAA
:10346000E3695B4558D0D4E90221002A3DD0D4E974
:1034700004531AEB050043F100038242994134D30F
:10348000636C9A4200D186BB1022002168465AF034
:103490003EFA94F82430082ECDF80490ADF802607E
:1034A0008DF8013018D90295684645F0EFF9082EDD
:1034B00006D932463946204645F05DFC054638B906
:1034C0006946204645F055FB002814BF05463546A1
:1034D000404645F014FB9BE7731E072BE4D83246A9
:1034E000394602A85AF0EDF9DEE7204645F0EDFB3B
:1034F000054630B103460D4A01210A4845F0FDFD5D
:10350000E6E7204645F051FC054610B1084A03465F
:10351000F2E70BF1010BA3E76FF01B05D8E700BF43
:10352000012D0600ECEB0500212E0600352E0600CD
:103530005F2E06002DE9F04F15461E46002200239F
:103540008BB088460446CDE9042348B930480121B0
:10355000304A45F099F96FF015000BB0BDE8F08FD7
:1035600090F825303BB92A4801212B4A45F08CF9C7
:103570006FF00C00F1E74FF00009D0E9022304AF2F
:103580000DF1180BCDE902B7D4E90201CDE9000134
:1035900041462046CDE9042345F047FA0028DCDB0C
:1035A00011D039462046DDF814A009F1010945F093
:1035B0000EFA0028D1D1DDE9042314994945E1D25E
:1035C000079A424502D06FF00100C6E7BDF81A70B5
:1035D000002FF8D0082F0AD83DB1BE423246284607
:1035E00028BF3A4608A95AF06CF93846B5E7002DCD
:1035F000FBD0089A53460244B74294BF0197019604
:103600002046009545F0FEF80028EED0A5E700BF63
:10361000ECEB0500012D0600212E06002DE9F047F8
:10362000044607464FF00109DFF84C8094FAA4F5F0
:10363000B5FA85F509FA05F32E0108EB05156FEAD1
:10364000030A24EA03042B7B63B158F806301B6994
:103650006BB94644736804222846196807EA0A07CA
:1036600045F0D2FC002CE1D13846BDE8F087284671
:1036700098470028F6D1ECE7D4ED050010B50022FC
:1036800088B00E490E4856F0C4F9002200230024E9
:10369000CDE906230E234FF44072CDE90334CDE982
:1036A0000144084B08490094084836F0DDFE0849FB
:1036B000064855F090FF204608B010BDD5360000F2
:1036C00028210020F1390000D08600208818002031
:1036D0008F2E0600014836F025BB00BF40150020A4
:1036E0002DE9F047804621480F4645F071FC06461B
:1036F000002833D000252846BDE8F087237B83B11E
:103700002368DB680BB120469847636883F806900E
:1037100023681B69D3B9636804222046196845F001
:1037200073FC013610345445E8D3B8F1000FE2D0F1
:10373000002DDFD02846FFF771FF0546002FF7D098
:10374000002140F2391056F010F8F1E72046984772
:103750000028E0D009FA06F31D43E2E705464FF0E2
:103760000109034CDFF80CA0DDE700BFF8360020AC
:10377000D4ED0500E4ED0500014B53F8200070473F
:103780003CF1050008B5034608462BB1044A136016
:1037900000F03AFC002008BD6FF01500FBE700BF09
:1037A0002401002010B5044C237813B9034836F0E7
:1037B000B9FA0123237010BD2C60002040150020B1
:1037C00010B50446094845F003FC3CB1084BD3E86A
:1037D000EF1F0139C3E8E21F002AF8D1054837F08E
:1037E00009FCBDE81040044836F09CBAF0360020D1
:1037F000F436002028210020401500200022044B30
:10380000D3E8EF0FC3E8E12F0029F9D1704700BFDB
:10381000F036002070B5FFF7F1FF0546074C084E63
:10382000B44200D370BD63685B792BB123685B68D9
:1038300013B12946204698471034F1E7D4ED05002E
:10384000E4ED050010B5044C0449204644F001FCA9
:10385000034B1C6010BD00BF3012002028F1050092
:10386000E836002000230D4A10B513700C4A0D49AC
:1038700013600D4A0D481360FFF784FFFFF7E2FF66
:103880000B4B0C4918468B4200D310BD1A1A5C68CA
:103890001211013222711033F5E700BF2D600020B4
:1038A000F036002040420F00F4360020CD8F040097
:1038B000D4ED0500E4ED0500014600220023014897
:1038C00044F0E8BB30120020014844F07FBC00BF48
:1038D00030120020024B0146186844F0D2BC00BFF1
:1038E000E8360020014844F007BD00BF3012002038
:1038F000F8B5284B1B78002B4AD0FFF7E5FF0446AC
:10390000002842D1244B254D1B68002B19DD56F0B1
:1039100038F84FF47A76A0FB060747F61222002308
:1039200006FB0171FDF796FAD5E90032C01A40F2A4
:10393000E93361EB0201984271F1000101D3FFF715
:1039400069FFD5E9003213F57A7342F10002C5E947
:103950000032ECB1BDE8F840FFF7C4BF6B685B799B
:1039600023B12B68214628461B6898471035B5427D
:10397000F4D32046FFF7AEFF094BD3E8EF1F013920
:10398000C3E8E21F002ABDD0F7E7064D064EEEE77A
:103990000020F8BD2C600020F036002020210020FF
:1039A000F4360020D4ED0500E4ED050070B50D4DB2
:1039B000297861B90120FFF793FE0B4C0B4EB442FE
:1039C00006D3FFF795FF0028FBD101232B7070BDB4
:1039D00063685B791BB1236820469B689847103465
:1039E000EDE700BF2D600020D4ED0500E4ED0500FB
:1039F00000212DE9F8430846FFF772FE044648B35C
:103A000040F21B684FF000091EF058FA1A4B1B4A8F
:103A10001B58136033B11A4B1B68092B02DD194880
:103A200036F080F90025184F44B12046FFF7F6FD27
:103A3000044618B94FF0FF384FF0FF39FFF758FF31
:103A4000064628B9B5B90F4842464B4636F0A4F9A8
:103A50003546E9E74FF0FF384FF0FF39D4E72B68E0
:103A60009B691BB100222846114698471035BD427C
:103A7000F5D3E8E7054DFAE708000000EC36002032
:103A8000F436002040150020E4ED0500D4ED0500DB
:103A900013B5184845F09CFA174B1B7873B1EFF338
:103AA0001184202383F31288BFF36F8FFFF720FF69
:103AB00084F31188BFF36F8F02B010BD0F4B1B68EA
:103AC000002BF9D050B9002200230D48CDE9002386
:103AD00047F61222002337F055FAEDE70928EBD11B
:103AE000074837F087FA074802B0BDE8104036F0C3
:103AF00019B900BFF43600202D600020EC360020FC
:103B0000282100204015002010B5064B04461B68F4
:103B100098472146A060044844F039FBBDE81040B6
:103B2000FFF7B6BF2401002030120020044A054BE5
:103B30009B1AB1EBD30F34BF52F83100002070470D
:103B4000ACEB0500D4ED05002DE9F04F8FB0C1F3CB
:103B50004A2604AF0D469046B8607B600C0D002EDF
:103B600061D04FF000090A234FF0040B07F1140A4B
:103B7000FE60C7E90799C7F824900093CDF808B014
:103B8000CDF804A007F11C034A464046F968FEF749
:103B900003FEB0F5006F03461CD36C468AB0D8F81C
:103BA000041004AB24481A46C3E9050140F2FF7132
:103BB000D9614FF400711984204B42F8103F4FF443
:103BC00012514B461E48FFF7BFFFA5462C37BD4696
:103BD000BDE8F08FC0F30A0604F11700184420F086
:103BE000070080083B60FFF767FE66F35325044635
:103BF00080B13B6800F11001C7E908390A23F96177
:103C0000CDE901AB009340460E4AF96807F11C0369
:103C1000FEF7C2FD66F353252A4620467B68B96845
:103C200045F012FAD2E704F1170020F007008008EF
:103C3000FFF742FE0446EDE7A42E06000400000153
:103C4000F4EB05001B9004002DE9F04F87B005460A
:103C5000DDE9106BDDE9127A884614469946BFB15A
:103C600010213B465A460020CDF800A0CDF814A004
:103C7000FEF7E0FBB0F5006F01460BD340F2FF7397
:103C80000221184A184807B0BDE8F04F45F035BA90
:103C90003946384604F0070305F00704E40044EA17
:103CA000831444EA402444EA065406F11700084409
:103CB00020F0070080080391FFF7FEFD054640B1A4
:103CC0003FB13B465A460399CDF800A01030FEF7AD
:103CD000B1FB4B4622464146284607B0BDE8F04FAF
:103CE00045F0B2B9E32E0600F4EB0500406820B1C0
:103CF000034BC01A40F3CF0070474FF0FF307047BE
:103D0000ACEB05000EB403B503AB53F8042B01462E
:103D1000044801931EF006FB02B05DF804EB03B00B
:103D2000704700BF5D910400CA0605D48B064CBFE6
:103D300002490349FFF7E6BF704700BF60930600E2
:103D4000553106002DE9F04F89B098469DF8509006
:103D5000159B044606930D46DDE916A3189F0592B0
:103D60000493B9F1000F00F0B08007F4807307935B
:103D700045F048F907F0020B0246002874D02046AF
:103D80007749FFF7BFFF0646BBF1000F08D017F0D9
:103D9000440F6BD12A4620467249FFF7B3FF064411
:103DA00007F0010353B1704B204653F829206F4BA5
:103DB0006F49002A08BF1A46FFF7A4FF07F4807373
:103DC000002B07F0080318BF4FF00008002B79D034
:103DD000684B204653F829206749FFF793FF0546B3
:103DE000059B2BB11A4620466449FFF78BFF05441B
:103DF000B8F1000F05D0424620466149FFF782FF27
:103E0000054460483544069B1BB122465E4943F099
:103E10008BFF049B002B00F08E80DDF8108039466C
:103E2000B8F1100F204628BF4FF010080026FFF70A
:103E30007BFFB54250DC0026334620461AF80320AB
:103E40005249FFF75FFF0136102E4BD0710703D1A7
:103E500020464F49FFF756FF46453346EDD32046EF
:103E60004C49FFF74FFFEEE706468DE74A4B1868CF
:103E7000002894D0494B4FF47A7B1B684FF03C0CE0
:103E8000B5FBF3F5B5FBF0F14FF4616300FB1155A1
:103E90000BFB05F5B1FBF3F2B5FBF0FE03FB1211D2
:103EA00000FB1E55B1FBFCF30BFB05F5B5FBF0F574
:103EB0000CFB131120460091CDE901E53849FFF7CD
:103EC00021FF6CE707F008058AE7B8F1010F4D46BE
:103ED0000CBF2C48334896E720462D49FFF712FFC8
:103EE0000136A6E7002620462F49FFF70BFF334691
:103EF0001AF803202046A2F120035F2B28BF2E22B0
:103F00002A49FFF7FFFE0136102E0DD0720703D1AC
:103F100020461F49FFF7F6FEB0453346E8D8204655
:103F20001B49FFF7EFFEEEE7049BC244B3EB080327
:103F300004937FF472AFB9F1000F0AD0FB0704D5E8
:103F400020460A4A0A49FFF7DDFE39462046FFF7B8
:103F5000EBFE204609B0BDE8F04F45F0F2B800BFD7
:103F6000379A0600202F06004CF105001B2F060093
:103F70008581060060F10500452F06004B2F0600E5
:103F80004F2F06005D91040025230200542F0600E8
:103F90005C2F06005A2F060000370020FC36002058
:103FA000292F06008B9104005E2F060052F30600B5
:103FB00042F20F7373B58B4228BF0B460568044667
:103FC000052168460D4A42F057FD064663682846BB
:103FD0000B225B680A4945F0A6F8636832466946D9
:103FE00028465B6845F09FF863681B2228465B689B
:103FF000044945F098F802B070BD00BF3FC9060003
:10400000311807001518070000210123064A9042C5
:1040100006D8064A01B901231360054B18607047A2
:10402000012140085B00F2E740420F00FC3600200F
:1040300000370020F8B50D460446064F4618B44236
:1040400001D12846F8BD14F8011BBB6801485B6824
:104050009847F4E7D8E00500014B03600020704763
:10406000A8F1050070B5104B0D461C68B4B10F4B9C
:10407000196800238B4202DB6FF0010070BD2246FD
:1040800012F8106B864202D014460133F2E7E06862
:1040900054F039FF28B100202C60EFE76FF00C00DE
:1040A000ECE76FF01200E9E730010020A8F105000D
:1040B00010B5436888B0029383680C46CDE903329B
:1040C00000230A68C068CDE90623054901AA0593C3
:1040D00053F07EFC079808B9059B236008B010BD1B
:1040E000879204002DE9F0410C4B05461C680E46F2
:1040F00017467CB100F06AF963682046D3F8108057
:1041000032463B462946C047044600F069F920463E
:10411000BDE8F0816FF00104F9E700BF30370020FF
:1041200000230360044B5A6812B9C3E900007047CA
:1041300010605860704700BF34370020014B186092
:10414000704700BF30370020002330B585B0CDE97F
:1041500002330546019000F039F9094B1C6844B957
:10416000284600F0D5F8044600F03AF9204605B09C
:1041700030BD636820461B6801A998472468EEE7B4
:10418000343700201FB5CDE90101039200F01EF97C
:10419000074B1C6824B900F023F9204604B010BD79
:1041A000636820461B6801A998472468F2E700BFAE
:1041B000343700200022024BC3E90022704700BFC1
:1041C000343700200022024BC3E90022FFF7F2BF80
:1041D0003C3700202DE9F74307460C4609B1002380
:1041E0000B6000261E4DDFF87C904D450FD31E4B13
:1041F0001D6885B355F8188C3846414601AA183D0C
:1042000045F080F810B3D6B914BB2E461EE0D5F8A1
:1042100000803846414601AA45F074F850B116B9FD
:1042200054B92E4606E000224046316845F06AF84F
:104230000028F5D11835D8E7019B2360F1E700226B
:104240004046316845F05EF80028DDD1AD69D0E721
:10425000019B2360D9E7304603B0BDE8F08300BF7F
:10426000E4ED0500FCED05003C3700202DE9F047AA
:1042700084B002AFD7F8289004460D4616469846FB
:104280007860B9F1000F07D0D9F8001031BBD9F828
:1042900004A0BAF1000F28D12046391DFFF79AFF7C
:1042A00008B3D0F80C904346324629467868C84790
:1042B000C8B16D468AB002AA124BD061C2E905347A
:1042C0004FF400731384104B42F8103F00234FF457
:1042D00011510E48FFF738FCAD4604E03A1D45F099
:1042E00011F80028D3D1002007E0D9F80830324671
:1042F0000093294643467868D0470837BD46BDE855
:10430000F08700BF9A2F0600040000015CED050055
:104310002DE9F04780464FF000470026DFF8A090D7
:10432000DFF8A0A03D46284C4C450DD3DAF80040FC
:10433000002C40D0183CB8F1000F24D1226952BBA8
:10434000A469F5E72F46EDE7B8F1000F03D1226924
:104350004AB91834E8E700224146206844F0D2FF09
:104360000028F4D1F5E76368BB4206DDAF4202D016
:10437000AB42A8BF2B461D46EBE7EAD19047002E83
:1043800008BF0646E5E700224146206844F0BAFF30
:104390000028D3D1D4E76368BB4206DDAF4202D028
:1043A000AB42A8BF2B461D46CAE7C9D19047002E95
:1043B00008BF0646C4E7AF42C4D13046BDE8F08727
:1043C000FCED05003C370020E4ED05004FF0FF3226
:1043D0004FF0FF33014835F0B1BB00BF7C14002023
:1043E000014835F01DBC00BF7C14002038B5094DD4
:1043F000FFF7ECFF2B785BB9FFF7E4FE00F01EF946
:10440000044608B901232B70FFF7EAFF204638BDA8
:104410000024F9E72F6000202DE9F04F00F1080695
:104420009BB00746894608234FF00041304607AA53
:1044300044F0A4FD002827DB089D0DB9284623E0A1
:1044400025F0010A492307AA5146304644F096FD5B
:104450000AF1804B59460446304644F09CFD08233F
:1044600080462946304605AA44F088FD00280BDB2B
:10447000002C069D02DDB8F1000F08DC51463846DD
:1044800044F0C6FF0028D8D01BB0BDE8F08F04F17F
:1044900068030DEB03040023414604F84C3C054A35
:1044A000CDF8009003AB07A8CDE9036BFFF7DEFE64
:1044B000E8E700BF519304002DE9F04F9BB004469C
:1044C0008846CDE90123002900F0AE804A2140460C
:1044D00059F0F7FB019B814693B3029BB3FA83F536
:1044E0006D094FF0000B49464046FDF7A7FE4FF01F
:1044F000FF36DA4620F0404020F01F0040F0004335
:10450000009304F10803039394F85C305B4519DAD7
:1045100053453CD3009F760006F01E0637436DB925
:104520000125DDE9012304F10806304607F1804149
:10453000FEF754FF002834DB002D42D1002030E08C
:104540000125CEE7009B039803EB4B07394649232F
:1045500007AA44F013FD831C06D1B6F1FF3F08BF44
:104560005E460BF1010BCFE700281ADB002200F1B9
:1045700068036B44484503F84C2C05D14A46404635
:1045800007A959F058FBA8B10AF1010AE9E7BAF105
:104590000F0F09D926480121264A44F0A5FD6FF0E6
:1045A0001B001BB0BDE8F08F009B84F85CA043EAC1
:1045B0004A07B4E7002DB4D03946204644F028FF1E
:1045C000EFE700230693636D002B22DA636D47F05B
:1045D0000105059329460823304605AAFEF7FEFE8D
:1045E0000028DEDBA36D30460593616D082305AA24
:1045F0000695FEF7F3FE0028D3DB636D4246C4E95F
:10460000155339464B463046FEF7E8FE00EAE070A7
:10461000C7E707480221084A44F066FD204644F0F7
:104620009DFE0028D2D0BCE76FF01500B9E700BFAF
:104630005CED0500C82F0600E82F06007FB50123BA
:10464000694603200193FFF70DFD044668BB032074
:1046500002AA01A944F039FE044610B110F10C0F72
:1046600023D1009B03999A68134DB2FBF1F2C5E97F
:1046700008125A68DB68AA602B656B64C3B105F148
:10468000080044F074FC044678B985F85C002846BC
:1046900044F064FE044640B9084E28466E60FFF7B9
:1046A0003FFD28466E60FFF749FD204604B070BD0F
:1046B0006FF01204F9E700BF60210020ECF1050063
:1046C00008B5044843F0B7FB034843F0B4FB0020AF
:1046D00008BD00BF2230060057300600F0B5054681
:1046E00089B000AF20220021384659F010F93B462E
:1046F00028461B4A1B493CF039FF04460646C0B118
:104700006D4688B06A46184B0593184B06934FF4D4
:104710000073ADF81C30164B42F8103F00234FF4E5
:10472000E2511448FFF710FAAD4620462437BD4643
:10473000F0BD394628463CF0CFFF04460028F4D0AF
:104740006D4688B06A460C4B0593084B06934FF4B0
:104750000073ADF81C30064B42F8103F3346DEE7DD
:10476000E25501004E180700843006003D1807008E
:1047700003000001A4ED0500A63006002DE9F0417C
:104780000546F4200E4646F078FB044640B1294623
:10479000F20000F0D7F9002806DA204646F06FFB59
:1047A00000242046BDE8F0812246002104EB0013DE
:1047B0008600751AA94202F11002A3F1100309DB69
:1047C00021464FF0010C294D294E60451CDCC4F8F0
:1047D000F000E6E752F8105C1F69043142F8107CE3
:1047E0001D6152F80C5C5F6942F80C7C5D6152F807
:1047F000085C9F6942F8087C9D6152F8045CDF699F
:1048000042F8047CDD61D4E710310F1F01F10C0E7A
:1048100057F8042FD3B256F82330BE45C3F307230D
:1048200055F823804FEA126356F82330C3F3072369
:1048300055F8233083EA3863C2F3074856F82880D6
:10484000C2F3072256F82220C8F3072855F828801B
:10485000C2F3072255F8222083EA382383EA324341
:104860003B60D5D10CF1010CAFE700BF08F20500A9
:1048700008F605002DE9F04F0E6803684D6836BA5A
:104880005E4043688C682DBA5D408368C96824BA6D
:104890005C40C36809BA5940D0F8F03086464FEA08
:1048A000630CE3468DB0A54B0190370E53F827708B
:1048B000DEF810005FFA81FA87EA0008EFB253F8D9
:1048C0002770DEF8140088EA3768C1F3074753F809
:1048D000277053F82AA088EA3728C4F3072753F82B
:1048E0002770BBF1010B88EA37484FEA156753F888
:1048F000277087EA0009E7B253F82770DEF818003E
:1049000089EA3769C6F3074753F8277089EA3729D8
:10491000C1F3072753F827704FEA116189EA374935
:104920004FEA146753F8277053F8211087EA0007FD
:1049300087EA3A67C5F3074A53F82AA0DEF81C0055
:1049400087EA3A27C6F3072AF6B253F82660C4F37B
:10495000074453F8244081EA000181EA3661C5F337
:1049600007254FEA186081EA342153F8254053F8AF
:104970002AA002904FEA196081EA34410390C8F3FB
:10498000074087EA3A470490C1F3072005904FEAB1
:1049900017600690C9F307400790C8F30720C1F3DA
:1049A000074A0890C8B24FEA11610A91C7F307415C
:1049B0005FFA89F6C7F30725FCB209900B91C9F39A
:1049C00007295FFA88F850D00299049853F82170AB
:1049D000DEF820100EF1200E4F4053F8261053F849
:1049E0002A6087EA316181EA362653F82510DEF81D
:1049F0000C7086EA3146039953F82150DEF8041012
:104A00004D4053F8241085EA316153F8205007983F
:104A100081EA3525059953F8211085EA3145069933
:104A200053F82140DEF808104C40099953F8211042
:104A300084EA316153F820400B9881EA34240899C4
:104A400053F8211084EA31440A9953F8211079402F
:104A500053F8287081EA376153F8207081EA3721D2
:104A600053F8297081EA37411FE701980CF1FF3CA8
:104A7000334B20304FEA4C11415800EB4C1C02984C
:104A80009E5D185C714081EA006013F80A1080EAAC
:104A90000141585D81EA0021080E1070080C507029
:104AA000080A9070D170DCF80410185D4840039932
:104AB000595C80EA01610498185C81EA004005991C
:104AC000595C80EA0120010E1171010C5171010A3B
:104AD00091710999D071585CDCF808104140069832
:104AE000185C81EA00610798185C81EA0041089827
:104AF000185C81EA0021080E1072080C5072080A36
:104B0000D1729072DCF80C0013F8081041400A983A
:104B1000185C81EA00610B98185C13F8093081EA8F
:104B20000041584681EA0323190E1173190C517381
:104B3000190A9173D3730DB0BDE8F08F08F2050028
:104B40003A6E08002DE9F0430E68802A36BA0660F6
:104B50004D682DBA45608C6824BA8460CB681BBA56
:104B6000C36036D17749784F01F10A0CC3F30722AD
:104B70004FEA136E57F8222057F82EE002F47F0216
:104B8000CEF3072E42EA0E025FFA83FE57F82EE0BC
:104B900011F8018B0EF47F4E82EA0E02C3F3074E2A
:104BA00057F82EE042EA08624FEA0E2E0EF07F4ED2
:104BB00082EA0E02564075406C40634061450661D2
:104BC00045618461C36100F11000CFD10A20BDE8C6
:104BD000F0830F69C02A3FBA07614F693FBA476146
:104BE0003FD1DFF860C1584900F1A80EC7F3072292
:104BF0004FEA176951F8222051F8299002F47F02F8
:104C0000C9F3072942EA09025FFA87F951F82990A6
:104C10001CF8018B09F47F4982EA090242EA086222
:104C2000C7F3074851F8288086454FEA082808F05E
:104C30007F4882EA080286EA020685EA060584EAD7
:104C4000050483EA04038661C5610462436201D1FD
:104C50000C20BCE7026918305A4057400261476196
:104C6000C4E78F69B2F5807F3FBA8761C96909BA25
:104C7000C16163D1DFF8CCE0DFF8CCC000F1C0083F
:104C8000C1F307224FEA11695CF822205CF82990F1
:104C900002F47F02C9F3072942EA09025FFA81F9A7
:104CA0005CF829901EF8017B09F47F4982EA090229
:104CB00042EA0762C1F307475CF8277080454FEA74
:104CC000072707F07F4782EA070286EA020685EA9D
:104CD000060584EA050483EA0403066245628462E9
:104CE000C36201D10E2072E7C3F30722DFB25CF882
:104CF00022205CF8277002F47F42C7F307273A436B
:104D00001F0E5CF82770C3F307495CF829903F0237
:104D100007F07F4709F47F0947EA09077A400769E6
:104D200020307A4050F80C7C02617A4050F8087CC0
:104D300042617A4051408261C161A1E74FF0FF308A
:104D400045E700BF306E080008F605002DE9F04F7A
:104D5000ADF56B7D824690468B461A2200210DF1FF
:104D60003A000193F59C58F0D2FD00214FF44572B2
:104D700025A8049158F0CBFDF79B5649DAB2F69B73
:104D800042F00072DD1DADF80E30019B0A440DF1BA
:104D90000E01CDE90831022340460DF10C0912F84D
:104DA000037C0A93CDE90698FCF79EF802230D9345
:104DB0004FF470531093F79BF49A11934FF4885368
:104DC00004AE51460B900C92ADF838305A4633463B
:104DD0000EA836F0C3FFED088246002877D04FF0CA
:104DE000FF3A50460DF56B7DBDE8F08FF79A25A888
:104DF00055F033F980B9804606AB0DF1280B53F816
:104E0000041B5BF8042B25A8019355F029F9019B9D
:104E100040B125A855F0CAF830680028DFD036F038
:104E200051FFDCE708F10108B8F1040FE7D13A4679
:104E3000214615AB25A855F025F90028E9D1B9F888
:104E400000303C440133ED1B9BB2AF423168A9F8FE
:104E50000030CBD94DB3F79A25A855F0FEF8074698
:104E60000028D9D10DF118090DF1280858F8042BA4
:104E700059F8041B25A855F0F3F80028C9D10137CB
:104E8000042FF3D105AF3B46402215A925A855F0C4
:104E9000F9F80028BDD1204615A92A4658F011FD81
:104EA000059915A82C4436F0A5FBF69B13F00703D3
:104EB00009D0FF22C3F1080302FA03F314F8012C0E
:104EC000134004F8013C306836F0FCFE89E701230A
:104ED000BBE700BF3A6F08FE1FB5064C0394089C61
:104EE000E4000294079C0194069C0094FFF72EFFB7
:104EF00004B010BD0B0080031FB5064C0394089C42
:104F0000E4000294079C0194069C0094FFF71EFFA6
:104F100004B010BD0A0080030338082808D8DFE871
:104F200000F0051E14070716181A1C000D4B0B6025
:104F30000B7843F0007303F17E43033B122B8EBFCB
:104F400000230949CB5613607047084BEFE7084B25
:104F5000EDE7084BEBE7084BE9E7084BE7E7084BC1
:104F6000E5E700BF03000002606F080005000002D3
:104F700008000002090000020A0000020B00000203
:104F8000040000022DE9F04B0C460025ADF5527DE2
:104F900000218346904606A81C22994658F0B7FC8B
:104FA0004FF4457200210DA858F0B1FCA4F1100295
:104FB000102A03AF04953D6063D8334BD340DB0721
:104FC0005FD54FF41053ADF818304FF480632F4E77
:104FD00005A80593099644F07FFC036822460893D0
:104FE00059463B4606A836F0B9FE044640B1034692
:104FF0004FF4987200952649264842F01CFF22E0A3
:1050000006A855F093F9324639680DA855F025F8F1
:10501000044628B303464FF49A720095EBE7DA9BF7
:1050200059F8241053F824200DA855F019F8054616
:10503000A8B1002340F239120093154903461548E0
:1050400042F0F9FE2C460DA854F0B0FF386808B1C4
:1050500036F038FE20460DF5527DBDE8F08B013468
:105060004445DCD11022DB9904AB0DA855F00AF8B9
:1050700004460028E7D0002340F23D120093034687
:10508000B9E74FF0FF34E5E7010101000002C0037A
:10509000C7300600023106002DE9F04F0025ADF5BE
:1050A000577D0AAECDE902019DF8889329469346C3
:1050B00030461C221F460DF1140ACAF8005058F061
:1050C00026FC4FF44572294611A858F020FC5146A1
:1050D000484607AA08950695FFF71EFFDAF8004034
:1050E0000DF1180854B949463A4842F0A4FE4FF071
:1050F000FF3A50460DF5577DBDE8F08F4FF48853C9
:1051000033804FF48063E4B209A844F06079CAF8B0
:1051100000900993C6F80C9044F0DEFBDDE9021222
:1051200003683046B360434636F018FE824640B10D
:1051300003464FF4C37200952749284842F07BFE8E
:1051400023E0304655F0F2F84A46D8F8001011A88E
:1051500054F083FF824618B303464FF4C57200959E
:10516000EAE7E09B57F82A1053F82A2011A854F0D8
:1051700077FF054690B1002340F28F120093164945
:105180000346164842F057FEAA4611A854F00EFFF7
:1051900006980028ADD036F095FDAAE70AF1010A7D
:1051A000DA45DED144F0007404F17E44033C122C55
:1051B00096BF0B4B00221A5DE19908AB11A854F081
:1051C00061FF82460028E0D0002340F29312009352
:1051D0000346B1E737310600C7300600023106004A
:1051E0004D6F08002DE9F047ADF5B06D07AC0646F0
:1051F0008A46914600211C222046984658F087FB9B
:1052000000214FF4A96203AF0EA80391049158F056
:105210007EFB3946304605AAFFF77EFE039F04ADAC
:105220001FB93146414842F006FE4FF4804306A8BC
:10523000069344F051FB4FF6F8720368B2EBC90FC6
:10524000A3604FF6FF7241F2032323804FEAC903A4
:1052500038BF13460026FFB247F008676380204638
:105260002B464A46514647F4807766606661E760A0
:1052700036F074FD044690B103464FF4DB7200969D
:105280002B492C4842F0D7FD0EA854F028FF28687F
:1052900036F018FD20460DF5B06DBDE8F0873946B3
:1052A0000EA854F060FF044620B1034640F2B91244
:1052B0000096E5E70346074640F20521DDF8A42500
:1052C0000EA836F079FF044620B1034640F2BD1225
:1052D0000096D5E7424640F20221DDF8A0350EA83F
:1052E00054F074FF044620B1034640F2C112009707
:1052F000C6E74FF481712A680EA854F070FF044687
:1053000020B1034640F2C5120096B9E7DDF8A825A2
:10531000DDF8AC150EA854F010FF04460028B3D0F9
:1053200003464FF4E4720097AAE700BF433106003A
:10533000C73006000231060010B537F09FF9044669
:1053400018B10146024842F076FD204610BD00BF6C
:1053500058310600014A41F08FBB00BF7B31060087
:1053600010B5044628B90520034904F0C7FA2046C1
:1053700010BD846FFBE700BF80310600002370B5CD
:10538000ADF5826D03AE336006214FF48063009665
:1053900004AA054637F080F8044650B10246134986
:1053A000052004F0ABFA4FF0FF3420460DF5826D76
:1053B00070BD3668B6F5807F07D94FF480733246EA
:1053C00005200B4904F09AFAEDE7324604A905F2EC
:1053D000FC7058F076FA3246C5F8FC6804A905F569
:1053E000DF6058F06EFAC5F8F867DEE7AA3106000C
:1053F000F0310600002370B5C4B003AE3360042161
:105400004FF48073009604AA054637F045F8044629
:1054100048B102460E49052004F070FA4FF0FF34FF
:10542000204644B070BD3668B6F5807F07D94FF48A
:10543000807332460520074904F060FAEEE73246F1
:1054400004A905F5DF6058F03CFAC5F8F867E7E70E
:105450003C3206008332060070B5064630B9294951
:10546000052004F04BFA4FF0FF3070BD806F30B173
:1054700044F053FAB06F45F002FD0023B36740F6E5
:10548000882045F000FD044608B91F49E8E70025DB
:10549000C0F8B055C0F8B455C0F8B85544F034FA67
:1054A0001323C4F8783A4FF480334FF48072C4F871
:1054B000803A294684F8C055C4F8BC55C4F8F8575A
:1054C000C4F8445A04F2F45058F021FA4FF48072B0
:1054D000294604F5DF6058F01AFA4022294604F6FE
:1054E000042058F014FA2022294604F6482058F0E7
:1054F0000EFA1022294604F6682058F008FA2846C9
:10550000B467B2E7D1320600FC3206002DE9F04F55
:105510000D46ADF2B45D05AF04461C2200213846AD
:1055200058F0F5F94DB90520A54904F0E7F94FF019
:10553000FF300DF2B45DBDE8F08F2B6804F2CD5062
:105540001A684FF00009C4F8C1259B881AAEA4F868
:10555000C53504F2C75301936B681A68C4F8C725B0
:105560009B88A4F8CB35D5E9041258F0AAF96B69E9
:1055700004F2F450C4F8F035D5E9021258F0A1F95C
:10558000EB68904AC4F8F436AB692046C4F8783A20
:105590002B7F84F8803A6B7F84F8813A8A4BC4F879
:1055A0007C3A697F894BC4F8B89500290CBF9346B3
:1055B0009B4604F5B6630193854BC4F8B0B5C4F8B7
:1055C000B43544F0A1F94FF480433046336044F0E1
:1055D0008FF93368D5F80CA0BB60AB68019313B1A9
:1055E000BAF1000F05D152467A49052004F086F938
:1055F0009DE72B7F002B00F0938049464FF4A96272
:1056000058F085F90DF14C0849461A220DF1320087
:1056100058F07DF949461C22404658F078F94FF47D
:105620008043CDF80C900DF110094846C9F80030C0
:1056300044F05EF9D9F8003003AF0E9341F2032332
:10564000ADF83030644B52460F9301993B460CA89D
:1056500036F084FB024608B16049C6E794F87C1A2C
:10566000304641F0086141F4806154F07CFD02460F
:1056700038B105205A4904F041F9386836F022FB68
:1056800055E7D5E9042302B143B905201A46554927
:1056900004F034F91AA854F022FDEEE740F202219A
:1056A000304654F093FD024628B14F49052004F0DE
:1056B00025F93046EFE74FF4817130463A6854F0EF
:1056C0008EFD054610B102464849EFE7386836F0CE
:1056D000F9FA4FF480434846C9F8003044F008F91D
:1056E000D9F800303146C8E9023B414B404604F24C
:1056F000BC52C8E90035C8F8145036F07BFC0546AA
:10570000304654F0ECFCDDB194F87C3A2A4643F084
:1057100008630520374943F4806304F0EFF806E797
:1057200041F2032352463B803846019904F2BC53B0
:10573000C7F80CB036F012FB024608B12E4954E708
:105740002046D4F8BC1504F5B66236F067FD054670
:10575000E8B110F1860F14D0284B294A10F1850FBB
:1057600008BF13462A460520264904F0C7F815F15C
:10577000860F08D12449052004F0C0F8D4F8BC05F0
:105780007CE7224BEEE78535F8D12149F3E7062285
:10579000204604F2C15136F031FE024620B11D49C7
:1057A000052004F0ABF8E9E70622204604F2C751D1
:1057B00036F04CFE00283FF4BCAE02461649EFE737
:1057C000733306000908000A090000020909000AEB
:1057D00000011201AE33060009048008F53306000B
:1057E000253406004B34060082340600A834060037
:1057F00092320001CF34060007350600343306002C
:105800005B330600333506005B3506004333060084
:10581000CC3506000B3606002C36060038B50D4692
:10582000044630B90D49052004F068F84FF0FF3008
:1058300038BD836F23B9FFF70FFE08B10849F2E7BF
:105840002046FFF78DFD08B90649ECE70DB1132D91
:10585000ECD11323C0F8783A0020E9E74D36060072
:105860007A360600AE3606002DE9F0438BB0DDF83F
:10587000489006460D4617469846B9F1000F04D1E8
:105880002D49052004F03AF809E008B101B15AB9F0
:105890002B46324605202949009704F02FF84FF097
:1058A000FF300BB0BDE8F0834846FFF7D5FD01306F
:1058B00001D12349E5E74846FFF752FD044608B900
:1058C0002049DEE733684246C0F8C135B38839461F
:1058D000A0F8C5352B6800F2F45040F82D3CAB8899
:1058E00020F8293C57F0EDFF04F2CD530693D4F88D
:1058F000F03520460793D4F8783AC4F8F486089334
:10590000B4F8803A02A9CDE90265CDE90478ADF892
:105910002430FFF7FBFD013001D10B49B1E72046F0
:10592000FFF72CFD013001D10849AAE7012300202F
:1059300089F80030B5E700BFE83606001A370600E0
:1059400075370600AE370600ED3706002038060032
:105950002DE9F347DDF834808A46DDE90B971546DB
:105960001E46FFF7FDFC044618B9012002B0BDE851
:10597000F08717B1012380F8803A622DF5D12A46CD
:10598000514604F5DF6057F09CFFC4F8F857BAF8A9
:1059900060304FF0600A012704F2FA65524629464A
:1059A000A4F8603904F51060ADF8047057F089FF71
:1059B0002A46534606212046C4F800AA36F0B8FD10
:1059C000024630B11749052003F098FF4FF6FF70EB
:1059D000CCE701AA02230721204684F8C07536F0DF
:1059E000A7FD024608B11049EDE72046FFF702FD8A
:1059F00020B105200D4903F081FFE7E716B10A9BAE
:105A000030601860B9F1000F02D00023C9F80030EF
:105A1000B8F1000F01D10020A8E76223C8F80030D8
:105A2000F9E700BF543806009A380600CB38060064
:105A30002DE9F0438BB006460D4617469846FFF712
:105A40008FFC0446A0B17B1EFF2B11D825B942491B
:105A5000052003F053FF0BE02A463B46042136F0B5
:105A600067FD054650B102463C49052003F046FF5C
:105A70004FF0FF3528460BB0BDE8F08301461A22EF
:105A80000DF10E0057F043FF44F2010302A8029308
:105A9000019543F02DFF029B01AA05934FF490530B
:105AA000204603A9ADF80C3054F0DDFB024628B1C6
:105AB00005202B4903F022FF2A49C9E7202045F0A1
:105AC000DCF9074678BB0520274903F017FF4FF0A4
:105AD000FF35019808B136F0F5F817B1384645F0B2
:105AE000CEF9002DE8D13046032300F8043BD4F86A
:105AF000442A04F6042157F0E4FED4F8443A54361C
:105B000046F8103C04F6682304F6782453F8042B76
:105B1000A34246F8042BF9D1B8F1000FAAD0002314
:105B2000C8F80030A6E701462022019802AB54F0E5
:105B30000AFA054628B102460C49052003F0DEFEAC
:105B4000C5E7DDF8089039464A4604F6042057F0C8
:105B5000B8FEC4F8449ABCE7153906005639060069
:105B60009D390600203A0600C4390600F0390600C7
:105B70002DE9F0478A4690461F46064688B0002821
:105B80003BD0002939D0FFF767FC013035D03046D3
:105B9000FFF7E6FB044680B3D8F80030C0F8C13503
:105BA000B8F80430A0F8C5353B68C0F8C735BB88E5
:105BB000A0F8CB35D0F8F4361BB1D0F8F035002B77
:105BC00040D1394B00251968384B99468D4204DB8A
:105BD0000520374903F092FE0FE01A6852455ED166
:105BE000D3F80421002A5AD0B2F5807F0AD94FF4A5
:105BF000807305202F4903F081FE4FF0FF3008B07D
:105C0000BDE8F0874FF496735D43291D09EB050A43
:105C1000494404F2F45057F054FEDAF80431C4F861
:105C2000F436DAF82821531E1F2B0BD805F584759E
:105C300009EB050104F2CD5057F043FEDAF82831A4
:105C4000C4F8F035012584F8805A96F87630694614
:105C50002B4386F8763004F2F4530293D4F8F436EA
:105C60002046039304F2CD530493D4F8F035CDE9E4
:105C700000870593D4F8783A8DF81C50069394F871
:105C8000813A8DF81D30FFF741FC0130B5D0204638
:105C9000FFF774FB0130B0D000203570AFE701355D
:105CA00003F5967392E700BF443700204837002081
:105CB000973A0600683A060008B530B90B49052046
:105CC00003F01CFE4FF0FF3008BDFFF749FB08B999
:105CD0000749F4E790F8C025012A05D001230520E3
:105CE000044903F00BFEEDE70020EDE7113B060051
:105CF000433B0600823B06002DE9F04F87B09046FB
:105D00000193132200238A46CDE9042300B904A895
:105D10000027BB46DFF8CC90061F56F8045F002D25
:105D200003DC584607B0BDE8F08FB8F1200FF4D877
:105D3000132DF2D1182045F0A6F804460028ECD027
:105D4000019B4560002B3AD0109B013BFF2B36D8BE
:105D500000254FF4967202FB05F359F803108C42AC
:105D600001D0002936D16A43181D09EB02010291C6
:105D700049F802400199109A4844039357F0A1FD55
:105D8000029B109AC3F80421BAF1000F20D0039BA4
:105D9000B8F1000F06D003F58470424651464844DE
:105DA00057F08FFD42464FF4967303FB0593C3F8FB
:105DB00028210D4B1A68AA4201DC01351D60002321
:105DC000C4E90233C4E9043347B13C602746A4E781
:105DD0005246E8E70135082DBDD1F0E72746A34636
:105DE0009BE700BF48370020443700202DE9F041F1
:105DF000054638B300263746134CDFF85080D8F8F4
:105E00000030B34204DC2846BDE8F04145F037B825
:105E100054F8043CAB4211D14FF48072002120466B
:105E200057F075FD2022002104F5827057F06FFDB8
:105E3000C4F80071C4F8247144F8047C013604F5F8
:105E40009674DCE7BDE8F0814C3700204437002031
:105E500008B543F0F0FDA0F57A20A0F540600D28CC
:105E600096BF024B002033F9100008BDA4240600A1
:105E7000B0F5004F11D0B0F5800F0ED0B0F5000F87
:105E80000BD0B0F1807F08D0B0F1805F05D0044B1B
:105E90000340181E18BF012070470120704700BF43
:105EA000000C3F0CB0F5004F0ED0B0F5800F0BD0BA
:105EB000B0F5000F08D0B0F1805F05D0034B034070
:105EC000181E18BF0120704701207047E08D370D64
:105ED0002DE9F84F14460F4620228146002104F197
:105EE000080057F014FD01220823072FC4E90023FE
:105EF000E360626140F2B28099F80020DD2A40F050
:105F0000B08099F80110BA1E914240F0AA8009F1C0
:105F1000020043F090FDDFF86481404540F0A1802D
