:020000040000FA
:10000000E8690320BD2302006B290500A923020033
:10001000A9230200A9230200A9230200A9230200A8
:100020000000000000000000000000009924020011
:10003000A92302000000000065260200A923020097
:10004000FD260200FD260200FD260200FD2602001C
:10005000FD260200FD260200FD260200FD2602000C
:10006000FD260200FD260200FD260200FD260200FC
:10007000FD260200FD260200FD260200FD260200EC
:1004C000FD260200FD26020081F0004102E000BF8F
:1004D00083F0004330B54FEA41044FEA430594EA04
:1004E000050F08BF90EA020F1FBF54EA000C55EA3F
:1004F000020C7FEA645C7FEA655C00F0E2804FEA10
:100500005454D4EB5555B8BF6D420CDD2C4480EAF1
:10051000020281EA030382EA000083EA010180EA21
:10052000020281EA0303362D88BF30BD11F0004F6F
:100530004FEA01314FF4801C4CEA113102D04042A5
:1005400061EB410113F0004F4FEA03334CEA1333E0
:1005500002D0524263EB430394EA050F00F0A780F8
:10056000A4F10104D5F1200E0DDB02FA0EFC22FAF3
:1005700005F2801841F1000103FA0EF2801843FAE7
:1005800005F359410EE0A5F120050EF1200E012AD8
:1005900003FA0EFC28BF4CF0020C43FA05F3C01816
:1005A00051EBE37101F0004507D54FF0000EDCF18F
:1005B000000C7EEB00006EEB0101B1F5801F1BD338
:1005C000B1F5001F0CD349085FEA30004FEA3C0C3C
:1005D00004F101044FEA445212F5800F80F09A8032
:1005E000BCF1004F08BF5FEA500C50F1000041EB36
:1005F000045141EA050130BD5FEA4C0C404141EB3A
:100600000101013C28BFB1F5801FE9D291F0000F34
:1006100004BF01460020B1FA81F308BF2033A3F1E3
:100620000B03B3F120020CDA0C3208DD02F1140CDA
:10063000C2F10C0201FA0CF021FA02F10CE002F115
:100640001402D8BFC2F1200C01FA02F120FA0CFC0E
:10065000DCBF41EA0C019040E41AA2BF01EB045157
:10066000294330BD6FEA04041F3C1CDA0C340EDC55
:1006700004F11404C4F1200220FA04F001FA02F398
:1006800040EA030021FA04F345EA030130BDC4F156
:100690000C04C4F1200220FA02F001FA04F340EA4B
:1006A0000300294630BD21FA04F0294630BD94F0FC
:1006B000000F83F4801306BF81F480110134013DE3
:1006C0004EE77FEA645C18BF7FEA655C29D094EA54
:1006D000050F08BF90EA020F05D054EA000C04BFD2
:1006E0001946104630BD91EA030F1EBF00210020BD
:1006F00030BD5FEA545C05D14000494128BF41F05C
:10070000004130BD14F580043CBF01F5801130BDBF
:1007100001F0004545F0FE4141F470014FF000004A
:1007200030BD7FEA645C1ABF194610467FEA655CFB
:100730001CBF0B46024650EA013406BF52EA03359D
:1007400091EA030F41F4002130BD00BF90F0000F8B
:1007500004BF0021704730B54FF4806404F13204C7
:100760004FF000054FF0000150E700BF90F0000F80
:1007700004BF0021704730B54FF4806404F13204A7
:1007800010F0004548BF40424FF000013EE700BF77
:1007900042004FEAE2014FEA31014FEA02701FBF07
:1007A00012F07F4393F07F4F81F06051704732F039
:1007B0007F4208BF704793F07F4F04BF41F4002190
:1007C000704730B54FF4607401F0004521F00041EE
:1007D0001CE700BF50EA010208BF704730B54FF078
:1007E00000050AE050EA010208BF704730B511F079
:1007F000004502D5404261EB41014FF4806404F1B1
:1008000032045FEA915C3FF4D8AE4FF003025FEA36
:10081000DC0C18BF03325FEADC0C18BF033202EBBA
:10082000DC02C2F1200300FA03FC20FA02F001FA14
:1008300003FE40EA0E0021FA02F11444BDE600BFB7
:1008400070B54FF0FF0C4CF4E06C1CEA11541DBF66
:100850001CEA135594EA0C0F95EA0C0F00F0DEF831
:100860002C4481EA030621EA4C5123EA4C5350EA16
:10087000013518BF52EA033541F4801143F4801367
:1008800038D0A0FB02CE4FF00005E1FB02E506F0F8
:100890000042E0FB03E54FF00006E1FB03569CF04D
:1008A000000F18BF4EF0010EA4F1FF04B6F5007F53
:1008B00064F5407404D25FEA4E0E6D4146EB0606C5
:1008C00042EAC62141EA55514FEAC52040EA5E504E
:1008D0004FEACE2EB4F1FD0C88BFBCF5E06F1ED8F8
:1008E000BEF1004F08BF5FEA500E50F1000041EB2F
:1008F000045170BD06F0004646EA010140EA0200DC
:1009000081EA0301B4EB5C04C2BFD4EB0C0541EAFD
:10091000045170BD41F480114FF0000E013C00F312
:10092000AB8014F1360FDEBF002001F0004170BD36
:10093000C4F10004203C35DA0C341BDC04F114044F
:10094000C4F1200500FA05F320FA04F001FA05F2DB
:1009500040EA020001F0004221F0004110EBD370A8
:1009600021FA04F642EB06015EEA430E08BF20EAD4
:10097000D37070BDC4F10C04C4F1200500FA04F377
:1009800020FA05F001FA04F240EA020001F0004109
:1009900010EBD37041F100015EEA430E08BF20EA7C
:1009A000D37070BDC4F1200500FA05F24EEA020EC4
:1009B00020FA04F301FA05F243EA020321FA04F0F3
:1009C00001F0004121FA04F220EA020000EBD370AA
:1009D0005EEA430E08BF20EAD37070BD94F0000FAA
:1009E0000FD101F00046400041EB010111F4801FDE
:1009F00008BF013CF7D041EA060195F0000F18BF8F
:100A0000704703F00046520043EB030313F4801FCA
:100A100008BF013DF7D043EA0603704794EA0C0F84
:100A20000CEA135518BF95EA0C0F0CD050EA41069A
:100A300018BF52EA4306D1D181EA030101F0004117
:100A40004FF0000070BD50EA410606BF104619463F
:100A500052EA430619D094EA0C0F02D150EA01364B
:100A600013D195EA0C0F05D152EA03361CBF10468C
:100A700019460AD181EA030101F0004141F0FE412B
:100A800041F470014FF0000070BD41F0FE4141F4AF
:100A9000780170BD70B54FF0FF0C4CF4E06C1CEAAF
:100AA00011541DBF1CEA135594EA0C0F95EA0C0F64
:100AB00000F0A7F8A4EB050481EA030E52EA03351F
:100AC0004FEA013100F088804FEA03334FF0805540
:100AD00045EA131343EA12634FEA022245EA11156D
:100AE00045EA10654FEA00260EF000419D4208BF1E
:100AF000964244F1FD0404F5407402D25B084FEACB
:100B00003202B61A65EB03055B084FEA32024FF476
:100B100080104FF4002CB6EB020E75EB030E22BFD3
:100B2000B61A754640EA0C005B084FEA3202B6EB93
:100B3000020E75EB030E22BFB61A754640EA5C0042
:100B40005B084FEA3202B6EB020E75EB030E22BFD2
:100B5000B61A754640EA9C005B084FEA3202B6EBD3
:100B6000020E75EB030E22BFB61A754640EADC0092
:100B700055EA060E18D04FEA051545EA16754FEAF4
:100B800006164FEAC30343EA52734FEAC2025FEA12
:100B90001C1CC0D111F4801F0BD141EA00014FF0A1
:100BA00000004FF0004CB6E711F4801F04BF014372
:100BB0000020B4F1FD0C88BFBCF5E06F3FF6AFAE8E
:100BC000B5EB030C04BFB6EB020C5FEA500C50F11E
:100BD000000041EB045170BD0EF0004E4EEA1131A1
:100BE00014EB5C04C2BFD4EB0C0541EA045170BDA8
:100BF00041F480114FF0000E013C90E645EA060EEC
:100C00008DE60CEA135594EA0C0F08BF95EA0C0F19
:100C10003FF43BAF94EA0C0F0AD150EA01347FF461
:100C200034AF95EA0C0F7FF425AF104619462CE738
:100C300095EA0C0F06D152EA03353FF4FDAE10469B
:100C4000194622E750EA410618BF52EA43067FF4EC
:100C5000C5AE50EA41047FF40DAF52EA43057FF47C
:100C6000EBAE12E74FF0FF3C06E000BF4FF0010C87
:100C700002E000BF4FF0010C4DF804CD4FEA410CEB
:100C80007FEA6C5C4FEA430C18BF7FEA6C5C1BD0B8
:100C900001B050EA410C0CBF52EA430C91EA030F39
:100CA00002BF90EA020F0020704710F1000F91EA96
:100CB000030F58BF994208BF90422CBFD8176FEA64
:100CC000E37040F0010070474FEA410C7FEA6C5C32
:100CD00002D150EA013C07D14FEA430C7FEA6C5C39
:100CE000D6D152EA033CD3D05DF8040B704700BF65
:100CF0008446104662468C461946634600E000BFB3
:100D000001B5FFF7B7FF002848BF10F1000F01BD84
:100D10004DF808EDFFF7F4FF0CBF012000205DF84F
:100D200008FB00BF4DF808EDFFF7EAFF34BF0120D4
:100D300000205DF808FB00BF4DF808EDFFF7E0FF6D
:100D400094BF012000205DF808FB00BF4DF808EDBE
:100D5000FFF7CEFF94BF012000205DF808FB00BF25
:100D60004DF808EDFFF7C4FF34BF012000205DF807
:100D700008FB00BF4A0011D212F5001211D20DD5A6
:100D80006FF47873B3EB62520ED44FEAC12343F091
:100D9000004343EA505323FA02F070474FF000003B
:100DA000704750EA013002D14FF0FF3070474FF0EA
:100DB000000070477BB972B90029BEBF00204FF018
:100DC000004106E008BF00281CBF6FF000414FF053
:100DD000FF3000F075B8ADF1080C6DE904CE0029C4
:100DE00009DB002B1ADB00F087F8DDF804E0DDE911
:100DF000022304B07047404261EB4101002B1BDB32
:100E000000F07AF8DDF804E0DDE9022304B04042A6
:100E100061EB4101524263EB43037047524263EB83
:100E2000430300F069F8DDF804E0DDE9022304B0D3
:100E3000404261EB41017047524263EB430300F0D3
:100E40005BF8DDF804E0DDE9022304B0524263EB15
:100E50004303704753B94AB9002908BF00281CBF93
:100E60004FF0FF314FF0FF3000F02AB8ADF1080C21
:100E70006DE904CE00F040F8DDF804E0DDE902237E
:100E800004B07047D0B500220B4B06460F46FFF763
:100E9000D7FCFFF76FFF0446FFF758FC0022074B13
:100EA000FFF7CEFC02460B4630463946FFF710FBF3
:100EB000FFF760FF2146D0BD0000F03D0000F0418B
:100EC000704700BF10F8012B11F8013B012A28BF21
:100ED0009A42F7D0D01A7047034611F8012B03F855
:100EE000012B002AF9D17047034613F8012B002A81
:100EF000FBD1181A013870472DE9F0478C468E4611
:100F0000089E154604461946002B40F0D0807245D5
:100F100047D9B2FA82F74FB1C7F120030EFA07FCA6
:100F2000BD40BC4020FA03F343EA0C0C4FEA154ED7
:100F3000A8B2230CBCFBFEF80EFB18CC08FB00F992
:100F400043EA0C43994528D9EB1808F1FF3204D243
:100F5000994502D9A8F102022B44A3EB0903A4B2DC
:100F6000B3FBFEFC0EFB1C330CFB00F044EA034415
:100F7000A04214D92C190CF1FF3304D2A04202D99B
:100F8000ACF102032C44241A43EA02401EB1FC4097
:100F9000002334607360BDE8F0874246DDE76346B6
:100FA000F1E7002A79D0B2FA82F3002B3FD019463C
:100FB000C1F1200302FA01F500FA01F42EFA03F25E
:100FC0000EFA01FE20FA03F3AFB243EA0E034FEA32
:100FD000154EB2FBFEFC0EFB1C201A0C0CFB07F896
:100FE00042EA004290455AD9AA180CF1FF3004D2C7
:100FF000904502D9ACF102002A44A2EB08029BB250
:10100000B2FBFEFC0EFB1C220CFB07F743EA02437B
:101010009F4246D9EB180CF1FF3204D29F4202D90D
:10102000ACF102022B44DB1B42EA004202E0AEEBD1
:10103000020301224FEA154EAFB2200CB3FBFEFCB7
:101040000EFB1C330CFB07F840EA034398452AD9F2
:10105000EB180CF1FF3004D2984502D9ACF1020034
:101060002B44A3EB0803A4B2B3FBFEFC0EFB1C3322
:101070000CFB07F744EA0344A74216D92C190CF1DC
:10108000FF3304D2A74202D9ACF102032C44E41B83
:1010900043EA00400F46114678E71F2188E7604683
:1010A000ABE76246BFE76046DBE76346EFE77345C1
:1010B00006D916B9002108466DE7C6E9000EF9E722
:1010C000B3FA83F787B9734501D3824207D8841AEC
:1010D0006EEB030301209C461EB900215BE73846F6
:1010E000FAE7C6E9004CF8E7C7F1200CBB4000FA6C
:1010F00007F422FA0CF520FA0CF1BA401D432EFA3F
:101100000CF30EFA07FE4FEA154941EA0E011FFAE9
:1011100085FEB3FBF9F809FB18300B0C08FB0EFA3F
:1011200043EA00439A4540D9EB1808F1FF3004D256
:101130009A4502D9A8F102002B44A3EB0A0389B215
:10114000B3FBF9F809FB183308FB0EFE41EA034133
:101150008E452CD9691808F1FF3304D28E4502D987
:10116000A8F10203294443EA0040A1EB0E01A0FBD1
:1011700002984145CE46434602D306D14C4504D29F
:101180000138B9EB020E68EB0503002EA5D0B4EBD5
:101190000E0261EB030101FA0CFC22FA07F3F9409D
:1011A0004CEA0303C6E9003197E74046C5E74346EA
:1011B000D9E700000000000070B5044658B9264A7F
:1011C0002649052009F00AF8E06A60B349F0FBFD02
:1011D0000023E36227E0C3689B685D6A0DB12B6959
:1011E00013B91D4A1E49ECE710204AF07AFAE06272
:1011F00010B9194A1B49E4E7012304F1140684F8E5
:101200003030304639F01AFA2B6920699847054684
:1012100058B10520104A144908F0E0FF00230135B9
:1012200084F83030D0D0E06A70BD09A3D3E9002340
:10123000304639F0DDF994F83030002BF3D005203A
:10124000054A0A4908F0CAFF84F83050BCE700BFDD
:1012500076B01000000000005F7F0800886B060079
:10126000C3720600EA7206001673060036730600A3
:101270002DE9F04FD1F88890B5B00C46164606908F
:10128000B9F1000F01D1D1F88C90D6F888B0BBF13C
:10129000000F01D1D6F88CB006F12005294606983A
:1012A0004EF06AFF18B1002035B0BDE8F08F069B04
:1012B000D3F8F8104B6B33B128461C314FF02EF8A1
:1012C00008B10120F0E706980AA904F5C67A4EF0A5
:1012D0003AFF002840F00481BDF9B230002B00F045
:1012E000FF809DF9B37047B9494650469DF8C42028
:1012F0009DF9B2704BF0E4FE3F1A42F20F72309B40
:1013000093420AD16FF47A6140F265730A984218E9
:101310009A4200F2DD806FF05B032046A7EB0308E2
:101320004CF029FED4F8882003460AB9D4F88C2062
:101330000B218DF827100DF127010291216D0698E0
:10134000CDE9008151460DF06DFC049049465046B0
:1013500094F854204BF0B4FE4946434694F8542088
:10136000054650460DF04AFBF36F594696F8542057
:10137000814606F5C6700593D6F864A04BF0A0FE32
:10138000049B059A03F59C5308339A42834698D8E8
:10139000306DB0F57A6F40F3A880236DB3F57A6FA6
:1013A000ACBF4FF000084FF0010849F0A5FA28B192
:1013B000206D49F0A1FA80F00100C0B20AEB0B03E6
:1013C000ED1907931DD50223079A18FB032810FB7C
:1013D0000380854215DD0598FFF7B8F98246049829
:1013E0008B46FFF7B3F94FF03332774BFFF728FA0C
:1013F00002460B4650465946FFF794FC00287FF4FE
:1014000052AF059B049A03F59C5308339342FFF4B3
:101410004AAFB9F1190F3FF746AF15F1550F67DB2A
:1014200015F1500F66DB15F14B0F65DB15F1460F1B
:1014300064DB002DB4BF052702270498FFF786F967
:10144000804605988946FFF781F900225F4B824666
:101450008B46FFF7F5F902460B4640464946FFF733
:101460007FFC00284CD00A37246D204649F044FA0E
:10147000002840F0A1806FF47A6240F26573144452
:101480009C428CBF00240124366D304649F034FA6A
:10149000002840F093806FF47A631E4440F2657335
:1014A0009E428CBF00260126069BA41BD3F8983CC5
:1014B00007EB44002BB19D4203DC079A9A42C8BF58
:1014C0000238079B5B1B9842CCBF00200120EBE653
:1014D00049F012FA00287FF41EAF6FF058031CE7A2
:1014E000D4E91F38676E049330E74FF000085CE7DB
:1014F0000127A2E70227A0E703279EE704279CE72E
:101500004FF03332304B50465946FFF799F90246B7
:101510000B4640464946FFF723FC08B10537A3E7D1
:1015200027A3D3E9002350465946FFF789F902461D
:101530000B4640464946FFF713FC08B1023793E7D4
:10154000DDE90423934201D201378DE700221F4BCE
:1015500040464946FFF774F902460B465046594645
:10156000FFF7FEFB08B10A3F7EE74FF03332164B20
:1015700040464946FFF764F902460B465046594635
:10158000FFF7EEFB08B1053F6EE70DA3D3E900239B
:1015900040464946FFF754F902460B465046594625
:1015A000FFF7DEFB08B1023F5EE7DDE9042393426B
:1015B00088BF07F1FF3757E7022465E7022673E784
:1015C0009A9999999999F13F3333F33F0000F83F85
:1015D00070B4174E0C46B042154608D00136B042E2
:1015E0000FD0023EB04210D070BC3DF0A9BE0AA39D
:1015F000D3E90023C5E900230E4B0020236070BC13
:10160000704707A3D3E90023F4E707A3D3E9002336
:10161000F0E700BFAFF3008002C0FF7F00000000D2
:1016200003C0FF7F0000000001C0FF7F000000003A
:1016300002C0FF7F03004E8070B5D0F80C34364CEA
:10164000012B1BD14378002B3DD12346334A02F1B5
:101650001006154603CDB542186059602A4603F1BD
:101660000803F6D12868186001212D4A2D4846F05C
:10167000F2FC03212C4A2B4846F0EDFC03212B4AB7
:10168000284846F0E8FC23680321294A254846F00B
:10169000E4FC63680321274A224846F0DEFCA36885
:1016A0000321254A1F4846F0D8FCE3680321234A5A
:1016B0001C4846F0D2FC23690321BDE87040204A53
:1016C000184846F0CABC03211E4A164846F0C3FC1F
:1016D00023681BBA0321164A124846F0BEFC636811
:1016E0001BBA0321134A0F4846F0B7FCA3681BBA84
:1016F0000321114A0B4846F0B0FCE3681BBA0321F2
:101700000E4A084846F0A9FC23691BBA03210C4A7B
:10171000044846F0A2FCB1E7D66200200839002058
:10172000F02C060050F505000B2D0600142D0600C8
:10173000322D0600522D0600722D0600922D060055
:10174000B22D0600232D060070B5002586B0044694
:101750006422294645702A485CF0F9FC14220023D3
:10176000CDE90223102300930121606802AB0495A8
:1017700051F0B3F9A8420BDA22480121224A46F07F
:101780006AFC21F00BF8214B1858404206B070BD9E
:10179000D4F80C64012E18D12B46642218496068D5
:1017A00051F07BF9002825DC1ED020F0F7FF174B05
:1017B0001B580B2B134805BF142302213146144A32
:1017C00018BF144A46F049FC15E0134A0C4B02F1CD
:1017D0001006154603CDB542186059602A4603F13C
:1017E0000803F6D12868186001210C4A054846F024
:1017F00032FC00E06670606851F028F90020C5E70F
:10180000D662002050F50500D22D06000C00000025
:10181000272E06005D2E060008390020EE2D06005A
:10182000012170B50022044686B0084651F05BF9EC
:10183000051E4FDA0121594A594846F00CFC20F0A8
:10184000ADFF584B1D586D42002D69DBD4F80C34A8
:1018500014221BBA0193D4F8103428461BBA029301
:10186000D4F8143465601BBA0393D4F8183401A972
:101870001BBA0493D4F81C341BBA0593002351F00F
:101880001CF900280CDA20F089FF464E05468359E2
:101890000121454A424846F0E0FBAB59002B3FDCB2
:1018A0000021424858F081FBD4F80C14012945D19D
:1018B000D4F81034012B3CD1204600F0ADF80028BC
:1018C0004FDA01213A4A364846F0C5FB606851F0CC
:1018D000BDF82AE0374B0120D4F8201402AA019366
:1018E00051F0D1F8002808DC334A01212C4846F099
:1018F000B2FB284651F0AAF8A1E70822284601A920
:1019000051F0C7F8002806DA01212C4A244846F095
:10191000A2FB2B4AE9E700212A4858F046FB95E74D
:101920000121294A1E4846F096FB4FF0FF3006B0D1
:1019300070BD264A1A4846F090FBC2E702290AD138
:10194000D4F81034012B03D1204600F07FF9B6E71C
:1019500001211E4AEEE701211D4A114846F07BFB9A
:10196000AFE7D4F80C34A060012B09D1D4F81034BF
:10197000012B11D1204606B0BDE8704000F068B8D8
:10198000022B09D1D4F81034012B05D1204606B022
:10199000BDE8704000F0B8B90020C8E77B2E060013
:1019A00050F505000C000000332F06005A620200BB
:1019B000D82F060001001A0AA02E0600C72E060026
:1019C000EC2E0600366E0100732F0600902F0600E5
:1019D000AC2F060010B54FF48562002104465CF080
:1019E000B6FB0123C4F80C34C4F81034C4F8143422
:1019F0001E23C4F818344FF48063C4F81C34054B1C
:101A0000C4F8203441F66163C4F824340023237001
:101A100010BD00BFF22F060001210622084638B58E
:101A200051F061F800280BDA20F0B8FE054D0446AD
:101A3000435905480121054A47F08DFF605940424E
:101A400038BD00BF0C00000050F505000A3006004C
:101A50002DE9F04F87B001260025B0F8243400AFFF
:101A6000D0F81884D0F820145BBA044607F11402A9
:101A70003046FD733E827B8251F005F8A84210DCAF
:101A8000674A3146674847F05DFFA06850F0DEFFC7
:101A900020F084FE644B185840421C37BD46BDE818
:101AA000F08F0822A06807F1100150F0F2FF002823
:101AB00023DA20F073FEDFF87081064650F8080044
:101AC000E946D4F820A45CF0F3FC8AB06A46574B90
:101AD0000790CDE9053A564B0893564B42F8103F14
:101AE0004FF421512B464F4802F09EFCCD46A06892
:101AF00050F0ACFF56F80800CEE74FF47A7B0BFBB2
:101B000008F37B6003214C4A464804F10C0A47F075
:101B100019FF4FF48062412150465CF018FB1422FB
:101B2000294646485CF013FB46F099FA2E4680465B
:101B3000DFF8089146F093FA7B68A0EB0800984222
:101B400015D2227802F0FF03002A46D15146D4F87C
:101B50001C24A06850F0B1FF002834DA20F01EFEEB
:101B6000314B1B580321364A2E4847F0F4FE334BC5
:101B7000596801293DDD4FF47A7068431A680139CC
:101B8000D20092FBF0F296FBF1F6C3E902521E611D
:101B900047F61220002158F008FA06250023A06815
:101BA0001A4607F10F0150F088FF002824DA20F0D0
:101BB000F5FD1D4D044643591A480121214A47F0BD
:101BC000CAFE605968E7D9F800300344C9F800300C
:101BD000D9F804300133C9F8043046F040FAA0EBDC
:101BE00008050646B5FBFBF50021012058F0DDF99C
:101BF000A0E700221A61CBE741F66A00002158F005
:101C0000D4F9013DCAD1A06850F020FFD4F81834AF
:101C1000044803210C4A47F09EFE28463DE700BFDA
:101C20003030060050F505000C0000004C30060076
:101C30000002010304000002703006000839002091
:101C40008B300600B0300600E0300600F7B5012109
:101C500005460622084650F046FF041E0EDA20F024
:101C60009DFD234D044643590121224A224847F055
:101C700072FE64596442204603B0F0BDB5F82434C6
:101C800001265BBAADF80230002308226946ADF8A0
:101C90000060019350F0FBFE00280CDA174A314631
:101CA000154847F04FFE204650F0D0FE20F076FD5C
:101CB0000F4B1C58DEE70321204650F0ECFE0028B5
:101CC0000EDA20F06BFD0A4F0546C3590C4A314627
:101CD000094847F040FE204650F0B8FEEC59C9E7ED
:101CE000D5F824340321074A034847F034FEC2E7FD
:101CF0000C0000000331060050F5050029310600F4
:101D0000353106005731060008232DE9F04385B030
:101D1000804601AA80680DEB0301019350F0B5FEE7
:101D2000071E10DA0321294A294847F00BFED8F88C
:101D3000080050F08BFE20F031FD264B1858404231
:101D400005B0BDE8F0831422002123485CF0FFF9C0
:101D5000002646F084F9354681461F4C08F10C08F0
:101D600000234FF480624146384650F096FE00282A
:101D70000ADC1A4A0321164847F0E4FD6268012A8A
:101D800012DC002323611CE02368034423606368A2
:101D90000133636046F063F94FF47A73A0EB0906F0
:101DA0000546B6FBF3F6DBE74FF47A71714323681F
:101DB000013ADB0093FBF1F395FBF2F5C4E9026312
:101DC0002561384650F042FE0020B9E77A3106001E
:101DD00050F505000C00000008390020893106008C
:101DE0001249B0B58B4208BF802AA0B000AF19D10C
:101DF0008168283180233A46012027F0F5F96D46A5
:101E000088B00B4A0B4BCDE905274FF40072ADF8B3
:101E10001C206A464FF4E651074842F8103F46F04E
:101E200031F9AD468037BD46B0BD00BF000030E09F
:101E3000A83106000300000158F505002DE9F04324
:101E40009BB002AF25F04AF94C2504462A460021F2
:101E500007F114005CF07BF907F114032246072018
:101E60006F49009551F025FC034640B103216D4AAE
:101E70006D4846F005F96437BD46BDE8F08303219F
:101E80006A4A694846F0FAF8387D24F0DFFB6D466F
:101E900088B002AA4FF40079654BDFF89881C2E957
:101EA0000530A2F81C904FF4E6515F4842F8108FBD
:101EB00046F0E8F87B69AD46052BDCDD97F8480075
:101EC00024F0D0FB88B002AA5B4BA2F81C90C2E9B8
:101ED00005304FF4E65142F8108F534846F0D2F8DF
:101EE000AD4697F8490024F0C9FB88B002AC2646FD
:101EF000524BA4F81C90C4E9053046F8108F3246C6
:101F00004FF4E651484846F0BDF84D4B3246636108
:101F100007F11C03A3614FF4E6514348A4F81C9059
:101F2000C4F8108046F0AEF8AD4612233A460621BA
:101F300007F13D0027F02CF988B0424B3246C4E946
:101F400005304FF4E6513848A4F81C90C4F81080CE
:101F500046F098F8AD4697F8430024F06BFB88B044
:101F6000394B3246C4E905304FF4E6512E48A4F807
:101F70001C90C4F8108046F085F8AD467B6C0321B8
:101F8000324A294846F07CF897F84B0024F03AFB97
:101F900088B02F4B3246C4E905304FF4E651224851
:101FA000A4F81C90C4F8108046F06CF8AD4697F881
:101FB0004D0024F033FB88B0264B3246C4E905308F
:101FC0004FF4E6511848A4F81C90C4F8108046F06D
:101FD00059F8AD463B6D03211F4A134846F050F8AF
:101FE00097F858101D4A1E4B88B0002918BF134699
:101FF0001C4A4FF4E651C4E905230B483246A4F8C5
:102000001C90C4F8108046F03DF897F85830AD4663
:10201000002B3FF430AF0122134B1A702BE700BFA7
:102020000000D050D431060058F505000A340600EF
:10203000EF31060003000001F93106000C32060002
:102040001A32060026320600303206003932060007
:1020500045320600523206005A320600BC310600F4
:10206000C6310600633206003C6300209F492DE91B
:10207000F04F8B4208BF082A87B000AF25D08B42B3
:1020800008BF202A53D08B4208BF042A0FD1984C96
:102090002379D9070BD483681B6863B10121954A62
:1020A000954845F0EDFF237943F0020323711C3777
:1020B000BD46BDE8F08F0321904A8F4845F0DEFF12
:1020C000237943F001032371EDE7894C2379DA0783
:1020D000EDD513F0040521D08368894A1968894B2E
:1020E0006D468AB0002918BF13466A468648079194
:1020F000CDE905034FF40073ADF82030834B4FF466
:10210000135142F8103F7C4845F0BCFFAD4623799F
:1021100023F004032371FFF791FEC8E703217C4AF3
:10212000754845F0ABFF237965F30003F2E7866855
:102130003378012B0AD13279B3792AB9754A032150
:102140006D4845F09DFFB2E7734AF8E7F378002B3E
:1021500040F0CA80B07824F0B9FA6C4688B06A467C
:102160006E4B4FF4E651CDE905304FF40073ADF8F6
:102170001C306B4B604842F8103F45F083FFB3784A
:10218000A546042B02BF0122664B1A700122664B42
:102190001A70B279654B1A600321654A564845F0BA
:1021A0006DFFB27C73797A61F27CB5793A61727CA9
:1021B0007478FA60726996F810B0BA60D6E90212C3
:1021C000C7E9001203215B4A4B4845F059FF032140
:1021D0002B46594A484845F053FF204624F06AFAF6
:1021E0006E4688B06C464FF400796D46534BDFF86D
:1021F0003081CDE90530ADF81C9045F8108F2A46A6
:102200004FF4E6513C4845F03DFFDFF834A14D4B1B
:10221000B546BBF1000F18BF5346A5464A4A4FF4D6
:10222000E651C4E9052334482A46A4F81C90C4F8B2
:10223000108045F027FF434B7A69B546002A18BF46
:102240005346A546414A4FF4E651C4E905232A48BE
:102250002A46A4F81C90C4F8108045F013FF394BAF
:102260003A69B546002A18BF5346A546384A4FF486
:10227000E651C4E9052320482A46A4F81C90C4F876
:10228000108045F0FFFE2F4BFA68B546002A18BFB4
:102290005346A5462F4A4FF4E651C4E90523164894
:1022A0002A46A4F81C90C4F8108045F0EBFEB54611
:1022B0000321BB68284A104845F0E2FEA546274B9B
:1022C0004FF403516361D7E90023C4E906230423D3
:1022D0002A460948236145F0D5FEB546204A032128
:1022E000054845F0CBFEE2E61E4AF8E70000D0D0F4
:1022F0001C3900207B32060058F50500923206009A
:102300005EF606006B3206009C32060004000001F7
:10231000BA320600D0320600FE3206002233060032
:10232000030000013A6300203B63002020010020ED
:102330003333060053330600683306007833060053
:10234000703206007532060091330600A333060092
:10235000B4330600C5330600D5330600EE3306005D
:10236000043406001D34060000212DE9F04FAB4C6B
:1023700093B0084602AFC4E9001100F03DFA2C22E8
:10238000A749A84B08464B60A74B6E46C1E90423FA
:1023900027F01CFA8022A549A54B08464B60A54BA7
:1023A000C1E9042327F012FAA34BA44A1B688AB0A0
:1023B000B3FBF2F302AAA249A2485161A249C2E9C1
:1023C00006134FF400731384A04B4FF4135142F8DB
:1023D000103F45F057FEB54647F61220002145F064
:1023E00054FE8CB002AA9A4B07F108055361994B31
:1023F0004FF000099361984BDFF86082D361984BEE
:10240000BB6040F20243BB81964B95E80300136228
:10241000954B506211858B484FF4535142F8103F51
:1024200045F030FEB54626F005FD2379024623F03F
:102430000303237100231E208C49009324F022FB08
:10244000F8B101218A4A7F4845F018FE23799A079E
:102450001AD5FFF7F3FC2379DB07E4D54FF22440CC
:10246000002145F012FE834B1B78ABB9824A032151
:10247000744845F003FE4FF0FF304437BD46BDE8D9
:10248000F08F03217D4ADEE7FFF7D8FC42F29F4040
:10249000002145F0FAFDD9E70321794A694845F062
:1024A000EDFD26F0C7FC4FF0010ADFF8D8B1064673
:1024B000382200212846CBF800A05BF048FE724B82
:1024C0003822FB604FF6E853C7E90489FB6187F8BF
:1024D0001AA02B4600920B203246644924F04AFA97
:1024E000064660B103210346684A564845F0C8FDD8
:1024F0003346674A0121534845F0C2FDBBE703213B
:10250000644A504845F0BAFD4226DFF88CA142F2F9
:102510009F40002145F0B9FD9AF8003023B15F4B90
:102520001B7823B95E4AA2E7013EF0D1FAE7032106
:102530005C4A444845F0A2FD5B48FFF74BFA5A4815
:10254000FFF76EF900284EDA584A01213D4845F060
:1025500095FD26F06FFC4FF0380A064652460021E2
:1025600028465BF0F4FD4FF00113BB6001237B7341
:10257000DBF800303246BB730B202B463B49CDF8CD
:1025800000A024F0F7F9064600283BD0387A24F062
:1025900081F80446787A24F08DF897F838306D4643
:1025A0000A2B98BF424A8CB094BF52F82330414B5B
:1025B00002AA4149D061C2E9051429491362396070
:1025C00040F20241B9807968274B25481185506255
:1025D0004FF451511B4842F8103F45F053FDAD46B2
:1025E000364A334686E73048FFF7AEF8002801DA6E
:1025F000334AAAE72C48FFF71FF80021314845F07D
:1026000044FDA6E70321304A0E4845F037FD4FF060
:10261000FF304FF0FF3145F038FD04E71C39002052
:10262000081700206D2000000000D0D0F016002018
:10263000E11D0000000030E02011002040420F00AA
:102640003F34060058F5050066340600040000011A
:10265000723406009F340600AC340600E0FE07002A
:1026600000020103BA340600050000030000D05048
:10267000C63406003C630020F5340600E034060052
:10268000203506002001002000010100443506002D
:10269000593506007B3506003B6300203A63002075
:1026A000A13506008F35060024390020B635060016
:1026B000F8F8050035340600F2350600113606003C
:1026C000D4350600D33F0100323606002DE9F34130
:1026D0000C461546194901AA07461E4647F040FA1E
:1026E000B8B1DDF80480B8F1000F12D10F2C04D975
:1026F0006FF0150002B0BDE8F0810F22304610499E
:10270000A8470028F6DB0F4B034483F8628040465D
:10271000F0E738460C4901AA47F022FA50B1019B74
:1027200043B9022CE4D1224630460849A84700EAC2
:10273000E070DFE76FF00100DCE700BF063906005C
:10274000C26200206062002012390600D2620020BE
:102750002DE9FF4205460024224E234FB368019322
:10276000019B1B682BB9002140F2391057F01DFC6A
:10277000F6E730460DF10F0198470028F3DB9DF88E
:102780000F100A2904D13B7813B100233B70E7E70F
:102790000D290CBF012300233B7001D00A2907D16A
:1027A000002312482B5545F074FF04B0BDE8F082B9
:1027B000082901D07F2906D1002CD1D00C48013C3A
:1027C00045F067FFCCE7A1F120035E2BC8D83F2C72
:1027D000C6D82955074804F1010945F05AFF4C466F
:1027E000BEE700BF10E905003D6300207AA10600A6
:1027F00046370600F60007002DE9F04F0027AB4CE6
:10280000C1B00E46054684F8740084F86270A4F8DE
:10281000727002F05BFAA64802F006F92146A5485C
:10282000277084F821702EF0EDFC23785BB12046F0
:10283000FEF75AFB08AA014620462EF02FFB8046E1
:10284000002852D02770002755B194F86230002B31
:102850005ED0B4F87230002B0CBF002707F00107E0
:10286000954845F016FF002F76D094F82120934B21
:1028700093499448002A18BF19460A468B4945F0E7
:1028800008FF94F874302BB1B4F872208E498F4849
:1028900045F0FFFE05218E4845F0FBFE57F091FC08
:1028A0004FF47A78A0FB0807002308FB017147F674
:1028B0001222FEF7CFFA41F28833C246C718DFF87A
:1028C00014B241F1000957F07CFCA0FB0A0C47F65A
:1028D0001222002308FB01C1FEF7BCFAB84271EBDB
:1028E000090117DB4FF0FF331EE09DF82030012B6C
:1028F00002D13F9F402F01D90127A5E73A461FA9E2
:1029000004F1210027445BF0FCFB87F82180F3E70A
:102910001F46A5E7DBF808301B68A3B1584608A995
:10292000984780B99DF8203001330E2B11D844F61A
:10293000010222FA03F3DB070BD5674841B0BDE87B
:10294000F04F45F0A6BE002140F2391057F02DFBA4
:10295000B9E7624845F09DFE544B03F121076048FA
:1029600045F097FE08A8FFF7F3FE9DF82030002BF6
:102970007AD008A8FEF7B8FA202875D84B4808A9DD
:10298000FEF7AAFA574845F084FE08A8FFF7E0FED4
:1029900008A8FEF7A9FA10B10838382869D83846CF
:1029A00008A9FEF799FA65B34F4845F072FE08A8EA
:1029B000FFF7CEFE012006AA08A926F01FFD002879
:1029C0005DD1414808A9FEF787FA3146474845F0EE
:1029D00060FE08A8FFF7BCFE9DF82030002B56D003
:1029E0000A2207A908A844F031FD079B1B78002B99
:1029F00049D14FF6FE73421E9A4244D880B2A4F8E1
:102A0000720094F82190B9F1000918BF4FF0010944
:102A10002EF010FC2548FEF767FA80463448FEF792
:102A200063FA0023FF22CDE90203CDE904234146E6
:102A30004A46CDE900371D482EF03CFB88B994F892
:102A4000743033B32048FEF74FFA1F49421C29481F
:102A500001F0B8FF28B902222749284801F0B2FF47
:102A6000B8B10146264801E02021264845F011FE74
:102A700075E740220821244845F00BFE82E72348F1
:102A800045F007FE90E7224845F003FE9DE73046FB
:102A9000B5E706491F4845F0FCFD2DB1B4F872209A
:102AA00009490A4845F0F5FD1B4847E760620020E8
:102AB0005B3706008F800400643706004A37060043
:102AC0005437060079370600C262002092370600AC
:102AD000A337060010E90500E33706007AA10600D7
:102AE000FC3706002B38060076380600B2380600A0
:102AF00081620020FD380600D262002009390600FC
:102B0000183906000B3806004F380600A2380600B8
:102B1000D33806004A390600FA3806002DE9F0419C
:102B200010F0030407464FD121F00306DFF8B4E0AC
:102B3000DFF8B4802D4A8D0800EB060C60451CD1EF
:102B40006FF0030303FB0515B81900230544A842E1
:102B500042D124484C405843234B4FEA70405843DD
:102B6000234B604080EA10405843224B80EA5030AB
:102B7000584380EA1040BDE8F08150F8043B0EFB5A
:102B800003F34FEA734308FB03F363404FEAF34355
:102B900003EB83039C18D1E71B68043D7B434FEA9A
:102BA00073430CFB03F363404FEAF34303EB8303EC
:102BB0009C18032DA6EB0503EED86FF003028B08DB
:102BC0005343CD18C01AC0E70D460024054FDFF867
:102BD00018C0064A4618ECE710F8012B42EA032316
:102BE000B5E700BF512D9ECC9335871B646B54E62F
:102BF0006BCAEB8535AEB2C22DE9F843884600AF0B
:102C000000297DD005680122284645F091FA014649
:102C10000446284645F046FA10EA020616D1E9466F
:102C200088B06A46384BCDE90538032342F8103F97
:102C30004FF4C2513346354801F0F6FBCD4686F3DA
:102C40001188BFF36F8F0423184602DF2146284600
:102C500045F03EFA261831460022284645F022FA71
:102C6000361AB44218D06E4688B06946284BCDE972
:102C70000538032341F8103F244813460A464FF411
:102C8000C25101F0D1FB0023B54683F31188BFF395
:102C90006F8F0423184602DF00222146284645F0A4
:102CA0001DFA214645F014FA26180122314628461D
:102CB00045F0F8F9C20708D43146284645F07AFABB
:102CC00032462146284645F0ECFA002221462846A5
:102CD00045F0E8F9261A01223146284645F0E2F986
:102CE000C30709D43146284645F064FA22463146E6
:102CF000284645F0D6FA34462146284645F0EFFAF4
:102D0000BD46BDE8F88300BFAA390600F0F405000F
:102D1000813906002DE9F04F91B0009302F00403D1
:102D20000293C2F3C2030133840705460E46DDF861
:102D300068A00392059340F09C81041D002849D1AE
:102D400001F00706341DC6F10806009B00274FF06E
:102D500004085A1E4FF0FF33B9460193BB46434661
:102D600004970DB1009921600598002800F3D680E2
:102D70008F480099814203D38E488142C0F0CE80B3
:102D80000399601B11F0020C40F0D680B9F10F0FCF
:102D900000F2CF80002D00F0D68009F140010DEB4C
:102DA000010E0199C0F387000EF8200C0EF8101CDC
:102DB000BCF1000F00F0C38060F07F000EF8200C23
:102DC000013709F10109C5F108014FF6DA7E043433
:102DD00006918CE00729B8D86FF01B0011B0BDE850
:102DE000F08F7A285BD84B280FD8472857D8292846
:102DF0002ED8252850D052D8202818BF23280CBF01
:102E00004FF0010B4FF0000B71E04C382E2846D8E4
:102E1000DFE800F06D454545454545454545454597
:102E20004845454545454545455645484856565605
:102E30006D486A456D4518481845457F7C484545AD
:102E400048457C0000204FF0000B4FF0040835E0AF
:102E500001212A38C0B201FA00F010EA0E0F46D163
:102E600010F0625C2CD110EA010B40D06046013CAE
:102E70004444B4FBF8F408FB04F425B1A3EB050CBF
:102E8000A444B445A8D8002870D00599013905910B
:102E90005AF8041B009164E70199013901914FF040
:102EA000000B24E012F8010C6C2834D1002012F839
:102EB000023C83466C2BC8D14FF008084346D6E746
:102EC0000AF1070A2AF0070A073424F00704FAE88F
:102ED00002BC35B106982044B0423FF67DAFC4E94C
:102EE00000BC4FF0000B08344FF00808434612F8BE
:102EF000010F002853D0BBF1000F7FF472AF2528DB
:102F0000F5D14FF0010B019B013301934FF0040801
:102F1000ECE7584697E700208346A8E7039988071F
:102F20007FF551AF4FF0010C601BB0F5007FFFF44F
:102F30002DAF6FF0150051E74FF0000CF5E7049846
:102F4000013004903DE7BCF1000F01D0013638E7B5
:102F50000298023600287FF434AF0098CDE906329B
:102F6000FDF7C2FFDDE9063206442AE7042B08D14B
:102F70000AF1040015B1DAF8001021608246043429
:102F8000B5E70AF1070323F0070303F1080A1DB1AF
:102F9000D3E90001C4E9000108230834A7E7631B53
:102FA000B3F5806FC5D23DB9A6F10804E01815E766
:102FB00068E705008C990800029A9B0828602B702E
:102FC0009DF81030AAB1EB70AF702FB1002208A8A5
:102FD000C5F1010C91450ED14FF0000AC5F1010376
:102FE0000DF1200801930DF1300BD14512D1601B7A
:102FF000F4E66B70E8E710F8013B190608D50CEB16
:10300000040EB64503F07F033FF6E6AE04F8013B3D
:103010000132DFE71FB198F90020002A17DB029B7D
:10302000D3B11AF80B2004F8012B0022019B1819C8
:103030001044B0423FF6D0AE98F80000009904F872
:10304000010B204603925BF05CF8039A14440AF1EA
:10305000010A08F10108C8E798F8002055F8223065
:103060000093029B009845F82230FDF73DFF421C7B
:10307000DCE76FF00D00B1E62DE9F04F97B000AF3F
:1030800005468A46C7E90A3249B903784678807806
:1030900000EB83002844564524D8A0EB050AD7F856
:1030A000803095F8028003F00103D7F88040FB617F
:1030B000EB78B8F1000F0CBF002404F001047B6230
:1030C0001BB1D7F880309A0715D4A4B9FB6A1BB19D
:1030D00051462846BA6A9847564630465C37BD4640
:1030E000BDE8F08F441C2046FDF7FEFE0130204471
:1030F0000AF1010ACFE7D7F88030C3F3C0033B627F
:103100002B78BB619B003B616B687B61BB6905EB06
:10311000830BFB6A002B77D15646D844BCB11C46C2
:103120001BF8013B55F82300FDF7DEFED7F884308D
:10313000013043B1D7F88830A34282BFD7F884303A
:1031400023F814000134C3450644E9D1D846D7F822
:1031500080304FF0000913F0050F0CBF4FF0020B49
:103160004FF0010B7B6A9945B7D298F8013008F10E
:10317000020855F823A0AE4B9A45C0F04C81AD4BE8
:103180003A6A9A452CBF002301230AB318F8021C9F
:103190007869FB6245F027FAFB6AC8B1EA468AB053
:1031A0006A46A54B05937B69CDE906314FF4007360
:1031B000ADF82030A14B42F8103F00234FF41251DC
:1031C0009F4801F031F9D546023E09F10109C9E7EE
:1031D00023B1FB6933B9A6EB0B06F6E7D7F88030CD
:1031E0009B07F2D55046FDF77FFED7F884304BB1F0
:1031F000D7F888309C423FBFD7F88420431C22F880
:10320000143001340644E0E7002C6AD1B8F1000F15
:103210006DD0D7F8803058076CD5C14607F148000B
:10322000424659465AF06DFF00220BEB0803FB6043
:103230000233796A8A425FD3D7F8802095F801B0CB
:10324000F969920704EB0B0348BF0022DBB258BFB9
:103250004FEA5902002940F0A680D7F8801011F0FB
:10326000040F14BF494600216B70A970EA7028460C
:10327000BA6A3969FB6A9847061EFFF62EAFBB692A
:1032800049462B707B6ABA6AEB7085F801B0FB6A1D
:1032900085F8028007F148009847B0F10009C0F2B4
:1032A000B6803B697A6A786A03EB4201FB68414465
:1032B00003EB4000BA6AFB6AAAEB010198470028B9
:1032C000C0F2A7804FF0000BB14409EB000607F1F4
:1032D000380AA34569D30021BA6A0846FB6A9847B1
:1032E000FBE644464FF0000907F1380098E74446F2
:1032F000C14699E7A14697E713F8016CDFF830C1A2
:1033000055F8260013F8021C6045C0F08A80DFF8EB
:1033100024C16045386A2CBF4FF0000B4FF0010B01
:1033200038B17869C7E9013245F05DF9D7E9013272
:10333000F0B9BBF1000F1ED0F96949B1611C04F16D
:10334000280007F13004041904F8206CCCB20FE017
:10335000D7F8801049070BD509F1280007F1300C88
:1033600009F1010100EB0C0909F8106C5FFA81F911
:10337000013202335DE7D7F880008007DED409F11F
:10338000280C07F1300EF44409F101000CF8101C70
:1033900007F1580109F1020951FA80F05FFA89F941
:1033A00000F8106CE4E700215EE71BF80A3055F8DE
:1033B000239087F83730D7F884302BB3D7F888308C
:1033C0009B4521D2D7F8843033F81B800121BA6A9B
:1033D000FB6A07F13700984700281ADB0644B8F16A
:1033E000000F06D14846FDF77FFD00F101081FFAE6
:1033F00088F841464846BA6AFB6A9847002808DBC5
:1034000006440BF1010B64E74FF00008DEE74E467F
:1034100063E6064661E63B6A002B3FF4DFAE00231D
:10342000B4E6386A0028A6D04FF0000B79E700BF59
:1034300068E705008C990800D739060004000001F0
:1034400088F3050030B50446EFF31185202383F39C
:103450001288BFF36F8F044B0FCB84E80F0085F306
:103460001188BFF36F8F30BD2017002001281FB5D2
:103470000C4605D004281ED06FF0150004B010BD16
:1034800056F09FFE47F612220023FDF7E3FC4FF4AF
:10349000FA435A43C4E90001A2606846FFF7D2FF2D
:1034A0006946204645F0BCF818B90A4B0FCB84E8B2
:1034B0000F000020E2E756F084FE47F612220023B8
:1034C000FDF7C8FC4FF4FA435A43C4E90001A26077
:1034D000EFE700BFD0F50500014B1860704700BF53
:1034E0002401002080B505460E461746984637F061
:1034F0006FFE03461FF052F90446DFF8189042466B
:1035000049F8003039463046A84754F809001FF002
:1035100093F800BF0800000070B51F4B82689A4204
:1035200015DDD0E90016013392FBF3F3012976F1A2
:1035300000054FEAE3741CDAC91844EB0604C0E93D
:103540000014164901FB03238360012070BD002A8B
:10355000FBDAD0E90041124E9B1A0029B3FBF6F3C7
:1035600010DA01F100459C4275F100050ADA0020ED
:10357000ECE7CD439D426FF00045A5EB0605A54164
:10358000DADAF4E706FB0322E41A61F10001C0E98C
:1035900000418260D9E700BFFFC99A3B003665C48D
:1035A00000CA9A3B2DE9F047858B04462807174649
:1035B0000CD501290CBF45F0100545F02005A58369
:1035C00087F31188BFF36F8FBDE8F087022905F0FC
:1035D000070540F09480204645F067FC052864D834
:1035E00001A353F820F000BFC1350000FF360000F2
:1035F000AB3600006D3600008736000099360000BB
:1036000001F007035A1F012A1FD8002221F00701E9
:10361000062BD4F8008089B2C4E9002209D14346C0
:1036200003E0E28B0132E2831B68002BF9D141F009
:1036300002012046A18345F038FC4FF00009002824
:103640006DD041F02001A18369E0042B0AD121F063
:10365000070189B22046A18345F027FC10B141F053
:103660002001A1834FF00008C14658E02369D3F838
:103670000090A38B23F0070343F006034FF00008EC
:10368000A38346464BE02369D3F80490A38B23F031
:10369000070343F00403F1E72369D3F80890A38BF1
:1036A00023F0070343F00503E8E74FF00008C146A5
:1036B000E7E7012243F00803A38387F31188BFF3F0
:1036C0006F8F002A3BD1B8F1000F4AD1B9F1000F3A
:1036D00002D020462C49C847EFF31187202383F3FB
:1036E0001288BFF36F8FA38B23F008039BB2A383D1
:1036F000D9063FD523F01002A28303F00705A6697F
:10370000A18B002EBFF67CAF00239946D4F8008031
:1037100021F00701C4E9003341F00101A183A38B2B
:1037200003F0070AAA4502D0A268002AC1D1B8F165
:10373000000F02D1B9F1000FDAD00022BAE7A16878
:103740000029C0D00D680029BDD03346524620461E
:103750004F68B8471DB12B6829461D46F3E72B4635
:10376000FAE74146334652462046D8F8008045F0F5
:10377000C8FBA8E79A067FF523AF23F02002A283B7
:1037800003F0070527E700BF2F8F04000022002366
:103790002DE9F04F00279FB0CDE9082300F1280361
:1037A000039305464FF0FF324FF0FF33283045F0CA
:1037B000A4FCB8463E460DF1480A0DF1580BEB69E2
:1037C000B3420DD8EB69434555D1002F53D16FF06B
:1037D0008504039845F0C1FD20461FB0BDE8F08F79
:1037E0006A6CA9695000884294BF3346731EA1EBEE
:1037F00042022846CDE900BACDE9082345F055FC40
:1038000004460028E5D19DF8593085F82430199BED
:1038100003F47023B3F5803F2BD252465946284615
:1038200045F0CDFC28B3199B08F1010803F47F4251
:10383000B2F5844F0BD1DBB2012B07D00121AA4A8C
:10384000AA4845F04FFC6FF07A04C2E707462846C5
:1038500008A945F01FFCDDE908232846CDE900BA98
:1038600045F0D3FC041EB4DB9DF8593085F82430B4
:10387000A8D00136A3E7B34248D16B6C089A0EAECC
:10388000D21A099B2846009663F1000345F0F8FB25
:10389000044600289DD1304695F8241045F02FFCB1
:1038A00018B9284608A945F0F5FBDDE9086712AB11
:1038B0000DF15808019332463B462846CDF800806A
:1038C00045F0F3FB0446002883D1199B03F47023D1
:1038D000B3F5803F3AD2404645F022FCB0B3199B85
:1038E00003F47F42B2F5844F02D1DBB2012BA5D1A4
:1038F00005F12403009332463B46284645F024FC5C
:10390000811C044636D1002385F8243000266B6CD8
:10391000089A5B00B2EB0309099BB04663F1000B08
:103920005F46CDE9089BCDF810B00DF1680ACDF8DF
:1039300014B0049B4E4573EB0B011ED3DDE9082345
:10394000C5E90487C5E902230AAE4EE02B6A13F0ED
:10395000010309D1009332463B46284645F050FD0D
:1039600004460028C4D034E70121614A5F4845F08D
:10397000B9FB2CE70028C9D02BE74A465B4628460E
:10398000CDF800A045F07CFB044600287FF421AF71
:10399000504695F8241045F0B2FB70B1BDF86A109E
:1039A0002646082907D9286C45F0CDFC1C99059FAF
:1039B00008440619B046CDE9089B696CB9EB0101D2
:1039C00089466BF1000BB4E7D5E904879F4208BF35
:1039D000904504D1BDF82A10002940F0A880696CF8
:1039E000521A63F10003C5E90223424573EB07074E
:1039F00010D32846009645F043FB044600287FF488
:103A0000E8AE304695F8241045F079FBD5E902235D
:103A10000028D9D16A6CAB695200E9689B1A61F140
:103A20000001CDE90831284608A945F033FB12AB67
:103A3000019316AB00932846DDE9082345F0E5FB2A
:103A4000041EFFF6C6AE012C10D000246B6CAA69D0
:103A5000A96803EB4303D21AA44208BF91427FF442
:103A6000B8AE284645F046FD0446B2E60021D5E949
:103A700002636A6C07919DF85910961985F8241015
:103A800043F100081AAFA969CDE90868A1EB42012A
:103A90008E4231D30321174A144845F023FB07AB6C
:103AA00000932846D5E9022345F069FB044610B18E
:103AB000A31C7FF48EAE079B28460093D5E9022312
:103AC00045F09EFC044600287FF483AE6A6CAB6927
:103AD00002EB42029B1AEA681B18C5E90402AB60BC
:103AE000284645F090FD46E0963A0600C0F30500F2
:103AF000B33A0600DF3A06003246434628460097AE
:103B000045F0BEFA044600287FF463AE38469DF8BF
:103B1000691045F0F4FA28B1BDF86A3013B91B9B5F
:103B2000013307D06A6C961948F10008ABE76FF0D3
:103B30001C044EE6124A0321124845F0D3FAEB6802
:103B4000284608A9CDE9084345F0A4FADDE908674D
:103B500007AB009332463B46284645F010FB04462F
:103B600010B1A21C7FF435AE079B32460093284665
:103B70003B4645F045FC044600283FF466AF28E686
:103B8000063B0600C0F305002DE9F04782B00C4665
:103B9000054602AF48B93F4A01213F4845F0A2FA25
:103BA0006FF01500BD46BDE8F087283055F0C7FE20
:103BB000E86B8368DB6898470246286408B9374A8F
:103BC000EAE7102145F0BFFB68641368013B1F2B37
:103BD00001D9334AE0E7AA6900EB80039A4205D293
:103BE0000121304A2C4845F0B6FED9E7EB69012B9C
:103BF00001D82D4AD0E72846FFF7C8FD002838D164
:103C0000012385F82530D5E90623032100922248B7
:103C1000264A45F0AAFED5E90232E9468AB002AE4C
:103C200000244FF0060AB0462149C6E90624C6E939
:103C30000834716148F810AF4FF4435123464246AF
:103C4000154800F0F1FBD5E90432CD468AB0194998
:103C5000C6E90743C6E905127462C6F810A00E480B
:103C6000234642464FF4435100F0DEFB2046CD464A
:103C700098E7002C96D0022103460F4A064845F0EB
:103C80006AFE284645F015FC2846FFF77FFD002810
:103C9000B6D087E71B3B0600C0F30500263B0600B5
:103CA000483B0600653B0600913B0600D23B060000
:103CB000E93B0600FF3B0600143C06002DE9F04FEF
:103CC000894617461E46044685B038B901214C4A3C
:103CD0004C4845F007FA6FF0150509E090F82530DB
:103CE00053B90121484A474845F0FCF96FF00C05EB
:103CF000284605B0BDE8F08F3146006C45F023FB47
:103D0000636CA26903EB8301521A96428246E2D8A1
:103D1000B6F5803FDFD20EB1002FDCD0BAF1000F34
:103D200003D0082E94BF9A469A4404F128084FF015
:103D3000FF324FF0FF33404645F0DFF94FF0000B04
:103D4000E3695B4558D0D4E90221002A3DD0D4E98B
:103D500004531AEB050043F100038242994134D326
:103D6000636C9A4200D186BB1022002168465AF04B
:103D7000EEF994F82430082ECDF80490ADF80260E6
:103D80008DF8013018D90295684645F0ADF9082E36
:103D900006D932463946204645F01BFC054638B95F
:103DA0006946204645F013FB002814BF05463546FA
:103DB000404645F0D2FA9BE7731E072BE4D8324603
:103DC000394602A85AF09DF9DEE7204645F0ABFBE4
:103DD000054630B103460D4A01210A4845F0BBFDB6
:103DE000E6E7204645F00FFC054610B1084A0346B9
:103DF000F2E70BF1010BA3E76FF01B05D8E700BF5B
:103E00001B3B0600C0F305003B3C06004F3C060090
:103E1000793C06002DE9F04F15461E46002200238E
:103E20008BB088460446CDE9042348B930480121C7
:103E3000304A45F057F96FF015000BB0BDE8F08F30
:103E400090F825303BB92A4801212B4A45F04AF920
:103E50006FF00C00F1E74FF00009D0E9022304AF46
:103E60000DF1180BCDE902B7D4E90201CDE900014B
:103E700041462046CDE9042345F005FA0028DCDB65
:103E800011D039462046DDF814A009F1010945F0AA
:103E9000CCF90028D1D1DDE9042314994945E1D2B8
:103EA000079A424502D06FF00100C6E7BDF81A70CC
:103EB000002FF8D0082F0AD83DB1BE42324628461E
:103EC00028BF3A4608A95AF01CF93846B5E7002D34
:103ED000FBD0089A53460244B74294BF019701961B
:103EE0002046009545F0BCF80028EED0A5E700BFBD
:103EF000C0F305001B3B06003B3C06002DE9F047E4
:103F0000044607464FF00109DFF84C8094FAA4F507
:103F1000B5FA85F509FA05F32E0108EB05156FEAE8
:103F2000030A24EA03042B7B63B158F806301B69AB
:103F30006BB94644736804222846196807EA0A07E1
:103F400045F090FC002CE1D13846BDE8F0872846CA
:103F500098470028F6D1ECE7A8F5050010B5002237
:103F600088B00E490E4856F074F900220023002450
:103F7000CDE906230E234FF44072CDE90334CDE999
:103F80000144084B08490094084836F099FE084956
:103F9000064855F040FF204608B010BDB53F000070
:103FA000D01F0020D142000098710020301700205F
:103FB000A93C0600014836F0E1BA00BF30150020E8
:103FC0002DE9F047804621480F4645F02FFC064674
:103FD000002833D000252846BDE8F087237B83B135
:103FE0002368DB680BB120469847636883F8069026
:103FF00023681B69D3B9636804222046196845F019
:1040000031FC013610345445E8D3B8F1000FE2D04A
:10401000002DDFD02846FFF771FF0546002FF7D0AF
:10402000002140F2391055F0C0FFF1E720469847D3
:104030000028E0D009FA06F31D43E2E705464FF0F9
:104040000109034CDFF80CA0DDE700BF5C3D002058
:10405000A8F50500B8F50500014B53F8200070479E
:1040600038F9050008B5034608462BB1044A136029
:1040700000F03AFC002008BD6FF01500FBE700BF20
:104080002801002010B5044C237813B9034836F0FA
:1040900075FA0123237010BD3E6300203015002007
:1040A00010B50446094845F0C1FB3CB1084BD3E8C4
:1040B000EF1F0139C3E8E21F002AF8D1054837F0A5
:1040C000C5FBBDE81040044836F058BA543D002006
:1040D000583D0020D01F0020301500200022044B46
:1040E000D3E8EF0FC3E8E12F0029F9D1704700BFF3
:1040F000543D002070B5FFF7F1FF0546074C084E10
:10410000B44200D370BD63685B792BB123685B68F0
:1041100013B12946204698471034F1E7A8F5050069
:10412000B8F5050010B5044C0449204644F0BFFB27
:10413000034B1C6010BD00BF3412002024F90500A1
:104140004C3D002000230D4A10B513700C4A0D4958
:1041500013600D4A0D481360FFF784FFFFF7E2FF7D
:104160000B4B0C4918468B4200D310BD1A1A5C68E1
:104170001211013222711033F5E700BF3F630020B6
:10418000543D002040420F00583D00202998040073
:10419000A8F50500B8F505000146002200230148F6
:1041A00044F0A6BB34120020014844F03DBC00BFDF
:1041B00034120020024B0146186844F090BC00BF46
:1041C0004C3D0020014844F0C5BC00BF3412002023
:1041D000F8B5284B1B78002B4AD0FFF7E5FF0446C3
:1041E000002842D1244B254D1B68002B19DD55F0CA
:1041F000E8FF4FF47A76A0FB060747F61222002369
:1042000006FB0171FCF726FED5E90032C01A40F228
:10421000E93361EB0201984271F1000101D3FFF72C
:1042200069FFD5E9003213F57A7342F10002C5E95E
:104230000032ECB1BDE8F840FFF7C4BF6B685B79B2
:1042400023B12B68214628461B6898471035B54294
:10425000F4D32046FFF7AEFF094BD3E8EF1F013937
:10426000C3E8E21F002ABDD0F7E7064D064EEEE791
:104270000020F8BD3E630020543D0020C81F0020F0
:10428000583D0020A8F50500B8F5050070B50D4DA6
:10429000297861B90120FFF793FE0B4C0B4EB44215
:1042A00006D3FFF795FF0028FBD101232B7070BDCB
:1042B00063685B791BB1236820469B68984710347C
:1042C000EDE700BF3F630020A8F50500B8F5050045
:1042D00000212DE9F8430846FFF772FE044648B373
:1042E00040F21B684FF000091EF058FA1A4B1B4AA7
:1042F0001B58136033B11A4B1B68092B02DD194898
:1043000036F03CF90025184F44B12046FFF7F6FD82
:10431000044618B94FF0FF384FF0FF39FFF758FF48
:10432000064628B9B5B90F4842464B4636F060F903
:104330003546E9E74FF0FF384FF0FF39D4E72B68F7
:104340009B691BB100222846114698471035BD4293
:10435000F5D3E8E7054DFAE708000000503D0020DE
:10436000583D002030150020B8F50500A8F50500DF
:1043700013B5184845F05AFA174B1B7873B1EFF391
:104380001184202383F31288BFF36F8FFFF720FF80
:1043900084F31188BFF36F8F02B010BD0F4B1B6801
:1043A000002BF9D050B9002200230D48CDE900239D
:1043B00047F61222002337F011FAEDE70928EBD176
:1043C000074837F043FA074802B0BDE8104036F01E
:1043D000D5B800BF583D00203F630020503D00206D
:1043E000D01F00203015002010B5064B04461B6876
:1043F00098472146A060044844F0F7FABDE8104011
:10440000FFF7B6BF2801002034120020044A054BF4
:104410009B1AB1EBD30F34BF52F831000020704724
:1044200080F30500A8F505002DE9F04F8FB0C1F32A
:104430004A2604AF0D469046B8607B600C0D002EF6
:1044400061D04FF000090A234FF0040B07F1140A62
:10445000FE60C7E90799C7F824900093CDF808B02B
:10446000CDF804A007F11C034A464046F968FEF760
:1044700003FEB0F5006F03461CD36C468AB0D8F833
:10448000041004AB24481A46C3E9050140F2FF7149
:10449000D9614FF400711984204B42F8103F4FF45A
:1044A00012514B461E48FFF7BFFFA5462C37BD46AD
:1044B000BDE8F08FC0F30A0604F11700184420F09D
:1044C000070080083B60FFF767FE66F3532504464C
:1044D00080B13B6800F11001C7E908390A23F9618E
:1044E000CDE901AB009340460E4AF96807F11C0381
:1044F000FEF7C2FD66F353252A4620467B68B9685D
:1045000045F0D0F9D2E704F1170020F00700800849
:10451000FFF742FE0446EDE7BE3C06000400000142
:10452000C8F30500779804002DE9F04F87B00546E1
:10453000DDE9106BDDE9127A884614469946BFB171
:1045400010213B465A460020CDF800A0CDF814A01B
:10455000FEF7E0FBB0F5006F01460BD340F2FF73AE
:104560000221184A184807B0BDE8F04F45F0F3B9EA
:104570003946384604F0070305F00704E40044EA2E
:10458000831444EA402444EA065406F11700084420
:1045900020F0070080080391FFF7FEFD054640B1BB
:1045A0003FB13B465A460399CDF800A01030FEF7C4
:1045B000B1FB4B4622464146284607B0BDE8F04FC6
:1045C00045F070B9FD3C0600C8F30500406820B115
:1045D000034BC01A40F3CF0070474FF0FF307047D5
:1045E00080F305000EB403B503AB53F8042B01466A
:1045F000044801931EF006FB02B05DF804EB03B023
:10460000704700BFB9990400CA0605D48B064CBF99
:1046100002490349FFF7E6BF704700BF7AA10600D1
:104620006F3F06002DE9F04F89B098469DF85090F5
:10463000159B044606930D46DDE916A3189F0592C7
:104640000493B9F1000F00F0B08007F48073079372
:1046500045F006F907F0020B0246002874D0204608
:104660007749FFF7BFFF0646BBF1000F08D017F0F0
:10467000440F6BD12A4620467249FFF7B3FF064428
:1046800007F0010353B1704B204653F829206F4BBC
:104690006F49002A08BF1A46FFF7A4FF07F480738A
:1046A000002B07F0080318BF4FF00008002B79D04B
:1046B000684B204653F829206749FFF793FF0546CA
:1046C000059B2BB11A4620466449FFF78BFF054432
:1046D000B8F1000F05D0424620466149FFF782FF3E
:1046E000054460483544069B1BB122465E4943F0B1
:1046F00049FF049B002B00F08E80DDF810803946C6
:10470000B8F1100F204628BF4FF010080026FFF721
:104710007BFFB54250DC0026334620461AF80320C2
:104720005249FFF75FFF0136102E4BD0710703D1BE
:1047300020464F49FFF756FF46453346EDD3204606
:104740004C49FFF74FFFEEE706468DE74A4B1868E6
:10475000002894D0494B4FF47A7B1B684FF03C0CF7
:10476000B5FBF3F5B5FBF0F14FF4616300FB1155B8
:104770000BFB05F5B1FBF3F2B5FBF0FE03FB1211E9
:1047800000FB1E55B1FBFCF30BFB05F5B5FBF0F58B
:104790000CFB131120460091CDE901E53849FFF7E4
:1047A00021FF6CE707F008058AE7B8F1010F4D46D5
:1047B0000CBF2C48334896E720462D49FFF712FFDF
:1047C0000136A6E7002620462F49FFF70BFF3346A8
:1047D0001AF803202046A2F120035F2B28BF2E22C7
:1047E0002A49FFF7FFFE0136102E0DD0720703D1C4
:1047F00020461F49FFF7F6FEB0453346E8D820466D
:104800001B49FFF7EFFEEEE7049BC244B3EB08033E
:1048100004937FF472AFB9F1000F0AD0FB0704D5FF
:1048200020460A4A0A49FFF7DDFE39462046FFF7CF
:10483000EBFE204609B0BDE8F04F45F0B0B800BF30
:1048400051A806003A3D060048F90500353D06002E
:104850009F8F06005CF905005F3D0600653D060080
:10486000693D0600B9990400052C02006E3D060062
:10487000763D0600743D0600643D0020603D00204A
:10488000433D0600E7990400783D0600F600070066
:1048900042F20F7373B58B4228BF0B46056804467E
:1048A000052168460D4A42F013FD06466368284616
:1048B0000B225B680A4945F064F863683246694632
:1048C00028465B6845F05DF863681B2228465B68F4
:1048D000044945F056F802B070BD00BF66D7060027
:1048E000C1250700A525070000210123064A9042A3
:1048F00006D8064A01B901231360054B18607047BA
:10490000012140085B00F2E740420F00603D0020BB
:10491000643D0020F8B50D460446064F4618B442E3
:1049200001D12846F8BD14F8011BBB6801485B683B
:104930009847F4E710E90500014B03600020704739
:10494000A4F9050070B5104B0D461C68B4B10F4BAF
:10495000196800238B4202DB6FF0010070BD224614
:1049600012F8106B864202D014460133F2E7E06879
:1049700054F0E9FE28B100202C60EFE76FF00C0046
:10498000ECE76FF01200E9E734010020A4F905001C
:1049900010B5436888B0029383680C46CDE90332B2
:1049A00000230A68C068CDE90623054901AA0593DA
:1049B00053F033FC079808B9059B236008B010BD7D
:1049C000E39A04002DE9F0410C4B05461C680E46A5
:1049D00017467CB100F06AF963682046D3F810806E
:1049E00032463B462946C047044600F069F9204656
:1049F000BDE8F0816FF00104F9E700BF943D0020AD
:104A000000230360044B5A6812B9C3E900007047E1
:104A100010605860704700BF983D0020014B18603F
:104A2000704700BF943D0020002330B585B0CDE92C
:104A300002330546019000F039F9094B1C6844B96E
:104A4000284600F0D5F8044600F03AF9204605B0B3
:104A500030BD636820461B6801A998472468EEE7CB
:104A6000983D00201FB5CDE90101039200F01EF929
:104A7000074B1C6824B900F023F9204604B010BD90
:104A8000636820461B6801A998472468F2E700BFC5
:104A9000983D00200022024BC3E90022704700BF6E
:104AA000983D00200022024BC3E90022FFF7F2BF2D
:104AB000A03D00202DE9F74307460C4609B100232D
:104AC0000B6000261E4DDFF87C904D450FD31E4B2A
:104AD0001D6885B355F8188C3846414601AA183D23
:104AE00045F03EF810B3D6B914BB2E461EE0D5F8FB
:104AF00000803846414601AA45F032F850B116B957
:104B000054B92E4606E000224046316845F028F8A8
:104B10000028F5D11835D8E7019B2360F1E7002282
:104B20004046316845F01CF80028DDD1AD69D0E77A
:104B3000019B2360D9E7304603B0BDE8F08300BF96
:104B4000B8F50500D0F50500A03D00202DE9F0479F
:104B500084B002AFD7F8289004460D461646984612
:104B60007860B9F1000F07D0D9F8001031BBD9F83F
:104B700004A0BAF1000F28D12046391DFFF79AFF93
:104B800008B3D0F80C904346324629467868C847A7
:104B9000C8B16D468AB002AA124BD061C2E9053491
:104BA0004FF400731384104B42F8103F00234FF46E
:104BB00011510E48FFF738FCAD4604E03A1D44F0B1
:104BC000CFFF0028D3D1002007E0D9F808303246C3
:104BD0000093294643467868D0470837BD46BDE86C
:104BE000F08700BFB43D06000400000130F5050069
:104BF0002DE9F04780464FF000470026DFF8A090EF
:104C0000DFF8A0A03D46284C4C450DD3DAF8004013
:104C1000002C40D0183CB8F1000F24D1226952BBBF
:104C2000A469F5E72F46EDE7B8F1000F03D122693B
:104C30004AB91834E8E700224146206844F090FF62
:104C40000028F4D1F5E76368BB4206DDAF4202D02D
:104C5000AB42A8BF2B461D46EBE7EAD19047002E9A
:104C600008BF0646E5E700224146206844F078FF89
:104C70000028D3D1D4E76368BB4206DDAF4202D03F
:104C8000AB42A8BF2B461D46CAE7C9D19047002EAC
:104C900008BF0646C4E7AF42C4D13046BDE8F0873E
:104CA000D0F50500A03D0020B8F505004FF0FF321B
:104CB0004FF0FF33014835F06DBB00BF801400207A
:104CC000014835F0D9BB00BF8014002038B5094D2C
:104CD000FFF7ECFF2B785BB9FFF7E4FE00F01EF95D
:104CE000044608B901232B70FFF7EAFF204638BDC0
:104CF0000024F9E7416300202DE9F04F00F1080698
:104D00009BB00746894608234FF00041304607AA6A
:104D100044F062FD002827DB089D0DB9284623E0FA
:104D200025F0010A492307AA5146304644F054FDB4
:104D30000AF1804B59460446304644F05AFD082398
:104D400080462946304605AA44F046FD00280BDB84
:104D5000002C069D02DDB8F1000F08DC51463846F4
:104D600044F084FF0028D8D01BB0BDE8F08F04F1D8
:104D700068030DEB03040023414604F84C3C054A4C
:104D8000CDF8009003AB07A8CDE9036BFFF7DEFE7B
:104D9000E8E700BFAD9B04002DE9F04F9BB004464F
:104DA0008846CDE90123002900F0AE804A21404623
:104DB00059F0A7FB019B814693B3029BB3FA83F59D
:104DC0006D094FF0000B49464046FDF7A7FE4FF036
:104DD000FF36DA4620F0404020F01F0040F000434C
:104DE000009304F10803039394F85C305B4519DAEF
:104DF00053453CD3009F760006F01E0637436DB93D
:104E00000125DDE9012304F10806304607F1804160
:104E1000FEF754FF002834DB002D42D1002030E0A3
:104E20000125CEE7009B039803EB4B073946492346
:104E300007AA44F0D1FC831C06D1B6F1FF3F08BF9E
:104E40005E460BF1010BCFE700281ADB002200F1D0
:104E500068036B44484503F84C2C05D14A4640464C
:104E600007A959F008FBA8B10AF1010AE9E7BAF16C
:104E70000F0F09D926480121264A44F063FD6FF03F
:104E80001B001BB0BDE8F08F009B84F85CA043EAD8
:104E90004A07B4E7002DB4D03946204644F0E6FE78
:104EA000EFE700230693636D002B22DA636D47F072
:104EB0000105059329460823304605AAFEF7FEFEA4
:104EC0000028DEDBA36D30460593616D082305AA3B
:104ED0000695FEF7F3FE0028D3DB636D4246C4E976
:104EE000155339464B463046FEF7E8FE00EAE070BF
:104EF000C7E707480221084A44F024FD204644F051
:104F00005BFE0028D2D0BCE76FF01500B9E700BF08
:104F100030F50500E23D0600023E06007FB50123A4
:104F2000694603200193FFF70DFD044668BB03208B
:104F300002AA01A944F0F7FD044610B110F10C0FCC
:104F400023D1009B03999A68134DB2FBF1F2C5E996
:104F500008125A68DB68AA602B656B64C3B105F15F
:104F6000080044F032FC044678B985F85C00284615
:104F700044F022FE044640B9084E28466E60FFF712
:104F80003FFD28466E60FFF749FD204604B070BD26
:104F90006FF01204F9E700BF08200020E8F90500CF
:104FA00008B5044843F075FB034843F072FB00204A
:104FB00008BD00BF3C3E0600713E0600F0B5054648
:104FC00089B000AF20220021384659F0C0F83B4696
:104FD00028461B4A1B493CF0F5FE04460646C0B174
:104FE0006D4688B06A46184B0593184B06934FF4EC
:104FF0000073ADF81C30164B42F8103F00234FF4FD
:10500000E2511448FFF710FAAD4620462437BD465A
:10501000F0BD394628463CF08BFF04460028F4D00A
:105020006D4688B06A460C4B0593084B06934FF4C7
:105030000073ADF81C30064B42F8103F3346DEE7F4
:10504000E2550100DE2507009E3E0600CD25070043
:105050000300000180F50500C03E06002DE9F04187
:105060000546F4200E4646F036FB044640B129467C
:10507000F20000F0D7F9002806DA204646F02DFBB2
:1050800000242046BDE8F0812246002104EB0013F5
:105090008600751AA94202F11002A3F1100309DB80
:1050A00021464FF0010C294D294E60451CDCC4F807
:1050B000F000E6E752F8105C1F69043142F8107CFA
:1050C0001D6152F80C5C5F6942F80C7C5D6152F81E
:1050D000085C9F6942F8087C9D6152F8045CDF69B6
:1050E00042F8047CDD61D4E710310F1F01F10C0E92
:1050F00057F8042FD3B256F82330BE45C3F3072325
:1051000055F823804FEA126356F82330C3F3072380
:1051100055F8233083EA3863C2F3074856F82880ED
:10512000C2F3072256F82220C8F3072855F8288032
:10513000C2F3072255F8222083EA382383EA324358
:105140003B60D5D10CF1010CAFE700BF04FA0500BC
:1051500004FE05002DE9F04F0E6803684D6836BA6D
:105160005E4043688C682DBA5D408368C96824BA84
:105170005C40C36809BA5940D0F8F03086464FEA1F
:10518000630CE3468DB0A54B0190370E53F82770A2
:10519000DEF810005FFA81FA87EA0008EFB253F8F0
:1051A0002770DEF8140088EA3768C1F3074753F820
:1051B000277053F82AA088EA3728C4F3072753F842
:1051C0002770BBF1010B88EA37484FEA156753F89F
:1051D000277087EA0009E7B253F82770DEF8180055
:1051E00089EA3769C6F3074753F8277089EA3729F0
:1051F000C1F3072753F827704FEA116189EA37494D
:105200004FEA146753F8277053F8211087EA000714
:1052100087EA3A67C5F3074A53F82AA0DEF81C006C
:1052200087EA3A27C6F3072AF6B253F82660C4F392
:10523000074453F8244081EA000181EA3661C5F34E
:1052400007254FEA186081EA342153F8254053F8C6
:105250002AA002904FEA196081EA34410390C8F312
:10526000074087EA3A470490C1F3072005904FEAC8
:1052700017600690C9F307400790C8F30720C1F3F1
:10528000074A0890C8B24FEA11610A91C7F3074173
:105290005FFA89F6C7F30725FCB209900B91C9F3B1
:1052A00007295FFA88F850D00299049853F82170C2
:1052B000DEF820100EF1200E4F4053F8261053F860
:1052C0002A6087EA316181EA362653F82510DEF834
:1052D0000C7086EA3146039953F82150DEF8041029
:1052E0004D4053F8241085EA316153F82050079857
:1052F00081EA3525059953F8211085EA314506994B
:1053000053F82140DEF808104C40099953F8211059
:1053100084EA316153F820400B9881EA34240899DB
:1053200053F8211084EA31440A9953F82110794046
:1053300053F8287081EA376153F8207081EA3721E9
:1053400053F8297081EA37411FE701980CF1FF3CBF
:10535000334B20304FEA4C11415800EB4C1C029863
:105360009E5D185C714081EA006013F80A1080EAC3
:105370000141585D81EA0021080E1070080C507040
:10538000080A9070D170DCF80410185D4840039949
:10539000595C80EA01610498185C81EA0040059933
:1053A000595C80EA0120010E1171010C5171010A52
:1053B00091710999D071585CDCF808104140069849
:1053C000185C81EA00610798185C81EA004108983E
:1053D000185C81EA0021080E1072080C5072080A4D
:1053E000D1729072DCF80C0013F8081041400A9852
:1053F000185C81EA00610B98185C13F8093081EAA7
:105400000041584681EA0323190E1173190C517398
:10541000190A9173D3730DB0BDE8F08F04FA05003B
:10542000CA7B08002DE9F0430E68802A36BA066070
:105430004D682DBA45608C6824BA8460CB681BBA6D
:10544000C36036D17749784F01F10A0CC3F30722C4
:105450004FEA136E57F8222057F82EE002F47F022D
:10546000CEF3072E42EA0E025FFA83FE57F82EE0D3
:1054700011F8018B0EF47F4E82EA0E02C3F3074E41
:1054800057F82EE042EA08624FEA0E2E0EF07F4EE9
:1054900082EA0E02564075406C40634061450661E9
:1054A00045618461C36100F11000CFD10A20BDE8DD
:1054B000F0830F69C02A3FBA07614F693FBA47615D
:1054C0003FD1DFF860C1584900F1A80EC7F30722A9
:1054D0004FEA176951F8222051F8299002F47F020F
:1054E000C9F3072942EA09025FFA87F951F82990BE
:1054F0001CF8018B09F47F4982EA090242EA08623A
:10550000C7F3074851F8288086454FEA082808F075
:105510007F4882EA080286EA020685EA060584EAEE
:10552000050483EA04038661C5610462436201D114
:105530000C20BCE7026918305A40574002614761AD
:10554000C4E78F69B2F5807F3FBA8761C96909BA3C
:10555000C16163D1DFF8CCE0DFF8CCC000F1C00856
:10556000C1F307224FEA11695CF822205CF8299008
:1055700002F47F02C9F3072942EA09025FFA81F9BE
:105580005CF829901EF8017B09F47F4982EA090240
:1055900042EA0762C1F307475CF8277080454FEA8B
:1055A000072707F07F4782EA070286EA020685EAB4
:1055B000060584EA050483EA040306624562846200
:1055C000C36201D10E2072E7C3F30722DFB25CF899
:1055D00022205CF8277002F47F42C7F307273A4382
:1055E0001F0E5CF82770C3F307495CF829903F024F
:1055F00007F07F4709F47F0947EA09077A400769FE
:1056000020307A4050F80C7C02617A4050F8087CD7
:1056100042617A4051408261C161A1E74FF0FF30A1
:1056200045E700BFC07B080004FE05002DE9F04FF0
:10563000ADF56B7D824690468B461A2200210DF116
:105640003A000193F59C58F082FD00214FF4457219
:1056500025A8049158F07BFDF79B5649DAB2F69BDA
:1056600042F00072DD1DADF80E30019B0A440DF1D1
:105670000E01CDE90831022340460DF10C0912F864
:10568000037C0A93CDE90698FBF72EFC02230D93C9
:105690004FF470531093F79BF49A11934FF488537F
:1056A00004AE51460B900C92ADF838305A46334652
:1056B0000EA836F07FFFED088246002877D04FF025
:1056C000FF3A50460DF56B7DBDE8F08FF79A25A89F
:1056D00055F0E3F880B9804606AB0DF1280B53F87E
:1056E000041B5BF8042B25A8019355F0D9F8019B06
:1056F00040B125A855F07AF830680028DFD036F0A0
:105700000DFFDCE708F10108B8F1040FE7D13A46D4
:10571000214615AB25A855F0D5F80028E9D1B9F8F0
:1057200000303C440133ED1B9BB2AF423168A9F815
:105730000030CBD94DB3F79A25A855F0AEF80746FF
:105740000028D9D10DF118090DF1280858F8042BBB
:1057500059F8041B25A855F0A3F80028C9D1013732
:10576000042FF3D105AF3B46402215A925A855F0DB
:10577000A9F80028BDD1204615A92A4658F0C1FC39
:10578000059915A82C4436F061FBF69B13F007032E
:1057900009D0FF22C3F1080302FA03F314F8012C25
:1057A000134004F8013C306836F0B8FE89E7012365
:1057B000BBE700BFCA7C08FE1FB5064C0394089CDB
:1057C000E4000294079C0194069C0094FFF72EFFCE
:1057D00004B010BD0B0080031FB5064C0394089C59
:1057E000E4000294079C0194069C0094FFF71EFFBE
:1057F00004B010BD0A0080030338082808D8DFE889
:1058000000F0051E14070716181A1C000D4B0B603C
:105810000B7843F0007303F17E43033B122B8EBFE2
:1058200000230949CB5613607047084BEFE7084B3C
:10583000EDE7084BEBE7084BE9E7084BE7E7084BD8
:10584000E5E700BF03000002F07C0800050000024D
:1058500008000002090000020A0000020B0000021A
:10586000040000022DE9F04B0C460025ADF5527DF9
:1058700000218346904606A81C22994658F067FCF2
:105880004FF4457200210DA858F061FCA4F11002FC
:10589000102A03AF04953D6063D8334BD340DB0738
:1058A0005FD54FF41053ADF818304FF480632F4E8E
:1058B00005A80593099644F03DFC03682246089329
:1058C00059463B4606A836F075FE044640B10346ED
:1058D0004FF4987200952649264842F0DAFE22E0FD
:1058E00006A855F043F9324639680DA854F0D5FFA3
:1058F000044628B303464FF49A720095EBE7DA9B0F
:1059000059F8241053F824200DA854F0C9FF054677
:10591000A8B1002340F239120093154903461548F7
:1059200042F0B7FE2C460DA854F060FF386808B16D
:1059300036F0F4FD20460DF5527DBDE8F08B0134C4
:105940004445DCD11022DB9904AB0DA854F0BAFF1A
:1059500004460028E7D0002340F23D12009303469E
:10596000B9E74FF0FF34E5E7010101000002C00391
:10597000E13E06001C3F06002DE9F04F0025ADF585
:10598000577D0AAECDE902019DF8889329469346DA
:1059900030461C221F460DF1140ACAF8005058F078
:1059A000D6FB4FF44572294611A858F0D0FB51465A
:1059B000484607AA08950695FFF71EFFDAF800404B
:1059C0000DF1180854B949463A4842F062FE4FF0CA
:1059D000FF3A50460DF5577DBDE8F08F4FF48853E0
:1059E00033804FF48063E4B209A844F06079CAF8C8
:1059F00000900993C6F80C9044F09CFBDDE902127C
:105A000003683046B360434636F0D4FD824640B169
:105A100003464FF4C37200952749284842F039FEE7
:105A200023E0304655F0A2F84A46D8F8001011A8F5
:105A300054F033FF824618B303464FF4C572009505
:105A4000EAE7E09B57F82A1053F82A2011A854F0EF
:105A500027FF054690B1002340F28F1200931649AC
:105A60000346164842F015FEAA4611A854F0BEFEA1
:105A700006980028ADD036F051FDAAE70AF1010AD8
:105A8000DA45DED144F0007404F17E44033C122C6C
:105A900096BF0B4B00221A5DE19908AB11A854F098
:105AA00011FF82460028E0D0002340F293120093B9
:105AB0000346B1E7513F0600E13E06001C3F0600E9
:105AC000DD7C08002DE9F047ADF5B06D07AC06466A
:105AD0008A46914600211C222046984658F037FB02
:105AE00000214FF4A96203AF0EA80391049158F06E
:105AF0002EFB3946304605AAFFF77EFE039F04AD14
:105B00001FB93146414842F0C4FD4FF4804306A816
:105B1000069344F00FFB4FF6F8720368B2EBC90F1F
:105B2000A3604FF6FF7241F2032323804FEAC903BB
:105B300038BF13460026FFB247F00867638020464F
:105B40002B464A46514647F4807766606661E760B7
:105B500036F030FD044690B103464FF4DB720096F8
:105B60002B492C4842F095FD0EA854F0D8FE286829
:105B700036F0D4FC20460DF5B06DBDE8F08739460F
:105B80000EA854F010FF044620B1034640F2B912AB
:105B90000096E5E70346074640F20521DDF8A42517
:105BA0000EA836F035FF044620B1034640F2BD1280
:105BB0000096D5E7424640F20221DDF8A0350EA856
:105BC00054F024FF044620B1034640F2C11200976E
:105BD000C6E74FF481712A680EA854F020FF0446EE
:105BE00020B1034640F2C5120096B9E7DDF8A825BA
:105BF000DDF8AC150EA854F0C0FE04460028B3D062
:105C000003464FF4E4720097AAE700BF5D3F060029
:105C1000E13E06001C3F060010B537F05BF9044674
:105C200018B10146024842F034FD204610BD00BFC5
:105C3000723F0600014A41F04BBB00BF953F060092
:105C400010B5044628B90520034904F0C7FA2046D8
:105C500010BD846FFBE700BF9A3F0600002370B5BC
:105C6000ADF5826D03AE336006214FF4806300967C
:105C700004AA054637F03CF8044650B102461349E1
:105C8000052004F0ABFA4FF0FF3420460DF5826D8D
:105C900070BD3668B6F5807F07D94FF48073324601
:105CA00005200B4904F09AFAEDE7324604A905F203
:105CB000FC7058F026FA3246C5F8FC6804A905F5D0
:105CC000DF6058F01EFAC5F8F867DEE7C43F06004B
:105CD0000A400600002370B5C4B003AE336004214F
:105CE0004FF48073009604AA054637F001F8044685
:105CF00048B102460E49052004F070FA4FF0FF3417
:105D0000204644B070BD3668B6F5807F07D94FF4A1
:105D1000807332460520074904F060FAEEE7324608
:105D200004A905F5DF6058F0ECF9C5F8F867E7E776
:105D3000564006009D40060070B5064630B9294918
:105D4000052004F04BFA4FF0FF3070BD806F30B18A
:105D500044F011FAB06F45F0C0FC0023B36740F681
:105D6000882045F0BEFC044608B91F49E8E7002535
:105D7000C0F8B055C0F8B455C0F8B85544F0F2F9C1
:105D80001323C4F8783A4FF480334FF48072C4F888
:105D9000803A294684F8C055C4F8BC55C4F8F85771
:105DA000C4F8445A04F2F45058F0D1F94FF4807218
:105DB000294604F5DF6058F0CAF94022294604F666
:105DC000042058F0C4F92022294604F6482058F04F
:105DD000BEF91022294604F6682058F0B8F9284682
:105DE000B467B2E7EB400600164106002DE9F04F1C
:105DF0000D46ADF2B45D05AF04461C2200213846C5
:105E000058F0A5F94DB90520A54904F0E7F94FF080
:105E1000FF300DF2B45DBDE8F08F2B6804F2CD5079
:105E20001A684FF00009C4F8C1259B881AAEA4F87F
:105E3000C53504F2C75301936B681A68C4F8C725C7
:105E40009B88A4F8CB35D5E9041258F05AF96B6950
:105E500004F2F450C4F8F035D5E9021258F051F9C3
:105E6000EB68904AC4F8F436AB692046C4F8783A37
:105E70002B7F84F8803A6B7F84F8813A8A4BC4F890
:105E80007C3A697F894BC4F8B89500290CBF9346CA
:105E90009B4604F5B6630193854BC4F8B0B5C4F8CE
:105EA000B43544F05FF94FF480433046336044F03A
:105EB0004DF93368D5F80CA0BB60AB68019313B102
:105EC000BAF1000F05D152467A49052004F086F94F
:105ED0009DE72B7F002B00F0938049464FF4A96289
:105EE00058F035F90DF14C0849461A220DF13200EF
:105EF00058F02DF949461C22404658F028F94FF435
:105F00008043CDF80C900DF110094846C9F80030D7
:105F100044F01CF9D9F8003003AF0E9341F203238B
