:020000021000EC
:1000000000000000000000000000000000000000F0
:1000100000000000000000000000000000000000E0
:1000200000000000000000000000000000000000D0
:1000300000000000000000000000000000000000C0
:1008000088C3002041950200FD8D04002D95020053
:100810002D9502002D9502002D9502002D950200C8
:100820000000000000000000000000001D96020013
:100830002D95020000000000959802002D95020001
:1008400059990200599902005999020059990200D8
:1008500059990200599902005999020059990200C8
:1008600059990200599902005999020059990200B8
:1008700059990200599902005999020059990200A8
:100A5000599902007DC00400599902005999020079
:100A6000599902005999020067C00400599902007F
:100A700059990200599902005999020059990200A6
:100A80005999020059990200599902005999020096
:100A90005999020059990200599902005999020086
:100AA0005999020059990200599902005999020076
:100AB0005999020059990200599902005999020066
:100AC0005999020059990200599902005999020056
:100AD0005999020059990200599902005999020046
:100AE0005999020059990200599902005999020036
:100AF0005999020059990200599902005999020026
:100B00005999020059990200599902005999020015
:100B10005999020059990200599902005999020005
:100B200059990200599902005999020059990200F5
:100B300059990200599902005999020059990200E5
:100B400059990200599902005999020059990200D5
:100B500059990200599902005999020059990200C5
:100B600059990200599902005999020059990200B5
:100B700059990200599902005999020059990200A5
:100B80005999020059990200599902005999020095
:100B90005999020059990200599902005999020085
:100BA0005999020059990200599902005999020075
:100BB0005999020059990200599902005999020065
:100BC0005999020059990200599902005999020055
:100BD0005999020093C004005999020059990200E2
:100BE0005999020059990200599902005999020035
:100BF0005999020059990200599902005999020025
:100C00005999020059990200599902005999020014
:100C10005999020059990200599902005999020004
:100C200059990200599902005999020059990200F4
:100C300059990200599902005999020059990200E4
:100C400059990200599902005999020059990200D4
:100C500059990200599902005999020059990200C4
:100C600059990200599902005999020059990200B4
:0C0C70005999020059990200599902009C
:100C8000064A074B02604FF426725B788280082286
:100C9000C371002382710372704700BF57D10100F6
:100CA00088210020064A074B02604FF49C725B7A51
:100CB00082800822C371FF2382710372704700BFD4
:100CC00095CC010088210020F8B5C41D00280546F8
:100CD00024F007040CBF0020204600F051FA071E44
:100CE00002DA6FF00B00F8BD254EB1887088033131
:100CF000F3790330B27989B280B209F0BDFE0028E1
:100D0000EFDB3C4473783178002D04F1030419447F
:100D100024F0030400FB01F10CBF0020204600F08A
:100D2000B3FB23180DB9002BDBDB717A184679B1C0
:100D30000333002D728923F003040CBF00202046EA
:100D400000F014FC0028CCDB20440DB90028C8DBDF
:100D5000317A91B1737A83B1C41D002D24F0070458
:100D60000CBF0020204602F0DBFF0028B9DB0DB1EC
:100D70000020B8E72018B6D5B3E7002DF8D1B2E7C8
:100D8000882100201FB572B6194BDC68ECB9BFF39F
:100D90004F8F1849184BCA6802F4E0621343CB60C6
:100DA000BFF34F8F00BFFDE7B2FBF6F22B465D1C91
:100DB000002AF9D1DBB203F110056D4405F80C2CC3
:100DC0000A2233B901A8A047E1E7024600230A2618
:100DD000EDE7013BDBB203F110050DEB0506B0FBBF
:100DE000F2F502FB1500303006F80C0C2846E8E757
:100DF0008821002000ED00E00400FA050A4B07B549
:100E0000DA886846ADF800209A885B88ADF804203F
:100E1000ADF8023001F0AAFC18B1FA219C20FFF7CE
:100E2000B1FF03B05DF804FB8821002010B5044633
:100E300028B308F0A7FB10B94FF0FF3010BD06F043
:100E4000E9FEB0F5FA7FF7D80E4B00221A744FF482
:100E50008072DC601A801B225A809A8040F2032242
:100E6000DA804FF484721A811F225A81EFF31084C2
:100E700072B600F0D7FB04B962B60020DEE76FF06F
:100E80001500DBE78821002010B5002840D1234C55
:100E9000237C032B39D059B1002A3CD002390529D3
:100EA00036D8DFE801F0031227352A2D1378637056
:100EB0000020FFF709FF0028B7BF012302236FF0CE
:100EC0000B002374A8BF237410BD13791BB353798F
:100ED0000BB31188FB291ED853881B3B9BB2E02B18
:100EE00019D81A2917D913689288C4F802300C4B04
:100EF0009A80DDE713786372DAE713886381D7E7B6
:100F00001388FF2B07D82372D2E74FF0FF30DBE7BF
:100F10006FF02C00D8E76FF01500D5E7882100208E
:100F20008A210020F8B50D46064620B319B311F00A
:100F3000070420D1114F3B7C012B02D16FF00B0035
:100F4000F8BD032B02D14FF0FF30F9E700F0A0FB12
:100F50000028F8D02846FFF7B7FE0028EEDB0CF09B
:100F600051F93046214601F083FCFFF747FF032388
:100F700020463B74E4E76FF01500E1E7882100208C
:100F800010B5064C237C032B03D101F087FC02F043
:100F900071F909F073FE0020207410BD8821002033
:100FA00008B501F031FC03490120BDE8084000F01C
:100FB000DFB800BFA50C010008B501F039FC0349FA
:100FC0000020BDE8084000F0D3B800BF810C01004C
:100FD000074B4FF0FF3141F6FF72C3E9001205499C
:100FE0000022C1E900221F21C3E90212704700BF9D
:100FF000201100209C2100203F280CD801380B4BE9
:10100000C0F3421200F01F0053F8223023FA00F020
:1010100000F001007047FF2806D04038044BC0F3B1
:10102000421200F01F00EFE701207047201100205E
:101030009C210020074B0146006849681A4603C2FC
:1010400040F48C2200201A6041F0107242F4FF62DA
:101050005A607047201100200246034B0068516817
:1010600003C30020704700BF9C2100200246034BB1
:101070000068516803C30020704700BF281100209A
:101080000138064BC0F3421200F01F0003EB82034D
:101090009B6823FA00F000F0010070472011002047
:1010A0000A8870B595B2C67CC2F30E020488023677
:1010B00002F118033444C35AA4B233442344013B1D
:1010C000B3FBF4F303FB0422438892B29342044B34
:1010D0008BBF2B40AB4313439BB20B8070BD00BF53
:1010E0000080FFFF4A1E062A08B50346084604D8BA
:1010F0004FF4D1711520FFF745FE094A914202D9FC
:1011000040F2A311F6E711B903B1196008BD2BB184
:101110001B680022C3E901211A1D1A600430F5E79B
:10112000FAFFFF7F10B5114B00EB41041A78638979
:10113000B3FBF2F303FB0223013A1A44B2F5706FDA
:101140000279807828BF00231A440B18B2FBF0F113
:1011500000FB11215B1AB3FBF0F100FB11331344C8
:101160006FEA43436FEA5343638110BDA42100201B
:10117000024B03EB80035960704700BFA42100209D
:101180002DE9F04F10F0070A85B0054604D040F273
:101190006F111720FFF7F6FD524F044607F10C06BA
:1011A000B146B04657F8043B8DF80BA03BB101A8FF
:1011B00098479DF80A30082B01D9F521E9E79DF8F9
:1011C0000B1041BB05B131604F4506F10406E9D172
:1011D000002D6FD00022DFF810910227964689F883
:1011E000002058F827A0013FBAF1000F55D09AF817
:1011F00004609AF802C0FF2E60D039460023481CD4
:1012000038D19C44BCF1FF0F3FD90AB189F800E006
:101210004FF49A71BDE79DF80AC04B1D60465A0015
:1012200004EB4303022838BF0220441E40422344FB
:10123000BDF808406444CCF1000C0340013C04EAD2
:101240000C04B4F5803F02D340F20511A1E775B15B
:101250009A1A0120326091701480D0709DF80C00B1
:10126000107101984FEA104C1081A2F806C004FBDF
:101270000134A9E758F8210028B190F804B0B3452B
:1012800004BF80781B180139B9E7DBB2E6458AF85C
:1012900004303CBF5FFA8CFE01227B1CA1D10AB155
:1012A00089F800E0022640F6FF6A58F82670B7B9C0
:1012B000013EFAD2601B05B0BDE8F08F0023E5E7E0
:1012C00007EB410309F101093846A3F80AA0FFF72B
:1012D00029FF5FFA89F1BB788B42F1D8E8E74FF03C
:1012E0000009F6E7A8210020A421002038B54FF618
:1012F000FF7302460380184B03EB81031869A8B102
:1013000084780379B3FBF4F104FB1133DBB21946A3
:1013100000EB4105B5F90A50002D0EDB0131B1FBA0
:10132000F4F504FB1511C9B28B42F1D1002038BD90
:101330006381BDE8384009F07BBB00EB4104638961
:10134000C3F30E031380C278002AF1D14FF4E57184
:101350001720FFF717FD00BFA42100201C4B03EB53
:10136000810370B51C69054644B3030404D54FF4EA
:10137000EC711720FFF706FD0146204609F03BFB04
:10138000FF28014604D02046BDE8704009F050BB5C
:10139000A078B5FBF0F300FB1353DBB219460A1D2E
:1013A00004EB4206B6F90260002E09DB0131B1FB05
:1013B000F0F200FB1211C9B28B42F0D1002070BDD7
:1013C0008B4201D00023E37004EB42025580DAE740
:1013D000A4210020094B03EB8103014610B51C69D1
:1013E000204609F008FBFF28014604D02046BDE84E
:1013F000104009F01DBB002010BD00BFA42100203B
:10140000F8B5104B074603EB810301461C692046E3
:1014100009F0F1FAFF28054611D0E288238953EA42
:10142000024606D00146204609F002FB0146384636
:10143000B04720462946FFF775FE0020F8BD05207D
:10144000FCE700BFA421002038B50E4B044682798A
:1014500003EB8203186908B9052038BD8278E17969
:101460009142F9D24B1CE37100EB41035D89B3F962
:101470000A30002BF3DBA58009F0DAFA20600020A7
:10148000EBE700BFA421002070B5044610F0030074
:101490000E4603D04E211820FFF774FCFFF722FE02
:1014A000054624B1034831460460FFF71BFE284679
:1014B00070BD00BFC02100202DE9F14FDFF870B0F2
:1014C0001E4607460D46DBF8003090469DF828A0E2
:1014D0009DF82C901BB960211820FFF753FC524651
:1014E0000921404609F00FF94A4684B209213046E5
:1014F00009F009F981B2DBF80000214409F04FFA44
:10150000386018B9286001B0BDE8F08F0444534634
:10151000414609222C60386809F0B8F84B46092288
:101520003146286801B0BDE8F04F09F0AFB800BF00
:10153000C021002070B50E46044609F0F7F80546B4
:10154000304609F0F3F8044B2A1821461868BDE824
:10155000704009F049BA00BFC0210020024B186852
:1015600008B109F010BA7047C02100201F2AF8B551
:10157000044624D89200134D033250B1830703D0A0
:1015800068210920FFF7FEFB22F003032970686041
:101590002B8122F0030228230127120403FB01F010
:1015A0006B680025120CEEB2B14200D8F8BD14B140
:1015B00026181F705E60104401352833F3E74FF0A2
:1015C000FF30F3E7C4210020154A002170B55368AD
:1015D0001578C8B2854203D8BA210920FFF7D2FB9B
:1015E0001C461846013114F8286B0EB92346F0E763
:1015F0000021997001241289996103F126055C701C
:101600009208D96103F11E04596824F8022FAC42F4
:1016100043F8041F1144F8D100234361037070BDE7
:10162000C4210020114B01224FF0FF3000215A60ED
:10163000C3F80803C3F80015C3F804255A6040F640
:10164000FE72C3F808034020C3F8001503F5703399
:101650000749C3F80825C1F88800BFF34F8FBFF3CF
:101660006F8FC1F88801C3F80825704700600450E7
:1016700000E100E002680020014B1A60704700BFE3
:10168000D0210020014B1B68184700BFD02100204B
:10169000024B1868003818BF01207047D021002085
:1016A0000A4606488F2302F8033BC368C1F803309B
:1016B0000369536043699360704700BFD4210020E1
:1016C000024B5A8C02435A845B6A1847D42100208B
:1016D000014B00215B6A1847D421002010B5154C3E
:1016E00005F0FAF905F0DCFC208DFFF7F1FF237E11
:1016F00063B12246104904F1190052F80C3BE36033
:1017000063685360A36893600AF007FC218DE06A68
:1017100002F03AFBE36AB3F8AA0002F0B7FA636B8F
:1017200094F8301094F831009847002384F838304A
:1017300010BD00BFD4210020A1160100034B93F877
:1017400038300BB1FFF7CABF704700BFD42100206B
:1017500070B5184C0546E36CE66AE3634FF4817399
:1017600094F85000A4F84030337D96F8151100EB42
:1017700083002DB9FF2803D196F814318B4201D094
:1017800004F00CFF337D73B1606D05F00DF9616DF0
:10179000E06B05F00BFC15B9284605F053F9022360
:1017A00084F8383070BDE06B05F0FEF805F078FC89
:1017B000F1E700BFD421002008B5094B93F8382089
:1017C000022A04D040F257312720FFF7DBFADA7AF9
:1017D00042F00102DA72BDE80840FFF77FBF00BFA8
:1017E000D421002070B50F4DC900920000F0030015
:1017F000AE6D01F0080102F004021B01347803F021
:10180000100304F0F3040C43144304F0EC041C43F1
:1018100004433470B5F8643073700223A5F85C306B
:1018200070BD00BFD42100207FB50022012300F14C
:1018300080010392CDE90423074A92F850200292D6
:1018400000F19002CDE90032D0E91E23022005F01C
:10185000E7FA07B05DF804FBD4210020F7B5184C77
:101860000646A56E0DB1636C23B940F6C40127206E
:10187000FFF788FAB4F8483001F003012F466B7087
:101880002B7823F003030B4307F8033B3846B4F8E7
:101890004820616C07F0E0FF0DF1020201A9E06E43
:1018A000E563676409F065F8019809F050F80122D2
:1018B000B4F848103060E06E08F0F8FF03B0F0BDF7
:1018C000D42100202DE9F0412B4C06460F4694F818
:1018D0003830012B5FFA83F804D040F60C11272032
:1018E000FFF750FAE56A2B7933B100210420297102
:1018F000FFF7E6FE85F805802B7A052B0AD11F49F4
:101900000220FFF7DDFE236E1B78991E4B424B41F0
:1019100084F870301EB1BDE8F041FFF7DFBE002F44
:10192000F9D0636F304698470028F4D094F83030EF
:10193000002BF0D1638C9A0714D594F87030002BEB
:10194000E9D02B7DE46A13B12846FFF76DFF94F8C8
:101950001521012096210BF07DFC0020BDE8F0410F
:10196000FFF7F6BE002BD6D194F87830002BE8D1E3
:1019700094F87930E3E700BFD4210020342200201E
:101980002DE9F04FAD4C91B0E56A069005F1A80342
:10199000089109930023CDE90D3394F83830022BD8
:1019A000DFB204D040F6AD112720FFF7EBF9E36B6F
:1019B00003221E785978134406F00309A4F8402046
:1019C0006364069BA4F84810002B00F0228119B133
:1019D000E06E08F04BFF01466A7A238D0132A16662
:1019E00043F40073D2B2238582EA960818F0010806
:1019F00046D12B7A23B3032B6A720AD8012B1FD04E
:101A00000DA9D4F8800008F0DAFE90B940F2D47144
:101A1000CAE7053B012B02D940F2B371C4E700F0DD
:101A2000DFFF10B940F2DE71BEE741460820FFF744
:101A300047FED5E91C32013342F10002C5E91C32F0
:101A400000216B7929721BB110206971FFF738FEF4
:101A5000238D43F40063238500230793C6F3C00856
:101A60002B7DCBB1B4F84830B3B105F037FB032878
:101A7000FBD0022806D1FFF731FE11B0BDE8F08F90
:101A8000069BEAE740B9AB7A03F00103984503D11E
:101A9000012384F83130EEE7AA7A02F00103984579
:101AA0006BD04FF0000AA36E002B40F0C480B4F856
:101AB0004830B3FA83F35B0903EA161384F87930EC
:101AC000089B002B40F0BE80628C94F88630110792
:101AD00004D594F87020002A40F0B480012B00F265
:101AE000B180636F01209847002800F0AB8094F824
:101AF0003060002E40F0A680EB7C83B1012303967A
:101B000005F180010420CDE90463FB23029305F174
:101B10009003CDE90063D5E91C2305F081F995F820
:101B20001421962100200BF095FBD4F82CB094F8EA
:101B300050309BF814209BF8141103EB8203FF2B09
:101B400003D19BF815318B4202D0FF2004F026FD13
:101B50000023D4F82C808DF83130ADF8323098F86D
:101B60000830062B00F27E81DFE813F0C3005A0133
:101B70005D015D017C016F016F01B4F84830EBB18C
:101B800009F1FF31012919D8218D41F480512185B6
:101B900094F88410994206D294F8303043F0100340
:101BA00084F830307DE7A16E00293FF47AAF94F8D5
:101BB000851019B12020FFF78BFD72E70132B9F1D2
:101BC000030FAA721BD009F1FF32012A0CD8002B97
:101BD0003FF467AFDDF818A0D5E91E32013342F1BA
:101BE0000002C5E91E325EE7002B3FF45AAFD5E98B
:101BF0001E32013342F10002C5E91E3251E7238D46
:101C000001200F4943F4805328712385FFF758FDC5
:101C1000EDE72B7D0BB105F07BFA94F886304FF0A1
:101C2000000A0133CDF81CA084F88630238D43F4DC
:101C30008063238537E701233EE700BFD4210020DE
:101C40001822002004F048FFBAF1000F4CD1012304
:101C50000893934E338D5A0606D44020FFF738FD83
:101C6000338D43F040033385079B63B1B4F80720FD
:101C7000B4F805301343EA8813431EBFB4F80930A3
:101C80000133A4F80930069B002B00F00381B6F85D
:101C900005300133A6F80530002386F886308148E8
:101CA00001F0E2FF0D9830B108F051FE00220272FF
:101CB000099901F0E7FB0E9B33B100221A720C2246
:101CC00009990E9801F0ACFB089B002B7FF4D3AE72
:101CD000338D1B063FF5D1AE8020FFF7F9FC338D25
:101CE00043F080033385C8E649460EA8FFF7B6FDEA
:101CF000ADE794F887300DF132010FA8A8F8043150
:101D0000ADF8323000F05EFE38B10F9828B10523EF
:101D100088F80830BDF8323015E0E36A93F85130A6
:101D2000002B77D10DF131020DF13201D4F8800092
:101D300008F023FD00286DD0BDF83230002B59D1BA
:101D4000012288F80820A065A4F8643003B1C31C00
:101D5000236698F809200A9298F80A2098F80880D3
:101D60000B92B8F1020F09D0A8F10508B8F1010FE4
:101D70007BD81B784FF00308022B0DD0D4F88000DD
:101D800008F053FD002873D1B8F1030F04D000F020
:101D900033FE80F00106F6B206F00103404F87F8EB
:101DA00078309BF81330002B64D0B7F86430002BE8
:101DB00060D033464046DDE90A12FFF713FD786D27
:101DC00004F0F2FD0022D7E9151004F035FF18B930
:101DD000D7E9150105F088F8012387F8883087F8DE
:101DE0003830BAF1000F3FF434AF49460EA8FFF780
:101DF00035FD2EE79DF831201AB903230280827049
:101E000086E7027802F00302012A08BF032788F858
:101E1000087098E70023ADF83230012388F80830C5
:101E2000214800238FE7B8F804310DF131020DF19C
:101E30003201D4F88000ADF8323008F09EFC002862
:101E40007FF468AF40F2C351AEE50DF132010FA847
:101E500000F0B8FD08B10F9810B940F2D251A3E5D7
:101E6000062355E740F2DC519EE54FF0010885E777
:101E7000012691E7DDE90A1233464046FFF7B2FC3E
:101E8000B86D04F091FD05F00BF90021B86D0BF071
:101E9000EDF9A1E7B6F807300133A6F80730FEE602
:101EA000D4210020002200204E220020064B10B535
:101EB00093F8382002F0FF0422B91C7601F05CFF91
:101EC000204610BD0C24FBE7D4210020094B0A4A10
:101ED00010B51A60FFF7EAFF20B14FF4B171272067
:101EE000FEF750FF054C00F0E9FCE06400F0EAFC6E
:101EF000606510BDA42A002094200100D421002098
:101F0000F8B5584C054694F8386006F0FF0016B94D
:101F100009B102B123B94FF420712720FEF732FF37
:101F200063639DF81830616284F88530626784F8D5
:101F3000300084F8860084F8310084F888006084DA
:101F4000208584F8780084F8790084F87000A06512
:101F50002066A4F86400E0636064A4F84800E562C9
:101F600004F048FB05F09CF895F91C0104F09CFB7B
:101F7000D5F8D060D5F8C80004F09CFB304604F0DA
:101F800005FD95F8240004F09FFB0AF055FB95F839
:101F9000152100F17101012004F014FC324B186886
:101FA00004F0FAFCD5F8BC30C4F88030D5F8C03065
:101FB000E366AB7B233B072B52D9EB7B233B072B01
:101FC0004ED9B5F8E630B5F8EC0095F81411984202
:101FD00028BF184609F010FD95F8E830834228BF65
:101FE000034698B295F8E430984200D3C3B295F80E
:101FF000151105F1DC0084F887300AF005F82F7D13
:1020000095F81511B5F8F06009F0F6FC0FB9043039
:1020100080B2864228BF0646F3B284F8843084F842
:1020200050302B7D13B12846FFF7FEFB0120FFF750
:102030008FFBE36AD3F8C00104F0D2FC00232360D5
:102040006360A360EB886380B5F8AA30238095F8BD
:1020500024302371D5F818310BB101221A60F8BD74
:102060001B23C4E7D4210020A42A0020014B93F8AD
:1020700088007047D4210020024B93F82900C0F358
:10208000C0007047D4210020014B93F886007047B0
:10209000D4210020B917010081190100C5180100E1
:1020A0003D170100304BF0B55A8985B0B0F860702B
:1020B0000C46B0F85E6097429D8928BF174696424D
:1020C00028BF16461B2E2ED0B5F5A47F2DD040F686
:1020D000480301A99D4228BF1D4608F000FEBDF837
:1020E0000A30BB4228BF3B46E380BDF80C30AB4210
:1020F00028BF2B462381BDF80630B34228BF3346A4
:102100006380BDF80830AB4228BF2B46A380FF2375
:102110002370E3881B3B9BB2E02B08D940F20951A6
:102120003920FEF72FFE1B2FCED105B0F0BD6388FE
:102130001B3B9BB2E02B02D940F20B51F0E7238905
:10214000A3F5A4739BB2B3F5E06F02D940F20D5131
:10215000E6E7A388A3F5A4739BB2B3F5E06FE4D9D7
:1021600040F20F51DCE700BF6022002010B50121D2
:102170000020FFF72FF9044670B90121FFF7EEF8B0
:10218000044620B940F225313920FEF7FBFD034B10
:1021900093F918100AF050FD204610BD602200206F
:1021A000014BD888704700BF60220020044BD87CC8
:1021B000C0F3400080F0010000F00100704700BF54
:1021C0006022002008B509F08EFB00F0B5FD00F09C
:1021D00099FB09F07AFE01F0B5FD03F0DDFE002267
:1021E000074B4FF01B1107481A60074BC3E9010169
:1021F0004FF4A4711A801A82D960DA7408BD00BF46
:10220000A82A002003021B0060220020034B41F695
:102210004C525A611B229A74FFF7D4BF60220020EF
:10222000F7B5274D00F1A80704466B69C0F8DC300C
:10223000244BC0F8C43038460AF092FB064600F042
:1022400051FB8306A97C53BF1B23EB882A891A46BE
:10225000A4F806311C4BA4F808211B6884F8E4108C
:10226000A4F8E66023B194F91C11B4F8AA009847C9
:102270001649384609F022F90123EA8804F1BC0026
:102280006979A4F8DA3003322B89019192B2297965
:10229000033300919BB204F1C001FFF70DF9D4F8AC
:1022A000BC3023B940F2E2413920FEF76BFDD4F88F
:1022B000C03013B940F2E341F6E703B0F0BD00BF10
:1022C0006022002000093D00AC2A00206E22002080
:1022D000024B1B6803B118470C207047A82A002046
:1022E000034BDA8802801B7983700020704700BF9F
:1022F0006022002037B5837805461A2B08D8042BB6
:1023000004D9144A22FA03F3DB0705D412241AE095
:10231000292B01D03B2BF9D12888B0F5706FF5D26D
:1023200001A909F08DFB88B9019B93F8202102F0E7
:10233000FF046AB9AA7883F82121FF2283F82021BB
:1023400001A808F09FFD204603B030BD0224FAE743
:102350000C24F8E7200038040188A1F11B039BB28C
:10236000E02B0CD8428844F24810A2F5A4739BB22B
:10237000834204D8034B002059819A817047122070
:10238000704700BF6022002038B50278447802F020
:10239000010302F0020254EA030101D1112038BD09
:1023A000BAB98578002DF9D0002B18BF002400E0C1
:1023B0001D46204608F086FC0028EFD0284608F08D
:1023C00081FC0028EAD0054B00209C73DD73188245
:1023D000E5E7002BECD000242546EAE76022002048
:1023E00013B5008801A909F044FB044620B90198FF
:1023F00090F832311BB13A24204602B010BD90F85B
:102400005C3003F0FF04002BF5D190F853309B07AC
:1024100006D1FF2380F8323101A808F033FDEBE745
:102420000249543009F079FDE6E700BF8FC501008D
:10243000F7B5077805460C46EF2F0FD890F9012025
:102440004378002A0ADB8278900707D113F0100046
:102450001DD1990603F0030202D51AB1122442E0FD
:10246000032AFBD01E07F9D42979EA78EE7942EAEB
:102470000122697942EA0142A97941EA06212E7ACC
:1024800041EA06418A42E9D81F2A0FD8E6E713F04D
:10249000600FE3D103F00702052A05D003F00F0116
:1024A0000D22CA40D107D9D51A07DDD56A7A013A7B
:1024B000062AD3D8AA7A032AD0D813F0040102D16D
:1024C000023A012A03D8EA7A012AC7D811B9AA7CAC
:1024D000032AC3D82A7D48B1012ABFD12A7E012A06
:1024E000BCD830B91124204603B0F0BD022AF5D182
:1024F000B4E7DB0712D46B782A7D03F01803082BAE
:1025000011D1022AEED101213846FEF763FF0646BB
:1025100078B10AF045FBB8B10C24E4E700F0A2F969
:102520000028E8D1DEE7022AEDD02B7F002BEAD08D
:10253000D8E701213846FEF711FF064640B3154B98
:1025400093F918100AF078FB30460AF065FC29462A
:102550002070E87430460AF0B5FBEB7E0446002B91
:10256000C1D00028BFD10246B16A684608F09BFA84
:102570002246B06A012108F0E1FAB16A68460422F5
:1025800008F091FA22462146B06A08F0D7FAAAE785
:102590000724A8E76022002030B502798BB00346FB
:1025A000042A4FD84088B0F5804F4BD826490024E4
:1025B0008D5C1144ADF800404A798DF8084042F036
:1025C00010028DF8244042EA45028D7AC97B42EA26
:1025D000850242EAC102694602F01F028DF800201E
:1025E000BDF80020ADF809201A888DF80E00000A09
:1025F0008DF80B20120A8DF80D408DF80C208DF807
:102600000F008DF810405A7BD3F807008DF8112089
:102610005A79059002A88DF812209A798DF8132026
:10262000B3F80B209B7BADF818208DF81A307F2370
:102630008DF81B304FF00113CDE90734FFF7F8FE9A
:102640000BB030BD1220FBE7C00D050073B5064688
:10265000FFF78CFD04460AF0EAFB33780546012BB0
:102660005FD120460AF01BFB00287AD020460AF0F2
:10267000DEFB18B115B9122002B070BD20460AF079
:102680008FFA08B10C20F7E720460AF0C6FA064692
:102690000028F7D1204602F027FC0028EBD0ED01FE
:1026A00042F2107331462046ADB25D430AF0ABFBF7
:1026B00020460AF0B4FB014658B92A46204601F0EC
:1026C0006BFE08B90020D7E741F698213920FEF7C4
:1026D00059FB31460DF10600FEF708FE064608B923
:1026E0000D20C9E7BDF8061009F0D2F931462046A1
:1026F0000AF0A1FB3046FFF793FD2A4631462046FB
:1027000001F04AFE024610B141F6B421DEE7164B55
:10271000DB69002BD6D006F5917106F1A800984729
:10272000D0E7002BA7D120460AF0B9FAC8B120465D
:102730000AF036FA0028C5D020460AF0E1F805462E
:1027400020460AF0E0F8014600289BD1002DB9D0C0
:10275000B5F8AA00FEF754FE0028B3D041F6D62102
:10276000B4E7422088E700BF6022002002780346D9
:1027700072B1427862B142881A2A09D982881A2A2B
:1027800006D90068034A506000209B881381704777
:10279000122070476022002002680020014B5A611D
:1027A000704700BF602200200378A3F10A02112ABB
:1027B0009BBF024A002012209374704760220020C1
:1027C00008B5052000F082F803F0A6FB014B024A91
:1027D000DA6108BD60220020A520010008B50122B1
:1027E000084B1A7002F070FB0AF0CEFC09F079F881
:1027F000FFF76CFB002008F023F9BDE8084000F06B
:1028000049BD00BF8022002010B5064C0649201D9E
:1028100008F003FE04F108000449BDE8104008F088
:10282000FCBD00BF80220020681100207011002034
:1028300010B5084C0849201D08F0EFFD04F1080010
:10284000064908F0EAFD04F10C000549BDE8104016
:1028500008F0E3BD802200207811002080110020C4
:1028600088110020014B1878704700BF802200209B
:1028700010B5064C00F0EAFC606808F0C6FDFFF7F2
:10288000C5FC00F07DFE0123237410BD80220020D2
:10289000014B187C704700BF8022002010B5064C09
:1028A000A06808F0B2FDE06808F0AFFDFFF78AFC11
:1028B0000023237410BD00BF802200200048704711
:1028C000912200200048704793230020C208044949
:1028D00000F0070001238340885C03438B5470475A
:1028E00030110020014BD3E9000170473011002066
:1028F000034B1868C0F30020400040F0010070470F
:102900003011002008B505F085F90023074A32F898
:102910002310814205D302EB83029378044A13709B
:1029200008BD01330C2BF2D10023F7E7D40D0500CD
:1029300095240020006808B5B0F8AA3080F864112A
:10294000A0F8653190F81431012B06D0022B04D089
:102950004FF43F710620FEF715FA80F8673190F8C2
:102960001531012B01D0022BF2D180F8683100F231
:102970005B100249BDE8084009F0CFBAA7B40100D6
:10298000024B002283F822209A847047962400206C
:10299000044B93F82220012A1ABF03600120002073
:1029A000704700BF96240020054B024693F8221082
:1029B00001291BBF01209A84002083F82200704760
:1029C00096240020054B024693F8220020B11360A4
:1029D00009B19B8C0B800120704700BF962400201A
:1029E000044B002293F822009A8410B1012083F84E
:1029F0002220704796240020034B93F82200B0FA5F
:102A000080F04009704700BF9624002050B90A4A60
:102A10000120134603F8010B0868C2F801008A88F8
:102A20009A807047012805D1034B0A68D8719A60D3
:102A30008A889A81704700BFBC24002050B90B4B94
:102A4000187888B1D3F80120B3F805300A60012066
:102A50008B807047012806D1044BD87920B19A6841
:102A60009B890A60F3E70020704700BFBC24002068
:102A700010B9044B18787047012806BF014BD8796C
:102A800000207047BC240020F7B58A8800238DF809
:102A90000600ADF8042008680B4A8DF8073001469F
:102AA000147802F5A872019DD8B2844201D808209A
:102AB00007E052F8087F01335668AE4208BF8F42E4
:102AC000F2D103B0F0BD00BFD0240020084B014676
:102AD000002230B55C7803F20113D0B2844201D8F1
:102AE000082004E013F8015F01328D42F5D130BDBA
:102AF000D0240020F8B52D4C63782218013B92F8C1
:102B00000251DBB28342637030D01A010101961C7E
:102B10008F1C2644274406F1100C56F804EB66453A
:102B200047F804EBF9D1823282312244214402F188
:102B3000100652F8047BB24241F8047BF9D1E11847
:102B4000221891F8026182F80261062673437043ED
:102B500003F5857300F58570E618E35827182350B0
:102B6000B388BB8091F83A3182F83A312846FFF7B2
:102B7000ADFF082818D12378013BDBB29D422370BA
:102B800012D02B3305F12B0204EBC30304EBC2027A
:102B900093E8030082E803002078FFF797FF0828F6
:102BA0001CBF241884F80251F8BD00BFD0240020B7
:102BB000F0B5254D89B095F8984105F29911684610
:102BC000224606F049FE2146684608F0ABFE044660
:102BD000B8B300EB400102A8C9B2FEF753FD631E73
:102BE00095F8A1610124DBB295F8981105E0721CFB
:102BF000B2FBF1F001FB1022D6B206F120020DEB80
:102C0000020010F8202C002AF1D103EB430100F858
:102C1000204C06EB460220312A44694411F8187C06
:102C200082F8A27111F8177C11F8161C82F8A371B2
:102C300082F8A411013BAA19DBB282F89941FF2B5B
:102C4000D2D109B0F0BD00BFD024002070B5064637
:102C500088B00C46002A4ED0294A92F8A131D018EB
:102C600090F8991119B9FF212820FEF78BF803EB92
:102C700043010133114491F8A251E57091F8A35139
:102C800091F8A41125716171002180F8991192F8D1
:102C90009811B3FBF1F001FB103382F8A13192F8E7
:102CA000C23123B9174902F5DD7009F033F96579AE
:102CB0000D220021684605F03F0545F0400565718D
:102CC0000AF068FFE37804AA69468DF80F303046B1
:102CD00023798DF80D508DF80E3004230AF0C4FED0
:102CE0009DF81F3023709DF81E3063709DF81D30D5
:102CF000A37008B070BD03216018FEF7C3FCD6E7CF
:102D0000D0240020B12B0100044B5A78824286BFA8
:102D10001B1893F84A010020704700BFD024002000
:102D2000044B5A78824286BF1B1893F84201002058
:102D3000704700BFD0240020064B00224FF4617181
:102D40001A8083F8C32183F8C421A3F8C61183F83D
:102D5000C2217047D02400202DE9F04782468946E1
:102D600017469846FFF790FE08280546064603D00A
:102D7000FFF7ACFE082860D1324C6378072B5ED891
:102D8000082D15D12678731C072E237003D96C21CA
:102D90002820FDF7F7FF06F12B02D9F8000004EB1D
:102DA000C20344F83200B9F8042083F806A09A80E0
:102DB000657807F110026B1C290163704B1C2344DA
:102DC00012F8010DBA4203F8010FF9D1813108F16F
:102DD0001003214413F8012D984501F8012FF9D172
:102DE00025441021404608F0CDFD102185F8420110
:102DF000384608F0C7FD85F802616678002385F83B
:102E00004A013146104885F83A3108F08BFD012817
:102E1000054607D831460D4808F084FD002818BF44
:102E20000135EDB284F898510025284684F8A15167
:102E3000FFF7BEFE2846BDE8F0871220FBE707201B
:102E4000F9E700BFD0240020122600201A26002017
:102E5000064B10B55878013840B2002800DA10BD92
:102E6000C4B22046FFF746FE601EF5E7D0240020DE
:102E7000014B83F8C3017047D0240020014B93F825
:102E8000C3017047D0240020431E4AF2B7129BB200
:102E900093429DBF024BA3F8C6010120002070475A
:102EA000D0240020014BB3F8C6017047D024002085
:102EB0000A4B30B55C7884420ED9184490F8020170
:102EC0002B3003EBC004A5790D7053F8300010606F
:102ED0000120A388938030BD0020FCE7D02400208F
:102EE0000246074810B590F8C34124B1417821B19A
:102EF000023003F073F8204610BD0C46FBE700BF1C
:102F0000D02400202DE9F74F2F4C9A468046894661
:102F10006378834256D9231893F8425185F001050E
:102F2000F9B193F84A31E3B945F002070135BAF136
:102F3000000F18D1FA070AD5062104EB08105246F3
:102F400001FB0841823001F58571FFF77FFEBB0769
:102F500034D504EB0810524649460230FFF776FE9E
:102F60002CE02F46E3E794F8A1614FF0010B002D10
:102F7000E0D0A31993F89911019399B90092DAB1AD
:102F800000F0CEFA019B06EB4601009A4FEA102CA6
:102F900083F899B1214481F8A201000C81F8A3C102
:102FA00081F8A401013694F89831013DB6FBF3F1A4
:102FB00003FB1166F6B2DAE747F00407384603B0C0
:102FC000BDE8F08F0027F9E7D0240020074B5A789E
:102FD000824209D91A1892F842212AB9062202FB24
:102FE000003000F58570704700207047D024002025
:102FF000064B5A78824281BF1B1893F83A01B0FA07
:1030000080F0400998BF0020704700BFD024002006
:10301000F8B50E46074606211546304608F0B2FCC4
:10302000044670B10C4B0022587803F23913D1B228
:10303000884202D801242046F8BD013203F8015F1E
:10304000F5E73146384608F089FC0828F3D0024BF2
:10305000034483F83A51EDE7D0240020034B80F875
:1030600074101B680BB1408818477047B02A0020C5
:103070000B2808B504D940F229112920FDF782FE5A
:10308000014B33F8100008BD040E0500036830B58D
:103090000024D3F8C40042F21075A3F84040B3F8FE
:1030A00044404443B4FBF1F4A3F844404C1E05FBF8
:1030B0000242B2FBF1F2A3F84220094AB2FBF1F25C
:1030C0000132A3F848209A8F05FB02445A6B504303
:1030D000B4FBF1F4B0FBF1F09C63586330BD00BF6A
:1030E000005A62020346084671B13F2B0BD8074ACB
:1030F000D35C03F07F02914205D08CBF01200020F9
:1031000000EAD31070470120704700BF1C0E050075
:10311000FF230B7002234B7083238B70014B1B78B2
:10312000CB7070479C2600202DE9F84FD0F8048022
:103130000C46D8F81860304607F0F7FB054620B972
:103140004FF4AA711020FDF71DFE0146304607F02E
:10315000FAFBB5F800B082461FFA8BF717B94FF4A7
:10316000AC71EFE7224B00F103091B68D3B998F863
:10317000023098F803202370637802F00F02A4F85D
:1031800002B023F00F03134323F0C00363709AF8D7
:10319000003003F00303012B0FD0022B0DD04FF4AE
:1031A000BB71CFE73A464946B8F802009847054652
:1031B0000028DCD12846BDE8F88F6278304663F3FA
:1031C0000512627007F0C5FB054610B94FF4C071D7
:1031D000B8E7FB2F02D940F28F11B3E73A464946D0
:1031E000201D06F039FB304607F00EFBE2E700BF7A
:1031F000B42A002038B5134C10220021201D0AF0FB
:10320000C9FC0125257404F108031022002104F1F2
:103210001400C4E901330AF0BDFC84F8205004F125
:103220001803094AC4E9053300236362A36284F8E2
:103230002C30C4F82D30C4F8313084F835301360A8
:10324000A36338BD9C260020B42A002010B5084C8A
:103250002378FF2B04D040F299111020FDF792FD46
:1032600006F066FA2070BDE81040FFF7C3BF00BF4C
:103270003D11002010B5034C207806F073FAFF23AF
:10328000237010BD3D110020014B187806F07ABA6A
:103290003D110020014B024A1A607047B82A0020F5
:1032A000293101002DE9F341DFF87081054608F16D
:1032B0001407D8F80830D8F81840227A012A22D109
:1032C000D8F8382052B1137A1BB9BF211020FDF76E
:1032D00059FDD8F83840C4B9002083E01A7A012A91
:1032E000FAD01C464B4AEFF3108172B65068006862
:1032F000506001B962B6A34208BFC8F83840237ACB
:103300001BB9EE21E2E73A46EDE7267AF6B205234D
:103310002372731E0B2B6ED8DFE803F06A0622358A
:10332000676D3E6D6D6D6D5B636813B94FF403712E
:10333000CCE72046294698470420EFF3108272B666
:10334000237A052BD9B24FF0000359D12372D8F854
:103350003810A14201D1C8F83830B2BB62B634E0AF
:10336000636813B940F21521B0E729462046984713
:103370000346ADF80400C0B2C3F30723012B2FD0DE
:10338000022BDAD11AE0636813B940F21D219DE7E0
:10339000204698470020D0E763680BB9FE2195E7E7
:1033A00086222A7001225988AA706A7100225869FF
:1033B000A5F80310AA7107F027FA0420D8F83830CE
:1033C000A34202D10023C8F8383000283FF471AF7F
:1033D00008E0114B294620461B689847034668B908
:1033E000267298B102B0BDE8F0814FF415716DE717
:1033F00040F257216AE740F25A2167E70220DDE7F1
:1034000011B940F27B2161E71846A6E7002B7FF453
:1034100050AF61E7A0260020B82A00209C2600209B
:10342000134610B5027A22B140F202311020FDF7A6
:10343000A9FC0A4601460248BDE8104008F047BD15
:10344000A0260020044890F82C301BB903492430F2
:1034500008F05ABD704700BF9C260020BFBE010087
:103460000346064890F83C203AB190F8352022B93E
:10347000034900F82D3B08F047BD70479C2600200B
:10348000113101000A4610B5037A23B140F20A3126
:103490001020FDF777FC014607230248BDE81040E5
:1034A00008F015BDB02600201346027A0AB1037257
:1034B00070470A460146014808F009BDA0260020D1
:1034C0001B234FF01B128384038482618382C260BA
:1034D000038539B94FF4A473034AC3844384C2619A
:1034E000C3820261704700BF48014801014908F0EA
:1034F00014BD00BF21BF01000B8BA2F809001046CC
:10350000A2F80B304B8BA2F80D308B8BA2F80F304A
:10351000CB8B0249A2F8113008F0F9BC71BF010051
:10352000094AD2E90003434083EAB01181EA43210A
:103530004FEAF34311605360044B58434FEAF06085
:1035400000EB8000704700BFDC260020BB79379E6F
:10355000094AD2E90003434083EAB01181EA4321DA
:103560004FEAF34311605360044B58434FEAF06055
:1035700000EB8000704700BF40110020BB79379EF0
:1035800010B50A4C08210948FEF77CF8D4E900324E
:103590001343F7D0064CFFF7DBFF2060FFF7D8FF9F
:1035A000236860601843F6D010BD00BF40110020B2
:1035B000DC260020174B184A9A60184A5A60184AAD
:1035C0001A60184A9A62184ADA62184ADA60184A87
:1035D0009A61184A1A63184A1A62184ADA64184A31
:1035E0009A64184A5A62184B184A9A60184A5A62E2
:1035F000184ADA62184A1A61184A5A61184A9A61D6
:10360000184A1A63184A9A64184ADA64184A9A637C
:10361000704700BFBC2A0020ABC20100D1C201002C
:1036200037C30100F3C301003DC401007539010037
:103630004FC40100DD3B0100713A010013C50100D8
:103640002BC50100BD3A0100BC2B0020C1C2010006
:10365000E7C401006DC401001DC401008DC4010058
:10366000013A0100B1C5010059C501004BC5010077
:10367000D1C40100044B054A5A65054B054A1A6539
:10368000054A5A65704700BFBC2A00205FC601008A
:10369000BC2B002049C60100CBC60100054B064AE1
:1036A0009A65064A1A66064B064A9A65064ADA651C
:1036B000704700BFBC2A002093B6010047B7010045
:1036C000BC2B0020E3B50100C7B8010037B50446A4
:1036D00001A80D46FFF75CF920B94FF4AA6151200B
:1036E000FDF750FB0021222201980AF053FA019BBA
:1036F000194601F8035F023D232D00F28980DFE8BF
:1037000005F02587128A8A25872B878A313D4187D4
:1037100087458A8A4E4E656587878787878787872B
:103720008787876C778021680D20D1F8CE215A6079
:10373000D1F8D2219A602268D2F89420DA60FFF79B
:1037400033F9002869D140F25751C8E7226892F84E
:10375000A02002201A71F2E7204600F005FA0028A6
:10376000EDD13DE0112206201A7159225A71002232
:103770009A713922DA7130221A72E0E7226892F8DF
:103780009A20E6E7084600F0DDF9E8E7226892F8BB
:103790009B10197192F89A2003205A71CFE7226882
:1037A0000920B2F800111971090A5971B2F8A21072
:1037B0009971090AD971B2F8FC101972090A597283
:1037C000B2F8A0209A72120ADA72B8E7226892F868
:1037D0002E11197192F82F21DEE7114B1B6813B9D6
:1037E00040F249517BE72320224698470420A6E770
:1037F0000B4B1B68002BF3D0224624209847052052
:103800009DE7074B1B68002BEAD022462520F5E7F1
:1038100040F2445163E7012091E703B030BD00BF9F
:10382000BC2C00203F289ABF024B53F820000020F8
:10383000704700BFBC2A00203F289ABF024B53F8B4
:1038400020000020704700BFBC2B0020F7B50568A2
:1038500004464FF6FF77D5F8BC600DF102010DF17B
:1038600001023046ADF8027006F087FF01A930462C
:1038700006F0A5FF48B1019807F069F82168A83162
:1038800000220272FFF7FEFDE7E7044905F1280078
:1038900003B0BDE8F04008F03ABB00BF3FC20100F2
:1038A000F0B5044685B00D46FF2600F8A56C10F86B
:1038B000A63CF3B1174F3B781BB162211F20FDF7E7
:1038C00061FA0C21381DFDF7DDFE3E70002304F87F
:1038D000A53C8A232A4602F8033BD4F80930C5F8F0
:1038E0000330D4F80D305360D4F81130936005B034
:1038F000F0BD01A80C21FDF7C5FEA4F5F473039AF1
:103900001A6001AB03CB44F8AE0C44F8AA1C04F8CF
:10391000A66CDBE7E426002010B5054C23782BB914
:103920000C21201DFDF7AEFEFF23237010BD00BF4C
:10393000E4260020024690F8D631BBB990F8D73182
:1039400003F0FF010BB100207047094B18780028E5
:10395000F9D01970D9680433C2F8941003CBC2F8B7
:10396000CE01C2F8D211FF2382F8D6310120704770
:10397000E4260020026838B5D37B04460D463BB1EF
:10398000122B05D0103B0F2B8CBF0120082038BD17
:1039900092F8523013B9204608F017FCD5F80B30D6
:1039A0002268C2F8C631D5F80F30C2F8CA31236890
:1039B000D5F81320C3F89020B3F8AA20A3F88522E5
:1039C000D5F80120C3F88722D5F80520C3F88B224B
:1039D0002368B5F809200025A3F88F22236883F80F
:1039E0009E5183F8D6512068044900F51F7008F0F5
:1039F0008BFA236815222846DA73C8E7A13801003C
:103A0000036810B5DA7B04461F2A04D040F29D21DA
:103A10001F20FDF7B7F9002193F85220B3F8AA0050
:103A200083F8511082B1C3F8A91183F85210A3F89A
:103A3000AD11A3F8AA0103F5D0700B4908F064FAA0
:103A400023680022DA7310BD0121A3F8990183F8DD
:103A5000982103F28F1083F89B1183F89F2103496B
:103A6000A3F89C21EAE700BFDBC30100C3C3010048
:103A700038B505682B6813F0010419D1D1F801207D
:103A80000C4BD1F8051013400B4AC5F86230C3F354
:103A900007630A4043F00803C5F8662085F86530DF
:103AA00008F093FB2B68204643F001032B6038BDE0
:103AB0000120FCE72FC904F76FDB0080006810B518
:103AC000837B042B28D1D1F801304A1CD1F8054062
:103AD000C0F86230C3F30763C0F8664043F00803E0
:103AE00080F86530002380F84A30837390F8713194
:103AF00003F0FF040BB1002010BDB0F8AA3000F2B3
:103B0000691044724381D1F801300449C36053689D
:103B1000036108F0F9F9EEE70120EDE7A7C4010021
:103B2000006890F871314BB9B0F8AA3000F2691012
:103B3000034943811A23437208F0E6B9704700BF76
:103B4000A7C4010010B50446FEF7CCFE044A054B9D
:103B5000024009200B40C4F80120C4F8053010BD14
:103B60002FC904F76FDB008037B50C460568FEF7F8
:103B7000B9FE0A4B0A4A03400A4095F862100093C6
:103B80000B4001928DF800306B4603CBC4F8010066
:103B90000920C4F8051003B030BD00BF2FC904F7D9
:103BA0006FDB008038B5DB04154604D5037D13B107
:103BB0000023436338BD446B0134446308F0D7FCF1
:103BC000836B9C42F6D30023034943632846BDE838
:103BD000384008F0A2B900BF07C5010038B5046835
:103BE0000546A37B012B02D02368980738D494F8AC
:103BF00053309A0713D44A78D80784F85D204A884E
:103C0000A4F85E208A88A4F8602043F0020284F8B9
:103C100053200FD5134904F1540008F07EF994F8AD
:103C20005330D90711D423689A0708D5582140206A
:103C3000FDF7A8F894F83231002BEBD1EFE743F011
:103C400002032846236008F0C0FAA37B012B4FF043
:103C5000000301D0002038BDA37384F84A30F9E78F
:103C60000120F8E78FC5010070B50568044602F031
:103C700071F9054B0146E8721B681BB12046BDE88F
:103C80007040184770BD00BFC42C0020024B1B6859
:103C900003B11847704700BFC02C0020F0B51F4D7E
:103CA00000242B7814709BB1013B6D68DBB21E1BA6
:103CB000012E0FDC05EBC40655F8347076688E4291
:103CC00008BF874227D0B84271EB060612D21470A3
:103CD0000020F0BD1E197710C6F3470655F837C00F
:103CE00005EBC70E8445DEF804708F412CBF3346C8
:103CF0003446DCE705EBC30455F8335064688C4266
:103D000008BF854206D0A84271EB040428BF0133E6
:103D10001370DDE71C4601201470DAE70427002049
:103D200010F0070208B503D063214820FDF72AF8F8
:103D300018B1034B197258601A70C80008BD00BF53
:103D400004270020014B00221A707047042700202E
:103D5000FF23084A0B700D234B7082238B7013686E
:103D6000C1F803305368C1F807309368C1F80B30CD
:103D7000704700BF1A27002016220021014809F0D1
:103D800009BF00BF1A2700200B4B5A7D92B14A068B
:103D900010D5B0F8AA2009491A80D0F850225A60EC
:103DA000D0F854229A60C28803F10C005A80022293
:103DB000FFF77ABB704700BF1A270020513D010072
:103DC000094B53F8203003F5224370B5B133164642
:103DD0004FF47A720C46B3FBF2F5344402F01CFF48
:103DE0002C44204470BD00BF240F05002DE9F04F86
:103DF0008BB0044698460F46039290F8159107F051
:103E000050FB824694F81F01FFF732F9824408F014
:103E100013FCE37B00F148061FFA8AFA0293039B26
:103E2000002B4AD1637B032B47D1029B0C2B32D151
:103E3000B4F86C32BB422ED1D4F8F0312046B4F83D
:103E4000C421C4F8E031D4F8C430C4F8E431B4F883
:103E500062321344C4F8E83102F028F8D4F874222E
:103E600041F64B5194F81D31C4F8C4208A428CBFEE
:103E7000002303F00103D4F87012D4F87822C4F8B8
:103E8000D41084F81E310223B4F86E12C4F8CC208A
:103E9000A4F8D8106373E37BA17B282B01D02829D9
:103EA0000BD1B4F86C32FB1A1A0406D4A1F1280322
:103EB00020465942594101F0BBFBB4F8605204F569
:103EC0000C73B4F806E07D1B0493A7EB0E0E94F878
:103ED00015B12DB20FFA8EFE002DBBBFD4E992238F
:103EE00075464246C4E99623637BB8BF0122032B83
:103EF00000F26281DFE813F004000401580027019A
:103F00000121002007F087FD8146D4F8D4005146F6
:103F1000484403F033FE5146C4F8EC01D4F8C40021
:103F200003F02CFE07A9C4F8F00108A802F0E4FD94
:103F3000079B0093DDE90823D4E9960109F016FAFE
:103F4000834604F1A80008F0E9FBD4F8D420D4F8A3
:103F5000643294F81501D51802F066FED4F8EC111D
:103F600000F52240203D4FF47A73B13032466D1A8D
:103F70003031AD1BB0FBF3F04D44B4F8D830A5EBB5
:103F80000B0503EB41012D1A94F81501FFF718FFFB
:103F9000D4F86432C4F8F401EB1AB92B5DD840F2BE
:103FA000C7413020FCF7EEFED4F8D4305146D4F8A7
:103FB000E401184403F0E2FD5146C4F8EC01D4F8E2
:103FC000C40003F0DBFDC4F8F00104F1A80008F020
:103FD000A5FBD4F8D430D4F8E4511D44B4F8C4316E
:103FE000002B40F08980B8F1000F00F0858094F834
:103FF000150102F019FED4F8EC11D4F8503200F596
:1040000022406D1A94F81521B130203D1D44854B96
:1040100053F822204FF47A7302F2E732D4E9929AED
:10402000B2FBF3F2A5EB0905B0FBF3F01544AD1BB1
:104030002D1AD4F8E821D4F8E03194F8150102FBE8
:104040000313B4F8D8103246303301EB4301FFF7C5
:10405000B7FE0123C4F8F4016373D4F8C430D4F874
:10406000F021723B9B1A9E1B0023864284F830325B
:10407000D4E9963228BF064604F1DC005B19C4F887
:10408000C06142F10002C4E9903207F0BBFF042393
:104090003044A4F8607284F83932C4F83402D4E9A8
:1040A0009023C4E99623B4F8B031DB1B1BB2002B7C
:1040B000D4BF00220122520084F83822029A0C2A2E
:1040C0007DD0B8F1000F7DD1637B002B00F096808E
:1040D000D4F8C41004F50C70D4F8F031C91A07F004
:1040E0005DFC80B2002800F08980149B03B1188029
:1040F00001200BB0BDE8F08FD4F8EC116D1A98E7F1
:10410000D4F8F001D4F8C430B4F8C4C11B1AD4F800
:10411000E811F444D4F8E0215D43D4F8EC31ACEB81
:10412000010C30330CF1FF3C02FB0133B4F8D81022
:10413000324600FB0C3301EB43015846FFF740FECB
:10414000C4F8F40189E7D4F8F0A1D4F8C430B4F885
:10415000C4C1A3EB0A035D4332B3BCF1000F23D10A
:10416000D4E99423D4E99201904271EB030302D382
:1041700040F20E5115E72B4B203A53F829304FF4FB
:104180007A79D4E99201CDE9040103F2E73103F52C
:1041900022430498B133121AB1FBF9F1B3FBF9F3DE
:1041A0000A44D21A921B15440CEB0E0132460AFB4C
:1041B00001F130314900C0E740F22651F1E6B8F193
:1041C000000F1BD0B4F8D80110B3B4F8DA1194F88A
:1041D000DC214D1CA4F8DA1101FB022290420DDD16
:1041E000002B0BDD0023A4F8DA5184F83832FFF7F6
:1041F00097F900F00700013084F8DC0104F50C7138
:1042000004F5027004F0A2FC20B940F27651C8E631
:104210000146DCE7039B83F0010384F800320020B1
:1042200067E700BF240F05002DE9F8430E4604465A
:1042300018B9D3213020FCF7A5FD052900F2A7808D
:10424000DFE801F00376413DA52E09F033F9C4E91A
:104250004601204600F06CFFD4F80C01A43809F0A8
:104260007FF8204608F0E3FD054600BB01462046E6
:1042700008F01AFD00F1AE06D4F80C01B04209D2E4
:10428000301A0321192838BF192009F0E5F860B168
:1042900009F068F8C4F80C61204608F0DAFD45B171
:1042A0002046BDE8F84308F0D5BD0125F2E700251A
:1042B000F2E7D4E94623C4E94023BDE8F883BDE82A
:1042C000F84302F025BC08F0FAFC04238146884636
:1042D00084F8113109F042F807220F46A9FB023198
:1042E00002FB0811D4E940525B1941EB0205D4F8F6
:1042F000E8203AB159EA080204D0984277EB050267
:1043000028BF012684F81061D4E94826121A66EB0A
:10431000070694F8301139B9012A76F100010BDA59
:10432000204600F00DFF03E0012A76F10006F7DBDE
:10433000002384F82831C0E7984277EB05010FD2BB
:1043400059EA08080CD01B1A65EB07019A4276EB74
:10435000010005DB012B71F10000A4BF1A460E46D7
:104360000C49012304F1C000914284F829314FF037
:10437000000384F80831B341B8BF0A4604F58471DC
:1043800004F05CFC002898D140F2B26152E7EF21C2
:1043900050E700BF0040420F2DE9F84304460E46A7
:1043A000154690F8283103F0FF07002B40F0948069
:1043B00000F1C00839467822404609F0EBFB22465E
:1043C0004649404609F0E9F8C4F8E860FF2384F85C
:1043D000283166B1FFF7BCF800F0070032464049CB
:1043E000013086F8DC0106F5027009F0D6F840F2DB
:1043F00002434FF00009A4F8103184F8089103F04B
:1044000013FC00F14906204608F011FD0146B6B242
:10441000C0B307F046F800F12801284689B203F03E
:10442000ADFB2844AE3DC4F80C0108F097FF3018EE
:10443000A4F81E9041F10001C4E94601012084F86E
:10444000EC0008F09EFD2D1AC4F8F0504FF0FF3537
:104450006FF000414046D4E94623C4E948510025A5
:1044600004F58471C4E93E23C4E9402384F829514A
:1044700042F2107204F0E2FB38BB40F2B911302076
:10448000FCF780FC2046DFF85C9008F00DFCAE30B5
:10449000C4F80C01B9F8000048B1E08B38B1FFF75F
:1044A00057F8B9F80030B0FBF3F202FB13000644F2
:1044B00008F054FF361841F10001C4E94661002DAF
:1044C000C4D0AD1941F10001C4E72946204608F0E7
:1044D000C3FC3846BDE8F8830C27FAE729420100FF
:1044E00037C7010030270020F0B5002385B0CDE9A3
:1044F000003301238DF806306846FCF7A5FF70B144
:104500000123104EB3700023CDE9023302A8FCF75B
:104510009BFF044638B10023B37005B0F0BD00988E
:1045200008F0F1F9E8E7029D6B7B002BEED005F572
:104530000277384608F037FF384608F040FF6C73C2
:10454000E4E700BF30270020044B0022DA709A70A5
:1045500042F210721A80FFF7C7BF00BF3027002059
:10456000014BD870704700BF3027002008B501F01C
:10457000F1FF044B5A6882422ABF9878002080F0ED
:10458000010008BD30270020F7B5044606297BD876
:10459000DFE801F004251523282D74003C4B9B789F
:1045A00003F0FF025BB900920123B0F8B411FFF7EA
:1045B0001DFC30B140F2CE613020FCF7E3FB042358
:1045C000637302F067F904F0ADFA0023E288A4F8FF
:1045D0006232A4F8FE2184F8013203B0F0BD032357
:1045E0004373FAE708F02CFEC4E99401F5E790F86C
:1045F000150108F083F86430D4F8F0319528D4F828
:10460000C450234F8CBF0020C0F19600C2189542C1
:1046100088BFED1AFB7894BF00252D1A23B9D4F872
:10462000DC309D4228BF1D46D4F8C06104F1DC0097
:1046300007F0E8FC0644022008F0E4FE0221AD1B6E
:1046400025EAE575854228BF0546284608F004FF9F
:1046500010B12E4408F086FE0123C922314604F130
:10466000A80007F07AFDD4F8C0317860D4F8C4000F
:10467000184403B0BDE8F04008F072BEA83003B0A3
:10468000BDE8F04008F04AB840F29C7194E700BFE2
:1046900030270020014B1880704700BF30270020D2
:1046A0000346074A1068D3F84920C0F80320B3F83E
:1046B0004D20A0F8072093F8481007F0FCBA00BF7F
:1046C0003827002070B504460E461346807D658865
:1046D000324615F0040118BF04F15701FEF712FC31
:1046E0004107054621D4C2070BD50123A07D84F8DC
:1046F0004830FEF76BFC0368C4F849308388A4F89F
:104700004D30AB0701D4012070BD094B0121186861
:10471000D4F8573084F85610C0F80930B4F85B303C
:10472000A0F80D3007F0D0FAEDE70020ECE700BF6D
:104730003827002038B5C38C04460F4D0133C3F32E
:104740000E03C3842B7C2BB102F0A2F901F09EFC76
:1047500000232B7400232B7194F869302BB10121B5
:104760002046BDE8384008F099B9637C13B1E28C6B
:104770009A42F4D20021F3E73827002010B5074C05
:104780002379012B05D1237C1BB102F081F901F0C3
:104790007DFCA069BDE81040FFF7CCBF38270020A2
:1047A00070B5254C2379012B04D040F682412D2091
:1047B000FCF7E8FA98B90125237C1BB102F068F9EF
:1047C00001F064FC002D36D0A06908F0B7F868B39A
:1047D00002F00CF8E369BDE870409B681847216857
:1047E000A26911F8095B02F1490392F84820E8092F
:1047F00007F07AF80028DED00021206807F089FA57
:104800000028D8D02379A069012B02D040F65C4162
:10481000CDE7237905F00F01E26903F18043526986
:10482000013B52F8233098470546C5E7A069BDE82B
:104830007040FFF77FBF70BD382700200346074A4E
:10484000906903B909B9FFF775BF1379D26903F10C
:1048500080431269023B52F8233018473827002062
:1048600003292DE9F043054685B0174607D1438853
:10487000980723D40024204605B0BDE8F083428881
:1048800090F86830D107DBB2F4D5002BF2D14FF0AD
:104890000108DFF8D49099F81060C6B107F068F805
:1048A0000828387016D002AA0DF10701FEF700FBA8
:1048B00038B940F6F7612D20FCF764FA4FF0020892
:1048C000E7E702A99DF8070007F09EFE06463B7841
:1048D000082B08D1D9F8001011F8030BC0F3801091
:1048E00007F092FE0646D9F8001005F1500395F83E
:1048F0004F2011F8030BC0F3801006F0F5FFD9F834
:104900000010044611F8030BC0F3801007F026F8DE
:104910008146FEF76DFB40B1B9F1080F1BD0484648
:10492000FEF7F2F980F00103D8B23A78082A14D0E1
:104930001CB9AC7DA21A544254416A8853079AD4D8
:10494000002897D176B9EC7C444518BF002C0CBFE9
:10495000012400248FE70020E7E780F001022240D5
:10496000D4B2EAE7344686E7382700202DE9F04F35
:1049700085B00823052104460DF107028DF80730A4
:10498000FFF76EFF064620B90026304605B0BDE8A9
:10499000F08F794F396807F112037A7C11F8030B15
:1049A000C0F3801006F0A0FF80460028ECD13B68E1
:1049B00040F2E249A16918468D7D10F8032BC2F33D
:1049C00040122A401D468A75D3F80320C1F8AD2055
:1049D0008288A1F8B12015F81F1BA269C1F38011CC
:1049E00082F8AC1002A9D3F81F0002902879087150
:1049F000D3F80F00C2F8C800587D1D7D000440EABE
:104A00000520DD7C2843C2F8D000B3F8190082F8F5
:104A10001E8109FB00F0C2F8C4009D7DC5EB451066
:104A200005EB800505EB85056D00A2F8D850B3F8BD
:104A3000170009FB00F0C2F8D400B3F81B00A2F87D
:104A4000CC00B3F81D00A2F8CE0093F8243003F098
:104A50001F005B0982F8220082F81F31A56994F9D2
:104A600012A005F1160007F083F840F20113A5F833
:104A700014314FF0FF0B85F816B1414605F1DC000B
:104A8000FEF71EFD514605F1A800FEF7E7FAA369FF
:104A900084F8738004F17E01B3F8AA2084F891B001
:104AA000A4F874204FF6FF729DF80700A4F8922036
:104AB000D3F8C420B2FBF9F2A4F88A20B3F8CC20D2
:104AC000A4F88C20B3F8CE20A4F88E2093F81F21F0
:104AD00084F89020627D62B394F84820012A28D19E
:104AE00094F84E2002F0C002402A22D1D4F8492086
:104AF000C4F87E20B4F84D208A80082893F8AC20B2
:104B000003F1AD0504F1840184F8772004F1780203
:104B1000D3F8AD3027D0C4F88430AB888B8004F153
:104B20007701FEF7C5F940B940F6E2312D20FCF7D8
:104B300029F90022C4F87E20DEE794F8773043F0AC
:104B4000020384F8773004F16A000C4907F0DCF9BD
:104B50000B4B0022A0691B683A71002B3FF415AF84
:104B60002146984711E7A367AB8893800023C4F8D8
:104B700084308B80E7E700BF38270020C5CB0100D9
:104B8000CC2C0020032937B5044604D0052957D082
:104B9000012003B030BD08230DF107028DF8073066
:104BA000FFF75EFE0028F3D0237C2A4D03B39DF867
:104BB000070094F8B630DBB92378082804F1B9026D
:104BC00084F8B7302DD004F1B801FEF771F920B99F
:104BD0004FF477612D20FCF7D5F894F8B83043F006
:104BE000020384F8B8301C4904F1AE0007F08CF9D8
:104BF0002B68042220461A7006225A70FFF750FDD7
:104C0000616B94F83820286807F074F8032328684B
:104C10002B7101F0C9FE0021286808F027FB002055
:104C2000B7E72868034613F8031BC1F3801184F823
:104C3000B810D0F80310C4F8B9109B889380D2E75D
:104C4000064B1B68002BEAD0984780F00100C0B2E9
:104C50009FE700BF38270020ADCB0100C82C002003
:104C6000F8B504460F4619B300F12005284608F0B0
:104C700065F9A0B963881A072ED5284608F073F99C
:104C80000646284608F05AF9301AC0B208F079F9F9
:104C9000494A936803442846936008F02EF9284651
:104CA00008F030F901F010FD2179252001F076FCA3
:104CB000414E002394F85620306803704370638897
:104CC000103B0D2B68D8DFE803F063675F0C674487
:104CD00067676767676767442046BDE8F840FFF786
:104CE00029BD06234370202303702046FFF7D8FC1C
:104CF000638823F008039BB2152B05D094F830206D
:104D0000E16A306806F0E7FF306801F04DFE0021EF
:104D1000306808F0ABFA022321790020337101F0EA
:104D2000E1FC054607B9F06063881B0704D508F06D
:104D300025F90544C4F8F4506388103B0D2B36D890
:104D4000DFE803F038352F2F352F3535353535353C
:104D5000352F0C2321214370034603F8091B52B160
:104D6000D4F857200121C0F80920B4F85B209A80BC
:104D700006F0AAFFB9E7226DC0F80920B4F8542064
:104D80009A8094F84F10F3E7062303704370ACE762
:104D9000022303700623F9E740F259612D20FBF747
:104DA000F1FF21790120BDE8F84001F08BBE40F60B
:104DB000F541F3E7F8BD00BF3827002038B5438838
:104DC0000446102B04D10121BDE83840FFF748BF4D
:104DD0000B4D2B7C23B101F033F9402001F04CFE48
:104DE000286801F0E1FD608810F0040002D121790B
:104DF00001F068FE002001F025FE01232B7138BD73
:104E000038270020024B01219869FFF729BF00BF16
:104E10003827002010B5124C237C1BB101F038FE5E
:104E200001F034F9A06907F089FD38B12379012B2D
:104E300009D040F686312D20FBF7A4FFA069BDE81C
:104E40001040FFF777BC2379E26903F18043A06942
:104E5000D268013BBDE8104052F82330184700BF2C
:104E600038270020074810B5037903F0FF0433B951
:104E700014222146043008F08DFE204610BD0C247B
:104E8000FBE700BF3827002010B50023094C237131
:104E9000FDF714FD2060FFF7E5FF20B14FF44271EC
:104EA0002D20FBF76FFFE36913B940F20B31F7E7F1
:104EB00010BD00BF38270020014B024ADA6170475D
:104EC0003827002088510100034B044A1A60044B24
:104ED000044A1A60704700BFC82C00206D490100C9
:104EE000CC2C00204FCA0100F8B5057D0446AF1E4A
:104EF000FFB2002D3AD0012F2DD800F1500190F8CB
:104F00004F0006F02BFD0828064624D0FDF708FFC9
:104F100010BB023D18BF0125012F84F84850A6752B
:104F20008CBF002701276775FDF7BCFF054608F019
:104F300015FA0022144B84F85620E5FB0301C4E95E
:104F4000100111462046FFF7BDFB70B940F2A341A6
:104F50002D20FBF717FF0826022D09D104F1490186
:104F60000020FDF76BFD60B90020F8BD0826F5E7CD
:104F700004F149010120FDF761FD0028F4D001256D
:104F8000CAE70025C8E700BF40420F00F0B5444E15
:104F900085B00446327902F0FF0312B90278FF2A85
:104FA00004D140F6DD112D20FBF7ECFEB36080F854
:104FB00069303C4B684604F1200500933A4B01935D
:104FC0003A4B0293F3695B68039301F0E5FC01F04F
:104FD00011FB01F05DFD01F059F8354801F06AFB65
:104FE000344801F0D3FC284607F087FF284607F035
:104FF00089FF01F069FB2179252001F0CFFA94F9AE
:10500000120001F051FB04F12C01A06A05F0B4FD7F
:10501000074604F13401A06A05F0D5FD0546DFB16D
:10502000237FCBB1B4F92650ED43ED0F637D13B967
:1050300063885B0709D56FF00043D4E910129A42E8
:1050400008BFB1F1FF3F0DD19DB930680330FDF7C6
:1050500047FF307405B0F0BD002DE7D0657F002D0F
:10506000E0D1E3E708F07AF9D4E9102390429941BE
:10507000EAD3012229462046FFF724FB50B1FDF771
:1050800011FF054608F06AF90B4BE5FB0301C4E983
:105090001001DAE7002DD8D040F61C2183E700BFCD
:1050A00038270020154E0100A14701003D480100AE
:1050B000D6BE898E5555550040420F0073B5044643
:1050C000FFF764FF00212046FFF7CAFD236E0BB1F6
:1050D00001221A606388DB0724D50023124EA569DC
:1050E000CDE90033FF2373746846FCF7ADF9C8B906
:1050F000009CA542F8D005F1B40395F8B32004F163
:10510000B40194F8B30006F0EFFB0028ECD094F85B
:10511000AC30B4F8B1207374D4F8AD30C6F81230A6
:10512000024B9A8002B070BD382700204A27002029
:10513000024B9861DB691B68184700BF38270020C5
:1051400043881B0710B504460FD583693C220949E3
:105150006A304272B3F8AA304381FF2380F82730C7
:105160004FF6FF73038506F0CFFEFF2384F8693006
:1051700010BD00BFC5CB010011CC0100BD4D010029
:1051800017CC0100854B0100BD5001007D47010097
:10519000054E0100785101007C510100845101004D
:1051A0000138022808B503D9C4212F20FBF7EAFDF6
:1051B00013290A4B05D811290CD8102907D0D22160
:1051C000F3E71529FBD103EB4003D88801E033F85E
:1051D000100008BD03EB40039889FAE7A00E050014
:1051E000294A38B50346948810681C43402B9480A4
:1051F00004D10421BDE83840FFF7C6B9802B01D1A6
:105200000521F7E703F00304032C04D140F6A43191
:105210003120FBF7B7FDDD0706D50C6891602478D7
:10522000062C0FD00B2C17D09C0706D509680978DF
:105230000529117319D00B2921D09B0644BF0823DF
:10524000537338BDC47B1B2CEED100240025C0E96C
:105250001C450124C474E7E7C47B112C01BF002462
:10526000C474012480F85240DEE7C17B1729E4D1E1
:10527000002400250121C0E91E450175DDE7C17B41
:105280001029DAD10021F8E7582700200C4A0346FC
:10529000517B89B910683BB9B0F80411B0F8E82027
:1052A000914209D8FFF762B993881B0706D5007CA5
:1052B000073818BF01207047002070470120704751
:1052C0005827002073B5044600680D46036813F0A4
:1052D000300F49D1B1F805101A2904D9B5F80730B3
:1052E000B3F5A47F06D22978204602B0BDE870400D
:1052F00006F094BFB5F801201A2AF4D9B5F8036076
:10530000B6F5A47FEFD3DC30009606F08DFE174B88
:105310009A8892070DD51B7B142B0AD1226813683B
:1053200043F010031360204606F04FFF002002B048
:1053300070BD23689A7B202AF0D093F82331002B8C
:10534000ECD1236893F82231002BE7D123681A6847
:1053500003F1DC01B3F8AA0042F020021A6003F561
:10536000A472FEF7C9F8DEE70120E0E75827002025
:105370002DE9F843614D06462C6800287ED1AB88A4
:105380001A0725D594F89E30FE2B04D140F2FB512C
:105390003120FBF7F7FCFE2384F89E30E37B1D2BC6
:1053A00005D184F85100284606F019FFE673A37B67
:1053B000232B06D1E37B233B072B94BF2A232423F3
:1053C000A373237C072B02BF0223AB7384F89E30A8
:1053D000AB88DB0717D4AB885F0776D499077DD5F8
:1053E000287B01222B680D2883F89F2073D0112879
:1053F0007DD007287DD0FEF71FFA034600286BD129
:1054000040F2EE51C4E7D5F80080A96898F80F3053
:10541000D1F80090103B99F800700F2B09D8BB1EF3
:10542000DBB2092B67D840F2333222FA03F3D807F4
:1054300061D509793846FDF755FE20B939462F4820
:1054400006F0ECFE39E0012F01D9162F21D198F892
:105450000E0006F0D3FE40B198F80E30232B04D096
:10546000242B07D12A2388F80E303846FEF7DAF9C4
:1054700003461BE0162F14BF022620266B7B1B075A
:1054800004D5E37B103B0F2B98BF08263046BDE8C0
:10549000F883112F15D005D8072F14D00D2FE4D184
:1054A000174B05E0142FE0D1164B1B68002BC5D01D
:1054B000AA68494611481279984700288BD00646B9
:1054C000DCE7114BF4E7114BF2E7227C062A04BF1C
:1054D0000122AA7382E70E4B08489847AB88DA0688
:1054E000CCD5E37B092BC9D10A23E373C6E7094B6B
:1054F000F2E7094BF0E70826C0E700BF5827002075
:10550000F9D00100D02C00203DD10100A1550100AF
:1055100023D001006FD0010099D001002DE9F041A6
:10552000A0F10E040B1E1646E4B208BF1F23172C71
:105530000AD8012540F25121A5400D4207D115F4AA
:1055400060051FD1082C07D00020BDE8F0810021A4
:10555000BDE8F04107F019BD1468A17B242906D1EC
:1055600019463046FDF7E6F984F82C5105E02A2962
:10557000EAD1E37B233B072BF3D80023A37384F802
:105580004A30E1E7054A1468002CDDD01A4601468E
:1055900023463046BDE8F041184700BFD42C002018
:1055A00070B54D780446A5F10E03DBB2152B0CD86F
:1055B000012140F2512201FA03F6164207D1026896
:1055C000152B927B2AD0082B07D0002070BD0246F5
:1055D0002846BDE8704007F0D8BC242A01D02A2A0A
:1055E000F3D1204606F0E9FD2368DA7B252AECD0CA
:1055F00093F863201A21204622F0010283F86320E9
:10560000226892F8633023F0080382F86330FDF7D4
:1056100091F92368002283F82C21D6E72C2AD4D1D3
:10562000024B1B68002BD0D09847CEE7D82C002027
:105630002DE9F04190F86E7204460D4690F86F62C5
:105640007FBB90F8141176BB94F8153184F81411CF
:1056500084F81531FF2384F81631154B04F1A8089E
:105660001B680BB14046984794F82C31012B01D0B0
:105670003E4303D0237B43F001032373404606F0EF
:10568000DAFC18B1237B43F0020323730621204682
:10569000FEF77AFF002384F82C3135B1A373BDE8FF
:1056A000F0813946CFE73346D0E7E573F7E700BF2F
:1056B000DC2C002073B5484D002604462860AE80DF
:1056C0006E73AE73FF2380F84C30B0F8B231002B0C
:1056D0007CD090F89E30FE2B78D190F82031002BB2
:1056E00074D0037C063B012B70D990F82131022144
:1056F000A0F84460012280F8A03007F09FFC02214E
:10570000284684F8BA61FDF7E1FFB4F8B6112046E7
:10571000B4F8DA300139B4F8B82189B2B1FBF3F347
:105720001344A4F8B831B4F840300B44A4F8403026
:1057300007F0D1FC10B1636B0B446363B4F8B23172
:105740000026012B9CBF0133A4F8B23109B184F8C3
:10575000BE61E37B84F8BA61093B012B0FD8E38873
:10576000B4F86C229B1A190409D404F26E2104F1D6
:10577000160006F0FDF9E673FF2384F84B30B4F809
:10578000B62104F1A801204606F039FAE37B134A5A
:10579000103B13490F2B8CBF002301230093114BA7
:1057A0002868FCF7ADFB2C68237BDA0703D50021C2
:1057B0000948FDF7BFF8237B9B0703D504F23F1090
:1057C000FDF794FE0023237302B070BD94F89E1081
:1057D000FE299AD0004896E7582700208D520100F4
:1057E000E1510100E95701002DE9F047B24F0E46A3
:1057F0008046B9883C688D05204655BFB4F84020E6
:1058000000230132A4F840304CBF84F8BE31A4F824
:10581000402007F060FC38B10B4604F59B7204F1A0
:10582000A8012046FEF7BEF9BB8803F4C06323B18C
:10583000A37C002B45D0032B49D0A27CBB88012A36
:1058400003D1180544BF0222A274B8F1000F40F042
:105850008F80590657BFB4F8D8214246013292B220
:10586000A4F8D82103F00A020A2A0CD13A7B022AB2
:1058700009D123F008033046BB80FFF779FD3043A0
:105880000823C6B2BB803046FFF772FD3D68304347
:1058900095F89E30C6B2FE2B3BD1D6BB2B7C063B87
:1058A000012B36D995F82031ABB195F82131012281
:1058B0000221A5F8446085F8A030284607F0BEFB19
:1058C00027E00121A1742046FEF75EFEB5E7022322
:1058D0000121A374F7E795F80FA0AAF10F0A5FFA68
:1058E0008AFABAF1100F40F2E9802B68DA0702D584
:1058F00032460921E1E7980740F18D8032460C21BC
:10590000284607F09BFB95F8533043F0010385F8D8
:105910005330B4F8B83194F8BB510133A4F8B8311E
:10592000002D00F0FB81FCF7A7FB10B10023A4F8C9
:10593000B831A17C012940F22382237C072B40F05F
:105940000582B4F84030022B40F21A82B4F842507B
:105950000135ADB2E3882B44A4F8B03194F8BC31E2
:10596000002B00F011820123E2881344A4F8B43123
:10597000BB883D685B0657BFB5F8C4310023B5F856
:10598000B6219B1858BF9BB2A5F8C43195F82031B9
:105990001BB92B7C063B012B06D8B5F84430B5F873
:1059A000B6211344A5F8443095F84A1031B1B5F842
:1059B0004630B5F8B6211344A5F8463095F9502085
:1059C000002AC1BFB5F84E30B5F8B6011B18A5F8CE
:1059D0004E3095F8313063B9B8F1000F40F05E8277
:1059E000BB7B022B40F0168295F8A030062B18BF27
:1059F000162395F8302022B92F4885F83130FDF76D
:105A000025FF284607F0C7FB002384F84C30BDE88B
:105A1000F047FCF7E5BF590702D5324613214CE7A2
:105A20001A0706D595F89830324685F8A030072138
:105A300043E713F0300F3AD095F82331002B5BD1B8
:105A400095F82231D3B1EB7B05F1A80005F59171F2
:105A500005F26E22282B28D0AB7BA3F1280CDCF1B9
:105A6000000343EB0C0306F0D1FA2B6823F020036C
:105A700043F010032B60002385F822312B68DA06EF
:105A80003AD505F1A80006F0D6FA18B105F23F1094
:105A9000FDF72CFDB5F8FE3000221521A5F8A03049
:105AA000B5F80231A5F8A23007E70123DBE75B0672
:105AB00022D50022242100E758270020D7F80090A3
:105AC00099F80F30172B2DD011D8102B1DD0152B76
:105AD0001FD0AB7B002B63D1EB7B0F3B102B67D927
:105AE00095F83E30002B63D001221221E5E61F2BF2
:105AF000EFD1324606210AE03868C37B252B3FD020
:105B0000342BE6D100221121D8E632460B2148463B
:105B1000D4E64846FDF70EFF00283FF4FAAE002217
:105B20000421F4E799F86832012B07D132460521A8
:105B3000484607F083FA89F86862EAE699F868321D
:105B4000022BD9B27FF4E5AE99F8523053B1062357
:105B5000324689F8A030484607F070FA002389F8E9
:105B60006832EAE73B6840F20632A3F89A203246F0
:105B700099F8623013F0040F0CBF0D211121EAE7F0
:105B800090F82C31022B02D10022172196E690F8D2
:105B90002C31012B9DD190F82D31002BF4D098E7BA
:105BA000082B05D195F89930012285F8A0303EE701
:105BB000BAF1100F7FF6ADAE3D6895F80E90B9F1D1
:105BC000000F7FF4A6AE95F833313BB101220E21D0
:105BD000284607F033FA85F83391AEE795F832316D
:105BE00083B195F8539019F0030A0BD149F00109DC
:105BF00001220C21284607F021FA85F8539085F8F8
:105C000032A19AE795F822313BB395F8233123BBB3
:105C1000EB7B05F1A80005F5917105F26E22282BAA
:105C200019D0AB7BA3F1280CDCF1000343EB0C0390
:105C300006F0ECF9002385F82231012214212846D0
:105C400007F0FCF9B5F8FE30A5F8A030B5F8023140
:105C5000A5F8A2305DE60123EAE795F82C31012B87
:105C60003FD195F82D31002B3BD1EA7BA2F12303E4
:105C7000072B36D995F81401012806D0022804D044
:105C80004FF43F710620FBF77DF895F815110129B7
:105C900001D00229F4D1022895F82E310BD0012B26
:105CA00014BF0023012343B9093A042A7FF631AE19
:105CB0000122162101E6022BF2E7022995F82F3185
:105CC0000DD0012B14BF00230123002BECD00021A9
:105CD0007548FCF72FFE002385F82C3119E6022BBE
:105CE000F0E795F835314BB195F82D3133B9EB7BB1
:105CF000233B072B02D901222321DEE595F834311D
:105D0000012B05D1002385F8343101222521D4E56A
:105D100095F83431022B7FF4FCADF3E7FCF7A6F9DC
:105D200008B1A4F8B851FCF7AFF900283FF401AE70
:105D300094F8BE310133DBB2022B84F8BE3182BF4E
:105D40000023A4F8B83184F8BE31F2E594F83E306F
:105D500013B1A37B0E2B13D1B4F842502046B4F8F4
:105D60004030ED1A033D07F0B6F958B1A36B626BF2
:105D7000033B9B1A9D42A8BF1D46012D3FF7E9AD8D
:105D80000125E7E52B46F5E7012D7FF6ECADE37B3A
:105D900013B10A2B7FF4E7ADA37B002B7FF4E3ADB7
:105DA000237C002B7FF4DFAD02297FF4DCAD94F877
:105DB000BE31002B7FF4D7ADD4F8BC00B4F8DA9034
:105DC00004F02CFD00283FF4CEAD94F89E30FE2B5D
:105DD0007FF4C9ADB4F8B231012B7FF6C4ADB4F88D
:105DE000B821B4F8CC309A42BFF4BDAD013D9B1A46
:105DF000ADB29BB2B5FBF9F59D4228BF1D4605FB30
:105E000009F3003D03F1010318BF01259BB284F89B
:105E1000BA51A9E5012B08D16B7C002B7FF4E9ADC9
:105E200000212846FEF7B0FBEEE55EB1F00633D464
:105E3000310733D4B20633D4B30733D14FF43161D1
:105E4000312020E739B1B5F84610B5F8483099420D
:105E500001D32223CDE5002A05DDB5F84E20B5F8A3
:105E600048309A42F5D2B5F84420B5F842309A420B
:105E700009D2AA7CB5F8403052B1B5F842209A4216
:105E8000CED80823B5E595F82031002BE1D1F0E715
:105E9000052BC5D93E23ACE51E23AAE53D23A8E585
:105EA0002323A6E52A23A4E558270020D0F874323E
:105EB000D0F8C420934213B50446019005D1D0F820
:105EC0007812D0F8CC20914216D0B4F8AA2004F26F
:105ED0007D101049A4F8872140F2E242B3FBF2F3AF
:105EE000A4F88931B4F87832A4F88B31B4F87A3256
:105EF000A4F88D3106F011F8B4F87A2201A8D4F88C
:105F00007412FDF7C3F80023E3730323A37402B0F4
:105F100010BD00BF17C3010008B5FDF7ABFB024B76
:105F2000024A1A6008BD00BFD02C0020C5520100F3
:105F3000074B93F900301844142804DC10F17F0F4C
:105F400003DB40B27047142070476FF07E0070474B
:105F5000692700207F2307B50DF107008DF8073072
:105F600000F0A4FD03469DF9070053B1094B5B788F
:105F70005B425BB21844142806DC10F17F0F05DB8E
:105F800040B203B05DF804FB1420FAE76FF07E0026
:105F9000F7E700BF69270020024B00221A705A70F1
:105FA000704700BF69270020064BD3F8000138B1C5
:105FB000D3F8040120B1D3F80801B0FA80F0400909
:105FC000704700BF00600450034B00221A705A70E3
:105FD00010229A70704700BF6C270020F8B5064663
:105FE000022014460D4600F0CBF8114B114A012750
:105FF0005C60191D9A6002F1807203342D011F70DC
:10600000DC601D83C3E904260022243303F80A2C34
:106010000D2203F8092C084AC2F83015074903C9B4
:1060200083E80300C2F80875C2F83835F8BD00BF30
:106030006C2700200300000B00600450B40E050024
:1060400008B5022000F09CF80D4B01221A700022C6
:106050000C4BC3F80021C3F80421C3F808210A4AF5
:10606000C3F8802003F57433C3F88C20A3F5802394
:10607000C3F88C21A3F580530822C3F8042508BD7A
:106080006C2700200060045003000080154A08B50A
:106090001378FBB100231449C1F8803001F5743145
:1060A000C1F88C30A1F58021C1F88C3108210F4B4B
:1060B000C3F80815FFF778FF88B101235370938E5A
:1060C000FF2B03D9BC213B20FAF75CFEDBB29370B7
:1060D000002313700020BDE8084000F051B81023E1
:1060E0005070F4E76C27002000600450002004503A
:1060F000094B1A7862B1094BD3F8002152B1D3F899
:10610000040140B1D3F80801B0FA80F040097047AB
:1061100058787047022070476C27002000600450B8
:10612000064A08B513782BB1FFF73EFF20B192F86D
:10613000340008BD9078FCE71020FAE76C270020B7
:1061400038B5084C0025D4F80035032B04BF0123D3
:106150006360C4F80055C4F8005500F0A1FFC4F80E
:10616000805038BD00600450044B4022C3F88820A2
:10617000BFF34F8FBFF36F8FFFF7E2BF00E100E087
:1061800010B50446FFF7DCFF012C06D0022C09D025
:106190003CB18C213D20FAF7F5FD074B0222C3F8F4
:1061A000002510BD044B0322C3F8002502F1004274
:1061B000C3F88020F5E700BF00600450024BD3F81D
:1061C000A00300F00100704700C0FF00084BD3F8A7
:1061D000A423D3F8A833511C9BB203D14FF6FF710F
:1061E0008B4203D0026083800120704700207047FB
:1061F00000C0FF000B4B30B5D3F89053D3F8944355
:10620000D3F89813D3F89C2305EA04030B401340FA
:10621000013317BF05600020446081601CBFC2606D
:10622000012030BD00C0FF000B4B30B5D3F88053C8
:10623000D3F88443D3F88813D3F88C2305EA0403F6
:106240000B401340013317BF05600020446081609C
:106250001CBFC260012030BD00C0FF00064B002201
:10626000C3F80022C3F81822C3F82022C3F80C2276
:10627000C3F81422704700BF00A0085070B5134D3A
:10628000034608466E7F26B940F6C1013E20FAF764
:1062900079FD63B9012EAC69297F05D100F074FD49
:1062A00020442B69C01A70BD06F0E6FFF8E7012B09
:1062B00009D1012EAC69297F02D100F055FDEFE72D
:1062C00006F0E5FFECE70020EBE700BFA827002081
:1062D0000B4B93F8290088B193F828307BB1094B18
:1062E000D3F8002442F00102C3F80024D3F82005BB
:1062F00000F0F600023818BF0120704701207047F7
:10630000A827002000A0085008B50128084B1871E4
:10631000084B06D0022808D040F645513E20FAF737
:1063200031FD0322C3F8002508BD0422FAE700BFAF
:10633000A827002000A0085008B570B9104B2831DC
:106340001846D9600F4900F04DFF0130012816D9D9
:1063500040F2C2613E20FAF715FD01280CD1084B2E
:1063600029311846D960074900F042FF0130012861
:1063700005D940F2CC61EDE74FF4DA61EAE708BDF8
:1063800048110020BC0E050008B50C4B5B78012BB2
:1063900009D100F033FF013001280ED940F6111168
:1063A0003E20FAF7EFFC022B07D100F02DFF013061
:1063B000012802D940F61711F2E708BDA8270020EE
:1063C0000A4B40F409000A4A1B8940F04000B3F52B
:1063D000166F36BFA3F63813A3F5166343F4807324
:1063E000C2F80837C2F84005704700BFA827002050
:1063F00000A0085073B50C460546134EFFF784FF06
:1064000020462146FFF7DCFF01AB96F90520284620
:1064100000F084FE9DF8050000F0FCFE20B140F283
:10642000E3513E20FAF7AEFC31469DF9040000F03E
:1064300037FC064B40F20312C3F8442E40F25B6275
:10644000C3F8482E02B070BDA827002000A0085055
:106450002DE9F04106460C46174606F08BFF002852
:10646000FBD02F4D4EBB01236B7095F828301BB924
