:1000000000230020511A0000C59B00003D1A00008B
:100010003D1A00003D1A00003D1A00003D1A000084
:10002000000000000000000000000000211B000094
:100030003D1A000000000000911D00003D1A000064
:10004000491E0000491E0000491E0000491E000014
:10005000491E0000491E0000491E0000491E000004
:10006000491E0000491E0000491E0000491E0000F4
:10007000491E0000491E0000491E0000491E0000E4
:1004C000491E0000491E000081F0004102E000BF0B
:1004D00083F0004330B54FEA41044FEA430594EA04
:1004E000050F08BF90EA020F1FBF54EA000C55EA3F
:1004F000020C7FEA645C7FEA655C00F0E2804FEA10
:100500005454D4EB5555B8BF6D420CDD2C4480EAF1
:10051000020281EA030382EA000083EA010180EA21
:10052000020281EA0303362D88BF30BD11F0004F6F
:100530004FEA01314FF4801C4CEA113102D04042A5
:1005400061EB410113F0004F4FEA03334CEA1333E0
:1005500002D0524263EB430394EA050F00F0A780F8
:10056000A4F10104D5F1200E0DDB02FA0EFC22FAF3
:1005700005F2801841F1000103FA0EF2801843FAE7
:1005800005F359410EE0A5F120050EF1200E012AD8
:1005900003FA0EFC28BF4CF0020C43FA05F3C01816
:1005A00051EBE37101F0004507D54FF0000EDCF18F
:1005B000000C7EEB00006EEB0101B1F5801F1BD338
:1005C000B1F5001F0CD349085FEA30004FEA3C0C3C
:1005D00004F101044FEA445212F5800F80F09A8032
:1005E000BCF1004F08BF5FEA500C50F1000041EB36
:1005F000045141EA050130BD5FEA4C0C404141EB3A
:100600000101013C28BFB1F5801FE9D291F0000F34
:1006100004BF01460020B1FA81F308BF2033A3F1E3
:100620000B03B3F120020CDA0C3208DD02F1140CDA
:10063000C2F10C0201FA0CF021FA02F10CE002F115
:100640001402D8BFC2F1200C01FA02F120FA0CFC0E
:10065000DCBF41EA0C019040E41AA2BF01EB045157
:10066000294330BD6FEA04041F3C1CDA0C340EDC55
:1006700004F11404C4F1200220FA04F001FA02F398
:1006800040EA030021FA04F345EA030130BDC4F156
:100690000C04C4F1200220FA02F001FA04F340EA4B
:1006A0000300294630BD21FA04F0294630BD94F0FC
:1006B000000F83F4801306BF81F480110134013DE3
:1006C0004EE77FEA645C18BF7FEA655C29D094EA54
:1006D000050F08BF90EA020F05D054EA000C04BFD2
:1006E0001946104630BD91EA030F1EBF00210020BD
:1006F00030BD5FEA545C05D14000494128BF41F05C
:10070000004130BD14F580043CBF01F5801130BDBF
:1007100001F0004545F0FE4141F470014FF000004A
:1007200030BD7FEA645C1ABF194610467FEA655CFB
:100730001CBF0B46024650EA013406BF52EA03359D
:1007400091EA030F41F4002130BD00BF90F0000F8B
:1007500004BF0021704730B54FF4806404F13204C7
:100760004FF000054FF0000150E700BF90F0000F80
:1007700004BF0021704730B54FF4806404F13204A7
:1007800010F0004548BF40424FF000013EE700BF77
:1007900042004FEAE2014FEA31014FEA02701FBF07
:1007A00012F07F4393F07F4F81F06051704732F039
:1007B0007F4208BF704793F07F4F04BF41F4002190
:1007C000704730B54FF4607401F0004521F00041EE
:1007D0001CE700BF50EA010208BF704730B54FF078
:1007E00000050AE050EA010208BF704730B511F079
:1007F000004502D5404261EB41014FF4806404F1B1
:1008000032045FEA915C3FF4D8AE4FF003025FEA36
:10081000DC0C18BF03325FEADC0C18BF033202EBBA
:10082000DC02C2F1200300FA03FC20FA02F001FA14
:1008300003FE40EA0E0021FA02F11444BDE600BFB7
:1008400053B94AB9002908BF00281CBF4FF0FF3137
:100850004FF0FF3000F00CB8ADF1080C6DE904CE9C
:1008600000F008F8DDF804E0DDE9022304B0704789
:10087000704700BF2DE9F0478C468E46089E15460E
:1008800004461946002B40F0D080724547D9B2FA91
:1008900082F74FB1C7F120030EFA07FCBD40BC4000
:1008A00020FA03F343EA0C0C4FEA154EA8B2230CCE
:1008B000BCFBFEF80EFB18CC08FB00F943EA0C4326
:1008C000994528D9EB1808F1FF3204D2994502D98D
:1008D000A8F102022B44A3EB0903A4B2B3FBFEFC74
:1008E0000EFB1C330CFB00F044EA0344A04214D975
:1008F0002C190CF1FF3304D2A04202D9ACF102034F
:100900002C44241A43EA02401EB1FC400023346008
:100910007360BDE8F0874246DDE76346F1E7002AF1
:1009200079D0B2FA82F3002B3FD01946C1F12003EF
:1009300002FA01F500FA01F42EFA03F20EFA01FEB2
:1009400020FA03F3AFB243EA0E034FEA154EB2FBAF
:10095000FEFC0EFB1C201A0C0CFB07F842EA0042BE
:1009600090455AD9AA180CF1FF3004D2904502D90B
:10097000ACF102002A44A2EB08029BB2B2FBFEFCDF
:100980000EFB1C220CFB07F743EA02439F4246D9A9
:10099000EB180CF1FF3204D29F4202D9ACF10202F3
:1009A0002B44DB1B42EA004202E0AEEB02030122D1
:1009B0004FEA154EAFB2200CB3FBFEFC0EFB1C330E
:1009C0000CFB07F840EA034398452AD9EB180CF1D1
:1009D000FF3004D2984502D9ACF102002B44A3EBBE
:1009E0000803A4B2B3FBFEFC0EFB1C330CFB07F7A1
:1009F00044EA0344A74216D92C190CF1FF3304D260
:100A0000A74202D9ACF102032C44E41B43EA0040A4
:100A10000F46114678E71F2188E76046ABE762463C
:100A2000BFE76046DBE76346EFE7734506D916B9D3
:100A3000002108466DE7C6E9000EF9E7B3FA83F72F
:100A400087B9734501D3824207D8841A6EEB03033A
:100A500001209C461EB900215BE73846FAE7C6E94B
:100A6000004CF8E7C7F1200CBB4000FA07F422FA6B
:100A70000CF520FA0CF1BA401D432EFA0CF30EFAD5
:100A800007FE4FEA154941EA0E011FFA85FEB3FB46
:100A9000F9F809FB18300B0C08FB0EFA43EA004387
:100AA0009A4540D9EB1808F1FF3004D29A4502D993
:100AB000A8F102002B44A3EB0A0389B2B3FBF9F8B7
:100AC00009FB183308FB0EFE41EA03418E452CD981
:100AD000691808F1FF3304D28E4502D9A8F1020348
:100AE000294443EA0040A1EB0E01A0FB02984145D6
:100AF000CE46434602D306D14C4504D20138B9EB69
:100B0000020E68EB0503002EA5D0B4EB0E0261EBDC
:100B1000030101FA0CFC22FA07F3F9404CEA030343
:100B2000C6E9003197E74046C5E74346D9E70000EC
:100B300073B505460C4601F58066236802220093D2
:100B4000636869462846019309F0ACFE38B9284627
:100B500009F0BCFE18B995ED120A02B070BD083458
:100B6000B442EAD19FED010AF7E700BF00401C46FE
:100B700010B52DED028B82B000F0E0F8044650B9BC
:100B80005A4940F249125A4808F093FF40F249117D
:100B9000564808F085FF09F0B8FE802808D0534970
:100BA0004FF4A672524808F084FF4FF4A671EFE7A5
:100BB000204609F0A8FE022808D04C4940F24D1208
:100BC0004B4808F076FF40F24D11E1E7204609F06E
:100BD000A8FE40B145494FF4A972454808F069FFA5
:100BE0004FF4A971D4E705F0A1FD030CC2B249216D
:100BF0000093C0F307233F4808F0CFFF49213E4848
:100C000008F0CBFF49213D4808F0C7FF20463C498A
:100C1000FFF78EFF10EE100AB0EE408AFFF7B8FD26
:100C2000DFED388A02460B463748492108F0B5FF08
:100C3000B4EEE88AF1EE10FA4FF0490147BF334AAB
:100C4000334B344A344B354808F0A7FFB4EEE88AFA
:100C5000F1EE10FA08D425494FF4B272244808F096
:100C600028FF4FF4B27193E749212D4808F095FF12
:100C700049212C4808F091FF20462B49FFF758FFE7
:100C800010EE100AB0EE408AFFF782FD02460B46D6
:100C90002648492108F081FFB4EEE88AF1EE10FA07
:100CA00014D41C4A13DB1C4B49211C4808F075FF67
:100CB000B4EEE88AF1EE10FA0BDA0C494FF4B87290
:100CC0000B4808F0F6FE4FF4B87161E70F4A104B7D
:100CD000EAE74921164808F060FF4921154808F065
:100CE0005CFF0021144804F0A5FEF6E7DDDF0000FC
:100CF000F9DF000011E000003CE000006AE00000C5
:100D000048CC000017B7D137A6E00000C0DF0000D4
:100D1000C7DF0000C9DF0000DADF0000D0E000001C
:100D2000F6E0000029E1000048C8000068E100008A
:100D300097E10000E0E100005A62020000487047BD
:100D4000F00000202DE9F04104460D4608F081FE38
:100D5000804600284AD12946204608F058FE014620
:100D6000204608F084FE04EB80010E6996B901224A
:100D7000E36882401343E36002220D612B4629465B
:100D8000204608F039FE032229462046BDE8F041FE
:100D900008F032BE02223146204608F022FE03222D
:100DA00001460746204608F01CFE86420AD045212F
:100DB0000F4808F0F2FE88F31188BFF36F8F042309
:100DC000184602DF3B4602222946204608F014FE60
:100DD000032233462946204608F00EFE39462B46AC
:100DE000204608F009FE02223146CEE7BDE8F08138
:100DF00022E20000B2F5802FF8B50CD2042A20D8E8
:100E0000394940F2E322394808F053FE40F2E32129
:100E1000354808F045FE0823D21ACC1D114424F0B1
:100E2000070421F00701091B17294FEAD1060AD848
:100E30002D494FF43B722D4808F03BFE4FF43B71B7
:100E4000E6E70423E8E70023046031462046A66075
:100E5000E36008F00CFE820002F11B05B6F5004FBE
:100E60004FEAD5050BD26B1C9E4208D21E4940F2B8
:100E700002321E4808F01DFE40F20231C8E7002190
:100E8000043204F110000AF054FC2A4620460021E6
:100E900008F0DBFD002320461A46194608F0ACFD99
:100EA000771B19462046012208F0B7FD3A4629462D
:100EB00008F0CBFD2B4600222946204608F09CFD79
:100EC0003146204608F0C1FD3B463146204600220F
:100ED00008F092FD31462046012208F09EFD294689
:100EE000BDE8F840FFF72EBF4BE20000F9DF00003D
:100EF000014B1B68184700BF9C010020014B186084
:100F0000704700BF9C01002030B5044685B00D46F7
:100F10001022002168460AF00CFC02238DF80230F2
:100F2000044B2A4621466846019307F047FD05B069
:100F300030BD00BFF10E000080B505460E461746D5
:100F4000984604F0EBFD034600F090FFDFF8409078
:100F5000044649F80030424639463046A847094B16
:100F60001B7853B90849094840F2463208F0A1FD00
:100F700040F24631044808F093FD54F8090000F0AF
:100F8000F1FE00BFB711002087E20000F9DF00008A
:100F9000080000002DE9F84F838B0446180790469F
:100FA00013D501290CBF43F0100343F02003A383A2
:100FB00004F1140004F0E4FF002800F09A8088F3A4
:100FC0001188BFF36F8FBDE8F88F022903F0070A7D
:100FD00040F04B81204608F079FD052800F2F080B2
:100FE00001A353F820F000BFB10F00006B12000006
:100FF000C11100007710000007110000631100000C
:1010000002F00702531F012B1AD80023062A256875
:1010100089B2C4E9003309D12B4603E0E28B0132E7
:10102000E2831B68002BF9D141F002012046A18325
:1010300008F04CFD002800F0268141F0200121E15C
:10104000042A0DD189B22046A18308F03FFD054650
:10105000002800F0188141F020010025A18312E151
:10106000944940F21B12944808F023FD40F21B11F2
:10107000904808F015FDBAF1000F08D08D494FF4E3
:10108000AB728D4808F015FD4FF4AB71F0E72368A3
:1010900043B9884940F25712874808F00AFD40F2E8
:1010A0005711E5E723691F6847B982494FF4AD72CC
:1010B000814808F0FEFC4FF4AD71D9E7564655461D
:1010C0004FF00609A18B21F0070141F0060189B21A
:1010D000A183A368002B00F0DD804FF0010B41F0ED
:1010E000080104F1140A5046A18304F049FF0028C6
:1010F0006FD172494FF499726F4808F0DAFC4FF4DF
:1011000099716E48B5E7BAF1020F08D0694940F20B
:101110005D12694808F0CDFC40F25D11A8E7E68B4E
:1011200046B164494FF4AF72634808F0C2FC4FF413
:10113000AF719DE723695F6847B95E4940F261126C
:101140005D4808F0B6FC40F2611191E7A18B35468D
:1011500021F0070141F0040189B24FF00409A18395
:10116000B7E7BAF1010F08D052494FF4B2725248B2
:1011700008F09FFC4FF4B2717AE7236843B94D49F8
:1011800040F265124C4808F094FC40F265116FE79C
:1011900023699F6847B947494FF4B472464808F03D
:1011A00088FC4FF4B47163E70026A18B354621F02B
:1011B000070141F0050189B24FF00509A18388E7D5
:1011C0003C4940F26B123C4808F073FC40F26B1152
:1011D0004EE788F31188BFF36F8FBBF1000F16D174
:1011E00065BB17B120463649B847EFF31188202375
:1011F00083F31288BFF36F8F504604F0B3FE28BB11
:101200002E4984222C4808F054FC842179E7A168F7
:101210000029E5D0D1F800800029E1D033464A46C4
:101220002046D1F804B0D847B8F1000F04D0D8F860
:10123000003041469846EFE74346FAE729463346F1
:101240004A4620462D6808F06DFCC9E7504604F078
:10125000ADFEA18B21F0080189B2A183CA061FD57A
:1012600021F01003A38301F0070AA669A28B002EC8
:1012700022F00701BFF6C4AE00232568C4E900339D
:1012800041F00101A18301F00709D1454FF00007AA
:101290007FF41FAF0DB9002FE0D04FF0000B1EE719
:1012A0008B067FF585AE21F02003A38301F0070AAA
:1012B00090E600BFBDE20000F9DF0000E2E20000BE
:1012C000C5120000F8B504460D4600F11406EFF310
:1012D0001187202383F31288BFF36F8F304604F009
:1012E00041FE40B909490A48842208F0E2FB842102
:1012F000064808F0D5FB304604F058FEA5613A4692
:101300002046BDE8F8400121FFF744BEE2E20000BC
:10131000F9DF00002DE9F04704460E4608F0F2FB25
:10132000051E5ADB04F11409EFF3118A202383F31D
:101330001288BFF36F8F484604F014FE804638B918
:1013400031498422314808F0B4FB84212E483CE026
:10135000484604F02BFE4FF6FF72E38BA78B9342B7
:1013600007F007073CD0062F26D8DFE807F0193C26
:101370000925190419006FF085054FF0000802E0F7
:1013800002250133E383484604F0FAFD70BB1E4991
:101390004FF499721D4808F08CFB4FF49971D5E712
:1013A00000233360636823B9C4E900667FB13D461A
:1013B000E3E71E606660F9E7154914484FF4E472EC
:1013C00008F077FB4FF4E471114808F069FB5246CE
:1013D00002212046FFF7DEFD3D462846BDE8F087A6
:1013E0006FF00A05C9E76FF00405C6E78AF31188B4
:1013F000BFF36F8FB8F1000FEFD000233A463146AC
:10140000204608F08FFBE8E7E2E20000F9DF000089
:10141000BDE2000008B54268034602F00302032A59
:10142000816009D062B907490748452208F041FBAD
:101430004521044808F034FB006800225A6008BDCA
:101440000020FAE70FE30000F9DF0000014B036022
:1014500000207047DCD8000008B5044808F013FBF2
:10146000034808F010FB002008BD00BF35E3000072
:101470006AE3000008B50348034A0021121A08F085
:1014800099FB08BD08040020BC110020074808B5DE
:10149000074A0849121A08F08FFBBDE808400648C1
:1014A000064A0749121A08F087BB00BF60000020F7
:1014B00004040020B4F1000060000020600000205F
:1014C000B4F10000F0B507460C4687B0002937D0CC
:1014D0008B6823480093D1E90023452108F05DFB88
:1014E000636945210093D4E903231E4808F055FBA6
:1014F0004521E2691C4808F050FB26460025F36AA6
:101500002A460593EB1C0493B36A45210393AB1C55
:101510000293736A154801936B1C0093336A043578
:1015200008F03BFB102D06F11006E8D14521226E94
:101530000F4808F032FB4521A2690E4808F02DFB48
:10154000012F06D1EFF3058245210B48103A08F030
:1015500024FB2146384607B0BDE8F04003F084B9CB
:1015600097E30000CBE30000FFE3000013E400007A
:101570005BE400006FE40000A2E4000030BFFFF76E
:10158000FDBF00BF2DE9F04105460B4EDFF830806E
:10159000324606EB0807CC1B204608490AF0A3F8A0
:1015A000A01942460021083C0AF0C3F8AC6707F1D5
:1015B0000800BDE8F08100BF0000000070C5000019
:1015C0000400000010B5244C4521244808F0E5FA39
:1015D000A36A99013ED52248452108F0DEFA1E2073
:1015E000A36ADA0104D51F48452108F0D6FA1F2066
:1015F000194CA36ADB0204D51B48452108F0CDFA3B
:101600000220A36A1C0304D51848452108F0C5FA36
:101610002120114CA36A590304D51548452108F02F
:10162000BCFA2220A36A9A0304D51248452108F087
:10163000B4FA2320084CA36ADB0304D50E484521E5
:1016400008F0ABFA2420A36A6FEA03436FEA13435E
:10165000A36210BD1D20C3E700ED00E0BAE4000066
:10166000D7E40000EFE400000EE500003DE50000D7
:1016700060E500008AE50000A9E5000070B5284C8F
:1016800006460D462748452108F087FAA36AD90483
:101690003BD52548452108F080FA1720A36A1A0592
:1016A00004D52248452108F078FA18201C4CA36A7A
:1016B0009B0511D51E48452108F06FFAA26BA36A5D
:1016C000180408D545211B4808F067FA1EB1A36A23
:1016D00023F40043A3621920114CA36A590504D5D1
:1016E0001548452108F059FA1A20A36ADA050ED5E3
:1016F0001248452108F051FA1B20094A936A43F425
:101700007F43936200232B7070BD1620C6E7A36A47
:101710009B04F2D50A48452108F03FFA1C20ECE76B
:1017200000ED00E0D9E50000F4E500000AE6000065
:1017300022E6000040E600005AE600007AE60000DB
:1017400097E6000070B5324C06460D4631484521FB
:1017500008F023FAA36AD90648D52F48452108F096
:101760001CFA1120A36A1A0704D52C48452108F059
:1017700014FA1220264CA36A9B0711D5452128484C
:1017800008F00BFA626BA36A190608D545212548B3
:1017900008F003FA1EB1A36A23F08003A3621320AA
:1017A0001B4CA36ADA0704D51F48452108F0F5F958
:1017B0001420A36A9B0604D51C48452108F0EDF9C6
:1017C0001520134B9A6AD60602D49A6A94070FD54D
:1017D0009B6AD9060CD51649164840F22D1208F01E
:1017E00068F940F22D11124808F05AF91020B9E7B3
:1017F000074B9A6A920642BF5A6A22F400525A6212
:101800009A6A42F0FF029A6200232B7070BD00BFFB
:1018100000ED00E0CBE60000E6E600000AE600008E
:101820001EE700003BE7000056E7000097E60000D7
:101830007AE70000F9DF000070B56B4B0546586889
:1018400000269CB0C0F3080386F31188BFF36F8FA6
:1018500002F07F44B4F17F4F07D102F00C04082C52
:101860000ED14521614808F098F9614940F21B42C8
:10187000604808F01EF940F21B415D4808F010F97D
:1018800014074CBF0D460126002DEED00024DA1EB1
:101890008DF80740092A00F29780DFE802F0058AF8
:1018A0008E759595959595924521534808F075F953
:1018B0008DF807404C4CE36A9A0705D545214F48FF
:1018C00008F06BF900242DE0E36A002B02DA4521D1
:1018D0004B48F5E7E36A5B0062D54521494808F0CB
:1018E0005CF96369AA6943F480736361BFF34F8F46
:1018F000BFF36F8F32F8023C626922F4807262613A
:10190000BFF34F8FBFF36F8F03F47F42B2F55F4F8A
:1019100021D1DBB2022B1ED145212A683A4808F0BA
:101920003CF92C689DF807309BB96822294602A82B
:1019300009F0D9FE099B002E52D0C3F3080222B948
:101940006FEA53236FEA43230993204602A9FFF766
:10195000B9FD1CB070BD244B9A6AD2B232B10120DD
:101960000DF10701FFF7EEFE0446DBE79A6A12F479
:101970007F4F05D001200DF10701FFF77FFEF3E750
:101980009B6AB3F5803F02D3FFF71CFEECE71849D2
:1019900040F2ED22174808F08CF840F2ED216CE798
:1019A00013494FF43C72134808F083F84FF43C712C
:1019B00063E700200DF10701D4E700200DF10701D6
:1019C000DBE7452111487BE7114910F4F87F114A04
:1019D000114818BF0A46103B452108F0DEF871E7B0
:1019E0006FF30803B0E700BF00ED00E0DAE70000A6
:1019F0007AE70000F9DF00000AE8000026E80000AE
:101A00004CE800005FE8000083E80000A4E8000064
:101A1000C1E70000ACE70000CDE80000064B5A69C2
:101A200042F010025A615A6942F480625A615A695E
:101A300022F008025A61704700ED00E0EFF30880E1
:101A4000EFF3098101B57246FFF7F6FE01BD00BF55
:101A5000002080F31488BFF36F8F002080F30A8882
:101A600080F30B880F4880F3088801F08FFB00207B
:101A70000D490860BFF34F8F00F02CF8202080F351
:101A800011880A484FF40061401880F30988EFF389
:101A900014800221084380F31488BFF36F8F00F095
:101AA000B5F800000023002094ED00E0C0110020F4
:101AB000002318460649D1F89020C2F3072293422A
:101AC00000DB7047C1F89830C1F8A0000133F6E799
:101AD00000ED00E010B572B6002484F31388FFF720
:101AE000E7FF23464FF0FF300C4A03F1200101339A
:101AF000102B42F82100F8D100234FF0FF30074AA5
:101B000003F160010133102B42F82100F8D162B6D5
:101B1000BFF34F8FBFF36F8F10BD00BF00E100E038
:101B20001EF0040F0CBFEFF30880EFF3098081690A
:101B300011F8021C0229FFD001B5724608F03EF8E8
:101B400001BD00BF00B2002807DB01234109034AA1
:101B500000F01F00834042F82130704700E100E0B0
:101B600000B200280CDB01220649430900F01F00E7
:101B70008240203341F82320BFF34F8FBFF36F8F94
:101B8000704700BF00E100E0054B420953F82220F6
:101B9000012300F01F0003FA00F01040704700BF5F
:101BA00000E100E00131072908B508D90D490E48C8
:101BB0006B2207F07EFF6B210A4807F071FF00B22D
:101BC0000028ACBF00F16040084B4FEA4111C9B298
:101BD000ABBF00F5614000F00F0080F8001319540E
:101BE00008BD00BFE5E80000F9DF000014ED00E0EB
:101BF000044B054A23F07F039360BFF34F8FBFF37D
:101C00006F8F70470000000000ED00E008B5FFF79F
:101C1000EFFF104BD3F8882022F47002C3F888201D
:101C2000D3F8882042F4A002C3F888204FF0404245
:101C3000C3F83422BFF34F8FBFF36F8F0023E1EE61
:101C4000103AFFF717FCFFF721FC00F0EFF802F065
:101C500029FF00BF00ED00E04FF47D41C0F8C41043
:101C600042F8203C009B0B4942F81C3C019B21F0B0
:101C7000010142F8183C029B42F8081C42F8143C4F
:101C80004FF0807342F8043C0023203A0265C3679A
:101C9000704700BF390F0000104B9B6883421AD178
:101CA000EFF30580B8B9EFF31181202282F3128897
:101CB000BFF36F8F9A8922F002029A81EFF31483A7
:101CC00023F0040383F31488BFF36F8F81F311882B
:101CD000BFF36F8F70476FF015007047D00D002075
:101CE0000E461546002300B5E1EE103AEFF31483DB
:101CF00023F0040383F31488BFF36F8FBFF36F8F58
:101D00000B4B826F98600B4B1A60836E83F30B88CA
:101D10002C4686F309880020034B98472046002173
:101D200000220023014C2047E79B0000390F0000F0
:101D3000D00D0020B00C00201022014B1A6170471A
:101D400000ED00E0054B9A699B689A421FBF044A68
:101D5000536843F080535360704700BFD00D00209C
:101D600000ED00E0084B9B6883420BD1EFF3058345
:101D700043B1064B5A6842F080525A605A6A22F4C4
:101D800000425A6203F0D0BED00D002000ED00E00A
:101D900023498A6882F8C5E04FF030001044EFF321
:101DA000098C80E8F01F1EF0100F03D102F18400AF
:101DB00080EC108A202080F31288BFF36F8F194FB8
:101DC0004FF000668A698A603E60906F164C206012
:101DD00092F9C5E0D06F0023D36780F311881EF01D
:101DE000100F03D00023E1EE103A03E002F184006B
:101DF00090EC108AEFF3148323F0040383F3148828
:101E0000BFF36F8F02F1300090E8F01F8CF3098868
:101E100002F1000004B507F0E0FEBDE804407047A1
:101E2000D00D002004ED00E0B00C002000232021A4
:101E30000448C2180133B3F5917F82F80013F8D13A
:101E4000704700BF00E100E008B5EFF30583064AE4
:101E5000103B02EBC30152F8330049688847BDE8E4
:101E60000840FFF76FBF00BFB4BB00000148006827
:101E700070470000B00C00201FB50121094B0A4A31
:101E80000A4800F00BF90023064A0393084B01218E
:101E9000019301A8D31A029300F01AF905B05DF876
:101EA00004FB00BF00FC072000000020DCD800007D
:101EB000080400200A7A0B6810B562F304031C467C
:101EC000CB68520923F01F0343EA4203044A43F05C
:101ED0000103C2F89800C2F89C40C2F8A03010BDBF
:101EE00000ED00E010B50A4B0446D3F89030C3F380
:101EF0000723013B984208D902464521054807F0CF
:101F00004CFE6FF01504204610BDFFF7D3FFFAE733
:101F100000ED00E020E900002DE9F04F894614466D
:101F200006464FF000084F4D85B0C84527DAD6F871
:101F300004A0BAF1000F44D0BAF11F0F18D91AF05B
:101F40001F0F15D1D6F800B01BF01F0F10D1584647
:101F500007F06CFE07460AEB0B00013807F066FE3F
:101F6000874210D06FF015073A4645213E4802E0FF
:101F7000424645213D4807F010FE6FF0150420460B
:101F800005B0BDE8F08F17F1160FEDD0BC42EBDDC8
:101F9000C5F89870D5F89C10C5F89870D5F8A030A1
:101FA00021F01F0143F01F0BD6E900321A44994279
:101FB00002F1FF3A1AD1D34507D13146F8B207F002
:101FC0003EFE08F101080C36AFE73146C5F89870BF
:101FD000D5F89C30E0B263F30402C5F89C2007F00A
:101FE0002EFE10F1160FC8D0441CEAE7C5F8987011
:101FF000D5F8A020013B23F01F0302F01F0213437A
:10200000D3453146E0B2C5F8A030E8D007F017FE5E
:1020100010F1160FB1D0C5F89870D5F89C209DF836
:1020200008300BF1FF3B62F304038DF80830D5F85C
:10203000A0309DF808205B0863F347128DF8082054
:10204000D6E900321344009323F01F035B44A3EB53
:102050000A03013023F01F036946C0B20393FFF760
:1020600041FFBEE700ED00E076E900004BE900002B
:102070000522044BC3F89420BFF34F8FBFF36F8F3B
:10208000704700BF00ED00E0BFF35F8F0022024BFE
:10209000C3F89420704700BF00ED00E010B5094C74
:1020A0002278FFF739FF207016300AD10649074819
:1020B00040F2891207F0FDFC40F28911024807F056
:1020C000EFFC10BDB41100209EE90000F9DF000014
:1020D0002DE9F74F2E4D8A4606464FF00008AB46D5
:1020E0002C4FD04502DB03B0BDE8F08FD6F804904A
:1020F000B9F1000F47D031680846019107F096FD0D
:102100000199044609EB0100013807F08FFD844274
:102110004FF01402204B10D002FB08F36FF01502B1
:102120004BF803201D491E4840F2991207F0C1FCEC
:1021300040F29911194807F0B3FC14F1160F2C6006
:10214000F0D01978A142EDDD02FB08B0C7F8984045
:10215000C7F89840D7F89C4000F10801007B64F371
:1021600004000871D7F8A0000C79400860F3471408
:102170000C71D7F89C1021F01F016960D7F8A010EE
:1021800021F01F01296108F1010814350C36A8E778
:10219000B40C002000ED00E0B41100209EE9000026
:1021A000F9DF00002DE9F0416249634DD1F890302C
:1021B0002C68C3F307239C4286B00AD95F4940F2DA
:1021C00002225F4807F075FC40F202215B4807F0ED
:1021D00067FC0020FFF758FF5A4BC1F8C03084421B
:1021E0001BD1594D01A82C70FFF730F90026074686
:1021F0004FF06108554CB74216D100202B784D495D
:10220000D1F89020C2F307229342C0F28D800020C3
:10221000FFF72EFF06B0BDE8F081696801EB001101
:10222000FFF748FE0130DAE7019A300102EB0613AE
:10223000D3F80CC00CEA0401B1F1807F53D00AD866
:10224000B1F5001F29D0B1F5800F3FD0B1F5801F47
:1022500014D00136CFE7B1F1006F44D0B1F1805F07
:10226000F7D159689B681258013B21F01F000344C5
:10227000CDE9021223F01F0301220BE05968125826
:102280009B68CDE902122122013B21F01F0003448B
:1022900023F01F038DF8102032E0596812589B6814
:1022A000CDE902124122013B21F01F00034423F03B
:1022B0001F031CF0010F8DF81020059321D01F493A
:1022C00084221F4807F0F5FB84217FE759689B684B
:1022D0001258013B21F01F000344CDE9021223F004
:1022E0001F030622D6E7596812589B6821F01F0089
:1022F000013BCDE90212034423F01F038DF8108047
:102300000593287802A9FFF7EDFD002808DA0B49AC
:1023100040F235220A4807F0CCFB40F2352155E760
:102320002B7801332B7094E7C1F89830C1F8A000E6
:10233000013365E700ED00E0E8D800009EE9000009
:10234000F9DF0000AAFF4400B41100200000F0FFF4
:1023500008B5024B1B689847002008BDC80C002038
:10236000034B044A1860937843F00203937070475C
:10237000C80C0020A001002008B50549054A21F03D
:1023800007010548521AFEF735FD002008BD00BFC1
:102390000723002000FC0720CC0C002008B5244AAD
:1023A000244B1A6000F072F84FF47A612248D0F89A
:1023B0002436C3F30802C3F309434B4382F480720B
:1023C0001E49883201FB02334FF4FA215B00B3FB54
:1023D000F1F201FB12331A49B3F57A3F28BF0132FB
:1023E000C1F80429D0F820364FF47A60C3F308020C
:1023F000C3F30943434342F21C5082F4807202F259
:10240000172200FB02334FF47A701B0AB3FBF0F281
:1024100000FB12330020B3F5FA7F4FF0010328BF11
:102420000132C1F81C27C1F80009C1F8003608BD07
:102430000020A1072403002000C0FF00F82A00802C
:102440000000125048B1054B054A1B68B3FBF2F37C
:102450005843044B43F001031847704724030020FE
:1024600040420F0090C50000BFF34F8F0549064B57
:10247000CA6802F4E0621343CB60BFF34F8F00BF22
:10248000FDE700BF00ED00E00400FA050122024B69
:10249000C3F80424704700BF002008E037B540238C
:1024A0000C460A490093411A491105462346084A39
:1024B000084807F0E2FB014628B12846234603B04E
:1024C000BDE83040184703B030BD00BFEC0C002021
:1024D000E79C00000CBB0000C9B2022908B508D96E
:1024E000084909487E2207F0E4FA7E21054807F0F2
:1024F000D7FA0C22036901FB0233986E00F0070043
:1025000008BD00BFEBE90000F9DF000070B5C9B2FB
:102510000229034600690AD9174918484FF4E8729E
:1025200007F0C7FA4FF4E871134807F0B9FAEFF370
:102530001186202484F31288BFF36F8F0C2505FBCE
:102540000104A46E14F0C00401D0A24211D10122F2
:1025500005FB01008266002086F31188BFF36F8FB0
:1025600030B90C225B6802FB01335B68984700209E
:1025700070BD4FF0FF30EFE7EBE90000F9DF00003E
:1025800070B50D4606490446411A491140220548D6
:10259000FFF7BCFF2B4601462046BDE870401847B8
:1025A000EC0C00200CBB00002DE9F84300220121B7
:1025B00007464FF48770FFF7F5FA114800F070FEF8
:1025C0000446C0B900F096FE25464FF00C094FF0C6
:1025D00001083E690B4906EB451007F0B9FA031EE6
:1025E0000CDB09FB05660135032DC6F86880F0D1C8
:1025F0002046BDE8F8836FF00404F9E71C46F7E7CE
:10260000B926000010D900001FB5002201236C4636
:10261000CDE902236B46074ACDE9004407F05CFB95
:1026200028B943F609520023684602F0B1FC04B011
:1026300010BD00BFFF9C000010B5EFF311842023F4
:1026400083F31288BFF36F8F074A136823F00201E8
:10265000DB07116002D4012000F09EFE84F3118894
:10266000BFF36F8F10BD00BF700D00200C22104B08
:10267000014602FB0033002030B4D3E9185218663B
:10268000EFF31180202484F31288BFF36F8F9C6EC8
:1026900004F0C00444F002049C6680F31188BFF388
:1026A0006F8F1DB12B4630BC0248184730BC7047B5
:1026B000EC0C00200CBB000008B507281DD8DFE893
:1026C00000F025250F110425250D114B986E10F0F3
:1026D00007001BD1BDE80840FFF7C8BF0220F9E79B
:1026E0000120F7E70B4940F2FA220B4807F0E1F925
:1026F00040F2FA21074807F0D3F906494FF4417236
:10270000054807F0D6F94FF44171F3E708BD00BF63
:10271000EC0C0020EBE90000F9DF000010B4EFF34F
:102720001180202282F31288BFF36F8F17490B6844
:1027300043F0020413F001030C6017D0144BD3F8DC
:102740000C3413F4803311D0EFF3118182F312882B
:10275000BFF36F8F0F4A936E03F0C00343F0020381
:10276000936681F31188BFF36F8F012380F3118883
:10277000BFF36F8F23B100205DF8044BFFF776BFE6
:1027800001205DF8044B00F0D7BD00BF700D0020A4
:1027900000E01050EC0C00202DE9F041012206462B
:1027A0004049D1E8EF3FC1E8E02F0028F9D19BB9BB
:1027B0003D493E484B60CB608A60FEF7ABFD002888
:1027C0000ADA3B4940F2A3223A4807F072F940F294
:1027D000A321374807F064F9002E4DD0731E012B5A
:1027E00056D8012E06D1344BD3F8503403F00303EE
:1027F000012B41D007F0BCFC054650B1EFF3118826
:10280000202383F31288BFF36F8F01252A4C2B4FAF
:1028100021E02B4B1B78002BF0D00422264B804666
:10282000C3F80823F2E74DB3404607F0F0F9D4F8B7
:10283000403413F0FF030ED1D4F808215AB1C4F884
:102840000831D4F808314FF480420123C4F84034F1
:10285000C7F8A0212361D4F84C24D4F84C34D20317
:10286000E1D503F00303012B01D0012EDBD155B1DB
:1028700088F31188BFF36F8FBDE8F081002120201D
:1028800003F0D8F8D3E704220B4BC3F80423F3E793
:10289000074940F2B522074807F00BF940F2B5218D
:1028A00097E700BFE80C0020D80C00200C0D00209A
:1028B000EBE90000F9DF000000E0105000E100E06B
:1028C000B711002008B5074807F03FFC38B10648AB
:1028D000FFF746FD0448FEF711FB002008BD6FF02E
:1028E0001200FBE798BB0000ED2800000A2838B56D
:1028F0000446074D04D1AB680D2128465B68984714
:10290000AB6803485B68E1B29847204638BD00BF1A
:1029100098BB000038B5036941B91D4964221D48C0
:1029200007F0C7F864211A4807F0BAF8486830B9C8
:1029300017496522174807F0BCF86521F3E7586886
:1029400000B30024884219D108688CB99C6858608B
:10295000A14200D19860002008602AB15A680A603C
:102960009A68596002B9996000200FE02846E9E7AB
:1029700020609868814208BF9C60ECE705680446C7
:10298000002DF3D1002AE9D16FF0150038BD00BF4A
:1029900058EA0000F9DF000008B503687F2B4FEA12
:1029A000531107D80B4A03F01F0332F91120DA4004
:1029B000D2070AD4084909484FF4826207F079F82F
:1029C0004FF48261044807F06BF80360044B53F83E
:1029D000210008BDA8DF000094EA0000F9DF000034
:1029E00040D9000070B5446801F01F05207C86B016
:1029F00045EA4015A068002871D0B2F5001F04D147
:102A0000294601F0E9FA00204EE06068667CB2F5E4
:102A1000800F46624FF0000601A80196466032D151
:102A2000B3F1007F14BF052304238DF80430002385
:102A3000CDE904030393E3686E46CB4013F0010F26
:102A400034D1B2F1A07F31D168460095FFF7A4FFE1
:102A5000009B203350F82330DB0727D46A462946F1
:102A6000A06801F067F9163018D002962946A068D0
:102A700003AA01F007F8002816DB01222946A06806
:102A800001F032FABFE7B3F1C06F05D0B3F1007FB8
:102A900014BF01230223C8E70323C6E76946A068E1
:102AA00001F002FA0028E0DA06B070BD324629468D
:102AB000A06801F03FF90028D8D19DF80010A06867
:102AC00001F0D6F90028D1D00649074840F2F112AA
:102AD00006F0EFFF40F2F111024806F0E1FF6FF05F
:102AE0008500E1E7C7EA0000F9DF00002DE9F043C7
:102AF000466840F20635337CD00601F01F0747EAEE
:102B0000431748BF032302EA050558BFC2F3401329
:102B100087B0B5F5837F14468DF8033043D00DD8C8
:102B2000062D42D005D8A5B1022D12D06FF01500A8
:102B300036E0B5F5807FF9D101250AE040F20222A6
:102B4000954234D0B5F5407F33D0B5F5007FEDD157
:102B5000042522032FD5012372688B405360B0688F
:102B600080BB03A80397FFF717FF039B00EB8300CD
:102B7000C4F3004383F00103C4F34044D0F8802041
:102B800044EA43049DF8033022F4706244EA83046B
:102B900022F00F0244EA05231343C0F880300020DE
:102BA00007B0BDE8F0830925D3E70825D1E706255E
:102BB000CFE70525CDE7630341BF012372688B4052
:102BC0009360CCE739460DF1020201F0B3F814F43A
:102BD000403F804616D13946B06801F033F9B8F16C
:102BE000000FDCD19DF80210B06801F041F9002817
:102BF000D5D01E491E48FC2206F05BFFFC211B4875
:102C000006F04EFF4FF0000901ABCDE90199CDE987
:102C10000439CDF80C903946B06803AA00F032FFB1
:102C20004845BCDB14F4003314D09DF80330C4F3E2
:102C3000004484F001048DF80E308DF80C508DF8AE
:102C40000D404B463946B06803AA00F0DBFF002870
:102C5000C5DAA4E7CDE904330DF103030393394644
:102C6000B06803AA00F00EFFF1E700BFC7EA00005A
:102C7000F9DF00007F2870B54FEA50110CD8124AD6
:102C800052F8216046B13269516829B1012500F03E
:102C90001F030C689D4001B970BD8A682A400CD0A2
:102CA0004B6843B909490A48892206F002FF892185
:102CB000064806F0F5FE304698471CB123682146C9
:102CC0001C46E8E72346FAE750D9000058EA00001E
:102CD000F9DF000038B54568A868C0B101F09AF87E
:102CE0000146A0B9A86801F053F8044688B9024625
:102CF0000949A86801F00AF822460121DB20FEF705
:102D000051FF2246012140F20D10FEF74BFF00203B
:102D100038BD6FF00400FBE7752C000008B50368B0
:102D20007F2B4FEA531107D80B4A03F01F0332F9E8
:102D30001120DA40D2070AD4084909484FF48262C8
:102D400006F0B7FE4FF48261044806F0A9FE036066
:102D5000044B53F8210008BDB0DF000094EA0000E6
:102D6000F9DF0000B0D900002DE9F04F1546064606
:102D70004FF0010985B000EB8108B04503D1002078
:102D800005B0BDE8F08F3268C2F3C323082BC2F34D
:102D9000080400F2A0805149CF5C40F2FF139C422E
:102DA00008BF4FF0FF34B2F1D05F4FEA126310D288
:102DB000192B12D8DFE803F014233734282F3411ED
:102DC00011111111111111111111111111113A716A
:102DD0007477382B6AD04E2B25D06FF08500CFE763
:102DE000C5F80446621C56D003A80394FFF796FF6B
:102DF000039B4FF0010A09FA03F3436029E0C5F889
:102E00000C464FF0000B62E04FF0000AC5F8004698
:102E1000611C16D13FE04FF0010AC5F80446F7E700
:102E2000C5F80846EDE7C5F81046DBE7C5F860458C
:102E30007388601C03F001032DD0002BD4D14FF018
:102E4000010A03A80394FFF769FF039B09FA03F340
:102E500083604FF0010B326803A8130444BF4FF0A6
:102E6000010A4FF0000B01920394FFF757FF039BF9
:102E7000019A00EB8300C2F341223B02D0F880109C
:102E800043EA8203164A43EA0B030A40134343EA28
:102E90004A03C0F8803004366FE7C5F86445C7E7D9
:102EA000C5F86845C4E7C5F86C45C1E703A80394B5
:102EB000FFF734FF4FF0010B039B00EB8300D0F8CA
:102EC000803023F0E04343F08043C0F88030631C3F
:102ED000E1D0DA46BFE76FF0150051E795F1000049
:102EE000F0F0FCFF2DE9F04104460D46476807F07D
:102EF0003FF988B12021EFF311831A4681F312883C
:102F0000BFF36F8F60680068D0F83001D0B983F3E9
:102F10001188BFF36F8FEEE71E4B1B78002BE9D0B3
:102F20004FF02008642663681B68D3F83031FBB982
:102F3000012006F0C1FF013EF5D10021202002F062
:102F400079FDEFE77B6A00201D706368796A1B6872
:102F5000C3F83C170121C3F84017C3F83001D3F878
:102F60003001196582F31188BFF36F8FBDE8F081DE
:102F7000EFF311831A4688F31288BFF36F8F6168ED
:102F80000968D1F830110029DCD183F31188BFF32F
:102F90006F8FD2E7B711002070B50F48D0E9001548
:102FA000541A63EB0506640944EAC6642026E4FB70
:102FB0000615C0E9001509490020C1E900230021D8
:102FC000074BC3E9000103F0CBF901462046BDE8F9
:102FD000704003F03DB900BFB8090020A0090020EF
:102FE000B009002008B500220121E420FEF7DAFD37
:102FF000164A0020D2F8183723F44033C2F81837A5
:1030000001F0EEF9002820DB0120114901F098FAC7
:1030100000281ADB01F0A6F90E4B20F01F00C3E9CF
:1030200000010D4B0022C3E900014FF0FF304FF0CB
:10303000FF310A4BC3E90001094B0A49187A01F034
:10304000B9F967220020084B1A6008BD00200E5015
:1030500020030020B809002098090020A0090020C2
:1030600018030020992F0000AC0D002008B501F0D6
:1030700079F9064AD2E90032C01A054B61EB020128
:10308000C3E90001400940EAC16008BDB809002059
:10309000B0090020F7B5224B0146224F187A224B87
:1030A000D7E90056D3E900239E4208BF954211D1CB
:1030B000B1F1806F0ED24901012938BF01210122EF
:1030C0004D1946F10006C7E9005603B0BDE8F040CF
:1030D00001F0DABA154BDFF858C0D3E90043DCE958
:1030E000002CA41843EB0C0C4FF0200E2246634634
:1030F000C1FB0E23954276EB0301C7E900230DD2F5
:10310000291B66EB0C04C82974F10004B4BF01212B
:103110000021009101F07AFA03B0F0BD0021F8E738
:1031200018030020A8090020A0090020B8090020E9
:10313000B009002008B5024806F0A5FC002008BD33
:103140003BEB00000348452108B506F026FD0020B2
:10315000FFF78AF96DEB000003689A070CD5036846
:10316000DB070DD50922074BC3F80C250F22C3F846
:10317000042501221A60FEE7034B0360EF3B036066
:10318000704700BF00801050F000FA5008B50123CE
:10319000354AC2F80038A2F55722D2F80024334A43
:1031A000D2F84023292A01D0332A02D1304AC2F86A
:1031B0000C343048FFF7D0FF0830FFF7CDFF083060
:1031C000FFF7CAFF0830FFF7C7FF00F5F470FFF7FD
:1031D000C3FF294AD2F88C3043F44063C2F88C30E4
:1031E0000022D30003F57F0303F54043D3F8001416
:1031F00001310AD0D3F8001439B1D3F800140132E8
:10320000D3F80434402A0B60EBD11C4BD3F80026D2
:10321000D20724D41A4BD3F8182522F00302C3F89E
:103220001825D3F81825C3F81825134AD2F88C109E
:1032300041F44061C2F88C10D2F8881041F470015A
:10324000C2F88810BFF34F8FBFF36F8F0022C3F80F
:10325000A0250C4AD2F80034012BFBD008BD6FF03A
:103260000102C3F80026D5E70000125000C0FF009D
:103270000030055000F50E5000ED00E000E0105069
:1032800000E0045000900450014B1B68184700BF39
:10329000B00D0020014B07201B681847B00D00201F
:1032A00010B5104C2379D3B9012323710E4B00289C
:1032B000206018BF184600F0A5F990B923680B48A4
:1032C000002B08BF184600F0B1F850B92368084831
:1032D000002B08BF1846BDE8104000F065BA6FF03B
:1032E000770010BDB00D002089320000239F000040
:1032F0009532000008B50D4B1A7942B90C490D48BA
:10330000B12206F0D6FBB121094806F0C9FB1B68C3
:1033100053B14FF48770FEF737FC28B9BDE8084079
:103320004FF48770FEF70EBC08BD00BFB00D002043
:103330008FEB0000F9DF000008B5144B1B7953B97F
:10334000134940F20512134806F0B3FB40F2051191
:103350000F4806F0A5FB012806D0022808D058B96E
:10336000BDE8084000F074B8BDE8084000F058B966
:10337000BDE8084000F026BA05494FF492720548AE
:1033800006F097FB4FF49271E2E700BFB00D00200A
:103390008FEB0000F9DF000008B5144B1B7953B91F
:1033A000134940F22B12134806F083FB40F22B1115
:1033B0000F4806F075FB01280BD0022811D060B130
:1033C0000B494FF4A5720B4806F073FB4FF4A5713F
:1033D000EEE7BDE8084000F069B9BDE8084000F03C
:1033E00085B8BDE8084000F01BBA00BFB00D002052
:1033F0008FEB0000F9DF000038B504230A4C42F2DD
:103400001075C4F80833012363610023C4F8083140
:10341000D4F80831D4F84C34DB0304D5012006F08D
:103420004BFD013DF6D138BD00E01050064A13793E
:103430003BB9012110601171044A1846C2F84034AA
:1034400070476FF077007047B80D002000E0105013
:1034500010B5224C237943B921492248E52206F0D0
:1034600028FBE5211E4806F01BFB1F4BD3F84C142C
:10347000D3F84C24C80319D502F00302012A01D065
:103480008AB90022184BC3F840240022C3F808214F
:10349000D3F8082101221A6122688AB9D3F80821D9
:1034A000002AFBD014E0FFF7A7FFEAE7D3F848248F
:1034B000D107E6D5D3F850249207F4D422681AB184
:1034C0000422C3F8042310BDD3F80821002AFBD03E
:1034D0000022C3F80821D3F80831F4E7B80D002022
:1034E000CCEB0000F9DF000000E0105008B5094BFC
:1034F0001B7953B9084909484FF4917206F0D9FA7B
:103500004FF49171044806F0CBFABDE80840FFF78C
:1035100073BF00BFB80D0020CCEB0000F9DF000046
:1035200070B501251D4C1E4ED4F80C0300F00C00A4
:1035300000B970BDB0FA80F00021C0F11F00830017
:1035400003F580739BB203F1A04303F58713196061
:1035500005FA00F202281B68C4F8082313D1D4F836
:103560004C34D4F84C349B070AD10423C4F840549B
:10357000C4F804332561D4F80C0300F00C00D7E73D
:1035800033689847F7E7074907484FF4F57206F0A4
:1035900090FA4FF4F571034806F082FA00E01050FB
:1035A000B80D0020CCEB0000F9DF0000712238B527
:1035B000114B0021C3F8082301225A60C3F80011FF
:1035C000D3F800110D49D1F84013292901D033292E
:1035D00000D1DA6042F21074074DD5F80C3413F4C0
:1035E000803305D0012006F067FC013CF5D138BDE1
:1035F000034A5371FBE700BF00E0105000C0FF001A
:10360000C00D0020054B0246187918B91A60012236
:103610001A7170476FF07700704700BFC00D00202F
:1036200008B51D490B7943B91C491D48922206F083
:1036300040FA9221194806F033FA0022194BC3F8D8
:103640001021D3F81001C3F81821D3F81801C3F8DA
:103650001421D3F81421144AD2F84023292A01D086
:10366000332A01D101229A600022C3F80021D3F845
:10367000002101221A600A6852B90A4BD3F80021CE
:10368000002AFBD00022C3F80021D3F8003102E069
:103690007122C3F8042308BDC00D00200FEC000008
:1036A000F9DF000000E0105000C0FF0008B5084B33
:1036B0001B7943B907490848B22206F0FAF9B2214A
:1036C000044806F0EDF9BDE80840FFF76FBF00BF02
:1036D000C00D00200FEC0000F9DF0000F8B5012656
:1036E000204C214DD4F80C3303F0710303B9F8BD1D
:1036F000B3FA83F30021C3F11F039A0002F580722D
:1037000092B202F1A04202F58712116006FA03F7A5
:10371000052B1268D8B2C4F808731CD0202F0DD81E
:10372000CBB1042B0ED0114911484FF49D7206F015
:10373000C0F94FF49D710D4806F0B2F9062BF2D195
:10374000697108E002236B71C4F81411D4F81431C4
:103750002023C4F804332B689847D4F80C3303F0C3
:103760007103C3E700E01050C00D00200FEC000013
:10377000F9DF000038B580230A4C42F21075C4F816
:1037800008330123A3620023C4F81C31D4F81C3190
:10379000D4F86C34DB0304D5012006F08DFB013D29
:1037A000F6D138BD00E01050054B0246187918B923
:1037B0001A6001221A7170476FF07700704700BFDE
:1037C000C80D002008B5124A137943B911491248AF
:1037D000612206F06EF961210E4806F061F90021C0
:1037E0000E4BC3F81C11D3F81C1101215962126849
:1037F0001AB18022C3F8042308BDD3F81C21002A83
:10380000FBD00022C3F81C21D3F81C31F4E700BF21
:10381000C80D00204FEC0000F9DF000000E0105060
:1038200008B5084B1B7943B907490848732206F0CD
:1038300040F97321044806F033F9BDE80840FFF76A
:1038400099BF00BFC80D00204FEC0000F9DF000059
:10385000094BD3F8042312060DD5D3F81C2152B11D
:103860000022C3F81C21D3F81C218022C3F80823AE
:10387000024B1B681847704700E01050C80D00202D
:103880007F2898BF074B4FEA50129FBF33F9123081
:1038900000F01F0023FA00F000F0010088BF0020B4
:1038A000704700BFB8DF0000034A4309D35C00F053
:1038B0001F001844C0B270479EF1000010B50446C6
:1038C0000846FFF7F1FF04EB4000838ADA051CD5B8
:1038D000C3F3432123F4F853838204F1120204F169
:1038E000960032F8023F13F4807F03D0C3F34323E2
:1038F00099420AD09042F4D1002204EBC1035A60ED
:1039000004F19C0006F0F4FA00B910BD0549064820
:103910004FF4DB7206F0CDF84FF4DB71014806F08E
:10392000BFF800BF92EC0000F9DF000010B501689D
:1039300004460846FFF7A4FF50B90F494FF48262CE
:103940000E4806F0B6F84FF482610B4806F0A8F86E
:1039500001F01F037F2923604FEA511208D906495D
:1039600040F21942054806F0A4F840F21941ECE78C
:10397000034B53F8220010BD94EA0000F9DF000069
:1039800010DA0000072808B50AD90749074840F2AD
:10399000A73206F08EF840F2A731034806F080F80F
:1039A000800000F5807008BDD0EC0000F9DF000059
:1039B000F0B58446002587B0DFF84CE0114F019147
:1039C00002AE1EF8013B06AA02EBD30212F8144C19
:1039D00003F00703DC4014F0010406D10135042D87
:1039E000EFD10024204607B0F0BD97E80F0086E82D
:1039F0000F0056F82520136A4CF825301362002B6F
:103A0000ECD0EFE770C50000AEF10000F7B504465A
:103A10000846FFF749FF04EB4006B38A0D46DB0773
:103A20002AD5204606F068FB2946204606F084FA8F
:103A300050B1204606F0AFFA0023276807EB80005C
:103A4000C0F81035C0F81035204600242946FFF78D
:103A500035FFB48201A80195FFF768FF019B00EBD9
:103A60008300D0F88020064B134043F00203C0F8D7
:103A70008030204603B0F0BD6FF01500FAE700BFBC
:103A8000F0F0FCFF2DE9F0430E461746044685B0E2
:103A900050B95A495A4840F25E4206F00AF840F2DC
:103AA0005E41564805F0FCFF0846FFF7FDFED7F8DB
:103AB00000800546B8F1000F19D0204606F060FAE4
:103AC00018BB4346CDE900008DF80E008DF80F00BD
:103AD0000DF10F0230460DF10E0106F085FA04EBF0
:103AE0004502938A23F0020343F0010393827B682B
:103AF0009BB33146204693F80080D3F8049006F03B
:103B000034FA28B1B9F1000F1FD06FF0150027E08B
:103B100004EB4500838A23F4604323F0200383826F
:103B2000B9F1000F11D0B8F1030FEED87B6821680E
:103B30005B6893F800C04FEA8C031944B8F1000F9A
:103B400011D1C1F81085C1F8108504EB4502938AA4
:103B500023F01C0343EA88039382BB684BBB00201D
:103B600005B0BDE8F083D1F8102522F00302C1F8BA
:103B7000102522681344D3F8102522F4473222F48A
:103B80007C72C3F8102541F6F072D3F8101502EAE2
:103B9000061242EA08420A43C3F8102504EB4C031C
:103BA000A3F8A060838A43EA4C3343F02003838266
:103BB000CBE73146D3E900782046FFF77FFE002FA0
:103BC000CDD063689F4206D004F19C0006F076F9E0
:103BD000002804DAC4E7A3689845F5D1002004EB77
:103BE000C003C3E9017804EB4505AB8AC0B243EAE0
:103BF000402343F48073AB82B1E700BF92EC000036
:103C0000F9DF00002DE9FF410D4616461F46044628
:103C100050B93B493B484FF48D6205F04AFF4FF4E1
:103C20008D61374805F03CFF0846FFF73DFE8046B2
:103C300016B3204606F099F918B9204606F07CF92B
:103C400008BB2946204606F082F910B17378012B93
:103C500019D001238DF80F300023721CCDE90063C9
:103C60002846B31C0DF10F0106F0BEF904EB480223
:103C7000938A43F003039382002F3ED029462046C7
:103C800006F073F920B96FF0150004B0BDE8F081BB
:103C900000223E78236804EB480003EB8603C3F858
:103CA0001025C3F81025838A4FEA860C23F460435D
:103CB00023F0200383827978F9B12268124B6244A1
:103CC000D2F81045BF782340C2F8103541F6F073A2
:103CD000090401F4403103EA05130B433905D2F816
:103CE000104501F480110B432343C2F81035838A39
:103CF00043EA463343F0200383820020C5E700BF38
:103D000092EC0000F9DF00000FE0ECFF08B550B9BD
:103D10000649074840F2714205F0CBFE40F271417E
:103D2000024805F0BDFEC0E9031208BD92EC000098
:103D3000F9DF000070B51546044650B9124940F24B
:103D40007A42124805F0B5FE40F27A410E4805F07D
:103D5000A7FE42B90C4940F223320C4805F0A9FEF7
:103D600040F22331F2E706F0E7F848B10846FFF7E2
:103D70009BFD04EB40040020A38A5B0B2B7070BDFD
:103D80006FF01500FBE700BF92EC0000F9DF0000C8
:103D9000F8B5044650B91B491B484FF4916205F031
:103DA00088FE4FF49161174805F07AFE90F8B05004
:103DB00090F8B1701DBB84222946143007F0B9FC7D
:103DC000124B266853F83770AF4213D1002540F2EA
:103DD0000D10C6F84451D6F844310D4B9E4208BF31
:103DE000DB20FDF7AFFE0123284684F8B030C4F88D
:103DF0009C30F8BDE8B2FFF7C5FD0135E4E76FF090
:103E00007700F6E792EC0000F9DF000020DA00000E
:103E100000A00D5008B550B90849094840F28F423A
:103E200005F047FE40F28F41044805F039FE90F856
:103E3000B000003818BF012008BD00BF92EC0000A0
:103E4000F9DF000008B550B90749084840F29D4223
:103E500005F02FFE40F29D41034805F021FEBDE82C
:103E60000840FFF7D3BD00BF92EC0000F9DF00006F
:103E700008B550B909490A4840F2A44205F019FEB4
:103E800040F2A441054805F00BFE064B90F8B10046
:103E900003EB8000BDE8084006F02AB892EC000071
:103EA000F9DF00002803002010B50C4650B90B497B
:103EB0000B4840F2AB4205F0FCFD40F2AB41074835
:103EC00005F0EEFD074B90F8B10003EB800005F024
:103ED000F5FF0028A4BF2070002010BD92EC000068
:103EE000F9DF0000280300202DE9F3410D461646B6
:103EF000044650B936494FF4A562364805F0D9FD5D
:103F00004FF4A561324805F0CBFD06F020F840B92A
:103F10002F4940F235422F4805F0CBFD40F23541A4
:103F2000F0E7204606F008F82768F8B1204606F0CA
:103F30001CF88046D0B9204606F02DF80546FFF75C
:103F400021FD47F800803B58236803EB8503D3F835
:103F5000102542F00102C3F8102526B10123226882
:103F6000AB40C2F8143302B0BDE8F081D7F8143387
:103F70009B035CBF4FF40033C7F8143346B91449B0
:103F800040F24F42134805F094FD40F24F41B9E72B
:103F90002846FFF789FC04EB4004A38AC3F382039D
:103FA000042B11D0052B11D001A80195FFF7BEFC01
:103FB000019BC168D94001F001010231284602B0DD
:103FC000BDE8F04106F05DB80321F7E70221F5E70F
:103FD00092EC0000F9DF000008B550B90749084825
:103FE00040F22F5205F065FD40F22F51034805F0D5
:103FF00057FDBDE8084006F07FB800BF92EC000016
:10400000F9DF00002DE9F04F07468FB050B9734932
:10401000734840F25C6205F04CFD40F25C616F4811
:1040200005F03EFD804658F804BB90F8B140DBF83F
:1040300014136C4BC9B253F83420584641F4003184
:1040400006F02EF8820305463AD5102200210AA870
:1040500007F06FFB634BE60003EBC40463680AA838
:1040600019460193FFF7A4FC331D04934FF0000A97
:104070005D4B0DF128090393039A5A4912F8013B4D
:104080000392049A02EBD3028A5C03F0070322FA3C
:1040900003F3DB071AD40AF1010ABAF1040F09F19C
:1040A0000409E9D14FF400310022584605F0F8FF29
:1040B00001990AA8FFF77CFC0028D7D125F4003528
:1040C0000124002D74D10FB0BDE8F08F474B53444D
:1040D0000593D9F800100029DDD091FAA1F1B1FAC9
:1040E00081F1059B1C7841EA44142046FFF7DCFB74
:1040F00007EB4000828AC808C2F38203CDE9062399
:104100000293012319F8006001F0070103FA01F19D
:1041100026EA010109F8001009A80994FFF706FC36
:104120000999069A203150F8216012F0100F079B70
:10413000C6F3014623D021464046029A05F035FFDA
:1041400009A80994FFF7F2FB099BF6B2203350F857
:104150002330C3F301439E4207D10021204605F0DE
:1041600090FF3146204605F08CFF09A80994FFF71F
:10417000DDFB0122099B02FA03F30362A9E7022E89
:1041800014BF022103212046069305F07AFF069B07
:10419000032B03D0022E07D1012BE6D12146404646
:1041A000029A05F002FFE0E7032EDED1022BF4E7CE
:1041B00095FAA5F3B3FA83F304FA03F225EA0205AC
:1041C00003F5A2725BF8222007EB43034046B3F8E5
:1041D000A010C2F3014205F0E8FE72E792EC000085
:1041E000F9DF000020DA0000AEF10000AEF10000BF
:1041F0000123034A03FA00F0936803439360704776
:104200006000002073B504460191EFF3118620236E
:1042100083F31288BFF36F8F0B4D019B6A6801A86F
:104220001340019305F04AFE002807DB01226B686A
:10423000824023EA02036B602070002086F311881D
:10424000BFF36F8F02B070BD6000002008B5144B43
:10425000027AD3F8101521F001010A43C3F81025A2
:104260000268B2F5803F0AD30E4940F2B9720E4897
:1042700005F01FFC40F2B9710A4805F011FCC3F8C3
:10428000A4264268FF2A08D9064940F2C4720648AB
:1042900005F00FFC40F2C471EEE7C3F8AC2608BD90
:1042A00000200E5005ED0000F9DF00000B2808B5D6
:1042B00001D800290ADA0A490A4840F2165205F0E4
:1042C000F8FB40F21651064805F0EAFB000100F148
:1042D000A04041EAC27100F56220C0F8281508BD6F
:1042E00005ED0000F9DF00000B2808B50AD91049D8
:1042F0004FF4A0620F4805F0DCFB4FF4A0610C48BE
:1043000005F0CEFBB3F5801F08D3094940F20252F5
:10431000084805F0CEFB40F20251F0E7000100F141
:10432000A04000F56220C0F82025C0F8243508BD63
:1043300005ED0000F9DF0000012303FA00F010F0A2
:10434000670F0AD0064B5B68DB4303F06703034249
:104350000CBF6FF01500002070474FF0FF30704722
:104360006000002038B50F4B1B78012B0ED14FF0A9
:10437000FF306FF040410C4CD4E90023904271EBC8
:104380000305F9D31046C3F3130138BD07490848A4
:1043900040F2191205F08DFB40F21911034805F0A7
:1043A0007FFB00BF6000002040270E5038ED00006A
:1043B000F9DF000030B50C25074B1C1894F8544069
:1043C00005FB0433C3E9031218750123034A834034
:1043D000C2F8243330BD00BF6000002000200E5022
:1043E000F0B5504D85B02C78002C40F095804E4AA9
:1043F00001AB07CA83E807004C491846D1F81025DD
:1044000022F00202C1F81025FFF720FF07236722E0
:1044100002F001012144013BCCB24FEA5202F7D134
:10442000052C7CD119464FF0010C3E4E002467202C
:10443000CFB204E00CFA02F220EA0200013490FA52
:10444000A0F25FFA84FE7745B2FA82F2F2D8013127
:10445000327505292A4482F8547006F10C06E5D11C
:104460000121002432489A0801FA02F212F0670F83
:1044700018BF1C500433302BF5D1E420FDF762FB4C
:104480002A4B0024D3F81025012622F00202C3F89B
:10449000102540F6FF72C3F82823C3F88041C3F803
:1044A0008040C3F88441C3F88440C3F88841C3F80E
:1044B0008840C3F88C41C3F88C40C3F89041C3F8DE
:1044C0009040C3F89441C3F89440C3F89841C3F8AE
:1044D0009840C3F89C41C3F89C40C3F8A041C3F87E
:1044E000A040C3F8A441C3F8A440C3F8A841C3F84E
:1044F000A840C3F8AC41C3F8AC401E660D4B0E4A51
:104500001B685D20B3FBF2F358430C4B33439847D1
:1045100020462E7005B0F0BD6FF07700FAE76FF01F
:104520008B00F7E76000002080C5000000200E50DF
:1045300000210E502403002040420F00A0C50000BF
:1045400038B52C4B0D461B78012B0AD02A492B4835
:1045500040F2062205F0ADFA40F20621264805F0A9
:104560009FFA274BD3F8102594073CD4D3F8102595
:1045700042F00202C3F81025C0B1D3F8482712F068
:10458000010202BFD3F8481741F00101C3F84817F0
:104590001B4BD3F84017D3F844174800F9D42AB975
:1045A000D3F8482722F00102C3F84827154B164AD2
:1045B0001B68B3FBF2F3124A03EB4313B3B1D2F817
:1045C0004017D2F8441749000BD44FF0FF3128466A
:1045D000FFF718FE044610B92878FFF709FE2046B9
:1045E00038BD013BEAE76FF07704F8E76FF073043A
:1045F000F5E700BF6000002038ED0000F9DF0000A3
:1046000000200E502403002040420F002DE9F0410D
:1046100004461D46FFF790FE904607469DF8186039
:1046200050B11549154840F2BB2205F042FA40F25C
:10463000BB21114805F034FA11490B1993F8543095
:104640000C3301EBC30041F8332045602B46204674
:104650006EB10C4EA400FFF747FE33592BB1FFF7A4
:1046600081FE4045A94100D23751BDE8F081BDE847
:10467000F041FFF739BE00BF38ED0000F9DF000060
:104680006000002000210E50F8B50546FFF754FEEB
:1046900050B11149114840F2193205F00AFA40F2BE
:1046A00019310D4805F0FCF90D48431993F85430C1
:1046B0000C3350F8334000EBC30CDCF80460641892
:1046C00046F1000640F83340CCF804602846BDE8C7
:1046D000F840FFF7EBBD00BF38ED0000F9DF000048
:1046E00060000020F7B5374B374CD3F82C5304F15A
:1046F00088060DB903B0F0BD95FAA5F00123B0FA14
:1047000080F08340DF4325EA0305231893F8541013
:104710000C2303FB01431A7D82420AD02B492C480B
:1047200040F2B73205F0C5F940F2B731274805F03D
:10473000B7F9DA684FEA800C002A3BD0D6E8EF3FA1
:1047400003EA0702C6E8EE2FBEF1000FF6D1C34020
:10475000DB0727D50B2809DD1E491D4840F20B5207
:1047600005F0A7F940F20B511A48E0E7020102F107
:10477000A04202F56222D2F82435D2F82025164F45
:104780006744D7F800C0BCF1000FB2D04FF0000C66
:10479000C7F800C00C2707FB01410F690097C968E3
:1047A0008847A6E701F10C0304EBC30754F8332054
:1047B0007B68E4E7084B53F80C10002999D043F8C4
:1047C0000C2096E700200E506000002038ED00001D
:1047D000F9DF000005ED000000210E5005490648F4
:1047E00040F2D62208B505F064F940F2D62101481E
:1047F00005F056F974ED0000F9DF0000202908B536
:1048000001D9FFF7EBFF054B40EA0120C3F8000593
:10481000D3F80024D207FBD508BD00BF00E0045048
:1048200010B5436904463BB90020E2684042537822
:1048300043F00103537010BD98470028F4D000F1F5
:10484000FF03FE2B08D906490648212205F031F95D
:104850002121034805F024F9E36840421870E4E799
:10486000A8ED0000F9DF0000F7B504460D46EFF3B0
:104870001187202383F31288BFF36F8F1F4A042808
:10488000966898BF1E4B127C94BF53F820301D4B86
:104890000092452102461C4805F07FF93DB1EB69C5
:1048A000C3F308031BB14521184805F076F936B16A
:1048B000304605F063FC034608B1027802B9144B98
:1048C00032464521134805F068F929462046FEF78F
:1048D00039FC042C08D110491048872205F0E9F86A
:1048E00087210D4805F0DCF887F31188BFF36F8F3F
:1048F000304603B0BDE8F040FDF734BAD00D0020DB
:1049000030DA0000CBED0000E1ED00000EEE00001B
:10491000D9ED000034EE000051EE0000F9DF000098
:1049200038B50A4B53F82040013053F82050A542C7
:1049300000D838BD606830B1037EDB0701D4FFF7D3
:104940006FFF0834F3E723689847FAE744DA00007A
:10495000012270B5324B86B003201A70FFF7E0FFDA
:1049600005F07AFC0420FFF7DBFF2E4C2E4DAC4205
:10497000264624D92D4944222D4805F09AF8442191
:104980002A4805F08DF854F80C3C059354F8103C77
:10499000049354F8143C039354F8183C029354F8CD
:1049A0001C3C019354F8203C009354E90A2354E939
:1049B0000C0100F04DFB54F8303C5E65D7E7AE4289
:1049C00004F13004DFD300F09DFE164CAC421BD93D
:1049D00016496822164805F06CF86821D0E7D4E93A
:1049E0000A23B3F1FF3F08BFB2F1FF3F05D052EAFF
:1049F0000301206803D101F04BF83034E6E70D499C
:104A0000183001F009FBF8E7E9D300F0CDFEFCF720
:104A1000AFF8094A938923F00103938106B070BD72
:104A2000B7110020C4C40000C4C40000BDEE0000E3
:104A3000F9DF000045540000880A0020C82370B543
:104A4000134E012203FB0066002386B0CDE9042348
:104A50000F220193CDE9023218234FF4A0720D4DBD
:104A60000D4903FB0055044602FB00110B4B304679
:104A7000009500F0EDFA337C2C7423F004033374BA
:104A8000074B013403EBC423EE606B6006B070BDCE
:104A9000C0090020D00D0020C0190020A14B00004B
:104AA000C01100207FB50020FFF73AFF304B03F51F
:104AB000006282F3088883F30A88E0232D4C84F88F
:104AC00022300023E37723766376A37684F82030C0
:104AD000626A42F4E022626284F82330FCF79EFFAF
:104AE000FDF72AF94FF0FF33A362E362FDF75AFBAB
:104AF000FDF7C2F9204800F003FB204B204A934207
:104B00000AD920492048CC2204F0D3FFCC211D48EB
:104B100004F0C6FF1C33F2E7FCD30120FFF700FFCF
:104B200002201A4CFFF7FCFE00F098FE184B0025FF
:104B30009C61184B4FF40062059301231649CDE99F
:104B400003532046154BCDE90155009500F080FA3E
:104B50000646237C204623F00403237400F03EFC29
:104B60002846FFF76BFF314620460C4AFDF7B8F8A0
:104B7000C011002000ED00E0500B00200CBB000035
:104B8000B4BB0000BDEE0000F9DF0000880A002081
:104B9000D00D0020DEEE0000001B00205149000077
:104BA00008B50C4B9B6893F90E30002B09DB2024D1
:104BB000EFF3118384F31288BFF36F8F05F01AF8B7
:104BC000F6E7054905481C2204F073FF1C21024842
:104BD00004F066FFD00D0020E6EE0000F9DF0000D3
:104BE0002DE9F341044617461E46EFF3058545B10E
:104BF0004D494E48732204F05CFF73214A4804F08B
:104C00004FFFEFF31188202383F31288BFF36F8FD8
:104C1000474801F0A7F938B946498422434804F0CF
:104C200048FF84214348EAE7414801F0BFF9424B7D
:104C3000E2689B6892B1A068984222D057EA0602C7
:104C400027D13B4801F09CF990B188F31188BFF35C
:104C50006F8F6FF00F0002B0BDE8F08193F90E1076
:104C60000132C4E902323248216101F089F950B9B8
:104C700030494FF499722D4804F01BFF4FF499719D
:104C8000D0E72169ECE788F31188BFF36F8F00202C
:104C9000E1E793F90E1090F90E30994205DA994246
:104CA000A8BF194605F05CFA054622464146CDE903
:104CB00000761F4800F0FCFB0028E8D0EFF31186D7
:104CC000202383F31288BFF36F8F194801F04AF94C
:104CD0000028A1D0164801F069F9A068C0B1236886
:104CE00021699C420AD04BB193F90E309942A8BF7A
:104CF00019466FF07F039942B8BF194605F030FAA4
:104D000030B131460A4805F07DFA6FF00A00A2E79B
:104D1000002DF6D1064801F033F90028A8D086F31B
:104D20001188BFF36F8FF0E707EF0000F9DF000095
:104D3000F40D0020E2E20000D00D0020F8B5054699
:104D4000EFF3058343B14B49EA224B4804F0B1FE2F
:104D5000EA21484804F0A4FE8368002B00F0848018
:104D6000464A9268934240F08280C36843B9414901
:104D70004FF48172404804F09CFE4FF48171E8E7E3
:104D8000012B03D0013BC3600020F8BDEFF3118776
:104D9000202484F31288BFF36F8F394801F0E2F8C2
:104DA00038B938498422344804F083FE84213548D8
:104DB000D0E7334801F0FAF82969A86805F0D0F97E
:104DC000EFF3118384F31288BFF36F8F83F311889D
:104DD000BFF36F8F3BB92C49BB22274804F069FE13
:104DE000BB212948B6E72C68AC420FD100232448E8
:104DF000C5E9023301F0C4F888BB22494FF4997227
:104E00001D4804F056FE4FF49971D0E7002CEDD008
:104E1000A36833B91C49A422174804F04AFEA42110
:104E2000DFE70026D4E9003213605A60237CC4E92E
:104E3000006623F002032374A66004F1180001F059
:104E4000ADF9AC6094F90E3020462B61C4F8806057
:104E500000F0C4FA39460A4805F0D4F994E787F31C
:104E60001188BFF36F8F8FE76FF015008DE74FF05C
:104E7000FF308AE707EF0000F9DF0000D00D0020C7
:104E8000F40D0020E2E2000029EF000008B583687D
:104E900043B90B490B48A42204F00BFEA421084897
:104EA00004F0FEFDD0E9003213605A600023027C5A
:104EB000C0E9003322F002020274836008BD00BF23
:104EC00029EF0000F9DF000070B50446EFF311860A
:104ED000202585F31288BFF36F8F294801F042F82F
:104EE00038B928498422284804F0E3FD8421254864
:104EF00014E0234801F05AF8EFF3118385F3128888
:104F0000BFF36F8F83F31188BFF36F8F43B91F49CE
:104F10001D48BB2204F0CDFDBB211C4804F0C0FDA0
:104F20002568AC4213D095B12846FFF7AFFF05F1D5
:104F3000180001F033F900232846C5F8803000F04E
:104F40004DFA3146BDE870400D4805F05BB9D4E933
:104F500002329A4218BF01330948A36001F010F8E9
:104F600040B908494FF49972074804F0A2FD4FF484
:104F70009971BCE786F31188BFF36F8F70BD00BFD6
:104F8000F80D0020E2E20000F9DF000029EF000048
:104F9000F7B5044616461D46EFF305835BB152EAAA
:104FA000050308D026492748882204F082FD88217D
:104FB000234804F075FDEFF31187202383F3128853
:104FC000BFF36F8F204800F0CDFF38B91F4984220E
:104FD0001C4804F06EFD84211C48EAE71A4800F0E2
:104FE000E5FFA368ABB1013B1748A36000F0C8FF21
:104FF00040B916494FF49972124804F05AFD4FF423
:105000009971E9E787F31188BFF36F8F002003B030
:10501000F0BD56EA05030BD10B4800F0B1FF0028A4
:10502000E7D087F31188BFF36F8F6FF00F00EEE7C3
:1050300022463946CDE90065034800F039FAE6E733
:1050400054EF0000F9DF0000F80D0020E2E200005C
:105050002DE9F04385B098460F9B04460F2B0E4672
:1050600037D12349884538D104F15801C4E91611D4
:1050700010990027A1810421073222F0070506EBD1
:1050800005092174A37349462046C4E90677A76041
:10509000E773FCF777FA0E9B073020F007002067D4
:1050A000C4E91A6502930D9BA9EB000901930C9BBF
:1050B0004A460093314643462046FCF7CDFD0D4B52
:1050C00067659B6803B15B6F4846636705B0BDE8E1
:1050D000F08303F110011E29C6D90749074840F2A1
:1050E0004B2204F0E6FC40F24B21034804F0D8FCCC
:1050F000A14B0000D00D002074EF0000F9DF00008C
:105100000123037483810023C0E91A334367014BF1
:1051100098607047D00D002070B590F91020037C86
:10512000002A44DBD90642D163F07F030374244B89
:10513000984208D123492448522204F0BAFC522153
:10514000204804F0ADFC214C224652F81C3F216A55
:10515000934207D1C0E90021086020620FE08B4232
:10516000F8D01B68002BF5D093F90E6090F90E5023
:10517000AE42F4DD5968C0E9003108605860E56965
:10518000954200D005B9E568A3683BB910490E48BF
:10519000EA2204F08EFCEA210D48D2E71A7CD206FE
:1051A00006D1DA897F2A03D9AA690AB9A36170BD39
:1051B000AB4202D0284600F061FEA561F7E700BFD0
:1051C000C009002097EF0000F9DF0000D00D00209B
:1051D000B9EF000038B590F910200146002A037C91
:1051E00019DA1F4A03F07F039042037408D11D4966
:1051F0005A221D4804F05DFC5A211A4804F050FC64
:10520000DC0706D517495B22174804F052FC5B21E6
:10521000F3E704F0B5FF154D2A4652F81C4FAB6872
:10522000944200D004B9EC688B4210D03BB91049CD
:105230000D48EA2204F03DFCEA210D48DEE71A7C25
:10524000D20604D1DA897F2A01D9A2692AB1A34200
:1052500002D0204600F012FE2346AB6138BD00BFED
:10526000C009002097EF0000F9DF0000D00D0020FA
:10527000B9EF000008B5114A936860B1197C11F0CC
:10528000090F08D10E490F48D92204F012FCD92188
:105290000B4804F005FC6FF00A01C3F880100A49BE
:1052A000D8674B6843F080534B60002383F3118829
:1052B000BFF36F8F9368D3F8800008BDD00D002036
:1052C000E5EF0000F9DF000000ED00E038B503462F
:1052D0000C46D1B9EFF30585BDB9154A91699268BD
:1052E000914212D000F04CFE50B9124940F26D12BA
:1052F000114804F0DEFB40F26D110E4804F0D0FBC3
:105300002846BDE83840FFF7B5BF184600F038FE24
:1053100040B908494FF49972074804F0CAFB4FF4AA
:105320009971EAE784F31188BFF36F8F38BD00BF2E
:10533000D00D0020E2E20000F9DF000008B583682C
:1053400043B909490948A42204F0B3FBA421064843
:1053500004F0A6FB04F014FF037C23F002030374A3
:105360000023836008BD00BF29EF0000F9DF0000C3
:1053700038B5184CA168206A0B68814214BF1A46E0
:10538000002249680B605960A368216A2AB9124A51
:10539000C3E900210B6023620AE092F90E5093F9F1
:1053A0000E00854212DD5168C3E900210B60536095
:1053B000E569094B9D4200D005B9E568A3689D42A7
:1053C00002D0284600F05AFDA56138BD8A42DED0E1
:1053D0001268DBE7D00D0020EC0D002038B5044644
:1053E000EFF31185202383F31288BFF36F8F1248E8
:1053F00000F0B8FD40B911498422114804F059FB6E
:1054000084210E4804F04CFB0B4800F0CFFD2046F1
:10541000FFF782FE084800F0B3FD40B907494FF49A
:105420009972074804F045FB4FF49971E9E785F359
:105430001188BFF36F8F38BDFC0D0020E2E2000041
:10544000F9DF000038B5A0F11804EFF3118520232F
:1054500083F31288BFF36F8F124800F083FD40B9C9
:1054600011498422114804F024FB84210E4804F0E1
:1054700017FB0C4800F09AFD204604F0AFFE0948E7
:1054800000F07EFD40B908494FF49972074804F0D6
:1054900010FB4FF49971E9E785F31188BFF36F8F23
:1054A00038BD00BFFC0D0020E2E20000F9DF000083
:1054B0002DE9F047DFF8C8A02B4F1646DDE9089824
:1054C000DAF80820294BB84204460D461A600AD182
:1054D0002749284840F2B92204F0EBFA40F2B921FA
:1054E000234804F0DDFAEFF31183202383F31288BD
:1054F000BFF36F8F384600F035FD38B91E4984225E
:105500001C4804F0D6FA84211B48EAE7384600F02C
:105510004DFDDAF808703146384604F039FEB8F12E
:10552000FF3F08BFB9F1FF3F06D04A464346134943
:1055300007F1180000F070FD204600F021FD40B991
:105540000D4940F26D120B4804F0B3FA40F26D11B0
:10555000DAE7054800F014FD0028F1D02846BDE840
:10556000F047FFF787BE00BFFC0D0020000E0020B3
:1055700097EF0000F9DF0000E2E200004554000070
:10558000D00D00202DE9F04104460D46EFF31187C0
:10559000202383F31288BFF36F8F534800F0E2FC9F
:1055A00038B952498422524804F083FA84214F4882
:1055B00017E04D4800F0FAFC237C03F01F02002A9C
:1055C0000CBF012600265BD103F07F032374494BF7
:1055D0009C4208D148495A22454804F06AFA5A21A7
:1055E000454804F05DFA204604F0CAFD237C6DB204
:1055F00043F08003DA07A573237406D53E4953228E
:105600003B4804F056FA5321EAE7DFF8F4804246BB
:1056100052F81C3FD8F82010934208D1C4E9002169
:105620000C60C8F820400DE08B42F7D01B68002BBF
:10563000F4D093F90E00A842F6DD5968C4E90031B0
:105640000C605C60D8F81C40944200D00CB9D8F8CB
:105650000C40D8F808309C4202D0204600F00EFCE6
:10566000C8F81840204800F08BFC002834D11F49AE
:105670004FF499721E4804F01CFA4FF4997196E7A2
:105680009B0727D5A16839B91C491948A42204F001
:1056900010FAA4211948A4E720466DB204F070FD69
:1056A000A5730B68994209D14B68C4E900131C60CB
:1056B0004C60D7E74A689342F6D01B68002BF3D0C2
:1056C00093F90E20AA42F5DD5A68C4E9003214604D
:1056D0005C60C7E7A573C5E787F31188BFF36F8FD9
:1056E0003046BDE8F08100BFFC0D0020E2E2000082
:1056F000F9DF0000C009002097EF000029EF00004B
:10570000D00D002010B5EFF31184202383F312880D
:10571000BFF36F8F1F4800F025FC38B91E49842263
:105720001E4804F0C6F984211B480EE0194800F019
:105730003DFCEFF3058353B1194940F23B32174862
:1057400004F0B7F940F23B31154804F0A9F9154BC4
:105750009A68D37B012B08D111494FF44F720F483F
:1057600004F0A7F94FF44F71EEE7013BD3730948FA
:1057700000F006FC40B908494FF49972074804F05C
:1057800098F94FF49971CFE784F31188BFF36F8FC5
:1057900010BD00BFFC0D0020E2E20000F9DF0000B8
:1057A00097EF0000D00D002070B5EFF31186202395
:1057B00083F31288BFF36F8F234800F0D3FB40B907
:1057C00022492348842204F074F984211F4804F0FC
:1057D00067F9204D1C4800F0E9FBAB68DA7B4AB959
:1057E0001D4940F24D321A4804F063F940F24D3140
:1057F0001948ECE7EFF3058141B1174940F24E3209
:10580000134804F056F940F24E31F1E70132DA73F1
:105810002A4652F81C4F944200D004B9EC681A7C16
:10582000D20604D1DA897F2A01D9A2692AB19C4221
:1058300002D0204600F022FB2346AB613146BDE892
:1058400070400148FFF742BDFC0D0020E2E200007D
:10585000F9DF0000D00D002097EF0000024B03F1AC
:105860001C02C3E907227047D00D002070B5EFF38A
:10587000058353B1314932484FF4906204F019F96D
:105880004FF490612D4804F00BF9EFF311862023BB
:1058900083F31288BFF36F8F2A4800F063FB38B997
:1058A00029498422264804F004F984212648EAE79D
:1058B000264C244800F07AFBA168206A0B688142DC
:1058C00014BF1A46002249680B605960A368216A18
:1058D0002AB91F4AC3E900210B6023620AE092F94A
:1058E0000E5093F90E0085421EDD5168C3E9002178
:1058F0000B605360E569164B9D4200D005B9E56821
:10590000A3689D4202D0284600F0B8FA0D48A56170
:1059100000F036FB60B90C4940F26D12084804F003
:10592000C8F840F26D11C1E78A42D2D01268CFE7C1
:105930003046BDE87040FFF79DBC00BF97EF000008
:10594000F9DF0000FC0D0020E2E20000D00D002095
:10595000EC0D00202DE9F04106460C46EFF30587DB
:1059600057B12D492D484FF4936204F0A2F84FF43B
:105970009361294804F094F850EA010304D1FFF739
:1059800075FF0020BDE8F081EFF31188202383F339
:105990001288BFF36F8F224800F0E4FA38B921492A
:1059A00084221E4804F085F884211E48E2E71E4D3B
:1059B0001B4800F0FBFAA8681C4B1860FFF70AFCB4
:1059C000A868234632461A49183000F025FBAA6819
:1059D0000446137C124843F00403137400F0D0FA19
:1059E00040B9104940F26D120C4804F062F840F2E0
:1059F0006D11DAE74046FFF73DFCAB68D3E90A23B7
:105A0000B3F1004F08BFBA42BBD104F021FC201A09
:105A100020EAE070B6E700BF97EF0000F9DF000072
:105A2000FC0D0020E2E20000D00D0020000E00205E
:105A300045540000F8B507460E46EFF3058454B10F
:105A40001149124840F2C64204F033F840F2C64110
:105A50000D4804F025F8FFF77DFFB6F1FF3F08BFC2
:105A6000B7F1FF3F05460CD0214647F611204FF411
:105A70007A7447F612220023E5FB0401FAF7E0FEF0
:105A8000F8BD4FF0FF30FBE797EF0000F9DF0000B3
:105A900038B50446EFF31185202383F31288BFF352
:105AA0006F8F1B4800F05EFA40B91A4984221A48E9
:105AB00003F0FFFF8421174803F0F2FF144800F0C1
:105AC00075FA237C5B0710D504F1180000F066FB23
:105AD000237C204623F004032374FFF71DFB294693
:105AE000BDE838400A48FFF7F1BB094800F048FA22
:105AF00040B908494FF49972074803F0DAFF4FF4B0
:105B00009971D8E785F31188BFF36F8F38BD00BF57
:105B1000FC0D0020E2E20000F9DF0000014B986874
:105B2000704700BFD00D00202DE9F8430446878957
:105B3000EFF31185202383F31288BFF36F8F75482D
:105B400000F010FA40B974498422744803F0B1FFA0
:105B50008421714803F0A4FF6E4800F027FA237CEB
:105B6000180712D56B4800F00BFA40B96A494FF498
:105B700099726A4803F09DFF4FF49971E9E785F344
:105B80001188BFF36F8FBDE8F883D90943F008028D
:105B90007DD12274A36813B12046FFF7CFFB04F137
:105BA000180000F0FBFAA66D04F15808B04511D0BA
:105BB0004FF0000976B13046FFF7C0FB06F1180040
:105BC00000F0ECFA3046C6F88090FFF7A5FAA66D13
:105BD000B045EFD1DFF85881D8F808309C4273D136
:105BE000EFF30589B9F1000918BF4FF00109D8F8A2
:105BF0001C604B4A964200D00EB9D8F80C60B342F4
:105C000002D0304600F03AF92046C8F8186003F098
:105C1000E8FFB9F1000F02D04248FFF771FAD8F857
:105C200008309C425FD1EFF30586002E5BD1A3893B
:105C3000DA071FD5374800F0A3F9002896D085F37E
:105C40001188BFF36F8F86F31188BFF36F8F042322
:105C5000184602DFEFF31185202383F31288BFF388
:105C60006F8F2C4800F07EF900283FF46CAF294874
:105C700000F09CF9274800F083F940BB264940F228
:105C80006D12264803F015FF40F26D1161E7264AB8
:105C900003F07F0343F008039442237407D12349A0
:105CA0005A221E4803F005FF5A21204852E7D9071F
:105CB00006D51E495B22194803F0FBFE5B21F4E781
:105CC000204604F05DFA65E74FF000098FE72846AB
:105CD000FFF7D0FA15494FF4EE72104803F0E9FED1
:105CE0004FF4EE71E1E70B4800F04AF900283FF469
:105CF0003DAF85F31188BFF36F8FFB077FF543AF8F
:105D00000A4940F2A252054803F0D3FE40F2A251E4
:105D1000CBE700BFFC0D0020E2E20000F9DF00004D
:105D2000EC0D0020500B0020C009002097EF000070
:105D3000D00D00202DE9F0470546884616461F463F
:105D4000EFF31189202383F31288BFF36F8F234869
:105D500000F008F940B922498422224803F0A9FE44
:105D600084211F4803F09CFE1C4800F01FF928689E
:105D7000854208D038B16B6898420CBF4FF0000ADA
:105D8000D0F800A088B9002416B139462046B047A3
:105D9000124800F0F5F8D0B911494FF49972114842
:105DA00003F087FE4FF49971DBE73946C04704469C
:105DB0000028E9D1BAF1000F07D06B68534501D034
:105DC000DAF800405046A246DCE75446FAE789F389
:105DD0001188BFF36F8F2046BDE8F087FC0D0020CF
:105DE000E2E20000F9DF0000027C034612F01F022D
:105DF00010D10A4988420DD00949086868B1D9898B
:105E00007F2909D893F90E20064B1B689A42B8BF28
:105E1000002070470020704710467047C0090020DE
:105E200030030020040E002008B568B10E4B9842E4
:105E30000AD303F11802904206D21822C01AB0FB0E
:105E4000F2F302FB130343B1084909483F2203F070
:105E500030FE3F21054803F023FE0122054BC01010
:105E60005843054B1A5408BD180C00200FF00000D1
:105E7000F9DF0000ABAAAAAAB811002070B50C4B3C
:105E80000C4D1E7CFFF7B0FF182303FB065504469C
:105E9000284600F083F90022074B9A553CB1621E58
:105EA0002846BDE870400549D31700F0B5B870BD6D
:105EB000D00D0020180C0020B8110020295E000031
:105EC00038B5EFF31185202383F31288BFF36F8F6A
:105ED0001E4800F047F840B91D4984221D4803F0D0
:105EE000E8FD84211A4803F0DBFD184800F05EF855
:105EF000194B1A4A9C681068A0420ED1FFF7BEFFEA
:105F0000124800F03DF8D8B911494FF49972114880
:105F100003F0CFFD4FF49971E4E700211B7C116081
