:10000000204C00206D4500009BEB0000594500008E
:100010005945000059450000594500005945000068
:100020000000000000000000000000003D4600004D
:100030005945000000000000AD480000594500008F
:1000400069490000694900006949000069490000E8
:1000500069490000694900006949000069490000D8
:1000600069490000694900006949000069490000C8
:1000700069490000694900006949000069490000B8
:1004800081F0004102E000BF83F0004330B54FEA45
:1004900041044FEA430594EA050F08BF90EA020FB2
:1004A0001FBF54EA000C55EA020C7FEA645C7FEA45
:1004B000655C00F0E2804FEA5454D4EB5555B8BF68
:1004C0006D420CDD2C4480EA020281EA030382EAD9
:1004D000000083EA010180EA020281EA0303362D6B
:1004E00088BF30BD11F0004F4FEA01314FF4801C3E
:1004F0004CEA113102D0404261EB410113F0004F50
:100500004FEA03334CEA133302D0524263EB430306
:1005100094EA050F00F0A780A4F10104D5F1200EA4
:100520000DDB02FA0EFC22FA05F2801841F10001FF
:1005300003FA0EF2801843FA05F359410EE0A5F1D3
:1005400020050EF1200E012A03FA0EFC28BF4CF004
:10055000020C43FA05F3C01851EBE37101F00045BA
:1005600007D54FF0000EDCF1000C7EEB00006EEBC7
:100570000101B1F5801F1BD3B1F5001F0CD3490851
:100580005FEA30004FEA3C0C04F101044FEA4452A8
:1005900012F5800F80F09A80BCF1004F08BF5FEA2F
:1005A000500C50F1000041EB045141EA050130BD0F
:1005B0005FEA4C0C404141EB0101013C28BFB1F521
:1005C000801FE9D291F0000F04BF01460020B1FA6C
:1005D00081F308BF2033A3F10B03B3F120020CDA3F
:1005E0000C3208DD02F1140CC2F10C0201FA0CF01D
:1005F00021FA02F10CE002F11402D8BFC2F1200C82
:1006000001FA02F120FA0CFCDCBF41EA0C01904037
:10061000E41AA2BF01EB0451294330BD6FEA040480
:100620001F3C1CDA0C340EDC04F11404C4F120026B
:1006300020FA04F001FA02F340EA030021FA04F37D
:1006400045EA030130BDC4F10C04C4F1200220FAD4
:1006500002F001FA04F340EA0300294630BD21FA12
:1006600004F0294630BD94F0000F83F4801306BFD8
:1006700081F480110134013D4EE77FEA645C18BFCC
:100680007FEA655C29D094EA050F08BF90EA020F63
:1006900005D054EA000C04BF1946104630BD91EA5B
:1006A000030F1EBF0021002030BD5FEA545C05D15E
:1006B0004000494128BF41F0004130BD14F580049D
:1006C0003CBF01F5801130BD01F0004545F0FE4111
:1006D00041F470014FF0000030BD7FEA645C1ABF46
:1006E000194610467FEA655C1CBF0B46024650EA7D
:1006F000013406BF52EA033591EA030F41F40021A9
:1007000030BD00BF90F0000F04BF0021704730B52E
:100710004FF4806404F132044FF000054FF0000103
:1007200050E700BF90F0000F04BF0021704730B5C4
:100730004FF4806404F1320410F0004548BF404299
:100740004FF000013EE700BF42004FEAE2014FEAEE
:1007500031014FEA02701FBF12F07F4393F07F4FC9
:1007600081F06051704732F07F4208BF704793F0CC
:100770007F4F04BF41F40021704730B54FF46074DF
:1007800001F0004521F000411CE700BF50EA0102E2
:1007900008BF704730B54FF000050AE050EA01028B
:1007A00008BF704730B511F0004502D5404261EBFB
:1007B00041014FF4806404F132045FEA915C3FF43C
:1007C000D8AE4FF003025FEADC0C18BF03325FEAD9
:1007D000DC0C18BF033202EBDC02C2F1200300FA8A
:1007E00003FC20FA02F001FA03FE40EA0E0021FAAF
:1007F00002F11444BDE600BF70B54FF0FF0C4CF49D
:10080000E06C1CEA11541DBF1CEA135594EA0C0F4E
:1008100095EA0C0F00F0DEF82C4481EA030621EA89
:100820004C5123EA4C5350EA013518BF52EA0335C4
:1008300041F4801143F4801338D0A0FB02CE4FF076
:100840000005E1FB02E506F00042E0FB03E54FF0A6
:100850000006E1FB03569CF0000F18BF4EF0010E9E
:10086000A4F1FF04B6F5007F64F5407404D25FEA9A
:100870004E0E6D4146EB060642EAC62141EA55514D
:100880004FEAC52040EA5E504FEACE2EB4F1FD0C8F
:1008900088BFBCF5E06F1ED8BEF1004F08BF5FEA0D
:1008A000500E50F1000041EB045170BD06F00046BF
:1008B00046EA010140EA020081EA0301B4EB5C046C
:1008C000C2BFD4EB0C0541EA045170BD41F4801164
:1008D0004FF0000E013C00F3AB8014F1360FDEBF89
:1008E000002001F0004170BDC4F10004203C35DA65
:1008F0000C341BDC04F11404C4F1200500FA05F3E8
:1009000020FA04F001FA05F240EA020001F0004288
:1009100021F0004110EBD37021FA04F642EB0601FE
:100920005EEA430E08BF20EAD37070BDC4F10C0428
:10093000C4F1200500FA04F320FA05F001FA04F2EC
:1009400040EA020001F0004110EBD37041F10001D8
:100950005EEA430E08BF20EAD37070BDC4F12005E3
:1009600000FA05F24EEA020E20FA04F301FA05F24B
:1009700043EA020321FA04F001F0004121FA04F2F3
:1009800020EA020000EBD3705EEA430E08BF20EAC3
:10099000D37070BD94F0000F0FD101F000464000FD
:1009A00041EB010111F4801F08BF013CF7D041EA7F
:1009B000060195F0000F18BF704703F00046520083
:1009C00043EB030313F4801F08BF013DF7D043EA54
:1009D0000603704794EA0C0F0CEA135518BF95EA0A
:1009E0000C0F0CD050EA410618BF52EA4306D1D191
:1009F00081EA030101F000414FF0000070BD50EAB0
:100A0000410606BF1046194652EA430619D094EA39
:100A10000C0F02D150EA013613D195EA0C0F05D123
:100A200052EA03361CBF104619460AD181EA030177
:100A300001F0004141F0FE4141F470014FF000002F
:100A400070BD41F0FE4141F4780170BD70B54FF0CA
:100A5000FF0C4CF4E06C1CEA11541DBF1CEA13554A
:100A600094EA0C0F95EA0C0F00F0A7F8A4EB05042C
:100A700081EA030E52EA03354FEA013100F0888023
:100A80004FEA03334FF0805545EA131343EA1263EC
:100A90004FEA022245EA111545EA10654FEA0026A1
:100AA0000EF000419D4208BF964244F1FD0404F55A
:100AB000407402D25B084FEA3202B61A65EB0305B6
:100AC0005B084FEA32024FF480104FF4002CB6EB73
:100AD000020E75EB030E22BFB61A754640EA0C00F3
:100AE0005B084FEA3202B6EB020E75EB030E22BF33
:100AF000B61A754640EA5C005B084FEA3202B6EB74
:100B0000020E75EB030E22BFB61A754640EA9C0032
:100B10005B084FEA3202B6EB020E75EB030E22BF02
:100B2000B61A754640EADC0055EA060E18D04FEAC0
:100B3000051545EA16754FEA06164FEAC30343EA60
:100B400052734FEAC2025FEA1C1CC0D111F4801F2D
:100B50000BD141EA00014FF000004FF0004CB6E726
:100B600011F4801F04BF01430020B4F1FD0C88BFC5
:100B7000BCF5E06F3FF6AFAEB5EB030C04BFB6EBD0
:100B8000020C5FEA500C50F1000041EB045170BDC3
:100B90000EF0004E4EEA113114EB5C04C2BFD4EBF0
:100BA0000C0541EA045170BD41F480114FF0000E74
:100BB000013C90E645EA060E8DE60CEA135594EAF0
:100BC0000C0F08BF95EA0C0F3FF43BAF94EA0C0FF3
:100BD0000AD150EA01347FF434AF95EA0C0F7FF468
:100BE00025AF104619462CE795EA0C0F06D152EABC
:100BF00003353FF4FDAE1046194622E750EA4106A0
:100C000018BF52EA43067FF4C5AE50EA41047FF4B0
:100C10000DAF52EA43057FF4EBAE12E74FF0FF3C15
:100C200006E000BF4FF0010C02E000BF4FF0010CE6
:100C30004DF804CD4FEA410C7FEA6C5C4FEA430C5F
:100C400018BF7FEA6C5C1BD001B050EA410C0CBFAE
:100C500052EA430C91EA030F02BF90EA020F002010
:100C6000704710F1000F91EA030F58BF994208BF77
:100C700090422CBFD8176FEAE37040F00100704734
:100C80004FEA410C7FEA6C5C02D150EA013C07D18B
:100C90004FEA430C7FEA6C5CD6D152EA033CD3D0D6
:100CA0005DF8040B704700BF8446104662468C46D0
:100CB0001946634600E000BF01B5FFF7B7FF002803
:100CC00048BF10F1000F01BD4DF808EDFFF7F4FF2C
:100CD0000CBF012000205DF808FB00BF4DF808EDB7
:100CE000FFF7EAFF34BF012000205DF808FB00BFDA
:100CF0004DF808EDFFF7E0FF94BF012000205DF8FC
:100D000008FB00BF4DF808EDFFF7CEFF94BF0120B0
:100D100000205DF808FB00BF4DF808EDFFF7C4FFA9
:100D200034BF012000205DF808FB00BF4FEA4102FC
:100D3000B2F1E04324BFB3F5001CDCF1FE5C0DD939
:100D400001F0004C4FEAC0024CEA5070B2F1004F83
:100D500040EB830008BF20F00100704711F0804F86
:100D600021D113F13872BCBF01F00040704741F44B
:100D700080114FEA5252C2F11802C2F1200C10FA4F
:100D80000CF320FA02F018BF40F001004FEAC12333
:100D90004FEAD32303FA0CFC40EA0C0023FA02F3D7
:100DA0004FEA4303CCE77FEA625307D150EA0133AD
:100DB0001EBF4FF0FE4040F44000704701F000407D
:100DC00040F0FE4040F40000704700BF7BB972B9AC
:100DD0000029BEBF00204FF0004106E008BF0028F8
:100DE0001CBF6FF000414FF0FF3000F057B8ADF17D
:100DF000080C6DE904CE002909DB002B1ADB00F09A
:100E000057F8DDF804E0DDE9022304B07047404202
:100E100061EB4101002B1BDB00F04AF8DDF804E038
:100E2000DDE9022304B0404261EB4101524263EB31
:100E300043037047524263EB430300F039F8DDF897
:100E400004E0DDE9022304B0404261EB4101704758
:100E5000524263EB430300F02BF8DDF804E0DDE9D8
:100E6000022304B0524263EB4303704753B94AB9BB
:100E7000002908BF00281CBF4FF0FF314FF0FF30A2
:100E800000F00CB8ADF1080C6DE904CE00F010F8DC
:100E9000DDF804E0DDE9022304B07047704700BFCD
:100EA000034613F8012B002AFBD1181A01387047AA
:100EB0002DE9F0478C468E46089E15460446194695
:100EC000002B40F0D080724547D9B2FA82F74FB17B
:100ED000C7F120030EFA07FCBD40BC4020FA03F323
:100EE00043EA0C0C4FEA154EA8B2230CBCFBFEF8EB
:100EF0000EFB18CC08FB00F943EA0C43994528D9AE
:100F0000EB1808F1FF3204D2994502D9A8F1020288
:100F10002B44A3EB0903A4B2B3FBFEFC0EFB1C3372
:100F20000CFB00F044EA0344A04214D92C190CF144
:100F3000FF3304D2A04202D9ACF102032C44241A9C
:100F400043EA02401EB1FC40002334607360BDE8F8
:100F5000F0874246DDE76346F1E7002A79D0B2FA2E
:100F600082F3002B3FD01946C1F1200302FA01F5AC
:100F700000FA01F42EFA03F20EFA01FE20FA03F34E
:100F8000AFB243EA0E034FEA154EB2FBFEFC0EFB76
:100F90001C201A0C0CFB07F842EA004290455AD973
:100FA000AA180CF1FF3004D2904502D9ACF102002E
:100FB0002A44A2EB08029BB2B2FBFEFC0EFB1C22F1
:100FC0000CFB07F743EA02439F4246D9EB180CF1AA
:100FD000FF3204D29F4202D9ACF102022B44DB1B48
:100FE00042EA004202E0AEEB020301224FEA154E54
:100FF000AFB2200CB3FBFEFC0EFB1C330CFB07F85E
:1010000040EA034398452AD9EB180CF1FF3004D28B
:10101000984502D9ACF102002B44A3EB0803A4B21B
:10102000B3FBFEFC0EFB1C330CFB07F744EA034446
:10103000A74216D92C190CF1FF3304D2A74202D9CA
:10104000ACF102032C44E41B43EA00400F46114676
:1010500078E71F2188E76046ABE76246BFE7604656
:10106000DBE76346EFE7734506D916B9002108466A
:101070006DE7C6E9000EF9E7B3FA83F787B9734560
:1010800001D3824207D8841A6EEB030301209C46E9
:101090001EB900215BE73846FAE7C6E9004CF8E7DD
:1010A000C7F1200CBB4000FA07F422FA0CF520FA35
:1010B0000CF1BA401D432EFA0CF30EFA07FE4FEA6C
:1010C000154941EA0E011FFA85FEB3FBF9F809FB49
:1010D00018300B0C08FB0EFA43EA00439A4540D93E
:1010E000EB1808F1FF3004D29A4502D9A8F10200AA
:1010F0002B44A3EB0A0389B2B3FBF9F809FB1833BD
:1011000008FB0EFE41EA03418E452CD9691808F10F
:10111000FF3304D28E4502D9A8F10203294443EAE1
:101120000040A1EB0E01A0FB02984145CE4643468C
:1011300002D306D14C4504D20138B9EB020E68EB5C
:101140000503002EA5D0B4EB0E0261EB030101FAFA
:101150000CFC22FA07F3F9404CEA0303C6E900311C
:1011600097E74046C5E74346D9E700000000000086
:101170002DE9F04F93B002AF00F0BAFD83460FF0B7
:1011800022F8322882460AD082494FF4937282486C
:101190000DF068FA4FF493717E480DF05AFA5846F4
:1011A0000FF00FF80128064608D07A4940F22712BE
:1011B00079480DF057FA40F22711EDE758460FF045
:1011C00004F80728386108D072494FF494727248C5
:1011D0000DF048FA4FF49471DEE758460FF004F82A
:1011E000044658B16D4A034631466D480DF058FC2F
:1011F0006FF004004437BD46BDE8F08F0AF08AFC6A
:1012000005460321674A66480DF041FCE9468AB06D
:10121000EAB2C5F30723280C02ADC5E90730A8469A
:1012200005236149C5E9051248F8103F4FF42351E1
:10123000424623465A4802F0C9FA5846CD460EF0B7
:10124000C7FFAD4602AA594BC2E905304FF40073FF
:101250009383574B42F8103F4FF4E65123465048D2
:1012600002F0B4FA82B0534BEE61C5E9053A3B692E
:101270002B6264236B6206232B614FF44351234698
:101280004246474807F1280502F0A0FACD46A94694
:10129000494B93E8070085E8070059F8048BD8F814
:1012A00000000EF03FFD40B901212346434A3C486F
:1012B0000DF0F6FB6FF012009CE7D8F8000098F8EC
:1012C0000410B8F806C00CF03002302AD0F810E054
:1012D000D0E9013809D13A4940F2F7322E480DF0F1
:1012E000C1F940F2F731364857E70CF00602042AFC
:1012F00008D1334940F2FE3227480DF0B3F940F2ED
:10130000FE31F0E71B681CF0010F06FA01FA0CBF72
:101310004CF4B01C8CF4D01C1AEA030F2CF480128D
:1013200008D1274940F211421B480DF09BF940F2C9
:101330001141D8E7DEF800301CF0010F14BF43EA7A
:101340000A0323EA0A03CEF80030D8F800309847A1
:10135000804638B10121009023461A4A10480DF00A
:10136000A9FBA7E70134032C97D104234FF47A7625
:10137000C7E906306423C7E90860C7E90A301248A4
:101380000EF0D0FC20BB0121104A05480DF07FFB78
:1013900090E700BF873701006F370100A3370100D6
:1013A00044190100BE370100EB3701000438010089
:1013B0000300000124380100A01901005438010085
:1013C0003E3701006C3801005C0F01008E380100CF
:1013D000204607F11802072100F094FC2A464146F6
:1013E000204600F08FFC072107F12002084600F09C
:1013F00089FC2A464146072000F084FC0EF02FFDB0
:10140000A0FB060447F6122206FB01410023FFF76A
:101410002DFD044640F2391200238F48CDE9002308
:10142000002200230AF0BAFA46464FF0FF3A4FF086
:10143000FF324FF0FF33894808F098FEDFF8508202
:101440004C21D8F808904046D9F80C30984700282D
:10145000EDD103212A464046D9F81030984700289C
:10146000E5D1F86AFFF75EF977A3D3E90023FFF728
:10147000EDFA8046B86A8946FFF754F902460B46F2
:1014800040464946FFF702F8C7E90401786BFFF7C9
:1014900049F96DA3D3E90023FFF7D8FA8046386BEA
:1014A0008946FFF73FF902460B4640464946FEF79C
:1014B000EDFFC7E90201F86BFFF734F962A3D3E946
:1014C0000023FFF7C3FA8046B86B8946FFF72AF975
:1014D00002460B4640464946FEF7D8FFD7E90423AB
:1014E000C7E9000110461946FFF786F9D7E902233C
:1014F0008046894610461946FFF77EF902460B469C
:1015000040464946FEF7C2FFD7E900238046894698
:1015100010461946FFF770F902460B464046494609
:10152000FEF7B4FF41EC100B0CF088FE48A3D3E9A2
:10153000002351EC100BFFF75FF9FFF7F7FB0122D7
:10154000386207F1200158460EF00AFE03460028D3
:1015500071D10EF084FC4FF47A7CA0FB0C0E47F6A0
:10156000122200230CFB01E1FFF780FC031BA3F513
:10157000F572142A814618D94FF4FA7202210092AA
:10158000374A38480DF096FA58460EF0FDFD013600
:101590003861002847D1BBF84880B8F1060F48D819
:1015A000D0450AD14C46C24641E7022EECD84FF452
:1015B000FA72032100922C4AE3E72C4CDBF84CA092
:1015C00014F838102A4804EBC80400F0ABFB61782B
:1015D000284800F0A7FB0AEB880AA178264800F00B
:1015E000A1FBDAED007A9FED257A67EE877AFCEEB3
:1015F000E77A17EE903A61686C468AB09BB202AA0D
:10160000C2E9071340F201331D4893841D4BC2E920
:10161000050842F8103F4FF433513B69114802F07E
:10162000D5F8A546BEE702213B69174A0D480DF0E3
:1016300037FA4C46FBE67E283FF4F9AE0221134A06
:1016400008480DF02DFAF2E60000000080842E41DB
:101650008287180B2F7E5940F0140020741500204B
:10166000A538010044190100DB380100EC2A010013
:10167000342B01002C2B0100242B01000000C84258
:10168000F93801000500000111390100233901007A
:101690005C0F0100000000002DE9F04114460569CF
:1016A000072900F2DE80DFE801F0041C2024627FBD
:1016B0008387297BB5F9000080FB01016C4D47F65B
:1016C000FF72A0FB0506002305FB0161FFF77EFB0F
:1016D0000023684AFFF77AFB206062600020BDE8C3
:1016E000F081297BB5F90200E6E7297BB5F9040012
:1016F000E2E7297BB5F900005D4E80FB0101A0FB0C
:10170000060747F6FF72002306FB0171FFF75EFB39
:101710000023584AFFF75AFBC4E90002297BB5F9B8
:10172000020047F6FF7280FB0101A0FB06070023C1
:1017300006FB0171FFF74AFB00234E4AFFF746FB09
:10174000C4E90202297BB5F9040047F6FF7280FB69
:101750000101A0FB0605002306FB0151FFF736FB44
:101760000023444AFFF732FB20616261B6E72B8A0F
:10177000B5F9065085FB03533F4AA5FB025602FB11
:10178000036639A3D3E9002328463146FFF71EFB41
:101790000023206031462846384AFFF717FB002314
:1017A000344AFFF713FB98E72B8AB5F90850E1E7B5
:1017B0002B8AB5F90A50DDE72B8AB5F906702E4E53
:1017C00087FB0373A7FB067806FB038826A3D3E9F0
:1017D000002338464146FFF7F9FA002320604146CE
:1017E0003846264AFFF7F2FA0023224AFFF7EEFABC
:1017F00062602B8AB5F9087087FB0373A7FB067834
:1018000006FB038818A3D3E9002338464146FFF7B7
:10181000DDFA0023A06041463846184AFFF7D6FAA1
:101820000023144AFFF7D2FAE2602B8AB5F90A5076
:1018300085FB0352A5FB065306FB02360AA3D3E938
:10184000002328463146FFF7C1FA002320613146C4
:1018500028460A4AFFF7BAFA0023064AFFF7B6FA03
:1018600083E76FF085003AE7006BC53F5D05000038
:101870003AA3950040420F00D8EF2F004CFF5900CB
:101880002DE9F043064617468946D0F8108085B00A
:1018900021B91AB9002005B0BDE8F0830123402129
:1018A00030460DF10E020DF02EFD0028F3D101237C
:1018B0007D2130460DF10F020DF025FD0028EAD103
:1018C000B9F1000F00F00381D9F80400FEF72AFFF8
:1018D0008DA3D3E90023FFF7B9F80446D9F8000037
:1018E0000D46FEF71FFF02460B4620462946FEF72F
:1018F000CDFD794B002204460D46FFF703FA03465F
:10190000002856D0002220462946744BFFF7E6F9FE
:1019100000285FD1002220462946714BFFF7DEF9EF
:10192000002859D10022204629466E4BFFF7D6F9F0
:10193000002853D10022204629466B4BFFF7CEF9F1
:1019400000284DD1002220462946684BFFF7C6F9F2
:10195000002847D1002220462946654BFFF7BEF9F3
:10196000002841D1002220462946624BFFF7B6F9F4
:1019700000283BD10022204629465F4BFFF7AEF9F5
:10198000B0BB0022204629465C4BFFF7A7F988BB75
:101990000022204629465A4BFFF7A0F960BB594B5D
:1019A000002220462946FFF799F9002814BF0B238F
:1019B0000C239DF80E209DF80F1022F00F021A4301
:1019C000E3B141F00401072B8DF80F101BD802F092
:1019D0007F021AE00123ECE70223EAE70323E8E7AA
:1019E0000423E6E70523E4E70623E2E70723E0E72D
:1019F0000823DEE70923DCE70A23DAE721F0040104
:101A00008DF80F10E3E742F080028DF80E2088F881
:101A10000D30B7B198F80D203B68072A30D9022B5A
:101A200048D0042B4AD0012B14BF032302239DF876
:101A30000E201B0103F0300322F0300213438DF817
:101A40000E300123402130460DF10E020DF08BFCCB
:101A500000287FF420AF4FF4E1700DF052FC9DF8A8
:101A60000F307D2103F00F038DF80F304FF47A73A0
:101A7000304600930DF10F0201230DF07CFC0AE7C4
:101A8000102B19D00EDC013B072B1DD8072B1BD8C0
:101A9000DFE803F014101A061A1A1A040323C6E723
:101AA0000223C4E7402B0BD0802B0BD0202B0BD173
:101AB0000523BCE70123BAE70423B8E70023B6E710
:101AC0000623B4E70723B2E76FF08500E3E6002FB3
:101AD000A0D1DFE6AFF300800000E93F0000F93F4E
:101AE0000000094000001940000029400000394072
:101AF0000000494000005940000069400000794062
:101B000000008940000099400000000080842E41C0
:101B10002DE9F043044615460E46076985B021B904
:101B20001AB9002005B0BDE8F08301234221204608
:101B30000DF10E020DF0E7FB0028F3D101237D210A
:101B400020460DF10F020DF0DEFB0028EAD1002E39
:101B500000F0A9807068FEF7E5FD5DA3D3E90023DE
:101B6000FEF774FF804630688946FEF7DBFD0246CB
:101B70000B4640464946FEF789FC00224C4B804606
:101B80008946FFF7BFF8002835D000224046494675
:101B9000484BFFF7A3F800283ED1002240464946B3
:101BA000454BFFF79BF8002838D1002240464946B4
:101BB000424BFFF793F898BB002240464946404B02
:101BC000FFF78CF870BB0022404649463D4BFFF7BB
:101BD00085F848BB0022404649463B4BFFF77EF85C
:101BE00020BB002240464946384BFFF777F80028D3
:101BF00014BF0C200D209DF80E309DF80F2023F00F
:101C00000F030343A0B142F0020207288DF80F2012
:101C100013D803F03F0312E00620ECE70720EAE7C1
:101C20000820E8E70920E6E70A20E4E70B20E2E7DE
:101C300022F002028DF80F20EBE743F0C0038DF88D
:101C40000E30B87375B12B68022B2AD0043B18BF35
:101C500001235B009DF80E2022F0300242EA0313BC
:101C60008DF80E300123422120460DF10E020DF0B9
:101C70007AFB00287FF456AF4FF4E1700DF041FB82
:101C80009DF80F307D2103F00F038DF80F304FF4D6
:101C90007A73204600930DF10F0201230DF06BFBC8
:101CA00040E70123D6E7002DCDD13AE7AFF300801E
:101CB00000003940000049400000594000006940E0
:101CC0000000794000008940000099400000A940D0
:101CD0000000000080842E4108B50EF0DDFF9FED6E
:101CE000020B08BDAFF30080000000000000F87F89
:101CF00000487047B0110020014808F0D3B900BF78
:101D00007415002030B413460446054882681568EF
:101D100025B10A46AC46214630BC604730BC70470E
:101D20005C0F0100034610B50A46197901230068CB
:101D300003FA01F1436804691B6819420AD10C498E
:101D40000C4840F2A2620CF08DFC40F2A2610848FF
:101D50000CF07FFC2368194203D022B183681B6911
:101D600003E0002AFAD08368DB68BDE8104018471A
:101D70003E3701006F3701002DE9F84F04460CF0A3
:101D800006FCB0FA80F0C0F11F0004EB8006D6F824
:101D90001090CD0005F1040A0B4606358FB2B9F15B
:101DA000000F0AD10121E26881400A43E2603361F9
:101DB00024F80A706753BDE8F88F4FEAC906043665
:101DC00034F806B04FEACB0808F1060834F80830BA
:101DD00099450CD001210A4A0A480CF058FE00230C
:101DE00083F31188BFF36F8F0423184602DF24F8B2
:101DF0000AB024F8059024F80870A753DBE700BF69
:101E00006D3901005C190100B2F5802F2DE9F8430E
:101E10000AD336494FF4377235480CF023FC4FF49F
:101E2000377132480CF015FC042A08D82F4940F2CB
:101E3000E3222F480CF016FC40F2E321F1E7043ACC
:101E4000CD1D114425F0070521F00706A6EB050876
:101E5000B8F1170F4FEAD80708D824494FF43B725E
:101E600023480CF0FFFB4FF43B71DAE7B7FA87F435
:101E70004FF00009C4F12002C4F12404A400073487
:101E8000E408631CBB420560AF60C5F80C9008D93C
:101E9000164940F2023216480CF0E4FB40F20231DF
:101EA000BFE74946920005F110000EF0CBFDA2B24B
:101EB000530043F001036B803B1B9BB205EBC40155
:101EC0005800A5F80090488025F83420A6F8029024
:101ED00025F8083005EBC7035A88214642F0010275
:101EE0005A802846BDE8F843FFF746BF9139010004
:101EF0006F3701002DE9F04F91B0009302F0040319
:101F00000293C2F3C2030133840705460E46DDF88F
:101F100068A00392059340F0B381041D98BB01F0C3
:101F20000706341DC6F10806009B4FF00008042781
:101F30005A1E4FF0FF33C1460193C3463B46CDF8CE
:101F400010800DB1009820600598002800F3BB8038
:101F500098480099814203D397488142C0F0B380EA
:101F60000399601B11F0020C40F0C280B9F10F0F11
:101F700040F2C180914940F2812291480CF072FBFD
:101F800040F28121B1E00729CED86FF01B0011B0DB
:101F9000BDE8F08F7A285AD84B280FD8472856D852
:101FA00029282DD825284FD051D8202818BF2328DC
:101FB0000CBF4FF0010B4FF0000B6EE04C382E2899
:101FC00045D8DFE800F06A4444444444444444446F
:101FD0004444474444444444444444544447475498
:101FE00054546A4768446A4418471844447B794704
:101FF00044444744790000204FF0000B042734E0AC
:1020000001212A38C0B201FA00F010EA0E0F44D1C3
:1020100010F0625C2BD110EA010B3ED06046013C0F
:102020003C44B4FBF7F47C4325B1A3EB050CA4447A
:10203000B445AAD8002800F0928005980138059090
:102040005AF8040B00907CE70199013901914FF097
:10205000000B22E012F8010C6C2831D1002012F89C
:10206000023C83466C2BC9D108273B46D7E70AF1CF
:10207000070A2AF0070A0734BAEC027B24F00704A7
:1020800035B106982044B0423FF67FAF84ED007B27
:102090004FF0000B083408273B4612F8010F0028C8
:1020A00076D0BBF1000F7FF475AF2528F5D14FF046
:1020B000010B019B013301930427EDE758469BE791
:1020C00000208346ABE7039988072BD54FF0010C1E
:1020D000601BB0F5007FFFF449AF38494FF41F7221
:1020E00037480CF0BFFA4FF41F7134480CF0B1FAC6
:1020F0004FF0000CEDE705B309F140010DEB010EC7
:102100000199C0F387000EF8200C0EF8101CBCF1EA
:10211000000F0ED060F07F000EF8200C08F10108CF
:1021200009F10109C5F108014FF6DA7E0434069180
:10213000B3E7049801300490F2E7BCF1000F01D03E
:102140000136EDE7029902360029E9D10098CDE980
:102150000632FEF7A5FEDDE906320644E0E7042B71
:1021600008D10AF1040015B1DAF8001021608246A6
:10217000043492E70AF1070323F0070303F1080A86
:102180001DB193ED007B84ED007B0823083484E7C8
:10219000631BB3F5806F08D3084940F2D222084888
:1021A0000CF060FA40F2D2219FE75DB9A6F1080475
:1021B000E018ECE6DC0D0100A8510100BC3901007B
:1021C0006F370100029A9B0828602B709DF8103031
:1021D000BAB1EB7085F80280B8F1000F05D000228B
:1021E00008A8C5F1010791450DD14FF0000AC5F1CE
:1021F000010308AF01930DF1300BD14512D1601BE3
:10220000C5E66B70E6E710F8013B190608D507EB49
:10221000040CB44503F07F033FF6B7AE04F8013B6E
:102220000132E0E7B8F1000F03D097F90020002A4F
:1022300016DB029BC3B11AF80B2004F8012B002215
:10224000019B18191044B0423FF69FAE38780099B0
:1022500004F8010B204603920EF0E7FB039A1444A6
:102260000AF1010A0137C8E73A7855F8223000939D
:10227000029B009845F82230FEF712FE421CDFE771
:102280006FF00D0083E600BF2DE9F04F95B000AF71
:102290008A460546C7E9083250B99A4940F2993250
:1022A00099480CF0DFF940F2993196480CF0D1F9D9
:1022B00049B903784678807800EB83002844564576
:1022C00021D8A0EB050ABB6F95F8028003F001034B
:1022D000BC6F3B61EB78B8F1000F0CBF002404F039
:1022E0000104FB6113B1BB6F9E0715D4A4B97B6ACF
:1022F0001BB1514628463A6A9847564630465437ED
:10230000BD46BDE8F08F441C2046FEF7C9FD0130F4
:1023100020440AF1010AD2E7BB6FC3F3C0037B611B
:102320002B78FB609B007B606B68BB60FB6805EBF8
:10233000830B7B6A002B71D15646D844ACB11C4646
:102340001BF8013B55F82300FEF7AAFDFB6F013097
:102350003BB1D7F88030A34282BFFB6F23F8140053
:102360000134C3450644EBD1D846BB6F4FF000099A
:1023700013F0050F0CBF4FF0020B4FF0010BFB6980
:102380009945BBD298F8013008F1020855F823A00E
:102390005E4B9A45C0F07B815D4B7A699A452CBFB4
:1023A000002301230AB318F8021CB8687B620CF002
:1023B00024F97B6AC8B1EA468AB06A46554B059350
:1023C000BB68CDE906314FF40073ADF82030524BB5
:1023D00042F8103F00234FF41251504801F0F6F933
:1023E000D546023E09F10109C9E723B13B692BB982
:1023F000A6EB0B06F6E7BB6F9807F3D55046FEF742
:102400004FFDFB6F43B1D7F880309C423FBFFA6F5E
:10241000431C22F8143001340644E3E7002C66D153
:10242000B8F1000F69D0BB6F590769D5C14607F1F4
:102430004000424659460EF0F8FA0BEB0803BB6128
:102440000023DFF8CCE0FA69934269D3BA6F95F8BC
:1024500001B03969920704EB0B0348BF0022DBB2DD
:1024600058BF4FEA5902002940F0DB80B96F11F0E4
:10247000040F14BF494600216B70A970EA7028460A
:102480003A6A79687B6A9847061EFFF637AFFB68A1
:1024900049462B70FB693A6AEB7085F801B07B6A9C
:1024A00085F8028007F140009847B0F10009C0F2BA
:1024B000EA807B68FA69B86903EB420141443A6AF1
:1024C0007B6AAAEB010198470028C0F2DE804FF03A
:1024D000000BB14409EB000607F1300AA345C0F038
:1024E000A28000213A6A08467B6A984706E744467C
:1024F0004FF0000907F130009BE74446C1469CE7D6
:10250000A1469AE7BC3901006F370100DC0D0100DC
:10251000A8510100EA39010004000001FC18010083
:10252000B869614A10F8021B10F8016CB86155F8DF
:1025300026009042C0F0B1807A6970452CBF4FF000
:10254000000B4FF0010B3AB1B8683B600CF055F846
:102550003B68DFF860E150BBBBF1000F29D03A695E
:1025600052B10F2C33D9514940F2434250480CF03C
:1025700079F840F2434198E6BA6F520717D5B9F19E
:102580000F0F08D9494940F2464249480CF06AF811
:1025900040F2464189E609F1280207F1280009F1D5
:1025A000010102EB000909F8106C5FFA81F90133AF
:1025B00049E7BA6F900714D50F2C08D93B4940F270
:1025C0004D423B480CF04EF840F24D416DE604F1AF
:1025D000280207F12800611C141804F8206CCCB202
:1025E000E5E7B9F10F0F08D930494FF48A62304856
:1025F0000CF038F84FF48A6157E609F1280207F128
:10260000280C09F10100944407F1500209F1020974
:1026100052FA80F00CF8101C5FFA89F900F8106C7F
:10262000C5E7002128E71BF80A3055F8239087F802
:102630002F30FB6F23B3D7F880309B4520D2FB6F40
:1026400033F81B8001213A6A7B6A07F12F00984713
:1026500000281ADB0644B8F1000F06D14846FEF701
:102660001FFC00F101081FFA88F8414648463A6A03
:102670007B6A9847002808DB06440BF1010B2DE725
:102680004FF00008DEE74E4638E6064636E67B6940
:10269000002B3FF4B0AE002385E67A69002A88D08B
:1026A0004FF0000B50E700BFDC0D0100BC3901000A
:1026B0006F370100A851010080B505460E46174648
:1026C000984608F031FC034602F060F9DFF84090CC
:1026D000044649F80030424639463046A847094B7F
:1026E0001B7853B90849094840F246320BF0BAFF4B
:1026F00040F2463104480BF0ACFF54F8090002F0F8
:10270000BFF800BFD73200209E3A01006F370100AA
:102710000800000038B50D460446202200210EF0C6
:1027200091F90022EB68E361AB68A3612B68236237
:102730006B68A26263622A6923B1591E194208BFFD
:1027400042F0010222610122002104F12C000DF06F
:1027500003FB40B1044905482F220BF083FF2F21D2
:1027600001480BF076FF38BDC93A01006F37010010
:102770002DE9F04F002689B0CDE90123436A0446D4
:102780008B428846B2460596079652D34FF0200BEF
:1027900000F11407EFF3118300938BF31288BFF35A
:1027A0006F8F3846DDF8009008F0E2FD40B94649E9
:1027B000842246480BF056FF842143480BF049FF22
:1027C000384608F0F9FD079A2AB1314620460CF048
:1027D0002FF80023079306A920460BF050FF069917
:1027E000054641452ED32268236A204613F822105D
:1027F00003EB820A21F0030103F82210216842460C
:102800000BF061FFE3682060984216D0002538463F
:1028100008F0BCFD50B389F31188BFF36F8F0599A1
:1028200029B1A3690BB12046984700230593002DD9
:10283000B0D1504609B0BDE8F08F236943F00803DA
:102840002361E3E718B120460BF057FFDFE7DDE92E
:102850000132134330D003910DF08AFA039958BB2B
:10286000009B4BBB384608F091FD40B916494FF428
:10287000997216480BF0F6FE4FF499719DE785F3B7
:102880001188BFF36F8F04F12C00DDE9012307F0FD
:102890006DFC0546EFF311898BF31288BFF36F8F40
:1028A000384608F065FD002881D0B5FA85F5384630
:1028B00008F082FD6D09AAE7204607AB05AA266845
:1028C0000BF03AFF0546A2E7EF3A01006F3701002F
:1028D0002DE9F0410446C36908460D46984704F1C6
:1028E00014060746EFF31188202383F31288BFF301
:1028F0006F8F304608F03CFD40B9164984221648D7
:102900000BF0B0FE842113480BF0A3FE304608F014
:1029100053FD2B783A4643F001032B706168204643
:102920000BF0D1FE606020460BF09DFF304608F0B2
:102930002DFD40B907494FF4997207480BF092FEFC
:102940004FF49971DFE788F31188BFF36F8FBDE80B
:10295000F08100BFEF3A01006F3701002DE9F04729
:102960000446002700F11406EFF31188202383F3B7
:102970001288BFF36F8F304608F0FAFC054640B965
:102980003449842234480BF06DFE842131480BF029
:1029900060FE304608F010FD2369A168180702D4D4
:1029A00063688B4200D2636A5B1A002B3CD0206ABA
:1029B00010F8213000EB810913F0030237D0022A0E
:1029C00004D150F821205FEA920A05D1DA071BD41E
:1029D0004846E36998478246A168524620460BF074
:1029E00072FE5146A06020460BF07BFE2F4630461B
:1029F00008F0CCFCE8B917494FF4997216480BF06F
:102A000031FE4FF49971C1E743F0020300F8213021
:102A1000E3694846A56898472946024620460BF0D8
:102A200052FE0025A060E2E71D46A946DFE71546F5
:102A3000FBE788F31188BFF36F8F002D94D137B176
:102A4000B9F1000F03D104F12C0007F02BFB48462D
:102A5000BDE8F087EF3A01006F3701002DE9F04142
:102A60000446C36908460D46984704F11407064614
:102A7000EFF31188202383F31288BFF36F8F38465A
:102A800008F076FC40B92349842223480BF0EAFD84
:102A9000842120480BF0DDFD384608F08DFC2B78B2
:102AA00023F001032B7023699B0705D5E268236A95
:102AB00003EB82039D421DD12B7823F002032B7080
:102AC000D4E90231994204D1324620460BF0FBFD95
:102AD000A060314620460BF004FE384608F056FC54
:102AE00068B90C494FF499720B480BF0BBFD4FF4D9
:102AF0009971CEE72B6866F39F032B60EDE788F3AF
:102B00001188BFF36F8F04F12C00BDE8F04107F08E
:102B1000C9BA00BFEF3A01006F37010070B5044633
:102B200000F11405EFF31186202383F31288BFF31D
:102B30006F8F284608F01CFC40B9164984221648BD
:102B40000BF090FD842113480BF083FD284608F01C
:102B500033FC2369A0681B0702D4636883420ED24A
:102B6000646A241A284608F011FC50B909494FF448
:102B7000997209480BF076FD4FF49971E3E71C1A3E
:102B8000F0E786F31188BFF36F8F201E18BF012076
:102B900070BD00BFEF3A01006F3701002DE9F84F1B
:102BA000838B04461807904613D501290CBF43F0C8
:102BB000100343F02003A38304F1140008F0E6FBA4
:102BC000002800F09A8088F31188BFF36F8FBDE86A
:102BD000F88F022903F0070A40F04B8120460BF0E2
:102BE0004FFE052800F2F08001A353F820F000BF4B
:102BF000B92B0000732E0000C92D00007F2C0000AF
:102C00000F2D00006B2D000002F00702531F012B57
:102C10001AD80023062A256889B2C4E9003309D1ED
:102C20002B4603E0E28B0132E2831B68002BF9D1D3
:102C300041F002012046A1830BF022FE002800F0A3
:102C4000268141F0200121E1042A0DD189B22046DC
:102C5000A1830BF015FE0546002800F0188141F015
:102C600020010025A18312E1944940F21B129448EF
:102C70000BF0F8FC40F21B1190480BF0EAFCBAF1A3
:102C8000000F08D08D494FF4AB728D480BF0EAFC71
:102C90004FF4AB71F0E7236843B9884940F257120B
:102CA00087480BF0DFFC40F25711E5E723691F6806
:102CB00047B982494FF4AD7281480BF0D3FC4FF411
:102CC000AD71D9E7564655464FF00609A18B21F064
:102CD000070141F0060189B2A183A368002B00F02F
:102CE000DD804FF0010B41F0080104F1140A504659
:102CF000A18308F04BFB00286FD172494FF4997201
:102D00006F480BF0AFFC4FF499716E48B5E7BAF11C
:102D1000020F08D0694940F25D1269480BF0A2FC2D
:102D200040F25D11A8E7E68B46B164494FF4AF72FB
:102D300063480BF097FC4FF4AF719DE723695F6820
:102D400047B95E4940F261125D480BF08BFC40F2DE
:102D5000611191E7A18B354621F0070141F0040193
:102D600089B24FF00409A183B7E7BAF1010F08D087
:102D700052494FF4B27252480BF074FC4FF4B271E6
:102D80007AE7236843B94D4940F265124C480BF08D
:102D900069FC40F265116FE723699F6847B94749AD
:102DA0004FF4B47246480BF05DFC4FF4B47163E726
:102DB0000026A18B354621F0070141F0050189B2BB
:102DC0004FF00509A18388E73C4940F26B123C486B
:102DD0000BF048FC40F26B114EE788F31188BFF30B
:102DE0006F8FBBF1000F16D165BB17B12046364976
:102DF000B847EFF31188202383F31288BFF36F8F56
:102E0000504608F0B5FA28BB2E4984222C480BF016
:102E100029FC842179E7A1680029E5D0D1F8008058
:102E20000029E1D033464A462046D1F804B0D847BD
:102E3000B8F1000F04D0D8F8003041469846EFE7CB
:102E40004346FAE7294633464A4620462D680BF0AA
:102E500043FDC9E7504608F0AFFAA18B21F0080105
:102E600089B2A183CA061FD521F01003A38301F004
:102E7000070AA669A28B002E22F00701BFF6C4AE96
:102E800000232568C4E9003341F00101A18301F06A
:102E90000709D1454FF000077FF41FAF0DB9002F90
:102EA000E0D04FF0000B1EE78B067FF585AE21F0DA
:102EB0002003A38301F0070A90E600BF273B01002F
:102EC0006F370100EF3A0100CD2E0000F8B504463F
:102ED0000D4600F11406EFF31187202383F31288C7
:102EE000BFF36F8F304608F043FA40B909490A48EA
:102EF00084220BF0B7FB842106480BF0AAFB304676
:102F000008F05AFAA5613A462046BDE8F84001218A
:102F1000FFF744BEEF3A01006F3701002DE9F0479B
:102F200004460E460BF0C8FC051E5ADB04F11409DA
:102F3000EFF3118A202383F31288BFF36F8F484683
:102F400008F016FA804638B93149842231480BF02E
:102F500089FB84212E483CE0484608F02DFA4FF6C4
:102F6000FF72E38BA78B934207F007073CD0062F35
:102F700026D8DFE807F0193C0925190419006FF07D
:102F800085054FF0000802E002250133E38348463F
:102F900008F0FCF970BB1E494FF499721D480BF004
:102FA00061FB4FF49971D5E700233360636823B95F
:102FB000C4E900667FB13D46E3E71E606660F9E75D
:102FC000154914484FF4E4720BF04CFB4FF4E471D4
:102FD00011480BF03EFB524602212046FFF7DEFD72
:102FE0003D462846BDE8F0876FF00A05C9E76FF057
:102FF0000405C6E78AF31188BFF36F8FB8F1000F9D
:10300000EFD000233A46314620460BF065FCE8E756
:10301000EF3A01006F370100273B0100F8B5054684
:1030200000F11406EFF31187202383F31288BFF316
:103030006F8F304608F09CF938B920498422204827
:103040000BF010FB84211D4825E0304608F0B4F950
:10305000AC8B04F00704022C12D0012C0CBF6FF0D3
:1030600004046FF08504304608F090F908BB13495A
:103070004FF4997212480BF0F5FA4FF49971E2E7A8
:10308000EB8B53B90F490E4840F2EF120BF0EAFAFE
:1030900040F2EF110B480BF0DCFA013B9BB2EB83E3
:1030A000002BE0D13A4621462846FFF777FD20461F
:1030B000F8BD87F31188BFF36F8FF8E7EF3A01008F
:1030C0006F370100273B010008B54268034602F054
:1030D0000302032A816009D062B9074907484522E3
:1030E0000BF0C0FA452104480BF0B3FA0068002247
:1030F0005A6008BD0020FAE74C3B01006F37010021
:1031000008B550B90649074840F235120BF0AAFA43
:1031100040F2351102480BF09CFA4368587908BD1B
:10312000723B01006F37010010B540B908490948EA
:10313000A0220BF097FAA02105480BF08AFA036849
:103140001B6913B1BDE810401847184610BD00BFF9
:10315000723B01006F3701002DE9F8430446064633
:103160000127DFF8408094FAA4F5B5FA85F507FA4F
:1031700005F308EB05156FEA030924EA03042B7B2A
:103180005BB12846FFF7D0FF38B96B6804222846A8
:10319000196806EA09060BF00AFC002CE3D1304658
:1031A000BDE8F8838419010010B5002288B00E49EB
:1031B0000E480CF056FE002200230024CDE9062321
:1031C0000E234FF40062CDE90334CDE90144084BEE
:1031D00008490094084807F0E9F8084906480CF047
:1031E000CDFD204608B010BDC93200007027002078
:1031F000D5350000E0320020A0160020AA3B0100D7
:103200002DE9F047DFF8BC902A4C8046A9EB040377
:103210008F2B0F460AD9284940F2531227480BF04A
:1032200021FA40F2531124480BF013FA24480BF012
:10323000A2FB064640B300252846BDE8F087237B65
:103240008BB12368DB680BB1204698476368204642
:1032500083F806A0FFF768FF90B963680422204650
:1032600019680BF0A4FB013610344C4510D91249F3
:1032700040F25F1211480BF0F5F940F25F11D2E70E
:103280000AFA06F31D43EEE705464FF0010AECE7A4
:10329000D5D3B8F1000FCFD0002DCCD02846FFF702
:1032A0005BFF0546002FF7D0002140F2391007F0F0
:1032B000C7FDF1E784190100B23B01006F3701003F
:1032C000082C002094190100014806F0EBBE00BF55
:1032D00064150020014B53F820007047502B01006B
:1032E00008B5034608462BB1044A136000F03EFDC2
:1032F000002008BD6FF01500FBE700BF481200205A
:1033000010B5044C237813B9034806F0CBFE012313
:10331000237010BDB23100206415002010B50446A2
:1033200009480BF028FB3CB1084BD3E8EF1F0139EB
:10333000C3E8E21F002AF8D1054808F08BFBBDE87E
:103340001040044806F0AEBE002C0020042C0020E3
:1033500070270020641500200022044BD3E8EF0FF3
:10336000C3E8E12F0029F9D1704700BF002C0020ED
:1033700070B5FFF7F1FF05460E4C0F4EB44216D95B
:103380000E490F4840F216220BF06CF940F216215C
:103390000A480BF05EF92046FFF7B2FE28B1236819
:1033A0005B6813B12946204698471034E6E7F2D30C
:1033B00070BD00BF8419010094190100B23B0100E7
:1033C0006F37010010B5044C04492046FFF7A2F9FD
:1033D000034B1C6010BD00BFB01400203C2B01004B
:1033E000F42B00200023134A10B51370124A13491E
:1033F0001360134A13481360FFF772FFFFF7E2FFF1
:10340000114B124918468B4211D91149114840F20B
:103410002B120BF027F940F22B110D480BF019F984
:103420001A1A5C681211013222711033EBE7F7D3DC
:1034300010BD00BFB3310020002C002040420F001F
:10344000042C002073E90000841901009419010084
:10345000B23B01006F370100014600220023014802
:10346000FFF786B9B01400200148FFF777BA00BF14
:10347000B0140020024B01461868FFF7EFBA00BFF6
:10348000F42B00200148FFF749BB00BFB014002017
:10349000F8B52F4B1B78002B57D0FFF7E5FF0446FC
:1034A000002842D12B4B2C4D1B68002B19DD0CF052
:1034B000D6FC4FF47A76A0FB060747F612220023CB
:1034C00006FB0171FDF7D2FCD5E90032C01A40F2CB
:1034D000E93361EB0201984271F1000101D3FFF77A
:1034E00047FFD5E9003213F57A7342F10002C5E9CE
:1034F000003254B3BDE8F840FFF7C4BF2846FFF7D9
:10350000FFFD20B12B68214628461B6898471035DF
:10351000B5420DD91149124840F20A220BF0A2F827
:1035200040F20A210D480BF094F80E4D0E4EEFE7D5
:10353000E4D32046FFF79EFF0C4BD3E8EF1F013981
:10354000C3E8E21F002AADD0F7E70020F8BD00BFB6
:10355000B2310020002C002068270020B23B01007F
:103560006F3701008419010094190100042C002018
:1035700070B5134D297811BB0120FFF741FE114CA6
:10358000114EB44214D91149114840F2CF120BF038
:1035900069F840F2CF110D480BF05BF82046FFF7B9
:1035A000AFFD18B1236820469B6898471034E8E7C0
:1035B000F4D3FFF76DFF0028FBD101232B7070BD02
:1035C000B33100208419010094190100B23B0100BD
:1035D0006F3701002DE9F843334F344BFB1A1B09B9
:1035E00009D133494FF46F7232480BF03BF84FF476
:1035F0006F712F4815E000210846FFF701FE0446D1
:1036000088B140F21B684FF000092B4B1B787BB947
:103610002A49284840F246320BF024F840F246315D
:1036200026480BF016F84FF0FF384FF0FF39ECE763
:1036300001F0ACF9224B234A1B58136033B1224BE3
:103640001B68092B02DD214806F02CFD002544B142
:103650002046FFF781FD044618B94FF0FF384FF0C0
:10366000FF39FFF715FF064628B935B91748424616
:103670004B4606F07BFD3546E9E70C4D08E0F5D2F8
:103680002B689B691BB100222846114698471035CC
:10369000BD42F4D906494FF46C7206480AF0E2FFC5
:1036A0004FF46C71A5E700BF941901008419010063
:1036B000B23B01006F370100D73200209E3A010073
:1036C00008000000FC2B0020042C002064150020C2
:1036D00013B526480BF04FF9254B1B785BB3EFF37E
:1036E0001184202383F31288BFF36F8F214807F0E2
:1036F0003FFE40B92049842220480AF0B3FF8421CC
:103700001D480AF0A6FF1B4807F056FEFFF7C0FE53
:10371000184807F03BFE40B917494FF49972174813
:103720000AF0A0FF4FF49971EAE784F31188BFF320
:103730006F8F02B010BD124B1B68002BF9D050B92F
:10374000002200230F48CDE9002347F61222002370
:1037500008F024F9EDE70928EBD10A4808F07AF9D6
:10376000094802B0BDE8104006F09CBC042C0020C3
:10377000B3310020F82B0020EF3A01006F37010031
:10378000FC2B0020702700206415002010B5064B8C
:1037900004461B6898472146A0600448FFF798F844
:1037A000BDE81040FFF794BF48120020B01400207D
:1037B000044A054B9B1AB1EBD30F34BF52F83100CA
:1037C00000207047DC180100841901002DE9F04F3A
:1037D0008FB0C1F34A2604AF0D469046B8607B60B7
:1037E0000C0D002E65D04FF000090A234FF0040B9A
:1037F00007F1140AFE60C7E90799C7F824900093FF
:10380000CDF808B0CDF804A007F11C034A464046A5
:10381000F968FEF739FDB0F5006F03461CD36C461E
:103820008AB0D8F8041004AB2A481A46C3E9050147
:1038300040F2FF71D9614FF400711984264B42F8B0
:10384000103F4FF412514B462448FFF7BFFFA546E7
:103850002C37BD46BDE8F08FC0F30A0604F117000F
:10386000184420F0070080083B60FFF7F5FD66F381
:103870005325044628B33B6800F11001C7E9083915
:103880000A23F961CDE901AB00934046144AF96877
:1038900007F11C03FEF7F8FC002812DA1149124860
:1038A00040F249120AF0DEFE40F249110D480AF0DA
:1038B000D0FE04F1170020F007008008FFF7CCFDD0
:1038C000044666F353252A4620467B68B9680BF008
:1038D0008EF8BDE7EC3B0100040000013419010043
:1038E000C1E900002B3C01006F3701002DE9F04FCA
:1038F00087B00546DDE9106BDDE9127A884614468B
:10390000994627B33B465A4610210020CDF800A027
:10391000CDF814A0FEF7EEFA00280ADA26494FF493
:10392000B47226480AF09EFE4FF4B47122480AF0A1
:1039300090FEB0F5006F01460BD340F2FF730221F9
:103940001F4A204807B0BDE8F04F0BF0A9B8394630
:10395000384604F0070305F00704E40044EA831442
:1039600044EA402444EA065406F11700084420F0D3
:10397000070080080391FFF76FFD054698B197B1E6
:103980003B465A460399CDF800A01030FEF7B2FA34
:10399000002808DA084940F28D1208480AF062FE51
:1039A00040F28D11C2E74B4622464146284607B0F9
:1039B000BDE8F04F0BF01BB82B3C01006F37010046
:1039C000573C010034190100406820B1034BC01A74
:1039D00040F3CF0070474FF0FF307047DC18010014
:1039E0000EB403B503AB53F8042B0146044801930E
:1039F00001F042FA02B05DF804EB03B0704700BF7B
:103A0000213A0000CA0605D48B064CBF024903497F
:103A1000FFF7E6BF704700BF903C01008F3C0100FC
:103A200038B54B6805461A68CB680C469A4202D1F5
:103A300008460BF059F86368D3E8EF2F511CC3E830
:103A4000E01F0028F8D1A3689D5463681A68E368F2
:103A50009A4208D90549064872220AF003FE7221EB
:103A600002480AF0F6FD002038BD00BF923C01007C
:103A70006F3701002DE9F04F89B099469DF85080CD
:103A8000159B044606930D46DDE916A3189F059283
:103A90000493B8F1000F00F09F80B8F1040F0AD929
:103AA00086494FF4157286480AF0DCFD4FF4157113
:103AB00082480AF0CEFD07F4807307930AF075FF81
:103AC00007F0020B0246002855D020467D49FFF73B
:103AD00087FF0646BBF1000F08D017F0440F4CD10A
:103AE0002A4620467849FFF77BFF064407F001038A
:103AF00053B1764B204653F82820754B7549002A60
:103B000008BF1A46FFF76CFF07F48073002B07F01D
:103B1000080318BF4FF00009002B5AD06E4B204607
:103B200053F828206D49FFF75BFF0546059B2BB135
:103B30001A4620466A49FFF753FF0544B9F1000FC2
:103B400005D04A4620466749FFF74AFF05446648C4
:103B50003544069B002B46D0224664490AF01CFDE2
:103B6000002840DA554940F2B12255480AF07AFD62
:103B700040F2B1219CE70646ACE75D4B186800288F
:103B8000B3D05C4B4FF47A7B1B684FF03C0CB5FB19
:103B9000F3F5B5FBF0F14FF4616300FB11550BFB3E
:103BA00005F5B1FBF3F2B5FBF0FE03FB121100FBD0
:103BB0001E55B1FBFCF30BFB05F5B5FBF0F50CFB5B
:103BC000131120460091CDE901E54B49FFF708FFAD
:103BD0008BE707F00805A9E7B9F1010F45460CBFCF
:103BE00041484648B5E7049B002B52D0049B394618
:103BF000102B28BF1023204699460026FFF702FF0E
:103C0000B54218DC0026334620461AF803203C490A
:103C1000FFF7E6FE0136102E13D0710703D12046C0
:103C20003849FFF7DDFE4E453346EDD32046364991
:103C3000FFF7D6FEEEE720463249FFF7D1FE013608
:103C4000DEE7002620463149FFF7CAFE33461AF860
:103C500003202046A2F120035F2B28BF2E222C49EF
:103C6000FFF7BEFE0136102E0DD0720703D120469D
:103C70002449FFF7B5FE4E453346E8D32046214997
:103C8000FFF7AEFEEEE7049BCA44B3EB09030493CF
:103C9000ACD1B8F1000F0AD0FB0704D520460C4A7E
:103CA0000C49FFF79DFE39462046FFF7ABFE204644
:103CB00009B0BDE8F04F0AF017BF00BF923C010009
:103CC0006F370100C63C0100CA3C0100602B0100B7
:103CD000C13C010021380100742B0100EF3C0100C0
:103CE000F53C0100F93C0100213A0000794E00004A
:103CF000102C00200C2C0020D33C010003EB000012
:103D0000FE3C0100063D0100043D0100083D0100AC
:103D10000A3D010042F20F7373B58B4228BF0B4678
:103D200005680446052168460D4A09F0BDF90646B6
:103D3000636828460B225B680A490AF0C7FE63687D
:103D40003246694628465B680AF0C0FE63681B225B
:103D500028465B6804490AF0B9FE02B070BD00BF96
:103D600020390100245001000850010000210123E6
:103D7000064A904206D8064A01B901231360054B52
:103D800018607047012140085B00F2E740420F00D5
:103D90000C2C0020102C00200122014B1A707047BF
:103DA000B4310020014B002019607047282C0020FE
:103DB0000148FFF7AFBF00BFA42B010010B5064BB1
:103DC0000C461868FFF786FA2146BDE81040034606
:103DD0000F220248184700BF282C0020A42B010006
:103DE0000122F8B5084B094D094E1A70D5E9004774
:103DF0000CB92C60F8BD214630463A4600F01EF85A
:103E0000241A0644F4E700BFB53100201C2C002022
:103E1000B631002010B9074B18707047064B1B785D
:103E20001BB141F288300BF079BF9D20002107F0D3
:103E300007B800BFB4310020B53100202DE9F047AC
:103E400080460F460425DFF880901E4E99F800400A
:103E5000ACB90BF056FF3A4682464146204605F083
:103E600035FD044650460BF054FFECB1012333708E
:103E700099F800307BB93C462046BDE8F0873A46C9
:103E80004146002005F022FD0446EEE728466C1E60
:103E9000FFF7C0FF2546002005F062FD0028EAD0AC
:103EA0003378002BF2D1E6E7337833B1013D284671
:103EB000FFF7B0FF3378002BC8D13378002BDAD06E
:103EC000DAE700BFB4310020B5310020014B0360B8
:103ED00000207047B42B010008B504480AF0ACFB81
:103EE00003480AF0A9FB002008BD00BF3D3D0100CA
:103EF000723D010008B50348034A0021121A0AF076
:103F000044FE08BDA8150020DC320020074808B593
:103F1000074A0849121A0AF03AFEBDE80840064866
:103F2000064A0749121A0AF032BE00BF20110020CB
:103F3000A4150020B051010018110020201100200C
:103F4000A85101002DE9F84F80460C4600AF00292A
:103F500065D0D1E90012E9468AB0A3686D464FF0FA
:103F6000050A6E463748CDE90723CDE9050146F835
:103F700010AF002332464FF421513348FFF726FC9F
:103F8000D4E90312CD466369AD463048C5E907233D
:103F9000C5E90501C5F810A0002332464FF42151B0
:103FA0002948FFF713FCCD46E3690121284A26483A
:103FB0000AF076FD264600254FF00A0ADFF8A0B089
:103FC000E946D6E908C0D6E90A138EB06A46CDF8AC
:103FD0001CC005F1010CCDE908C0A81CCDE90A01FF
:103FE000E91CCDE905B5CDE90C1342F810AF00236B
:103FF00045F2400114480435FFF7E8FB102DCD468B
:1040000006F11006DCD1236E0121124A0E480AF097
:1040100047FDA3690121104A0B480AF041FDB8F1A0
:10402000010F07D1EFF305830C4A41460648103BC8
:104030000AF036FD2146404605F0D8FCBD46BDE8F5
:10404000F88F00BF9F3D010054190100CE3D0100D3
:10405000FD3D01004F3E01005E3E01008C3E01002F
:104060000C3E010030BFFFF7FDBF00BF2DE9F0415E
:1040700005460B4EDFF83080324606EB0807CC1BB6
:10408000204608490CF0D1FCA01942460021083C0A
:104090000CF0D8FCAC6707F10800BDE8F08100BF68
:1040A00000000000941901000400000010B5244C29
:1040B000244925480AF078FDA36A99013ED5224893
:1040C00022490AF071FD1E20A36ADA0104D51E48B8
:1040D0001F490AF069FD1F20194CA36ADB0204D5B1
:1040E00019481C490AF060FD0220A36A1C0304D58C
:1040F000154819490AF058FD2120114CA36A5903AB
:1041000004D5114815490AF04FFD2220A36A9A03ED
:1041100004D50D4812490AF047FD2320084CA36A34
:10412000DB0304D508480F490AF03EFD2420A36AAA
:104130006FEA03436FEA1343A36210BD1D20C3E778
:1041400000ED00E09F3E010054190100B73E010060
:10415000CA3E0100E43E01000E3F01002C3F010079
:10416000513F01006B3F010070B506460D46314CD2
:10417000314932480AF018FDA36AD90649D52F48BB
:104180002F490AF011FD1120A36A1A0704D52B4804
:104190002C490AF009FD1220264CA36A9B0712D570
:1041A000294926480AF000FD636BA26A110609D569
:1041B0000121264A21480AF073FC1EB1A36A23F0AC
:1041C0008003A36213201B4CA36ADA0704D51B48A3
:1041D0001F490AF0E9FC1420A36A9B0604D517487E
:1041E0001C490AF0E1FC1520124B9A6AD60602D44B
:1041F0009A6A94070FD59B6AD9060CD516491748B9
:1042000040F22D120AF02EFA40F22D1112480AF057
:1042100020FA1020B8E7074B9A6A920642BF5A6A02
:1042200022F400525A629A6A42F0FF029A62002314
:104230002B7070BD00ED00E0963F010054190100A5
:10424000AC3F0100DF3F0100F23F01000A400100E6
:10425000204001003F4001006E4001006F37010027
:1042600070B506460D46284C284929480AF09CFCA2
:10427000A36AD9043CD5264826490AF095FC1720A4
:10428000A36A1A0504D5224823490AF08DFC182098
:104290001D4CA36A9B0512D51D4820490AF084FCD9
:1042A000A36BA26A100409D501211D4A18480AF01F
:1042B000F7FB1EB1A36A23F40043A3621920124C3A
:1042C000A36A590504D5124816490AF06DFC1A2054
:1042D000A36ADA050ED50E4813490AF065FC1B20C7
:1042E000094A936A43F47F43936200232B7070BDA5
:1042F0001620C5E7A36A9B04F2D505480B490AF0CE
:1043000053FC1C20ECE700BF00ED00E0A0400100E2
:1043100054190100B6400100DF3F0100C740010011
:10432000E0400100F5400100104101003F40010064
:10433000F0B59DB0714B05465868002600AFC0F33C
:10434000080386F31188BFF36F8F02F07F44B4F146
:104350007F4F07D102F00C04082C0ED16849694840
:104360000AF022FC684940F21B4268480AF07AF9D8
:1043700040F21B4164480AF06CF914074CBF0D462B
:104380000126002DEED00022FA71DA1E092A00F271
:104390009480DFE802F0058A8D7592929292929055
:1043A0005B4958480AF000FC0023544CFB71E36A57
:1043B0009A0705D5574953480AF0F6FB00242DE02B
:1043C000E36A002B01DA5449F5E7E36A5B0063D541
:1043D00052494C480AF0E8FB6369AA6943F48073C8
:1043E0006361BFF34F8FBFF36F8F32F8023C626996
:1043F00022F480726261BFF34F8FBFF36F8F03F4BB
:104400007F42B2F55F4F24D1DBB2022B21D12B6862
:104410000121434A3B480AF043FB2C68FB79ABB9C6
:104420006822294607F108000CF0FFFA7B6A002E8B
:1044300060D0C3F3080222B96FEA53236FEA432323
:104440007B62204607F10801FFF77CFD7437BD460B
:10445000F0BD2A4B9A6AD2B22AB10120F91DFFF7AA
:1044600083FE0446DAE79A6A12F47F4F04D00120F3
:10447000F91DFFF7F5FEF4E79B6AB3F5803F02D321
:10448000FFF714FEEDE7204940F2ED221F480AF045
:10449000E9F840F2ED216DE71B494FF43C721B48EF
:1044A0000AF0E0F84FF43C7164E70020F91DD6E70C
:1044B0000020F91DDDE71B497DE71B4A6C4610F41F
:1044C000F87F8AB0194918BF11466A46103B079316
:1044D0004FF400731648ADF82030164BCDE90501B6
:1044E00042F8103F00234FF411510648FFF76EF9D0
:1044F000A54663E76FF30803A2E700BF00ED00E005
:1045000056410100541901006E4001006F3701004F
:104510008141010098410100B9410100C7410100FA
:10452000E6410100024201003D4101002841010035
:104530002642010004000001064B5A6942F01002B5
:104540005A615A6942F480625A615A6922F008023B
:104550005A61704700ED00E0EFF30880EFF3098146
:1045600001B57246FFF7E4FE01BD00BF002080F3F5
:104570001488BFF36F8F002080F30A8880F30B88C4
:104580000F4880F3088802F03FFF00200D490860C3
:10459000BFF34F8F00F02CF8202080F311880A48D9
:1045A0004FF40061401880F30988EFF31480022172
:1045B000084380F31488BFF36F8F00F0B5F8000054
:1045C000204C002094ED00E0E03A00200023184643
:1045D0000649D1F89020C2F30722934200DB7047CE
:1045E000C1F89830C1F8A0000133F6E700ED00E013
:1045F00010B572B6002484F31388FFF7E7FF234653
:104600004FF0FF300C4A03F120010133102B42F828
:104610002100F8D100234FF0FF30074A03F1600179
:104620000133102B42F82100F8D162B6BFF34F8F4F
:10463000BFF36F8F10BD00BF00E100E01EF0040F5C
:104640000CBFEFF30880EFF30980816911F8021CB9
:104650000229FFD001B572460AF09BFA01BD00BFE6
:1046600000B2002807DB01234109034A00F01F00C4
:10467000834042F82130704700E100E000B200289A
:104680000CDB01220649430900F01F008240203361
:1046900041F82320BFF34F8FBFF36F8F704700BFE8
:1046A00000E100E0054B420953F82220012300F00D
:1046B0001F0003FA00F01040704700BF00E100E067
:1046C0000131072908B508D90D490E486B2209F0B8
:1046D000C9FF6B210A4809F0BCFF00B20028ACBF3B
:1046E00000F16040084B4FEA4111C9B2ABBF00F581
:1046F000614000F00F0080F80013195408BD00BF9E
:10470000394201006F37010014ED00E0044B054A07
:1047100023F07F039360BFF34F8FBFF36F8F70471A
:104720000000000000ED00E008B5FFF7EFFF104BC0
:10473000D3F8882022F47002C3F88820D3F88820A8
:1047400042F4A002C3F888204FF04042C3F834225C
:10475000BFF34F8FBFF36F8F0023E1EE103AFFF7E7
:10476000C9FBFFF7D3FB00F0EFF805F087FA00BFB5
:1047700000ED00E04FF47D41C0F8C41042F8203C49
:10478000009B0B4942F81C3C019B21F0010142F8BF
:10479000183C029B42F8081C42F8143C4FF080730E
:1047A00042F8043C0023203A0265C367704700BF0B
:1047B000B9260000104B9B6883421AD1EFF30580A5
:1047C000B8B9EFF31181202282F31288BFF36F8F03
:1047D0009A8922F002029A81EFF3148323F00403F2
:1047E00083F31488BFF36F8F81F31188BFF36F8F4A
:1047F00070476FF015007047E02D00200E461546FB
:10480000002300B5E1EE103AEFF3148323F0040324
:1048100083F31488BFF36F8FBFF36F8F0B4B826FDF
:1048200098600B4B1A60836E83F30B882C4686F3DB
:1048300009880020034B98472046002100220023CE
:10484000014C2047C5EB0000B9260000E02D0020F8
:104850002C2C00201022014B1A61704700ED00E063
:10486000054B9A699B689A421FBF044A536843F0FC
:1048700080535360704700BFE02D002000ED00E042
:10488000084B9B6883420BD1EFF3058343B1064B82
:104890005A6842F080525A605A6A22F400425A62C0
:1048A00006F048BBE02D002000ED00E023498A68B7
:1048B00082F8C5E04FF030001044EFF3098C80E837
:1048C000F01F1EF0100F03D102F1840080EC108A5B
:1048D000202080F31288BFF36F8F194F4FF00066CE
:1048E0008A698A603E60906F164C206092F9C5E03C
:1048F000D06F0023D36780F311881EF0100F03D010
:104900000023E1EE103A03E002F1840090EC108AFB
:10491000EFF3148323F0040383F31488BFF36F8F42
:1049200002F1300090E8F01F8CF3098802F10000DA
:1049300004B50AF041F9BDE804407047E02D0020BD
:1049400004ED00E02C2C00200023202040F20F1268
:1049500010B5044CE1180133934281F80003F9D1FA
:1049600010BD00BF00E100E008B5EFF30583064A83
:10497000103B02EBC30152F8330049688847BDE899
:104980000840FFF76DBF00BF940F010001480068A9
:10499000704700002C2C00201FB50121094B0A4A4A
:1049A0000A4800F00FF90023064A0393084B01213F
:1049B000019301A8D31A029300F01EF905B05DF827
:1049C00004FB00BF0000042000000020B42B010005
:1049D000A81500200A7A0B6810B562F304031C4680
:1049E000CB68520923F01F0343EA4203044A43F011
:1049F0000103C2F89800C2F89C40C2F8A03010BD74
:104A000000ED00E010B50A4BD3F89030C3F3072354
:104A1000013B984208D901210346064A06480AF09C
:104A20003FF86FF0150010BDFFF7D4FFFBE700BFA4
:104A300000ED00E0744201004C1901002DE9F04F37
:104A40008946144606464FF000084F4D85B0C845CC
:104A500027DAD6F804A0BAF1000F44D0BAF11F0F3C
:104A600017D91AF01F0F14D1D6F800B01BF01F0F82
:104A70000FD158460AF0C9F807460AEB0B00013877
:104A80000AF0C3F8874210D06FF015073F4A3B4643
:104A900001E043463E4A01213E480AF001F86FF02A
:104AA0001504204605B0BDE8F08F17F1160FEDD0C4
:104AB000BC42EBDDC5F89870D5F89C10C5F898702D
:104AC000D5F8A03021F01F0143F01F0BD6E90032CA
:104AD0001A44994202F1FF3A1AD1D34507D131461F
:104AE000F8B20AF09BF808F101080C36AFE731463E
:104AF000C5F89870D5F89C30E0B263F30402C5F8AD
:104B00009C200AF08BF810F1160FC8D0441CEAE77D
:104B1000C5F89870D5F8A020013B23F01F0302F0E0
:104B20001F021343D3453146E0B2C5F8A030E8D0A8
:104B30000AF074F810F1160FB1D0C5F89870D5F8D6
:104B40009C209DF808300BF1FF3B62F304038DF8C5
:104B50000830D5F8A0309DF808205B0863F34712B1
:104B60008DF80820D6E900321344009323F01F0388
:104B70005B44A3EB0A03013023F01F036946C0B274
:104B80000393FFF73FFFBEE700ED00E0C0420100E6
:104B90009A4201004C1901000522044BC3F89420ED
:104BA000BFF34F8FBFF36F8F704700BF00ED00E082
:104BB000BFF35F8F0022024BC3F89420704700BF01
:104BC00000ED00E010B5094C2278FFF737FF2070A8
:104BD00016300AD10649074840F2891209F042FD11
:104BE00040F28911024809F034FD10BDC6310020A1
:104BF000E34201006F3701002DE9F74F2E4D8A4641
:104C000006464FF00008AB462C4FD04502DB03B000
:104C1000BDE8F08FD6F80490B9F1000F47D03168A5
:104C20000846019109F0F1FF0199044609EB0100E2
:104C3000013809F0EAFF84424FF01402204B10D0F3
:104C400002FB08F36FF015024BF803201D491E48C4
:104C500040F2991209F006FD40F29911194809F045
:104C6000F8FC14F1160F2C60F0D01978A142EDDD9C
:104C700002FB08B0C7F89840C7F89840D7F89C40A6
:104C800000F10801007B64F304000871D7F8A0006C
:104C90000C79400860F347140C71D7F89C1021F090
:104CA0001F016960D7F8A01021F01F01296108F1E8
:104CB000010814350C36A8E7302C002000ED00E088
:104CC000C6310020E34201006F3701002DE9F041B9
:104CD0006249634DD1F890302C68C3F307239C429E
:104CE00086B00AD95F4940F202225F4809F0BAFC57
:104CF00040F202215B4809F0ACFC0020FFF758FFAE
:104D00005A4BC1F8C03084421BD1594D01A82C70B8
:104D1000FFF7DCF8002607464FF06108554CB74214
:104D200016D100202B784D49D1F89020C2F30722EC
:104D30009342C0F28D800020FFF72EFF06B0BDE841
:104D4000F081696801EB0011FFF744FE0130DAE7FA
:104D5000019A300102EB0613D3F80CC00CEA0401EF
:104D6000B1F1807F53D00AD8B1F5001F29D0B1F539
:104D7000800F3FD0B1F5801F14D00136CFE7B1F1DD
:104D8000006F44D0B1F1805FF7D159689B68125829
:104D9000013B21F01F000344CDE9021223F01F0361
:104DA00001220BE0596812589B68CDE902122122BA
:104DB000013B21F01F00034423F01F038DF8102056
:104DC00032E0596812589B68CDE902124122013B3A
:104DD00021F01F00034423F01F031CF0010F8DF886
:104DE0001020059321D01F4984221F4809F03AFC66
:104DF00084217FE759689B681258013B21F01F000E
:104E00000344CDE9021223F01F030622D6E75968B6
:104E100012589B6821F01F00013BCDE902120344A8
:104E200023F01F038DF810800593287802A9FFF75F
:104E3000E9FD002808DA0B4940F235220A4809F05A
:104E400011FC40F2352155E72B7801332B7094E7A4
:104E5000C1F89830C1F8A000013365E700ED00E02B
:104E6000C02B0100E34201006F370100AAFF44009C
:104E7000C63100200000F0FFF0B587B007460E46AF
:104E800014460021102268461D460BF0DBFD02236C
:104E90008DF80230054B2A4621466846CDE9047656
:104EA000019308F0B9F907B0F0BD00BF4FEC000066
:104EB00008B50649064821F00701C1F1005202F584
:104EC0008022FCF7A1FF002008BD00BF274C002076
:104ED000442C002008B5244A244B1A6000F072F8D4
:104EE0004FF47A612248D0F82436C3F30802C3F3A2
:104EF00009434B4382F480721E49883201FB02331E
:104F00004FF4FA215B00B3FBF1F201FB12331A49B3
:104F1000B3F57A3F28BF0132C1F80429D0F8203612
:104F20004FF47A60C3F30802C3F30943434340F6E6
:104F3000C41082F4807202F2172200FB02334FF495
:104F40007A701B0AB3FBF0F200FB12330020B3F5BA
:104F5000FA7F4FF0010328BF0132C1F81C27C1F8C6
:104F60000009C1F8003608BD0020A1073C1400204C
:104F700000C0FF00B80B00800000125048B1054B84
:104F8000054A1B68B3FBF2F35843044B43F001039B
:104F9000184770473C14002040420F00D019010010
:104FA000BFF34F8F0549064BCA6802F4E062134312
:104FB000CB60BFF34F8F00BFFDE700BF00ED00E007
:104FC0000400FA050122024BC3F80424704700BF15
:104FD000002008E037B540230C460A490093411AE7
:104FE000491105462346084A084809F036FE01469D
:104FF00028B12846234603B0BDE83040184703B027
:1050000030BD00BF642C0020C7EC00007C0E010006
:10501000C9B2012908B508D9084909487E2209F012
:1050200021FB7E21054809F014FB0C22036901FBDA
:105030000233986C00F0070008BD00BF3043010048
:105040006F37010070B5C9B20129034600690AD95A
:10505000174918484FF4E87209F004FB4FF4E8715F
:10506000134809F0F6FAEFF31186202484F312882E
:10507000BFF36F8F0C2505FB0104A46C14F0C00472
:1050800001D0A24211D1012205FB0100826400205F
:1050900086F31188BFF36F8F30B90C225B6802FB77
:1050A00001335B689847002070BD4FF0FF30EFE799
:1050B000304301006F37010070B50D4606490446C4
:1050C000411A491140220548FFF7BCFF2B46014613
:1050D0002046BDE870401847642C00207C0E01007B
:1050E000F8B500220121054640F20510FFF7E8FA65
:1050F0000F4802F039FA0446B8B902F055FA2F69A0
:105100000C49384609F0FEFB031E09DB0126BE648C
:105110002D69084905F1200009F0F4FB031E02DAAD
:105120001C462046F8BD6E65FBE76FF00404F8E707
:10513000E9510000E82B01001FB5002201236C4655
:10514000CDE902236B46074ACDE9004409F0B4FDDE
:1051500028B943F609520023684605F007F804B061
:1051600010BD00BFD3EC000010B5EFF31184202375
:1051700083F31288BFF36F8F074A136823F002018D
:10518000DB07116002D4012002F05AFA84F311887F
:10519000BFF36F8F10BD00BFBC2C00200C22104B42
:1051A000014602FB0033002030B4D3E910521864EA
:1051B000EFF31180202484F31288BFF36F8F9C6C6F
:1051C00004F0C00444F002049C6480F31188BFF32F
:1051D0006F8F1DB12B4630BC0248184730BC70475A
:1051E000642C00207C0E010008B506281BD8DFE8DF
:1051F00000F023230D0F04232300104B986C10F0B4
:10520000070019D1BDE80840FFF7C8BF0120F9E742
:105210000B4940F2FA220B4809F024FA40F2FA2135
:10522000074809F016FA06494FF44172054809F09B
:1052300019FA4FF44171F3E708BD00BF642C002058
:10524000304301006F37010010B4EFF311802022CA
:1052500082F31288BFF36F8F17490B6843F0020483
:1052600013F001030C6017D0144BD3F80C3413F473
:10527000803311D0EFF3118182F31288BFF36F8F67
:105280000F4A936C03F0C00343F00203936481F36D
:105290001188BFF36F8F012380F31188BFF36F8FE5
:1052A00023B100205DF8044BFFF778BF01205DF8C3
:1052B000044B02F09BB900BFBC2C002000E0105052
:1052C000642C0020024BC0B203EB4010704700BFBB
:1052D000642C00202DE9F041012206463F49D1E827
:1052E000EF3FC1E8E02F0028F9D19BB93C493D4888
:1052F0004B60CB608A60FDF711FE00280ADA3A495C
:1053000040F2A322394809F0ADF940F2A321364812
:1053100009F09FF9002E4CD0731E012B55D8012E99
:1053200006D1334BD3F8503403F00303012B40D0A4
:105330000AF01EFD054650B1EFF31188202383F3D8
:105340001288BFF36F8F0125294C2A4F20E02A4B8A
:105350001B78002BF0D00422254B8046C3F808238D
:10536000F2E745B3404609F041FCD4F8403413F06D
:10537000FF030DD1D4F8082152B1C4F80831D4F894
:10538000083120220123C4F84034C7F8A02123614A
:10539000D4F84C24D4F84C34D203E2D503F0030300
:1053A000012B01D0012EDCD155B188F31188BFF358
:1053B0006F8FBDE8F0810021202005F041FDD4E78A
:1053C00004220B4BC3F80423F3E7074940F2B5224C
:1053D000064809F047F940F2B52198E7602C002013
:1053E000502C0020842C0020304301006F37010036
:1053F00000E0105000E100E0D732002038B503692A
:1054000041B91D4964221D4809F02CF964211A484C
:1054100009F01FF9486830B917496522174809F0A3
:1054200021F96521F3E7586800B30024884219D1B7
:1054300008688CB99C685860A14200D1986000202F
:1054400008602AB15A680A609A68596002B999607E
:1054500000200FE02846E9E720609868814208BFF5
:105460009C60ECE705680446002DF3D1002AE9D1E1
:105470006FF0150038BD00BF944301006F37010085
:1054800008B503685F2B4FEA531107D80B4A03F0A6
:105490001F0352F82120DA40D2070AD408490948EC
:1054A0004FF4826209F0DEF84FF48261044809F09B
:1054B000D0F80360044B53F8210008BD182C0100FC
:1054C000D04301006F3701000C2C010070B5446817
:1054D00001F01F05207C86B045EA4015A068002831
:1054E00071D0B2F5001F04D1294602F037FE00202A
:1054F0004EE06068667CB2F5800F46624FF00006B1
:1055000001A80196466032D1B3F1007F14BF052394
:1055100004238DF804300023CDE904030393E368EA
:105520006E46CB4013F0010F34D1B2F1A07F31D1E0
:1055300068460095FFF7A4FF009B203350F8233006
:10554000DB0727D46A462946A06802F0B5FC16306E
:1055500018D002962946A06803AA02F055FB00283D
:1055600016DB01222946A06802F080FDBFE7B3F1F7
:10557000C06F05D0B3F1007F14BF01230223C8E739
:105580000323C6E76946A06802F050FD0028E0DA70
:1055900006B070BD32462946A06802F08DFC002896
:1055A000D8D19DF80010A06802F024FD0028D1D0C9
:1055B0000649074840F2F11209F054F840F2F1119F
:1055C000024809F046F86FF08500E1E70344010066
:1055D0006F3701002DE9F043466840F20635337C11
:1055E000D00601F01F0747EA431748BF032302EA2A
:1055F000050558BFC2F3401387B0B5F5837F144645
:105600008DF8033043D00DD8062D42D005D8A5B172
:10561000022D12D06FF0150036E0B5F5807FF9D17C
:1056200001250AE040F20222954234D0B5F5407FD0
:1056300033D0B5F5007FEDD1042522032FD501230A
:1056400072688B405360B06880BB03A80397FFF774
:1056500017FF039B00EB8300C4F3004383F00103B7
:10566000C4F34044D0F8802044EA43049DF803305A
:1056700022F4706244EA830422F00F0244EA052314
:105680001343C0F88030002007B0BDE8F08309253F
:10569000D3E70825D1E70625CFE70525CDE7630346
:1056A00041BF012372688B409360CCE739460DF10E
:1056B000020202F001FC14F4403F804616D1394644
:1056C000B06802F081FCB8F1000FDCD19DF8021047
:1056D000B06802F08FFC0028D5D01E491E48FC227D
:1056E00008F0C0FFFC211B4808F0B3FF4FF0000991
:1056F00001ABCDE90199CDE90439CDF80C903946DB
:10570000B06803AA02F080FA4845BCDB14F4003309
:1057100014D09DF80330C4F3004484F001048DF8E4
:105720000E308DF80C508DF80D404B463946B06860
:1057300003AA02F029FB0028C5DAA4E7CDE9043367
:105740000DF1030303933946B06803AA02F05CFA33
:10575000F1E700BF034401006F3701004209022A4C
:10576000034670B503D0012A1BD0E2B170BD134EC1
:10577000326951680029F9D0012503F01F030C6834
:105780009D400029F2D08A682A4010D04B6863B946
:105790000B490C48892208F065FF8921084808F068
:1057A00058FF094EE4E7094EE2E7304698471CB13E
:1057B000236821461C46E4E72346FAE7D00E0100A1
:1057C000944301006F370100B40E0100980E0100F0
:1057D00038B54568A868C0B102F0DEFB0146A0B943
:1057E000A86802F097FB044688B902460949A868F0
:1057F00002F04EFB22460121DB20FEF761FF22462C
:10580000012140F20D10FEF75BFF002038BD6FF064
:105810000400FBE75D5700002DE9F04782B000AFC0
:10582000674D28460AF07EFA0346D0B96C4688B028
:1058300029686A466348CDE905014FF40071ADF867
:105840001C10614942F8101F4FF4E2515F48FDF708
:10585000BDFFA5466FF0120420460837BD46BDE8DF
:10586000F0874FF00009DFF87C81594EDFF878A10E
:1058700098F80010D8F80430AA6813F0FC6F6C6830
:1058800028697A600AD053494FF47D72524808F073
:10589000E9FE4FF47D714F4808F0DBFE03F0300263
:1058A000302A08D14B4940F2F7324B4808F0DAFE73
:1058B00040F2F731EFE703EA0602524508D14549C5
:1058C00040F2FB32444808F0CDFE40F2FB31E2E703
:1058D00003F00602042A08D13E4940F2FE323E4857
:1058E00008F0C0FE40F2FE31D5E713F4402217D095
:1058F00013F4003F08D1374940F20142364808F01E
:10590000B1FE40F20141C6E7B2F5402F08D131495E
:1059100040F20542304808F0A5FE40F20541BAE7E2
:1059200013F4801F05D022B143F3000202F4402299
:1059300053404FF0010E24680EFA01FE1EEA040FD8
:1059400023F4801208D1234940F21142224808F082
:1059500089FE40F211419EE70468DB074CBF44EA30
:105960000E0424EA0E047B6804601B6828469847EE
:10597000041E19DA29686D468AB06A4698F8003024
:10598000CDE907344FF400731448ADF82430144BBC
:10599000CDE9050142F8103F00234FF431510B4887
:1059A000FDF714FFAD4657E709F10103022B4FF055
:1059B000010908F108087FF45BAF00244CE700BF41
:1059C000B40E010051440100030000011C19010044
:1059D000020003003E3701006F37010068440100F8
:1059E00005000001602C010002000100044B054A83
:1059F00001219362044AC7201A600022FEF760BEAC
:105A0000E42C00203C13002000700C502DE9F04FD6
:105A100089B002AFBB604368D0F810A0D3F820B0C3
:105A20009B8A3A617B614FF0FF324FF0FF330546AE
:105A30000C4609F0A7F90AF13C03FB60002600239D
:105A400000220AF13C0004F091FB33463A69964289
:105A500001D300235DE0207A010700F19B803A69C1
:105A600001369642D4F800E00BD2820709D4227D99
:105A700080EA020C0CF0010C02F004025CEA020C59
:105A800024D0002B4FD10EF06042B2F1005F4DD117
:105A90004FF00009D4F80080A388BA68CAF8508093
:105AA000217A28460092424600F0AAF8031E30DB15
:105AB00043F609520023F86804F058FB00284BD045
:105AC000284609F076F96FF0730322E04FF00108E1
:105AD0006268796903EB020C8C4529D96C468CB05D
:105AE000286802A92E4ECA61C1E905637B690A468E
:105AF000C1E9083040F203530B852A4B42F8103FAE
:105B000000234FF451512848FDF760FE6FF01B034E
:105B1000A54628467B6109F039F97B691C37184690
:105B2000BD46BDE8F08F4FF00008D1E79846CFE7BB
:105B3000C10706D40BEB030071467B600AF075FFCA
:105B40007B6862681A4493B2B8F1000F0CD1002B45
:105B50009ED09946D846A0E7DAF84C30002B1CDBE3
:105B6000237ADB0702D400230C346FE7C345FAD154
:105B700023460AE0A9EB0201D8681FFA81F918FA56
:105B800081F17B600AF051FF7B685A680C3B9145BC
:105B9000F0D2E8E76FF08503BBE76FF00403B8E7E6
:105BA000AF440100060000012C19010008B5CA0726
:105BB00043681ED4C1F3420102290BD003290ED041
:105BC000012911D14FF0CC729B6A1B680020C3F8E9
:105BD000242508BD9B6A4FF0C8621B68F6E79B6AE4
:105BE0004FF07F621B68F1E70121034A034808F088
:105BF0004EFF6FF01500ECE7924501002C190100F3
:105C0000F0B50C461D46164689B0476812220021A1
:105C10000DF10E000AF016FF04F001038DF80C30B0
:105C2000BDF8383004958DF80D30BB8C0696AB422C
:105C30000AD20A48009301212B46094A08F03AFF8C
:105C40006FF01B0009B0F0BDC4F3400282F0010206
:105C5000B86A520103A903F017FBF3E72C190100FE
:105C6000A4450100B0B50446456800AFAB6998474C
:105C70000121E86909F08EF8234629462A69A86AB5
:105C800003F074FA002818DA23686C4688B06A4674
:105C90000C49CDE905134FF40073ADF81C300A4BE5
:105CA00042F8103F094800234FF4E251FDF78EFD02
:105CB0006FF00400A546BD46B0BD204609F091F83E
:105CC0000020F8E7EB450100030000012C1901005A
:105CD00008B503685F2B4FEA531107D80B4A03F04E
:105CE0001F0352F82120DA40D2070AD40849094894
:105CF0004FF4826208F0B6FC4FF48261044808F069
:105D0000A8FC0360044B53F8210008BD982C010047
:105D1000D04301006F3701008C2C01002DE9F04FBA
:105D20009046064640F2FF1A4D4F85B000EB8109C0
:105D3000B14503D1002005B0BDE8F08F3268C2F351
:105D4000C323082BC2F3080400F287804549544559
:105D500008BF4FF0FF34B2F1506FCD5C4FEA1263D1
:105D60000BD2032B0DD9043B082B0AD8DFE803F034
:105D70000C3C41090909094B5500382B50D04E2BDA
:105D80003BD06FF08500D6E74FF0000BC8F8004617
:105D9000631C36D003A80394FFF79AFF01230399ED
:105DA00003FA01F1816031680394080448BF0023BD
:105DB00003A8CDE9001348BF4FF0010BFFF788FFA0
:105DC000039C009900EB8400D0F88040019BC1F354
:105DD00041212D0245EA81052B433C40234343EA00
:105DE0004B03C0F880300CE04FF0010BC8F80446BC
:105DF000CEE7C8F8084600230BE0631CC8F810463D
:105E00001FD1043694E7C8F80046002DF3D10023D3
:105E10000825621CF5D09B46C5E7C8F80446F4E7A0
:105E200003A80394FFF754FF039B00EB8300D0F813
:105E3000803023F0E04343F08043C0F880300123FA
:105E4000E7E703A80394FFF743FF0122039B934670
:105E500002FA03F343601346A5E76FF015006AE703
:105E6000F0F0FCFF3050010038B50A4B05460C46F7
:105E70000948995C4FF47A72002381FB0001FAF71C
:105E8000A5FF002384FB0001044AFAF79FFFC5E940
:105E9000000238BD39500100CE68250040420F0095
:105EA00038B5154604690C293BD8DFE801F0070F27
:105EB00013173A3A3A3A3A3A3A3A2A00E27DB4F9B2
:105EC00000102846FFF7D0FF002038BDE27DB4F96E
:105ED0000210F6E7E27DB4F90410F2E72846E27D0D
