:10000000A821002051290000FD9300003D29000097
:100010003D2900003D2900003D2900003D29000048
:10002000000000000000000000000000212A000085
:100030003D29000000000000712C00003D29000057
:10004000292D0000292D0000292D0000292D000058
:10005000292D0000292D0000292D0000292D000048
:10006000292D0000292D0000292D0000292D000038
:10007000292D0000292D0000292D0000292D000028
:1004C8004FEA4102B2F1E04324BFB3F5001CDCF16E
:1004D800FE5C0DD901F0004C4FEAC0024CEA5070A6
:1004E800B2F1004F40EB830008BF20F001007047D5
:1004F80011F0804F21D113F13872BCBF01F00040D8
:10050800704741F480114FEA5252C2F11802C2F109
:10051800200C10FA0CF320FA02F018BF40F001008A
:100528004FEAC1234FEAD32303FA0CFC40EA0C003C
:1005380023FA02F34FEA4303CCE77FEA625307D179
:1005480050EA01331EBF4FF0FE4040F440007047B0
:1005580001F0004040F0FE4040F40000704700BF4A
:1005680080F0004002E000BF81F0004142001FBF60
:100578005FEA410392EA030F7FEA226C7FEA236C69
:100588006AD04FEA1262D2EB1363C1BFD21841405E
:1005980048404140B8BF5B42192B88BF704710F0F4
:1005A800004F40F4000020F07F4018BF404211F097
:1005B800004F41F4000121F07F4118BF494292EAFF
:1005C800030F3FD0A2F1010241FA03FC10EB0C002B
:1005D800C3F1200301FA03F100F0004302D54942B8
:1005E80060EB4000B0F5000F13D3B0F1807F06D365
:1005F80040084FEA310102F10102FE2A51D2B1F15D
:10060800004F40EBC25008BF20F0010040EA030051
:100618007047490040EB0000013A28BFB0F5000FD1
:10062800EDD2B0FA80FCACF1080CB2EB0C0200FA87
:100638000CF0AABF00EBC25052421843BCBFD040D6
:100648001843704792F0000F81F4000106BF80F450
:1006580000000132013BB5E74FEA41037FEA226C13
:1006680018BF7FEA236C21D092EA030F04D092F0DE
:10067800000F08BF0846704790EA010F1CBF002012
:10068800704712F07F4F04D1400028BF40F000406F
:10069800704712F100723CBF00F50000704700F08F
:1006A800004343F0FE4040F4000070477FEA2262B6
:1006B80016BF08467FEA23630146420206BF5FEA87
:1006C800412390EA010F40F4800070474FF0000387
:1006D80004E000BF10F0004348BF40425FEA000C4E
:1006E80008BF704743F0964301464FF000001CE0F6
:1006F80050EA010208BF70474FF000030AE000BF4C
:1007080050EA010208BF704711F0004302D5404289
:1007180061EB41015FEA010C02BF844601460020FB
:1007280043F0B64308BFA3F18053A3F50003BCFA16
:100738008CF2083AA3EBC25310DB01FA02FC6344C3
:1007480000FA02FCC2F12002BCF1004F20FA02F2CA
:1007580043EB020008BF20F00100704702F12002BD
:1007680001FA02FCC2F1200250EA4C0021FA02F21E
:1007780043EB020008BF20EADC7070477BB972B90E
:100788000029BEBF00204FF0004106E008BF002846
:100798001CBF6FF000414FF0FF3000F057B8ADF1CB
:1007A800080C6DE904CE002909DB002B1ADB00F0E8
:1007B80057F8DDF804E0DDE9022304B07047404251
:1007C80061EB4101002B1BDB00F04AF8DDF804E087
:1007D800DDE9022304B0404261EB4101524263EB80
:1007E80043037047524263EB430300F039F8DDF8E6
:1007F80004E0DDE9022304B0404261EB41017047A7
:10080800524263EB430300F02BF8DDF804E0DDE926
:10081800022304B0524263EB4303704753B94AB909
:10082800002908BF00281CBF4FF0FF314FF0FF30F0
:1008380000F00CB8ADF1080C6DE904CE00F010F82A
:10084800DDF804E0DDE9022304B07047704700BF1B
:10085800034613F8012B002AFBD1181A01387047F8
:100868002DE9F0478C468E46089E154604461946E3
:10087800002B40F0D080724547D9B2FA82F74FB1C9
:10088800C7F120030EFA07FCBD40BC4020FA03F371
:1008980043EA0C0C4FEA154EA8B2230CBCFBFEF839
:1008A8000EFB18CC08FB00F943EA0C43994528D9FC
:1008B800EB1808F1FF3204D2994502D9A8F10202D7
:1008C8002B44A3EB0903A4B2B3FBFEFC0EFB1C33C1
:1008D8000CFB00F044EA0344A04214D92C190CF193
:1008E800FF3304D2A04202D9ACF102032C44241AEB
:1008F80043EA02401EB1FC40002334607360BDE847
:10090800F0874246DDE76346F1E7002A79D0B2FA7C
:1009180082F3002B3FD01946C1F1200302FA01F5FA
:1009280000FA01F42EFA03F20EFA01FE20FA03F39C
:10093800AFB243EA0E034FEA154EB2FBFEFC0EFBC4
:100948001C201A0C0CFB07F842EA004290455AD9C1
:10095800AA180CF1FF3004D2904502D9ACF102007C
:100968002A44A2EB08029BB2B2FBFEFC0EFB1C223F
:100978000CFB07F743EA02439F4246D9EB180CF1F8
:10098800FF3204D29F4202D9ACF102022B44DB1B96
:1009980042EA004202E0AEEB020301224FEA154EA2
:1009A800AFB2200CB3FBFEFC0EFB1C330CFB07F8AC
:1009B80040EA034398452AD9EB180CF1FF3004D2DA
:1009C800984502D9ACF102002B44A3EB0803A4B26A
:1009D800B3FBFEFC0EFB1C330CFB07F744EA034495
:1009E800A74216D92C190CF1FF3304D2A74202D919
:1009F800ACF102032C44E41B43EA00400F461146C5
:100A080078E71F2188E76046ABE76246BFE76046A4
:100A1800DBE76346EFE7734506D916B900210846B8
:100A28006DE7C6E9000EF9E7B3FA83F787B97345AE
:100A380001D3824207D8841A6EEB030301209C4637
:100A48001EB900215BE73846FAE7C6E9004CF8E72B
:100A5800C7F1200CBB4000FA07F422FA0CF520FA83
:100A68000CF1BA401D432EFA0CF30EFA07FE4FEABA
:100A7800154941EA0E011FFA85FEB3FBF9F809FB97
:100A880018300B0C08FB0EFA43EA00439A4540D98C
:100A9800EB1808F1FF3004D29A4502D9A8F10200F8
:100AA8002B44A3EB0A0389B2B3FBF9F809FB18330B
:100AB80008FB0EFE41EA03418E452CD9691808F15E
:100AC800FF3304D28E4502D9A8F10203294443EA30
:100AD8000040A1EB0E01A0FB02984145CE464346DB
:100AE80002D306D14C4504D20138B9EB020E68EBAB
:100AF8000503002EA5D0B4EB0E0261EB030101FA49
:100B08000CFC22FA07F3F9404CEA0303C6E900316A
:100B180097E74046C5E74346D9E7000000000000D4
:100B280010EE103A33F0004210B52DED028B06D1CD
:100B38000120BDEC028BBDE8104007F031BE002B50
:100B480005DABDEC028BBDE8104007F037BEB3F103
:100B5800FF4F06DB30EE008AB0EE480ABDEC028B90
:100B680010BDB3F5000F6049BBBFDFED607A6FF0D1
:100B78001802002260EE277AB8BF17EE903AF7EE17
:100B8800007ADC15C3F316037F3C1944144401F4BE
:100B9800000282F07E5204EBD15403F10F011A4394
:100BA80007EE102A524A0A4037EE678AB2BBB5EE02
:100BB800408AF1EE10FA0FD1002C00F08C8007EE7D
:100BC800904A9FED4C0A9FED4C7AF8EEE77A27EEB3
:100BD800808A07EE878ABFE741A1D1E90001FFF7C4
:100BE8006FFCB6EE007A07EE900A07EEC87A68EE58
:100BF800087A27EE277A14B938EE478AACE707EE69
:100C0800904ADFED3C6AF8EEE77A07EEE67A37EECF
:100C1800488A9FED397A17EE878A9DE7F0EE007AC9
:100C28009FED365ADFED364A364A78EE277A1A446F
:100C3800C3F5571388EE276A07EE904A03F5227327
:100C48001343F8EEE76ADFED307A002B66EE065ABA
:100C580025EEA57A07EE275ADFED2C7A45EE077ABE
:100C68009FED2B5A07EE875ADFED2A7A47EE274A7F
:100C7800DFED297A44EE877A67EE877A45EE257AA2
:100C88001ADDB6EE007A28EE077A27EE087A77EEB4
:100C9800877A67EE867A14B937EE677AACE79FED04
:100CA800156A46EE867A37EE677A37EE488ADFEDC0
:100CB800127A16EEA78A4FE778EE677A67EE867A99
:100CC80014B938EE678A47E79FED0A7A46EEC77A85
:100CD80037EEC88AEBE79FED118A3DE7AFF3008056
:100CE800555555555555D53F20FB4A000000004C39
:100CF800F0FF7F00D1F717378071313F25333A3E37
:100D0800298E633E305CCFFF9788173E2549923E77
:100D1800ABAA2A3F4FD01C3ECDCCCC3E00000000F1
:100D28002DE9F04F2DED028B804897B007F08EFE2D
:100D38007F4B09AC93E8070084E807001E220021D6
:100D48000DF13A0009F0A1FD7A4A7B4B0125CDE966
:100D58000C2328238DF838303C2310948DF8393033
:100D68008DF854508DF85650744C204609F0F4F81C
:100D7800079040B9724807F069FE002017B0BDEC33
:100D8800028BBDE8F08FD4F808900CA92046D9F85A
:100D980000309847011E03DA6A4807F057FEECE76F
:100DA80029462046D9F804309847011E01DA6648DA
:100DB800F3E7664807F04AFE4FF000080024079B57
:100DC8000022059300230A26A246A3462546CDE91C
:100DD800022306944FF47A7300930021D9F808701F
:100DE80056480CAB09AAB847011E6ADA584807F0FA
:100DF8002DFE47F61220002109F0FDF9013EE9D148
:100E0800002CDBD0DDE9020122463346FFF7B6FCB1
:100E1800FFF776FC08EE100AB1EEC88A2246334680
:100E280006992846FFF7AAFCBDEEC88A5B460090E3
:100E380018EE102A4146474807F008FE18EE103A07
:100E4800002B08F101076EDDB0EE480ABAEEE80A99
:100E580007F04EFCF3EE047A20EE278ADFED3E6AB7
:100E6800F3EE0E7A38EE267A27EE277AC7EE267A40
:100E7800FDEEE77A17EE904A1E2CA8BF1E243748CD
:100E880007F0E4FD0025364E24EAE4743548AC4208
:100E9800C8BF3046013507F0D9FD1E2DF6D1FDEE4D
:100EA800C87A314817EE901A07F0D0FD059B1BB1A0
:100EB80051462E4807F0CAFD2D4807F0C7FDB84631
:100EC8007CE70C9BDDF824E05F081CB9012B88BF88
:100ED800BEF900A070460EEB470C604505D171467F
:100EE80024483C4409F06DF888E730F9023B069A3B
:100EF8005D1942EBE3720692DDE90212C3FB83122D
:100F0800CDE9021283EAE372A2EBE37292B25A4588
:100F1800C8BF0FFA82FB059A534514BF002202F09E
:100F280001020592D9E79FED148A97E77ABD000080
:100F380050B7000040420F00509731004CAD000000
:100F4800CFBD0000ECBD00000EBE000034BE0000A6
:100F580071BE0000B0BE00000000B442CFBE000069
:100F680078BD0000C4C00000D1BE0000DCBE000097
:100F78006FBE0000C00300200000B4C22DE9F04F8E
:100F880091B0009302F004030293C2F3C203013349
:100F9800840705460E46DDF868A00392059340F0E5
:100FA8009C81041D002849D101F00706341DC6F1B3
:100FB8000806009B00274FF004085A1E4FF0FF3325
:100FC800B9460193BB46434604970DB1009820608B
:100FD8000598002800F3D6808F480099814203D3F2
:100FE8008E488142C0F0CE800399601B11F0020C3C
:100FF80040F0D680B9F10F0F00F2CF80002D00F03D
:10100800D68009F140010DEB010E0199C0F387006C
:101018000EF8200C0EF8101CBCF1000F00F0C38075
:1010280060F07F000EF8200C013709F10109C5F1C5
:1010380008014FF6DA7E043406918CE00729B8D807
:101048006FF01B0011B0BDE8F08F7A285BD84B28F1
:101058000FD8472857D829282ED8252850D052D815
:10106800202818BF23280CBF4FF0010B4FF0000BAE
:1010780071E04C382E2846D8DFE800F06D4545452C
:101088004545454545454545484545454545454505
:1010980045564548485656566D486A456D45184860
:1010A8001845457F7C48454548457C0000204FF061
:1010B800000B4FF0040835E001212A38C0B201FACC
:1010C80000F010EA0E0F46D110F0625C2CD110EA45
:1010D800010B40D06046013C4444B4FBF8F408FBE3
:1010E80004F425B1A3EB050CA444B445A8D8002802
:1010F80070D00598013805905AF8040B009064E701
:101108000199013901914FF0000B24E012F8010C0C
:101118006C2834D1002012F8023C83466C2BC8D1CD
:101128004FF008084346D6E70AF1070A2AF0070AEB
:101138000734BAEC027B24F0070435B10698204442
:10114800B0423FF67DAF84ED007B4FF0000B0834D2
:101158004FF00808434612F8010F002853D0BBF19E
:10116800000F7FF472AF2528F5D14FF0010B019BDA
:10117800013301934FF00408ECE7584697E7002045
:101188008346A8E7039988077FF551AF4FF0010C14
:10119800601BB0F5007FFFF42DAF6FF0150051E72D
:1011A8004FF0000CF5E70498013004903DE7BCF1DE
:1011B800000F01D0013638E70299023600297FF482
:1011C80034AF0098CDE90632FFF742FBDDE906327D
:1011D80006442AE7042B08D10AF1040015B1DAF80D
:1011E8000010216082460434B5E70AF1070323F0B2
:1011F800070303F1080A1DB193ED007B84ED007B22
:1012080008230834A7E7631BB3F5806FC5D23DB93F
:10121800A6F10804E01815E71CAC0000E8C90000B6
:10122800029A9B0828602B709DF81030AAB1EB70C9
:10123800AF702FB1002208A8C5F1010C91450ED15D
:101248004FF0000AC5F101030DF1200801930DF1DB
:10125800300BD14512D1601BF4E66B70E8E710F84B
:10126800013B190608D50CEB040EB64503F07F03C5
:101278003FF6E6AE04F8013B0132DFE71FB198F90B
:101288000020002A17DB029BD3B11AF80B2004F8C0
:10129800012B0022019B18191044B0423FF6D0AE32
:1012A80098F80000009904F8010B2046039209F011
:1012B800DFFA039A14440AF1010A08F10108C8E7A1
:1012C80098F8002055F822300093029B009845F8C2
:1012D8002230FFF7BDFA421CDCE76FF00D00B1E6E3
:1012E8002DE9F04F97B000AF05468A46C7E90A32A4
:1012F80049B903784678807800EB8300284456453E
:1013080024D8A0EB050AD7F8803095F8028003F0BE
:101318000103D7F88040FB61EB78B8F1000F0CBFF0
:10132800002404F001047B621BB1D7F880309A07CF
:1013380015D4A4B9FB6A1BB151462846BA6A984726
:10134800564630465C37BD46BDE8F08F441C204603
:10135800FFF77EFA013020440AF1010ACFE7D7F8F7
:101368008030C3F3C0033B622B78BB619B003B61B9
:101378006B687B61BB6905EB830BFB6A002B77D13C
:101388005646D844BCB11C461BF8013B55F823000F
:10139800FFF75EFAD7F88430013043B1D7F88830C8
:1013A800A34282BFD7F8843023F814000134C34520
:1013B8000644E9D1D846D7F880304FF0000913F039
:1013C800050F0CBF4FF0020B4FF0010B7B6A9945DC
:1013D800B7D298F8013008F1020855F823A0AE4BAF
:1013E8009A45C0F04D81AD4B3A6A9A452CBF00230F
:1013F80001230AB318F8021C7869FB6207F007FB9F
:10140800FB6AC8B1EA468AB06A46A54B05937B6970
:10141800CDE906314FF40073ADF82030A14B42F806
:10142800103F00234FF412519F4800F0E9FCD546C5
:10143800023E09F10109C9E723B1FB6933B9A6EBFB
:101448000B06F6E7D7F880309B07F2D55046FFF732
:10145800FFF9D7F884304BB1D7F888309C423FBFAA
:10146800D7F88420431C22F8143001340644E0E7FE
:10147800002C6AD1B8F1000F6DD0D7F880305E0724
:101488006CD5C14607F148004246594609F0F0F9C3
:1014980000220BEB0803FB600233796A8A425FD3B0
:1014A800D7F8802095F801B0F969920704EB0B038F
:1014B80048BF0022DBB258BF4FEA5902002940F06A
:1014C800A780D7F8801011F0040F14BF49460021F7
:1014D8006B70A970EA702846BA6A3969FB6A98473E
:1014E800061EFFF62EAFBB6949462B707B6ABA6AA7
:1014F800EB7085F801B0FB6A85F8028007F14800B7
:101508009847B0F10009C0F2B7803B697A6A786AF7
:1015180003EB4201FB68414403EB4000BA6AFB6AF3
:10152800AAEB010198470028C0F2A8804FF0000BF1
:10153800B14409EB000607F1380AA3456AD3002134
:10154800BA6A0846FB6A9847FBE644464FF000092A
:1015580007F1380098E74446C14699E7A14697E75E
:1015680013F8021C13F8016CB96055F826004A49B3
:101578008842C0F08B8049498842396A2CBF4FF0B5
:10158800000B4FF0010B41B1B9687869C7E9003227
:1015980007F03DFAD7E90032F0B9BBF1000F1ED0D1
:1015A800F96949B1611C04F1280007F130040419F4
:1015B80004F8206CCCB20FE0D7F8801048070BD5A0
:1015C80009F1280007F1300C09F1010100EB0C09C1
:1015D80009F8106C5FFA81F9013202335DE7D7F838
:1015E80080108907DED409F1280107F1300C8C44FA
:1015F800B96809F101000CF8101C07F1580109F14C
:10160800020951FA80F05FFA89F900F8106CE3E7F3
:1016180000215DE71BF80A3055F8239087F837302A
:10162800D7F884302BB3D7F888309B4521D2D7F828
:10163800843033F81B800121BA6AFB6A07F137004E
:10164800984700281ADB0644B8F1000F06D148462F
:10165800FFF7FEF800F101081FFA88F841464846EE
:10166800BA6AFB6A9847002808DB06440BF1010BAD
:1016780063E74FF00008DEE74E4662E6064660E69E
:101688003B6A002B3FF4DEAE0023B3E6396A00293B
:10169800A5D04FF0000B77E71CAC0000E8C90000AC
:1016A8002EBF000004000001CCB60000014B1860FA
:1016B800704700BFF000002080B505460E4617466B
:1016C800984604F013FC034601F03CFB0446DFF89F
:1016D8001890424649F8003039463046A84754F831
:1016E800090001F0ABFA00BF080000002DE9F0473F
:1016F800058B0446280717460CD501290CBF45F071
:10170800100545F02005258387F31188BFF36F8FF7
:10171800BDE8F087022905F0070540F094802046CF
:1017280007F00DFC052864D801A353F820F000BF8A
:10173800111700004F180000FB170000BD1700002C
:10174800D7170000E917000001F007035A1F012A04
:101758001FD8002221F00701062BD4F8008089B297
:10176800C4E9002209D1434603E0628B0132628357
:101778001B68002BF9D141F002012046218307F0B4
:10178800DEFB4FF0000900286DD041F020012183D5
:1017980069E0042B0AD121F0070189B22046218390
:1017A80007F0CDFB10B141F0200121834FF0000874
:1017B800C14658E02369D3F80090238B23F0070330
:1017C80043F006034FF00008238346464BE02369A5
:1017D800D3F80490238B23F0070343F00403F1E7C5
:1017E8002369D3F80890238B23F0070343F00503FC
:1017F800E8E74FF00008C146E7E7012243F0080395
:10180800238387F31188BFF36F8F002A3BD1B8F188
:10181800000F4AD1B9F1000F02D020462C49C84721
:10182800EFF31187202383F31288BFF36F8F238B85
:1018380023F008039BB22383D9063FD523F0100277
:10184800228303F007056669218B002EBFF67CAF63
:1018580000239946D4F8008021F00701C4E9003339
:1018680041F001012183238B03F0070AAA4502D026
:10187800A268002AC1D1B8F1000F02D1B9F1000F56
:10188800DAD00022BAE7A1680029C0D00D68002983
:10189800BDD03346524620464F68B8471DB12B6825
:1018A80029461D46F3E72B46FAE74146334652469A
:1018B8002046D8F8008007F06EFBA8E79A067FF567
:1018C80023AF23F02002228303F0070527E700BF98
:1018D800CB8F00002DE9F047044607464FF0010979
:1018E800DFF84C8094FAA4F5B5FA85F509FA05F302
:1018F8002E0108EB05156FEA030A24EA03042B7B83
:1019080063B158F806301B696BB946447368042202
:101918002846196807EA0A0707F032FC002CE1D1CB
:101928003846BDE8F087284698470028F6D1ECE706
:1019380034B7000010B5002288B00E490E4808F0F0
:1019480029FD002200230024CDE906230E234FF4AD
:101958004072CDE90334CDE90144084B08490094AD
:10196800084804F05DF80849064808F0AAFB204634
:1019780008B010BD9519000028090020B11C00000E
:101988006811002058040020EDBF0000014803F052
:10199800AFBF00BF2C0400202DE9F0478046214846
:1019A8000F4607F0D1FB0646002833D0002528460D
:1019B800BDE8F087237B83B12368DB680BB1204641
:1019C8009847636883F8069023681B69D3B96368EE
:1019D80004222046196807F0D3FB01361034544519
:1019E800E8D3B8F1000FE2D0002DDFD02846FFF78A
:1019F80071FF0546002FF7D0002140F2391008F09A
:101A0800FAFBF1E7204698470028E0D009FA06F3E8
:101A18001D43E2E705464FF00109034CDFF80CA02F
:101A2800DDE700BF500C002034B7000044B70000C9
:101A3800014B53F8200070472CBA000008B5034644
:101A480008462BB1044A136000F038FC002008BD9A
:101A58006FF01500FBE700BFF400002010B5044C40
:101A6800237813B9034803F043FF0123237010BD03
:101A7800601100202C04002010B50446094807F026
:101A880063FB3CB1084BD3E8EF1F0139C3E8E21F01
:101A9800002AF8D1054804F039FDBDE81040044893
:101AA80003F026BF480C00204C0C00202809002019
:101AB8002C0400200022044BD3E8EF0FC3E8E12FE9
:101AC8000029F9D1704700BF480C002070B5FFF716
:101AD800F1FF0546074C084EB44200D370BD636859
:101AE8005B792BB123685B6813B129462046984778
:101AF8001034F1E734B7000044B7000010B5044CC7
:101B08000449204607F0B0F8034B1C6010BD00BF25
:101B18008403002018BA0000400C002000230D4A5E
:101B280010B513700C4A0D4913600D4A0D48136027
:101B3800FFF784FFFFF7E2FF0B4B0C4918468B4277
:101B480000D310BD1A1A5C681211013222711033C9
:101B5800F5E700BF61110020480C002040420F004B
:101B68004C0C00204D91000034B7000044B7000031
:101B7800014600220023014807F097B8840300209B
:101B8800014807F02EB900BF84030020024B01462C
:101B9800186807F081B900BF400C0020014807F021
:101BA800B6B900BF84030020F8B5284B1B78002B7A
:101BB8004AD0FFF7E5FF0446002842D1244B254DC3
:101BC8001B68002B19DD08F0E3FB4FF47A76A0FBC5
:101BD800060747F61222002306FB0171FEF71EFED8
:101BE800D5E90032C01A40F2E93361EB02019842AC
:101BF80071F1000101D3FFF769FFD5E9003213F550
:101C08007A7342F10002C5E90032ECB1BDE8F84050
:101C1800FFF7C4BF6B685B7923B12B682146284660
:101C28001B6898471035B542F4D32046FFF7AEFF3E
:101C3800094BD3E8EF1F0139C3E8E21F002ABDD0E2
:101C4800F7E7064D064EEEE70020F8BD60110020CC
:101C5800480C0020200900204C0C002034B700005C
:101C680044B7000070B50D4D297861B90120FFF720
:101C780093FE0B4C0B4EB44206D3FFF795FF00289A
:101C8800FBD101232B7070BD63685B791BB123689E
:101C980020469B6898471034EDE700BF611100208B
:101CA80034B7000044B7000000212DE9F843084686
:101CB800FFF772FE044648B340F21B684FF0000974
:101CC80001F040F81A4B1B4A1B58136033B11A4BEA
:101CD8001B68092B02DD194803F00AFE0025184F7E
:101CE80044B12046FFF7F6FD044618B94FF0FF3817
:101CF8004FF0FF39FFF758FF064628B9B5B90F4826
:101D080042464B4603F028FE3546E9E74FF0FF38D8
:101D18004FF0FF39D4E72B689B691BB10022284696
:101D2800114698471035BD42F5D3E8E7054DFAE767
:101D380008000000440C00204C0C00202C0400205B
:101D480044B7000034B7000013B5184807F0FCF991
:101D5800174B1B7873B1EFF31184202383F3128898
:101D6800BFF36F8FFFF720FF84F31188BFF36F8FE6
:101D780002B010BD0F4B1B68002BF9D050B90022E0
:101D880000230D48CDE9002347F61222002304F072
:101D980085FBEDE70928EBD1074804F0B7FB0748B6
:101DA80002B0BDE8104003F0A3BD00BF4C0C0020FA
:101DB80061110020440C0020280900202C04002078
:101DC80010B5064B04461B6898472146A060044896
:101DD80006F0E8FFBDE81040FFF7B6BFF4000020AA
:101DE80084030020044A054B9B1AB1EBD30F34BF80
:101DF80052F8310000207047C4B6000034B7000024
:101E08002DE9F04F8FB0C1F34A2604AF0D46904636
:101E1800B8607B600C0D002E61D04FF000090A23DA
:101E28004FF0040B07F1140AFE60C7E90799C7F8D9
:101E380024900093CDF808B0CDF804A007F11C0356
:101E48004A464046F968FFF74BFAB0F5006F03467B
:101E58001CD36C468AB0D8F8041004AB24481A4640
:101E6800C3E9050140F2FF71D9614FF4007119848B
:101E7800204B42F8103F4FF412514B461E48FFF7D3
:101E8800BFFFA5462C37BD46BDE8F08FC0F30A0654
:101E980004F11700184420F0070080083B60FFF7A2
:101EA80067FE66F35325044680B13B6800F11001D4
:101EB800C7E908390A23F961CDE901AB0093404627
:101EC8000E4AF96807F11C03FFF70AFA66F353256F
:101ED8002A4620467B68B96807F072F9D2E704F110
:101EE800170020F007008008FFF742FE0446EDE7E0
:101EF80002C0000004000001ECB600009B91000045
:101F08002DE9F04F87B00546DDE9106BDDE9127A5F
:101F1800884614469946BFB110213B465A460020D0
:101F2800CDF800A0CDF814A0FFF728F8B0F5006FA1
:101F380001460BD340F2FF730221184A184807B034
:101F4800BDE8F04F07F095B93946384604F0070365
:101F580005F00704E40044EA831444EA402444EA10
:101F6800065406F11700084420F007008008039182
:101F7800FFF7FEFD054640B13FB13B465A4603997F
:101F8800CDF800A01030FEF7F9FF4B462246414637
:101F9800284607B0BDE8F04F07F012B941C000006D
:101FA800ECB60000406820B1034BC01A40F3CF00E4
:101FB80070474FF0FF307047C4B600000EB403B549
:101FC80003AB53F8042B01460448019301F0EEF8E3
:101FD80002B05DF804EB03B0704700BFC592000083
:101FE800CA0605D48B064CBF02490349FFF7E6BF72
:101FF800704700BF6FBE000079C000002DE9F04FA8
:1020080089B098469DF85090159B044606930D4656
:10201800DDE916A3189F05920493B9F1000F00F0AB
:10202800AE8007F48073079307F0A8F807F0020B57
:102038000246002872D020467649FFF7BFFF0646C1
:10204800BBF1000F08D017F0440F69D12A4620468B
:102058007149FFF7B3FF064407F0010353B16F4B13
:10206800204653F829206E4B6E49002A08BF1A46AD
:10207800FFF7A4FF07F48073002B07F0080318BFCD
:102088004FF00008002B77D0674B204653F82920E3
:102098006649FFF793FF0546059B2BB11A46204674
:1020A8006349FFF78BFF0544B8F1000F05D042469E
:1020B80020466049FFF782FF05445F483544069B88
:1020C8001BB122465D4906F071FC049B002B00F011
:1020D8008C80049B3946102B28BF10232046984635
:1020E8000026FFF77DFFB54250DC00263346204628
:1020F8001AF803205249FFF761FF0136102E4BD022
:10210800710703D120464F49FFF758FF464533462C
:10211800EDD320464C49FFF751FFEEE706468FE71F
:102128004A4B1868002896D0494B4FF47A7B1B68B5
:102138004FF03C0CB5FBF3F5B5FBF0F14FF46163E0
:1021480000FB11550BFB05F5B1FBF3F2B5FBF0FEF7
:1021580003FB121100FB1E55B1FBFCF30BFB05F54D
:10216800B5FBF0F50CFB131120460091CDE901E514
:102178003849FFF723FF6EE707F008058CE7B8F149
:10218800010F4D460CBF2C48334898E720462D498F
:10219800FFF714FF0136A6E7002620462F49FFF770
:1021A8000DFF33461AF803202046A2F120035F2BC7
:1021B80028BF2E222A49FFF701FF0136102E0DD025
:1021C800720703D120461F49FFF7F8FEB045334692
:1021D800E8D820461B49FFF7F1FEEEE7049BC2440E
:1021E800B3EB080304937FF474AFB9F1000F0AD07E
:1021F800FB0704D520460A4A0A49FFF7DFFE39469D
:102208002046FFF7EDFE204609B0BDE8F04F07F085
:1022180048B800BF81C0000085C000003CBA00007B
:102228007CC00000AAC0000050BA0000ADC0000089
:10223800B3C00000B7C00000C5920000B53100006F
:10224800BCC00000C4C00000C2C00000580C002080
:10225800540C00208EC00000F3920000CFBE000096
:10226800C6C0000042F20F7373B58B4228BF0B46FD
:1022780005680446052168460D4A05F06FF90646CB
:10228800636828460B225B680A4906F0FCFF63680E
:102298003246694628465B6806F0F5FF63681B22EC
:1022A80028465B68044906F0EEFF02B070BD00BF27
:1022B8002AC70000B0C9000094C90000002101230A
:1022C800064A904206D8064A01B901231360054B15
:1022D80018607047012140085B00F2E740420F0098
:1022E800540C0020580C0020F8B50D460446064F43
:1022F8004618B44201D12846F8BD14F8011BBB6842
:1023080001485B689847F4E730AD0000014B036073
:102318000020704798BA000008B5044806F096FBFC
:10232800034806F093FB002008BD00BF03C100006E
:1023380038C1000008B50348034A0021121A07F003
:1023480051F808BD5804002068110020074808B556
:10235800074A0849121A07F047F8BDE80840064836
:10236800064A0749121A07F03FB800BF600000206C
:1023780054040020E8C9000060000020600000202C
:10238800E8C900002DE9F84F80460C4600AF002947
:1023980065D0D1E90012E9468AB0A3686D464FF0CE
:1023A800050A6E463748CDE90723CDE9050146F809
:1023B80010AF002332464FF421513348FFF720FD78
:1023C800D4E90312CD466369AD463048C5E9072311
:1023D800C5E90501C5F810A0002332464FF4215184
:1023E8002948FFF70DFDCD46E3690121284A264813
:1023F80006F03FFF264600254FF00A0ADFF8A0B096
:10240800E946D6E908C0D6E90A138EB06A46CDF87F
:102418001CC005F1010CCDE908C0A81CCDE90A01D2
:10242800E91CCDE905B5CDE90C1342F810AF00233E
:1024380045F2400114480435FFF7E2FC102DCD4663
:1024480006F11006DCD1236E0121124A0E4806F06F
:1024580010FFA3690121104A0B4806F00AFFB8F1E2
:10246800010F07D1EFF305830C4A41460648103B9C
:1024780006F0FFFE2146404602F0E2FEBD46BDE8FA
:10248800F88F00BF65C100000CB7000094C10000C0
:10249800C3C1000015C2000024C2000052C20000DF
:1024A800D2C1000030BFFFF7FDBF00BF2DE9F041EA
:1024B80005460B4EDFF83080324606EB0807CC1B8A
:1024C8002046084908F0D4F9A01942460021083CE2
:1024D80008F0DBF9AC6707F10800BDE8F08100BF40
:1024E8000000000044B700000400000010B5244CB0
:1024F8002449254806F085FFA36A99013ED522485C
:10250800224906F07EFF1E20A36ADA0104D51E4880
:102518001F4906F076FF1F20194CA36ADB0204D579
:1025280019481C4906F06DFF0220A36A1C0304D554
:102538001548194906F065FF2120114CA36A590373
:1025480004D51148154906F05CFF2220A36A9A03B6
:1025580004D50D48124906F054FF2320084CA36AFD
:10256800DB0304D508480F4906F04BFF2420A36A73
:102578006FEA03436FEA1343A36210BD1D20C3E74C
:1025880000ED00E065C200000CB700007DC200004D
:1025980090C20000AAC20000D4C20000F2C200002B
:1025A80017C3000031C3000070B506460D46294C1C
:1025B80029492A4806F025FFA36ADB0647D527489C
:1025C800274906F01EFF1120A36A1C0704D52348DB
:1025D800244906F016FF12201E4CA36A990712D54B
:1025E80021491E4806F00DFF636BA26A120609D541
:1025F80001211E4A194806F03CFE1EB1A36A23F0C9
:102608008003A3621320134CA36ADE0704D5134882
:10261800174906F0F6FE1420A36A9C0604D50F4855
:10262800144906F0EEFE15200A4B9A6AD10658BFE7
:102638009A6A9A6A920642BF5A6A22F400525A6209
:102648009A6A42F0FF029A6200232B7070BD102034
:10265800BAE700BF00ED00E05CC300000CB7000063
:1026680072C30000A5C30000B8C30000D0C30000B7
:10267800E6C3000005C4000070B506460D46284CA8
:102688002849294806F0BDFEA36AD9043CD5264846
:10269800264906F0B6FE1720A36A1A0504D5224873
:1026A800234906F0AEFE18201D4CA36A9B0512D5DF
:1026B8001D48204906F0A5FEA36BA26A100409D59F
:1026C80001211D4A184806F0D4FD1EB1A36A23F45F
:1026D8000043A3621920124CA36A590504D5124875
:1026E800164906F08EFE1A20A36ADA050ED50E48A2
:1026F800134906F086FE1B20094A936A43F47F4378
:10270800936200232B7070BD1620C5E7A36A9B0453
:10271800F2D505480B4906F074FE1C20ECE700BF13
:1027280000ED00E034C400000CB700004AC400000B
:10273800A5C300005BC4000074C4000089C4000085
:10274800A4C4000005C400002DE9F0419CB0644B0E
:102758000546D3F80480002600AFC8F3080486F3C2
:102768001188BFF36F8F02F07F43B3F17F4F07D11A
:1027780002F00C03082B12D15A495B4806F041FEBF
:10278800002635460023FB71E31E092B00F28880E2
:10279800DFE803F00A7E817A8686868686841007BB
:1027A8004CBF0D460126EDE750494F4806F029FE7B
:1027B80000234B4CFB71E36A9A0705D54C494A48FC
:1027C80006F01FFE00242DE0E36A002B01DA4949D8
:1027D800F5E7E36A5B00F5D54749434806F011FE83
:1027E8006369AA6943F480736361BFF34F8FBFF3D2
:1027F8006F8F32F8023C626922F480726261BFF323
:102808004F8FBFF36F8F03F47F42B2F55F4F25D12F
:10281800DBB2022B22D12B680121384A324806F05C
:1028280028FD2C68FB79ABB96822294607F1080016
:1028380008F01EF87B6A002E4FD0C3F3080222B9B5
:102848006FEA53236FEA43237B62204607F10801AE
:10285800FFF798FD7037BD46BDE8F081204B9A6AB6
:10286800D2B222B10120F91DFFF79EFE0EE09A6A4E
:1028780012F47F4F04D00120F91DFFF7FDFE05E09B
:102888009B6AB3F5803F9DD3FFF730FE0446C9E746
:102898000020F91DE8E70020F91DEEE718498EE74A
:1028A800184A18F4F87FE8468AB0174B08BF134651
:1028B8006A461649103CCDE905134FF40073ADF88C
:1028C8002030134B079442F8103F00234FF4115166
:1028D8000548FFF795FAC54674E76FF30803B3E7B1
:1028E80000ED00E0EAC400000CB7000015C50000C8
:1028F8002CC500004DC500005BC500007AC500006E
:1029080096C50000BCC40000D1C40000BAC50000D0
:1029180004000001064B5A6942F010025A615A69D4
:1029280042F480625A615A6922F008025A6170477B
:1029380000ED00E0EFF30880EFF3098101B572467E
:10294800FFF702FF01BD00BF002080F31488BFF32A
:102958006F8F002080F30A8880F30B880F4880F37C
:10296800088801F0B7FC00200D490860BFF34F8FBD
:1029780000F02CF8202080F311880A484FF40061F9
:10298800401880F30988EFF314800221084380F38C
:102998001488BFF36F8F00F0A5F80000A82100206D
:1029A80094ED00E068140020002318460649D1F889
:1029B8009020C2F30722934200DB7047C1F8983099
:1029C800C1F8A0000133F6E700ED00E010B572B6DB
:1029D800002484F31388FFF7E7FF23464FF0FF3006
:1029E8000C4A03F120010133102B42F82100F8D1E1
:1029F80000234FF0FF30074A03F160010133102B29
:102A080042F82100F8D162B6BFF34F8FBFF36F8F42
:102A180010BD00BF00E100E01EF0040F0CBFEFF393
:102A28000880EFF30980816911F8021C0229FFD0A0
:102A380001B5724606F0DAFC01BD00BF00B20028FD
:102A480007DB01234109034A00F01F00834042F8D5
:102A58002130704700E100E000B200280CDB0122C1
:102A68000649430900F01F008240203341F8232023
:102A7800BFF34F8FBFF36F8F704700BF00E100E0D7
:102A8800054B420953F82220012300F01F0003FAE6
:102A980000F01040704700BF00E100E000B20028DD
:102AA80001F10101ACBF00F16040064B4FEA411152
:102AB800C9B2ABBF00F5614000F00F0080F8001309
:102AC8001954704714ED00E0044B054A23F07F03C6
:102AD8009360BFF34F8FBFF36F8F70470000000004
:102AE80000ED00E008B5FFF7EFFF104BD3F88820A2
:102AF80022F47002C3F88820D3F8882042F4A00298
:102B0800C3F888204FF04042C3F83422BFF34F8FF8
:102B1800BFF36F8F0023E1EE103AFFF70BFCFFF7CE
:102B280015FC00F0EFF802F0ADFC00BF00ED00E08E
:102B38004FF47D41C0F8C41042F8203C009B0B497B
:102B480042F81C3C019B21F0010142F8183C029B11
:102B580042F8081C42F8143C4FF0807342F8043CD9
:102B68000023203A0265C367704700BFC116000002
:102B7800104B9B6883421AD1EFF30580B8B9EFF385
:102B88001181202282F31288BFF36F8F9A8922F075
:102B980002029A81EFF3148323F0040383F3148869
:102BA800BFF36F8F81F31188BFF36F8F70476FF09A
:102BB80015007047B40D00200E461546002300B5D9
:102BC800E1EE103AEFF3148323F0040383F314883F
:102BD800BFF36F8FBFF36F8F0B4B826F98600B4BF8
:102BE8001A60836E83F30B882C4686F309880020CD
:102BF800034B98472046002100220023014C204720
:102C080027940000C1160000B40D0020800C00209D
:102C18001022014B1A61704700ED00E0054B9A69DC
:102C28009B689A421FBF044A536843F0805353601D
:102C3800704700BFB40D002000ED00E0084B9B6812
:102C480083420BD1EFF3058343B1064B5A6842F038
:102C580080525A605A6A22F400425A6203F04CB910
:102C6800B40D002000ED00E023498A6882F8C5E031
:102C78004FF030001044EFF3098C80E8F01F1EF08D
:102C8800100F03D102F1840080EC108A202080F319
:102C98001288BFF36F8F194F4FF000668A698A60F8
:102CA8003E60906F164C206092F9C5E0D06F00230B
:102CB800D36780F311881EF0100F03D00023E1EED4
:102CC800103A03E002F1840090EC108AEFF31483C9
:102CD80023F0040383F31488BFF36F8F02F13000ED
:102CE80090E8F01F8CF3098802F1000004B506F0A3
:102CF80090FBBDE804407047B40D002004ED00E0EF
:102D0800800C0020002320210448C2180133B3F5A9
:102D1800917F82F80013F8D1704700BF00E100E00E
:102D280008B5EFF30583064A103B02EBC30152F8DE
:102D3800330049688847BDE80840FFF76FBF00BF08
:102D480068AD00000148006870470000800C002052
:102D58001FB50121094B0A4A0A4800F00FF9002360
:102D6800064A0393084B0121019301A8D31A029341
:102D780000F00EF905B05DF804FB00BF00FC072069
:102D88000000002098BA0000580400200A7A0B6856
:102D980010B562F304031C46CB68520923F01F03E5
:102DA80043EA4203044A43F00103C2F89800C2F818
:102DB8009C40C2F8A03010BD00ED00E010B50A4BF1
:102DC800D3F89030C3F30723013B984208D9012177
:102DD8000346064A064806F04CFA6FF0150010BD87
:102DE800FFF7D4FFFBE700BF00ED00E0D1C500000E
:102DF80004B700002DE9F04F8946144606464FF007
:102E080000084F4D85B0C84527DAD6F804A0BAF1B6
:102E1800000F44D0BAF11F0F17D91AF01F0F14D1A1
:102E2800D6F800B01BF01F0F0FD1584606F01AFB5A
:102E380007460AEB0B00013806F014FB874210D056
:102E48006FF015073F4A3B4601E043463E4A0121E1
:102E58003E4806F00EFA6FF01504204605B0BDE8AE
:102E6800F08F17F1160FEDD0BC42EBDDC5F8987066
:102E7800D5F89C10C5F89870D5F8A03021F01F013E
:102E880043F01F0BD6E900321A44994202F1FF3A87
:102E98001AD1D34507D13146F8B206F0ECFA08F159
:102EA80001080C36AFE73146C5F89870D5F89C3064
:102EB800E0B263F30402C5F89C2006F0DCFA10F1D6
:102EC800160FC8D0441CEAE7C5F89870D5F8A020BA
:102ED800013B23F01F0302F01F021343D345314681
:102EE800E0B2C5F8A030E8D006F0C5FA10F1160F28
:102EF800B1D0C5F89870D5F89C209DF808300BF132
:102F0800FF3B62F304038DF80830D5F8A0309DF834
:102F180008205B0863F347128DF80820D6E90032D1
:102F28001344009323F01F035B44A3EB0A0301300F
:102F380023F01F036946C0B20393FFF73FFFBEE7C4
:102F480000ED00E01DC60000F7C5000004B7000052
:102F58000522044BC3F89420BFF34F8FBFF36F8F44
:102F6800704700BF00ED00E0BFF35F8F0022024B07
:102F7800C3F89420704700BF00ED00E010B5034C83
:102F88002278FFF737FF207010BD00BF63110020C3
:102F98002DE9F74F294D8A4606464FF00008AB4603
:102FA800274FD0451BDAD6F80490B9F1000F3FD06F
:102FB80031680846019106F055FA0199044609EB73
:102FC8000100013806F04EFA84424FF014021D4BFE
:102FD80008D002FB08F36FF015024BF8032003B08A
:102FE800BDE8F08F14F1160F2C60F8D01978A142C3
:102FF800F5DD02FB08B0C7F89840C7F89840D7F845
:103008009C4000F10801007B64F304000871D7F8C4
:10301800A0000C79400860F347140C71D7F89C1095
:1030280021F01F016960D7F8A01021F01F01296164
:1030380008F1010814350C36B3E700BF840C0020F2
:1030480000ED00E063110020F0B55349534DD1F86D
:1030580090302C68C3F307239C4287B000F2998014
:103068000020FFF781FF4E4BC1F8C030844216D1D3
:103078004C4D01A82C70FFF749F9002607464A4C29
:10308800B74213D100202B784349D1F89020C2F3DE
:103098000722934277DBFFF75BFF002046E0696871
:1030A80001EB0011FFF772FE0130DFE701993001F3
:1030B80001EB0613DA682240B2F1807F52D00AD8B9
:1030C800B2F5001F34D0B2F5800F3ED0B2F5801FA4
:1030D80012D00136D4E7B2F1006F43D0B2F1805F6D
:1030E800F7D15A689B680958013B22F01F00034436
:1030F80023F01F03012032E05A689B680958013BFE
:1031080022F01F0003440120844623F01F0340EAF5
:103118004C10CDE902218DF8100002A928780593FA
:10312800FFF74CFE00282ADA6FF0150007B0F0BD53
:103138005A689B680958013B22F01F0003444FF06E
:10314800020C012023F01F03E1E75A689B68095825
:10315800013B22F01F000344062023F01F034FF019
:10316800000CD4E75A689B680958013B22F01F00FD
:1031780003444FF0030C012023F01F03C7E72B780B
:1031880001332B70A5E7C1F89830C1F8A0000133CE
:103198007BE74FF0FF30C9E700ED00E0A4BA00007C
:1031A800AAFF4400631100200000F0FFF0B587B0CB
:1031B80007460E4614460021102268461D4607F0B1
:1031C80064FB02238DF80230054B2A4621466846E7
:1031D800CDE90476019304F079FA07B0F0BD00BF99
:1031E800B194000008B5024B1B689847002008BD41
:1031F800980C0020034B044A1860937843F00203AC
:1032080093707047980C00200001002008B505490C
:10321800054A21F007010548521A05F075FB002000
:1032280008BD00BFAF26002000FC07209C0C002032
:1032380008B5244A244B1A6000F0E6FA4FF47A6184
:103248002248D0F82436C3F30802C3F309434B439A
:1032580082F480721E49883201FB02334FF4FA214E
:103268005B00B3FBF1F201FB12331A49B3F57A3F65
:1032780028BF0132C1F80429D0F820364FF47A600B
:10328800C3F30802C3F30943434342F21C5082F4D8
:10329800807202F2172200FB02334FF47A701B0A85
:1032A800B3FBF0F200FB12330020B3F5FA7F4FF0C6
:1032B800010328BF0132C1F81C27C1F80009C1F871
:1032C800003608BD0020A1071003002000C0FF0041
:1032D800F82A00800000125048B1054B054A1B68C7
:1032E800B3FBF2F35843044B43F00103184770470C
:1032F8001003002040420F0070B700002DE9F04194
:1033080006691D4696F8883017469A07069C07D422
:103318001448154906F0D3F86FF00400BDE8F081B1
:10332800631C06F1600818D047F6122C40F2E7300B
:10333800002124EAE4744FF47A720023E4FB0C01C0
:10334800FDF76CFA02460B463946404602F0AAF9E8
:103358000028E3D1736B2B60E0E74FF0FF32134690
:10336800F2E700BFE4B6000053C6000037B50446D4
:1033780000220121D020FFF791FB636800211D6A1C
:1033880001AA284606F071F900281FDB019B2A686C
:103398001979186800F098FD002817DB04230C49F8
:1033A8001A460C4806F05DFE04230B481A460B49E2
:1033B80006F057FE6368256993F82430022B0CBF8A
:1033C8000220002000F03EFBE861002003B030BD81
:1033D800B80C0020D8020020B0020020A80C002061
:1033E8002DE9F04704690D4694F88930D0F8049027
:1033F800D1F810808CB003F0FF0C43B157485849FE
:1034080006F05DF86FF00F000CB0BDE8F08791F89A
:10341800243091F826A0012B0CBF1A46022281F80D
:1034280025204FF0010281F827204FF0000218BF35
:103438004FF0100CBAF1010F0A6209D15A1E012A85
:1034480006D84A69624501D0012A01D1A96931B17A
:103458004449424806F033F86FF01500D4E7D8F82D
:10346800000010B198F8040070B994F888309D07EE
:1034780008D5204606F057FC94F8883023F002035C
:1034880084F888300020BFE7102801D03649E0E7EB
:10349800581ED0F1000E4EEB000E624518BF4FF0DB
:1034A800010C05AE09F1040708BF8A460FCF0FC605
:1034B80097E8070086E80700C5F81CC099F824308B
:1034C8002A4A022B0CBF012300238DF82C30284BED
:1034D80008BF13468DF814E08DF815A00193D8F8AD
:1034E8000030314602932B6801A803936B6804935C
:1034F80001F030FE054608B11E49AAE794F8883065
:103508009B0708D5204606F00EFC94F8883065F332
:10351800410384F888302046D9F8002005A906F030
:10352800E0FB034638B10D480121134A05F0A1FE1E
:103538006FF0040068E7B8F8063094F888206363F1
:10354800D8F8083022F00302236399F82430003BAE
:1035580018BF012343F00203134391E7E4B60000C8
:103568006CC6000097C60000C0C6000000366E0199
:103578000048E801E2C6000010C7000010B5044684
:1035880001F0CCFDC0B1012103460C4A0C4805F0FE
:1035980070FE94F88830DB0709D5E06905F07DFDF9
:1035A800031E04DA0121074A054805F062FE0023DC
:1035B8006FF0040084F8893010BD00BF2DC70000EB
:1035C800E4B6000045C700000B4670B50246006926
:1035D800032B45D8DFE803F0020C020C90F8893081
:1035E80023B1012380F88A3006F0FEFB002070BD6D
:1035F80090F888309B0706D41D491E4805F05FFFE8
:103608006FF00400F3E790F8893003F0FF05002B12
:10361800ECD1012680F88A50146994F8883084F82F
:10362800896013F0010F15D0134BE56263624FF008
:103638000303A362DAD0E06904F1200105F0E2FC9B
:10364800031ED3DA84F889500C4A3146094805F03C
:1036580010FED5E72046FFF791FF0028C6D0CFE738
:1036680004480121064A05F004FE6FF01500BEE784
:1036780053C60000E4B600008D36000061C70000A4
:103688007DC7000010B591F8693083B991F86830AA
:10369800DB0712D551F8040C05F0FFFC031E0CDA09
:1036A800BDE810400121054A054805F0E2BDA1F139
:1036B8002000BDE81040FFF761BF10BD45C70000FE
:1036C800E4B60000F7B506780546454C66B1002318
:1036D8000022206B01A901F051FF031E19DA414AAB
:1036E8000121414805F0C5FD94F88A206B68002A3D
:1036F8004FD0002B37D0002200233C4801A901F00D
:10370800D1FF00282BDA3A49374805F0D8FE03B034
:10371800F0BD019F0022002301A904F1380006F042
:10372800AFFC00280EDA33492F4805F0C8FE206B9D
:10373800019906F046FC0123204684F88A3006F0F9
:1037480053FBE4E7626B39462046C2F34F0206F0AA
:1037580004FB034608B1284AC2E70646C4E70199B4
:10376800206B06F02EFC94F88930002B34D000230F
:1037780084F8893094F88830DB072DD5E06905F0A6
:103788008CFC031E28DA01211C4A174805F071FD3C
:10379800BDE70BB300220023144801A901F082FF02
:1037A800002808DA1249104805F089FE01230C4860
:1037B80084F88A30C3E700220023114801A906F0E3
:1037C8005FFC002808DA0F49074805F078FE0199E0
:1037D800206B06F0F6FBE9E7002E98D0E6E700BF7D
:1037E8007802002091C70000E4B60000B002002073
:1037F800E8C70000AFC70000CFC7000045C70000FA
:10380800D8020020FBC700000122024BC3F80424A1
:10381800704700BF002008E0084B70B5C31A0D467A
:1038280007499B10044659434022064805F054FEB8
:103838002B4601462046BDE870401847DC0C0020A6
:10384800B76DDBB6A4AC0000402373B50B4C0093F6
:10385800041B0B460D460A49A41061430646094A53
:10386800094805F065FE014628B130462B4602B0EE
:10387800BDE87040184702B070BD00BFDC0C0020E6
:10388800B76DDBB6A5950000A4AC00002DE9F843A0
:103898000022012107464FF48770FFF7FFF811480F
:1038A80000F0A2FD0446C0B900F0C8FD25464FF05F
:1038B8001C094FF00C083E690B4909FB056005F02F
:1038C8008EFB031E0CDB012308FB05661D44032D3C
:1038D800F365F0D12046BDE8F8836FF00404F9E7FA
:1038E8001C46F7E7213A000020BB00001FB5002264
:1038F80001236C46CDE902236B46074ACDE9004413
:1039080005F045FE28B943F609520023684602F03F
:1039180023F804B010BD00BFC595000010B5EFF343
:103928001184202383F31288BFF36F8F074A13682B
:1039380023F00201DB07116002D4012005F089FFA2
:1039480084F31188BFF36F8F10BD00BF540D0020A2
:103958000C22104B014602FB0033002030B4D3E99F
:1039680015525865EFF31180202484F31288BFF3B1
:103978006F8FDC6D04F0C00444F00204DC6580F352
:103988001188BFF36F8F1DB12B4630BC0248184712
:1039980030BC7047DC0C0020A4AC000010B4EFF37E
:1039A8001180202282F31288BFF36F8F17490B68AA
:1039B80043F0020413F001030C6017D0144BD3F842
:1039C8000C3413F4803311D0EFF3118182F3128891
:1039D800BFF36F8F0F4AD36D03F0C00343F00203A8
:1039E800D36581F31188BFF36F8F012380F31188AA
:1039F800BFF36F8F23B100205DF8044BFFF7A8BF1A
:103A080001205DF8044B05F018BF00BF540D0020DD
:103A180000E01050DC0C0020042804D0072809D04E
:103A2800022809D07047064BD86D10F0070005D161
:103A3800FFF78EBF0220FBE70120F9E7704700BFC0
:103A4800DC0C0020C3B21C20014A00FB0320704795
:103A5800DC0C00202DE9F041012280463549D1E8EF
:103A6800EF3FC1E8E02F0028F9D133B93249334894
:103A78004B60CB608A6005F0C5FA08F1FF33012B73
:103A88004CD8B8F1010F06D12D4BD3F8503403F0C0
:103A98000303012B42D006F00EFB054650B1EFF3AD
:103AA8001186202383F31288BFF36F8F0125244CDE
:103AB800244F21E0244B1B78002BF0D00422204B0C
:103AC8000646C3F80823F2E755B3304605F0BBFCB9
:103AD800D4F8403413F0FF030ED1D4F808215AB1BA
:103AE800C4F80831D4F808314FF480420123C4F8EF
:103AF8004034C7F8A0212361D4F84C24D4F84C34BE
:103B0800D203E1D503F00303012B02D0B8F1010F72
:103B1800DAD155B186F31188BFF36F8FBDE8F08114
:103B28000021202006F067FBD2E70422044BC3F8EB
:103B38000423F3E7D80C0020C80C0020F80C002060
:103B480000E0105000E100E06611002008B50748C9
:103B580006F002FA38B10648FFF74CFB0448FDF7B7
:103B6800A5FD002008BD6FF01200FBE730AD000096
:103B78007D3B00000A2838B50446074D04D1AB68E0
:103B88000D2128465B689847AB6803485B68E1B23B
:103B98009847204638BD00BF30AD00002DE9F043FE
:103BA80040F206354768D00648BF4FF0030C3B7C0F
:103BB80002EA050558BFC2F3401C87B001F01F0692
:103BC800B5F5837F144646EA43168DF803C045D001
:103BD8000DD8062D44D005D8A5B1022D12D06FF00E
:103BE800150038E0B5F5807FF9D101250AE040F2EB
:103BF8000222954236D0B5F5407F35D0B5F5007F25
:103C0800EDD10425220331D501237A688B40536016
:103C1800B86890BB7F2E06F01F034FEA561175D87F
:103C28003C4A52F82120C4F3004102EB8302D2F847
:103C3800803081F00101C4F3404423F4706344EA06
:103C4800410423F00F031C4344EA8C0444EA05248E
:103C5800C2F88040002007B0BDE8F0830925D1E70D
:103C68000825CFE70625CDE70525CBE7630341BF48
:103C780001237A688B409360CAE731460DF102024E
:103C880005F0C2FF14F4403F80460CD13146B868B5
:103C980005F0D3FFB8F1000FDCD19DF80210B86829
:103CA80000F0BCFED6E74FF0000901ABCDE9019961
:103CB800CDE90439CDF80C903146B86803AA05F06F
:103CC800ECFE4845C6DB14F4003314D09DF80330ED
:103CD800C4F3004484F001048DF80E308DF80C50C4
:103CE8008DF80D404B463146B86803AA00F0E8FD50
:103CF8000028CFDAAEE7CDE904330DF103030393CF
:103D08003146B86803AA05F0C8FEF1E7203350F839
:103D18002330FFDE60BB00007F2870B54FEA5011EA
:103D28000CD80D4A52F8216046B13269516829B160
:103D3800012500F01F030C689D4001B970BD8A6819
:103D48002A4002D030464B6898471CB12368214668
:103D58001C46F2E72346FAE750BB000038B5456831
:103D6800A868C0B105F063FF0146A0B9A86800F0D3
:103D78001DFE044688B902460949A86805F041FFB6
:103D880022460121DB20FEF789FE2246012140F26E
:103D98000D10FEF783FE002038BD6FF00400FBE72E
:103DA800213D0000F0B544681646A068227C01F069
:103DB8001F0587B045EA421500286CD0B6F5001FEC
:103DC80004D1294605F08BFF002055E06268607C2D
:103DD800B6F5800F50624FF0000001AA01905060C4
:103DE80039D1B3F1007F14BF052304238DF80430C3
:103DF8000023CDE904230393E3680DF1030723FAB5
:103E080001F111F0010139D1B6F1A07F36D105F0E9
:103E18001F037F2D4FEA551003F120033ED8214A96
:103E280052F8202052F82330DB0727D43A46294697
:103E3800A06805F0E9FE163018D002972946A06858
:103E480003AA05F02AFE002816DB01222946A068ED
:103E580005F0F5FEB8E7B3F1C06F05D0B3F1007F08
:103E680014BF01230223C1E70323BFE73946A06833
:103E780000F0DEFD0028E0DA07B0F0BD3A4629463A
:103E8800A06805F0C1FE0028D8D19DF80310A068ED
:103E980000F0C4FDD2E76FF08500EDE751F823305C
:103EA800FFDE00BF60BB0000036803F01F027F2B2A
:103EB80002604FEA53129ABF024B53F822000020C7
:103EC800704700BFC0BB00002DE9F74F15460646F6
:103ED8004FF0010800EB8101B14203D1002003B08B
:103EE800BDE8F08F3268C2F3C323082BC2F308047D
:103EF80000F2A6805448C75C40F2FF139C4208BFFA
:103F08004FF0FF34B2F1D05F4FEA126310D2192B91
:103F180012D8DFE803F014233734282F3411111195
:103F2800111111111111111111113A3D40777A7DBA
:103F3800382B70D04E2B25D06FF08500CFE7C5F811
:103F48000446621C5CD001A80194FFF7ADFF019BF9
:103F58004FF0010908FA03F343602FE0C5F80C4657
:103F68004FF0000A68E04FF00009C5F80046601CF1
:103F78001CD145E0C5F804464FF00109F7E7C5F83C
:103F88000846EDE7C5F81046DBE7C5F84045F3E716
:103F9800C5F84445E4E7C5F860457388621C03F03A
:103FA80001032DD0002BCED14FF0010901A80194B7
:103FB800FFF77AFF019B08FA03F383604FF0010AC9
:103FC800D6F800B001A81BF4004F1CBF4FF0010940
:103FD8004FF0000A0194FFF767FF019B1B4C00EBB1
:103FE8008300D0F88020CBF3412B3B0243EA8B03BC
:103FF80043EA0A031440234343EA4903C0F88030E4
:10400800043669E7C5F86445C7E7C5F86845C4E7F5
:10401800C5F86C45C1E701A80194FFF745FF4FF0CB
:10402800010A019B00EB8300D0F8803023F0E043C5
:1040380043F08043C0F88030631CE1D0D146BFE72D
:104048006FF015004BE700BFBCC90000F0F0FCFFA3
:104058002DE9F04104460D46476806F02CF888B172
:104068002021EFF311831A4681F31288BFF36F8F73
:1040780060680068D0F83001D0B983F31188BFF3C5
:104088006F8FEEE71E4B1B78002BE9D04FF020080E
:10409800642663681B68D3F83031FBB9012005F04A
:1040A80095FB013EF5D10021202006F0A4F8EFE7AA
:1040B8007B6A00201D706368796A1B68C3F83C1727
:1040C8000121C3F84017C3F83001D3F8300119654E
:1040D80082F31188BFF36F8FBDE8F081EFF311838E
:1040E8001A4688F31288BFF36F8F61680968D1F8A0
:1040F80030110029DCD183F31188BFF36F8FD2E729
:104108006611002070B40F4CD4E90015501A63EB07
:104118000506400940EAC6602026E0FB0615C4E90A
:104128000015002400250849C1E90023074BC3E90D
:104138000045EFF3118186F31288BFF36F8F70BCCF
:1041480002F0B6B88009002068090020780900202C
:1041580008B500220121E420FEF7A0FC164A002041
:10416800D2F8183723F44033C2F8183700F0ACFD02
:10417800002820DB0120114900F032FE00281ADB5C
:1041880000F07AFD0E4B20F01F00C3E900010D4B33
:104198000022C3E900014FF0FF304FF0FF310A4B16
:1041A800C3E90001094B0A49187A00F077FD672234
:1041B8000020084B1A6008BD00200E500C03002098
:1041C80080090020600900206809002004030020FD
:1041D8000D410000900D002008B500F04DFD064A85
:1041E800D2E90032C01A054B61EB0201C3E90001B4
:1041F800400940EAC16008BD800900207809002014
:10420800F7B5224B0146224F187A224BD7E90056C0
:10421800D3E900239E4208BF954211D1B1F1806FC6
:104228000ED24901012938BF012101224D1946F159
:104238000006C7E9005603B0BDE8F04000F056BEDE
:10424800154BDFF858C0D3E90043DCE9002CA4186B
:1042580043EB0C0C4FF0200E22466346C1FB0E23A5
:10426800954276EB0301C7E900230DD2291B66EBC3
:104278000C04C82974F10004B4BF01210021009185
:1042880000F0FEFD03B0F0BD0021F8E704030020B4
:1042980070090020680900208009002078090020A2
:1042A80003689A070CD50368DB070DD50922074B6D
:1042B800C3F80C250F22C3F8042501221A60FEE773
:1042C800034B0360EF3B0360704700BF0080105052
:1042D800F000FA5008B50123354AC2F80038A2F5B3
:1042E8005722D2F80024334AD2F84023292A01D091
:1042F800332A02D1304AC2F80C343048FFF7D0FFD5
:104308000830FFF7CDFF0830FFF7CAFF0830FFF786
:10431800C7FF00F5F470FFF7C3FF294AD2F88C30C5
:1043280043F44063C2F88C300022D30003F57F03C6
:1043380003F54043D3F8001401310AD0D3F8001430
:1043480039B1D3F800140132D3F80434402A0B6091
:10435800EBD11C4BD3F80026D20724D41A4BD3F840
:10436800182522F00302C3F81825D3F81825C3F836
:104378001825134AD2F88C1041F44061C2F88C1009
:10438800D2F8881041F47001C2F88810BFF34F8F3B
:10439800BFF36F8F0022C3F8A0250C4AD2F800346F
:1043A800012BFBD008BD6FF00102C3F80026D5E74A
:1043B8000000125000C0FF000030055000F50E50FC
:1043C80000ED00E000E0105000E0045000900450C0
:1043D800014B1B68184700BF940D0020014B0720B4
:1043E8001B681847940D002010B5104C2379D3B9D9
:1043F800012323710E4B0028206018BF184600F0D7
:10440800FFF890B923680B48002B08BF184600F046
:1044180041F850B923680848002B08BF1846BDE882
:10442800104000F085B96FF0770010BD940D0020A2
:10443800D94300003F980000E543000008B5074B4A
:104448001B6853B14FF48770FEF71AFB28B9BDE813
:1044580008404FF48770FEF7F1BA08BD940D0020AC
:1044680038B504230A4C42F21075C4F80833012306
:1044780063610023C4F80831D4F80831D4F84C3407
:10448800DB0304D5012005F0A1F9013DF6D138BDC3
:1044980000E01050064A13793BB9012110601171F0
:1044A800044A1846C2F8403470476FF077007047E6
:1044B8009C0D002000E0105010B51D4B1D4CD3F88A
:1044C8004C14D3F84C2411F4803F19D002F00302A5
:1044D800012A01D08AB90022154BC3F840240022D2
:1044E800C3F80821D3F8082101221A6122688AB981
:1044F800D3F80821002AFBD014E0FFF7B1FFEAE760
:10450800D3F84824D107E6D5D3F850249207F4D439
:1045180022681AB10422C3F8042310BDD3F8082175
:10452800002AFBD00022C3F80821D3F80831F4E7A9
:1045380000E010509C0D0020F8B50125184C194ECC
:10454800D4F80C3303F00C0303B9F8BDB3FA83F3C2
:104558000027C3F11F039A0002F5807292B202F19C
:10456800A04202F58712176005FA03F1022B1268C0
:10457800D8B2C4F8081310D1D4F84C34D4F84C3459
:104588009B070AD10423C4F84054C4F804332561B6
:10459800D4F80C3303F00C03D6E733689847F7E7F1
:1045A80000E010509C0D0020712238B5114B0021FD
:1045B800C3F8082301225A60C3F80011D3F8001188
:1045C8000D49D1F84013292901D0332900D1DA60E7
:1045D80042F21074074DD5F80C3413F4803305D02B
:1045E800012005F0F3F8013CF5D138BD034A5371B9
:1045F800FBE700BF00E0105000C0FF00A40D002042
:10460800054B0246187918B91A6001221A717047C9
:104618006FF07700704700BFA40D00200022174BF1
:10462800C3F81021D3F81011C3F81821D3F81811C2
:10463800C3F81421D3F81421114AD2F84023292AA7
:1046480001D0332A01D101229A600022C3F8002147
:10465800D3F8002101221A600A4A126852B9074B9E
:10466800D3F80021002AFBD00022C3F80021D3F898
:10467800003170477122C3F80423704700E01050DE
:1046880000C0FF00A40D0020F8B50126194C1A4DF2
:10469800D4F80C3303F0710303B9F8BDB3FA83F30C
:1046A8000021C3F11F039A0002F5807292B202F151
:1046B800A04202F58712116006FA03F7042B12686C
:1046C800D8B2C4F8087308D0062B10D02B689847C6
:1046D800D4F80C3303F07103DEE702236B71C4F8DE
:1046E8001411D4F814312023C4F80433EEE76971A7
:1046F800ECE700BF00E01050A40D002038B580237F
:104708000A4C42F21075C4F808330123A36200234F
:10471800C4F81C31D4F81C31D4F86C34DB0304D54C
:10472800012005F053F8013DF6D138BD00E01050E6
:10473800054B0246187918B91A6001221A71704798
:104748006FF07700704700BFAC0D002000220C4BC3
:10475800C3F81C21D3F81C2101225A62094A1268A5
:104768001AB18022C3F804237047D3F81C21002A09
:10477800FBD00022C3F81C21D3F81C31704700BFBE
:1047880000E01050AC0D0020094BD3F804231206AA
:104798000DD5D3F81C2152B10022C3F81C21D3F83F
:1047A8001C218022C3F80823024B1B681847704756
:1047B80000E01050AC0D0020036803F01F027F2BAF
:1047C80002604FEA53129ABF024B53F822000020AE
:1047D800704700BF20BC0000034A4309D35C00F0C7
:1047E8001F001844C0B27047C5C90000F0B5844620
:1047F800002587B0DFF84CE0114F019102AE1EF89A
:10480800013B06AA02EBD30212F8144C03F007038B
:10481800DC4014F0010406D10135042DEFD1002449
:10482800204607B0F0BD97E80F0086E80F0056F85D
:104838002520136A4CF825301362002BECD0EFE7E3
:104848005CB70000D5C90000F7B504460846FFF775
:10485800C3FF04EB4006B38A0D46DB072AD5204682
:1048680005F0F9F82946204605F066F850B12046CB
:1048780005F078F80023276807EB8000C0F81035AA
:10488800C0F810352946204605F095F8002101A802
:10489800B1820195FFF790FF019B00EB8300D0F8F0
:1048A8008020064B134043F00203C0F880300846CE
:1048B80003B0F0BD6FF01500FAE700BFF0F0FCFFA1
:1048C8002DE9F043044685B0084615461F46FFF714
:1048D80083FF0E46804625B3204605F038F818B900
:1048E800204605F029F818BB04EB4809B9F814303C
:1048F80003F01C0313B16B78012B19D001238DF839
:104908000F3000233046CDE900536A1CAB1C0DF173
:104918000F0104F0B9FFB9F8143043F00303A9F804
:104928001430002F3ED03146204605F010F820B94B
:104938006FF0150005B0BDE8F083002239782368D0
:104948004FEA810C03EB8103C3F81025C3F8102547
:1049580004EB4802938A23F4604323F020039382F4
:104968007D78FDB12468B8786444D4F810750E4B8E
:104978002D043B40C4F8103541F6F07305F440357A
:1049880003EA06130005D4F810752B4300F48010D1
:1049980003433B43C4F81035938A43EA413343F059
:1049A800200393820020C5E70FE0ECFF70B590F874
:1049B800B040054690F8B1604CBB842221461430C3
:1049C80005F063FF2146134A2B6852F836608E4281
:1049D80013D1002440F20D10C3F84441D3F8442108
:1049E8000D4A934208BFDB20FEF728F80123204632
:1049F80085F8B030C5F89C3070BDCAB2920002F597
:104A08008070442A04BF1C501A580131DFE76FF048
:104A18007700F1E730BC000000A00D5090F8B1001D
:104A2800024B03EB800004F0EDBE00BF140300202E
:104A380010B5064B90F8B1000C4603EB800004F06B
:104A4800C7FE0028A4BF2070002010BD140300205A
:104A58002DE9F04F804658F804BB90F8B140DBF8D8
:104A680014136B4BC9B253F8342007468DB058461F
:104A780041F4003104F0C8FF820305463AD51022FC
:104A8800002108A805F001FF614BE60003EBC40410
:104A9800636808A819460093FFF7A8FE331D03931F
:104AA8004FF0000A5B4B0DF120090293029A584916
:104AB80012F8013B0292039A02EBD3028A5C03F0DC
:104AC800070322FA03F3DB071AD40AF1010ABAF141
:104AD800040F09F10409E9D14FF4003100225846C6
:104AE80004F092FF009908A8FFF780FE0028D7D1AC
:104AF80025F400350124002D73D10DB0BDE8F08FE9
:104B0800454B53440493D9F80060002EDDD096FA43
:104B1800A6F6B6FA86F6049B1C7846EA44142046A4
:104B2800FFF75AFE07EB4000818AF208C1F38203BF
:104B380005930193012319F8020006F0070603FA0A
:104B480006F620EA060009F8020007A80794FFF70E
:104B580033FE079A11F0100F02F1200250F822607C
:104B6800059BC6F3014623D04046019A214604F02E
:104B780003FF07A80794FFF71FFE079BF6B2203331
:104B880050F82330C3F301439E4207D10021204649
:104B980004F0C3FE3146204604F0BFFE07A8079480
:104BA800FFF70AFE0122079B02FA03F30362AAE752
:104BB800022E14BF022103212046059304F0ADFE06
:104BC800059B032B03D0022E07D1012BE6D12146EA
:104BD8004046019A04F0D0FEE0E7032EDED1022B16
:104BE800F4E795FAA5F3B3FA83F304FA03F225EA96
:104BF800020503F5A2725BF8222007EB4303404647
:104C0800B3F8A010C2F3014204F0B6FE73E700BF88
:104C180030BC0000D5C90000D5C900000123034AF3
:104C280003FA00F093680343936070476000002024
:104C380073B504460191EFF31186202383F312889C
:104C4800BFF36F8F0B4D019B6A6801A81340019356
:104C580004F0BEFD002807DB01226B68824023EACE
:104C680002036B602070002086F31188BFF36F8FFA
:104C780002B070BD600000204FF0FF306FF040417F
:104C880030B5054CD4E90023904271EB0305F9D304
:104C98001046C3F3130130BD40270E5030B50C2524
:104CA800074B1C1894F8544005FB0433C3E903125E
:104CB80018750123034A8340C2F8243330BD00BF6E
:104CC8006000002000200E50F8B53E4C2278002AE3
:104CD80072D13D4BD3F8101521F00201C3F810151D
:104CE800D3F8101541F00101C3F810150521C3F8D8
:104CF800A4160421C3F8AC160723672101F00100AC
:104D08000244013BD2B24FEA5101F7D1052A56D1EC
:104D180019464FF0010C2B4E00256720CFB204E056
:104D28000CFA02F220EA0200013590FAA0F25FFACA
:104D380085FEBE45B2FA82F2F2D3013132750529F9
:104D4800224482F8547006F10C06E5D101210025B1
:104D58001E489A0801FA02F212F0670F18BF1D5098
:104D68000433302BF5D1E420FDF768FE164B1849C3
:104D7800D3F8102503F5C07322F00202C3F890237C
:104D880040F6FF72C3F8A82100221A60A3F58070CC
:104D980004338B420260F8D101250B4B0D4A1D6686
:104DA8000D4B5D201B68B3FBF2F358430B4B2B43B1
:104DB800984700202570F8BD6FF07700FBE76FF08B
:104DC8008B00F8E76000002000200E5000210E50F4
:104DD800B0210E5040420F001003002080B70000A1
:104DE80038B5244B0D46D3F8102594073CD4D3F896
:104DF800102542F00202C3F81025C0B1D3F84827A5
:104E080012F0010202BFD3F8481741F00101C3F8BC
:104E18004817184BD3F84017D3F844174800F9D46B
:104E28002AB9D3F8482722F00102C3F84827124BC1
:104E3800124A1B68B3FBF2F30E4A03EB4313B3B1F8
:104E4800D2F84017D2F8441749000BD44FF0FF317D
:104E58002846FFF7EDFE044610B92878FFF7DEFE76
:104E6800204638BD013BEAE76FF07704F8E76FF0BA
:104E78007304F5E700200E501003002040420F0095
:104E880070B51E461546174A9DF81010131893F86A
:104E980054300C3302EBC30442F833506660C6F357
:104EA80013020401A1B104F1A04404F56224C4F87A
:104EB8002055C4F824250C4C80000444236833B1E1
:104EC800FFF7DAFEA842B14101D20023236070BD8A
:104ED80004F1A04303F56223C3F82055C3F8242541
:104EE800F5E700BF6000002000210E50F0B50E4D20
:104EF8002B1893F8543000010C3355F8334005EB68
:104F0800C3077E68641800F1A04021F0004146F113
:104F1800000641EAC27100F5622045F833407E6020
:104F2800C0F82815F0BD00BF60000020F7B5284B79
:104F3800284CD3F82C6304F188070EB903B0F0BDF0
:104F480096FAA6F00123B0FA80F08340DA432249AA
:104F580026EA0306231893F85450830019440C23B7
:104F680003FB0543DB6873B3D7E8EF3F03EA020CA2
:104F7800C7E8EECFBEF1000FF6D1C340DB0719D565
:104F8800020102F1A04202F56222D2F82435D2F8D9
:104F98002025D1F800C0BCF1000FCED04FF0000C96
:104FA800C1F800C00C2101FB054529690091E96899
:104FB8008847C2E705F10C0304EBC30C54F833200F
:104FC800DCF80430E5E70A68002AB6D00B60B4E7DD
:104FD80000200E506000002000210E502DE9F843FB
:104FE8004B7E83BB4A687F2A4FEA52146DD83A4EEB
:104FF80002F01F0256F82450012404FA02F2AA60B3
:105008004C687F2C04F01F024FEA54155FD856F8FD
:105018002550324C05EB8205D5F88020224042F01D
:105028000302C5F880208D687F2D05F01F024FEA26
:1050380055174CD856F8273003EB8203D3F8802055
:105048002240C3F880208B7E33B9D1E9014203683E
:10505800C3F84045C3F844254A780C78D1F8108045
:1050680091F80CE091F80DC091F818908F7ED1E975
:1050780001650368097D5200C3F8201502F0020299
:1050880004F001010A43C3F84C95C3F88085C3F8BE
:105098000825C3F818E5C3F81CC51FB9C3F840654F
:1050A800C3F8445500230468C4F80031D4F800213B
:1050B800C4F30830C4F80431D4F80431FDF7BEFC59
:1050C8000323C4F80433BDE8F8839B60FFDE203275
:1050D80053F82230FAE700BF40BC0000F0F0FCFFB4
:1050E8007F2800F01F034FEA50110DD8094A52F8E3
:1050F800212002EB8302D2F88010074B0B4043F0CB
:105108000203C2F8803070470022203352F823305F
:10511800FFDE00BF40BC0000F0F0FCFF437D2BB178
:10512800437D012B11D06FF00F00704702234375A8
:10513800012302680376C2F34341C2F30432934069
:1051480001F14002024941F822300020704700BFB7
:1051580000E100E02DE9F04102464FF000084FF071
:10516800FF30284CD2F804E02678136806FB0EFCC2
:10517800B3FBFCF7B3FBF7F39568AB4234D3D568C0
:10518800AB4231D8B3FBF6F39E458CBFAEEB0303BD
:10519800A3EB0E03834227D20F60C3B118464FF02A
:1051A800010E136807F1010CB3FBFCF39768BB42CF
:1051B8001DD3D768BB421AD8B3FBF6F357689F4292
:1051C8008CBFFB1ADB1B834211D2C1F800C0607888
:1051D8000871184608F10108B8F1070F0CD002341D
:1051E8000028BFD1BDE8F0814FF0000ED9E7BEF12D
:1051F800000FEFD00346EAE7431C0CBF6FF0150021
:105208000020EFE7D9C90000044B40EA0120C3F8A9
:105218000005D3F80024D207FBD5704700E00450FE
:1052280010B50446FCF71EFD03480121034A04F0AB
:1052380017F8204604F09BFE0CB70000AAC800002F
:105248002DE9F84304460D4600AFEFF311882023FB
:1052580083F31288BFF36F8F04282A4A98BF2A4B1A
:10526800E9468AB09668117C98BF53F820306A46A0
:1052780088BF264BCDE9073140F201332448ADF809
:105288002430244BCDE9050442F8103F00234FF4A5
:1052980031512148FCF7B4FDCD4645B1EB69C3F364
:1052A800080323B101211D4A1B4803F0D9FF2EB181
:1052B800304604F009FF08B1037803B91848E946F5
:1052C8008AB06A46174B0790CDE9053640F201339C
:1052D800ADF82030144B42F8103F00234FF4115121
:1052E8000D48FCF78DFD2946CD462046FFF798FF6F
:1052F80088F31188BFF36F8F3046FDF79FFCBD46DA
:10530800BDE8F883B40D002050BC0000B9C8000007
:10531800CFC80000050000010CB70000F7C8000066
:10532800C7C8000018C900000400000138B50A4BBE
:1053380053F82040013053F82050A54200D838BD1A
:10534800606830B1037EDB0701D404F0EDFD08345A
:10535800F3E723689847FAE764BC0000012270B5B8
:10536800294B86B003201A70FFF7E0FF05F01EF8FE
:105378000420FFF7DBFF254C254D2646AE4204F1FD
:1053880030040FD300F0EEFC204CAC4226D300F0E2
:10539800FDFCFBF7C5FC1F4A938923F001039381A9
:1053A80006B070BD54F80C3C059354F8103C0493B7
:1053B80054F8143C039354F8183C029354F81C3CDA
:1053C800019354F8203C009354E90A2354E90C0152
:1053D80000F0E8FA54F8303C5E65CEE7D4E90A23D9
:1053E800B3F1FF3F08BFB2F1FF3F05D052EA030116
:1053F800206803D104F028FF3034C6E70649183086
:1054080000F0C6FEF8E700BF6611002078B600007D
:1054180078B60000500A0020ADA10000C82370B57E
:10542800134E012203FB0066002386B0CDE9042356
:105438000F220193CDE9023218234FF4A0720D4DCB
:105448000D4903FB0055044602FB00110B4B304687
:10545800009500F0A7FA337C2C7423F0040333740E
:10546800074B013403EBC423EE606B6006B070BDDC
:1054780088090020B40D0020681C00203BA0000013
:10548800681400207FB50020FFF750FF294B03F573
:10549800006282F3088883F30A880024E023264DFB
:1054A80085F82230EC772C766C76AC7685F820403F
:1054B8006B6A43F4E0236B6285F82340FDF72AFA10
:1054C800FDF7A6FB4FF0FF33AB62EB62FDF7BCFDC7
:1054D800FDF73EFCFCF722FB184800F0CDFA01204E
:1054E800FFF724FF0220164DFFF720FF00F078FC9D
:1054F800144B4FF480629D61134B144905930123AB
:105508002846CDE90343CDE90144114B009400F04E
:1055180049FA06462B7C284623F004032B7404F032
:105528000DFE2046FFF77AFF31462846084AFDF768
:1055380043FB00BF6814002000ED00E0180B0020BA
:10554800500A0020B40D00207AC90000A81D0020D0
:105558006553000038B5074C074DAC4201D3002015
:1055680038BD204604F00BFD08B91C34F5E76FF090
:105578001500F5E7C0030020DC03002073B50C46D6
:10558800EFF31181202585F31288BFF36F8FC5686B
:105598005DB125602B68C360836901338361002096
:1055A80081F31188BFF36F8F11E052EA030603D12C
:1055B8006FF00B002560F3E7CDE9002302460830C1
:1055C80000F042FB18B9034B9B685B69236002B08B
:1055D80070BD00BFB40D0020F7B50D4604469DF818
:1055E8002010EFF31187202080F31288BFF36F8F0C
:1055F800266AE068864240D22668B4421AD0CEB104
:10560800304604F021FD06F1180004F088FE294612
:10561800002554F8082F706905F02AF93046C6F8B5
:10562800805004F08BFD2046394604F0E1FD284601
:1056380003B0F0BDA268A9B12946E06905F018F9E0
:10564800E369A26813446269E361934201D1236963
:10565800E3610020236A0133236287F31188BFF3D3
:105668006F8FE5E7A06923692946984208BF6069FA
:10567800801AA06105F0FCF8EBE752EA03010BD0B1
:10568800074904F1080089684D61CDE900233946CE
:10569800224600F0D9FACBE76FF02200DDE700BF21
:1056A800B40D0020F7B504460846EFF31186202113
:1056B80081F31288BFF36F8F216A00293BD0A2685B
:1056C800A16905F0D5F8A369A26825681344626941
:1056D800A361934204BF2369A361236AAC4203F127
:1056E800FF33236236D02846002D34D0002704F03B
:1056F800ABFC05F1180004F012FE6969A268E069C4
:1057080005F0B6F8E369A268284613446269E361C4
:10571800934204BF2369E361236A01332362C5F816
:10572800807004F00BFD04F10800314604F060FDC0
:10573800384603B0F0BD52EA030111D00A4989681E
:105748004861CDE900233146224604F1080000F003
:105758007BFAEEE7002086F31188BFF36F8FE8E746
:105768006FF02200F7E700BFB40D00202DE9F341E8
:10577800044617461E46EFF31188202383F3128848
:10578800BFF36F8F304BC2689B6872B180689842D4
:1057980017D057EA060216D188F31188BFF36F8F26
:1057A8006FF00F0002B0BDE8F08193F90E100132DE
:1057B8002161C4E9023288F31188BFF36F8F00209A
:1057C800F0E72169F3E793F90E1090F90E3099424A
:1057D80030DA9942A8BF194604F059FC054622461A
:1057E8004146CDE90076194800F02EFA0028E6D0A7
:1057F800EFF31186202383F31288BFF36F8FA0681D
:10580800D0B1236821699C420AD04BB193F90E307C
:105818009942A8BF19466FF07F039942B8BF19464D
:1058280004F035FC40B13146084804F0E1FC6FF063
:105838000A00B7E70025D2E7002DF4D186F31188D6
:10584800BFF36F8FF3E700BFB40D0020671100208E
:10585800F8B583680546002B40D0234A92689342E6
:105868003FD1C368012B03D9013BC3600020F8BDB9
:10587800EFF31187202383F31288BFF36F8F016939
:10588800806804F004FC2C68A54207D10023C5E910
:10589800023387F31188BFF36F8FE7E7002CF5D049
:1058A800D4E90032002613605A60237CC4E90066FC
:1058B80023F002032374A66004F1180004F02FFDFE
:1058C800AC6094F90E3020462B61C4F8806004F077
:1058D80035FC3946054804F08BFCC7E76FF0150026
:1058E800C5E74FF0FF30C2E7B40D00206711002074
:1058F80070B5EFF31186202383F31288BFF36F8FFF
:105908000468A0421BD0D4B1D4E90032002513604A
:105918005A60237CC4E9005523F002032374A56070
:1059280004F1180004F0FBFC2046C4F8805004F091
:1059380005FC3146BDE87040064804F059BCD0E982
:1059480002329A4218BF0133836086F31188BFF38D
:105958006F8F70BD6711002013B5EFF311812024FC
:1059680084F31288BFF36F8F846844B1013C84606C
:1059780081F31188BFF36F8F002002B010BD52EA87
:10598800030406D181F31188BFF36F8F6FF00F0006
:10599800F3E7CDE900230246014800F055F9ECE7AA
:1059A800671100202DE9F043984685B000F15803AF
:1059B800C0E91633109B002683810423073222F0A6
:1059C800070503740F9B01EB05090F4683734946CE
:1059D800C0E906668660C6730446FCF767FD0E9B41
:1059E800073020F007002067C4E91A7502930D9B61
:1059F800A9EB000901930C9B4A460093394643469C
:105A08002046FDF795F8054B66659B6803B15B6F0B
:105A18004846636705B0BDE8F08300BFB40D0020B9
:105A2800F0B5002587B00595109DDDE9127604953F
:105A38000F9D044603950E9D02950D9D01950C9DA5
:105A48000095FFF7AFFFB6F1FF3F08BFB7F1FF3F83
:105A580005D056EA070305D1204604F0F5FB204699
:105A680007B0F0BD3A46334604F11800014900F08A
:105A78008FFBF4E7ADA100000123037483810023A9
:105A8800C0E91A334367014B98607047B40D002092
:105A98006FF00A01094A9368C3F880100849D8676B
:105AA8004B6843F080534B60002383F31188BFF3A6
:105AB8006F8F9368D3F88000704700BFB40D002043
:105AC80000ED00E070B590F91020037C002A2FDB70
:105AD800D9062DD11A4C63F07F032246037452F87D
:105AE8001C3F216A934207D1C0E900210860206267
:105AF8000FE09942F8D01B68002BF5D093F90E609F
:105B080090F90E50AE42F4DD5968C0E900310860E2
:105B18005860E569954200D005B9E568A3681A7C24
:105B2800D20606D1DA897F2A03D9AA690AB9A361FC
:105B380070BDAB4202D0284600F0ACFAA561F7E789
:105B4800B40D002038B590F910200146002A037CD6
:105B580004DA03F07F03037404F0B8FA0D4D2A4603
:105B680052F81C4FAB68944200D004B9EC688B42E1
:105B780007D01A7CD20604D1DA897F2A01D9A26912
:105B88002AB1A34202D0204600F084FA2346AB6132
:105B980038BD00BFB40D0020B3F1FF3F08BFB2F11C
:105BA800FF3F03D00249183000F0F2BA704700BF37
:105BB800ADA10000034648B9EFF3058232B9064AA1
:105BC80091699268914201D0FFF762BF83F311880F
:105BD800BFF36F8F704700BFB40D002038B5184C65
:105BE800A168206A0B68814214BF1A4600224968DE
:105BF8000B605960A368216A2AB9124AC3E90021D7
:105C08000B6023620AE092F90E5093F90E00854268
:105C180012DD5168C3E900210B605360E569094B47
:105C28009D4200D005B9E568A3689D4202D0284688
:105C380000F030FAA56138BD8A42DED01268DBE791
:105C4800B40D0020D00D0020F8B5DDE906670D4B36
:105C58000C46986811460C4A1060EFF31182202216
:105C680082F31288BFF36F8F9D68284604F040FACC
:105C7800284632463B46FFF78FFF2046BDE8F840EE
:105C8800FFF706BFB40D0020D80D0020F8B5044674
:105C9800EFF31187202383F31288BFF36F8F037C00
:105CA80049B203F01F02002A0CBF0126002635D195
:105CB80003F07F032A4D037404F008FA2A46037C94
:105CC800817363F07F03037452F81C3F286A934280
:105CD80007D1C4E9002004602C620DE09842F8D096
:105CE8001B68002BF5D093F90EC08C45F6DD59687A
:105CF800C4E900310C605C60EC69944200D004B9DE
:105D0800EC68AB689C4202D0204600F0C3F9AC6155
:105D180087F31188BFF36F8F3046F8BD9B071CD5FA
:105D2800856804F0D3F981732B689D4209D16B68AB
:105D3800C4E900531C606C60EAE76A689A42F6D0CE
:105D48001B68002BF3D093F90E208A42F5DD5A68C0
:105D5800C4E9003214605C60DAE78173D8E700BFF9
:105D6800B40D0020EFF31181202383F31288BFF3D1
:105D78006F8F054B9A68D37B013BD37381F31188EE
:105D8800BFF36F8F704700BFB40D002070B5EFF3FD
:105D98001186202383F31288BFF36F8F0F4DAB68F2
:105DA800DA7B0132DA732A4652F81C4F944200D04B
:105DB80004B9EC681A7CD20604D1DA897F2A01D9A1
:105DC800A2692AB19C4202D0204600F063F923461A
:105DD800AB613046BDE87040FFF7ECBEB40D002063
:105DE800024B03F11C02C3E907227047B40D0020DF
:105DF80070B5EFF31186202383F31288BFF36F8FFA
:105E08001A4CA168206A0B68814214BF1A46002206
:105E180049680B605960A368216A2AB9144AC3E922
:105E280000210B6023620AE092F90E5093F90E00EC
:105E3800854216DD5168C3E900210B605360E569AE
:105E48000B4B9D4200D005B9E568A3689D4202D07E
:105E5800284600F01FF9A5613046BDE87040FFF7FD
:105E680017BE8A42DAD01268D7E700BFB40D002007
:105E7800D00D0020F8B550EA010306460C4603D1C0
:105E8800FFF7B6FF0020F8BDEFF31187202383F357
:105E98001288BFF36F8F124D124BA8681860FFF776
:105EA80051FEA868234632460F49183000F070F9B1
:105EB800AA680446137C384643F004031374FFF7BA
:105EC800E7FDAB68D3E90A23B3F1004F08BF002A06
:105ED800D8D104F059FA201A20EAE070D3E700BFBD
:105EE800B40D0020D80D0020ADA10000014B98682A
:105EF800704700BFB40D00202DE9F8430446878998
:105F0800EFF31186202383F31288BFF36F8F037C8E
:105F1800190705D586F31188BFF36F8FBDE8F8839D
