:1000000030AE002059630000E52701004563000081
:100010004563000045630000456300004563000040
:100020000000000000000000000000002964000043
:100030004563000000000000B16600004563000059
:100040006967000069670000696700006967000070
:100050006967000069670000696700006967000060
:100060006967000069670000696700006967000050
:100070006967000069670000696700006967000040
:1004C80081F0004102E000BF83F0004330B54FEAFD
:1004D80041044FEA430594EA050F08BF90EA020F6A
:1004E8001FBF54EA000C55EA020C7FEA645C7FEAFD
:1004F800655C00F0E2804FEA5454D4EB5555B8BF20
:100508006D420CDD2C4480EA020281EA030382EA90
:10051800000083EA010180EA020281EA0303362D22
:1005280088BF30BD11F0004F4FEA01314FF4801CF5
:100538004CEA113102D0404261EB410113F0004F07
:100548004FEA03334CEA133302D0524263EB4303BE
:1005580094EA050F00F0A780A4F10104D5F1200E5C
:100568000DDB02FA0EFC22FA05F2801841F10001B7
:1005780003FA0EF2801843FA05F359410EE0A5F18B
:1005880020050EF1200E012A03FA0EFC28BF4CF0BC
:10059800020C43FA05F3C01851EBE37101F0004572
:1005A80007D54FF0000EDCF1000C7EEB00006EEB7F
:1005B8000101B1F5801F1BD3B1F5001F0CD3490809
:1005C8005FEA30004FEA3C0C04F101044FEA445260
:1005D80012F5800F80F09A80BCF1004F08BF5FEAE7
:1005E800500C50F1000041EB045141EA050130BDC7
:1005F8005FEA4C0C404141EB0101013C28BFB1F5D9
:10060800801FE9D291F0000F04BF01460020B1FA23
:1006180081F308BF2033A3F10B03B3F120020CDAF6
:100628000C3208DD02F1140CC2F10C0201FA0CF0D4
:1006380021FA02F10CE002F11402D8BFC2F1200C39
:1006480001FA02F120FA0CFCDCBF41EA0C019040EF
:10065800E41AA2BF01EB0451294330BD6FEA040438
:100668001F3C1CDA0C340EDC04F11404C4F1200223
:1006780020FA04F001FA02F340EA030021FA04F335
:1006880045EA030130BDC4F10C04C4F1200220FA8C
:1006980002F001FA04F340EA0300294630BD21FACA
:1006A80004F0294630BD94F0000F83F4801306BF90
:1006B80081F480110134013D4EE77FEA645C18BF84
:1006C8007FEA655C29D094EA050F08BF90EA020F1B
:1006D80005D054EA000C04BF1946104630BD91EA13
:1006E800030F1EBF0021002030BD5FEA545C05D116
:1006F8004000494128BF41F0004130BD14F5800455
:100708003CBF01F5801130BD01F0004545F0FE41C8
:1007180041F470014FF0000030BD7FEA645C1ABFFD
:10072800194610467FEA655C1CBF0B46024650EA34
:10073800013406BF52EA033591EA030F41F4002160
:1007480030BD00BF90F0000F04BF0021704730B5E6
:100758004FF4806404F132044FF000054FF00001BB
:1007680050E700BF90F0000F04BF0021704730B57C
:100778004FF4806404F1320410F0004548BF404251
:100788004FF000013EE700BF42004FEAE2014FEAA6
:1007980031014FEA02701FBF12F07F4393F07F4F81
:1007A80081F06051704732F07F4208BF704793F084
:1007B8007F4F04BF41F40021704730B54FF4607497
:1007C80001F0004521F000411CE700BF50EA01029A
:1007D80008BF704730B54FF000050AE050EA010243
:1007E80008BF704730B511F0004502D5404261EBB3
:1007F80041014FF4806404F132045FEA915C3FF4F4
:10080800D8AE4FF003025FEADC0C18BF03325FEA90
:10081800DC0C18BF033202EBDC02C2F1200300FA41
:1008280003FC20FA02F001FA03FE40EA0E0021FA66
:1008380002F11444BDE600BF70B54FF0FF0C4CF454
:10084800E06C1CEA11541DBF1CEA135594EA0C0F06
:1008580095EA0C0F00F0DEF82C4481EA030621EA41
:100868004C5123EA4C5350EA013518BF52EA03357C
:1008780041F4801143F4801338D0A0FB02CE4FF02E
:100888000005E1FB02E506F00042E0FB03E54FF05E
:100898000006E1FB03569CF0000F18BF4EF0010E56
:1008A800A4F1FF04B6F5007F64F5407404D25FEA52
:1008B8004E0E6D4146EB060642EAC62141EA555105
:1008C8004FEAC52040EA5E504FEACE2EB4F1FD0C47
:1008D80088BFBCF5E06F1ED8BEF1004F08BF5FEAC5
:1008E800500E50F1000041EB045170BD06F0004677
:1008F80046EA010140EA020081EA0301B4EB5C0424
:10090800C2BFD4EB0C0541EA045170BD41F480111B
:100918004FF0000E013C00F3AB8014F1360FDEBF40
:10092800002001F0004170BDC4F10004203C35DA1C
:100938000C341BDC04F11404C4F1200500FA05F39F
:1009480020FA04F001FA05F240EA020001F0004240
:1009580021F0004110EBD37021FA04F642EB0601B6
:100968005EEA430E08BF20EAD37070BDC4F10C04E0
:10097800C4F1200500FA04F320FA05F001FA04F2A4
:1009880040EA020001F0004110EBD37041F1000190
:100998005EEA430E08BF20EAD37070BDC4F120059B
:1009A80000FA05F24EEA020E20FA04F301FA05F203
:1009B80043EA020321FA04F001F0004121FA04F2AB
:1009C80020EA020000EBD3705EEA430E08BF20EA7B
:1009D800D37070BD94F0000F0FD101F000464000B5
:1009E80041EB010111F4801F08BF013CF7D041EA37
:1009F800060195F0000F18BF704703F0004652003B
:100A080043EB030313F4801F08BF013DF7D043EA0B
:100A18000603704794EA0C0F0CEA135518BF95EAC1
:100A28000C0F0CD050EA410618BF52EA4306D1D148
:100A380081EA030101F000414FF0000070BD50EA67
:100A4800410606BF1046194652EA430619D094EAF1
:100A58000C0F02D150EA013613D195EA0C0F05D1DB
:100A680052EA03361CBF104619460AD181EA03012F
:100A780001F0004141F0FE4141F470014FF00000E7
:100A880070BD41F0FE4141F4780170BD70B54FF082
:100A9800FF0C4CF4E06C1CEA11541DBF1CEA135502
:100AA80094EA0C0F95EA0C0F00F0A7F8A4EB0504E4
:100AB80081EA030E52EA03354FEA013100F08880DB
:100AC8004FEA03334FF0805545EA131343EA1263A4
:100AD8004FEA022245EA111545EA10654FEA002659
:100AE8000EF000419D4208BF964244F1FD0404F512
:100AF800407402D25B084FEA3202B61A65EB03056E
:100B08005B084FEA32024FF480104FF4002CB6EB2A
:100B1800020E75EB030E22BFB61A754640EA0C00AA
:100B28005B084FEA3202B6EB020E75EB030E22BFEA
:100B3800B61A754640EA5C005B084FEA3202B6EB2B
:100B4800020E75EB030E22BFB61A754640EA9C00EA
:100B58005B084FEA3202B6EB020E75EB030E22BFBA
:100B6800B61A754640EADC0055EA060E18D04FEA78
:100B7800051545EA16754FEA06164FEAC30343EA18
:100B880052734FEAC2025FEA1C1CC0D111F4801FE5
:100B98000BD141EA00014FF000004FF0004CB6E7DE
:100BA80011F4801F04BF01430020B4F1FD0C88BF7D
:100BB800BCF5E06F3FF6AFAEB5EB030C04BFB6EB88
:100BC800020C5FEA500C50F1000041EB045170BD7B
:100BD8000EF0004E4EEA113114EB5C04C2BFD4EBA8
:100BE8000C0541EA045170BD41F480114FF0000E2C
:100BF800013C90E645EA060E8DE60CEA135594EAA8
:100C08000C0F08BF95EA0C0F3FF43BAF94EA0C0FAA
:100C18000AD150EA01347FF434AF95EA0C0F7FF41F
:100C280025AF104619462CE795EA0C0F06D152EA73
:100C380003353FF4FDAE1046194622E750EA410657
:100C480018BF52EA43067FF4C5AE50EA41047FF468
:100C58000DAF52EA43057FF4EBAE12E74FF0FF3CCD
:100C680006E000BF4FF0010C02E000BF4FF0010C9E
:100C78004DF804CD4FEA410C7FEA6C5C4FEA430C17
:100C880018BF7FEA6C5C1BD001B050EA410C0CBF66
:100C980052EA430C91EA030F02BF90EA020F0020C8
:100CA800704710F1000F91EA030F58BF994208BF2F
:100CB80090422CBFD8176FEAE37040F001007047EC
:100CC8004FEA410C7FEA6C5C02D150EA013C07D143
:100CD8004FEA430C7FEA6C5CD6D152EA033CD3D08E
:100CE8005DF8040B704700BF8446104662468C4688
:100CF8001946634600E000BF01B5FFF7B7FF0028BB
:100D080048BF10F1000F01BD4DF808EDFFF7F4FFE3
:100D18000CBF012000205DF808FB00BF4DF808ED6E
:100D2800FFF7EAFF34BF012000205DF808FB00BF91
:100D38004DF808EDFFF7E0FF94BF012000205DF8B3
:100D480008FB00BF4DF808EDFFF7CEFF94BF012068
:100D580000205DF808FB00BF4DF808EDFFF7C4FF61
:100D680034BF012000205DF808FB00BF4FEA4102B4
:100D780012F5001215D211D56FF47873B3EB6252E5
:100D880012D94FEAC12343F0004343EA505311F00C
:100D9800004F23FA02F018BF404270474FF000009E
:100DA800704750EA013005D111F0004008BF6FF0DC
:100DB800004070474FF00000704700BF4FEA410203
:100DC800B2F1E04324BFB3F5001CDCF1FE5C0DD9A1
:100DD80001F0004C4FEAC0024CEA5070B2F1004FEB
:100DE80040EB830008BF20F00100704711F0804FEE
:100DF80021D113F13872BCBF01F00040704741F4B3
:100E080080114FEA5252C2F11802C2F1200C10FAB6
:100E18000CF320FA02F018BF40F001004FEAC1239A
:100E28004FEAD32303FA0CFC40EA0C0023FA02F33E
:100E38004FEA4303CCE77FEA625307D150EA013314
:100E48001EBF4FF0FE4040F44000704701F00040E4
:100E580040F0FE4040F40000704700BF80F00040C2
:100E680002E000BF81F0004142001FBF5FEA41037A
:100E780092EA030F7FEA226C7FEA236C6AD04FEA7A
:100E88001262D2EB1363C1BFD218414048404140BF
:100E9800B8BF5B42192B88BF704710F0004F40F471
:100EA800000020F07F4018BF404211F0004F41F48D
:100EB800000121F07F4118BF494292EA030F3FD059
:100EC800A2F1010241FA03FC10EB0C00C3F120036C
:100ED80001FA03F100F0004302D5494260EB4000FB
:100EE800B0F5000F13D3B0F1807F06D340084FEA66
:100EF800310102F10102FE2A51D2B1F1004F40EB5B
:100F0800C25008BF20F0010040EA030070474900C2
:100F180040EB0000013A28BFB0F5000FEDD2B0FA5F
:100F280080FCACF1080CB2EB0C0200FA0CF0AABF82
:100F380000EBC25052421843BCBFD0401843704720
:100F480092F0000F81F4000106BF80F40000013226
:100F5800013BB5E74FEA41037FEA226C18BF7FEAFD
:100F6800236C21D092EA030F04D092F0000F08BF3F
:100F78000846704790EA010F1CBF0020704712F026
:100F88007F4F04D1400028BF40F00040704712F165
:100F980000723CBF00F50000704700F0004343F0CA
:100FA800FE4040F4000070477FEA226216BF084600
:100FB8007FEA23630146420206BF5FEA412390EAC3
:100FC800010F40F4800070474FF0000304E000BFB9
:100FD80010F0004348BF40425FEA000C08BF70476A
:100FE80043F0964301464FF000001CE050EA01022E
:100FF80008BF70474FF000030AE000BF50EA010243
:1010080008BF704711F0004302D5404261EB41012F
:101018005FEA010C02BF84460146002043F0B64354
:1010280008BFA3F18053A3F50003BCFA8CF2083A79
:10103800A3EBC25310DB01FA02FC634400FA02FC82
:10104800C2F12002BCF1004F20FA02F243EB020089
:1010580008BF20F00100704702F1200201FA02FCEB
:10106800C2F1200250EA4C0021FA02F243EB0200DE
:1010780008BF20EADC7070477BB972B90029BEBF8F
:1010880000204FF0004106E008BF00281CBF6FF0A9
:1010980000414FF0FF3000F057B8ADF1080C6DE992
:1010A80004CE002909DB002B1ADB00F057F8DDF825
:1010B80004E0DDE9022304B07047404261EB4101DE
:1010C800002B1BDB00F04AF8DDF804E0DDE9022321
:1010D80004B0404261EB4101524263EB4303704765
:1010E800524263EB430300F039F8DDF804E0DDE930
:1010F800022304B0404261EB41017047524263EB66
:10110800430300F02BF8DDF804E0DDE9022304B026
:10111800524263EB4303704753B94AB9002908BFE9
:1011280000281CBF4FF0FF314FF0FF3000F00CB823
:10113800ADF1080C6DE904CE00F010F8DDF804E01C
:10114800DDE9022304B07047704700BF034613F877
:10115800012B002AFBD1181A013870472DE9F047F6
:101168008C468E46089E154604461946002B40F0CC
:10117800D080724547D9B2FA82F74FB1C7F1200340
:101188000EFA07FCBD40BC4020FA03F343EA0C0CFE
:101198004FEA154EA8B2230CBCFBFEF80EFB18CC88
:1011A80008FB00F943EA0C43994528D9EB1808F1E4
:1011B800FF3204D2994502D9A8F102022B44A3EBCD
:1011C8000903A4B2B3FBFEFC0EFB1C330CFB00F0BE
:1011D80044EA0344A04214D92C190CF1FF3304D279
:1011E800A04202D9ACF102032C44241A43EA02407B
:1011F8001EB1FC40002334607360BDE8F0874246AE
:10120800DDE76346F1E7002A79D0B2FA82F3002BD2
:101218003FD01946C1F1200302FA01F500FA01F4A2
:101228002EFA03F20EFA01FE20FA03F3AFB243EAF4
:101238000E034FEA154EB2FBFEFC0EFB1C201A0CE7
:101248000CFB07F842EA004290455AD9AA180CF15B
:10125800FF3004D2904502D9ACF102002A44A2EB37
:1012680008029BB2B2FBFEFC0EFB1C220CFB07F72C
:1012780043EA02439F4246D9EB180CF1FF3204D2ED
:101288009F4202D9ACF102022B44DB1B42EA004226
:1012980002E0AEEB020301224FEA154EAFB2200C7A
:1012A800B3FBFEFC0EFB1C330CFB07F840EA0343C0
:1012B80098452AD9EB180CF1FF3004D2984502D989
:1012C800ACF102002B44A3EB0803A4B2B3FBFEFC71
:1012D8000EFB1C330CFB07F744EA0344A74216D95C
:1012E8002C190CF1FF3304D2A74202D9ACF1020346
:1012F8002C44E41B43EA00400F46114678E71F21BF
:1013080088E76046ABE76246BFE76046DBE76346CF
:10131800EFE7734506D916B9002108466DE7C6E917
:10132800000EF9E7B3FA83F787B9734501D3824210
:1013380007D8841A6EEB030301209C461EB90021CE
:101348005BE73846FAE7C6E9004CF8E7C7F1200C36
:10135800BB4000FA07F422FA0CF520FA0CF1BA4067
:101368001D432EFA0CF30EFA07FE4FEA154941EA1F
:101378000E011FFA85FEB3FBF9F809FB18300B0CB8
:1013880008FB0EFA43EA00439A4540D9EB1808F1E6
:10139800FF3004D29A4502D9A8F102002B44A3EBEE
:1013A8000A0389B2B3FBF9F809FB183308FB0EFEF0
:1013B80041EA03418E452CD9691808F1FF3304D25C
:1013C8008E4502D9A8F10203294443EA0040A1EB63
:1013D8000E01A0FB02984145CE46434602D306D1F2
:1013E8004C4504D20138B9EB020E68EB0503002E18
:1013F800A5D0B4EB0E0261EB030101FA0CFC22FA52
:1014080007F3F9404CEA0303C6E9003197E7404681
:10141800C5E74346D9E700002DE9F04F2DED028BD3
:10142800154687B000F14202044601919200002B54
:1014380000F0A18035B91A60284607B0BDEC028BD0
:10144800BDE8F08F19681A60914201D20025F3E7D0
:101458002E460FF22C19D9E9008900274FF0000A0F
:10146800019BDFF82CB128606B602046FFF77AF902
:10147800BC4241EC100B52DDCDE904013846FFF7C0
:1014880071F941A3D3E90023FFF7D6F99DED040BC9
:1014980053EC102BFFF7FAFA019B41EC180B3BB108
:1014A80018EE903A03F10043029003939DED028BEE
:1014B800B0EE480AF0EE680A00F01AF9424651EC1C
:1014C800100B4B46FFF7B8F952465B46FEF7FEFF96
:1014D80041EC100B0FF052FD51EC100BFFF746FCDE
:1014E800B0EE480AF0EE680AA6F8080100F044FBDE
:1014F800424651EC100B4B46FFF79EF952465B46AD
:10150800FEF7E4FF41EC100B0FF038FD51EC100B27
:10151800FFF72CFC0137A6F80A010436A5E70FF0FF
:101528008BFD0FF02BFD042659EC108B05F10807F5
:1015380094FBF6F306FB1342AAB1022E0FD0042E39
:101548000FD002363046FFF70DF902460B464046EB
:101558004946FFF7E3FB002818BF2646E8E70326BD
:10156800F0E70226EEE7012B1C46C7E900637FF788
:1015780063AF0837DCE71D465EE700BFAFF30080C6
:1015880000000000C0FFDF40182D4454FB2119C0A3
:101598000000E03F000000002DE9F04F2DED028B28
:1015A80010F0010687B01546029112D1441004F1DB
:1015B800420004EB4402800002EBD272521000F1A8
:1015C8000C07059007EB82021BB11F681A6097424F
:1015D80006D20025284607B0BDEC028BBDE8F08F87
:1015E800002DF6D005F10C021318A0F584701844EC
:1015F8006B60A8602A60204605ABFFF70DFF4FF02F
:10160800000A04EBD477DFF8E0B07F10B742E1DDE1
:1016180001363046FFF7A6F8804620468946FFF790
:10162800A1F802460B4640464946FFF72FFA5246B4
:101638005B46FEF74BFF28A3D3E90023FFF7FCF82E
:10164800029B41EC180B3BB118EE903A03F10043B2
:10165800009001939DED008BB0EE480AF0EE680A09
:1016680000F046F81EA3D3E9002351EC100BFFF756
:10167800E3F852465B46FEF729FF41EC100B0FF0EA
:101688007DFC4FEA8609AB6851EC100BA9F10409FF
:1016980003EB09080393FFF769FB039BB0EE480AC5
:1016A800F0EE680A23F8090000F066FA0CA3D3E903
:1016B800002351EC100BFFF7BFF852465B46FEF7CC
:1016C80005FF41EC100B0FF059FC51EC100BFFF724
:1016D8004DFBA8F8020099E7182D4454FB2109C0D6
:1016E80000000000C0FFDF400000E03F00000000F5
:1016F8007FB58DED000B019B1F4A23F000439342F9
:1017080006D89FED1B1B07B05DF804EB00F090BEF8
:101718001A4A934204D907B05DF804EB00F060BDA3
:1017280002A800F02DF800F0030001289DED020B3F
:101738009DED041B07D0022811D098B900F078FE5F
:1017480053EC102B06E001F083FA51EC100B024623
:1017580001F1004343EC102B07B05DF804FB00F0E7
:1017680067FEF2E7012001F073FAE9E7AFF30080C2
:101778000000000000000000FB21E93FFFFFEF7FB1
:101788002DE9F04F59EC108B29F0004AC44B8FB06B
:1017980004469A45CDF8189007D80022002380ED1A
:1017A800000BC0E90223002528E0BE4B9A4578D8F3
:1017B800069B4046BC4D4946002BABA3D3E900230A
:1017C80038DDFEF781FEAA4506460F461AD0A8A3C3
:1017D800D3E90023FEF778FE02460B468046894689
:1017E80030463946FEF770FEA1A3D3E90023012550
:1017F800FEF76AFEC4E90089C4E9020128460FB071
:10180800BDE8F08F9CA3D3E90023FEF75DFE0646F2
:101818000F469BA3D3E90023FEF756FE02460B466C
:101828008046894630463946FEF74EFE94A3D3E9F2
:101838000023DCE7FEF74AFEAA4506460F4618D005
:101848008BA3D3E90023FEF741FE02460B468046F0
:10185800894630463946FEF737FE85A3D3E900238B
:10186800FEF734FE4FF0FF35C4E90089C4E90201F0
:10187800C4E781A3D3E90023FEF728FE06460F46F6
:101888007FA3D3E90023FEF721FE02460B468046DC
:10189800894630463946FEF717FE79A3D3E9002377
:1018A800DEE7824B9A4500F2D18029F00047404696
:1018B80075A3D3E900233946FEF7BEFF00227C4B0F
:1018C800FEF704FEFFF752FA0546FEF74BFF024605
:1018D8000B46CDE9042364A3D3E90023FEF7ACFF4C
:1018E80002460B4640463946FEF7EEFD80468946DD
:1018F8005FA3D3E90023DDE90401FEF79DFF02465B
:101908000B46CDE9020140464946FEF7DDFD1F2D95
:1019180006460F4605DC6A1E664B53F822305345CF
:1019280008D14FEA2A530793C7F30A53C3EB1A5354
:10193800102B02DCC4E900673BE04FA3D3E9002386
:10194800DDE90401FEF778FF06460F4602460B461E
:1019580040464946FEF7B8FD02460B4682468B468E
:1019680040464946FEF7B0FD32463B46FEF7ACFD21
:1019780006460F4642A3D3E90023DDE90401FEF73A
:101988005BFF32463B46FEF79FFD02460B46CDE91C
:10199800020150465946FEF797FD079AC1F30A53CC
:1019A80006460F46D31A312B1DDCD046D946C4E96A
:1019B800006732463B4640464946FEF785FDDDE96D
:1019C8000223FEF781FD069B002BC4E90201BFF646
:1019D80015AF07F100432660A060636001F1004382
:1019E800E3606D420AE72AA3D3E90023DDE9040195
:1019F800FEF722FF06460F4602460B46504659465A
:101A0800FEF762FD02460B46804689465046594617
:101A1800FEF75AFD32463B46FEF756FD06460F4690
:101A28001DA3D3E90023DDE90401FEF705FF3246D3
:101A38003B46FEF749FD02460B46CDE9020140460A
:101A48004946FEF741FD06460F4673E71A4B9A458D
:101A580034D942464B4640464946FEF735FDC4E96F
:101A68000201C4E900019EE600004054FB21F93F51
:101A78003163621A61B4D03D0000601A61B4D03D90
:101A88007370032E8A19A33B83C8C96D305FE43F86
:101A98000000002E8A19A33BC14920259A837B396F
:101AA800FB21E93F7BD90240FB21F93FFB2139416A
:101AB8000000E03FA41A0400FFFFEF7F4FEA2A5519
:101AC80040460DF13809A5F21645AAEB05573946E7
:101AD800FFF74CF9FEF746FE02460B4640463946EC
:101AE8004FF00308CDE90823FEF7EEFC0022204B57
:101AF800FEF7A2FE0F460646FFF738F9FEF732FE5C
:101B080002460B463046394600260027CDE90A230F
:101B1800FEF7DAFC0022164BFEF78EFECDE90C012B
:101B280032463B46C24608F1FF3879E90201FFF721
:101B3800EBF80028F4D10F4B2A46214608A8019358
:101B480002230093534600F033FD069B0546002B05
:101B5800BFF654AED4E9002101F10043C4E90023E3
:101B6800D4E9022101F10043C4E9022339E700BFA7
:101B780000007041241B04007FB58DED000B019B14
:101B88001F4A23F00043934207D800209FED1A1BF9
:101B980007B05DF804EB01F05BB81A4A934204D928
:101BA80007B05DF804EB00F01BBB02A8FFF7E8FDE7
:101BB80000F0030001289DED020B9DED041B0CD0E5
:101BC80002280DD0A8B9012001F042F853EC102BDF
:101BD80043EC102B07B05DF804FB00F029FCF5E797
:101BE800012001F035F851EC100B024601F10043D9
:101BF800EEE700F01DFCF6E7000000000000000022
:101C0800FB21E93FFFFFEF7FF8B510EE904A10EE99
:101C1800103A34F000472DED048BB0EE609A0DD1E8
:101C280083F480035B0013F5000F40F2AA8230EEC4
:101C3800098AB0EE480ABDEC048BF8BD23F00041D8
:101C48001846B1F1FF4F02D8B7F1FF4F08D9B3F1E9
:101C58007E5FECD184F48004640014F5000FE4E79F
:101C6800002B25DAB7F1974F80F09482B7F17E5FA9
:101C780039D3FA15C2F1960247FA02F505FA02F2CB
:101C8800BA4229D105F00105C5F10205B7F17E5F19
:101C98002AD1002C80F27B82B5EE400AF1EE10FAD0
:101CA8001CD1D80FBDEC048BBDE8F8400FF048BC40
:101CB800B7F1FF4F10D1B1F17E5F00F0628205D914
:101CC800002CDFEDD17A29FE278AB2E7002C80F2BA
:101CD8005B82B1EE498AACE70025D7E7B7EE007A18
:101CE80087EE008AA5E70025B4F1804F0A4640F048
:101CF8005782B1F1BF4F0CD2B1F1D05F02D920EEBB
:101D0800008A96E7B0EEC08A59BB012D00FE088A0A
:101D18008FE723F04046B0EEC08AB6F17E5F17D158
:101D2800002CBCBFB7EE007A87EE088A002B80DA59
:101D3800A1F17E51294305D1BDEC048BBDE8F840E3
:101D48000FF00CBC012D7FF474AFB1EE488A70E738
:101D580039B9002CD9DA002BA4D06B1E584258414F
:101D6800A0E7DE0F013E55EA0600E5D0B7F19A4F2D
:101D780071D9A64B994208D8002C0BDA0020BDEC8B
:101D8800048BBDE8F8400FF0CDBBA14B994208D9B0
:101D9800002CF3DC0020BDEC048BBDE8F8400FF00C
:101DA800B3BBB7EE007ADFED9B7ADFED9B9A38EE96
:101DB800478A93A1D1E9000168EE278AFEF7FEFF62
:101DC800B5EE007A07EE900ADFED946A68EE299A7C
:101DD80048EE477AB6EE007A07EEC87A68EE087AD7
:101DE80027EE277AF0EE687A47EE667A39EEA77A18
:101DF80017EE103A6FF30B0307EE103A77EE699A75
:101E080077EEE97A013DF7EE006ABFEE008A6FF3DC
:101E18000B04354367EE890A08FE268A06EE904AC7
:101E280039EE666A67EE267A46EE070A30EEA77A3A
:101E380017EE101A002921F0004340F31381B3F183
:101E4800864F40F2CC80B5EEC08AF1EE10FA4CBF56
:101E58000120002093E713F0FF4F05BF9FED707A34
:101E68006FF01701002168EE077A08BF17EE902A75
:101E7800D315C2F316027F3B42F07E500B446949EA
:101E88008A4206DD68498A4240F3A7800133A0F5FB
:101E980000000021654A06EE100AF7EE006A02EB20
:101EA8008102D2ED005A75EE867A36EE657AC6EE74
:101EB800A74A27EE245A15EE102A6FF30B0206EEF6
:101EC800902A5B4A02EA600242F0005202F5800260
:101ED80002EB415207EE902A06EEE77A77EEE57AB2
:101EE800DFED545A36EE676A65EE057A06EE667AD5
:101EF8009FED516A47EE865A9FED506A27EE247A85
:101F080066EEA64A05EEA76ADFED4D5A46EE275A59
:101F18009FED4C6A05EEA76ADFED4B5A46EE275A4D
:101F280036EE856A67EEA77A26EE076A05EEA76A97
:101F3800F0EE085A74EEA57A77EE867A17EE902AB4
:101F48006FF30B0207EE902A77EEE55A27EE277A11
:101F580066EEA76A75EEE45A36EE656A06EE057A0D
:101F68009FED3A6A76EE877A17EE902A6FF30B02A6
:101F780007EE902A364A77EEE66A02EB810227EEF0
:101F8800866A37EE667ADFED336A67EEA67ADFEDAA
:101F9800326A47EE267A92ED007A77EE877A07EE74
:101FA800103A2E4BF8EEC76A03EB810336EE277A18
:101FB800D3ED005A37EE257A37EE267A17EE103A27
:101FC8006FF30B0307EE103A77EE666A76EEE56A72
:101FD80076EEC66A77EEE67A14E701215AE755D11C
:101FE800DFED1F6A37EE677A70EEA66AF4EEC76A0D
:101FF800F1EE10FA3FF727AF86234BE0AFF30080EE
:10200800E13D55555555D53F00000000F3FF7F3F92
:102018000700803F70A5EC3600AAB83F3BAAB83F3E
:102028000000804B71C41C00D6B35D003C1C04004A
:1020380000F0FFDF55326C3E42F1533E05A38B3E64
:10204800ABAAAA3EB76DDB3E9A99193F0040763F8E
:102058002C1C0400C623F6B84F38763F341C040005
:102068003CAA3833534A934207D9B5EEC08AF1EEF9
:1020780010FA4CBF012000208DE607D137EE677AB1
:10208800B4EEE07AF1EE10FAB6DBEEE7B3F17C5F7E
:1020980072D9DB157E3B4FF40000474A002940FA0D
:1020A80003F00844C0F3C753A3F17F0342FA03F2D5
:1020B800C3F1170302EA0002C0F3160040F400005F
:1020C80007EE102A40FA03F077EEC77AB8BF40420D
:1020D80037EEA07ADFED396ADFED395AB7EE000A3C
:1020E8009FED386A17EE103A6FF30B0307EE103ABC
:1020F80077EE677A67EE266A70EEE70ADFED327AE6
:1021080027EE277ADFED317A00EEA77A76EE877A26
:1021180077EEE66A37EE667A67EEA76A07EE877AA1
:1021280016EEA56ADFED2A5A46EE265A9FED296A71
:1021380015EEA66ADFED285A46EE265AB0EE676A13
:1021480005EEE66AF0EE006A67EE865A36EE666AD3
:10215800C5EE866A36EEC77A77EE677A30EE670A9A
:1021680010EE103A03EBC053B3F5000F06DA0FF088
:1021780085F920EE088A5CE50020A9E700EE103A10
:10218800F7E7B7EE008A54E59FED148A51E5B0EE03
:10219800408A4EE5B7F1FF4F3FF48DAD0A46022560
:1021A800B4F17C5F7FF4B5AD002BFFF6B2ADB1EEB4
:1021B800C08A3EE500001643000080FF0072313FF0
:1021C8004CBB31330EEADD358CBEBF351872313F5A
:1021D80055B38A38610B363BABAA2A3E0000000093
:1021E80008B513F0F4FA9FED020B08BDAFF30080B9
:1021F800000000000000F87F10EE103AB3F1FF4F26
:1022080010B52DED048BB0EE408A06DB30EE008A67
:10221800B0EE480ABDEC048B10BD774A934276DCD9
:1022280023F00042B2F17E5F13D3FFEE007AB4EEE2
:10223800670AF1EE10FA06D10120BDEC048BBDE867
:1022480010400FF07DB9BDEC048BBDE810400FF0D5
:1022580085B9B2F1645F0FD2B2F14A5F24BF20EEB4
:10226800007AF6EE007ABDEC048B28BF07EE670A09
:10227800BDE810400FF0EABC604A134493424ED8C0
:10228800F7EE007A38EE277A17EE103ADC157F3C25
:10229800002CD5BF77EE677A37EE488A78EE677AF2
:1022A80077EEC87A87EE879AC3F31603544A9342A7
:1022B800CCBF43F07C5243F07E52F7EE007AC8BFA1
:1022C800C3F5000307EE102AC4BF01349B1037EE94
:1022D800678AF6EE008A68EE288A68EE888A002BFC
:1022E80044D1B5EE408AF1EE10FA1DD1002C7AD017
:1022F80007EE904AB0EE498A9FED427AF8EEE77A07
:1023080007EE878A9FED407A07EE878A80E7B3F168
:10231800B44FB5DBDC159FED3D9A7F3CC4E7012344
:1023280000249FED3A9AD4E731A1D1E90001FEF7E4
:1023380045FDB7EE007A07EE900A07EEC87A27EE59
:10234800287A14B938EE478A62E707EE904ADFED3B
:102358002D6AF8EEE77A07EEA69A37EE497A37EE55
:10236800488A9FED297A17EE878A51E7F0EE007ABE
:102378009FED276A9FED277A78EE277AC8EE276ABD
:1023880066EEA67A07EE867A9FED236A07EE276A3D
:102398009FED227A06EE277A9FED216A07EE276ADB
:1023A8009FED207A06EE277A9FED1F6A07EE276ACF
:1023B800B0EE687A06EE277A27EE267A24B978EE08
:1023C800C78A38EE688A23E707EE904ADFED0D6A80
:1023D800F8EEE77A07EEA69A39EE079A78EEC98AF8
:1023E80038EEC88ABDE79FED098A11E7AFF3008090
:1023F800555555555555E53FD613D43EE0096A4124
:10240800F6043500D1F717378071313F000000001E
:102418009788173E4FD01C3E25333A3E298E633E9F
:102428002549923ECDCCCC3EABAA2A3F0000000005
:102438002DE9F74F59EC108B29F00046B6F1795F7A
:102448008DED001BC0F0888042464B464046494609
:10245800FEF7F2F904460D4600224F4BFEF7ECF961
:1024680082468B46204629463DA3D3E90023FEF742
:10247800E3F93DA3D3E90023FEF728F822462B46CB
:10248800FEF7DAF93AA3D3E90023FEF71DF822464E
:102498002B46FEF7D1F938A3D3E90023FEF716F847
:1024A80022462B46FEF7C8F935A3D3E90023FEF7E9
:1024B8000BF822462B46FEF7BFF933A3D3E90023D6
:1024C800FEF704F822462B46FEF7B6F922462B46BD
:1024D800FEF7B2F904460D4640464946DDE90023B9
:1024E800FEF7AAF90B46024629462046FDF7ECFFFF
:1024F8002A4B804689469E4210D802460B465046D3
:102508005946FDF7E1FF02460B4600202449FDF736
:10251800DBFF41EC100B03B0BDE8F08F214B00242A
:1025280000201F499E42224694BFA6F500151E4D65
:102538002B46FDF7C9FF224606460F462B46504656
:102548005946FDF7C1FF42464B46FDF7BDFF02461F
:102558000B4630463946DAE79FED0D0BDBE700BF47
:10256800D43888BEE9FAA8BDC4B1B4BD9EEE213EF8
:10257800AD529C804F7E923E9015CB19A001FA3E39
:102588007751C1166CC1563F4C5555555555A53F09
:10259800000000000000F03F0000E03F3233D33F6E
:1025A8000000F03F0000E93F0000D23F00000000BB
:1025B8002DE9F04F2DED028BADF5197D12F1140FB9
:1025C8004FF000050693A8BFD41EC14BB8BF002426
:1025D800049120AEA499089053F821300093069BEB
:1025E80003F1FF330593A4BF182394FBF3F46FF0B2
:1025F800170304FB033303EB020B009B059A03EB61
:102608000208A71AA59B9FEDAE8B03EB87094545EA
:1026180012DD20AD069B0DF5E07A002705EBC3051A
:10262800009B9F422EDCDDF82090A84600269FEDF7
:10263800A47B8DED027B1BE0EF4207D459F82500FF
:10264800FEF790F80135E6E80201E0E751EC180BD7
:10265800F8E778E90223F9E802010136FEF7ECF819
:1026680002460B46DDE90201FDF730FFCDE9020124
:10267800059B9E42EDDD013708359DED027BAAECF6
:10268800027BCDE7009A0CAB03EB820390460A93DA
:10269800A59B03EB840309934FEAC8030CAC70AD08
:1026A800C2460B9398AB05EBC805A14603EBC803DC
:1026B80013ED287B8DED027BBAF1000F77DC5846CD
:1026C8009DED020B0FF066FA00224FF07F5357EC96
:1026D800106B30463946FEF7AFF841EC100B0EF0A0
:1026E8004DFC00227B4B51EC100BFEF7A5F802467F
:1026F8000B4630463946FDF7E7FE0F460646FEF71D
:1027080035FB0290FEF72EF802460B463046394656
:10271800FDF7DAFEBBF1000F06460F466CDD08F147
:10272800FF300CA9CBF11805029B51F820C04CFAD8
:1027380005F21344AA400293ACEB0203CBF1170253
:1027480041F8203043FA02F9B9F1000F64DD029B29
:1027580000226FF07F41013315460293904500F344
:10276800A180BBF1000F07DDBBF1010F00F0BE80B7
:10277800BBF1020F00F0C480B9F1020F4CD1324610
:102788003B4600205449FDF79FFE06460F46002DA4
:1027980042D058469FED4C0B0FF0FCF930463946B5
:1027A80053EC102BFDF790FE06460F4634E000224E
:1027B8004A4B0AF1FF3ADDE90201FEF73DF8FEF760
:1027C800D5FAFDF7CFFF0022454B06460F46FEF728
:1027D80033F802460B46DDE90201FDF775FEFEF708
:1027E800C5FA394649F8040B304675E90223FDF766
:1027F8006DFECDE902015FE707D108F1FF330CAAAE
:1028080052F823304FEAE3599EE70022354BFEF792
:1028180099FA002843D181460022002330463946E0
:10282800FEF772FA002800F0C18008F1FF33002299
:102838000CA9009883426BDA002A00F0858008F121
:10284800FF38ABF1180B0CAA52F82830002B00F017
:10285800A880584670AF46460DF1300A9FED1A0B16
:102868000FF098F908F10103DA0007EBC3070592A6
:1028780055EC104B002E80F2D1804446002CC0F25B
:10288800FE80194B4FF0000A4FF0000B00261F4640
:1028980070ABA8EB040503EBC4030693E3E04FF029
:1028A800020954E754F8043B45B923B1C3F18073D6
:1028B80044F8043C012301321D464FE7CB1AF7E7E1
:1028C8000000000000000000000000000000F03FD1
:1028D800DC1F0400000020400000F03F0000703EB4
:1028E800000070410000E03F7069010008F1FF310D
:1028F8000CAA52F82130C3F3160342F821303BE703
:1029080008F1FF310CAA52F82130C3F31503F4E79C
:1029180051F82300013B02438BE7013453F8042D9F
:10292800002AFAD00B9B20AE08F10107444403F5B6
:1029380018730DEB0305069B4344983D06EBC3064D
:10294800BC4204DAA046A7E60A9B0124E6E7099BF5
:102958004FF0000853F82700FDF704FFDDF820903A
:102968009FEDAF7BE6E80201B2468DED027B059B49
:10297800984505DD01379DED027BA5EC027BDFE77D
:102988007AE90223F9E80201FDF756FF02460B46F1
:1029980008F10108DDE90201FDF798FDCDE9020122
:1029A800E5E708F1FF38ABF1180B4DE7CBF1000074
:1029B80047EC106B0FF0EEF800229B4B55EC104BD8
:1029C80020462946FEF7BEF900B30022974B204661
:1029D8002946FDF731FF0CAFFEF7C8F90646FDF7AB
:1029E800C1FE0022904B0BF1180BFDF725FF0246A4
:1029F8000B4620462946FDF767FDFEF7B7F947F86D
:102A0800280008F1010847F8286022E720462946EF
:102A1800FEF7ACF90CAB43F828001AE75AF8260081
:102A2800013EFDF79FFE22462B46FDF705FF0022DB
:102A38007E4B67E9020120462946FDF7FDFE044664
:102A48000D4617E706990136F1E802230691F7E8E3
:102A58000201FDF7F1FE02460B4650465946FDF7C6
:102A680035FD82468B46009B9E4201DCAE42E9DD85
:102A780048AB013C03EBC505C5E900ABFEE6A49BEA
:102A8800022B0BDC002B35DC59D0029B03F007002E
:102A98000DF5197DBDEC028BBDE8F08FA49B032BCF
:102AA800F3D1059BC24603F518730DEB0304A4F597
:102AB800A4742546BAF1000F69DC4546012D00F3E0
:102AC800878048AC059D002000212544B8F1010FFE
:102AD80000F39C80D4E90067D4E90245B9F1000FFE
:102AE80040F0A680049BC3E90067C3E90245C3E937
:102AF8000401CAE748AD059E444600202E44002143
:102B0800002C35DAB9F1000F38D0024601F1004344
:102B1800049CC4E9002302460B460124D5E90001C0
:102B28004AADFDF7D1FCA0452BDAB9F1000F02D070
:102B380001F100431946049BC3E90201A5E748AC2B
:102B4800059B002000211C44B8F1000F09DAB9F1F7
:102B5800000F02D001F100431946049BC3E90001AC
:102B680093E774E9022308F1FF38FDF7AFFCEBE7C0
:102B780076E90223013CFDF7A9FCC1E702460B46B2
:102B8800C6E7F5E802230134FDF7A0FCCBE735EDF5
:102B9800027B0AF1FF3A8DED007B95ED027BDDE9C2
:102BA800000153EC172B8DED067BFDF78FFC0246D9
:102BB8000B4606460F46DDE90001FDF785FCDDE919
:102BC8000623FDF783FCC5E90067C5E9020171E743
:102BD80034ED027B013DD4E902AB51EC170B5246B0
:102BE8005B468DED007BFDF771FC02460B46064601
:102BF8000F46DDE90001FDF767FC52465B46FDF72D
:102C080065FCC4E90067C4E9020157E775E90223D6
:102C180008F1FF38FDF75AFC58E700BFAFF3008012
:102C28000000000000000000000070410000703E3D
:102C3800049B049A1E6007F100439460536005F1F9
:102C480000431061D36001F1004353611DE700BFE9
:102C58002DE9F04F55EC104B25F0004385B0804628
:102C6800B3F1795F8DED021B52D322462B462046E5
:102C78002946FDF7E1FD82468B4602460B46204673
:102C88002946FDF7D9FD41A3D3E90023CDE9000189
:102C980050465946FDF7D0FD3EA3D3E90023FDF782
:102CA80013FC52465B46FDF7C7FD3CA3D3E900235E
:102CB800FDF70CFC52465B46FDF7BEFD39A3D3E990
:102CC8000023FDF701FC52465B46FDF7B5FD37A32F
:102CD800D3E90023FDF7FAFB06460F46B8F1000FCB
:102CE8001BD102460B4650465946FDF7A5FD31A3B8
:102CF800D3E90023FDF7E8FBDDE90023FDF79CFDA0
:102D080002460B4620462946FDF7E0FB04460D46E1
:102D180045EC104B05B0BDE8F08F00221A4BDDE9F9
:102D28000201FDF789FD8046894632463B46DDE9CA
:102D38000001FDF781FD02460B4640464946FDF776
:102D4800C3FB52465B46FDF777FDDDE90223FDF73D
:102D5800BBFB06460F460AA3D3E90023DDE90001C1
:102D6800FDF76AFD02460B4630463946FDF7ACFBD7
:102D780002460B4620462946FDF7A6FBC6E700BFDC
:102D8800495555555555C5BF0000E03F7CD5CF5A2C
:102D98003AD9E53DEB9C2B8AE6E55A3E7DFEB157D4
:102DA800E31DC73ED561C119A0012A3FA6F810113D
:102DB8001111813F495555555555C53F0000000033
:102DC80010B19FED030B70479FED030B704700BFD9
:102DD800000000000000008000000000000000006B
:102DE80010B19FED030B70479FED030B704700BFB9
:102DF800000000000000F0FF000000000000F07F6D
:102E08002DE9F04F2DED028BDFF84C830521BD48ED
:102E180093B00FF0B7F844460026636898472061DE
:102E280038B92C237343B84858F803100FF0AAF8A0
:102E380039E010F097FB276805460028F1D1206992
:102E480010F084FB013602463946B0480FF09AF874
:102E5800052E04F12C04E0D1AD4BAE4C93E80700ED
:102E680005AB83E807001E2229460DF12A0012F05F
:102E780077FBA94BCDE9084328238DF828303C235C
:102E880001248DF8293005AB0C938DF844408DF85A
:102E98004640DFF8C89248460FF0F1FF029040B96B
:102EA8009E480FF06FF8002013B0BDEC028BBDE810
:102EB800F08FD9F8085008A948462B689847011E92
:102EC80001DA9748B2E7214648466B689847011EE1
:102ED80001DA9448AAE794480FF054F810F0B8F8CB
:102EE8004FF47A74A0FB040547F6122204FB015143
:102EF8000023FEF711F99FED8D8A10F57A7541F1DF
:102F0800000A4FF47A72D9F80830009200219C68C0
:102F1800484605AB04AAA047011E08DA84480FF00A
:102F280031F8002147F6122009F0EAFDE9E7002010
:102F38000021049B9A1E03F59F7332F9024F9A42AF
:102F4800C4FB8401F9D1A0220023FEF795F8FEF70F
:102F580055F807EE900AF1EEE77AFDEEE77A17EEFC
:102F6800903A0DF1200B5E4644460527714A1168D8
:102F78009942B8BF13602069A022049910F0B5FAED
:102F8800013F06F8010B04F12C04F4D104996A48B6
:102F980007F092FE44463E463B46DFED688A1BF941
:102FA800012B002A37D12069039310F0B2FA039B52
:102FB80088BB2369D4ED076ADB6C616993ED007AFD
:102FC80067EE287A46EE887AC4ED077AD4ED087A57
:102FD800F4EEC77AD4ED027AF1EE10FAF4EEC77A7D
:102FE80048BF84ED087AF1EE10FA94BF012300235C
:102FF800C1F380329A1A43EA4103207EC3F30E03D9
:103008006361636A0244D2B2002B227640F3AA803D
:10301800013B6362029B0136052E04F12C04BED1EC
:103028008BB34346DFED467A1A692C33D26C92EDA6
:10303800007AB4EEE77AF1EE10FA77FE277A013ECD
:10304800F2D1B5EE007AF4EEC77AF1EE10FA1AD49E
:103058003C480EF097FF4446DFED418A23693A4821
:10306800DB6C54F82C1BD3ED007A67EEA87AFDEEE2
:10307800E77A013617EE902A0EF084FF052EEDD17F
:1030880032480EF07FFF0FF0E3FF4FF47A74A0FB95
:10309800040647F61222002304FB0161FEF73CF800
:1030A800A84271EB0A01FFF62CAF2D19214C2848D4
:1030B80021684AF1000A0EF065FF0023DFED288A37
:1030C80023600026444694ED087AD4ED077A27EE6B
:1030D800287A67EEA87ABDEEC77AFDEEE77A21680E
:1030E80017EE103A17EE902A1A4801370EF04AFFE9
:1030F800052F266204F12C04E5D114480EF042FF96
:10310800FFE600BF58220400A7220400C9220400D9
:103118008064010040420F0050973100ED22040006
:103128000A2304002C230400522304006666263F69
:103138008723040080320020F00700203333B33E99
:1031480000000000D9230400DB2304009B45040091
:10315800E3230400F4230400F0000020805A010057
:103168000000C842237B9A42FFF454AF5FED046A23
:1031780094ED087A422167EEA67A616227EE267AF4
:103188000021FDEEE77AA26A61610132A26221762E
:10319800CDED007AFDEEC77A0192216817EE902AEC
:1031A80001480EF0EFFE35E7A423040000487047FD
:1031B800CC01002000487047640200200048704796
:1031C800FC02002000487047940300200048704724
:1031D8002C0400202DE9F04104460D460EF08AFD2E
:1031E800804600284BD1294620460EF054FD014662
:1031F80020460EF097FD04EB80010E6996B9012276
:10320800E36882401343E36002220D612B4629469E
:1032180020460EF035FD032229462046BDE8F04140
:103228000EF02EBD0222314620460EF01EFD03226E
:103238000146074620460EF018FD86420BD00121B4
:10324800104A11480FF0C9F888F31188BFF36F8F3F
:103258000423184602DF3B460222294620460EF088
:103268000FFD03223346294620460EF009FD394654
:103278002B4620460EF004FD02223146CDE7BDE87C
:10328800F08100BFE0240400506401002DE9F04102
:10329800174603220E4604460EF0E7FC8642054612
:1032A80007F104080AD10122E368BA4023EA0203BD
:1032B800E360002344F82830BDE8F081022231465B
:1032C80020460EF0D2FC03220146074620460EF0A7
:1032D800CCFC864206D10222294620460EF0C5FCC7
:1032E80086420CD001210E4A0E480FF076F80023D2
:1032F80083F31188BFF36F8F0423184602DF2B4630
:1033080039462046032244F828500EF0B9FC3B46C3
:1033180029462046BDE8F04102220EF0B1BC00BFAC
:10332800E02404005064010038B5012205460C462B
:103338000EF09BFCC30713D4214628460EF0D4FC9C
:10334800014628460EF0C9FC844209D12146284688
:103358000EF0C3FC014628460EF0C6FC84420CD091
:103368000121064A06480FF038F8002383F3118834
:10337800BFF36F8F0423184602DF38BD042504000D
:10338800506401002DE9F8430E4600AF002900F013
:10339800A3800468012220460EF0BAFC01460546C7
:1033A80020460EF062FC10EA020816D1E94688B001
:1033B8006A464B4BCDE90536032342F8103F4FF4DC
:1033C800C2514346474801F083FFCD4688F3118830
:1033D800BFF36F8F0423184602DF294620460EF0FC
:1033E80083FC014620460EF078FCA84217D0E84638
:1033F80088B06A463C4BCDE90536032342F8103FB6
:1034080000234FF4C251374801F062FF0023C5463C
:1034180083F31188BFF36F8F0423184602DF294610
:1034280020460EF05AFC014620460EF05DFCA842EC
:1034380017D0E84688B06A462C4BCDE905360323F9
:1034480042F8103F00234FF4C251264801F040FFD4
:103458000023C54683F31188BFF36F8F04231846F2
:1034680002DF0022294620460EF01BFC29460EF0FA
:103478003BFC01220146064620460EF0F6FBC20739
:103488000CD431462046FFF74FFF314620460EF058
:1034980098FC3246294620460EF04EFC2946204626
:1034A8000EF01BFC01220146064620460EF0DDFB0D
:1034B800C3070DD431462046FFF736FF3146204674
:1034C8000EF07FFC2A46314620460EF035FC354684
:1034D80029462046FFF77EFEBD46BDE8F88300BFBB
:1034E8009D250400506401004D2504007625040044
:1034F8002DE9F0474B42066803EA010731EA030366
:103508001446B2681DD0B2F5004F2CBF082304231F
:10351800BB4228BF3B46B946CF1B07F1FF3A1AEA20
:10352800070F1DD03C4940F2E9133C4A3C480EF0D5
:103538003FFD3C480EF03CFD40F2E91137480EF0E3
:103548002EFDB2F5004F34BF04230823994204D856
:103558002146BDE8F0470EF088BC4FF00009DCE7D3
:103568001CB900252846BDE8F087B2F5004F34BFE6
:1035780004250825FB1AE10804F0070001EBD30134
:10358800073003F0070303442B4401EBD3019142B6
:1035980028BF114630460EF02AFC80460028E0D0AD
:1035A800B36809EBC005B3F5004F34BF0423082303
:1035B8001D4435445544B5FBF7F57D43A5EB090596
:1035C800294630460EF0A4FB2C44073424F00704A7
:1035D800A41B804507464FEAE40408D20246414648
:1035E80030460EF0C7FB41463046FFF7F3FD39463B
:1035F80030460EF079FBA04208D9394630462246BB
:103608000EF0B8FB21463046FFF7E4FD01223946AB
:1036180030460EF046FBA5E7E5250400C225040068
:10362800002604001D260400B2F5802FF8B510D23C
:10363800042A28D83F4940F2E3233F4A3F480EF086
:10364800B7FC3F480EF0B4FC40F2E3213A480EF0D4
:10365800A6FC0823D21ACC1D114424F0070421F03B
:103668000701091B17294FEAD1060ED835494FF42F
:103678003B73314A31480EF09BFC31480EF098FC00
:103688004FF43B71E2E70423E4E70023046031468A
:103698002046A660E3600EF045FB820002F11B05A0
:1036A800B6F5004F4FEAD5050FD26B1C9E420CD2DF
:1036B800254940F20233204A20480EF079FC204880
:1036C8000EF076FC40F20231C0E70021043204F12A
:1036D800100011F045FF2A46204600210EF0F9FAA5
:1036E800002320461A4619460EF0CAFA771B1946D7
:1036F800204601220EF0D5FA3A4629460EF0E9FA9C
:103708002B460022294620460EF0BAFA31462046BA
:103718000EF0DFFA3B463146204600220EF0B0FAA2
:103728003146204601220EF0BCFA2946BDE8F84091
:10373800FFF750BD3A260400C22504000026040005
:103748005B260400742604009D2604002DE9F04F32
:1037580091B0009302F004030293C2F3C203013351
:10376800840705460E46DDF868A00392059340F0ED
:10377800C881041D002837D101F00706341DC6F1A1
:103788000806009B4FF0000804275A1E4FF0FF332D
:10379800C1460193C3463B46CDF810800DB1009851
:1037A80020600598002800F3BF809C48009981425A
:1037B80003D39B488142C0F0B7800399601B11F086
:1037C800020C40F0CA80B9F10F0F40F2C980954948
:1037D80040F28123944A95480EF0EAFB94480EF093
:1037E800E7FB40F28121B5E00729CAD86FF01B003A
:1037F80011B0BDE8F08F7A285AD84B280FD847283F
:1038080056D829282DD825284FD051D8202818BF78
:1038180023280CBF4FF0010B4FF0000B6EE04C3823
:103828002E2845D8DFE800F06A4444444444444420
:10383800444444444744444444444444445444472A
:10384800475454546A4768446A4418471844447BA8
:10385800794744444744790000204FF0000B04277F
:1038680034E001212A38C0B201FA00F010EA0E0F44
:1038780044D110F0625C2BD110EA010B3ED06046B7
:10388800013C3C44B4FBF7F47C4325B1A3EB050CA5
:10389800A444B445AAD8002800F0968005980138B9
:1038A80005905AF8040B009078E7019901390191C5
:1038B8004FF0000B22E012F8010C6C2831D10020E7
:1038C80012F8023C83466C2BC9D108273B46D7E740
:1038D8000AF1070A2AF0070A0734BAEC027B24F037
:1038E800070435B106982044B0423FF67FAF84ED17
:1038F800007B4FF0000B083408273B4612F8010FF5
:1039080000287AD0BBF1000F7FF475AF2528F5D1D8
:103918004FF0010B019B013301930427EDE7584653
:103928009BE700208346ABE7039988072FD54FF024
:10393800010C601BB0F5007FFFF445AF39494FF427
:103948001F73394A39480EF033FB3A480EF030FB02
:103958004FF41F7134480EF022FB4FF0000CE9E7DA
:1039680005B309F140010DEB010E0199C0F3870081
:103978000EF8200C0EF8101CBCF1000F0ED060F0F1
:103988007F000EF8200C08F1010809F10109C5F1C2
:1039980008014FF6DA7E04340691AFE70498013047
:1039A8000490F2E7BCF1000F01D00136EDE702996F
:1039B80002360029E9D10098CDE90632FDF7C6FBA9
:1039C800DDE906320644E0E7042B08D10AF10400D9
:1039D80015B1DAF800102160824604348EE70AF146
:1039E800070323F0070303F1080A1DB193ED007BD9
:1039F80084ED007B0823083480E7631BB3F5806FF0
:103A08001CD3084940F2D223074A08480EF0D0FADE
:103A180009480EF0CDFA40F2D2219BE73059010057
:103A28008852040083420400D026040000260400C3
:103A38001F270400FE260400392704001DB9A6F13B
:103A48000804E018D4E6029A9B0828602B709DF8B9
:103A58001030BAB1EB7085F80280B8F1000F05D0CC
:103A6800002208A8C5F1010791450DD14FF0000AC1
:103A7800C5F1010308AF01930DF1300BD14512D107
:103A8800601BB5E66B70E6E710F8013B190608D530
:103A980007EB040CB44503F07F033FF6A7AE04F828
:103AA800013B0132E0E7B8F1000F03D097F900209D
:103AB800002A16DB029BC3B11AF80B2004F8012B6D
:103AC8000022019B18191044B0423FF68FAE387897
:103AD800009904F8010B2046039211F01BFD039A8C
:103AE80014440AF1010A0137C8E73A7855F8223038
:103AF8000093029B009845F82230FDF727FB421CF3
:103B0800DFE76FF00D0073E62DE9F04F95B000AFD9
:103B18008A460546C7E9083258B99B4940F29933A5
:103B28009A4A9B480EF044FA40F2993197480EF0B1
:103B380036FA49B903784678807800EB8300284440
:103B4800564521D8A0EB050ABB6F95F8028003F013
:103B58000103BC6F3B61EB78B8F1000F0CBF002488
:103B680004F00104FB6113B1BB6F9E0715D4A4B91F
:103B78007B6A1BB1514628463A6A984756463046F2
:103B88005437BD46BDE8F08F441C2046FDF7DEFAE9
:103B9800013020440AF1010AD2E7BB6FC3F3C00326
:103BA8007B612B78FB609B007B606B68BB60FB686C
:103BB80005EB830B7B6A002B71D15646D844ACB118
:103BC8001C461BF8013B55F82300FDF7BFFAFB6FB5
:103BD80001303BB1D7F88030A34282BFFB6F23F896
:103BE80014000134C3450644EBD1D846BB6F4FF0EF
:103BF800000913F0050F0CBF4FF0020B4FF0010B3B
:103C0800FB699945BBD298F8013008F1020855F8CC
:103C180023A0604B9A45C0F082815F4B7A699A4530
:103C28002CBF002301230AB318F8021CB8687B6272
:103C38000EF087F97B6AC8B1EA468AB06A46574BE4
:103C48000593BB68CDE906314FF40073ADF8203019
:103C5800534B42F8103F00234FF41251514801F0E2
:103C680037FBD546023E09F10109C9E723B13B6993
:103C78002BB9A6EB0B06F6E7BB6F9807F3D55046B2
:103C8800FDF764FAFB6F43B1D7F880309C423FBF21
:103C9800FA6F431C22F8143001340644E3E7002C81
:103CA80066D1B8F1000F69D0BB6F590769D5C14615
:103CB80007F140004246594611F02CFC0BEB080373
:103CC800BB610023DFF8D0E0FA6993426CD3BA6F86
:103CD80095F801B03969920704EB0B0348BF00223D
:103CE800DBB258BF4FEA5902002940F0E280B96FB1
:103CF80011F0040F14BF494600216B70A970EA70D7
:103D080028463A6A79687B6A9847061EFFF637AFF5
:103D1800FB6849462B70FB693A6AEB7085F801B07D
:103D28007B6A85F8028007F140009847B0F10009E6
:103D3800C0F2F1807B68FA69B86903EB420141443B
:103D48003A6A7B6AAAEB010198470028C0F2E5802D
:103D58004FF0000BB14409EB000607F1300AA34508
:103D6800C0F0A98000213A6A08467B6A984706E7AE
:103D780044464FF0000907F130009BE74446C1462E
:103D88009CE7A1469AE700BF50270400D02604000C
:103D98000026040030590100885204006B270400F3
:103DA8000400000100640100B869634A10F8021BAE
:103DB80010F8016CB86155F826009042C0F0B58043
:103DC8007A6970452CBF4FF0000B4FF0010B3AB1E8
:103DD800B8683B600EF0B5F83B68DFF870E160BB8F
:103DE800BBF1000F2BD03A695AB10F2C36D9534981
:103DF80040F24343524A53480EF0DAF840F2434146
:103E080094E6BA6F520718D5B9F10F0F09D94E4980
:103E180040F246434A4A4B480EF0CAF840F246413F
:103E280084E609F1280207F1280009F1010102EBF3
:103E3800000909F8106C5FFA81F9013344E7BA6F99
:103E4800900715D50F2C09D93C4940F24D433C4AFF
:103E58003C480EF0ADF840F24D4167E604F1280207
:103E680007F12800611C141804F8206CCCB2E4E7B0
:103E7800B9F10F0F09D934494FF48A63304A3148F0
:103E88000EF096F84FF48A6150E609F1280207F11E
:103E9800280C09F10100944407F1500209F10209C4
:103EA80052FA80F00CF8101C5FFA89F900F8106CCF
:103EB800C3E7002121E71BF80A3055F8239087F85B
:103EC8002F30FB6F23B3D7F880309B4520D2FB6F90
:103ED80033F81B8001213A6A7B6A07F12F00984763
:103EE80000281ADB0644B8F1000F06D14846FDF752
:103EF8002DF900F101081FFA88F8414648463A6A48
:103F08007B6A9847002808DB06440BF1010B26E77B
:103F18004FF00008DEE74E4631E606462FE67B699D
:103F2800002B3FF4A9AE00237EE67A69002A86D0EA
:103F38004FF0000B4CE700BF305901000E28040079
:103F4800D0260400002604002D280400885204000E
:103F5800014B1860704700BFC404002080B50546B7
:103F68000E461746984608F059FE034602F00AFC2A
:103F7800DFF85090044649F800304246394630464A
:103F8800A8470B4B1B7873B90A4940F246330A4AD3
:103F98000A480EF00DF80A480EF00AF840F24631C9
:103FA80005480DF0FCFF54F8090002F067FB00BF5C
:103FB80070940020892804005E280400002604006C
:103FC8009C2804000800000038B50D46044620224D
:103FD800002111F0C5FA0022EB68E361AB68A36128
:103FE8002B6823626B68A26263622A6923B1591E37
:103FF800194208BF42F0010222610122002104F1A6
:104008002C000EF080FF48B1054906482F23064AC8
:104018000DF0CEFF2F2104480DF0C1FF38BD00BFC1
:10402800E428040000260400BE2804002DE9F04F0F
:10403800002789B0CDE90123436A04468B428846AC
:10404800BA460597079754D300F11406EFF3118584
:10405800202383F31288BFF36F8F3046A94609F0F7
:10406800C7F858B984234D4A4D494E480DF0A0FF72
:1040780031464D480DF09CFF842163E0304609F03D
:10408800DBF8079A2AB1394620460EF077F8002364
:10409800079306A920460DF098FF069983464145E7
:1040A80030D32268236A204613F8221003EB820AD1
:1040B80021F0030103F82210216842460DF0A9FF00
:1040C800E3682060984218D04FF0000B304609F0A2
:1040D8009DF850B389F31188BFF36F8F059929B103
:1040E800A2690AB12046904700230593BBF1000F4F
:1040F800ACD1504609B0BDE8F08F236943F00803FE
:104108002361E1E718B120460DF09DFFDEE7DDE908
:104118000132134339D003910EF023FF0399A0BB5A
:104128009DBB304609F072F878B94FF499731B4A71
:104138001E491C480DF03CFF31461D480DF038FF64
:104148004FF4997115480DF02AFF85F31188BFF3D4
:104158006F8F04F12C00DDE9012307F0E7FA8346AD
:10416800EFF31189202383F31288BFF36F8F304652
:1041780009F03EF800283FF475AFBBFA8BFB3046D8
:1041880009F05AF84FEA5B1BA0E7204607AB05AADF
:1041980027680DF077FF834698E700BFED280400F5
:1041A8001A290400002604002F29040045290400C8
:1041B8005C2904002DE9F0410446C36908460E460F
:1041C800984704F114050746EFF31188202383F379
:1041D8001288BFF36F8F284609F00AF868B984235C
:1041E8001A4A1B491B480DF0E3FE29461A480DF0F0
:1041F800DFFE842115480DF0D2FE284609F01CF890
:1042080033783A4643F001033370616820460DF075
:1042180000FF606020460DF0CCFF284608F0F6FF4E
:1042280068B94FF49973094A0C490A480DF0C0FE61
:1042380029460B480DF0BCFE4FF49971DAE788F374
:104248001188BFF36F8FBDE8F08100BFED2804002F
:104258001A290400002604002F2904004529040017
:104268005C2904002DE9F0470446002700F11406F4
:10427800EFF31188202383F31288BFF36F8F304642
:1042880008F0B6FF054668B98423394A39493A48DF
:104298000DF08EFE314639480DF08AFE84213448EF
:1042A8000DF07DFE304608F0C7FF2369A1681807A6
:1042B80002D463688B4200D2636A5B1A002B41D038
:1042C800206A10F8213000EB810913F003023CD07A
:1042D800022A04D150F821205FEA920A05D1DA07B0
:1042E80020D44846E36998478246A168524620464A
:1042F8000DF08FFE5146A06020460DF098FE2F4627
:10430800304608F083FF10BB4FF49973184A1C49D4
:1043180019480DF04DFE31461A480DF049FE4FF48C
:104328009971BCE743F0020300F82130E36948467D
:10433800A56898472946024620460DF06AFE0025E2
:10434800A060DDE71D46A946DAE71546FBE788F3D6
:104358001188BFF36F8F002D8AD137B1B9F1000FE3
:1043680003D104F12C0007F063F94846BDE8F08753
:10437800ED2804001A290400002604002F2904004F
:10438800452904005C2904002DE9F0410446C3696D
:1043980008460D46984704F114060746EFF31188BE
:1043A800202383F31288BFF36F8F304608F020FF75
:1043B80068B98423274A284928480DF0F9FD314671
:1043C80027480DF0F5FD842122480DF0E8FD304620
:1043D80008F032FF2B7823F001032B7023699B0729
:1043E80005D5E268236A03EB82039D4222D12B782C
:1043F80023F002032B70D4E90231994204D13A46E2
:1044080020460DF006FEA060394620460DF00FFE4E
:10441800304608F0FBFE90B94FF499730D4A1149E4
:104428000E480DF0C5FD31460F480DF0C1FD4FF4A3
:104438009971C9E72B6867F39F032B60E8E788F356
:104448001188BFF36F8F04F12C00BDE8F04107F02D
:10445800EFB800BFED2804001A2904000026040064
:104468002F290400452904005C29040070B504467E
:1044780000F11405EFF31186202383F31288BFF3AC
:104488006F8F284608F0B4FE68B984231A4A1B497E
:104498001B480DF08DFD29461A480DF089FD842131
:1044A80015480DF07CFD284608F0C6FE2369A06873
:1044B8001B0702D46368834213D2646A241A28460D
:1044C80008F0A4FE78B94FF499730B4A0E490C48CA
:1044D8000DF06EFD29460D480DF06AFD4FF49971F7
:1044E800DEE71C1AEBE786F31188BFF36F8F201EF7
:1044F80018BF012070BD00BFED2804001A29040070
:10450800002604002F290400452904005C29040022
:104518002DE9F84F0546AB8B08461907904616D586
:1045280001280CBF43F0100343F02003AB8314357C
:10453800284608F06BFE002840F0B181AE494FF4E0
:104548009973AE4AAE480DF033FD29469DE0022826
:1045580003F0070140F07D8128460DF037FE05285D
:1045680000F2FA8001A353F820F000BF374500009D
:104578005B48000061470000054600009F460000B8
:10458800FF46000002F00702531F012B1AD8002330
:10459800062A2E68A4B2C5E9003309D1334603E0E0
:1045A800EA8B0132EA831B68002BF9D144F002043C
:1045B8002846AC830DF00AFE002800F05A8144F02A
:1045C800200455E1042A0DD1A4B22846AC830DF08D
:1045D800FDFD0646002800F04C8144F0200400262A
:1045E800AC8346E1874940F21B13874A84480DF0A3
:1045F800DFFC40F21B1184480DF0D1FC49B183491E
:104608004FF4AB73804A7E480DF0D2FC4FF4AB7187
:10461800F1E72B684BB97E4940F257137A4A78483C
:104628000DF0C6FC40F25711E5E72B691F684FB93A
:1046380078494FF4AD73744A71480DF0B9FC4FF4E2
:10464800AD71D8E70E468A464FF00609AC8B24F0C8
:10465800070444F00604A4B2AC83AB68002B00F056
:104668000F814FF0010B44F00804AC8305F11404EA
:10467800204608F0CBFD002878D15F494FF49973A4
:104688005E4A5F480DF094FC214663480DF090FCAB
:104698004FF499718EE0022909D0604940F25D1308
:1046A800594A57480DF084FC40F25D11A3E7EE8BA0
:1046B8004EB15B494FF4AF73534A51480DF078FC43
:1046C8004FF4AF7197E72B695F684FB9514940F2D2
:1046D80061134D4A4A480DF06BFC40F261118AE7BC
:1046E800AC8BB24624F0070444F00404A4B24FF0A3
:1046F8000409AC83B1E7012909D04A494FF4B273E0
:10470800414A3F480DF054FC4FF4B27173E72B68EF
:104718004BB93F4940F265133B4A39480DF048FC14
:1047280040F2651167E72B699F684FB939494FF423
:10473800B473354A32480DF03BFC4FF4B4715AE774
:104748000026AC8BB24624F0070444F00504A4B25A
:104758004FF00509AC8380E72A4940F26B132A4AD7
:1047680027480DF025FC40F26B1144E788F31188C7
:10477800BFF36F8FBBF1000F1ED1002E33D117B1DD
:1047880028462949B847EFF31188202383F3128874
:10479800BFF36F8F204608F02BFD00284AD18423F1
:1047A800164A224916480DF003FC214620480DF010
:1047B800FFFB842111481FE7A9680029DDD0D1F843
:1047C80000800029D9D053464A462846D1F804B07B
:1047D800D847B8F1000F04D0D8F8003041469846C1
:1047E800EFE74346FAE7314653464A4628463668D5
:1047F8000DF018FDC1E700BF45290400ED280400AD
:1048080000260400834204007C290400A129040036
:10481800AD290400D02904005C290400E72904001C
:10482800FD2904000C2A0400B54800001A290400D8
:104838002F290400204608F0FFFCAC8B24F0080464
:10484800A4B2AC83E20621D524F01003AB8304F0B4
:104858000701D5F818A0AA8BBAF1000F22F00704B7
:10486800BFF690AE00232E68C5E9003344F001047A
:10487800AC8304F0070989454FF000077FF4EDAEDB
:104888000EB9002FDED04FF0000BECE6A3067FF543
:104898004EAE24F02003AB8304F007015CE688F3F6
:1048A8001188BFF36F8FBDE8F88F00BFF8B50446D5
:1048B8000D4600F11406EFF31187202383F31288C5
:1048C800BFF36F8F304608F093FC68B984230C4A15
:1048D8000C490D480DF06CFB31460C480DF068FB97
:1048E800842107480DF05BFB304608F0A5FCA56164
:1048F8003A462046BDE8F8400121FFF709BE00BF4F
:10490800ED2804001A290400002604002F290400B9
:104918002DE9F04704460E460DF074FC051E66DBD3
:1049280004F11409EFF3118A202383F31288BFF3EB
:104938006F8F484608F05CFC804660B98423374A8C
:10494800374938480DF034FB494637480DF030FBFD
:104958008421324843E0484608F06EFC4FF6FF7267
:10496800E38BA78B934207F0070743D0062F2CD879
:10497800DFE807F01F43092B1F041F006FF08505B0
:104988004FF0000802E002250133E383484608F0AF
:104998003DFC002834D14FF49973204A234921481B
:1049A8000DF006FB494622480DF002FB4FF49971C1
:1049B800CFE700233360636823B9C4E9006687B191
:1049C8003D46DDE71E606660F9E71A4915484FF471
:1049D800E473194A0DF0ECFA4FF4E47116480DF03F
:1049E800DEFA524602212046FFF792FD3D46284650
:1049F800BDE8F0876FF00A05C2E76FF00405BFE76E
:104A08008AF31188BFF36F8FB8F1000FEFD000233E
:104A18003A46314620460DF005FCE8E7ED2804004B
:104A28001A290400002604002F290400452904003F
:104A38005C2904000C2A04007C290400F8B505460A
:104A480000F11406EFF31187202383F31288BFF3D4
:104A58006F8F304608F0CCFB60B98423254A26497D
:104A680026480DF0A5FA314625480DF0A1FA842113
:104A780020482BE0304608F0DFFBAC8B04F007043D
:104A8800022C17D0012C0CBF6FF004046FF08504C2
:104A9800304608F0BBFB38BB4FF49973154A1949E7
:104AA80016480DF085FA314617480DF081FA4FF493
:104AB8009971DDE7EB8B5BB91449104840F2EF13AD
:104AC800134A0DF075FA40F2EF1111480DF067FA2C
:104AD800013B9BB2EB83002BDAD13A4621462846AC
:104AE800FFF716FD2046F8BD87F31188BFF36F8FD7
:104AF800F8E700BFED2804001A2904000026040086
:104B08002F290400452904005C290400222A0400F6
:104B18007C29040008B54268034602F00302032A10
:104B280081600AD06AB9084908484523084A0DF047
:104B38003FFA452106480DF032FA006800225A6013
:104B480008BD0020FAE700BF8342040000260400E5
:104B5800302A040008B558B90749084840F2351307
:104B6800074A0DF025FA40F2351105480DF017FAFD
:104B78004368587908BD00BF8E2A04000026040047
:104B8800562A040010B548B908490948A023094A1B
:104B98000DF00EFAA02107480DF001FA03681B6911
:104BA80013B1BDE810401847184610BD8E2A0400FE
:104BB80000260400562A04002DE9F8430446064658
:104BC8000127DFF8408094FAA4F5B5FA85F507FACD
:104BD80005F308EB05156FEA030924EA03042B7BA8
:104BE8005BB12846FFF7CEFF38B96B680422284628
:104BF800196806EA09060DF080FB002CE3D130465F
:104C0800BDE8F8837064010010B5002288B00E4931
:104C18000E480EF01FFA002200230024CDE90623D7
:104C28000E234FF40062CDE90334CDE90144084B6B
:104C380008490094084807F0E3F8084906480EF0C8
:104C480096F9204608B010BD494D0000802E00207E
:104C580095500000F0940020B0290020A52A0400F7
:104C68002DE9F047DFF8D4902D4C8046A9EB0403DA
:104C78008F2B0F460BD92B4940F253132A4A2B4846
:104C88000DF096F940F2531127480DF088F928489D
:104C98000DF017FB064660B300252846BDE8F087EF
:104CA800237B8BB12368DB680BB120469847636888
:104CB800204683F806A0FFF765FFB0B963680422B1
:104CC800204619680DF019FB013610344C4514D9EB
:104CD800184940F25F13144A14480DF069F9164850
:104CE8000DF066F940F25F11CEE70AFA06F31D43AC
:104CF800EAE705464FF0010AE8E7D1D3B8F1000F1B
:104D0800CBD0002DC8D02846FFF756FF0546002F08
:104D1800F7D0002140F2391007F0F2FEF1E700BFAA
:104D280070640100DA2A0400AD2A04000026040099
:104D38009C8D00200A2B04002B2B040080640100AA
:104D4800014806F075BC00BF80080020014B53F8ED
:104D580020007047FC14040008B5034608462BB130
:104D6800044A136000F094FD002008BD6FF01500A0
:104D7800FBE700BFC804002010B5044C237813B922
:104D8800034806F055FC0123237010BD68940020E9
:104D98008008002010B5044609480DF092FA3CB18D
:104DA800084BD3E8EF1F0139C3E8E21F002AF8D106
:104DB800054808F00FFEBDE81040044806F038BC6E
:104DC800948D0020988D0020802E002080080020DF
:104DD8000022044BD3E8EF0FC3E8E12F0029F9D1F3
:104DE800704700BF948D002070B5FFF7F1FF0546AE
:104DF800104C114EB4421AD9104940F21623104AE9
:104E080010480DF0D5F810480DF0D2F840F21621F0
:104E18000B480DF0C4F82046FFF79CFE28B1236824
:104E28005B6813B12946204698471034E2E7F2D36D
:104E380070BD00BF70640100806401000A2B04008B
:104E4800AD2A0400002604002B2B040010B5044CE6
:104E580004492046FFF7B8F8034B1C6010BD00BF9B
:104E6800B0070020E8140400888D00200023154AAC
:104E780010B51370144A15491360154A1548136084
:104E8800FFF76AFFFFF7E2FF134B144918468B42FE
:104E980015D9134940F22B13124A13480DF088F81C
:104EA80012480DF085F840F22B110E480DF077F8F6
:104EB8001A1A5C681211013222711033E7E7F7D32E
:104EC80010BD00BF69940020948D002040420F005F
:104ED800988D0020C72201007064010080640100E1
:104EE8000A2B0400AD2A0400002604002B2B040022
:104EF8000146002200230148FFF798B8B0070020B8
:104F08000148FFF7AFB900BFB0070020024B0146C8
:104F18001868FFF739BA00BF888D00200148FFF7ED
:104F2800A5BA00BFB0070020F8B5314B1B78002B9D
:104F38005BD0FFF7E5FF0446002846D12D4B2E4DE8
:104F48001B68002B19DD0EF083F84FF47A76A0FB6E
:104F5800060747F61222002306FB0171FCF7DCF86E
:104F6800D5E90032C01A40F2E93361EB02019842F8
:104F780071F1000101D3FFF737FFD5E9003213F5CE
:104F88007A7342F10002C5E9003274B3BDE8F84013
:104F9800FFF7C4BF2846FFF7DDFD20B12B68214687
:104FA80028461B6898471035B54211D9134940F275
:104FB8000A23134A13480CF0FBFF13480CF0F8FFC0
:104FC80040F20A210E480CF0EAFF104D104EEBE7B4
:104FD800E0D32046FFF79AFF0E4BD3E8EF1F0139C5
:104FE800C3E8E21F002AA9D0F7E70020F8BD00BFF8
:104FF80068940020948D0020782E00200A2B04004D
:10500800AD2A0400002604002B2B04007064010064
:1050180080640100988D002070B5154D297831BB4A
:105028000120FFF71DFE134C134EB44218D9134943
:1050380040F2CF13124A13480CF0BAFF12480CF092
:10504800B7FF40F2CF110E480CF0A9FF2046FFF73A
:1050580081FD18B1236820469B6898471034E4E71F
:10506800F4D3FFF761FF0028FBD101232B7070BD3B
:105078006994002070640100806401000A2B040018
:10508800AD2A0400002604002B2B04002DE9F84368
:10509800374F384BFB1A1B090AD137494FF46F7346
:1050A800364A37480CF084FF4FF46F71334819E0E3
:1050B80000210846FFF7D4FD0446A8B140F21B685A
:1050C8004FF000092F4B1B789BB92F4940F246330C
:1050D8002E4A2B480CF06CFF2D480CF069FF40F26B
:1050E80046312A480CF05BFF4FF0FF384FF0FF398C
:1050F800E8E701F047FB274B274A1B58136033B1F9
:10510800264B1B68092B02DD254806F091FA00257D
:1051180044B12046FFF750FD044618B94FF0FF3858
:105128004FF0FF39FFF700FF064628B935B91C488C
:1051380042464B4606F0FAFA3546E9E70D4D08E0D7
:10514800F5D22B689B691BB1002228461146984767
:105158001035BD42F4D913494FF46C73074A084817
:105168000CF026FF10480CF023FF4FF46C719DE7FC
:1051780080640100706401004A2B0400AD2A040019
:105188000026040070940020892804005E2804008A
:105198009C28040008000000908D0020988D0020B5
:1051A800800800200A2B04002B2B040013B52C4880
:1051B8000DF087F82B4B1B78002B35D0EFF31184BB
:1051C800202383F31288BFF36F8F274808F010F865
:1051D80068B98423254A264926480CF0E9FE224965
:1051E80025480CF0E5FE842120480CF0D8FE1E4826
:1051F80008F022F8FFF798FE1B4808F007F868B98E
:105208004FF49973194A1D491A480CF0D1FE1649F2
:105218001B480CF0CDFE4FF49971E5E784F3118833
:10522800BFF36F8F02B010BD164B1B68002BF9D06F
:1052380050B9002200231448CDE9002347F6122272
:10524800002308F059FBEDE70928EBD10E4808F0D8
:10525800C1FB0E4802B0BDE8104006F0E9B900BF36
:10526800988D0020699400208C8D0020ED28040082
:105278001A290400002604002F29040045290400E7
:105288005C290400908D0020802E002080080020DA
:1052980010B5064B04461B6898472146A060044891
:1052A800FEF788FFBDE81040FFF780BFC804002064
:1052B800B0070020044A054B9B1AB1EBD30F34BF4B
:1052C80052F8310000207047F86301007064010053
:1052D8002DE9F04F8FB0C1F34A2604AF0D46904632
:1052E800B8607B600C0D002E66D04FF000090A23D1
:1052F8004FF0040B07F1140AFE60C7E90799C7F8D5
:1053080024900093CDF808B0CDF804A007F11C0351
:105318004A464046F968FEF7F7FBB0F5006F0346CA
:105328001CD36C468AB0D8F8041004AB2B481A4634
:10533800C3E9050140F2FF71D9614FF40071198486
:10534800274B42F8103F4FF412514B462548FFF7C0
:10535800BFFFA5462C37BD46BDE8F08FC0F30A064F
:1053680004F11700184420F0070080083B60FFF79D
:10537800BFFD66F35325044630B33B6800F11001C6
:10538800C7E908390A23F961CDE901AB0093404622
:10539800154AF96807F11C03FEF7B6FB002813DA73
:1053A8001249134840F24913124A0CF001FE40F228
:1053B800491110480CF0F3FD04F1170020F0070024
:1053C8008008FFF795FD044666F353252A462046D4
:1053D8007B68B9680CF0B1FFBCE700BF732B040011
:1053E800040000012064010015230100DF2B0400E4
:1053F80000260400B22B04002DE9F04F87B00546C3
:10540800DDE9106BDDE9127A8846144699462FB318
:105418003B465A4610210020CDF800A0CDF814A034
:10542800FEF794F900280BDA27494FF4B473274A9A
:1054380027480CF0BDFD4FF4B47124480CF0AFFDC3
:10544800B0F5006F01460BD340F2FF730221214AE9
:10545800214807B0BDE8F04F0CF0C8BF39463846C0
:1054680004F0070305F00704E40044EA831444EA5F
:10547800402444EA065406F11700084420F00700C7
:1054880080080391FFF734FD0546A0B19FB13B4664
:105498005A460399CDF800A01030FEF757F90028B6
:1054A80009DA094940F28D13084A09480CF080FDD1
:1054B80040F28D11C1E74B4622464146284607B0C7
:1054C800BDE8F04F0CF039BFDE2B0400B22B04000E
:1054D80000260400E82B040020640100406820B185
:1054E800034BC01A40F3CF0070474FF0FF307047AE
:1054F800F86301000EB403B503AB53F8042B01465F
:105508000448019301F0E4FB02B05DF804EB03B03A
:10551800704700BF3D550000CA0605D48B064CBF36
:1055280002490349FFF7E6BF704700BF9B450400E7
:10553800202C040038B54B6805461A68CB680C4621
:105548009A4202D108460CF075FF6368D3E8EF2F42
:10555800511CC3E8E01F0028F8D1A3689D54636874
:105568001A68E3689A4209D9054906487223064A27
:105578000CF01EFD722104480CF011FD002038BD0E
:10558800522C040000260400232C04002DE9F04FBF
:1055980089B099469DF85080159B044606930D46A0
:1055A800DDE916A3189F05920493B8F1000F00F0E7
:1055B800A180B8F1040F0BD987494FF41573874AB6
:1055C80087480CF0F5FC4FF4157184480CF0E7FCA3
:1055D80007F4807307930CF08EFE07F0020B024667
:1055E800002856D020467F49FFF784FF0646BBF1C6
:1055F800000F08D017F0440F4DD12A4620467A49AB
:10560800FFF778FF064407F0010353B1774B2046B4
:1056180053F82820764B7749002A08BF1A46FFF727
:1056280069FF07F48073002B07F0080318BF4FF0D9
:105638000009002B5BD0704B204653F828206F4997
:10564800FFF758FF0546059B2BB11A4620466C49C3
:10565800FFF750FF0544B9F1000F05D04A46204630
:105668006849FFF747FF054467483544069B002B08
:1056780047D0224665490CF033FC002841DA6449DA
:1056880040F2B123554A56480CF092FC40F2B12141
:105698009BE70646ABE75F4B18680028B2D05E4B25
:1056A8004FF47A7B1B684FF03C0CB5FBF3F5B5FB68
:1056B800F0F14FF4616300FB11550BFB05F5B1FBED
:1056C800F3F2B5FBF0FE03FB121100FB1E55B1FB14
:1056D800FCF30BFB05F5B5FBF0F50CFB13112046AD
:1056E8000091CDE901E54D49FFF704FF8AE707F08E
:1056F8000805A8E7B9F1010F45460CBF42484848DC
:10570800B4E7049B002B52D0049B3946102B28BFCA
:105718001023204699460026FFF7FEFEB54218DC06
:105728000026334620461AF803203E49FFF7E2FEDA
:105738000136102E13D0710703D120463A49FFF7DE
:10574800D9FE4E453346EDD320463849FFF7D2FE01
:10575800EEE720463449FFF7CDFE0136DEE70026A6
:1057680020463349FFF7C6FE33461AF80320204681
:10577800A2F120035F2B28BF2E222E49FFF7BAFE85
:105788000136102E0DD0720703D120462649FFF7A7
:10579800B1FE4E453346E8D320462349FFF7AAFE1B
:1057A800EEE7049BCA44B3EB09030493ACD1B8F108
:1057B800000F0AD0FB0704D520460D4A0D49FFF714
:1057C80099FE39462046FFF7A7FE204609B0BDE8F6
:1057D800F04F0CF02FBE00BF872C0400232C0400D0
:1057E80000260400922C0400962C04000C150400DA
:1057F800822C0400BB2C040020150400BE2C0400DD
:10580800C42C0400C82C04003D550000D96C0000CD
:10581800CD2C0400A48D0020A08D00209F2C040016
:1058280057240100D62C0400DE2C0400DC2C0400D4
:10583800E02C0400E22C040042F20F7373B58B4293
:1058480028BF0B4605680446052168460D4A0AF03C
:10585800CBFA0646636828460B225B680A490CF0B7
:10586800DBFD63683246694628465B680CF0D4FD68
:1058780063681B2228465B6804490CF0CDFD02B022
:1058880070BD00BF3C3904008F51040073510400FF
:1058980000210123064A904206D8064A01B901238D
:1058A8001360054B18607047012140085B00F2E760
:1058B80040420F00A08D0020A48D0020F8B50D46B1
:1058C8000446064F4618B44201D12846F8BD14F8DC
:1058D800011BBB6801485B689847F4E7645A0100FC
:1058E80010B543681C6809480DF0C9FA48B9084959
:1058F80008489923084A0CF05BFB992106480CF0EC
:105908004EFB23685B685C6010BD00BF645A0100F1
:10591800432D040000260400052D0400014B0360FC
:10592800002070476815040008B504480CF02AFBED
:1059380003480CF027FB002008BD00BF772D0400AA
:10594800AC2D040010B5B9B190F93D20002A05DA54
:105958000A480CF021FF6FF0C90010BD182303FBA3
:10596800020402FB033318448388228AE068534305
:10597800A28A5A430FF0CEFD0020EEE7D92D04008D
:10598800800017282DE9F84F0C466DD900296BD0F7
:105998008B7DBBB9CE8906F00106AAB9237D042BFD
:1059A80003D0E289524202F003020027D4E90050F2
:1059B800DFF8CC80DFF8CC90218ABBB2994257D867
:1059C800002053E00026E8E70022EEE735F902ABB5
:1059D8008AEAEA71A1EBEA7189B2B1F5004F36D0D3
:1059E8004FEAE11BBBF1C00F38F81B3007DC19F890
:1059F8000BB001F07F0111FB0BF103EBD113217DFB
:105A0800BAF1000FB8BFC3F5804302291BB221D0F9
:105A1800042922D0012924D19B11803B7F2BA8BFC8
:105A28007F2300F8013B0CF1010CE1891FFA8CF38C
:105A38009942CBD805EB460510440EF1010EA18919
:105A48001FFA8EF3994216D94FF0000CEDE743F692
:105A5800FA73D4E720F8023BE5E71B0540F8043B5E
:105A6800E1E706480CF098FE4FF0FF30BDE8F88FEC
:105A78004FF0000EE3E701379EE700BF002E040059
:105A8800382004009B5104001FB5002301930393A1
:105A98000123694611480293FEF73AFF58B11049AD
:105AA80040F257130F4A10480CF082FA40F257118F
:105AB8000C480CF074FA029B9B07FCD1039B4BB17A
:105AC8000A4940F25D13074A07480CF071FA40F2A0
:105AD8005D11EDE705B05DF804FB00BFE08D002027
:105AE8007A2E0400272E040000260400822E0400CB
:105AF80008B5074A0121D2F80034002043F0010319
:105B0800C2F800340CF0CFFE024B186008BD00BF8D
:105B180000600550008E0020054A0021D2F80034AC
:105B280023F00103C2F80034024B186801F01EBBD1
:105B380000600550008E00204FF0FF324FF0FF3319
:105B4800014805F0F3BD00BF70080020014805F0CA
:105B58006FBD00BF70080020014806F077B800BF8D
:105B6800D08D002038B5164B1B7873B9154940F213
:105B78004633154A15480CF01BFA15480CF018FA6C
:105B880040F2463110480CF00AFA00F0FBFD114BC8
:105B9800114C1D582368AB4210D0236823B10F4B1A
:105BA800D3F8C830AB4209D0FFF76EFF4FF0FF3291
:105BB8004FF0FF330A4805F0B9FD2560012038BDD4
:105BC80070940020892804005E2804000026040040
:105BD8009C28040008000000CC8D002070300020B4
:105BE8006008002008B50A48FEF728FF0FF02BFBD5
:105BF800084B38B1084AD2F8C8201A60BDE80840F6
:105C08000FF039BB18600548BDE8084005F010BD25
:105C1800E08D0020CC8D002070300020600800202E
:105C2800002208B5044B05481A60FEF707FFBDE8D7
:105C38000840034805F0FCBCCC8D0020E08D002016
:105C48006008002010B5104910480CF001FB00282E
:105C580016DB0F490F4805F069FFFFF749FF0E48AB
:105C68000EF0DFFF044648B902460121562000F035
:105C780019FC562000F0E6FBFFF74EFF204610BD4A
:105C88004FF0FF34FAE700BF68150400E08D0020EC
:105C980065270100D08D00200060055008B5034835
:105CA800034A0021121A0CF091FD08BDB00800202B
:105CB800F0940020074808B5074A0849121A0CF062
:105CC80087FDBDE808400648064A0749121A0CF045
:105CD8007FBD00BF60000020B0080020885204008B
:105CE8006000002060000020885204002DE9F84F71
:105CF80080460C4600AF002965D0D1E90012E9467C
:105D08008AB0A3686D464FF0050A6E463748CDE95C
:105D18000723CDE9050146F810AF002332464FF4BA
:105D280021513348FFF7D4FAD4E90312CD46636909
:105D3800AD463048C5E90723C5E90501C5F810A0F7
:105D4800002332464FF421512948FFF7C1FACD46C6
:105D5800E3690121284A26480CF048FB264600251D
:105D68004FF00A0ADFF8A0B0E946D6E908C0D6E93C
:105D78000A138EB06A46CDF81CC005F1010CCDE9B6
:105D880008C0A81CCDE90A01E91CCDE905B5CDE993
:105D98000C1342F810AF002345F2400114480435B3
:105DA800FFF796FA102DCD4606F11006DCD1236ECA
:105DB8000121124A0E480CF019FBA3690121104A6F
:105DC8000B480CF013FBB8F1010F07D1EFF3058373
:105DD8000C4A41460648103B0CF008FB2146404659
:105DE80004F0D0FCBD46BDE8F88F00BF932E040038
:105DF80048640100C22E0400F12E0400432F040061
:105E0800522F0400802F0400002F040030BFFFF73A
:105E1800FDBF00BF2DE9F04105460B4EDFF830808D
:105E2800324606EB0807CC1B204608490FF072FBE8
:105E3800A01942460021083C0FF092FBAC6707F11D
:105E48000800BDE8F08100BF000000008064010088
:105E58000800000010B5244C244925480CF0C5FC66
:105E6800A36A99013ED5224822490CF0BEFC1E20A7
:105E7800A36ADA0104D51E481F490CF0B6FC1F209E
:105E8800194CA36ADB0204D519481C490CF0ADFC77
:105E98000220A36A1C0304D5154819490CF0A5FC77
:105EA8002120114CA36A590304D5114815490CF057
:105EB8009CFC2220A36A9A0304D50D4812490CF0D1
:105EC80094FC2320084CA36ADB0304D508480F4937
:105ED8000CF08BFC2420A36A6FEA03436FEA134398
:105EE800A36210BD1D20C3E700ED00E0932F04005E
:105EF80048640100AB2F0400BE2F0400D82F040013
:105F08000230040020300400453004005F300400F3
:105F180070B506460D46334C334934480CF065FCE1
