:020000040000FA
:10000000F8040020013500003D5B00000F5C00009B
:10001000315C0000535C0000975C0000755C0000E0
:100020000000000000000000000000009D2800000B
:10003000435B000000000000495B00004F5B0000D4
:100040000000000000000000000000000532000079
:1000500000000000555B00000000000000000000F0
:100060005B5B0000615B0000675B00006D5B000094
:1000700000000000735B0000795B00007F5B000004
:10008000855B00008B5B00000000000000000000AA
:10009000915B0000975B0000000000000000000082
:1000A0009D5B00000000000000000000A35B00005A
:1000B000A95B0000AF5B0000B55B0000BB5B00000C
:1000C000C15B0000C75B0000CD5B0000D35B00009C
:1000D000D95B000000000000DF5B000000000000B2
:1000E000E55B000000000000EB5B0000000000008A
:1000F000F15B0000000000000000000000000000B4
:1001000000000000F75B000000000000000000009D
:1001100000000000000000000000000000000000DF
:1001200000000000FD5B0000000000000000000077
:1001300000000000000000000000000000000000BF
:10014000035C000001015F5F030100001F0100006C
:10015000C5040000000000000000000001000000D5
:10016000010000000000000000000000000000008E
:1001700000000000011F000000000000000000005F
:10018000700000001462000080000000000F0000FA
:10019000010000006102000001015F5F0401000036
:1001A0001F01000025060000000000000000000004
:1001B000000000000100000000000000000000003E
:1001C0000000000000000000011F0000000000000F
:1001D000000000001F620000400000000507000052
:1001E000010000002D05000000015F5F020000001B
:1001F000FE0B000095290000000500000000000033
:1002000000000000000000000000000000000000EE
:100210000100FFC3000000C400FE000060090020D0
:0402200000000000DA
:1002400038B50025054C29462046D4F80022C4F8CC
:10025000045205F08CFDC4F8005238BD2005002082
:100260002DE9F04F04680546A3B0002C40F005814D
:100270002146202202A805F07AFD214620220AA864
:1002800005F075FD2146042412AF4022384605F0E2
:100290006EFD05F1200353F8041D2246013C09B10F
:1002A000144601E0002CF6D1042605F1300353F882
:1002B000041D3246013E09B1164601E0002EF6D17A
:1002C0002CB96FF08304204623B0BDE8F08F4023A3
:1002D0003A460021686805F085FD4028F1D1CDE956
:1002E00002700127DFF898910DF1080805F1100A56
:1002F000BC422DD10AAF3C460021614A05F11C00E9
:10030000D2F8003200EB860840453ED109B1C2F870
:1003100000320023CDE90033039BA968402BC2F8CB
:100320000412029A40F09D80138D180A032858D0B9
:1003300001287FD01268831ECDE90021092B00F22D
:100340008A80DFE803F03F4E53595F656B717C8212
:100350005AF8043F1A1D20D8D9F80022D81C20F0E2
:100360000300C2F50071884217D8104402EB090B54
:100370003946C9F800025A46686805F033FD01376E
:10038000C8F80C0048F808BFB2E750F804EF1EF1B7
:10039000040F07D909B1C2F80032FFF751FF6FF01F
:1003A0008C0490E70EF1030C2CF0030CC3F50079DC
:1003B000CC4504F10804EDD8D11844E9021E634489
:1003C0000121A1E76A460AA902A800F09EF80446A6
:1003D0004FF00008464507F1080745D1FFF730FF09
:1003E00071E70AA902A800F07EF8F0E76A460AA9B8
:1003F00002A800F07BF8EAE76A460AA902A800F022
:100400006FF8E4E76A460AA902A800F072F8DEE78E
:100410006A460AA902A800F06FF8D8E76A460AA956
:1004200002A800F06CF8D2E76A460AA902A800F018
:1004300069F8CCE70AA902A800F06AF8C7E76A469B
:100440000AA902A800F06CF8C1E76A460AA902A846
:1004500000F069F8BBE70B4800F0D0FA6FF08504B4
:10046000B6E76FF08004B3E7414657E902236868B6
:1004700005F0C4FC08F10108ACE76FF0850422E741
:10048000200500202806000008B528220021024887
:1004900005F06DFC002008BD2807002008B51422D7
:1004A0000249034805F03EFC014808BD480600002B
:1004B0005007002008B5024803F08AFB002008BD61
:1004C0001905000008B5FFF7DFFF40B9FFF7E6FFA9
:1004D000FFF7F0FF18B9BDE8084003F0C9BB08BD3D
:1004E0006FF0850070476FF0850070476FF08500F2
:1004F00070476FF0850070476FF0850070476FF0B0
:10050000850070476FF0850070476FF08500704779
:10051000D1E9000103F070BB0FB4002004B07047B4
:100520006FF0850070476FF0850070472DE9F0414E
:1005300003680546B3F57D7FA6B008D040F2F532DA
:10054000934208D06FF0850026B0BDE8F08101F03D
:100550001FF90020F8E7002404260DF118084022B6
:100560002146404616AFCDE90244CDE9044405F0EA
:10057000FEFB40222146384605F0F9FB019405F1C7
:10058000200353F8041D3246013E59B13346164646
:10059000042405F1300252F8040D2146013C30B12B
:1005A0000C4606E0002EECD14FF0FF33F0E7002CB4
:1005B000F1D12343012B02D96FF08000C4E704235B
:1005C000002168680DEB030205F00CFC0428F3D150
:1005D000022E22D16E69402E21D833464246012197
:1005E000686805F0FFFB8642E6D1CDE9028602A9E4
:1005F0002CB12B6A402BDFD8CDE9047304AC224622
:10060000019801F024FD06462CB1DDE90423002108
:10061000686805F0F3FB304696E70021E8E76FF0E5
:10062000890091E7002070470A5B43727970746F0C
:100630005D20556E737570706F727465642072659D
:100640007175657374210A0054462D5053412D4332
:10065000727970746F20312E312E3000000000004E
:10066000407C00008007002054000000407C000017
:100670002005002000000000407C00000005002054
:1006800000000000D0080020CE030000200500205C
:1006900098000000000500200800000008B5EFF3F6
:1006A0001081012903D001F0F9F800B172B6074BAF
:1006B0001A6ABFF34F8F531C5A425A41012903D083
:1006C00001F0ECF800B162B6104608BD0080FF00F2
:1006D00008B5EFF31081012903D001F0DFF800B174
:1006E00072B6074BDA69BFF34F8F012902F001029E
:1006F00003D001F0D3F800B162B6104608BD00BFC8
:100700000080FF00714A10B5D2F8D03043F00203E8
:10071000C2F8D03001F0C2F830B14FF050230022BF
:10072000C3F81421C3F8182101F0CBF828B1012235
:10073000674BC3F8382AC3F878254FF47F02D2F804
:100740003031BFF34F8FD2F83421BFF34F8FBFF357
:100750004F8FC3F30B03092B05D1012A1EBF0122C2
:100760005B4BC3F8782501F0ACF818B10E22594B59
:10077000C3F8E42E01F092F830B10022544BC3F8D4
:100780000C270122C3F810270022D30003F57F03B2
:10079000D3F80013BFF34F8F013108D0D3F8001303
:1007A0000132D3F80433B2F5807F0B60EDD1EFF363
:1007B0001084FFF78DFF00284DD0BFF34F8F464BBD
:1007C000D3F80024012AFBD1C3F80425D3F8002470
:1007D000012AFBD1012C03D001F060F800B172B600
:1007E000FFF776FF58B13D4AD36923F00103D36187
:1007F000BFF34F8F384AD2F80034012BFBD1FFF7FB
:100800004DFF68B1354A136A23F0FF0343F020031C
:100810001362BFF34F8F304AD2F80034012BFBD163
:10082000012C03D001F03AF800B162B600222A4B45
:10083000C3F80425D3F80024012AFBD1BFF34F8F5E
:100840002249274BCA6802F4E0621343CB60BFF32E
:100850004F8F00BFFDE7FFF721FF0028ADD11B4AF6
:10086000D2F88C3043F44063C2F88C304FF47F03ED
:10087000D3F83021BFF34F8FD3F83431BFF34F8F0C
:10088000BFF34F8FC2F30B02092A13D1013B012B97
:1008900010D91248134903680F4A8B420CBF5A23E0
:1008A0000023C2F8103EC36A8B420CBF5A230023B8
:1008B000C2F8003E054AD2F8883043F47003C2F80B
:1008C0008830BFF34F8FBFF36F8F10BD00ED00E096
:1008D0000040005000A00350009003500080FF0033
:1008E0000400FA05FA50FA507C22014905F01ABAC0
:1008F000D40F002038B51D46344B354C5B68C3F32C
:1009000008032360EFF3038363655306C4E9012002
:10091000E16038D502F00C020C2A08BF08460146F7
:10092000206120222B4805F0FDF925B1202229461F
:10093000294805F0F7F9254B9A6AA265D96AE1655D
:10094000986B206602F400406066586BA06602F067
:100950008000E0669A62D962D3F8E4201F482267DB
:10096000D3F8E810616702F04001A167C3F8E42002
:1009700000F044F82168CB1E042B1DD8DFE803F0FB
:100980000F1416181A00EFF39483990704D5130770
:1009900002D5EFF38980C2E7EFF38880BFE7104804
:1009A000BDE8384000F02AB80E48F9E70E48F7E7EE
:1009B0000E48F5E70E48F3E70F2992BF0D480E48A1
:1009C0001039BDE8384000F019B800BF00ED00E074
:1009D000D40F0020E80F002008100020483200004B
:1009E0005732000063320000753200008032000090
:1009F0008D3200009B320000B73200000FB41FB5EB
:100A0000012106AB53F8042B054800910021039304
:100A100002F0FEFF05B05DF804EB04B0704700BFC4
:100A2000ED1800000A4B37B51B786BB1094C6369B0
:100A3000984748B9E56AA847C307FCD4236A0193DD
:100A400003B0BDE830401847002003B030BD00BF00
:100A500004180020F433000010B50B4C0020A368EC
:100A6000984780B902202369984760B94FF4E13173
:100A70000120A46AA04730B901211520A04710B970
:100A80000122024B1A7010BDF4330000041800203C
:100A9000044B82B0186883B26FF30F00184302B0A2
:100AA000704700BF3C340000014BD86D704700BF59
:100AB00084070020014B186E704700BF8407002098
:100AC00008B5024800F0E2FB002008BD84070020C2
:100AD000C3B2012B10B509D0A3F11502012A00F20F
:100AE000B080002900F09880002010BD4DF6C02392
:100AF000994270D028D8B1F5615F6FD011D8B1F5A7
:100B0000965F6DD008D8B1F5966F6BD0B1F5166FC2
:100B10006BD06FF00700E8E7B1F5165FF9D1524BE3
:100B200033E047F61223994262D007D8B1F5964FC9
:100B300061D0B1F5E14FECD14C4B26E0B1F5164F49
:100B4000E7D14FF41D0320E0494B994255D011D80D
:100B5000B1F5E13F54D007D8B1F5614F53D0B1F5AD
:100B6000963FD6D1434B10E0B1F5613FD1D14FF064
:100B70006C730AE0B1F5612F48D03F4B994248D0E1
:100B8000B1F5E12FC5D14FF0E86310F4E06F5BD110
:100B900010F4404103D0B1F5804F58D1102110F42A
:100BA000405403D0B4F5805F54D10E2410F4403289
:100BB00003D0B2F5403F50D10122304880F8921066
:100BC00000F16401C0F88C3080F8902080F89140EA
:100BD00000F0F2FF88E74FF46503D6E7284BD4E72F
:100BE000284BD2E74FF49E23CFE74FF41D23CCE7E9
:100BF0004FF40003C9E7244BC7E74FF08063C4E715
:100C00004FF0EB73C1E74FF46B03BEE74FF0706337
:100C1000BBE74FF08053B8E7162B4FF0FF330BBF05
:100C2000164A1649104615480ABF02F1640141F8F8
:100C3000643F936600F0C0FF10F1100F10D0C01792
:100C400053E76FF0030050E76FF008004DE76FF0D7
:100C50000A004AE76FF0090047E76FF00B0044E72E
:100C60006FF0010041E700BF0050270000C0750091
:100C700090D0030000903A0140420F00840700200A
:100C800000F03A0000B0130000A04E0073B5064615
:100C90001B480C4600F0CCFF194D18B94FF0FF303F
:100CA00002B070BD22463146284601F08DF810F1A1
:100CB000100F02D16FF00100F2E70028EEDB0321F4
:100CC000284600F03FFB10F1100FF3D00028E5DBC1
:100CD00000230193284601A901F01FF910F1100F1C
:100CE000F8D07830DAD0019B9C42D7D80122044852
:100CF000114601F010F90028D0DB00202C66CFE768
:100D000084070020F0B51B4E054691B030460C46D6
:100D100000F08EFF18B94FF0FF3011B0F0BD05F0B4
:100D20006043B3F1005F20D10023224629463046BC
:100D300000F084FF10F1100F19D00028EBDBF465F0
:100D400011E0A71B402F28BF4027A9193A46684643
:100D500004F0E8FF39466846FFF7D4FF0028DCD1ED
:100D60004036B442EDD80020D7E70026F9E76FF00F
:100D70000100D2E78407002010B50A4C04F164009A
:100D8000D4E9151200F0CAFD01460022204600F009
:100D9000EBF90028AABF00206FF00100C4E917009A
:100DA00010BD00BF840700207FB500250C46C0F8A9
:100DB00008511646D0F80821D0F8002222F020026F
:100DC000C0F800220F4AC0F8082300F0F8FDA56023
:100DD000256104F14C03D3E8EF1F6FF31731C3E82B
:100DE000E21F002AF7D110222946684604F0BFFF0F
:100DF000042368468DF800300196D4E90013984723
:100E000004B070BD10020A00044B054A1B68B3FB16
:100E1000F2F35843034B43F00103184780070020C7
:100E200040420F004034000000F01F03400909D188
:100E3000074A02EB8303D3F80012064A0A40C3F8BC
:100E4000002270470022803352F82330FFDE00BFBB
:100E500000258450F0F8FCFF00F01F0340090BD17F
:100E6000084A02EB8302D2F80012074B0B4043F012
:100E70000303C2F8003270470022803352F8233057
:100E8000FFDE00BF00258450F0F8FCFF00F01F03D8
:100E900040090BD1084A02EB8302D2F80012074B3B
:100EA0000B4043F00203C2F8003270470022803347
:100EB00052F82330FFDE00BF00258450F0F8FCFF1D
:100EC000F8B505462B6D046803F48223B3F5805F03
:100ED000D4F8000205D009B100232B626FF0760030
:100EE000F8BDD4F80463C4F8086309B9830645D48F
:100EF000D4F8003223F02003C4F800324FF4A113D9
:100F000005F15007D7E8EF1F1943C7E8E01F002895
:100F1000F8D112B9AB68002B57D12D4BC4F8083368
:100F200001236360D4F84431002BFBD00023C4F8C4
:100F30004C31D4F84C21C4F81031D4F81021C4F845
:100F40004431D4F844212A6D12F4004219D12A62A6
:100F5000204600F034FD0023EB606B61D7E8EF3FE3
:100F60006FF31733C7E8E23F002AF7D126F42026B3
:100F700026F404760020C4F80463B1E74FF480330C
:100F8000BEE7C4F84C31D4F84C21EA69C4F83425E2
:100F90000522C4F83825C4F81031D4F810310123E3
:100FA000E362D4F81031002BFBD00022C4F81021EA
:100FB000D4F81031D4F84C310BB1D4F83C352B6255
:100FC000C4F84C21D4F84C31C2E701236360D1E767
:100FD00010020A002DE9F84391F8306005460C46EE
:100FE000A6B9036D43F0007303650868471C08D079
:100FF000430940F0AE800123584A83409360FFF7D5
:101000002BFF6068411C01D0FFF70EFF94F82C8085
:10101000E768B8F1010F15D1A6B92B6D7A1C43F022
:1010200000632B6502D03846FFF7FEFEA068431C24
:1010300008D0430940F08F800123484A83409360E1
:10104000FFF70AFF94F82F601EB92B6D43F08073F1
:101050002B6594F82D1094F82EC0A26A2B6848EAEC
:101060000101A068D4E9009EC3F824254CEA0102DE
:10107000C3F86C2556B9B8F1010FC3F80C95C3F845
:1010800014E504BFC3F80805C3F810754FF47F02D8
:10109000D2F83031BFF34F8FD2F83421BFF34F8FE6
:1010A000BFF34F8FC3F30B03092B1BD12B68D3F86E
:1010B000682503F26457012A08BFDA60D3F8642573
:1010C000012A0FD1082149F64046C3F800155A609D
:1010D0003B689BBB2B68D3F88024C3F88024002294
:1010E000C3F8002500212B6894F83220C3F81011B2
:1010F000D3F81001C3F82011D3F82001C3F824114C
:10110000D3F82401C3F84411D3F84401C3F85811AB
:10111000D3F8581143F307335201002BD2B213DB3B
:101120000F49C81880F800230122580903F01F0353
:1011300002FA03F341F82030BDE8F8830120FFF7FD
:1011400063FE013EC4D1C5E7064903F00F03CA544C
:10115000F2E7B660FFDE00239B60FBE700258450CA
:1011600000E100E014ED00E02DE9F74304460E46EF
:1011700094F84C1091460430002970D1502204F0AC
:10118000F6FD336963607369E363B36903B1013BDF
:101190002364336A042B81BFF369E3610023236274
:1011A00096F83130B9F1000F2FD083F001084FEAE3
:1011B00008281BB1236D43F0010323650123256833
:1011C00084F84C30D5F84C21C4F80890FAB931466F
:1011D0002046FFF7FFFE0822002325688DF8073020
:1011E000C5F800250DF10702C5F84425C5F84835B6
:1011F00001230A26AB60EB60D5F8583193BB012080
:10120000FFF702FE013EF7D122E0C846D1E70822EF
:101210006427C5F800256B60D5F84431EBB9D5F8E3
:101220002431D3B90A20FFF7EFFD013FF4D10023A9
:10123000C5F84C31D5F84C21C5F81031D5F810213E
:10124000C5F84431D5F84421C5F80035002FBED18A
:101250006FF08B0003B0BDE8F0830127E7E76FF084
:101260007700F7E70020C5F820018145D5F8203147
:10127000054B08BF0346226848EA0303C5F800058A
:10128000C2F80433E6E700BF10020A0003682B4AE5
:101290002DE9F041C3F8082343F30733002B04463C
:1012A0000DDB01215A0903F01F03994002F12003CD
:1012B000234A42F82310BFF34F8FBFF36F8F0122F1
:1012C00020461146FFF7FCFD0121204600F038FDC5
:1012D000256D2368E901D3F80C05D3F81485D3F8FC
:1012E0000865D3F8107509D54FF0FF32C3F80C2507
:1012F000C3F81425C3F80825C3F81025AA0115D58D
:10130000431C01D0FFF7C2FDB8F1FF3F02D04046B9
:10131000FFF7BCFD290109D57A1C02D03846FFF73A
:10132000B5FD731C02D03046FFF7B0FD002384F8F2
:101330004C302365A360BDE8F08100BF10034A0074
:1013400000E100E0F8B50646044656F8505B071D7C
:10135000D6E8EF3F43F48052C6E8E02F0028F7D1EB
:10136000DA0466D44B0702D5E369002B64D0344B12
:10137000C5F808330823C5F800350023C5F8103137
:10138000D5F81021C5F84C31D5F84C21C5F84431B9
:101390000A03D5F844318B0303F4804302F400526E
:1013A0004903134301F400410B43D6E8EF2F1A43DE
:1013B000C6E8E12F0029F8D1E368B3B9A3686BB997
:1013C000236DD80433D5D6E8EF3F6FF31733C6E863
:1013D000E23F002AF7D16FF00B00F8BD0321384639
:1013E00000F0C8FAE368002BEAD0D5F804335907B7
:1013F00010D5A36873B1236D1A030BD5D6E8EF3F60
:1014000023F40023C6E8E23F002AF7D1062138463C
:1014100000F0B0FA236DDB0409D5D5F84C310BB9D7
:1014200001232B60A36813B1054BC5F804330020DA
:10143000D3E76FF00F00D0E74FF0FF30CDE700BFEC
:1014400010020A0072B6024A136801331360704733
:1014500050100020034A1368013B136003B962B6C1
:10146000704700BF50100020003A18BF0122003919
:1014700018BF012103688900074841EA4201186347
:1014800059605A6842F001025A60BFF34F8FBFF3B0
:101490006F8F0020704700BF04AAFF000722024B95
:1014A000C3F80423704700BF00300050084BD3F846
:1014B0000801D3F80021003818BF012080000AB1CC
:1014C00040F00100D3F804310BB140F00200704746
:1014D000003000500022074BC3F80021D3F8001160
:1014E000C3F80421D3F80411C3F80821D3F8083154
:1014F000704700BF0030005000231720094A03F551
:10150000C0710133202B42F82100F8D100231720AD
:10151000044A03F5E0710133202B42F82100F8D191
:10152000704700BF0030005010B59DF80840C00B58
:1015300043EA0423064CC90B43EA0213884200D94C
:1015400010BDC2B202F5C07244F822300130F5E796
:101550000030005010B59DF8084000F1604043EAAB
:10156000042301F16041074C400B490B43EA02138D
:10157000884200D910BDC2B202F5E07244F82230B0
:101580000130F5E700300050C0F30E03C3F500430F
:10159000B3FA83F3C3F11B03064AC0F3C730DBB2CF
:1015A00040F4807043F48073C2F80005C2F804353B
:1015B000704700BF00300050014B03EB40307047D4
:1015C000FF1FF81F054BC0F30730090241F030013F
:1015D00000F5007043F82010704700BF0030005045
:1015E000044BC0F30730090200F5007043F82010E7
:1015F000704700BF0030005008B5FFF757FF034B9E
:1016000018600348BDE80840FFF7F8B988160020C5
:10161000AD3300000C22014904F084BB8816002081
:1016200010B501F0D4FD044688B902F085FB0446EC
:1016300078B9094A0948D36823F008031B041B0C36
:1016400043F0BF6343F40033D360FFF7D7F920467C
:1016500010BD45F22354FAE700ED00E0C33300006B
:10166000024B1860024B002019607047981600204A
:10167000941600201FB5374C426923685A6282696C
:101680009A62C269DA62026A1A63426A5A63826AB9
:101690009A63C26ADA63026B1A64426B5A60826BA5
:1016A0009A60C26BDA60026C1A61426C5A61826C99
:1016B0009A61C26CDA61026D1A62826D5A65C26DFE
:1016C0009A65026FDA65026E1A66826E5A66426F1A
:1016D0009A66EFF388825A64EFF389829A644268CB
:1016E000DA64EFF394821A65026801A81A67FFF7BB
:1016F00091FF2368019ADA6601221A70164B1C6862
:10170000640864002046214622462346B7EE000ABC
:10171000F7EE000AB7EE001AF7EE001AB7EE002A4D
:10172000F7EE002AB7EE003AF7EE003AB7EE004ABD
:10173000F7EE004AB7EE005AF7EE005AB7EE006A2D
:10174000F7EE006AB7EE007AF7EE007A04F063FC79
:1017500004B010BD981600209416002000B5A1B06A
:1017600001A8FFF7C1F8029B63B15B060AD4019B95
:1017700023F00203052B05D1044B1B6813B101A80C
:10178000FFF778FF21B05DF804FB00BF941600203E
:10179000BFF34F8F0549064BCA6802F4E06213435A
:1017A000CB60BFF34F8F00BFFDE700BF00ED00E04F
:1017B0000400FA05F8B543680C2B01D00220F8BDEF
:1017C0004B68042BFAD14FF0FF3304680D68216891
:1017D0002B600029F2D0A268002AEFD00623012056
:1017E00001F040FC0028E9D16168264B994206D9F6
:1017F000A2682D338818984204D8234B11E0234B5C
:101800009942DBD9A26822488B1883421CD900F583
:10181000FF404F308142D1D900F2F9208342CDD828
:101820001C4B03F17F4303F50043B3F5805F206851
:1018300023D241EA02039B0722D10746091ACE1997
:1018400022B900202860BAE7134BEAE7EFF31082D1
:1018500000F03BFC10B1012A00D072B6366800F0EF
:1018600034FC20B1BFF34F8F012A00D062B6A268CA
:1018700047F8046B043AA260E1E704F053FAE0E7AA
:1018800003209CE7FF01FF000002FF002F01FF0083
:101890003801FF000881FF003001FF004FF47F0393
:1018A000D3F83001BFF34F8FD3F83431BFF34F8FEC
:1018B000BFF34F8FC0F30B00A0F10903584258410A
:1018C00070474FF47F02D2F83031BFF34F8FD2F818
:1018D0003401BFF34F8FBFF34F8FC3F30B03092BBB
:1018E00008BF01280CBF01200020704708461146A0
:1018F000FFF798B8012070476FF003007047002091
:1019000070476FF00300704700207047022814BF33
:101910006FF0030000207047FFF7F4B970B540F294
:10192000FF1501EB8202914200D170BD51F8044BCA
:10193000C4F30803240EAB4208BF4FF0FF33032C5F
:10194000F1D8DFE804F0020406080360EBE7436027
:10195000E9E78360E7E7C360E5E70346D0F85801AD
:1019600030B931B9D3F82001003818BF01207047D1
:101970000120704730B504460D4685B01022002185
:10198000684604F0F4F9D4E9001368468DF8005075
:10199000984705B030BD7FB504460E461546002178
:1019A0001022684604F0E3F9012368468DF8003000
:1019B000CDE90165D4E90013984704B070BD10B5B6
:1019C0000446FFF73FFDD4F8583133B1D4F804335F
:1019D00013F4800308BFC4F80035BDE81040FFF7DA
:1019E00039BDD0F8583133B1CB6CC3F30032DB04CE
:1019F00058BFC0F8002570472DE9F74F86680446A8
:101A00000D463EB113F0020604D0C36B002B00F06C
:101A100082800126276D17F010077CD14FF0010955
:101A2000BA46AB180093009B9D4276D005F0604B00
:101A3000E26BD4F8008082B9BBF1005F7AD10192E9
:101A4000FFF700FD216D404601F00101FFF785FF22
:101A5000019A20B9FFF7FEFCEAE70122EFE7A16C4B
:101A6000AB460029BCBFD8F84C15A1643AB1D4E903
:101A70000F1228788854D4E90F1201EB020BBBF146
:101A8000000F03D0C8F844B5C8F84895C8F820A19D
:101A9000D8F82021C8F858A1D8F85821C8F850A182
:101AA000D8F850210822C8F800251EB14FF4800252
:101AB000C8F80423C8F80890FFF7CCFCEEB9216DF4
:101AC00001F001014046FFF748FF0346D8F84C05F6
:101AD000D8F844252BBB9345F4D009B9C8F80C902D
:101AE0004FF0000BFFF7AEFC4046211DFFF779FFDA
:101AF000FFF7B0FCBBF1000F0DD1A368C3B9236D94
:101B00001B0715D55034D4E8EF3F23F00803C4E891
:101B1000E23F002AF7D14FF0FF37384603B0BDE867
:101B2000F08F9345D9D10028D7D14FF0FF3BD9E7AB
:101B3000013578E76FF01507EFE770B5CE6C0D460D
:101B400006F001010446FFF708FF38B94FF480039F
:101B500046F00406EE64C4F8043370BDD5E90A36D5
:101B60005AB1296CEA6B761A964228BF1646194478
:101B70003246A86B04F0D6F8AB6B4FF0FF326A64C4
:101B80001BB1C4F84435C4F848650023C4F82031BB
:101B9000D4F82021C4F85831D4F85821C4F8503171
:101BA000D4F850310823C4F800354FF48003C4F84A
:101BB00004330123A360D0E737B590F84C300446D6
:101BC0003BB3036B4BBB0268C2F8003583680BB1B3
:101BD0000B6943602046FFF7FDF9082200232468C3
:101BE0008DF80730C4F800250DF10702C4F844252C
:101BF000C4F8483501230A25A360E360D4F85831BE
:101C000073B90120FFF700F9013DF7D16FF08B00A8
:101C100001E06FF0760003B030BD6FF00F00FAE71F
:101C20000020C4F82001D4F82031C4F80005F2E700
:101C300090F84C00003818BF012070472DE9F0479C
:101C400004460F461E469046002A64D085685DB95A
:101C500053B9066B002E61D10263FFF7CDFE054636
:101C600026632846BDE8F087B10707D033464246D1
:101C700039462046BDE8F047FFF7BEBE07F0604397
:101C8000B3F1005F19D0E36B002B4AD0720748D440
:101C90000125D4F80090FFF7D5FB236BBBB9C4E94D
:101CA0000B781DB1236D43F0020323652A46484695
:101CB000211DFFF742FF002524E0256D15F00105E9
:101CC000E7D016F00405E4D04FF0FF35C9E7A36B69
:101CD000DBB9730719D5E36A03F06043B3F1005F22
:101CE00016D1236DC4E90D7843F0100323650A244F
:101CF000D9F85031C3B90120FFF786F8013CF7D17C
:101D00006FF08B05FFF7A6FBABE76FF00F05F9E768
:101D10004FF0FF35F6E76FF00605A2E76FF00F050D
:101D20009FE76FF00C059CE70023C9F85031D9F804
:101D30005031002FBFD0C9F84475C9F84885BAE7BB
:101D4000F8B50468036BD4F804730546C4F8087347
:101D500023B96FF07600C4F80473F8BD00F15003A6
:101D6000D3E8EF0F40F00800C3E8E20F002AF7D1F4
:101D70000123E360F9B12E6D1E4031462046FFF786
:101D8000ECFD0028F9D0FFF75DFBC6B9D4F820318F
:101D90004BB10123E360D4F85831002BFBD020462F
:101DA000291DFFF71EFEFFF755FB0023C4F8203165
:101DB000D4F820212B630020C4F80473CDE7D4F8B5
:101DC0005831002BEBD1EEE72DE9F0470568036DA4
:101DD000D5F8049313F4802804460F461646C5F838
:101DE000089340F08F8001F06042B2F1005F40F054
:101DF0008C80C26852B18268002A72D1D5F8102155
:101E0000002A6ED0C5F81081D5F81031226AC4E9D5
:101E10000376002A44D09642E16930D80023324646
:101E2000C4E90333384603F07DFF226AE069921B60
:101E30002262811903F03DFFA368DBB1236D13F427
:101E4000005A09D004F15003D3E8EF1F41F4802178
:101E5000C3E8E21F002AF7D104343246394620464F
:101E6000FFF799FDBAF1000F04D000222146284661
:101E7000FEF79AFF4046C5F80493BDE8F087384660
:101E800003F050FF236AA3620023236204F150038E
:101E9000D3E8EF1F41F40021C3E8E21F002AF7D185
:101EA000A16A2369E2685B1A0A44C5F83425C5F8BB
:101EB0003835236DDA04DDD55034D4E8EF3F23F410
:101EC0008023C4E8E23F002AF7D101232B60D5F834
:101ED0004431002BCED00023C5F84431D5F844312D
:101EE000C8E76269A2B95B04C4E90576C5F8347530
:101EF000C5F83865BED5D5F8003243F02003C5F8E3
:101F00000032B7E76FF07608B4E76FF00C08B1E77E
:101F10006FF00F08AEE7FEF7D3BF8368A3B903687D
:101F2000D3F80025082A06D011B1D3F83C350B6050
:101F30006FF077007047D3F8102142B111B1D3F898
:101F40003C350B60002070474FF0FF3070476FF05A
:101F50000F0070474B6830B513F01F052DD1026894
:101F60000C681068C0F30720844226D25068556080
:101F700094600C7C23F01F0304F001041C438B7C51
:101F8000DB0003F018031C434B7C5B0003F00603EB
:101F90002343D3608B68013B23F01F04CB685B00B5
:101FA00003F00E03234343F0010313615060BFF3BA
:101FB0004F8FBFF36F8F284630BD0120FCE70368C9
:101FC00000205A68C9B258609960D86018615A6098
:101FD000704770B50546002403681E68C6F30726DF
:101FE000B44201D1002070BD21462846FFF7E7FF2B
:101FF0000134F5E7C003704747F6FF7303EBC030C9
:102000007047002070471F2070474FF40040704712
:1020100000F57F40C03040037047402070475F208C
:1020200070474FF4005070470020704708B5FFF725
:1020300095FB72B620BFFDE7034610B10020187073
:1020400070474AF2C530704700207047704703461A
:10205000012B084670B5114607D0062B09D0002B7E
:1020600031D1BDE87040FFF7A5BBBDE8704000F07E
:102070003FB84368082B01D0022070BD5468042C7F
:10208000FAD14FF0FF3305681668296833600029DC
:10209000F2D06B68002BEFD026237422012000F0D1
:1020A000E1FF0028E8D1224623230120696800F0DF
:1020B000D9FF04460028DFD1D5E90001FFF7D0FAA7
:1020C00030602046D9E70320D7E74FF47F03D3F8E9
:1020D0003001BFF34F8FD3F83431BFF34F8FBFF3CD
:1020E0004F8FC0F30B00A0F10903584258417047CD
:1020F00043680C2B01D0022070474B68042BFAD1A7
:102100000B6801210268196011680131F3D10221C5
:10211000906819600028EED11860704707B51C4B15
:1021200083F30A881B4801F03DF808B100F05CFE1B
:10213000FFF776FA0028F9D11748FEF75FFC174839
:10214000FEF75CFCFFF770FF0028EFD10DF10700F0
:10215000FFF772FF0028E9D19DF807301BB1FFF7A8
:1021600073FF0028E2D1FFF771FF00F0E3FB0C489A
:10217000FEF744FC0B48FEF741FC00F0D7FD00F0F1
:10218000C5FB00F0B3F8002003B05DF804FB00BF0E
:102190000000002054100020E4320000073300004B
:1021A000373300005833000030B5094C02466168EF
:1021B0000023084640B105686D68954205D11BB102
:1021C000826860609A60816030BD03468068F1E794
:1021D000D810002010B542B10B689B6813F4807FC3
:1021E0000CBF6FF0FC00002010BD0B4B1B680BB93F
:1021F00000F0FAFD1B68996938338A4203D053F81E
:10220000044FA04205D191420CBF6FF0FC000020AA
:10221000EAE70132F1E700BFE010002070B50446A4
:102220000E461546002130220C3003F0A0FD064B6F
:1022300020461B68A6606360656100F0B2FE002363
:102240002061236070BD00BFE0100020034B1868C0
:1022500010B1006800B14068704700BFE010002076
:1022600008B5064B1B680BB900F0BEFD1B689868EB
:1022700000F44060003818BF012008BDE0100020C5
:102280002DE9F041074690460C4639B34B0025D561
:10229000154B01F01F0253F82250FDB12B685E6808
:1022A000FFF7DEFF294602463046FFF793FF90B95D
:1022B000C4F30721284600F09AFD044670B900F0E7
:1022C0007DFE064668B142462946FFF7A7FF3E60FD
:1022D0002046BDE8F0816FF08104F9E76FF08004DB
:1022E000F6E76FF08204F3E75810002038B500F0ED
:1022F00064FE0023114A5360114A536000F0C2FA91
:102300000E4800F021F80446A0B10D4980230D4A83
:1023100000F09AF80546204600F09DFD2068211D3A
:1023200000F068FB08B100F05FFD2946204600F090
:1023300055FAE5E7BDE8384000F066BAE410002041
:10234000D8100020581000200146F8B508B900F058
:102350004BFDDFF8F0C0DCF8003013F1350F66D824
:10236000344A156803F13402AA4260D2DA699869E6
:1023700002EB82020F300244186A00EB4000024474
:10238000586A02EBC00292009A18E0D29542DED35E
:102390001868294D060C3604AE42D8D180B2B0F58B
:1023A000817FD4D258680028D1DBD3E90A56B542E0
:1023B000CDDC986810F4406F03D03542C7D548682B
:1023C00090B91E4E306800F1200535601C4E36680D
:1023D000B542BCD8A842BAD84C680360CCF80020FB
:1023E0007CB9C4614860F8BD0768BC6814F4406FEC
:1023F00005D0BC6AA64202DBFF6ABD42A7DDC06908
:10240000DEE71E8E002223461D682D8EB54207D9B9
:10241000002AE6D0D369C361D061E4E72B46F3E735
:10242000DD691A46002DF9D1C561D861DBE70020CE
:10243000D9E700BF5034000000005F5F2008002093
:102440004C340000240800202DE9F84F9B4600B1D1
:1024500009B900F0C9FC0468204EA569E76904F1D8
:102460003C0C0CEB850C3568A7B10C2404FB07541D
:1024700034601B4E3668B442EBD8A542E9D800263A
:102480002C464FF01408B146B74200D025B90020C1
:10249000BDE8F88F3D46F2E708FB06CEC4E900E050
:1024A000DEF808E0C4F808901EF4007F0FD0002A80
:1024B000CFD0BBF1800FCCD11EF0E00F5FFA8EFAC7
:1024C000C7D152F82A30002BC3D142F82A404B68BA
:1024D0000136A3604C600C34D6E700BF1C08002016
:1024E000483400002DE9F04F93B000935F4B07464E
:1024F000D3F800B00BB2002B0D461646C1F30268AC
:10250000C1F3024A04DA6FF0800013B0BDE8F08F27
:102510008B42C36001D10020F7E708EB0A03042BCC
:10252000F1D8CC0F64014FEAC80931464A46DBF8BE
:10253000040044F0020300F095FD01460028E2D1BA
:10254000202202A803F013FC4A46314602A84FEAB3
:10255000CA0603F0E7FB32460099DBF8040044F0BA
:10256000060300F07FFD81460028CCD101462022E1
:102570000AA803F0FCFB324600990AA802AE03F059
:10258000D1FB334609F10109C8452AD815F0006F7F
:1025900018BF20241022002107F11C0003F0E7FBE4
:1025A00007F118091022002107F12C0003F0DFFBCE
:1025B00009EB880844F00203C1452AD1202C3FD101
:1025C000002D02DBC5F3C0456C0107F128050AAEFA
:1025D00005EB8A0A44F00604554533D1009BFB679E
:1025E00099E7D3E900E21EEB020201928BD21A4670
:1025F0004846404501D10833C4E7D2E902C16144ED
:102600008E4503D201998C45FFF47DAF013008322D
:10261000EFE77268DBF8040056F8081B019300F03E
:1026200021FD00287FF46FAF56F8042C019B49F878
:10263000042F56F8082CC9F83000C9F82020BBE751
:102640000024C2E77268234656F8081BDBF8040032
:1026500000F008FD00287FF456AF56F8043C45F81A
:10266000043F56F8083C28642B63B5E7E0100020CF
:102670002DE9F0411F46174B0C461646D3F8008053
:1026800000F0C7FB08B900F0AFFBC368002BFADB12
:10269000032CF8D800EB8404E569E36CED1AF2D35F
:1026A000ADB106233A463146D8F8040000F0DAFC12
:1026B0000028E8D1BD4228BF3D46E36CE16B2A46C5
:1026C0001944304603F02EFBE36C2B44E3642846A8
:1026D000BDE8F081E0100020F8B51D46154B0C4612
:1026E00017461E6800F095FB08B900F07DFBC36833
:1026F000002BFADB032CF8D800EB8404E26EE36ACB
:102700009A42F2D89B1AAB42EFD3706802232A4652
:10271000394600F0A7FC06460028E6D1E36EE06DDE
:102720002A463946184403F0FDFAE36E30462B443E
:10273000E366F8BDE01000202DE9F04105464FF0BA
:1027400001080E4E0E4B37685C681CB9284637608E
:10275000BDE8F0812268936813F400700CD16369BE
:10276000012B09D0D368346023B19847002801DADF
:1027700000F03AFBC4F81480E469E6E7E0100020BA
:10278000E410002070B50446D0B18368C3B11A6864
:10279000B2B15D68A5B10C4BA86168691D6020B934
:1027A0002B68DB684BB901236B61A36804F10C0053
:1027B0001B68BDE870401B69184798470028F2DA8B
:1027C0006FF0800070BD00BFE01000204268024B37
:1027D00008461A60704700BFE0100020002203681E
:1027E00010B5C0E905229A68044612F4406F07D07C
:1027F000120503D5D3E90A0100F034F8014B1C603F
:1028000010BD00BFE010002038B5124B1B681C68DB
:10281000A36813F4406F01D100F0E6FA00F0AAF9C2
:10282000626B23690C49134423F00703A3F10805E5
:1028300043E9021185F30988073222F0070282F387
:102840000B88BFF36F8F054BE268054900F0F0FC81
:10285000002038BDE0100020A5EDF5FEF8040020B2
:1028600039270000014BC3E900017047EC1000203C
:10287000034BD3E900308342C8BF0020704700BF3C
:10288000EC10002008B500F069F9034B986000F0E7
:102890006BF980F3888808BD00ED02E0EFF3088053
:1028A0007146EFF30982EFF30B830CB406B400F02A
:1028B0005DFA8646009900F0080001F00801401A10
:1028C00002DC14DB04B070472DED108A1EF02003EB
:1028D0001CBF2DE9F00FBDF1080D0B4C2546264617
:1028E0002746A046A146A246A34630B4704704B08E
:1028F00030BC1EF020031CBF1DF1080DBDE8F00F19
:10290000BDEC108A04B07047A5EDF5FE084BDA68FF
:1029100082F07F4282F47F0242F48042DA60002239
:102920001A765A76DA76DA77602283F822207047B0
:1029300000ED00E0154B1649D3F8882042F47002F0
:10294000C3F88820D1F8882042F47002C1F88820AA
:10295000BFF34F8FBFF36F8FD3F88C2042F44062E8
:10296000C3F88C20D3F8342242F08042C3F83422DA
:10297000D3F8342242F03C42C3F834224FF0E02234
:10298000D36843F42003D360704700BF00ED00E03C
:1029900000ED02E0009A164B9A4227D101229043A3
:1029A000014641EC100B41EC110B41EC120B41ECD8
:1029B000130B41EC140B41EC150B41EC160B41ECE5
:1029C000170BEFF3148222F0040282F31488BFF392
:1029D0006F8F024603460446054606460746804674
:1029E000814682468346844686460447FEE70000C9
:1029F000A5EDF5FE2DE9F041044618B943F6DA30AD
:102A0000BDE8F0810029F9D08368002503F4406314
:102A1000003B18BF0123134F43F00203DFF8488047
:102A20000B6000F13C06236AAB4201D80020E7E7C7
:102A30001421A369E26906EB830301FB02330C2234
:102A40006A4399188968090709D59B58BB4201D088
:102A50004345D3D1186810B10121FEF7B3FD01350C
:102A6000E1E700BF340800202C08002070B5324C8C
:102A700086B03248FFF7ADFA236801255A1C01934E
:102A80002F4B2260DA681B694FF4407603930023D2
:102A90002A4801A902920495ADF814608DF8163009
:102AA000FFF758FA18B143F6DA3006B070BD236864
:102AB0008DF816005A1C0193224B20480293224B9A
:102AC00001A9CDE903352260ADF81460FFF742FAA1
:102AD0000028E8D123688DF816005A1C01931B4B7F
:102AE000164802931A4B01A9CDE903352260ADF8CF
:102AF0001460FFF72FFA0028D5D123688DF816004F
:102B00005A1C0193134B0D480293134B01A90393D5
:102B10000223049340F201132260ADF81430FFF752
:102B200019FA04460028BED12A4629460348FEF772
:102B30009BFC2046B9E700BFF410002028080020C5
:102B400054340000003500006062000060060000A0
:102B5000600600000005002020050020014B1868D9
:102B6000704700BF54340000014B1B681868704761
:102B700054340000014B1B685868704754340000FF
:102B800008B5FEF739FDFEF7A5FC094B5A68103A67
:102B9000D3B2120609D401215A0903F01F03994048
:102BA00002F16003034A42F8231000F01DF900BF50
:102BB00000ED00E000E100E00020034BD8765A6A07
:102BC00042F470225A62704700ED00E00349044B62
:102BD000CA68002092B21343CB60704700ED00E05A
:102BE0000800FA05064BD3F8D02022F00102C3F802
:102BF000D020D3F8D02042F00202C3F8D020704792
:102C000000ED00E037B50124FEF776FC164D2246B4
:102C1000052347F6FF7100200094FEF785FC22464D
:102C200007234FF0005011490094FEF793FCD5E9BB
:102C30000101072300220094FEF776FC07230022FF
:102C40000B490C480094FEF785FC2969E8680139B6
:102C5000FEF79AFCD5E90501062300220094FEF751
:102C600063FC002003B030BD54340000FF7F00201F
:102C7000FFFF03200080002038B50024124D002102
:102C800055F8040B0134FEF7ABFC1D2CF7D10020E6
:102C900001220E4BC3F88004C3F88424C3F8C00497
:102CA000C3F8C4244FF47F03D3F83021BFF34F8F10
:102CB000D3F83431BFF34F8FBFF34F8F40F201127F
:102CC000034BC3F8402538BD70340000003000507D
:102CD0000090035000224FF0FF300D4B02F1A00195
:102CE0000132102A43F82100F8D1D3F880220020C5
:102CF00022F00802C3F88022D3F88022D3F8802281
:102D000022F40072C3F88022D3F88032704700BFEB
:102D100000E100E008B5FEF7C1FB0822024BC3F852
:102D200080211A60002008BD00E100E00122014B73
:102D30001A607047F810002010B50446094B22892C
:102D4000186861680623406800F08CF928B9064BC2
:102D50001B68012B01D1FFF779FA6FF0860323601E
:102D600010BD00BFE0100020F810002038B501F0C1
:102D70000C030C2B14BF054615464A060C460ED50F
:102D80008B0658BF2835AB6913F8021CC4F3C00387
:102D900083F00103C1F38012DBB29A4201D000F04C
:102DA00023F811F0A00F16D141B103290FD00B4821
:102DB000FDF724FE6FF083032B6006E0FFF796FA21
:102DC00004460146064800F02DFA204638BD284644
:102DD000FFF7B2FFF9E70348EAE700BF62330000FC
:102DE000F80400208633000008B5FFF71FF90368D8
:102DF0009A68DB6812F4806F05D18B4234BF6FF0A4
:102E0000FA00002070478B4214BF6FF0FA000020D8
:102E1000704710B500F0C8F8044600F0D6F850B975
:102E2000FFF714FAA3685B681B685B68834218BFEE
:102E30000024204610BD0024FBE710B5044630B145
:102E4000FFF716FDB4EBD07F04D0FFF7CDFFFFF7FF
:102E5000FDF9F7E710BD70478230012808B504D8A6
:102E6000FFF7FEF908B9FFF7BFFF08BDF8B5054643
:102E70000E46FFF7CEFF044608B9FFF7B5FF80689E
:102E80000028FAD0E368991C46D05A1C23D1002EA2
:102E90003FD016F1820F4FF0020318D101252360B5
:102EA000EFF3108772B631462046FFF78FFC0646D7
:102EB00087F310882368022B1CBF0023236025B1F1
:102EC00000232046236000F082F83046F8BD16F15A
:102ED000830FE3D0D1E7002BCFDB002304F12802DE
:102EE00052F8041F19B1E16F156C19444D60083395
:102EF000202BF5D103689D6815F4007502D00223DC
:102F00000125236016F1810FCAD16369002BC7DB4D
:102F1000B3E72E460025F5E701250026C0E708B5F2
:102F2000FFF784F8F7B50D46164604461F46FFF72F
:102F300097F9FFF782FF2146024601A8FFF7A0F9A3
:102F400068B93B46324629460198FFF7CBFA40B1B3
:102F5000630002D5019800F03AF86FF0800003B0EA
:102F6000F0BD0198FFF70EFC0122019B1A60F6E705
:102F700040F20110704770B50546FFF771F906463B
:102F80002846FFF711F9044608B9002070BD014634
:102F900032462846FFF71EF90028F6D12368D86884
:102FA000F4E74FF480507047B0F5805F03D1EFF342
:102FB0000B8080387047002070477047EFF30B801C
:102FC00000F1800383F30B88704700207047EFF314
:102FD0000B83803B83F30B88704780EA0000E1EEAF
:102FE000100A00EE100A00EE900A01EE100A01EE3F
:102FF000900A02EE100A02EE900A03EE100A03EEA7
:10300000900A04EE100A04EE900A05EE100A05EE8E
:10301000900A06EE100A06EE900A07EE100A07EE76
:10302000900A08EE100A08EE900A09EE100A09EE5E
:10303000900A0AEE100A0AEE900A0BEE100A0BEE46
:10304000900A0CEE100A0CEE900A0DEE100A0DEE2E
:10305000900A0EEE100A0EEE900A0FEE100A0FEE16
:10306000900A70472DE9F0410F46154612B900202D
:10307000BDE8F081002900F0928003F00602062AE4
:1030800031D09C0740F18B800824990648BF44F05A
:103090001204820758BF44F00404C30709D5EFF3B4
:1030A0009483DE074CBF44F0040424F0040444F08D
:1030B000120422462946384602F0A0FC0028D6D148
:1030C00047E800F205EB0708150208F1FF364FEA62
:1030D000126146E800F3C3F307404FEA136304D4D8
:1030E0006FF07F00C4E70124CFE70206F8D58B42DA
:1030F000F6D047E800F546E800F6FEF782FF2D0E11
:1031000085424FEA166626D3FEF77DFF864222D817
:103110002846FEF771FF2246C7F1010101443846F7
:1031200002F06CFC0028DBD00135AE420AD83046F4
:10313000FEF760FF2246A8EB000102F05FFC0028CA
:1031400095D1CDE72846FEF755FF0746FEF75DFF10
:1031500022460146E3E7FEF760FF8542C0D3FEF753
:103160005EFF8642BCD82846FEF726FA2246C7F103
:1031700001010144384602F041FC0028B0D001357D
:10318000B54203D33046FEF743FFD3E72846FEF7A8
:103190003FFF0746FEF745FF22460146EAE74CF2AD
:1031A000DA2065E710B50446FFF71CFDFFF72AFD9E
:1031B00010B143F6DA3010BDFFF75EFD0028F8D1FC
:1031C000FFF754FC0028F4D102232360F3E708B58D
:1031D000FFF7F2FC10B143F6DA3008BDFFF7F6FC5A
:1031E0000028F8D100F01CF80028F4D162B6FDF7F1
:1031F00033FCFFF76FFD0028EDD1FFF78BFD0028B2
:10320000EBD0E8E7EFF30880EFF309812DE9F00F49
:103210006B467246FDF76EFB08B0FFF7B1FCFEE7A8
:103220000020704704460D46FFF7D7FEA546284705
:1032300083F3088896460222EFF31483134383F343
:103240001488BFF36F8F08473C464154414C2045DA
:1032500052524F523A20003C486172644661756C8C
:10326000740A003C4D656D4D616E61676520666155
:10327000756C740A003C4275734661756C740A0083
:103280003C55736167654661756C740A003C536513
:10329000637572654661756C740A003C52657365AE
:1032A0007276656420457863657074696F6E20304E
:1032B00078253038780A003C506C6174666F726D06
:1032C0002065787465726E616C20696E74657272C7
:1032D00075707420284952516E293A203078253073
:1032E00038780A0014426F6F74696E672054462D57
:1032F0004D201B5B313B33346D76322E332E302A1A
:103300002A1B5B306D0A00144275696C74201B5BCC
:10331000313B33346D546875203130205365702053
:10332000323032362031373A30343A33392055543E
:10333000431B5B306D0A0028466C6F61742041426C
:10334000493A20486172642C204C617A7920737468
:1033500061636B696E6720003C656E61626C6564D9
:103360000A003C556E6B6E6F776E2053504D2053A4
:103370005643207265717565737465643A203078C0
:10338000253038780A003C556E6B6E6F776E20538F
:103390005643206E756D6265722072657175657336
:1033A0007465643A203078253038780A003C506CD7
:1033B0006174666F726D20457863657074696F6EB5
:1033C0003A0A0028416C6C2070696E73206861763F
:1033D00065206265656E20636F6E666967757265EC
:1033E00064206173206E6F6E2D7365637572650D59
:1033F0000A000000910A0000F5180000790D000095
:10340000C10A00000D190000191900008D0C000000
:10341000F9180000A90A0000B50A0000D10A00004E
:10342000FF18000003190000091900001D0000002A
:10343000100000021C00000111000003040202023F
:103440000338FDD8704700004809002030090020EB
:10345000240200000080000000800000FF7F0F00B9
:10346000007C00000080000000800F00FFFF0F00C4
:1034700000400050005000500080005000A000505C
:1034800000B0005000E0005000F00050000001507B
:1034900000100150004001500050015000700150D8
:1034A0000080015000B0015000C0015000D0015018
:1034B00000E0015000F001500000025000100250E6
:1034C00000200250003002500040025000600250C4
:1034D0000080025000A0025000900350002584504C
:0434E00000A00350F5
:1035000008B572B60C4A0D4B9A600D4B83F30988CF
:103510000C4B83F30A8883F30B880B4B04A1D1E98E
:103520000001C3E90001FDF7EDF800F021FA00BF4A
:10353000A5EDF5FEA5EDF5FE0000000000ED00E0B4
:10354000F804002000000020F80400200000000023
:103550002DE9F04F8FB0C24C00AF23788A46B86097
:103560002BB9204602F09EF8204602F025FA4FF0D3
:10357000000BBC4BC7F804A0A3FB0A231B093B614B
:10358000B74802F035F98146002856D1B64D2B7C5C
:10359000002B40F0B9804FF47F03D3F80C2CEA469F
:1035A000013200F08481D3F80C2CAE4B172AA3FB18
:1035B00002134FEA131640F2A580FE604FF0000898
:1035C0005646C7F814B0C7F800900622A44807F181
:1035D000200102F04FF9002840F06C81A34BA9684C
:1035E000EC68986807F1200C07F1380EDCF8003021
:1035F0001F22994603E0A0420ED0531C22D04B4616
:10360000D34013F0010313BF002101311C460134E4
:10361000884202F1FF32EED19548C5E90214D7F88D
:1036200014B04FF00E0901F045FAB54602F018F952
:103630008B4802F0C5F90028A2D148463C37BD4668
:10364000BDE8F08F0CF1040CE645CFD1874B4FF06D
:10365000180CD3E900921346C5E9021462464FF0F4
:10366000000B41469C46286807F1200EC0F5806893
:103670004FEA58184FEA8808904528BF90465FEAFD
:10368000980A034627D0C7E9063EAEF104006C68ED
:1036900000EB8A0A50F804EF4FEA5E0303F055335B
:1036A000AEEB03034FEA930E0EF0333E03F03333D9
:1036B000734403EB131303F00F3303EB032303EB08
:1036C00003431B0EC3F1200382451C44E2D1D7E91A
:1036D000063E18466C6000EBC803B3F5806F1846D1
:1036E000A2EB080247D0C644002ABFD1FB6801F113
:1036F000010898452860FFF468AFD7F814B0D7F8F0
:103700000090B54601232B747B68172B40F29C80F8
:103710000024BB68C7F8149003EB8B0806224146CF
:103720004F4802F0A7F8C646002840F0C880D5E907
:1037300002164E4BA8F1040C98685CF8043F1F2257
:10374000994603E0B0420ED0531C20D04B46D340E4
:1037500013F0010313BF002101311E4601368142DF
:1037600002F1FF32EED142484FF00E09C5E90216D0
:1037700001F0A0F95AE76B684B4580F08C806345F7
:1037800040F289800023C5F804B01846ABE708F181
:1037900014036345C5E90216CFD1344B4FF0180C22
:1037A000D3E9009213469FED2C7B624620469C464F
:1037B0002968C1F580635B099B00934228BF1346CB
:1037C0005FEA930AFB6126D0AEF104046E6804EB55
:1037D0008A0AC7F818E054F804EF4FEA5E0303F0D2
:1037E0005533AEEB03034FEA930E0EF0333E03F076
:1037F0003333734403EB131303F00F3303EB03234F
:1038000003EB03431B0EC3F120031E4454456E60BB
:10381000E1D1D7F818E0FB6901EBC301B1F5806F86
:103820002960A2EB030225D0FB699E44002AC0D187
:1038300004463B6901349C420BF1060B08F1180861
:10384000FFF46CAFD7F8149002F00AF848463C3702
:10385000BD46BDE8F08F00BF000000000000000082
:1038600044170020ABAAAAAAC00F0020C408002059
:10387000E06100006B684B4505D2634503D985EDD7
:10388000007B0021D0E7104801F014F94FF00D093A
:1038900001F0E6FFCCE64FF480630B48D7F814B094
:1038A0002B604FF00D0901F005F9B546BEE64FF467
:1038B000047682E6D7F814B08146B546B6E60646E9
:1038C00001F0CEFFB146B3E6E0610000009A074B7D
:1038D0009A4208D110B502F06DFA02F0EFF806BC7A
:1038E00096460C46744702F095FA0000A5EDF5FEE9
:1038F000009A074B9A4208D110B502F067FA02F01D
:10390000DDF806BC96460C46744702F083FA0000C8
:10391000A5EDF5FE0CB4029A084B9A420CD14FF07B
:10392000004319430CBC10B500F052F802F0C6F881
:1039300006BC96460C46744702F06CFAA5EDF5FEFF
:10394000009A044B9A4202D103490868744702F076
:1039500061FA0000A5EDF5FE74600000009A034BCB
:103960009A4200D1744702F055FA0000A5EDF5FE29
:1039700010B5134B13498B4215D30020124B13493A
:103980008B421BD300210846FEF7C8FBFEE71868F0
:1039900050F82240586840F822400132986890421E
:1039A000F5D80C33E7E70022F8E71C6844F822005A
:1039B00001325C689442F8D80833E1E70022F8E766
:1039C0006006000084060000840600009C060000DB
:1039D00070B5EFF30584C4F308040CB1FFF704FAE3
:1039E0000A4D2E68FFF79EFA2B6804469E4208D0C7
:1039F0009B69002BF2D0BDE8704001461869FFF7C3
:103A000035BAFFF729FA204670BD00BFE01000204C
:103A10002DE9F04F89B01C469DF8483006460F4608
:103A20009246F3B112783C2A19D00A3AD2B2282A27
:103A300098BF624B4FF0010098BF53F822204FF01F
:103A4000000388BF0022CDE90230CDE900333046C3
:103A500002F0F6F920223946304602F0E5F90AF183
:103A6000010A4FF00009CB46C846002511E0BDB958
:103A7000252B00F09B800A2B06D10D2239463046BB
:103A8000079302F0D1F9079B1A463946304602F0F7
:103A9000CBF91AF8013B002BE9D109B0BDE8F08F52
:103AA0007A2B08D8682B0ED8302B74D036D8252B1B
:103AB00076D02D2B7FD000230122CDE90033CDE934
:103AC00002323F4A62E0693B112BF4D801A252F85E
:103AD00023F000BF3F3B0000B73A0000B73A0000B8
:103AE000933A0000B73A0000B73A0000B73A000036
:103AF000B73A0000B73A0000B73A00007B3B00003D
:103B0000B73A0000493B0000B73A0000B73A00005E
:103B1000693B0000B73A0000933A0000582B28D0C8
:103B20000BD8A3F13102082AC5D808EB8808303B2E
:103B300003EB48031FFA83F8ABE7642BBBD10123E7
:103B40000025CDE9033502E00025CDE903550A2320
:103B5000CDE90193CDF800B043463946304654F8DC
:103B6000042B02F0AEF994E7002504951023039589
:103B7000EEE7012300250493F8E720230121CDE996
:103B800002310023CDE9008954F8042B3946304630
:103B900002F056F969E7B8F1000FC6D1AB4678E7F5
:103BA0001A463946304602F03FF95EE7A946AB4671
:103BB000A84601256DE7A9466BE700BF78600000C5
:103BC00034620000014B1B68184700BF400800200A
:103BD000014B1860002070473C080020054B5A78C4
:103BE000022A04D11878C31F584258417047002058
:103BF000704700BFFC10002010B50446FFF7EEFF31
:103C000030B10A4604482146BDE8104002F0E6B94A
:103C10006FF0880010BD00BF0011002010B5124CDD
:103C20002378590744BF03F0FB0323709A0705D597
:103C300000F05CF8237823F002032370637813B15B
:103C40000A4802F0DCF9002304210848637000F000
:103C500067F82378DB0705D502F0BDF9237823F058
:103C60000103237010BD00BFFC10002000110020D4
:103C700038B5FFF7B3FFD0B9164D2B78980707D4A6
:103C800000F02CF82B78044643F002032B70C8B9DF
:103C9000D90707D402F09DF92B78044643F00103BD
:103CA0002B7078B96B782BB12B785A070DD500247F
:103CB000204638BD084802F08FF9022304466B7095
:103CC0000028F1D0FFF7AAFFF2E743F004032B70BE
:103CD000EDE700BFFC100020001100200122024B84
:103CE000002083F880257047041100202DE9F04161
:103CF0000A4C002526464FF0010803272046C4F849
:103D000020802777013502F047F9202D04F12C049B
:103D1000F4D1002386F88035BDE8F081041100203D
:103D200010B50A46044619B1024B00211B6898479A
:103D300010BD00BF1C61000010B50C4C236813B10E
:103D40000B4B1B682BB900F07DFD30B90122084BED
:103D50001A6001232360002010BD0138062801D914
:103D6000044810BD044B53F8200010BDA0160020DD
:103D70009C160020FE8FFFFF206100000B4670B5EF
:103D80008AB006461446182103AA04A81D4600F06E
:103D9000ABFE002835D1039B182B32D14FF0FF31F9
:103DA000194800F003FE40BB002000F02FFE00BBCE
:103DB00000942B46182206F1100004A900F074FCB0
:103DC0000446012000F022FE78B90F4800F0F6FD0D
:103DD00038B9B4B9182104A800F0C6FD20460AB0CD
:103DE00070BD0A4800F066FEF3E7094800F062FE85
:103DF000EBE7074800F05EFEDAE7044800F05AFE01
:103E0000D2E7044CEAE700BF5C0800203C610000F8
:103E100054610000FE8FFFFF2DE9F04104460E467D
:103E200015468CB000285CD0484B02689A4277D087
:103E30000DB100297DD04FF4A071204606AF00F0EF
:103E400093FD1821384605AA00F04EFE002873D1D4
:103E5000059B182B70D1A0464FF0FF313C4800F075
:103E6000A5FD80BB002000F0D1FD40BB00230295E2
:103E700018223946019608F11000009300F07AF9F3
:103E80000546012000F0C2FDA8B9314800F096FDBA
:103E900068B9002D52D11821384600F065FD2B4B32
:103EA000C8F80030A4B128460CB0BDE8F08129481C
:103EB00000F000FEEDE7284800F0FCFDE5E72648AD
:103EC00000F0F8FDD2E7234800F0F4FDCAE7002532
:103ED000224800F073FD0028E5D01E4800F0EAFDFE
:103EE000E1E74FF0FF311D4800F060FDE8B91C4BE1
:103EF000164A1B689342EAD005B11EB34FF4A07175
:103F0000174806AF00F030FD1821384605AA00F02A
:103F1000EBFDA8B9059B182B12D1DFF844809BE775
:103F2000002528460CB0BDE8F0810A4800F0C2FD2B
:103F3000DDE76FF4E045B6E70A4DB4E7094DB1E7B8
:103F4000084DC5E76FF4E045C2E700BFA5BCC95AFC
:103F50005C0800203C61000054610000440800201F
:103F6000600E0020FE8FFFFF2DE9F04F88461646B9
:103F70001F46054683B0002800F0A6806F4B0268FC
:103F80009A4240F0D1800D9B1BB10C9B002B00F09E
:103F9000B980002E3AD1002F00F0B480A94600234A
:103FA0003B60D9F8383123B1D9F83021934240F23F
:103FB00081804FF0FF31624800F0F8FC002875D195
:103FC000002000F023FD00286CD10D9B09F1100AA0
:103FD0004FEAC60B00934246594650460C9B00F0F0
:103FE00081F90446012000F011FD002856D1544803
:103FF00000F0E4FC10BB1F2C25D0002C40F0968074
:104000003E6095B1204603B0BDE8F08FB8F1000FD7
:1040100078D0A946002F00F08D800023B6F5803FB0
:104020003B60BED9474C002DECD1474800F0C6FCA0
:104030000028E7D0454800F03DFDE3E7434800F0A5
:1040400039FD1F2CD9D1002248461146FFF796FEB4
:1040500004460028D5D14FF0FF31394800F0A6FCC6
:1040600000285DD1002000F0D1FC002854D10D9B28
:1040700042460093594650460C9B00F033F90446E3
:10408000012000F0C3FC002842D12D4800F096FC2E
:104090000028B2D02D4800F00DFDAEE72C4800F00E
:1040A00009FDA4E72A4800F005FD8EE7274800F047
:1040B00001FD85E74846DDE90C12FFF75FFE044687
:1040C00000283FF476AF9CE74FF0FF311E4800F028
:1040D0006DFC98B91F4B1A68184B9A4228D10D9B5A
:1040E0000BB10C9B8BB11EB97FB1DFF8689056E71E
:1040F000B8F1000F09D0DFF85C908BE7134800F0AF
:10410000D9FCE7E76FF4E0447CE76FF4E0448CE728
:104110000F4800F0CFFCB8E70D4800F0CBFCA6E755
:104120000A4800F0C7FC9DE70B4C6BE70B4C68E7B7
:10413000094C7AE76FF4E04463E700BFA5BCC95AB5
:104140005C080020DE8FFFFF440800203C61000077
:1041500054610000600E0020E88FFFFFFE8FFFFF1C
:1041600010B5002482B0CDE90044FFF7FDFE02B097
:1041700010BD00BF2DE9F04F8A460121154600F120
:10418000E00889B000F580772022044640461E46AC
:10419000894601F0ECFD20220021384601F0E7FDC0
:1041A000139B2022CDE904350025129B3946069346
:1041B000149B204607930223CDE902A68DF80790B1
:1041C0008DF8065000F0DEFD28B10123C4F820313F
:1041D00009B0BDE8F08F20224146204600F03AFEAB
:1041E0000028F2D14A4620460DF1060100F032FEC9
:1041F0000028EAD10DF114090DF1080AD3464D4605
:1042000008AE08E020465BF8041B00F023FE0028FF
:10421000DBD1AE4203D055F8042B002AF2D10023A3
:1042200020223946204600F02FFE0028CDD102235F
:1042300020223946204600F0A5FD0028C5D12022C5
:104240004146204600F006FE0028BED1034620224B
:104250004146204600F018FE0028B6D10223202255
:104260003946204600F08EFD0028AED1202241467E
:10427000204600F0EFFD0028A7D1012220460DF1D5
:10428000070100F0E7FD48B19FE720465AF8041BFC
:1042900000F0E0FD002898D14E4503D059F8042BDA
:1042A000002AF2D1002320223946204600F0ECFDFE
:1042B00000288AD1022320223946204600F062FDE0
:1042C000002882D120224146204600F0C3FD00286C
:1042D0007FF47BAF034620224146204600F0D4FD08
:1042E00073E700BF2DE9F04F8FB00E4600931946DB
:1042F000D0F82031013300F055819046189A0546D8
:1043000000F58079002A44D1002E00F04F81CDE9DC
:10431000012206F1070B48EADB0A4FEADB0300241F
:104320000AF0030A039305F1E00711E0BAF1000F68
:1043300041D02022404406A901F0F4FC2022384656
:1043400004F5807406A901F0EDFCA64240F2E68077
:10435000022320224946284600F014FD40BB2022BB
:104360003946284600F076FD10BB03462022284639
:1043700006A900F089FDD8B9331BE01DFF2B4FEAD9
:10438000D000D3D8ABEB0403BAF1000F2FD0DA087A
:10439000D0E700293CD0002301248DF817302022DB
:1043A000022349468DF8184000F0ECFC002835D077
:1043B0000FB0BDE8F08F069B48F80030079B4044E3
:1043C0004360089B83600823099A042BC260B5D020
:1043D0000A9A052B0261B1D00B9A062B4261ADD02F
:1043E0000C9A082B8261A9D10D9BC361A6E75B09DA
:1043F000A4D0069A012B48F800209FD0079A404489
:10440000022B42609AD0089A032B8260DCD195E798
:10441000002E00F0CB80CDE901117AE705F1E0072D
:1044200020223946284600F015FD0028C0D122463A
:1044300028460DF1170100F00DFD0028B8D1009CB1
:1044400028462146189A00F005FD0028B0D1034601
:1044500020224946284600F017FD0028A8D1022353
:1044600020224946284600F08DFC0028A0D12022B9
:104470003946284600F0EEFC002899D1002320227E
:104480003946284600F000FD002891D10223202261
:104490004946284600F076FC002889D1202239467A
:1044A000284600F0D7FC002882D10122284606A920
:1044B00000F0D0FC00287FF47BAF21462846189AF4
:1044C00000F0C8FC00287FF473AF03462022494661
:1044D000284600F0D9FC00287FF46AAF022320228E
:1044E0004946284600F04EFC00287FF461AF2022A8
:1044F0003946284600F0AEFC00287FF459AF034649
:1045000039462022284600F0BFFC00287FF450AF37
:1045100036B3189B0193009B0293FAE616F007034B
:104520001AD016F0060F00F0B580022B40F2B680CC
:10453000710740F1B180042B40F2B480052B00F0EC
:10454000AF80072B14BFFC22FE22039B013B18F80F
:1045500003100A4008F80320009B4BB3189B3BB3A1
:104560000126189B0193009B0293002301278DF8DD
:10457000173020220223494628468DF8187000F093
:1045800001FC38B905F1E00420222146284600F05C
:1045900061FC78B1D5F820310133C5F820310FB076
:1045A000BDE8F08F1F200FB0BDE8F08FCDE90166A8
:1045B0000026DAE73A4628460DF1170100F04AFCDA
:1045C0000028E7D146B1019B33B11A46284602992B
:1045D00000F040FC0028DDD1002320224946284677
:1045E00000F052FC0028D5D102232022494628465B
:1045F00000F0C8FB0028CDD120222146284600F03B
:1046000029FC0028C6D1034620222146284600F076
:104610003BFC0028BED1002EBCD0022320224946FC
:10462000284600F0AFFB0028B4D1202221462846BE
:1046300000F010FC0028ADD10122284606A900F0A8
:1046400009FC0028A6D1019B33B11A4628460299DD
:1046500000F000FC00289DD1002320224946284676
:1046600000F012FC002895D102232022494628465A
:1046700000F088FB00288DD120222146284600F03A
:10468000E9FB002886D1034620222146284600F077
:10469000FBFB7FE7802258E7E02256E7C02254E781
:1046A000F82252E7F02250E72DE9F04700244FF0BE
:1046B000010800F5807982B00E4615461F4620227B
:1046C000022349468DF806408DF80780044600F025
:1046D00059FB10B102B0BDE8F08704F1E00A2022D6
:1046E0005146204600F0B6FB0028F3D14246204652
:1046F0000DF1060100F0AEFB0028EBD17DB12A469A
:104700003146204600F0A6FB0028E3D10A9B33B1D6
:104710001A463946204600F09DFB0028DAD10023D6
:1047200020224946204600F0AFFB0028D2D10223C8
:1047300020224946204600F025FB0028CAD120222D
:104740005146204600F086FB0028C3D103462022B4
:104750005146204600F098FB0028BBD102232022BE
:104760004946204600F00EFB0028B3D120225146D6
:10477000204600F06FFB0028ACD1012220460DF14D
:10478000070100F067FB0028A4D17DB12A4631461D
:10479000204600F05FFB00289CD10A9B33B11A46EB
:1047A0003946204600F056FB002893D100232022F2
:1047B0004946204600F068FB00288BD102232022C6
:1047C0004946204600F0DEFA002883D120225146D7
:1047D000204600F03FFB00287FF47CAF03462022F8
:1047E0005146204600F050FB00287FF473AF0123B0
:1047F000C4F8203102B0BDE8F08700BF890000F0A6
:1048000039BA00BF3AB101EB820251F8043B914240
:1048100040F8043BF9D1704708B500F037F830B9DB
:1048200000F03EF828B9064AC2F80C0A08BD032079
:1048300008BD00F02DF800F06DF8042008BD00BFA1
:104840000010845030B583B0FFF7E6FF044610B97E
:104850000B4D2B6813B1204603B030BD0246014614
:10486000FFF7DAFA50B96822064901ABFFF778FC86
:1048700020B92046044B2B6003B030BD0524EAE785
:10488000A4160020A81600205AEA5A5A00207047A1
:1048900000207047014BC3F8040A70470010845091
:1048A00010B5154800F06EF800B110BD134800F0C7
:1048B00069F80028F9D1124C204600F063F800286E
:1048C000F3D1104B10481C6000F05CF80028ECD1CC
:1048D0000E4800F057F80028E7D10D4800F052F8D4
:1048E00001460028E1D100F039F8044608B900F08B
:1048F0006FF8204610BD00BF5C080020580800205B
:10490000540800204C0800205008002048080020CF
:104910004408002008B50B4800F03EF80A4800F0B3
:104920003BF80A4800F038F8094800F035F8094823
:1049300000F032F8084800F02FF8BDE8084000F019
:104940000FB800BF5C080020580800205408002061
:10495000500800204808002044080020002070472C
:10496000704700BF01F0A5B982B0019041B10023AA
:104970009C461A4601980133994200F802C0F8D1CA
:1049800002B0704708B5034B02681B68106898476F
:10499000002008BD7C08002008B5034B02685B6856
:1049A00010689847002008BD7C080020024B026870
:1049B0009B681068184700BF7C08002008B5034BAF
:1049C0000268DB6810689847002008BD7C0800205A
:1049D00070B5094C094D2069AB68984718B1084B70
:1049E00008485B6898470021074AEB681160206916
:1049F000BDE87040184700BF680800207C08002010
:104A0000600800207461000010170020F8B51A4DEE
:104A10001A4E0446B26828699047E8B9184F3B68B7
:104A20004CB1A3B1012B19D0013B3B602869F3685D
:104A300098470020F8BD43B90121124AC2F8001579
:104A40001149D1F81029002AFBD101333B60F368EA
:104A5000286998470020F8BD0C48F8BD0A4AD2F8EA
:104A60001039002BFBD1074A6FF07E40C2F80035A9
:104A7000FFF710FF3B68D7E7680800207C0800209C
:104A8000101700200000845000108450E98FFFFFB1
:104A9000BFF34F8F0549064BCA6802F4E062134327
:104AA000CB60BFF34F8F00BFFDE700BF00ED00E01C
:104AB0000400FA0530B44FF0FE320025074B084CD5
:104AC00008494968C3F80024C3F80424C3F808243B
:104AD000C3F80C24C4F8005530BC084700108450BB
:104AE00000008450600800202DE9F047DFF8ACA0FA
:104AF00080460D46DAF800004FF0FF319146FFF78F
:104B000055FFA8BB0020FFF781FF68BBC5B1002699
:104B10001E4F0AE0182D2C4628BF1824394622467D
:104B2000FFF720FF2D1B26440BD018213846FEF737
:104B30000FFD034608EB0600002BEBD0144C03E0FE
:104B40002E460024C9F8006010481821FFF70CFF1A
:104B50000120FFF75BFFA8B9DAF80000FFF72EFF8E
:104B600050B92046BDE8F0870A48FFF7A3FFCDE71C
:104B70000948FFF79FFFC5E70748FFF79BFF20465F
:104B8000BDE8F0870348FFF795FFE5E7141700201D
:104B9000FE8FFFFF546100003C6100004C080020C4
:104BA00010B5044650B1636813F0685F05D0064A3B
:104BB000934202D000236260236010BD034B04487F
:104BC0005B689847EFE700BF2C5F5CA96008002096
:104BD00094610000C8B143680D4A934213D013F0AA
:104BE000685F0ED0012350E8002F194640E8001CF2
:104BF0009CF0000FF7D1012AF5D0BFF35F8F0020A2
:104C0000704704487047044870476FF4E0407047AD
:104C10002C5F5CA9E98FFFFFEA8FFFFF034680B19D
:104C2000426809498A420AD012F0685F05D0BFF392
:104C30005F8F002210461A6070470448704704488E
:104C400070476FF4E04070472C5F5CA9E98FFFFF6D
:104C5000EA8FFFFF10B5044620B10023034A23600A
:104C6000626010BD0248FFF725FFF6E73A00003A00
:104C7000BC6100002DE9F0410E4682B0002879D0D9
:104C800000296FD0054601273D4C55E0D4F80CC0F3
:104C90002068D4E901E14FEACE524B0980EAC058BE
:104CA00042EA502243EACC638EEA02004B404FEACC
:104CB000984E4EEA803E83EA08038CEA5C1283EA4F
:104CC0000E03424011EB030E82EA90424CEB0200CD
:104CD000082EB046C4E9023228BF4FF0080815F08C
:104CE0000303C4E9001CCDE900E032D1072E3DD812
:104CF000032E2CD9B8F10402C5F800E018D0042323
:104D000003F10801694411F8081C012AE9540FD085
:104D100003F10900684410F8080C591C032A685470
:104D200006D103F10A026A4412F8082C0233EA544D
:104D3000B6EB0806454415D0237E002BA6D11821DA
:104D40002046FEF705FC0028F9D127769EE742466B
:104D5000D6E728464246694600F0E4FFB6EB08066F
:104D60004544E9D1002002B0BDE8F081C5F800E07B
:104D70006860DDE70029F5D0142002B0BDE8F081BD
:104D8000A00F00202DE9F04117468846402200215F
:104D900006461D4600F0EBFF402F36D84FBB284695
:104DA00000F0F0F8044620B100F096F92046BDE886
:104DB000F0814FF0363000F077F94021304600F0B6
:104DC000B1F9044600F07CF9002CEDD106F1400069
:104DD00000F0ACF9012D86F8D85035D00A2D35D029
:104DE000A5F10205B5FA85F56D096D0186F8D95072
:104DF000DAE741463046BA08FFF704FD284600F0DE
:104E0000C1F804460028CFD1D3E7284600F0BAF80D
:104E100004460028CAD13946404600F083F90446CA
:104E20000028C1D16B1EDBB2092B96BF084A014690
:104E300052F82310304600F019FA284600F0A2F884
:104E400004460028B0D1B4E71425CFE71C25CDE7F0
:104E5000EC61000070B50C46164600F1400528468E
:104E600000F0A2F92046314600F05CF9044618B182
:104E700000F032F9204670BD284600F057F900F0E6
:104E80002BF9204670BD00BF2DE9F84F90F8D8509F
:104E90000646012D8946984600AF36D00A2D32D0FD
:104EA000A5F10205B5FA85F56D096D01EA1D22F03F
:104EB0000702ADEB020DEA4606F1400B584600F042
:104EC00073F92946504600F0D1F996F8D80000F061
:104ED00059F8044688B94FF05C3000F0E5F84021FD
:104EE000304600F01FF9044638B900F0E9F82946C9
:104EF000504600F017F9044648B100F0EDF820469E
:104F0000BD46BDE8F88F1C25D0E71425CEE729461D
:104F1000504600F0ABF9B8F1000F03D096F8D93045
:104F2000C8F8003096F8D920514692084846FFF755
:104F300069FC96F8D91011F0030219D1584600F017
:104F4000F5F896F8D830012B10D00A2B18D0A3F121
:104F50000203B3FA83F35B09D9005046FFF74EFC16
:104F600000F0BAF82046BD46BDE8F88F0521F4E709
:104F700001F0FC0109EB0100514400F0D3FEDDE734
:104F80000721EAE7F8B50025012706463D4C00F069
:104F90006DFBC4F860562846C4F85C56C4F85856F1
:104FA000C4F85456C4F85056C4F84C56C4F8485681
:104FB000C4F84456C4F84056C4F8C857C4F88456D8
:104FC000C4F8885600F05AFB0720C4F81858C4F8F3
:104FD000187800F053FB06F00F03C4F8A4564020E5
:104FE000C4F8C477C4F88456C4F8C03700F038FB5E
:104FF000022EC4F8CC57C4F8D0571ED12249234BF7
:10500000C4F85C16224AC4F85836224BC4F8542619
:105010002149C4F85036214B02F10152C4F84C1614
:1050200002F50912C4F848361D4B02F2F952C4F8D1
:105030004426C4F840362846F8BD00F017FBC4F8F3
:1050400060562846C4F85C56C4F85856C4F85456FE
:10505000C4F85056C4F84C56C4F84856C4F84456E0
:10506000C4F84056C4F8C857C4F88456C4F88856E3
:1050700000F004FB0B48C4F81858FFF71BFD06208E
:10508000F8BD00BF0010845019CDE05BABD9831F81
:105090008C68059B7F520E513AF54FA572F36E3C1A
:1050A00067E6096AE061000010B50446002000F0E0
:1050B000BBFA024BC3F8884610BD00BF00108450F5
:1050C00008B5002000F0B0FA0022024BC3F8882691
:1050D00008BD00BF0010845038B50024104D00F00A
:1050E000C5FAC5F860462046C5F85C46C5F858467E
:1050F000C5F85446C5F85046C5F84C46C5F848466C
:10510000C5F84446C5F84046C5F8C847C5F88446C2
:10511000C5F8884600F0B2FAC5F8184838BD00BF97
:105120000010845000231A4600F0FAB970B400262B
:1051300003461B4C6022D4F8CC571A49C0E90256EA
:10514000D4F8D007D860D4F8C00700F00F0018706A
:10515000D4F888061863D4F8400600BA1861D4F869
:10516000440600BA5861D4F8480600BA9861D4F8E9
:105170004C0600BAD861D4F8500600BA1862D4F8C8
:10518000540600BA5862D4F8580600BA9862D4F8A7
:105190005C4603F1340024BADC6270BC00F0C2BD8E
:1051A00000108450A4170020F8B5044601272D4DA7
:1051B00026780720C5F8187800F060FA002306F07A
:1051C0000F06C5F8A4364020C5F8C477C5F8843664
:1051D000C5F8C06700F044FA2278A368BA420CBF51
:1051E00004210721C5F8CC37E36804F11002C5F8A3
:1051F000D037236B0429C5F8883652F821004FEACE
:1052000081031A4403F1A14303F5822300BAC3F8D2
:10521000400652F8040C00BAC3F83C0652F8080CD9
:1052200000BAC3F8380652F80C0C00BAC3F83406BA
:1052300052F8102C12BAC3F830260BD0A26912BA59
:10524000C3F82C26626912BAC3F82826226912BA5A
:10525000C3F8242604F134016022BDE8F840024876
:1052600000F060BD00108450A417002038B5384A03
:10527000384B126CD3F8C04705460C46002A60D163
:105280000422C3F8C827334AD2F81C39002BFBD1BB
:10529000A30834D0D2F84016012B09BA29602ED0C9
:1052A000D2F84416022B09BA696028D0D2F8481601
:1052B000032B09BAA96022D0D2F84C16042B09BAE4
:1052C000E9601CD0D2F85016052B09BA296116D016
:1052D000D2F85416062B09BA696110D0D2F85816C4
:1052E000072B09BAA9610AD0D2F85C26082B12BA9A
:1052F000EA6104D0174BD3F860361BBA2B62002446
:10530000144D00F0B3F9C5F860462046C5F85C4678
:10531000C5F85846C5F85446C5F85046C5F84C4639
:10532000C5F84846C5F84446C5F84046C5F8C847DC
:10533000C5F88446C5F8884600F0A0F9C5F81848B5
:1053400038BD01220020C3F8842600F06DF99AE7E9
:10535000A417002000108450F0B501246D4A6E4B54
:1053600092F85C5092F84870A5428646C3F82048EF
:105370003CD04FF4FE64C3F8044AD3F8084A44F41E
:105380007F64C3F8084A002F3BD1002D61D1634BE5
:105390001C7C14B11C68844261D993F824401CB170
:1053A0005C69844240F2818093F838401CB19C6A69
:1053B000844240F2918093F84C401CB1DC6B8442F3
:1053C00040F29180544BC3F828ECC3F82C1C002FFA
:1053D00043D08021504AD2F8003A31EA0303FAD18F
:1053E0000023C2F8081AC2F82038F0BD4FF47664E2
:1053F000C3F8044AD3F8084A44F47F64C3F8084A5F
:105400003FB3464BD46C1F7C17B11F68BC4237D2E8
:1054100093F8247017B15F69BC424DD293F838708D
:1054200017B19F6ABC424FD293F84C7017B1DF6B33
:10543000BC4260D227460C44D464946D0C449465FD
:10544000354CC4F8287DC4F82C1D002D5CD10127F3
:105450009EE7C3F8300CC3F8341C4021BAE75D68FE
:105460002544854299D9002505EB850503EB850385
:10547000556D9A68DE68121B104405FB060EA1E705
:105480005E6807EB060C6445C2D24FF0000C0CEBD3
:105490008C0C03EB8C0CDCF80860DCF80CC0F71B00
:1054A000566D274406FB0C77C5E79D692544854268
:1054B0007FF67AAF0125D7E79E6907EB060C6445B6
:1054C000ACD24FF0010CE2E7DE6A07EB060C644554
:1054D000AAD24FF0020CDAE7DD6A254485427FF656
:1054E0006AAF0225C0E71D6C2544854288BF0325AD
:1054F0007FF668AFB8E71E6C07EB060C644538BF53
:105500004FF0030C96D2C2E7C4F8300CC4F8341C38
:105510005FE700BFA417002000108450541700203C
:10552000B0F1005F56D32DE9F84314464218B2F1AA
:10553000804F05460F466AD8DFF8E490D9E910128B
:1055400074B3002B4FD0D9F85030BB4262D3DB1B71
:10555000C9F85030002948D1FFB1D9F8401089F876
:105560004840C9BBD9F844307E1EB6FBF3F603FBB6
:1055700006F646B1B6F5803F1DD228463146FFF704
:10558000EBFEBF1B35443A462946254800F0CAFBCE
:10559000D9F840303B44C9F840300020BDE8F883DA
:1055A0000029D9D099F84830FBB14846FFF7D4FE1E
:1055B000C9F84040D0E7D9F844402846C4F58038BF
:1055C0004146FFF7C9FEA4F58033F6181F44454451
:1055D000D0D1D8E70A2070471148FFF7BDFE00235D
:1055E000C9F84030BEE70029B6D0521ABA42164672
:1055F00028BF3E4609EB0100294600F093FBD9F88D
:10560000403035443344C9F84030BF1BA4E70A207A
:10561000BDE8F8830348FFF74DFA1320BEE700BF4B
:10562000A4170020E061000010B50C4C216C29B1DA
:1056300028B90A48FFF790FE0023236410BDC1F18A
:1056400040026018002100F092FB616C0348216465
:10565000FFF782FE00232364F0E700BFA4170020B9
:10566000014B5864704700BFA4170020602200213E
:10567000014800F07CBB00BFA4170020074AD2F805
:105680001039002BFBD1064B0449C2F800091870F1
:10569000D1F81039002BFBD1704700BF00108450A7
:1056A000051800204FF47F0310B44D4AD3F8101CA6
:1056B00091423FD0D3F8102C01323BD0D3F8102CBC
:1056C000002A37D1D3F8141C464A914250D0D3F85F
:1056D000142C01324CD0D3F8142C002A48D1D3F822
:1056E000182C12F5947F59D0D3F8182C013255D0CC
:1056F000D3F8182C002A51D1D3F81C2C3A4B9A42DB
:1057000009D04FF47F03D3F81C2C013203D0D3F817
:105710001C3C002B5FD04FF47F03334AD3F81C1C92
:10572000914251D0D3F81C2C0321013250D0D3F830
:105730001C4C0DE04FF47F03294AD3F8101C914212
:105740000FD0D3F8102C002101320ED0D3F8104C1A
:105750000122002384600173027043605DF8044BF2
:105760007047002140F6FC04F2E740F6FC04EFE746
:105770004FF47F031B4AD3F8141C914207D0D3F88F
:10578000142C0121013206D0D3F8144CE0E701219A
:1057900042F2D004DCE742F2D004D9E74FF47F03B1
:1057A000D3F8182C12F5947F07D0D3F8182C0221C7
:1057B000013206D0D3F8184CCAE7022140F6D8646B
:1057C000C6E740F6D864C3E7032142F60414BFE7F6
:1057D00042F60414BCE705485DF8044BFFF76AB9CC
:1057E000FCF8FFFFD020FFFF0429FFFFE06100006D
:1057F00070B5037853B3D0E901520124164B90F8E9
:105800000CC0C3F8C441C3F84041C3F8C441C3F855
:105810003021D3F830118A42F7D100203F261E21D3
:105820000422C3F82C01C3F8086AC3F80011C3F8B6
:10583000040AC3F80C21D3F80C214CEA0202C3F885
:105840000C21C3F83851C3F82C4170BD0348FFF751
:1058500031F90C2070BD00BF00108450E0610000E1
:105860000020034BC3F82C01C3F8C401704700BFEC
:10587000001084504FF0000C2DE9F84F86460124AB
:105880004FF0FF354FF03F094FF01E0804270E463A
:105890006046474BD3F8042112F00E0F55D0D3F8D1
:1058A0000C21D3F8301102F00302032AC3F82C01B3
:1058B000C3F8BC41C3F808516BD0013242F0040A6E
:1058C000D2B2C3F80CA1C3F830118EF80C20CEF878
:1058D0000810D3F80C11D3F8302101F0030BD3F8E2
:1058E00038A1C3F8C441C3F84041C3F8C441C3F868
:1058F0003021D3F830118A42F7D1C3F82C01C3F814
:10590000089AC3F80081C3F8040AC3F80C71D3F8ED
:105910000C210CF1010C4BEA0202C3F80C21C3F874
:1059200038A1C3F82C41D3F80421D10711D4BCF11C
:10593000640FAFD100221E4B1E48C3F82C21C3F8C0
:10594000C421FFF7B7F8102021E0D3F80421D207D3
:10595000A0D5BCF1640FEDD04FF0FF320121002043
:10596000134BC3F8BC11C3F80821D3F814213260DB
:10597000D3F818217260D3F81C21B260D3F820212B
:10598000F260D3F824213261D3F828317361BDE885
:10599000F88F4A1C9DD0491840EB00028D4270EBF5
:1059A000020238BF4FF0FF3100224FF0040A88E7AF
:1059B00000108450E06100000A234360704700BF7C
:1059C000C368032B05D0022B14D80133C360012018
:1059D000704783685A1C0FD000224FF0FF3CDB1841
:1059E00042EB020191420CBF19466146C0E9021226
:1059F000012070478368EFE700207047431810B517
:105A000001D21F2A01D9002010BD013902F0140370
:105A10000144102B81EA000438D027DC7BBB1F2C0B
:105A200040E800F303D941E800F19942EBD122F0BC
:105A30001402013A0A2AE6D801A151F822F000BF67
:105A4000AF5A0000A95A00009B5A0000075A0000F4
:105A5000075A0000075A0000075A0000B55A000014
:105A6000AF5A0000A35A00009B5A0000142BCAD161
:105A70001F2C40E8C0F3DAD941E8C0F1D5E71F2C6C
:105A800040E840F3D3D941E840F1CEE71F2C40E88D
:105A900080F3CCD941E880F1C7E713F4001FB3D1FC
:105AA000B1E713F4801FFAE75B02ADD5ABE713F45F
:105AB000002FF4E713F4802FF1E700BFB7EE000AE0
:105AC000F7EE000AB7EE001AF7EE001AB7EE002A5A
:105AD000F7EE002AB7EE003AF7EE003AB7EE004ACA
:105AE000F7EE004AB7EE005AF7EE005AB7EE006A3A
:105AF000F7EE006AB7EE007AF7EE007AF1EE10CA20
:105B000040F29F01CFF200013CEA010CE1EE10CA25
